{
  "_format": "hh-sol-artifact-1",
  "contractName": "MockPoolManager",
  "sourceName": "contracts/MockPoolManager.sol",
  "abi": [
    {
      "inputs": [
        {
          "internalType": "address",
          "name": "",
          "type": "address"
        },
        {
          "internalType": "address",
          "name": "",
          "type": "address"
        }
      ],
      "name": "mockRates",
      "outputs": [
        {
          "internalType": "uint256",
          "name": "",
          "type": "uint256"
        }
      ],
      "stateMutability": "view",
      "type": "function"
    },
    {
      "inputs": [
        {
          "internalType": "address",
          "name": "tokenIn",
          "type": "address"
        },
        {
          "internalType": "address",
          "name": "tokenOut",
          "type": "address"
        },
        {
          "internalType": "uint256",
          "name": "rate",
          "type": "uint256"
        }
      ],
      "name": "setMockRate",
      "outputs": [],
      "stateMutability": "nonpayable",
      "type": "function"
    },
    {
      "inputs": [
        {
          "components": [
            {
              "internalType": "Currency",
              "name": "currency0",
              "type": "address"
            },
            {
              "internalType": "Currency",
              "name": "currency1",
              "type": "address"
            },
            {
              "internalType": "uint24",
              "name": "fee",
              "type": "uint24"
            },
            {
              "internalType": "int24",
              "name": "tickSpacing",
              "type": "int24"
            },
            {
              "internalType": "contract IHooks",
              "name": "hooks",
              "type": "address"
            }
          ],
          "internalType": "struct PoolKey",
          "name": "key",
          "type": "tuple"
        },
        {
          "components": [
            {
              "internalType": "bool",
              "name": "zeroForOne",
              "type": "bool"
            },
            {
              "internalType": "int256",
              "name": "amountSpecified",
              "type": "int256"
            },
            {
              "internalType": "uint160",
              "name": "sqrtPriceLimitX96",
              "type": "uint160"
            }
          ],
          "internalType": "struct SwapParams",
          "name": "params",
          "type": "tuple"
        },
        {
          "internalType": "bytes",
          "name": "hookData",
          "type": "bytes"
        }
      ],
      "name": "swap",
      "outputs": [
        {
          "internalType": "BalanceDelta",
          "name": "delta",
          "type": "int256"
        }
      ],
      "stateMutability": "nonpayable",
      "type": "function"
    }
  ],
  "bytecode": "0x60808060405234610016576104a1908161001c8239f35b600080fdfe60406080815260048036101561001457600080fd5b600091823560e01c80632a246889146103575780635bb286f61461030f5763f3cd914c1461004157600080fd5b3461030757366003190161012081126102635760a0136103075760603660a319011261030757610104359267ffffffffffffffff80851161030b573660238601121561030b57848401358181116103075760249436868389010111610263576001600160a01b0396876100b26103d1565b5050876100bd6103e7565b50506100c76103fd565b156102ed57876100d56103d1565b16886100df6103e7565b16905b8960c43591169182885260209a888c52898920911688528a52878720548082029082820414821517156102db578a670de0b6b3a76400008992049360648c8c5194859384926323b872dd60e01b8452338c85015230908401528760448401525af180156102d15761029e575b506101576103fd565b1561028a5761016590610444565b60801b17965b8787333b61017d575b8a925051908152f35b6064889287601f9886855198899687956357d4c31560e11b87528c8701528286015282604486015201848401378483828401015288199889910116810103018183335af18015610280576101d3575b8787610174565b3d8087843e6101e2818461040c565b82019189818403126102785780519086821161027c57019282601f8501121561027857835195861161026757505061022388875194601f870116018461040c565b838352878483010111610263579086929183855b84811061024f575050500101523880808080806101cc565b818184010151828286010152018490610237565b8380fd5b634e487b7160e01b87526041905285fd5b8680fd5b8780fd5b87513d88823e3d90fd5b61029390610444565b9060801b179661016b565b8a81813d83116102ca575b6102b3818361040c565b8101031261027c575180151503610278573861014e565b503d6102a9565b89513d8a823e3d90fd5b634e487b7160e01b8852601185528988fd5b876102f66103e7565b16886103006103d1565b16906100e2565b8280fd5b5080fd5b83823461030b578060031936011261030b578060209261032d6103a0565b6103356103bb565b6001600160a01b03918216835282865283832091168252845220549051908152f35b83823461030b57606036600319011261030b576103726103a0565b61037a6103bb565b6001600160a01b0391821684526020848152838520929091168452528120604435905580f35b600435906001600160a01b03821682036103b657565b600080fd5b602435906001600160a01b03821682036103b657565b6004356001600160a01b03811681036103b65790565b6024356001600160a01b03811681036103b65790565b60a43580151581036103b65790565b90601f8019910116810190811067ffffffffffffffff82111761042e57604052565b634e487b7160e01b600052604160045260246000fd5b600160ff1b81146104555760000390565b634e487b7160e01b600052601160045260246000fdfea26469706673582212202b229f42d26604ae4a88c036a9cba5f6b74a1f602b0714ca5016d38f57dedeed64736f6c63430008180033",
  "linkReferences": {},
  "deployedLinkReferences": {}
}