{"contracts/noah.sol":{"Noah":{"abi":[{"inputs":[{"internalType":"address","name":"_router","type":"address"},{"internalType":"address","name":"_usdc","type":"address"}],"stateMutability":"nonpayable","type":"constructor"},{"anonymous":false,"inputs":[{"indexed":true,"internalType":"address","name":"user","type":"address"},{"indexed":true,"internalType":"address","name":"beneficiary","type":"address"},{"indexed":false,"internalType":"uint256","name":"deadline","type":"uint256"}],"name":"ArkBuilt","type":"event"},{"anonymous":false,"inputs":[{"indexed":true,"internalType":"address","name":"user","type":"address"},{"indexed":false,"internalType":"uint256","name":"newDeadline","type":"uint256"}],"name":"ArkPinged","type":"event"},{"anonymous":false,"inputs":[{"indexed":true,"internalType":"address","name":"user","type":"address"},{"indexed":false,"internalType":"uint256","name":"newDuration","type":"uint256"},{"indexed":false,"internalType":"uint256","name":"newDeadline","type":"uint256"}],"name":"DeadlineUpdated","type":"event"},{"anonymous":false,"inputs":[{"indexed":true,"internalType":"address","name":"user","type":"address"},{"indexed":true,"internalType":"address","name":"beneficiary","type":"address"},{"indexed":false,"internalType":"uint256","name":"usdcAmount","type":"uint256"}],"name":"FloodTriggered","type":"event"},{"anonymous":false,"inputs":[{"indexed":true,"internalType":"address","name":"user","type":"address"},{"indexed":false,"internalType":"address","name":"passenger","type":"address"}],"name":"PassengerRemoved","type":"event"},{"anonymous":false,"inputs":[{"indexed":true,"internalType":"address","name":"user","type":"address"},{"indexed":false,"internalType":"address[]","name":"newPassengers","type":"address[]"}],"name":"PassengersAdded","type":"event"},{"inputs":[{"internalType":"address[]","name":"_newPassengers","type":"address[]"}],"name":"addPassengers","outputs":[],"stateMutability":"nonpayable","type":"function"},{"inputs":[{"internalType":"address","name":"","type":"address"}],"name":"arks","outputs":[{"internalType":"address","name":"beneficiary","type":"address"},{"internalType":"uint256","name":"deadline","type":"uint256"},{"internalType":"uint256","name":"deadlineDuration","type":"uint256"}],"stateMutability":"view","type":"function"},{"inputs":[{"internalType":"address","name":"_beneficiary","type":"address"},{"internalType":"uint256","name":"_deadlineDuration","type":"uint256"},{"internalType":"address[]","name":"_tokens","type":"address[]"}],"name":"buildArk","outputs":[],"stateMutability":"nonpayable","type":"function"},{"inputs":[{"internalType":"address","name":"_user","type":"address"}],"name":"flood","outputs":[],"stateMutability":"nonpayable","type":"function"},{"inputs":[],"name":"pingArk","outputs":[],"stateMutability":"nonpayable","type":"function"},{"inputs":[{"internalType":"address","name":"_passengerToRemove","type":"address"}],"name":"removePassenger","outputs":[],"stateMutability":"nonpayable","type":"function"},{"inputs":[],"name":"uniswapRouter","outputs":[{"internalType":"contract IUniswapV2Router02","name":"","type":"address"}],"stateMutability":"view","type":"function"},{"inputs":[{"internalType":"uint256","name":"_newDuration","type":"uint256"}],"name":"updateDeadlineDuration","outputs":[],"stateMutability":"nonpayable","type":"function"},{"inputs":[],"name":"usdcAddress","outputs":[{"internalType":"address","name":"","type":"address"}],"stateMutability":"view","type":"function"}],"evm":{"bytecode":{"linkReferences":{},"object":"60c0346100b557601f61116438819003918201601f19168301916001600160401b038311848410176100ba5780849260409485528339810103126100b557610052602061004b836100d0565b92016100d0565b6001600160a01b0390911660805260a05260405161107f90816100e5823960805181818161030b015281816104220152610cc1015260a051818181610259015281816102ba0152818161039601528181610474015281816107430152610ec00152f35b600080fd5b634e487b7160e01b600052604160045260246000fd5b51906001600160a01b03821682036100b55756fe608080604052600436101561001357600080fd5b60003560e01c90816302d4545714610ead575080630fe23da914610e24578063454d58d214610cf0578063735de9f714610cab5780637900001314610b6b57806388b2187214610b17578063b1ad599d14610809578063f2511bb11461016d5763fabb6a381461008257600080fd5b3461016857602080600319360112610168576004359033600052600081526100b36001604060002001541515610fa3565b8115610119573360005260008152816002604060002001556100d58242610f96565b903360005260008152816001604060002001556040519283528201527f270517e45d27f999faef5e16a3159117c83577723363227c5901cb52e315d86860403392a2005b6084906040519062461bcd60e51b82526004820152602260248201527f4475726174696f6e206d7573742062652067726561746572207468616e207a65604482015261726f60f01b6064820152fd5b600080fd5b34610168576020366003190112610168576001600160a01b0361018e610eef565b16806000526000602052604060002060018101546101ad811515610f4a565b42106107c4576000805b60038301548110156106c5576101d08160038501610fdf565b90546040516370a0823160e01b8152600481018790529160031b1c6001600160a01b0316602082602481845afa91821561051357600092610691575b508161021d575b50506001016101b7565b604093919293516323b872dd60e01b81528660048201523060248201528360448201526020816064816000865af1801561051357610672575b507f00000000000000000000000000000000000000000000000000000000000000006001600160a01b0316810361029d575060019161029491610f96565b915b9085610213565b6040516370a0823160e01b815230600482015292906020846024817f00000000000000000000000000000000000000000000000000000000000000006001600160a01b03165afa9384156105135760009461063e575b5060405163095ea7b360e01b81526001600160a01b037f0000000000000000000000000000000000000000000000000000000000000000166004820152602481018390526020816044816000865af180156105135761060f575b506040519081606081011067ffffffffffffffff6060840111176105f957606082016040526002825260403660208401378151156105e35760208201528051600110156105e3577f00000000000000000000000000000000000000000000000000000000000000006001600160a01b0316604080830191909152516338ed173960e01b8152600481019290925260006024830181905260a06044840152815160a48401819052839260c48401926020909101915b8082106105be575050306064840152504260848301526000919081900381837f00000000000000000000000000000000000000000000000000000000000000006001600160a01b03165af180156105135761051f575b506040516370a0823160e01b8152306004820152916020836024817f00000000000000000000000000000000000000000000000000000000000000006001600160a01b03165afa928315610513576000936104df575b5082039182116104c9576001916104c391610f96565b91610296565b634e487b7160e01b600052601160045260246000fd5b9092506020813d60201161050b575b816104fb60209383610ff7565b81010312610168575191866104ad565b3d91506104ee565b6040513d6000823e3d90fd5b3d806000833e61052f8183610ff7565b81016020828203126101685781519167ffffffffffffffff83116101685781601f848301011215610168578281015192602061056a85611019565b6105776040519182610ff7565b858152019260208560051b83850101011161016857602081830101925b60208560051b838501010184106105ae5750505050610457565b8351815260209384019301610594565b82516001600160a01b0316845285945060209384019390920191600190910190610401565b634e487b7160e01b600052603260045260246000fd5b634e487b7160e01b600052604160045260246000fd5b6106309060203d602011610637575b6106288183610ff7565b810190611031565b508761034d565b503d61061e565b9093506020813d60201161066a575b8161065a60209383610ff7565b81010312610168575192876102f3565b3d915061064d565b61068a9060203d602011610637576106288183610ff7565b5086610256565b9091506020813d6020116106bd575b816106ad60209383610ff7565b810103126101685751908661020c565b3d91506106a0565b5091908261070e575b60006001820155546040519283526001600160a01b0316917fde3f14ce4426137f4576388d16723795d5bf5e2f00597e0e8d63816a7342a1e190602090a3005b805460405163a9059cbb60e01b81526001600160a01b03909116600482015260248101849052906020828060448101038160007f00000000000000000000000000000000000000000000000000000000000000006001600160a01b03165af1908115610513577fde3f14ce4426137f4576388d16723795d5bf5e2f00597e0e8d63816a7342a1e1926020926107a7575b509150506106ce565b6107bd90833d8511610637576106288183610ff7565b508561079e565b60405162461bcd60e51b815260206004820152601760248201527f446561646c696e6520686173206e6f74207061737365640000000000000000006044820152606490fd5b3461016857606036600319011261016857610822610eef565b60443567ffffffffffffffff811161016857610842903690600401610f19565b336000526000602052600160406000200154610ad2576001600160a01b03831615610a7e5760243515610a255761087b60243542610f96565b90604051916080830183811067ffffffffffffffff8211176105f95760405260018060a01b0385168352602083015260243560408301526108bb81611019565b926108c96040519485610ff7565b8184526020840190368360051b8201116101685780915b8360051b82018310610a0d578686600387606081019283523360005260006020526040806000209160018060a01b038151166bffffffffffffffffffffffff60a01b84541617835560208101516001840155015160028201550190519081519167ffffffffffffffff83116105f957600160401b83116105f95781548383558084106109e4575b5060200190600052602060002060005b8381106109c7578461098b60243542610f96565b6040519081526001600160a01b039091169033907fd4c9fb4a0298b2717518a542bd4801ce0cb35fd35087636887f9e87ad8d75a3f90602090a3005b82516001600160a01b031681830155602090920191600101610977565b8260005283602060002091820191015b818110610a015750610967565b600081556001016109f4565b60208091610a1a85610f05565b8152019201916108e0565b60405162461bcd60e51b815260206004820152602b60248201527f446561646c696e65206475726174696f6e206d7573742062652067726561746560448201526a72207468616e207a65726f60a81b6064820152608490fd5b60405162461bcd60e51b815260206004820152602660248201527f42656e65666963696172792063616e6e6f7420626520746865207a65726f206160448201526564647265737360d01b6064820152608490fd5b60405162461bcd60e51b815260206004820152601b60248201527f4163636f756e7420616c726561647920696e697469616c697a656400000000006044820152606490fd5b346101685760203660031901126101685760606001600160a01b0380610b3b610eef565b16600052600060205260406000209081541690600260018201549101549060405192835260208301526040820152f35b34610168576020806003193601126101685760043567ffffffffffffffff811161016857610b9d903690600401610f19565b909133600052600081526001610bbc6001604060002001541515610fa3565b60005b838110610c34575060405192808385018486525260408401949260005b828110610c0c57337fb90857f670e2787419d97e8ad1483239915b735fecc028adf074ef41c09d602c87890388a2005b909192828082969860018060a01b03610c248b610f05565b1681520197019493929101610bdc565b336000908152808452604090209293919260030190600581901b8601356001600160a01b038116810361016857825490600160401b8210156105f957610c8382879586610ca195018155610fdf565b90919060018060a01b038084549260031b9316831b921b1916179055565b0192919092610bbf565b34610168576000366003190112610168576040517f00000000000000000000000000000000000000000000000000000000000000006001600160a01b03168152602090f35b3461016857602036600319011261016857610d09610eef565b336000526000602052600190610d286001604060002001541515610fa3565b3360005260006020528160038060406000200160009360018060a01b03809116955b610d7e575b856040519081527f08eac65c9901be8390f0cf78f2ca8d86e706341713377dca39b0472fc07cdd0560203392a2005b815480861015610e1e578682610d948886610fdf565b905490871b1c1614610dab57508380950194610d4a565b929491935091600019918282019182116104c957610c8384610dd0610dde9488610fdf565b905490891b1c169186610fdf565b82548015610e08570192610df28484610fdf565b81939154921b1b19169055558180808080610d4f565b634e487b7160e01b600052603160045260246000fd5b50610d4f565b3461016857600036600319011261016857336000526000602052610e516001604060002001541515610f4a565b336000526000602052610e6c60026040600020015442610f96565b336000526000602052806001604060002001556040519081527ff1a463082eff5f74a481d3abd6fc308d976449c50289c0564e946069cb7d880560203392a2005b34610168576000366003190112610168577f00000000000000000000000000000000000000000000000000000000000000006001600160a01b03168152602090f35b600435906001600160a01b038216820361016857565b35906001600160a01b038216820361016857565b9181601f840112156101685782359167ffffffffffffffff8311610168576020808501948460051b01011161016857565b15610f5157565b60405162461bcd60e51b815260206004820152601760248201527f4163636f756e74206e6f7420696e697469616c697a65640000000000000000006044820152606490fd5b919082018092116104c957565b15610faa57565b60405162461bcd60e51b815260206004820152600d60248201526c105c9ac81b9bdd08189d5a5b1d609a1b6044820152606490fd5b80548210156105e35760005260206000200190600090565b90601f8019910116810190811067ffffffffffffffff8211176105f957604052565b67ffffffffffffffff81116105f95760051b60200190565b9081602091031261016857518015158103610168579056fea26469706673582212200e32906998dd8e0684507eddb924be9fef931e5a2ec05a5109b3275c02ca191864736f6c63430008180033","opcodes":"PUSH1 0xC0 CALLVALUE PUSH2 0xB5 JUMPI PUSH1 0x1F PUSH2 0x1164 CODESIZE DUP2 SWAP1 SUB SWAP2 DUP3 ADD PUSH1 0x1F NOT AND DUP4 ADD SWAP2 PUSH1 0x1 PUSH1 0x1 PUSH1 0x40 SHL SUB DUP4 GT DUP5 DUP5 LT OR PUSH2 0xBA JUMPI DUP1 DUP5 SWAP3 PUSH1 0x40 SWAP5 DUP6 MSTORE DUP4 CODECOPY DUP2 ADD SUB SLT PUSH2 0xB5 JUMPI PUSH2 0x52 PUSH1 0x20 PUSH2 0x4B DUP4 PUSH2 0xD0 JUMP JUMPDEST SWAP3 ADD PUSH2 0xD0 JUMP JUMPDEST PUSH1 0x1 PUSH1 0x1 PUSH1 0xA0 SHL SUB SWAP1 SWAP2 AND PUSH1 0x80 MSTORE PUSH1 0xA0 MSTORE PUSH1 0x40 MLOAD PUSH2 0x107F SWAP1 DUP2 PUSH2 0xE5 DUP3 CODECOPY PUSH1 0x80 MLOAD DUP2 DUP2 DUP2 PUSH2 0x30B ADD MSTORE DUP2 DUP2 PUSH2 0x422 ADD MSTORE PUSH2 0xCC1 ADD MSTORE PUSH1 0xA0 MLOAD DUP2 DUP2 DUP2 PUSH2 0x259 ADD MSTORE DUP2 DUP2 PUSH2 0x2BA ADD MSTORE DUP2 DUP2 PUSH2 0x396 ADD MSTORE DUP2 DUP2 PUSH2 0x474 ADD MSTORE DUP2 DUP2 PUSH2 0x743 ADD MSTORE PUSH2 0xEC0 ADD MSTORE RETURN JUMPDEST PUSH1 0x0 DUP1 REVERT JUMPDEST PUSH4 0x4E487B71 PUSH1 0xE0 SHL PUSH1 0x0 MSTORE PUSH1 0x41 PUSH1 0x4 MSTORE PUSH1 0x24 PUSH1 0x0 REVERT JUMPDEST MLOAD SWAP1 PUSH1 0x1 PUSH1 0x1 PUSH1 0xA0 SHL SUB DUP3 AND DUP3 SUB PUSH2 0xB5 JUMPI JUMP INVALID PUSH1 0x80 DUP1 PUSH1 0x40 MSTORE PUSH1 0x4 CALLDATASIZE LT ISZERO PUSH2 0x13 JUMPI PUSH1 0x0 DUP1 REVERT JUMPDEST PUSH1 0x0 CALLDATALOAD PUSH1 0xE0 SHR SWAP1 DUP2 PUSH4 0x2D45457 EQ PUSH2 0xEAD JUMPI POP DUP1 PUSH4 0xFE23DA9 EQ PUSH2 0xE24 JUMPI DUP1 PUSH4 0x454D58D2 EQ PUSH2 0xCF0 JUMPI DUP1 PUSH4 0x735DE9F7 EQ PUSH2 0xCAB JUMPI DUP1 PUSH4 0x79000013 EQ PUSH2 0xB6B JUMPI DUP1 PUSH4 0x88B21872 EQ PUSH2 0xB17 JUMPI DUP1 PUSH4 0xB1AD599D EQ PUSH2 0x809 JUMPI DUP1 PUSH4 0xF2511BB1 EQ PUSH2 0x16D JUMPI PUSH4 0xFABB6A38 EQ PUSH2 0x82 JUMPI PUSH1 0x0 DUP1 REVERT JUMPDEST CALLVALUE PUSH2 0x168 JUMPI PUSH1 0x20 DUP1 PUSH1 0x3 NOT CALLDATASIZE ADD SLT PUSH2 0x168 JUMPI PUSH1 0x4 CALLDATALOAD SWAP1 CALLER PUSH1 0x0 MSTORE PUSH1 0x0 DUP2 MSTORE PUSH2 0xB3 PUSH1 0x1 PUSH1 0x40 PUSH1 0x0 KECCAK256 ADD SLOAD ISZERO ISZERO PUSH2 0xFA3 JUMP JUMPDEST DUP2 ISZERO PUSH2 0x119 JUMPI CALLER PUSH1 0x0 MSTORE PUSH1 0x0 DUP2 MSTORE DUP2 PUSH1 0x2 PUSH1 0x40 PUSH1 0x0 KECCAK256 ADD SSTORE PUSH2 0xD5 DUP3 TIMESTAMP PUSH2 0xF96 JUMP JUMPDEST SWAP1 CALLER PUSH1 0x0 MSTORE PUSH1 0x0 DUP2 MSTORE DUP2 PUSH1 0x1 PUSH1 0x40 PUSH1 0x0 KECCAK256 ADD SSTORE PUSH1 0x40 MLOAD SWAP3 DUP4 MSTORE DUP3 ADD MSTORE PUSH32 0x270517E45D27F999FAEF5E16A3159117C83577723363227C5901CB52E315D868 PUSH1 0x40 CALLER SWAP3 LOG2 STOP JUMPDEST PUSH1 0x84 SWAP1 PUSH1 0x40 MLOAD SWAP1 PUSH3 0x461BCD PUSH1 0xE5 SHL DUP3 MSTORE PUSH1 0x4 DUP3 ADD MSTORE PUSH1 0x22 PUSH1 0x24 DUP3 ADD MSTORE PUSH32 0x4475726174696F6E206D7573742062652067726561746572207468616E207A65 PUSH1 0x44 DUP3 ADD MSTORE PUSH2 0x726F PUSH1 0xF0 SHL PUSH1 0x64 DUP3 ADD MSTORE REVERT JUMPDEST PUSH1 0x0 DUP1 REVERT JUMPDEST CALLVALUE PUSH2 0x168 JUMPI PUSH1 0x20 CALLDATASIZE PUSH1 0x3 NOT ADD SLT PUSH2 0x168 JUMPI PUSH1 0x1 PUSH1 0x1 PUSH1 0xA0 SHL SUB PUSH2 0x18E PUSH2 0xEEF JUMP JUMPDEST AND DUP1 PUSH1 0x0 MSTORE PUSH1 0x0 PUSH1 0x20 MSTORE PUSH1 0x40 PUSH1 0x0 KECCAK256 PUSH1 0x1 DUP2 ADD SLOAD PUSH2 0x1AD DUP2 ISZERO ISZERO PUSH2 0xF4A JUMP JUMPDEST TIMESTAMP LT PUSH2 0x7C4 JUMPI PUSH1 0x0 DUP1 JUMPDEST PUSH1 0x3 DUP4 ADD SLOAD DUP2 LT ISZERO PUSH2 0x6C5 JUMPI PUSH2 0x1D0 DUP2 PUSH1 0x3 DUP6 ADD PUSH2 0xFDF JUMP JUMPDEST SWAP1 SLOAD PUSH1 0x40 MLOAD PUSH4 0x70A08231 PUSH1 0xE0 SHL DUP2 MSTORE PUSH1 0x4 DUP2 ADD DUP8 SWAP1 MSTORE SWAP2 PUSH1 0x3 SHL SHR PUSH1 0x1 PUSH1 0x1 PUSH1 0xA0 SHL SUB AND PUSH1 0x20 DUP3 PUSH1 0x24 DUP2 DUP5 GAS STATICCALL SWAP2 DUP3 ISZERO PUSH2 0x513 JUMPI PUSH1 0x0 SWAP3 PUSH2 0x691 JUMPI JUMPDEST POP DUP2 PUSH2 0x21D JUMPI JUMPDEST POP POP PUSH1 0x1 ADD PUSH2 0x1B7 JUMP JUMPDEST PUSH1 0x40 SWAP4 SWAP2 SWAP3 SWAP4 MLOAD PUSH4 0x23B872DD PUSH1 0xE0 SHL DUP2 MSTORE DUP7 PUSH1 0x4 DUP3 ADD MSTORE ADDRESS PUSH1 0x24 DUP3 ADD MSTORE DUP4 PUSH1 0x44 DUP3 ADD MSTORE PUSH1 0x20 DUP2 PUSH1 0x64 DUP2 PUSH1 0x0 DUP7 GAS CALL DUP1 ISZERO PUSH2 0x513 JUMPI PUSH2 0x672 JUMPI JUMPDEST POP PUSH32 0x0 PUSH1 0x1 PUSH1 0x1 PUSH1 0xA0 SHL SUB AND DUP2 SUB PUSH2 0x29D JUMPI POP PUSH1 0x1 SWAP2 PUSH2 0x294 SWAP2 PUSH2 0xF96 JUMP JUMPDEST SWAP2 JUMPDEST SWAP1 DUP6 PUSH2 0x213 JUMP JUMPDEST PUSH1 0x40 MLOAD PUSH4 0x70A08231 PUSH1 0xE0 SHL DUP2 MSTORE ADDRESS PUSH1 0x4 DUP3 ADD MSTORE SWAP3 SWAP1 PUSH1 0x20 DUP5 PUSH1 0x24 DUP2 PUSH32 0x0 PUSH1 0x1 PUSH1 0x1 PUSH1 0xA0 SHL SUB AND GAS STATICCALL SWAP4 DUP5 ISZERO PUSH2 0x513 JUMPI PUSH1 0x0 SWAP5 PUSH2 0x63E JUMPI JUMPDEST POP PUSH1 0x40 MLOAD PUSH4 0x95EA7B3 PUSH1 0xE0 SHL DUP2 MSTORE PUSH1 0x1 PUSH1 0x1 PUSH1 0xA0 SHL SUB PUSH32 0x0 AND PUSH1 0x4 DUP3 ADD MSTORE PUSH1 0x24 DUP2 ADD DUP4 SWAP1 MSTORE PUSH1 0x20 DUP2 PUSH1 0x44 DUP2 PUSH1 0x0 DUP7 GAS CALL DUP1 ISZERO PUSH2 0x513 JUMPI PUSH2 0x60F JUMPI JUMPDEST POP PUSH1 0x40 MLOAD SWAP1 DUP2 PUSH1 0x60 DUP2 ADD LT PUSH8 0xFFFFFFFFFFFFFFFF PUSH1 0x60 DUP5 ADD GT OR PUSH2 0x5F9 JUMPI PUSH1 0x60 DUP3 ADD PUSH1 0x40 MSTORE PUSH1 0x2 DUP3 MSTORE PUSH1 0x40 CALLDATASIZE PUSH1 0x20 DUP5 ADD CALLDATACOPY DUP2 MLOAD ISZERO PUSH2 0x5E3 JUMPI PUSH1 0x20 DUP3 ADD MSTORE DUP1 MLOAD PUSH1 0x1 LT ISZERO PUSH2 0x5E3 JUMPI PUSH32 0x0 PUSH1 0x1 PUSH1 0x1 PUSH1 0xA0 SHL SUB AND PUSH1 0x40 DUP1 DUP4 ADD SWAP2 SWAP1 SWAP2 MSTORE MLOAD PUSH4 0x38ED1739 PUSH1 0xE0 SHL DUP2 MSTORE PUSH1 0x4 DUP2 ADD SWAP3 SWAP1 SWAP3 MSTORE PUSH1 0x0 PUSH1 0x24 DUP4 ADD DUP2 SWAP1 MSTORE PUSH1 0xA0 PUSH1 0x44 DUP5 ADD MSTORE DUP2 MLOAD PUSH1 0xA4 DUP5 ADD DUP2 SWAP1 MSTORE DUP4 SWAP3 PUSH1 0xC4 DUP5 ADD SWAP3 PUSH1 0x20 SWAP1 SWAP2 ADD SWAP2 JUMPDEST DUP1 DUP3 LT PUSH2 0x5BE JUMPI POP POP ADDRESS PUSH1 0x64 DUP5 ADD MSTORE POP TIMESTAMP PUSH1 0x84 DUP4 ADD MSTORE PUSH1 0x0 SWAP2 SWAP1 DUP2 SWAP1 SUB DUP2 DUP4 PUSH32 0x0 PUSH1 0x1 PUSH1 0x1 PUSH1 0xA0 SHL SUB AND GAS CALL DUP1 ISZERO PUSH2 0x513 JUMPI PUSH2 0x51F JUMPI JUMPDEST POP PUSH1 0x40 MLOAD PUSH4 0x70A08231 PUSH1 0xE0 SHL DUP2 MSTORE ADDRESS PUSH1 0x4 DUP3 ADD MSTORE SWAP2 PUSH1 0x20 DUP4 PUSH1 0x24 DUP2 PUSH32 0x0 PUSH1 0x1 PUSH1 0x1 PUSH1 0xA0 SHL SUB AND GAS STATICCALL SWAP3 DUP4 ISZERO PUSH2 0x513 JUMPI PUSH1 0x0 SWAP4 PUSH2 0x4DF JUMPI JUMPDEST POP DUP3 SUB SWAP2 DUP3 GT PUSH2 0x4C9 JUMPI PUSH1 0x1 SWAP2 PUSH2 0x4C3 SWAP2 PUSH2 0xF96 JUMP JUMPDEST SWAP2 PUSH2 0x296 JUMP JUMPDEST PUSH4 0x4E487B71 PUSH1 0xE0 SHL PUSH1 0x0 MSTORE PUSH1 0x11 PUSH1 0x4 MSTORE PUSH1 0x24 PUSH1 0x0 REVERT JUMPDEST SWAP1 SWAP3 POP PUSH1 0x20 DUP2 RETURNDATASIZE PUSH1 0x20 GT PUSH2 0x50B JUMPI JUMPDEST DUP2 PUSH2 0x4FB PUSH1 0x20 SWAP4 DUP4 PUSH2 0xFF7 JUMP JUMPDEST DUP2 ADD SUB SLT PUSH2 0x168 JUMPI MLOAD SWAP2 DUP7 PUSH2 0x4AD JUMP JUMPDEST RETURNDATASIZE SWAP2 POP PUSH2 0x4EE JUMP JUMPDEST PUSH1 0x40 MLOAD RETURNDATASIZE PUSH1 0x0 DUP3 RETURNDATACOPY RETURNDATASIZE SWAP1 REVERT JUMPDEST RETURNDATASIZE DUP1 PUSH1 0x0 DUP4 RETURNDATACOPY PUSH2 0x52F DUP2 DUP4 PUSH2 0xFF7 JUMP JUMPDEST DUP2 ADD PUSH1 0x20 DUP3 DUP3 SUB SLT PUSH2 0x168 JUMPI DUP2 MLOAD SWAP2 PUSH8 0xFFFFFFFFFFFFFFFF DUP4 GT PUSH2 0x168 JUMPI DUP2 PUSH1 0x1F DUP5 DUP4 ADD ADD SLT ISZERO PUSH2 0x168 JUMPI DUP3 DUP2 ADD MLOAD SWAP3 PUSH1 0x20 PUSH2 0x56A DUP6 PUSH2 0x1019 JUMP JUMPDEST PUSH2 0x577 PUSH1 0x40 MLOAD SWAP2 DUP3 PUSH2 0xFF7 JUMP JUMPDEST DUP6 DUP2 MSTORE ADD SWAP3 PUSH1 0x20 DUP6 PUSH1 0x5 SHL DUP4 DUP6 ADD ADD ADD GT PUSH2 0x168 JUMPI PUSH1 0x20 DUP2 DUP4 ADD ADD SWAP3 JUMPDEST PUSH1 0x20 DUP6 PUSH1 0x5 SHL DUP4 DUP6 ADD ADD ADD DUP5 LT PUSH2 0x5AE JUMPI POP POP POP POP PUSH2 0x457 JUMP JUMPDEST DUP4 MLOAD DUP2 MSTORE PUSH1 0x20 SWAP4 DUP5 ADD SWAP4 ADD PUSH2 0x594 JUMP JUMPDEST DUP3 MLOAD PUSH1 0x1 PUSH1 0x1 PUSH1 0xA0 SHL SUB AND DUP5 MSTORE DUP6 SWAP5 POP PUSH1 0x20 SWAP4 DUP5 ADD SWAP4 SWAP1 SWAP3 ADD SWAP2 PUSH1 0x1 SWAP1 SWAP2 ADD SWAP1 PUSH2 0x401 JUMP JUMPDEST PUSH4 0x4E487B71 PUSH1 0xE0 SHL PUSH1 0x0 MSTORE PUSH1 0x32 PUSH1 0x4 MSTORE PUSH1 0x24 PUSH1 0x0 REVERT JUMPDEST PUSH4 0x4E487B71 PUSH1 0xE0 SHL PUSH1 0x0 MSTORE PUSH1 0x41 PUSH1 0x4 MSTORE PUSH1 0x24 PUSH1 0x0 REVERT JUMPDEST PUSH2 0x630 SWAP1 PUSH1 0x20 RETURNDATASIZE PUSH1 0x20 GT PUSH2 0x637 JUMPI JUMPDEST PUSH2 0x628 DUP2 DUP4 PUSH2 0xFF7 JUMP JUMPDEST DUP2 ADD SWAP1 PUSH2 0x1031 JUMP JUMPDEST POP DUP8 PUSH2 0x34D JUMP JUMPDEST POP RETURNDATASIZE PUSH2 0x61E JUMP JUMPDEST SWAP1 SWAP4 POP PUSH1 0x20 DUP2 RETURNDATASIZE PUSH1 0x20 GT PUSH2 0x66A JUMPI JUMPDEST DUP2 PUSH2 0x65A PUSH1 0x20 SWAP4 DUP4 PUSH2 0xFF7 JUMP JUMPDEST DUP2 ADD SUB SLT PUSH2 0x168 JUMPI MLOAD SWAP3 DUP8 PUSH2 0x2F3 JUMP JUMPDEST RETURNDATASIZE SWAP2 POP PUSH2 0x64D JUMP JUMPDEST PUSH2 0x68A SWAP1 PUSH1 0x20 RETURNDATASIZE PUSH1 0x20 GT PUSH2 0x637 JUMPI PUSH2 0x628 DUP2 DUP4 PUSH2 0xFF7 JUMP JUMPDEST POP DUP7 PUSH2 0x256 JUMP JUMPDEST SWAP1 SWAP2 POP PUSH1 0x20 DUP2 RETURNDATASIZE PUSH1 0x20 GT PUSH2 0x6BD JUMPI JUMPDEST DUP2 PUSH2 0x6AD PUSH1 0x20 SWAP4 DUP4 PUSH2 0xFF7 JUMP JUMPDEST DUP2 ADD SUB SLT PUSH2 0x168 JUMPI MLOAD SWAP1 DUP7 PUSH2 0x20C JUMP JUMPDEST RETURNDATASIZE SWAP2 POP PUSH2 0x6A0 JUMP JUMPDEST POP SWAP2 SWAP1 DUP3 PUSH2 0x70E JUMPI JUMPDEST PUSH1 0x0 PUSH1 0x1 DUP3 ADD SSTORE SLOAD PUSH1 0x40 MLOAD SWAP3 DUP4 MSTORE PUSH1 0x1 PUSH1 0x1 PUSH1 0xA0 SHL SUB AND SWAP2 PUSH32 0xDE3F14CE4426137F4576388D16723795D5BF5E2F00597E0E8D63816A7342A1E1 SWAP1 PUSH1 0x20 SWAP1 LOG3 STOP JUMPDEST DUP1 SLOAD PUSH1 0x40 MLOAD PUSH4 0xA9059CBB PUSH1 0xE0 SHL DUP2 MSTORE PUSH1 0x1 PUSH1 0x1 PUSH1 0xA0 SHL SUB SWAP1 SWAP2 AND PUSH1 0x4 DUP3 ADD MSTORE PUSH1 0x24 DUP2 ADD DUP5 SWAP1 MSTORE SWAP1 PUSH1 0x20 DUP3 DUP1 PUSH1 0x44 DUP2 ADD SUB DUP2 PUSH1 0x0 PUSH32 0x0 PUSH1 0x1 PUSH1 0x1 PUSH1 0xA0 SHL SUB AND GAS CALL SWAP1 DUP2 ISZERO PUSH2 0x513 JUMPI PUSH32 0xDE3F14CE4426137F4576388D16723795D5BF5E2F00597E0E8D63816A7342A1E1 SWAP3 PUSH1 0x20 SWAP3 PUSH2 0x7A7 JUMPI JUMPDEST POP SWAP2 POP POP PUSH2 0x6CE JUMP JUMPDEST PUSH2 0x7BD SWAP1 DUP4 RETURNDATASIZE DUP6 GT PUSH2 0x637 JUMPI PUSH2 0x628 DUP2 DUP4 PUSH2 0xFF7 JUMP JUMPDEST POP DUP6 PUSH2 0x79E JUMP JUMPDEST PUSH1 0x40 MLOAD PUSH3 0x461BCD PUSH1 0xE5 SHL DUP2 MSTORE PUSH1 0x20 PUSH1 0x4 DUP3 ADD MSTORE PUSH1 0x17 PUSH1 0x24 DUP3 ADD MSTORE PUSH32 0x446561646C696E6520686173206E6F7420706173736564000000000000000000 PUSH1 0x44 DUP3 ADD MSTORE PUSH1 0x64 SWAP1 REVERT JUMPDEST CALLVALUE PUSH2 0x168 JUMPI PUSH1 0x60 CALLDATASIZE PUSH1 0x3 NOT ADD SLT PUSH2 0x168 JUMPI PUSH2 0x822 PUSH2 0xEEF JUMP JUMPDEST PUSH1 0x44 CALLDATALOAD PUSH8 0xFFFFFFFFFFFFFFFF DUP2 GT PUSH2 0x168 JUMPI PUSH2 0x842 SWAP1 CALLDATASIZE SWAP1 PUSH1 0x4 ADD PUSH2 0xF19 JUMP JUMPDEST CALLER PUSH1 0x0 MSTORE PUSH1 0x0 PUSH1 0x20 MSTORE PUSH1 0x1 PUSH1 0x40 PUSH1 0x0 KECCAK256 ADD SLOAD PUSH2 0xAD2 JUMPI PUSH1 0x1 PUSH1 0x1 PUSH1 0xA0 SHL SUB DUP4 AND ISZERO PUSH2 0xA7E JUMPI PUSH1 0x24 CALLDATALOAD ISZERO PUSH2 0xA25 JUMPI PUSH2 0x87B PUSH1 0x24 CALLDATALOAD TIMESTAMP PUSH2 0xF96 JUMP JUMPDEST SWAP1 PUSH1 0x40 MLOAD SWAP2 PUSH1 0x80 DUP4 ADD DUP4 DUP2 LT PUSH8 0xFFFFFFFFFFFFFFFF DUP3 GT OR PUSH2 0x5F9 JUMPI PUSH1 0x40 MSTORE PUSH1 0x1 DUP1 PUSH1 0xA0 SHL SUB DUP6 AND DUP4 MSTORE PUSH1 0x20 DUP4 ADD MSTORE PUSH1 0x24 CALLDATALOAD PUSH1 0x40 DUP4 ADD MSTORE PUSH2 0x8BB DUP2 PUSH2 0x1019 JUMP JUMPDEST SWAP3 PUSH2 0x8C9 PUSH1 0x40 MLOAD SWAP5 DUP6 PUSH2 0xFF7 JUMP JUMPDEST DUP2 DUP5 MSTORE PUSH1 0x20 DUP5 ADD SWAP1 CALLDATASIZE DUP4 PUSH1 0x5 SHL DUP3 ADD GT PUSH2 0x168 JUMPI DUP1 SWAP2 JUMPDEST DUP4 PUSH1 0x5 SHL DUP3 ADD DUP4 LT PUSH2 0xA0D JUMPI DUP7 DUP7 PUSH1 0x3 DUP8 PUSH1 0x60 DUP2 ADD SWAP3 DUP4 MSTORE CALLER PUSH1 0x0 MSTORE PUSH1 0x0 PUSH1 0x20 MSTORE PUSH1 0x40 DUP1 PUSH1 0x0 KECCAK256 SWAP2 PUSH1 0x1 DUP1 PUSH1 0xA0 SHL SUB DUP2 MLOAD AND PUSH12 0xFFFFFFFFFFFFFFFFFFFFFFFF PUSH1 0xA0 SHL DUP5 SLOAD AND OR DUP4 SSTORE PUSH1 0x20 DUP2 ADD MLOAD PUSH1 0x1 DUP5 ADD SSTORE ADD MLOAD PUSH1 0x2 DUP3 ADD SSTORE ADD SWAP1 MLOAD SWAP1 DUP2 MLOAD SWAP2 PUSH8 0xFFFFFFFFFFFFFFFF DUP4 GT PUSH2 0x5F9 JUMPI PUSH1 0x1 PUSH1 0x40 SHL DUP4 GT PUSH2 0x5F9 JUMPI DUP2 SLOAD DUP4 DUP4 SSTORE DUP1 DUP5 LT PUSH2 0x9E4 JUMPI JUMPDEST POP PUSH1 0x20 ADD SWAP1 PUSH1 0x0 MSTORE PUSH1 0x20 PUSH1 0x0 KECCAK256 PUSH1 0x0 JUMPDEST DUP4 DUP2 LT PUSH2 0x9C7 JUMPI DUP5 PUSH2 0x98B PUSH1 0x24 CALLDATALOAD TIMESTAMP PUSH2 0xF96 JUMP JUMPDEST PUSH1 0x40 MLOAD SWAP1 DUP2 MSTORE PUSH1 0x1 PUSH1 0x1 PUSH1 0xA0 SHL SUB SWAP1 SWAP2 AND SWAP1 CALLER SWAP1 PUSH32 0xD4C9FB4A0298B2717518A542BD4801CE0CB35FD35087636887F9E87AD8D75A3F SWAP1 PUSH1 0x20 SWAP1 LOG3 STOP JUMPDEST DUP3 MLOAD PUSH1 0x1 PUSH1 0x1 PUSH1 0xA0 SHL SUB AND DUP2 DUP4 ADD SSTORE PUSH1 0x20 SWAP1 SWAP3 ADD SWAP2 PUSH1 0x1 ADD PUSH2 0x977 JUMP JUMPDEST DUP3 PUSH1 0x0 MSTORE DUP4 PUSH1 0x20 PUSH1 0x0 KECCAK256 SWAP2 DUP3 ADD SWAP2 ADD JUMPDEST DUP2 DUP2 LT PUSH2 0xA01 JUMPI POP PUSH2 0x967 JUMP JUMPDEST PUSH1 0x0 DUP2 SSTORE PUSH1 0x1 ADD PUSH2 0x9F4 JUMP JUMPDEST PUSH1 0x20 DUP1 SWAP2 PUSH2 0xA1A DUP6 PUSH2 0xF05 JUMP JUMPDEST DUP2 MSTORE ADD SWAP3 ADD SWAP2 PUSH2 0x8E0 JUMP JUMPDEST PUSH1 0x40 MLOAD PUSH3 0x461BCD PUSH1 0xE5 SHL DUP2 MSTORE PUSH1 0x20 PUSH1 0x4 DUP3 ADD MSTORE PUSH1 0x2B PUSH1 0x24 DUP3 ADD MSTORE PUSH32 0x446561646C696E65206475726174696F6E206D75737420626520677265617465 PUSH1 0x44 DUP3 ADD MSTORE PUSH11 0x72207468616E207A65726F PUSH1 0xA8 SHL PUSH1 0x64 DUP3 ADD MSTORE PUSH1 0x84 SWAP1 REVERT JUMPDEST PUSH1 0x40 MLOAD PUSH3 0x461BCD PUSH1 0xE5 SHL DUP2 MSTORE PUSH1 0x20 PUSH1 0x4 DUP3 ADD MSTORE PUSH1 0x26 PUSH1 0x24 DUP3 ADD MSTORE PUSH32 0x42656E65666963696172792063616E6E6F7420626520746865207A65726F2061 PUSH1 0x44 DUP3 ADD MSTORE PUSH6 0x646472657373 PUSH1 0xD0 SHL PUSH1 0x64 DUP3 ADD MSTORE PUSH1 0x84 SWAP1 REVERT JUMPDEST PUSH1 0x40 MLOAD PUSH3 0x461BCD PUSH1 0xE5 SHL DUP2 MSTORE PUSH1 0x20 PUSH1 0x4 DUP3 ADD MSTORE PUSH1 0x1B PUSH1 0x24 DUP3 ADD MSTORE PUSH32 0x4163636F756E7420616C726561647920696E697469616C697A65640000000000 PUSH1 0x44 DUP3 ADD MSTORE PUSH1 0x64 SWAP1 REVERT JUMPDEST CALLVALUE PUSH2 0x168 JUMPI PUSH1 0x20 CALLDATASIZE PUSH1 0x3 NOT ADD SLT PUSH2 0x168 JUMPI PUSH1 0x60 PUSH1 0x1 PUSH1 0x1 PUSH1 0xA0 SHL SUB DUP1 PUSH2 0xB3B PUSH2 0xEEF JUMP JUMPDEST AND PUSH1 0x0 MSTORE PUSH1 0x0 PUSH1 0x20 MSTORE PUSH1 0x40 PUSH1 0x0 KECCAK256 SWAP1 DUP2 SLOAD AND SWAP1 PUSH1 0x2 PUSH1 0x1 DUP3 ADD SLOAD SWAP2 ADD SLOAD SWAP1 PUSH1 0x40 MLOAD SWAP3 DUP4 MSTORE PUSH1 0x20 DUP4 ADD MSTORE PUSH1 0x40 DUP3 ADD MSTORE RETURN JUMPDEST CALLVALUE PUSH2 0x168 JUMPI PUSH1 0x20 DUP1 PUSH1 0x3 NOT CALLDATASIZE ADD SLT PUSH2 0x168 JUMPI PUSH1 0x4 CALLDATALOAD PUSH8 0xFFFFFFFFFFFFFFFF DUP2 GT PUSH2 0x168 JUMPI PUSH2 0xB9D SWAP1 CALLDATASIZE SWAP1 PUSH1 0x4 ADD PUSH2 0xF19 JUMP JUMPDEST SWAP1 SWAP2 CALLER PUSH1 0x0 MSTORE PUSH1 0x0 DUP2 MSTORE PUSH1 0x1 PUSH2 0xBBC PUSH1 0x1 PUSH1 0x40 PUSH1 0x0 KECCAK256 ADD SLOAD ISZERO ISZERO PUSH2 0xFA3 JUMP JUMPDEST PUSH1 0x0 JUMPDEST DUP4 DUP2 LT PUSH2 0xC34 JUMPI POP PUSH1 0x40 MLOAD SWAP3 DUP1 DUP4 DUP6 ADD DUP5 DUP7 MSTORE MSTORE PUSH1 0x40 DUP5 ADD SWAP5 SWAP3 PUSH1 0x0 JUMPDEST DUP3 DUP2 LT PUSH2 0xC0C JUMPI CALLER PUSH32 0xB90857F670E2787419D97E8AD1483239915B735FECC028ADF074EF41C09D602C DUP8 DUP10 SUB DUP9 LOG2 STOP JUMPDEST SWAP1 SWAP2 SWAP3 DUP3 DUP1 DUP3 SWAP7 SWAP9 PUSH1 0x1 DUP1 PUSH1 0xA0 SHL SUB PUSH2 0xC24 DUP12 PUSH2 0xF05 JUMP JUMPDEST AND DUP2 MSTORE ADD SWAP8 ADD SWAP5 SWAP4 SWAP3 SWAP2 ADD PUSH2 0xBDC JUMP JUMPDEST CALLER PUSH1 0x0 SWAP1 DUP2 MSTORE DUP1 DUP5 MSTORE PUSH1 0x40 SWAP1 KECCAK256 SWAP3 SWAP4 SWAP2 SWAP3 PUSH1 0x3 ADD SWAP1 PUSH1 0x5 DUP2 SWAP1 SHL DUP7 ADD CALLDATALOAD PUSH1 0x1 PUSH1 0x1 PUSH1 0xA0 SHL SUB DUP2 AND DUP2 SUB PUSH2 0x168 JUMPI DUP3 SLOAD SWAP1 PUSH1 0x1 PUSH1 0x40 SHL DUP3 LT ISZERO PUSH2 0x5F9 JUMPI PUSH2 0xC83 DUP3 DUP8 SWAP6 DUP7 PUSH2 0xCA1 SWAP6 ADD DUP2 SSTORE PUSH2 0xFDF JUMP JUMPDEST SWAP1 SWAP2 SWAP1 PUSH1 0x1 DUP1 PUSH1 0xA0 SHL SUB DUP1 DUP5 SLOAD SWAP3 PUSH1 0x3 SHL SWAP4 AND DUP4 SHL SWAP3 SHL NOT AND OR SWAP1 SSTORE JUMP JUMPDEST ADD SWAP3 SWAP2 SWAP1 SWAP3 PUSH2 0xBBF JUMP JUMPDEST CALLVALUE PUSH2 0x168 JUMPI PUSH1 0x0 CALLDATASIZE PUSH1 0x3 NOT ADD SLT PUSH2 0x168 JUMPI PUSH1 0x40 MLOAD PUSH32 0x0 PUSH1 0x1 PUSH1 0x1 PUSH1 0xA0 SHL SUB AND DUP2 MSTORE PUSH1 0x20 SWAP1 RETURN JUMPDEST CALLVALUE PUSH2 0x168 JUMPI PUSH1 0x20 CALLDATASIZE PUSH1 0x3 NOT ADD SLT PUSH2 0x168 JUMPI PUSH2 0xD09 PUSH2 0xEEF JUMP JUMPDEST CALLER PUSH1 0x0 MSTORE PUSH1 0x0 PUSH1 0x20 MSTORE PUSH1 0x1 SWAP1 PUSH2 0xD28 PUSH1 0x1 PUSH1 0x40 PUSH1 0x0 KECCAK256 ADD SLOAD ISZERO ISZERO PUSH2 0xFA3 JUMP JUMPDEST CALLER PUSH1 0x0 MSTORE PUSH1 0x0 PUSH1 0x20 MSTORE DUP2 PUSH1 0x3 DUP1 PUSH1 0x40 PUSH1 0x0 KECCAK256 ADD PUSH1 0x0 SWAP4 PUSH1 0x1 DUP1 PUSH1 0xA0 SHL SUB DUP1 SWAP2 AND SWAP6 JUMPDEST PUSH2 0xD7E JUMPI JUMPDEST DUP6 PUSH1 0x40 MLOAD SWAP1 DUP2 MSTORE PUSH32 0x8EAC65C9901BE8390F0CF78F2CA8D86E706341713377DCA39B0472FC07CDD05 PUSH1 0x20 CALLER SWAP3 LOG2 STOP JUMPDEST DUP2 SLOAD DUP1 DUP7 LT ISZERO PUSH2 0xE1E JUMPI DUP7 DUP3 PUSH2 0xD94 DUP9 DUP7 PUSH2 0xFDF JUMP JUMPDEST SWAP1 SLOAD SWAP1 DUP8 SHL SHR AND EQ PUSH2 0xDAB JUMPI POP DUP4 DUP1 SWAP6 ADD SWAP5 PUSH2 0xD4A JUMP JUMPDEST SWAP3 SWAP5 SWAP2 SWAP4 POP SWAP2 PUSH1 0x0 NOT SWAP2 DUP3 DUP3 ADD SWAP2 DUP3 GT PUSH2 0x4C9 JUMPI PUSH2 0xC83 DUP5 PUSH2 0xDD0 PUSH2 0xDDE SWAP5 DUP9 PUSH2 0xFDF JUMP JUMPDEST SWAP1 SLOAD SWAP1 DUP10 SHL SHR AND SWAP2 DUP7 PUSH2 0xFDF JUMP JUMPDEST DUP3 SLOAD DUP1 ISZERO PUSH2 0xE08 JUMPI ADD SWAP3 PUSH2 0xDF2 DUP5 DUP5 PUSH2 0xFDF JUMP JUMPDEST DUP2 SWAP4 SWAP2 SLOAD SWAP3 SHL SHL NOT AND SWAP1 SSTORE SSTORE DUP2 DUP1 DUP1 DUP1 DUP1 PUSH2 0xD4F JUMP JUMPDEST PUSH4 0x4E487B71 PUSH1 0xE0 SHL PUSH1 0x0 MSTORE PUSH1 0x31 PUSH1 0x4 MSTORE PUSH1 0x24 PUSH1 0x0 REVERT JUMPDEST POP PUSH2 0xD4F JUMP JUMPDEST CALLVALUE PUSH2 0x168 JUMPI PUSH1 0x0 CALLDATASIZE PUSH1 0x3 NOT ADD SLT PUSH2 0x168 JUMPI CALLER PUSH1 0x0 MSTORE PUSH1 0x0 PUSH1 0x20 MSTORE PUSH2 0xE51 PUSH1 0x1 PUSH1 0x40 PUSH1 0x0 KECCAK256 ADD SLOAD ISZERO ISZERO PUSH2 0xF4A JUMP JUMPDEST CALLER PUSH1 0x0 MSTORE PUSH1 0x0 PUSH1 0x20 MSTORE PUSH2 0xE6C PUSH1 0x2 PUSH1 0x40 PUSH1 0x0 KECCAK256 ADD SLOAD TIMESTAMP PUSH2 0xF96 JUMP JUMPDEST CALLER PUSH1 0x0 MSTORE PUSH1 0x0 PUSH1 0x20 MSTORE DUP1 PUSH1 0x1 PUSH1 0x40 PUSH1 0x0 KECCAK256 ADD SSTORE PUSH1 0x40 MLOAD SWAP1 DUP2 MSTORE PUSH32 0xF1A463082EFF5F74A481D3ABD6FC308D976449C50289C0564E946069CB7D8805 PUSH1 0x20 CALLER SWAP3 LOG2 STOP JUMPDEST CALLVALUE PUSH2 0x168 JUMPI PUSH1 0x0 CALLDATASIZE PUSH1 0x3 NOT ADD SLT PUSH2 0x168 JUMPI PUSH32 0x0 PUSH1 0x1 PUSH1 0x1 PUSH1 0xA0 SHL SUB AND DUP2 MSTORE PUSH1 0x20 SWAP1 RETURN JUMPDEST PUSH1 0x4 CALLDATALOAD SWAP1 PUSH1 0x1 PUSH1 0x1 PUSH1 0xA0 SHL SUB DUP3 AND DUP3 SUB PUSH2 0x168 JUMPI JUMP JUMPDEST CALLDATALOAD SWAP1 PUSH1 0x1 PUSH1 0x1 PUSH1 0xA0 SHL SUB DUP3 AND DUP3 SUB PUSH2 0x168 JUMPI JUMP JUMPDEST SWAP2 DUP2 PUSH1 0x1F DUP5 ADD SLT ISZERO PUSH2 0x168 JUMPI DUP3 CALLDATALOAD SWAP2 PUSH8 0xFFFFFFFFFFFFFFFF DUP4 GT PUSH2 0x168 JUMPI PUSH1 0x20 DUP1 DUP6 ADD SWAP5 DUP5 PUSH1 0x5 SHL ADD ADD GT PUSH2 0x168 JUMPI JUMP JUMPDEST ISZERO PUSH2 0xF51 JUMPI JUMP JUMPDEST PUSH1 0x40 MLOAD PUSH3 0x461BCD PUSH1 0xE5 SHL DUP2 MSTORE PUSH1 0x20 PUSH1 0x4 DUP3 ADD MSTORE PUSH1 0x17 PUSH1 0x24 DUP3 ADD MSTORE PUSH32 0x4163636F756E74206E6F7420696E697469616C697A6564000000000000000000 PUSH1 0x44 DUP3 ADD MSTORE PUSH1 0x64 SWAP1 REVERT JUMPDEST SWAP2 SWAP1 DUP3 ADD DUP1 SWAP3 GT PUSH2 0x4C9 JUMPI JUMP JUMPDEST ISZERO PUSH2 0xFAA JUMPI JUMP JUMPDEST PUSH1 0x40 MLOAD PUSH3 0x461BCD PUSH1 0xE5 SHL DUP2 MSTORE PUSH1 0x20 PUSH1 0x4 DUP3 ADD MSTORE PUSH1 0xD PUSH1 0x24 DUP3 ADD MSTORE PUSH13 0x105C9AC81B9BDD08189D5A5B1D PUSH1 0x9A SHL PUSH1 0x44 DUP3 ADD MSTORE PUSH1 0x64 SWAP1 REVERT JUMPDEST DUP1 SLOAD DUP3 LT ISZERO PUSH2 0x5E3 JUMPI PUSH1 0x0 MSTORE PUSH1 0x20 PUSH1 0x0 KECCAK256 ADD SWAP1 PUSH1 0x0 SWAP1 JUMP JUMPDEST SWAP1 PUSH1 0x1F DUP1 NOT SWAP2 ADD AND DUP2 ADD SWAP1 DUP2 LT PUSH8 0xFFFFFFFFFFFFFFFF DUP3 GT OR PUSH2 0x5F9 JUMPI PUSH1 0x40 MSTORE JUMP JUMPDEST PUSH8 0xFFFFFFFFFFFFFFFF DUP2 GT PUSH2 0x5F9 JUMPI PUSH1 0x5 SHL PUSH1 0x20 ADD SWAP1 JUMP JUMPDEST SWAP1 DUP2 PUSH1 0x20 SWAP2 SUB SLT PUSH2 0x168 JUMPI MLOAD DUP1 ISZERO ISZERO DUP2 SUB PUSH2 0x168 JUMPI SWAP1 JUMP INVALID LOG2 PUSH5 0x6970667358 0x22 SLT KECCAK256 0xE ORIGIN SWAP1 PUSH10 0x98DD8E0684507EDDB924 0xBE SWAP16 0xEF SWAP4 0x1E GAS 0x2E 0xC0 GAS MLOAD MULMOD 0xB3 0x27 TLOAD MUL 0xCA NOT XOR PUSH5 0x736F6C6343 STOP ADDMOD XOR STOP CALLER "},"methodIdentifiers":{"addPassengers(address[])":"79000013","arks(address)":"88b21872","buildArk(address,uint256,address[])":"b1ad599d","flood(address)":"f2511bb1","pingArk()":"0fe23da9","removePassenger(address)":"454d58d2","uniswapRouter()":"735de9f7","updateDeadlineDuration(uint256)":"fabb6a38","usdcAddress()":"02d45457"}}}}}