{"contracts/NoahV4Hook.sol":{"NoahV4Hook":{"abi":[{"inputs":[{"internalType":"contract IPoolManager","name":"_poolManager","type":"address"}],"stateMutability":"nonpayable","type":"constructor"},{"inputs":[{"internalType":"address","name":"sender","type":"address"},{"components":[{"internalType":"Currency","name":"currency0","type":"address"},{"internalType":"Currency","name":"currency1","type":"address"},{"internalType":"uint24","name":"fee","type":"uint24"},{"internalType":"int24","name":"tickSpacing","type":"int24"},{"internalType":"contract IHooks","name":"hooks","type":"address"}],"internalType":"struct PoolKey","name":"key","type":"tuple"},{"internalType":"uint256","name":"amount0","type":"uint256"},{"internalType":"uint256","name":"amount1","type":"uint256"}],"name":"afterDonate","outputs":[{"internalType":"bytes4","name":"","type":"bytes4"}],"stateMutability":"nonpayable","type":"function"},{"inputs":[{"internalType":"address","name":"sender","type":"address"},{"components":[{"internalType":"Currency","name":"currency0","type":"address"},{"internalType":"Currency","name":"currency1","type":"address"},{"internalType":"uint24","name":"fee","type":"uint24"},{"internalType":"int24","name":"tickSpacing","type":"int24"},{"internalType":"contract IHooks","name":"hooks","type":"address"}],"internalType":"struct PoolKey","name":"key","type":"tuple"},{"internalType":"uint160","name":"sqrtPriceX96","type":"uint160"},{"internalType":"int24","name":"tick","type":"int24"},{"internalType":"BalanceDelta","name":"delta","type":"int256"}],"name":"afterInitialize","outputs":[{"internalType":"bytes4","name":"","type":"bytes4"}],"stateMutability":"nonpayable","type":"function"},{"inputs":[{"internalType":"address","name":"sender","type":"address"},{"components":[{"internalType":"Currency","name":"currency0","type":"address"},{"internalType":"Currency","name":"currency1","type":"address"},{"internalType":"uint24","name":"fee","type":"uint24"},{"internalType":"int24","name":"tickSpacing","type":"int24"},{"internalType":"contract IHooks","name":"hooks","type":"address"}],"internalType":"struct PoolKey","name":"key","type":"tuple"},{"components":[{"internalType":"int24","name":"tickLower","type":"int24"},{"internalType":"int24","name":"tickUpper","type":"int24"},{"internalType":"int256","name":"liquidityDelta","type":"int256"},{"internalType":"bytes32","name":"salt","type":"bytes32"}],"internalType":"struct ModifyLiquidityParams","name":"params","type":"tuple"},{"internalType":"BalanceDelta","name":"delta","type":"int256"}],"name":"afterModifyPosition","outputs":[{"internalType":"bytes4","name":"","type":"bytes4"}],"stateMutability":"nonpayable","type":"function"},{"inputs":[{"internalType":"address","name":"sender","type":"address"},{"components":[{"internalType":"Currency","name":"currency0","type":"address"},{"internalType":"Currency","name":"currency1","type":"address"},{"internalType":"uint24","name":"fee","type":"uint24"},{"internalType":"int24","name":"tickSpacing","type":"int24"},{"internalType":"contract IHooks","name":"hooks","type":"address"}],"internalType":"struct PoolKey","name":"key","type":"tuple"},{"components":[{"internalType":"bool","name":"zeroForOne","type":"bool"},{"internalType":"int256","name":"amountSpecified","type":"int256"},{"internalType":"uint160","name":"sqrtPriceLimitX96","type":"uint160"}],"internalType":"struct SwapParams","name":"params","type":"tuple"},{"internalType":"BalanceDelta","name":"delta","type":"int256"}],"name":"afterSwap","outputs":[{"internalType":"bytes4","name":"","type":"bytes4"}],"stateMutability":"nonpayable","type":"function"},{"inputs":[{"internalType":"address","name":"sender","type":"address"},{"components":[{"internalType":"Currency","name":"currency0","type":"address"},{"internalType":"Currency","name":"currency1","type":"address"},{"internalType":"uint24","name":"fee","type":"uint24"},{"internalType":"int24","name":"tickSpacing","type":"int24"},{"internalType":"contract IHooks","name":"hooks","type":"address"}],"internalType":"struct PoolKey","name":"key","type":"tuple"},{"internalType":"uint256","name":"amount0","type":"uint256"},{"internalType":"uint256","name":"amount1","type":"uint256"}],"name":"beforeDonate","outputs":[{"internalType":"bytes4","name":"","type":"bytes4"}],"stateMutability":"nonpayable","type":"function"},{"inputs":[{"internalType":"address","name":"sender","type":"address"},{"components":[{"internalType":"Currency","name":"currency0","type":"address"},{"internalType":"Currency","name":"currency1","type":"address"},{"internalType":"uint24","name":"fee","type":"uint24"},{"internalType":"int24","name":"tickSpacing","type":"int24"},{"internalType":"contract IHooks","name":"hooks","type":"address"}],"internalType":"struct PoolKey","name":"key","type":"tuple"},{"internalType":"uint160","name":"sqrtPriceX96","type":"uint160"},{"internalType":"int24","name":"tick","type":"int24"}],"name":"beforeInitialize","outputs":[{"internalType":"bytes4","name":"","type":"bytes4"}],"stateMutability":"nonpayable","type":"function"},{"inputs":[{"internalType":"address","name":"sender","type":"address"},{"components":[{"internalType":"Currency","name":"currency0","type":"address"},{"internalType":"Currency","name":"currency1","type":"address"},{"internalType":"uint24","name":"fee","type":"uint24"},{"internalType":"int24","name":"tickSpacing","type":"int24"},{"internalType":"contract IHooks","name":"hooks","type":"address"}],"internalType":"struct PoolKey","name":"key","type":"tuple"},{"components":[{"internalType":"int24","name":"tickLower","type":"int24"},{"internalType":"int24","name":"tickUpper","type":"int24"},{"internalType":"int256","name":"liquidityDelta","type":"int256"},{"internalType":"bytes32","name":"salt","type":"bytes32"}],"internalType":"struct ModifyLiquidityParams","name":"params","type":"tuple"}],"name":"beforeModifyPosition","outputs":[{"internalType":"bytes4","name":"","type":"bytes4"}],"stateMutability":"nonpayable","type":"function"},{"inputs":[{"internalType":"address","name":"sender","type":"address"},{"components":[{"internalType":"Currency","name":"currency0","type":"address"},{"internalType":"Currency","name":"currency1","type":"address"},{"internalType":"uint24","name":"fee","type":"uint24"},{"internalType":"int24","name":"tickSpacing","type":"int24"},{"internalType":"contract IHooks","name":"hooks","type":"address"}],"internalType":"struct PoolKey","name":"key","type":"tuple"},{"components":[{"internalType":"bool","name":"zeroForOne","type":"bool"},{"internalType":"int256","name":"amountSpecified","type":"int256"},{"internalType":"uint160","name":"sqrtPriceLimitX96","type":"uint160"}],"internalType":"struct SwapParams","name":"params","type":"tuple"}],"name":"beforeSwap","outputs":[{"internalType":"bytes4","name":"","type":"bytes4"}],"stateMutability":"nonpayable","type":"function"},{"inputs":[],"name":"getHookPermissions","outputs":[{"components":[{"internalType":"bool","name":"beforeInitialize","type":"bool"},{"internalType":"bool","name":"afterInitialize","type":"bool"},{"internalType":"bool","name":"beforeAddLiquidity","type":"bool"},{"internalType":"bool","name":"afterAddLiquidity","type":"bool"},{"internalType":"bool","name":"beforeRemoveLiquidity","type":"bool"},{"internalType":"bool","name":"afterRemoveLiquidity","type":"bool"},{"internalType":"bool","name":"beforeSwap","type":"bool"},{"internalType":"bool","name":"afterSwap","type":"bool"},{"internalType":"bool","name":"beforeDonate","type":"bool"},{"internalType":"bool","name":"afterDonate","type":"bool"},{"internalType":"bool","name":"beforeSwapReturnDelta","type":"bool"},{"internalType":"bool","name":"afterSwapReturnDelta","type":"bool"},{"internalType":"bool","name":"afterAddLiquidityReturnDelta","type":"bool"},{"internalType":"bool","name":"afterRemoveLiquidityReturnDelta","type":"bool"}],"internalType":"struct Hooks.Permissions","name":"","type":"tuple"}],"stateMutability":"pure","type":"function"},{"inputs":[],"name":"poolManager","outputs":[{"internalType":"contract IPoolManager","name":"","type":"address"}],"stateMutability":"view","type":"function"}],"evm":{"bytecode":{"linkReferences":{},"object":"60a03461006957601f6105bf38819003918201601f19168301916001600160401b0383118484101761006e5780849260209460405283398101031261006957516001600160a01b03811681036100695760805260405161053a908161008582396080518160a30152f35b600080fd5b634e487b7160e01b600052604160045260246000fdfe608080604052600436101561001357600080fd5b60003560e01c90816343c4407e14610435575080634cef6ab5146103f05780634dbb99a6146103cd57806382aefd231461038257806388b1758c14610337578063a5aa370a146102f2578063b3f97f80146102ad578063c4e833ce1461011c578063d59c4648146100d75763dc4c90d31461008d57600080fd5b346100d25760003660031901126100d2576040517f00000000000000000000000000000000000000000000000000000000000000006001600160a01b03168152602090f35b600080fd5b346100d2576101603660031901126100d2576100f1610456565b5060a03660231901126100d25760803660c31901126100d257604051631ab388c960e31b8152602090f35b346100d25760003660031901126100d25760006101a061013a6104cd565b8281528260208201528260408201528260608201528260808201528260a08201528260c08201528260e0820152826101008201528261012082015282610140820152826101608201528261018082015201526101c06101976104cd565b6000815260006020820152600060408201526000606082015260006080820152600060a0820152600060c0820152600060e08201526000610100820152600061012082015260006101408201526000610160820152600061018082015260006101a08201526101a0604051916000835260208101511515602084015260408101511515604084015260608101511515606084015260808101511515608084015260a0810151151560a084015260c0810151151560c084015260e0810151151560e084015261010081015115156101008401526101208101511515610120840152610140810151151561014084015261016081015115156101608401526101808101511515610180840152015115156101a0820152f35b346100d2576101203660031901126100d2576102c7610456565b5060a03660231901126100d25760603660c31901126100d257604051630167f2ff60e71b8152602090f35b346100d2576101403660031901126100d25761030c610456565b5060a03660231901126100d25760603660c31901126100d2576040516352d51b8560e11b8152602090f35b346100d2576101003660031901126100d257610351610456565b5060a03660231901126100d2576103666104a7565b5061036f6104bd565b5060405163222c5d6360e21b8152602090f35b346100d2576101203660031901126100d25761039c610456565b5060a03660231901126100d2576103b16104a7565b506103ba6104bd565b506040516382aefd2360e01b8152602090f35b346100d2576103db3661046c565b5050505060206040516326ddccd360e11b8152f35b346100d2576101403660031901126100d25761040a610456565b5060a03660231901126100d25760803660c31901126100d257604051634cef6ab560e01b8152602090f35b346100d2576020906104463661046c565b50506321e2203f60e11b83525050f35b600435906001600160a01b03821682036100d257565b906101006003198301126100d2576004356001600160a01b03811681036100d25760a0909260231901126100d25760249060c4359060e43590565b60c435906001600160a01b03821682036100d257565b60e435908160020b82036100d257565b604051906101c0820182811067ffffffffffffffff8211176104ee57604052565b634e487b7160e01b600052604160045260246000fdfea2646970667358221220ab38d17ba9fcbce26fdd9bc395fdc368d08d1265eaa2c9a403c9dc3b22e97b7764736f6c63430008180033","opcodes":"PUSH1 0xA0 CALLVALUE PUSH2 0x69 JUMPI PUSH1 0x1F PUSH2 0x5BF CODESIZE DUP2 SWAP1 SUB SWAP2 DUP3 ADD PUSH1 0x1F NOT AND DUP4 ADD SWAP2 PUSH1 0x1 PUSH1 0x1 PUSH1 0x40 SHL SUB DUP4 GT DUP5 DUP5 LT OR PUSH2 0x6E JUMPI DUP1 DUP5 SWAP3 PUSH1 0x20 SWAP5 PUSH1 0x40 MSTORE DUP4 CODECOPY DUP2 ADD SUB SLT PUSH2 0x69 JUMPI MLOAD PUSH1 0x1 PUSH1 0x1 PUSH1 0xA0 SHL SUB DUP2 AND DUP2 SUB PUSH2 0x69 JUMPI PUSH1 0x80 MSTORE PUSH1 0x40 MLOAD PUSH2 0x53A SWAP1 DUP2 PUSH2 0x85 DUP3 CODECOPY PUSH1 0x80 MLOAD DUP2 PUSH1 0xA3 ADD MSTORE RETURN JUMPDEST PUSH1 0x0 DUP1 REVERT JUMPDEST PUSH4 0x4E487B71 PUSH1 0xE0 SHL PUSH1 0x0 MSTORE PUSH1 0x41 PUSH1 0x4 MSTORE PUSH1 0x24 PUSH1 0x0 REVERT INVALID PUSH1 0x80 DUP1 PUSH1 0x40 MSTORE PUSH1 0x4 CALLDATASIZE LT ISZERO PUSH2 0x13 JUMPI PUSH1 0x0 DUP1 REVERT JUMPDEST PUSH1 0x0 CALLDATALOAD PUSH1 0xE0 SHR SWAP1 DUP2 PUSH4 0x43C4407E EQ PUSH2 0x435 JUMPI POP DUP1 PUSH4 0x4CEF6AB5 EQ PUSH2 0x3F0 JUMPI DUP1 PUSH4 0x4DBB99A6 EQ PUSH2 0x3CD JUMPI DUP1 PUSH4 0x82AEFD23 EQ PUSH2 0x382 JUMPI DUP1 PUSH4 0x88B1758C EQ PUSH2 0x337 JUMPI DUP1 PUSH4 0xA5AA370A EQ PUSH2 0x2F2 JUMPI DUP1 PUSH4 0xB3F97F80 EQ PUSH2 0x2AD JUMPI DUP1 PUSH4 0xC4E833CE EQ PUSH2 0x11C JUMPI DUP1 PUSH4 0xD59C4648 EQ PUSH2 0xD7 JUMPI PUSH4 0xDC4C90D3 EQ PUSH2 0x8D JUMPI PUSH1 0x0 DUP1 REVERT JUMPDEST CALLVALUE PUSH2 0xD2 JUMPI PUSH1 0x0 CALLDATASIZE PUSH1 0x3 NOT ADD SLT PUSH2 0xD2 JUMPI PUSH1 0x40 MLOAD PUSH32 0x0 PUSH1 0x1 PUSH1 0x1 PUSH1 0xA0 SHL SUB AND DUP2 MSTORE PUSH1 0x20 SWAP1 RETURN JUMPDEST PUSH1 0x0 DUP1 REVERT JUMPDEST CALLVALUE PUSH2 0xD2 JUMPI PUSH2 0x160 CALLDATASIZE PUSH1 0x3 NOT ADD SLT PUSH2 0xD2 JUMPI PUSH2 0xF1 PUSH2 0x456 JUMP JUMPDEST POP PUSH1 0xA0 CALLDATASIZE PUSH1 0x23 NOT ADD SLT PUSH2 0xD2 JUMPI PUSH1 0x80 CALLDATASIZE PUSH1 0xC3 NOT ADD SLT PUSH2 0xD2 JUMPI PUSH1 0x40 MLOAD PUSH4 0x1AB388C9 PUSH1 0xE3 SHL DUP2 MSTORE PUSH1 0x20 SWAP1 RETURN JUMPDEST CALLVALUE PUSH2 0xD2 JUMPI PUSH1 0x0 CALLDATASIZE PUSH1 0x3 NOT ADD SLT PUSH2 0xD2 JUMPI PUSH1 0x0 PUSH2 0x1A0 PUSH2 0x13A PUSH2 0x4CD JUMP JUMPDEST DUP3 DUP2 MSTORE DUP3 PUSH1 0x20 DUP3 ADD MSTORE DUP3 PUSH1 0x40 DUP3 ADD MSTORE DUP3 PUSH1 0x60 DUP3 ADD MSTORE DUP3 PUSH1 0x80 DUP3 ADD MSTORE DUP3 PUSH1 0xA0 DUP3 ADD MSTORE DUP3 PUSH1 0xC0 DUP3 ADD MSTORE DUP3 PUSH1 0xE0 DUP3 ADD MSTORE DUP3 PUSH2 0x100 DUP3 ADD MSTORE DUP3 PUSH2 0x120 DUP3 ADD MSTORE DUP3 PUSH2 0x140 DUP3 ADD MSTORE DUP3 PUSH2 0x160 DUP3 ADD MSTORE DUP3 PUSH2 0x180 DUP3 ADD MSTORE ADD MSTORE PUSH2 0x1C0 PUSH2 0x197 PUSH2 0x4CD JUMP JUMPDEST PUSH1 0x0 DUP2 MSTORE PUSH1 0x0 PUSH1 0x20 DUP3 ADD MSTORE PUSH1 0x0 PUSH1 0x40 DUP3 ADD MSTORE PUSH1 0x0 PUSH1 0x60 DUP3 ADD MSTORE PUSH1 0x0 PUSH1 0x80 DUP3 ADD MSTORE PUSH1 0x0 PUSH1 0xA0 DUP3 ADD MSTORE PUSH1 0x0 PUSH1 0xC0 DUP3 ADD MSTORE PUSH1 0x0 PUSH1 0xE0 DUP3 ADD MSTORE PUSH1 0x0 PUSH2 0x100 DUP3 ADD MSTORE PUSH1 0x0 PUSH2 0x120 DUP3 ADD MSTORE PUSH1 0x0 PUSH2 0x140 DUP3 ADD MSTORE PUSH1 0x0 PUSH2 0x160 DUP3 ADD MSTORE PUSH1 0x0 PUSH2 0x180 DUP3 ADD MSTORE PUSH1 0x0 PUSH2 0x1A0 DUP3 ADD MSTORE PUSH2 0x1A0 PUSH1 0x40 MLOAD SWAP2 PUSH1 0x0 DUP4 MSTORE PUSH1 0x20 DUP2 ADD MLOAD ISZERO ISZERO PUSH1 0x20 DUP5 ADD MSTORE PUSH1 0x40 DUP2 ADD MLOAD ISZERO ISZERO PUSH1 0x40 DUP5 ADD MSTORE PUSH1 0x60 DUP2 ADD MLOAD ISZERO ISZERO PUSH1 0x60 DUP5 ADD MSTORE PUSH1 0x80 DUP2 ADD MLOAD ISZERO ISZERO PUSH1 0x80 DUP5 ADD MSTORE PUSH1 0xA0 DUP2 ADD MLOAD ISZERO ISZERO PUSH1 0xA0 DUP5 ADD MSTORE PUSH1 0xC0 DUP2 ADD MLOAD ISZERO ISZERO PUSH1 0xC0 DUP5 ADD MSTORE PUSH1 0xE0 DUP2 ADD MLOAD ISZERO ISZERO PUSH1 0xE0 DUP5 ADD MSTORE PUSH2 0x100 DUP2 ADD MLOAD ISZERO ISZERO PUSH2 0x100 DUP5 ADD MSTORE PUSH2 0x120 DUP2 ADD MLOAD ISZERO ISZERO PUSH2 0x120 DUP5 ADD MSTORE PUSH2 0x140 DUP2 ADD MLOAD ISZERO ISZERO PUSH2 0x140 DUP5 ADD MSTORE PUSH2 0x160 DUP2 ADD MLOAD ISZERO ISZERO PUSH2 0x160 DUP5 ADD MSTORE PUSH2 0x180 DUP2 ADD MLOAD ISZERO ISZERO PUSH2 0x180 DUP5 ADD MSTORE ADD MLOAD ISZERO ISZERO PUSH2 0x1A0 DUP3 ADD MSTORE RETURN JUMPDEST CALLVALUE PUSH2 0xD2 JUMPI PUSH2 0x120 CALLDATASIZE PUSH1 0x3 NOT ADD SLT PUSH2 0xD2 JUMPI PUSH2 0x2C7 PUSH2 0x456 JUMP JUMPDEST POP PUSH1 0xA0 CALLDATASIZE PUSH1 0x23 NOT ADD SLT PUSH2 0xD2 JUMPI PUSH1 0x60 CALLDATASIZE PUSH1 0xC3 NOT ADD SLT PUSH2 0xD2 JUMPI PUSH1 0x40 MLOAD PUSH4 0x167F2FF PUSH1 0xE7 SHL DUP2 MSTORE PUSH1 0x20 SWAP1 RETURN JUMPDEST CALLVALUE PUSH2 0xD2 JUMPI PUSH2 0x140 CALLDATASIZE PUSH1 0x3 NOT ADD SLT PUSH2 0xD2 JUMPI PUSH2 0x30C PUSH2 0x456 JUMP JUMPDEST POP PUSH1 0xA0 CALLDATASIZE PUSH1 0x23 NOT ADD SLT PUSH2 0xD2 JUMPI PUSH1 0x60 CALLDATASIZE PUSH1 0xC3 NOT ADD SLT PUSH2 0xD2 JUMPI PUSH1 0x40 MLOAD PUSH4 0x52D51B85 PUSH1 0xE1 SHL DUP2 MSTORE PUSH1 0x20 SWAP1 RETURN JUMPDEST CALLVALUE PUSH2 0xD2 JUMPI PUSH2 0x100 CALLDATASIZE PUSH1 0x3 NOT ADD SLT PUSH2 0xD2 JUMPI PUSH2 0x351 PUSH2 0x456 JUMP JUMPDEST POP PUSH1 0xA0 CALLDATASIZE PUSH1 0x23 NOT ADD SLT PUSH2 0xD2 JUMPI PUSH2 0x366 PUSH2 0x4A7 JUMP JUMPDEST POP PUSH2 0x36F PUSH2 0x4BD JUMP JUMPDEST POP PUSH1 0x40 MLOAD PUSH4 0x222C5D63 PUSH1 0xE2 SHL DUP2 MSTORE PUSH1 0x20 SWAP1 RETURN JUMPDEST CALLVALUE PUSH2 0xD2 JUMPI PUSH2 0x120 CALLDATASIZE PUSH1 0x3 NOT ADD SLT PUSH2 0xD2 JUMPI PUSH2 0x39C PUSH2 0x456 JUMP JUMPDEST POP PUSH1 0xA0 CALLDATASIZE PUSH1 0x23 NOT ADD SLT PUSH2 0xD2 JUMPI PUSH2 0x3B1 PUSH2 0x4A7 JUMP JUMPDEST POP PUSH2 0x3BA PUSH2 0x4BD JUMP JUMPDEST POP PUSH1 0x40 MLOAD PUSH4 0x82AEFD23 PUSH1 0xE0 SHL DUP2 MSTORE PUSH1 0x20 SWAP1 RETURN JUMPDEST CALLVALUE PUSH2 0xD2 JUMPI PUSH2 0x3DB CALLDATASIZE PUSH2 0x46C JUMP JUMPDEST POP POP POP POP PUSH1 0x20 PUSH1 0x40 MLOAD PUSH4 0x26DDCCD3 PUSH1 0xE1 SHL DUP2 MSTORE RETURN JUMPDEST CALLVALUE PUSH2 0xD2 JUMPI PUSH2 0x140 CALLDATASIZE PUSH1 0x3 NOT ADD SLT PUSH2 0xD2 JUMPI PUSH2 0x40A PUSH2 0x456 JUMP JUMPDEST POP PUSH1 0xA0 CALLDATASIZE PUSH1 0x23 NOT ADD SLT PUSH2 0xD2 JUMPI PUSH1 0x80 CALLDATASIZE PUSH1 0xC3 NOT ADD SLT PUSH2 0xD2 JUMPI PUSH1 0x40 MLOAD PUSH4 0x4CEF6AB5 PUSH1 0xE0 SHL DUP2 MSTORE PUSH1 0x20 SWAP1 RETURN JUMPDEST CALLVALUE PUSH2 0xD2 JUMPI PUSH1 0x20 SWAP1 PUSH2 0x446 CALLDATASIZE PUSH2 0x46C JUMP JUMPDEST POP POP PUSH4 0x21E2203F PUSH1 0xE1 SHL DUP4 MSTORE POP POP RETURN JUMPDEST PUSH1 0x4 CALLDATALOAD SWAP1 PUSH1 0x1 PUSH1 0x1 PUSH1 0xA0 SHL SUB DUP3 AND DUP3 SUB PUSH2 0xD2 JUMPI JUMP JUMPDEST SWAP1 PUSH2 0x100 PUSH1 0x3 NOT DUP4 ADD SLT PUSH2 0xD2 JUMPI PUSH1 0x4 CALLDATALOAD PUSH1 0x1 PUSH1 0x1 PUSH1 0xA0 SHL SUB DUP2 AND DUP2 SUB PUSH2 0xD2 JUMPI PUSH1 0xA0 SWAP1 SWAP3 PUSH1 0x23 NOT ADD SLT PUSH2 0xD2 JUMPI PUSH1 0x24 SWAP1 PUSH1 0xC4 CALLDATALOAD SWAP1 PUSH1 0xE4 CALLDATALOAD SWAP1 JUMP JUMPDEST PUSH1 0xC4 CALLDATALOAD SWAP1 PUSH1 0x1 PUSH1 0x1 PUSH1 0xA0 SHL SUB DUP3 AND DUP3 SUB PUSH2 0xD2 JUMPI JUMP JUMPDEST PUSH1 0xE4 CALLDATALOAD SWAP1 DUP2 PUSH1 0x2 SIGNEXTEND DUP3 SUB PUSH2 0xD2 JUMPI JUMP JUMPDEST PUSH1 0x40 MLOAD SWAP1 PUSH2 0x1C0 DUP3 ADD DUP3 DUP2 LT PUSH8 0xFFFFFFFFFFFFFFFF DUP3 GT OR PUSH2 0x4EE JUMPI PUSH1 0x40 MSTORE JUMP JUMPDEST PUSH4 0x4E487B71 PUSH1 0xE0 SHL PUSH1 0x0 MSTORE PUSH1 0x41 PUSH1 0x4 MSTORE PUSH1 0x24 PUSH1 0x0 REVERT INVALID LOG2 PUSH5 0x6970667358 0x22 SLT KECCAK256 0xAB CODESIZE 0xD1 PUSH28 0xA9FCBCE26FDD9BC395FDC368D08D1265EAA2C9A403C9DC3B22E97B77 PUSH5 0x736F6C6343 STOP ADDMOD XOR STOP CALLER "},"methodIdentifiers":{"afterDonate(address,(address,address,uint24,int24,address),uint256,uint256)":"43c4407e","afterInitialize(address,(address,address,uint24,int24,address),uint160,int24,int256)":"82aefd23","afterModifyPosition(address,(address,address,uint24,int24,address),(int24,int24,int256,bytes32),int256)":"d59c4648","afterSwap(address,(address,address,uint24,int24,address),(bool,int256,uint160),int256)":"a5aa370a","beforeDonate(address,(address,address,uint24,int24,address),uint256,uint256)":"4dbb99a6","beforeInitialize(address,(address,address,uint24,int24,address),uint160,int24)":"88b1758c","beforeModifyPosition(address,(address,address,uint24,int24,address),(int24,int24,int256,bytes32))":"4cef6ab5","beforeSwap(address,(address,address,uint24,int24,address),(bool,int256,uint160))":"b3f97f80","getHookPermissions()":"c4e833ce","poolManager()":"dc4c90d3"}}}}}