{"contracts/NoahV4.sol":{"NoahV4":{"abi":[{"inputs":[{"internalType":"contract IPoolManager","name":"_poolManager","type":"address"},{"internalType":"address","name":"_usdc","type":"address"},{"internalType":"address","name":"_hook","type":"address"}],"stateMutability":"nonpayable","type":"constructor"},{"inputs":[{"internalType":"address","name":"token","type":"address"}],"name":"SafeERC20FailedOperation","type":"error"},{"anonymous":false,"inputs":[{"indexed":true,"internalType":"address","name":"user","type":"address"},{"indexed":true,"internalType":"address","name":"beneficiary","type":"address"},{"indexed":false,"internalType":"uint256","name":"deadline","type":"uint256"}],"name":"ArkBuilt","type":"event"},{"anonymous":false,"inputs":[{"indexed":true,"internalType":"address","name":"user","type":"address"},{"indexed":false,"internalType":"uint256","name":"newDeadline","type":"uint256"}],"name":"ArkPinged","type":"event"},{"anonymous":false,"inputs":[{"indexed":true,"internalType":"address","name":"user","type":"address"},{"indexed":false,"internalType":"uint256","name":"newDuration","type":"uint256"},{"indexed":false,"internalType":"uint256","name":"newDeadline","type":"uint256"}],"name":"DeadlineUpdated","type":"event"},{"anonymous":false,"inputs":[{"indexed":true,"internalType":"address","name":"user","type":"address"},{"indexed":true,"internalType":"address","name":"beneficiary","type":"address"},{"indexed":false,"internalType":"uint256","name":"usdcAmount","type":"uint256"}],"name":"FloodTriggered","type":"event"},{"anonymous":false,"inputs":[{"indexed":true,"internalType":"address","name":"user","type":"address"},{"indexed":false,"internalType":"address","name":"passenger","type":"address"}],"name":"PassengerRemoved","type":"event"},{"anonymous":false,"inputs":[{"indexed":true,"internalType":"address","name":"user","type":"address"},{"indexed":false,"internalType":"address[]","name":"newPassengers","type":"address[]"}],"name":"PassengersAdded","type":"event"},{"inputs":[{"internalType":"address[]","name":"_newPassengers","type":"address[]"}],"name":"addPassengers","outputs":[],"stateMutability":"nonpayable","type":"function"},{"inputs":[{"internalType":"address","name":"","type":"address"}],"name":"arks","outputs":[{"internalType":"address","name":"beneficiary","type":"address"},{"internalType":"uint256","name":"deadline","type":"uint256"},{"internalType":"uint256","name":"deadlineDuration","type":"uint256"}],"stateMutability":"view","type":"function"},{"inputs":[{"internalType":"address","name":"_beneficiary","type":"address"},{"internalType":"uint256","name":"_deadlineDuration","type":"uint256"},{"internalType":"address[]","name":"_tokens","type":"address[]"}],"name":"buildArk","outputs":[],"stateMutability":"nonpayable","type":"function"},{"inputs":[{"internalType":"address","name":"_user","type":"address"}],"name":"flood","outputs":[],"stateMutability":"nonpayable","type":"function"},{"inputs":[],"name":"hookAddress","outputs":[{"internalType":"address","name":"","type":"address"}],"stateMutability":"view","type":"function"},{"inputs":[],"name":"pingArk","outputs":[],"stateMutability":"nonpayable","type":"function"},{"inputs":[],"name":"poolManager","outputs":[{"internalType":"contract IPoolManager","name":"","type":"address"}],"stateMutability":"view","type":"function"},{"inputs":[{"internalType":"BalanceDelta","name":"delta","type":"int256"},{"internalType":"bytes","name":"data","type":"bytes"}],"name":"poolManagerSwapCallback","outputs":[{"internalType":"bytes","name":"","type":"bytes"}],"stateMutability":"nonpayable","type":"function"},{"inputs":[{"internalType":"address","name":"_passengerToRemove","type":"address"}],"name":"removePassenger","outputs":[],"stateMutability":"nonpayable","type":"function"},{"inputs":[{"internalType":"uint256","name":"_newDuration","type":"uint256"}],"name":"updateDeadlineDuration","outputs":[],"stateMutability":"nonpayable","type":"function"},{"inputs":[],"name":"usdcAddress","outputs":[{"internalType":"address","name":"","type":"address"}],"stateMutability":"view","type":"function"}],"evm":{"bytecode":{"linkReferences":{},"object":"60e0346100ce57601f61128038819003918201601f19168301916001600160401b038311848410176100d3578084926060946040528339810103126100ce578051906001600160a01b03821682036100ce576100696040610062602084016100e9565b92016100e9565b9160805260a05260c05260405161118290816100fe82396080518181816102ce015281816104a30152818161066b0152610a02015260a0518181816101ff0152818161034001528181610af00152610f20015260c05181818161037f0152610e550152f35b600080fd5b634e487b7160e01b600052604160045260246000fd5b51906001600160a01b03821682036100ce5756fe608080604052600436101561001357600080fd5b60003560e01c90816302d4545714610f0d575080630fe23da914610e8457806332a3cf9614610e3f578063454d58d214610cf55780637900001314610bb557806388b2187214610b61578063afa9862a146109af578063b1ad599d1461069a578063dc4c90d314610655578063f2511bb1146101835763fabb6a381461009857600080fd5b3461017e5760208060031936011261017e576004359033600052600081526100c96001604060002001541515611043565b811561012f573360005260008152816002604060002001556100eb8242611036565b903360005260008152816001604060002001556040519283528201527f270517e45d27f999faef5e16a3159117c83577723363227c5901cb52e315d86860403392a2005b6084906040519062461bcd60e51b82526004820152602260248201527f4475726174696f6e206d7573742062652067726561746572207468616e207a65604482015261726f60f01b6064820152fd5b600080fd5b3461017e57602036600319011261017e576001600160a01b036101a4610f4f565b1680600052600060205260406000209060018201546101c4811515610fea565b42106106105760009160005b60038201548110156105cf576101e9816003840161107f565b90546001600160a01b0360039290921b1c8116907f00000000000000000000000000000000000000000000000000000000000000001681146105c6576040516370a0823160e01b815260048101859052602081602481855afa90811561053a57600091610594575b5080610264575b50506001905b016101d0565b6040959295516323b872dd60e01b6020820152856024820152306044820152816064820152606481528060a081011067ffffffffffffffff60a083011117610546578060a06102b79201604052836110f0565b60405163095ea7b360e01b81526001600160a01b037f0000000000000000000000000000000000000000000000000000000000000000166004820152602481018290526020816044816000875af1801561053a5761055c575b50604051918260a081011067ffffffffffffffff60a0850111176105465760a08301604052825260018060a01b037f0000000000000000000000000000000000000000000000000000000000000000166020830152610bb86040830152606091603c8382015260018060a01b037f000000000000000000000000000000000000000000000000000000000000000016608082015260405191828481011067ffffffffffffffff8585011117610546578383016040526001835260208301526000604083015260018060a01b03855416926040519360208501526020845283604081011067ffffffffffffffff604086011117610546576040848101808252633cf3645360e21b815283516001600160a01b039081166044880152602080860151821660648901528584015162ffffff1660848901529385015160020b60a4880152608090940151841660c48701528451151560e48701528483015161010487015293015190911661012484015261012061014484015290603f1983610499610164820182610faa565b03016040840160007f00000000000000000000000000000000000000000000000000000000000000006001600160a01b03165af190811561053a57600091610501575b506001916104f9916104f1600f91820b6110ad565b900b90611036565b939085610258565b90506020813d602011610532575b8161051f602093604084016110ce565b8101031261017e576040015160016104dc565b3d915061050f565b6040513d6000823e3d90fd5b634e487b7160e01b600052604160045260246000fd5b6020813d60201161058c575b81610575602093836110ce565b8101031261017e57518015150361017e5786610310565b3d9150610568565b90506020813d6020116105be575b816105af602093836110ce565b8101031261017e575186610251565b3d91506105a2565b5060019061025e565b5060006001820155546040519283526001600160a01b0316917fde3f14ce4426137f4576388d16723795d5bf5e2f00597e0e8d63816a7342a1e190602090a3005b60405162461bcd60e51b815260206004820152601760248201527f446561646c696e6520686173206e6f74207061737365640000000000000000006044820152606490fd5b3461017e57600036600319011261017e576040517f00000000000000000000000000000000000000000000000000000000000000006001600160a01b03168152602090f35b3461017e57606036600319011261017e576106b3610f4f565b60443567ffffffffffffffff811161017e576106d3903690600401610f79565b9033600052600060205260016040600020015461096a576001600160a01b0383161561091657602435156108bd5761070d60243542611036565b90604051916080830183811067ffffffffffffffff8211176105465760405260018060a01b03851683526020830152602435604083015267ffffffffffffffff8311610546578260051b6040519361076860208301866110ce565b84526020840190368184011161017e5782915b81840183106108a5578686600387606081019283523360005260006020526040806000209160018060a01b038151166bffffffffffffffffffffffff60a01b84541617835560208101516001840155015160028201550190519081519167ffffffffffffffff831161054657600160401b831161054657815483835580841061087c575b5060200190600052602060002060005b83811061085f578461082360243542611036565b6040519081526001600160a01b039091169033907fd4c9fb4a0298b2717518a542bd4801ce0cb35fd35087636887f9e87ad8d75a3f90602090a3005b82516001600160a01b03168183015560209092019160010161080f565b8260005283602060002091820191015b81811061089957506107ff565b6000815560010161088c565b602080916108b285610f65565b81520192019161077b565b60405162461bcd60e51b815260206004820152602b60248201527f446561646c696e65206475726174696f6e206d7573742062652067726561746560448201526a72207468616e207a65726f60a81b6064820152608490fd5b60405162461bcd60e51b815260206004820152602660248201527f42656e65666963696172792063616e6e6f7420626520746865207a65726f206160448201526564647265737360d01b6064820152608490fd5b60405162461bcd60e51b815260206004820152601b60248201527f4163636f756e7420616c726561647920696e697469616c697a656400000000006044820152606490fd5b3461017e57604036600319011261017e57602467ffffffffffffffff813581811161017e573660238201121561017e57806004013582811161017e57810190368483011161017e576001600160a01b03917f000000000000000000000000000000000000000000000000000000000000000083163303610b1d5781602091031261017e578301359080821680920361017e57610a4f600435600f0b6110ad565b600f0b9081610aa8575b505060405191602083019150811182821017610a9357610a8f925060405260008152604051918291602083526020830190610faa565b0390f35b82634e487b7160e01b60005260416004526000fd5b6040805163a9059cbb60e01b6020808301919091526001600160a01b0390951687820190815294850193909352610b1593610aee9184910103601f1981018452836110ce565b7f0000000000000000000000000000000000000000000000000000000000000000166110f0565b828080610a59565b60405162461bcd60e51b815260206004820152601e818701527f4f6e6c7920506f6f6c4d616e616765722063616e2063616c6c207468697300006044820152606490fd5b3461017e57602036600319011261017e5760606001600160a01b0380610b85610f4f565b16600052600060205260406000209081541690600260018201549101549060405192835260208301526040820152f35b3461017e5760208060031936011261017e5760043567ffffffffffffffff811161017e57610be7903690600401610f79565b909133600052600081526001610c066001604060002001541515611043565b60005b838110610c7e575060405192808385018486525260408401949260005b828110610c5657337fb90857f670e2787419d97e8ad1483239915b735fecc028adf074ef41c09d602c87890388a2005b909192828082969860018060a01b03610c6e8b610f65565b1681520197019493929101610c26565b336000908152808452604090209293919260030190600581901b8601356001600160a01b038116810361017e57825490600160401b82101561054657610ccd82879586610ceb9501815561107f565b90919060018060a01b038084549260031b9316831b921b1916179055565b0192919092610c09565b3461017e57602036600319011261017e57610d0e610f4f565b336000526000602052600190610d2d6001604060002001541515611043565b3360005260006020528160038060406000200160009360018060a01b03809116955b610d83575b856040519081527f08eac65c9901be8390f0cf78f2ca8d86e706341713377dca39b0472fc07cdd0560203392a2005b815480861015610e39578682610d99888661107f565b905490871b1c1614610db057508380950194610d4f565b92949193509160001991828201918211610e2357610ccd84610dd5610de3948861107f565b905490891b1c16918661107f565b82548015610e0d570192610df7848461107f565b81939154921b1b19169055558180808080610d54565b634e487b7160e01b600052603160045260246000fd5b634e487b7160e01b600052601160045260246000fd5b50610d54565b3461017e57600036600319011261017e576040517f00000000000000000000000000000000000000000000000000000000000000006001600160a01b03168152602090f35b3461017e57600036600319011261017e57336000526000602052610eb16001604060002001541515610fea565b336000526000602052610ecc60026040600020015442611036565b336000526000602052806001604060002001556040519081527ff1a463082eff5f74a481d3abd6fc308d976449c50289c0564e946069cb7d880560203392a2005b3461017e57600036600319011261017e577f00000000000000000000000000000000000000000000000000000000000000006001600160a01b03168152602090f35b600435906001600160a01b038216820361017e57565b35906001600160a01b038216820361017e57565b9181601f8401121561017e5782359167ffffffffffffffff831161017e576020808501948460051b01011161017e57565b919082519283825260005b848110610fd6575050826000602080949584010152601f8019910116010190565b602081830181015184830182015201610fb5565b15610ff157565b60405162461bcd60e51b815260206004820152601760248201527f4163636f756e74206e6f7420696e697469616c697a65640000000000000000006044820152606490fd5b91908201809211610e2357565b1561104a57565b60405162461bcd60e51b815260206004820152600d60248201526c105c9ac81b9bdd08189d5a5b1d609a1b6044820152606490fd5b80548210156110975760005260206000200190600090565b634e487b7160e01b600052603260045260246000fd5b600f0b6f7fffffffffffffffffffffffffffffff198114610e235760000390565b90601f8019910116810190811067ffffffffffffffff82111761054657604052565b906000602091828151910182855af11561053a576000513d61114357506001600160a01b0381163b155b6111215750565b604051635274afe760e01b81526001600160a01b039091166004820152602490fd5b6001141561111a56fea26469706673582212204a6d467dc3d40a9ca408224ecd803228836f370e97b19c9e68d2a68c336b356a64736f6c63430008180033","opcodes":"PUSH1 0xE0 CALLVALUE PUSH2 0xCE JUMPI PUSH1 0x1F PUSH2 0x1280 CODESIZE DUP2 SWAP1 SUB SWAP2 DUP3 ADD PUSH1 0x1F NOT AND DUP4 ADD SWAP2 PUSH1 0x1 PUSH1 0x1 PUSH1 0x40 SHL SUB DUP4 GT DUP5 DUP5 LT OR PUSH2 0xD3 JUMPI DUP1 DUP5 SWAP3 PUSH1 0x60 SWAP5 PUSH1 0x40 MSTORE DUP4 CODECOPY DUP2 ADD SUB SLT PUSH2 0xCE JUMPI DUP1 MLOAD SWAP1 PUSH1 0x1 PUSH1 0x1 PUSH1 0xA0 SHL SUB DUP3 AND DUP3 SUB PUSH2 0xCE JUMPI PUSH2 0x69 PUSH1 0x40 PUSH2 0x62 PUSH1 0x20 DUP5 ADD PUSH2 0xE9 JUMP JUMPDEST SWAP3 ADD PUSH2 0xE9 JUMP JUMPDEST SWAP2 PUSH1 0x80 MSTORE PUSH1 0xA0 MSTORE PUSH1 0xC0 MSTORE PUSH1 0x40 MLOAD PUSH2 0x1182 SWAP1 DUP2 PUSH2 0xFE DUP3 CODECOPY PUSH1 0x80 MLOAD DUP2 DUP2 DUP2 PUSH2 0x2CE ADD MSTORE DUP2 DUP2 PUSH2 0x4A3 ADD MSTORE DUP2 DUP2 PUSH2 0x66B ADD MSTORE PUSH2 0xA02 ADD MSTORE PUSH1 0xA0 MLOAD DUP2 DUP2 DUP2 PUSH2 0x1FF ADD MSTORE DUP2 DUP2 PUSH2 0x340 ADD MSTORE DUP2 DUP2 PUSH2 0xAF0 ADD MSTORE PUSH2 0xF20 ADD MSTORE PUSH1 0xC0 MLOAD DUP2 DUP2 DUP2 PUSH2 0x37F ADD MSTORE PUSH2 0xE55 ADD MSTORE RETURN JUMPDEST PUSH1 0x0 DUP1 REVERT JUMPDEST PUSH4 0x4E487B71 PUSH1 0xE0 SHL PUSH1 0x0 MSTORE PUSH1 0x41 PUSH1 0x4 MSTORE PUSH1 0x24 PUSH1 0x0 REVERT JUMPDEST MLOAD SWAP1 PUSH1 0x1 PUSH1 0x1 PUSH1 0xA0 SHL SUB DUP3 AND DUP3 SUB PUSH2 0xCE JUMPI JUMP INVALID PUSH1 0x80 DUP1 PUSH1 0x40 MSTORE PUSH1 0x4 CALLDATASIZE LT ISZERO PUSH2 0x13 JUMPI PUSH1 0x0 DUP1 REVERT JUMPDEST PUSH1 0x0 CALLDATALOAD PUSH1 0xE0 SHR SWAP1 DUP2 PUSH4 0x2D45457 EQ PUSH2 0xF0D JUMPI POP DUP1 PUSH4 0xFE23DA9 EQ PUSH2 0xE84 JUMPI DUP1 PUSH4 0x32A3CF96 EQ PUSH2 0xE3F JUMPI DUP1 PUSH4 0x454D58D2 EQ PUSH2 0xCF5 JUMPI DUP1 PUSH4 0x79000013 EQ PUSH2 0xBB5 JUMPI DUP1 PUSH4 0x88B21872 EQ PUSH2 0xB61 JUMPI DUP1 PUSH4 0xAFA9862A EQ PUSH2 0x9AF JUMPI DUP1 PUSH4 0xB1AD599D EQ PUSH2 0x69A JUMPI DUP1 PUSH4 0xDC4C90D3 EQ PUSH2 0x655 JUMPI DUP1 PUSH4 0xF2511BB1 EQ PUSH2 0x183 JUMPI PUSH4 0xFABB6A38 EQ PUSH2 0x98 JUMPI PUSH1 0x0 DUP1 REVERT JUMPDEST CALLVALUE PUSH2 0x17E JUMPI PUSH1 0x20 DUP1 PUSH1 0x3 NOT CALLDATASIZE ADD SLT PUSH2 0x17E JUMPI PUSH1 0x4 CALLDATALOAD SWAP1 CALLER PUSH1 0x0 MSTORE PUSH1 0x0 DUP2 MSTORE PUSH2 0xC9 PUSH1 0x1 PUSH1 0x40 PUSH1 0x0 KECCAK256 ADD SLOAD ISZERO ISZERO PUSH2 0x1043 JUMP JUMPDEST DUP2 ISZERO PUSH2 0x12F JUMPI CALLER PUSH1 0x0 MSTORE PUSH1 0x0 DUP2 MSTORE DUP2 PUSH1 0x2 PUSH1 0x40 PUSH1 0x0 KECCAK256 ADD SSTORE PUSH2 0xEB DUP3 TIMESTAMP PUSH2 0x1036 JUMP JUMPDEST SWAP1 CALLER PUSH1 0x0 MSTORE PUSH1 0x0 DUP2 MSTORE DUP2 PUSH1 0x1 PUSH1 0x40 PUSH1 0x0 KECCAK256 ADD SSTORE PUSH1 0x40 MLOAD SWAP3 DUP4 MSTORE DUP3 ADD MSTORE PUSH32 0x270517E45D27F999FAEF5E16A3159117C83577723363227C5901CB52E315D868 PUSH1 0x40 CALLER SWAP3 LOG2 STOP JUMPDEST PUSH1 0x84 SWAP1 PUSH1 0x40 MLOAD SWAP1 PUSH3 0x461BCD PUSH1 0xE5 SHL DUP3 MSTORE PUSH1 0x4 DUP3 ADD MSTORE PUSH1 0x22 PUSH1 0x24 DUP3 ADD MSTORE PUSH32 0x4475726174696F6E206D7573742062652067726561746572207468616E207A65 PUSH1 0x44 DUP3 ADD MSTORE PUSH2 0x726F PUSH1 0xF0 SHL PUSH1 0x64 DUP3 ADD MSTORE REVERT JUMPDEST PUSH1 0x0 DUP1 REVERT JUMPDEST CALLVALUE PUSH2 0x17E JUMPI PUSH1 0x20 CALLDATASIZE PUSH1 0x3 NOT ADD SLT PUSH2 0x17E JUMPI PUSH1 0x1 PUSH1 0x1 PUSH1 0xA0 SHL SUB PUSH2 0x1A4 PUSH2 0xF4F JUMP JUMPDEST AND DUP1 PUSH1 0x0 MSTORE PUSH1 0x0 PUSH1 0x20 MSTORE PUSH1 0x40 PUSH1 0x0 KECCAK256 SWAP1 PUSH1 0x1 DUP3 ADD SLOAD PUSH2 0x1C4 DUP2 ISZERO ISZERO PUSH2 0xFEA JUMP JUMPDEST TIMESTAMP LT PUSH2 0x610 JUMPI PUSH1 0x0 SWAP2 PUSH1 0x0 JUMPDEST PUSH1 0x3 DUP3 ADD SLOAD DUP2 LT ISZERO PUSH2 0x5CF JUMPI PUSH2 0x1E9 DUP2 PUSH1 0x3 DUP5 ADD PUSH2 0x107F JUMP JUMPDEST SWAP1 SLOAD PUSH1 0x1 PUSH1 0x1 PUSH1 0xA0 SHL SUB PUSH1 0x3 SWAP3 SWAP1 SWAP3 SHL SHR DUP2 AND SWAP1 PUSH32 0x0 AND DUP2 EQ PUSH2 0x5C6 JUMPI PUSH1 0x40 MLOAD PUSH4 0x70A08231 PUSH1 0xE0 SHL DUP2 MSTORE PUSH1 0x4 DUP2 ADD DUP6 SWAP1 MSTORE PUSH1 0x20 DUP2 PUSH1 0x24 DUP2 DUP6 GAS STATICCALL SWAP1 DUP2 ISZERO PUSH2 0x53A JUMPI PUSH1 0x0 SWAP2 PUSH2 0x594 JUMPI JUMPDEST POP DUP1 PUSH2 0x264 JUMPI JUMPDEST POP POP PUSH1 0x1 SWAP1 JUMPDEST ADD PUSH2 0x1D0 JUMP JUMPDEST PUSH1 0x40 SWAP6 SWAP3 SWAP6 MLOAD PUSH4 0x23B872DD PUSH1 0xE0 SHL PUSH1 0x20 DUP3 ADD MSTORE DUP6 PUSH1 0x24 DUP3 ADD MSTORE ADDRESS PUSH1 0x44 DUP3 ADD MSTORE DUP2 PUSH1 0x64 DUP3 ADD MSTORE PUSH1 0x64 DUP2 MSTORE DUP1 PUSH1 0xA0 DUP2 ADD LT PUSH8 0xFFFFFFFFFFFFFFFF PUSH1 0xA0 DUP4 ADD GT OR PUSH2 0x546 JUMPI DUP1 PUSH1 0xA0 PUSH2 0x2B7 SWAP3 ADD PUSH1 0x40 MSTORE DUP4 PUSH2 0x10F0 JUMP JUMPDEST PUSH1 0x40 MLOAD PUSH4 0x95EA7B3 PUSH1 0xE0 SHL DUP2 MSTORE PUSH1 0x1 PUSH1 0x1 PUSH1 0xA0 SHL SUB PUSH32 0x0 AND PUSH1 0x4 DUP3 ADD MSTORE PUSH1 0x24 DUP2 ADD DUP3 SWAP1 MSTORE PUSH1 0x20 DUP2 PUSH1 0x44 DUP2 PUSH1 0x0 DUP8 GAS CALL DUP1 ISZERO PUSH2 0x53A JUMPI PUSH2 0x55C JUMPI JUMPDEST POP PUSH1 0x40 MLOAD SWAP2 DUP3 PUSH1 0xA0 DUP2 ADD LT PUSH8 0xFFFFFFFFFFFFFFFF PUSH1 0xA0 DUP6 ADD GT OR PUSH2 0x546 JUMPI PUSH1 0xA0 DUP4 ADD PUSH1 0x40 MSTORE DUP3 MSTORE PUSH1 0x1 DUP1 PUSH1 0xA0 SHL SUB PUSH32 0x0 AND PUSH1 0x20 DUP4 ADD MSTORE PUSH2 0xBB8 PUSH1 0x40 DUP4 ADD MSTORE PUSH1 0x60 SWAP2 PUSH1 0x3C DUP4 DUP3 ADD MSTORE PUSH1 0x1 DUP1 PUSH1 0xA0 SHL SUB PUSH32 0x0 AND PUSH1 0x80 DUP3 ADD MSTORE PUSH1 0x40 MLOAD SWAP2 DUP3 DUP5 DUP2 ADD LT PUSH8 0xFFFFFFFFFFFFFFFF DUP6 DUP6 ADD GT OR PUSH2 0x546 JUMPI DUP4 DUP4 ADD PUSH1 0x40 MSTORE PUSH1 0x1 DUP4 MSTORE PUSH1 0x20 DUP4 ADD MSTORE PUSH1 0x0 PUSH1 0x40 DUP4 ADD MSTORE PUSH1 0x1 DUP1 PUSH1 0xA0 SHL SUB DUP6 SLOAD AND SWAP3 PUSH1 0x40 MLOAD SWAP4 PUSH1 0x20 DUP6 ADD MSTORE PUSH1 0x20 DUP5 MSTORE DUP4 PUSH1 0x40 DUP2 ADD LT PUSH8 0xFFFFFFFFFFFFFFFF PUSH1 0x40 DUP7 ADD GT OR PUSH2 0x546 JUMPI PUSH1 0x40 DUP5 DUP2 ADD DUP1 DUP3 MSTORE PUSH4 0x3CF36453 PUSH1 0xE2 SHL DUP2 MSTORE DUP4 MLOAD PUSH1 0x1 PUSH1 0x1 PUSH1 0xA0 SHL SUB SWAP1 DUP2 AND PUSH1 0x44 DUP9 ADD MSTORE PUSH1 0x20 DUP1 DUP7 ADD MLOAD DUP3 AND PUSH1 0x64 DUP10 ADD MSTORE DUP6 DUP5 ADD MLOAD PUSH3 0xFFFFFF AND PUSH1 0x84 DUP10 ADD MSTORE SWAP4 DUP6 ADD MLOAD PUSH1 0x2 SIGNEXTEND PUSH1 0xA4 DUP9 ADD MSTORE PUSH1 0x80 SWAP1 SWAP5 ADD MLOAD DUP5 AND PUSH1 0xC4 DUP8 ADD MSTORE DUP5 MLOAD ISZERO ISZERO PUSH1 0xE4 DUP8 ADD MSTORE DUP5 DUP4 ADD MLOAD PUSH2 0x104 DUP8 ADD MSTORE SWAP4 ADD MLOAD SWAP1 SWAP2 AND PUSH2 0x124 DUP5 ADD MSTORE PUSH2 0x120 PUSH2 0x144 DUP5 ADD MSTORE SWAP1 PUSH1 0x3F NOT DUP4 PUSH2 0x499 PUSH2 0x164 DUP3 ADD DUP3 PUSH2 0xFAA JUMP JUMPDEST SUB ADD PUSH1 0x40 DUP5 ADD PUSH1 0x0 PUSH32 0x0 PUSH1 0x1 PUSH1 0x1 PUSH1 0xA0 SHL SUB AND GAS CALL SWAP1 DUP2 ISZERO PUSH2 0x53A JUMPI PUSH1 0x0 SWAP2 PUSH2 0x501 JUMPI JUMPDEST POP PUSH1 0x1 SWAP2 PUSH2 0x4F9 SWAP2 PUSH2 0x4F1 PUSH1 0xF SWAP2 DUP3 SIGNEXTEND PUSH2 0x10AD JUMP JUMPDEST SWAP1 SIGNEXTEND SWAP1 PUSH2 0x1036 JUMP JUMPDEST SWAP4 SWAP1 DUP6 PUSH2 0x258 JUMP JUMPDEST SWAP1 POP PUSH1 0x20 DUP2 RETURNDATASIZE PUSH1 0x20 GT PUSH2 0x532 JUMPI JUMPDEST DUP2 PUSH2 0x51F PUSH1 0x20 SWAP4 PUSH1 0x40 DUP5 ADD PUSH2 0x10CE JUMP JUMPDEST DUP2 ADD SUB SLT PUSH2 0x17E JUMPI PUSH1 0x40 ADD MLOAD PUSH1 0x1 PUSH2 0x4DC JUMP JUMPDEST RETURNDATASIZE SWAP2 POP PUSH2 0x50F JUMP JUMPDEST PUSH1 0x40 MLOAD RETURNDATASIZE PUSH1 0x0 DUP3 RETURNDATACOPY RETURNDATASIZE SWAP1 REVERT JUMPDEST PUSH4 0x4E487B71 PUSH1 0xE0 SHL PUSH1 0x0 MSTORE PUSH1 0x41 PUSH1 0x4 MSTORE PUSH1 0x24 PUSH1 0x0 REVERT JUMPDEST PUSH1 0x20 DUP2 RETURNDATASIZE PUSH1 0x20 GT PUSH2 0x58C JUMPI JUMPDEST DUP2 PUSH2 0x575 PUSH1 0x20 SWAP4 DUP4 PUSH2 0x10CE JUMP JUMPDEST DUP2 ADD SUB SLT PUSH2 0x17E JUMPI MLOAD DUP1 ISZERO ISZERO SUB PUSH2 0x17E JUMPI DUP7 PUSH2 0x310 JUMP JUMPDEST RETURNDATASIZE SWAP2 POP PUSH2 0x568 JUMP JUMPDEST SWAP1 POP PUSH1 0x20 DUP2 RETURNDATASIZE PUSH1 0x20 GT PUSH2 0x5BE JUMPI JUMPDEST DUP2 PUSH2 0x5AF PUSH1 0x20 SWAP4 DUP4 PUSH2 0x10CE JUMP JUMPDEST DUP2 ADD SUB SLT PUSH2 0x17E JUMPI MLOAD DUP7 PUSH2 0x251 JUMP JUMPDEST RETURNDATASIZE SWAP2 POP PUSH2 0x5A2 JUMP JUMPDEST POP PUSH1 0x1 SWAP1 PUSH2 0x25E JUMP JUMPDEST POP PUSH1 0x0 PUSH1 0x1 DUP3 ADD SSTORE SLOAD PUSH1 0x40 MLOAD SWAP3 DUP4 MSTORE PUSH1 0x1 PUSH1 0x1 PUSH1 0xA0 SHL SUB AND SWAP2 PUSH32 0xDE3F14CE4426137F4576388D16723795D5BF5E2F00597E0E8D63816A7342A1E1 SWAP1 PUSH1 0x20 SWAP1 LOG3 STOP JUMPDEST PUSH1 0x40 MLOAD PUSH3 0x461BCD PUSH1 0xE5 SHL DUP2 MSTORE PUSH1 0x20 PUSH1 0x4 DUP3 ADD MSTORE PUSH1 0x17 PUSH1 0x24 DUP3 ADD MSTORE PUSH32 0x446561646C696E6520686173206E6F7420706173736564000000000000000000 PUSH1 0x44 DUP3 ADD MSTORE PUSH1 0x64 SWAP1 REVERT JUMPDEST CALLVALUE PUSH2 0x17E JUMPI PUSH1 0x0 CALLDATASIZE PUSH1 0x3 NOT ADD SLT PUSH2 0x17E JUMPI PUSH1 0x40 MLOAD PUSH32 0x0 PUSH1 0x1 PUSH1 0x1 PUSH1 0xA0 SHL SUB AND DUP2 MSTORE PUSH1 0x20 SWAP1 RETURN JUMPDEST CALLVALUE PUSH2 0x17E JUMPI PUSH1 0x60 CALLDATASIZE PUSH1 0x3 NOT ADD SLT PUSH2 0x17E JUMPI PUSH2 0x6B3 PUSH2 0xF4F JUMP JUMPDEST PUSH1 0x44 CALLDATALOAD PUSH8 0xFFFFFFFFFFFFFFFF DUP2 GT PUSH2 0x17E JUMPI PUSH2 0x6D3 SWAP1 CALLDATASIZE SWAP1 PUSH1 0x4 ADD PUSH2 0xF79 JUMP JUMPDEST SWAP1 CALLER PUSH1 0x0 MSTORE PUSH1 0x0 PUSH1 0x20 MSTORE PUSH1 0x1 PUSH1 0x40 PUSH1 0x0 KECCAK256 ADD SLOAD PUSH2 0x96A JUMPI PUSH1 0x1 PUSH1 0x1 PUSH1 0xA0 SHL SUB DUP4 AND ISZERO PUSH2 0x916 JUMPI PUSH1 0x24 CALLDATALOAD ISZERO PUSH2 0x8BD JUMPI PUSH2 0x70D PUSH1 0x24 CALLDATALOAD TIMESTAMP PUSH2 0x1036 JUMP JUMPDEST SWAP1 PUSH1 0x40 MLOAD SWAP2 PUSH1 0x80 DUP4 ADD DUP4 DUP2 LT PUSH8 0xFFFFFFFFFFFFFFFF DUP3 GT OR PUSH2 0x546 JUMPI PUSH1 0x40 MSTORE PUSH1 0x1 DUP1 PUSH1 0xA0 SHL SUB DUP6 AND DUP4 MSTORE PUSH1 0x20 DUP4 ADD MSTORE PUSH1 0x24 CALLDATALOAD PUSH1 0x40 DUP4 ADD MSTORE PUSH8 0xFFFFFFFFFFFFFFFF DUP4 GT PUSH2 0x546 JUMPI DUP3 PUSH1 0x5 SHL PUSH1 0x40 MLOAD SWAP4 PUSH2 0x768 PUSH1 0x20 DUP4 ADD DUP7 PUSH2 0x10CE JUMP JUMPDEST DUP5 MSTORE PUSH1 0x20 DUP5 ADD SWAP1 CALLDATASIZE DUP2 DUP5 ADD GT PUSH2 0x17E JUMPI DUP3 SWAP2 JUMPDEST DUP2 DUP5 ADD DUP4 LT PUSH2 0x8A5 JUMPI DUP7 DUP7 PUSH1 0x3 DUP8 PUSH1 0x60 DUP2 ADD SWAP3 DUP4 MSTORE CALLER PUSH1 0x0 MSTORE PUSH1 0x0 PUSH1 0x20 MSTORE PUSH1 0x40 DUP1 PUSH1 0x0 KECCAK256 SWAP2 PUSH1 0x1 DUP1 PUSH1 0xA0 SHL SUB DUP2 MLOAD AND PUSH12 0xFFFFFFFFFFFFFFFFFFFFFFFF PUSH1 0xA0 SHL DUP5 SLOAD AND OR DUP4 SSTORE PUSH1 0x20 DUP2 ADD MLOAD PUSH1 0x1 DUP5 ADD SSTORE ADD MLOAD PUSH1 0x2 DUP3 ADD SSTORE ADD SWAP1 MLOAD SWAP1 DUP2 MLOAD SWAP2 PUSH8 0xFFFFFFFFFFFFFFFF DUP4 GT PUSH2 0x546 JUMPI PUSH1 0x1 PUSH1 0x40 SHL DUP4 GT PUSH2 0x546 JUMPI DUP2 SLOAD DUP4 DUP4 SSTORE DUP1 DUP5 LT PUSH2 0x87C JUMPI JUMPDEST POP PUSH1 0x20 ADD SWAP1 PUSH1 0x0 MSTORE PUSH1 0x20 PUSH1 0x0 KECCAK256 PUSH1 0x0 JUMPDEST DUP4 DUP2 LT PUSH2 0x85F JUMPI DUP5 PUSH2 0x823 PUSH1 0x24 CALLDATALOAD TIMESTAMP PUSH2 0x1036 JUMP JUMPDEST PUSH1 0x40 MLOAD SWAP1 DUP2 MSTORE PUSH1 0x1 PUSH1 0x1 PUSH1 0xA0 SHL SUB SWAP1 SWAP2 AND SWAP1 CALLER SWAP1 PUSH32 0xD4C9FB4A0298B2717518A542BD4801CE0CB35FD35087636887F9E87AD8D75A3F SWAP1 PUSH1 0x20 SWAP1 LOG3 STOP JUMPDEST DUP3 MLOAD PUSH1 0x1 PUSH1 0x1 PUSH1 0xA0 SHL SUB AND DUP2 DUP4 ADD SSTORE PUSH1 0x20 SWAP1 SWAP3 ADD SWAP2 PUSH1 0x1 ADD PUSH2 0x80F JUMP JUMPDEST DUP3 PUSH1 0x0 MSTORE DUP4 PUSH1 0x20 PUSH1 0x0 KECCAK256 SWAP2 DUP3 ADD SWAP2 ADD JUMPDEST DUP2 DUP2 LT PUSH2 0x899 JUMPI POP PUSH2 0x7FF JUMP JUMPDEST PUSH1 0x0 DUP2 SSTORE PUSH1 0x1 ADD PUSH2 0x88C JUMP JUMPDEST PUSH1 0x20 DUP1 SWAP2 PUSH2 0x8B2 DUP6 PUSH2 0xF65 JUMP JUMPDEST DUP2 MSTORE ADD SWAP3 ADD SWAP2 PUSH2 0x77B JUMP JUMPDEST PUSH1 0x40 MLOAD PUSH3 0x461BCD PUSH1 0xE5 SHL DUP2 MSTORE PUSH1 0x20 PUSH1 0x4 DUP3 ADD MSTORE PUSH1 0x2B PUSH1 0x24 DUP3 ADD MSTORE PUSH32 0x446561646C696E65206475726174696F6E206D75737420626520677265617465 PUSH1 0x44 DUP3 ADD MSTORE PUSH11 0x72207468616E207A65726F PUSH1 0xA8 SHL PUSH1 0x64 DUP3 ADD MSTORE PUSH1 0x84 SWAP1 REVERT JUMPDEST PUSH1 0x40 MLOAD PUSH3 0x461BCD PUSH1 0xE5 SHL DUP2 MSTORE PUSH1 0x20 PUSH1 0x4 DUP3 ADD MSTORE PUSH1 0x26 PUSH1 0x24 DUP3 ADD MSTORE PUSH32 0x42656E65666963696172792063616E6E6F7420626520746865207A65726F2061 PUSH1 0x44 DUP3 ADD MSTORE PUSH6 0x646472657373 PUSH1 0xD0 SHL PUSH1 0x64 DUP3 ADD MSTORE PUSH1 0x84 SWAP1 REVERT JUMPDEST PUSH1 0x40 MLOAD PUSH3 0x461BCD PUSH1 0xE5 SHL DUP2 MSTORE PUSH1 0x20 PUSH1 0x4 DUP3 ADD MSTORE PUSH1 0x1B PUSH1 0x24 DUP3 ADD MSTORE PUSH32 0x4163636F756E7420616C726561647920696E697469616C697A65640000000000 PUSH1 0x44 DUP3 ADD MSTORE PUSH1 0x64 SWAP1 REVERT JUMPDEST CALLVALUE PUSH2 0x17E JUMPI PUSH1 0x40 CALLDATASIZE PUSH1 0x3 NOT ADD SLT PUSH2 0x17E JUMPI PUSH1 0x24 PUSH8 0xFFFFFFFFFFFFFFFF DUP2 CALLDATALOAD DUP2 DUP2 GT PUSH2 0x17E JUMPI CALLDATASIZE PUSH1 0x23 DUP3 ADD SLT ISZERO PUSH2 0x17E JUMPI DUP1 PUSH1 0x4 ADD CALLDATALOAD DUP3 DUP2 GT PUSH2 0x17E JUMPI DUP2 ADD SWAP1 CALLDATASIZE DUP5 DUP4 ADD GT PUSH2 0x17E JUMPI PUSH1 0x1 PUSH1 0x1 PUSH1 0xA0 SHL SUB SWAP2 PUSH32 0x0 DUP4 AND CALLER SUB PUSH2 0xB1D JUMPI DUP2 PUSH1 0x20 SWAP2 SUB SLT PUSH2 0x17E JUMPI DUP4 ADD CALLDATALOAD SWAP1 DUP1 DUP3 AND DUP1 SWAP3 SUB PUSH2 0x17E JUMPI PUSH2 0xA4F PUSH1 0x4 CALLDATALOAD PUSH1 0xF SIGNEXTEND PUSH2 0x10AD JUMP JUMPDEST PUSH1 0xF SIGNEXTEND SWAP1 DUP2 PUSH2 0xAA8 JUMPI JUMPDEST POP POP PUSH1 0x40 MLOAD SWAP2 PUSH1 0x20 DUP4 ADD SWAP2 POP DUP2 GT DUP3 DUP3 LT OR PUSH2 0xA93 JUMPI PUSH2 0xA8F SWAP3 POP PUSH1 0x40 MSTORE PUSH1 0x0 DUP2 MSTORE PUSH1 0x40 MLOAD SWAP2 DUP3 SWAP2 PUSH1 0x20 DUP4 MSTORE PUSH1 0x20 DUP4 ADD SWAP1 PUSH2 0xFAA JUMP JUMPDEST SUB SWAP1 RETURN JUMPDEST DUP3 PUSH4 0x4E487B71 PUSH1 0xE0 SHL PUSH1 0x0 MSTORE PUSH1 0x41 PUSH1 0x4 MSTORE PUSH1 0x0 REVERT JUMPDEST PUSH1 0x40 DUP1 MLOAD PUSH4 0xA9059CBB PUSH1 0xE0 SHL PUSH1 0x20 DUP1 DUP4 ADD SWAP2 SWAP1 SWAP2 MSTORE PUSH1 0x1 PUSH1 0x1 PUSH1 0xA0 SHL SUB SWAP1 SWAP6 AND DUP8 DUP3 ADD SWAP1 DUP2 MSTORE SWAP5 DUP6 ADD SWAP4 SWAP1 SWAP4 MSTORE PUSH2 0xB15 SWAP4 PUSH2 0xAEE SWAP2 DUP5 SWAP2 ADD SUB PUSH1 0x1F NOT DUP2 ADD DUP5 MSTORE DUP4 PUSH2 0x10CE JUMP JUMPDEST PUSH32 0x0 AND PUSH2 0x10F0 JUMP JUMPDEST DUP3 DUP1 DUP1 PUSH2 0xA59 JUMP JUMPDEST PUSH1 0x40 MLOAD PUSH3 0x461BCD PUSH1 0xE5 SHL DUP2 MSTORE PUSH1 0x20 PUSH1 0x4 DUP3 ADD MSTORE PUSH1 0x1E DUP2 DUP8 ADD MSTORE PUSH32 0x4F6E6C7920506F6F6C4D616E616765722063616E2063616C6C20746869730000 PUSH1 0x44 DUP3 ADD MSTORE PUSH1 0x64 SWAP1 REVERT JUMPDEST CALLVALUE PUSH2 0x17E JUMPI PUSH1 0x20 CALLDATASIZE PUSH1 0x3 NOT ADD SLT PUSH2 0x17E JUMPI PUSH1 0x60 PUSH1 0x1 PUSH1 0x1 PUSH1 0xA0 SHL SUB DUP1 PUSH2 0xB85 PUSH2 0xF4F JUMP JUMPDEST AND PUSH1 0x0 MSTORE PUSH1 0x0 PUSH1 0x20 MSTORE PUSH1 0x40 PUSH1 0x0 KECCAK256 SWAP1 DUP2 SLOAD AND SWAP1 PUSH1 0x2 PUSH1 0x1 DUP3 ADD SLOAD SWAP2 ADD SLOAD SWAP1 PUSH1 0x40 MLOAD SWAP3 DUP4 MSTORE PUSH1 0x20 DUP4 ADD MSTORE PUSH1 0x40 DUP3 ADD MSTORE RETURN JUMPDEST CALLVALUE PUSH2 0x17E JUMPI PUSH1 0x20 DUP1 PUSH1 0x3 NOT CALLDATASIZE ADD SLT PUSH2 0x17E JUMPI PUSH1 0x4 CALLDATALOAD PUSH8 0xFFFFFFFFFFFFFFFF DUP2 GT PUSH2 0x17E JUMPI PUSH2 0xBE7 SWAP1 CALLDATASIZE SWAP1 PUSH1 0x4 ADD PUSH2 0xF79 JUMP JUMPDEST SWAP1 SWAP2 CALLER PUSH1 0x0 MSTORE PUSH1 0x0 DUP2 MSTORE PUSH1 0x1 PUSH2 0xC06 PUSH1 0x1 PUSH1 0x40 PUSH1 0x0 KECCAK256 ADD SLOAD ISZERO ISZERO PUSH2 0x1043 JUMP JUMPDEST PUSH1 0x0 JUMPDEST DUP4 DUP2 LT PUSH2 0xC7E JUMPI POP PUSH1 0x40 MLOAD SWAP3 DUP1 DUP4 DUP6 ADD DUP5 DUP7 MSTORE MSTORE PUSH1 0x40 DUP5 ADD SWAP5 SWAP3 PUSH1 0x0 JUMPDEST DUP3 DUP2 LT PUSH2 0xC56 JUMPI CALLER PUSH32 0xB90857F670E2787419D97E8AD1483239915B735FECC028ADF074EF41C09D602C DUP8 DUP10 SUB DUP9 LOG2 STOP JUMPDEST SWAP1 SWAP2 SWAP3 DUP3 DUP1 DUP3 SWAP7 SWAP9 PUSH1 0x1 DUP1 PUSH1 0xA0 SHL SUB PUSH2 0xC6E DUP12 PUSH2 0xF65 JUMP JUMPDEST AND DUP2 MSTORE ADD SWAP8 ADD SWAP5 SWAP4 SWAP3 SWAP2 ADD PUSH2 0xC26 JUMP JUMPDEST CALLER PUSH1 0x0 SWAP1 DUP2 MSTORE DUP1 DUP5 MSTORE PUSH1 0x40 SWAP1 KECCAK256 SWAP3 SWAP4 SWAP2 SWAP3 PUSH1 0x3 ADD SWAP1 PUSH1 0x5 DUP2 SWAP1 SHL DUP7 ADD CALLDATALOAD PUSH1 0x1 PUSH1 0x1 PUSH1 0xA0 SHL SUB DUP2 AND DUP2 SUB PUSH2 0x17E JUMPI DUP3 SLOAD SWAP1 PUSH1 0x1 PUSH1 0x40 SHL DUP3 LT ISZERO PUSH2 0x546 JUMPI PUSH2 0xCCD DUP3 DUP8 SWAP6 DUP7 PUSH2 0xCEB SWAP6 ADD DUP2 SSTORE PUSH2 0x107F JUMP JUMPDEST SWAP1 SWAP2 SWAP1 PUSH1 0x1 DUP1 PUSH1 0xA0 SHL SUB DUP1 DUP5 SLOAD SWAP3 PUSH1 0x3 SHL SWAP4 AND DUP4 SHL SWAP3 SHL NOT AND OR SWAP1 SSTORE JUMP JUMPDEST ADD SWAP3 SWAP2 SWAP1 SWAP3 PUSH2 0xC09 JUMP JUMPDEST CALLVALUE PUSH2 0x17E JUMPI PUSH1 0x20 CALLDATASIZE PUSH1 0x3 NOT ADD SLT PUSH2 0x17E JUMPI PUSH2 0xD0E PUSH2 0xF4F JUMP JUMPDEST CALLER PUSH1 0x0 MSTORE PUSH1 0x0 PUSH1 0x20 MSTORE PUSH1 0x1 SWAP1 PUSH2 0xD2D PUSH1 0x1 PUSH1 0x40 PUSH1 0x0 KECCAK256 ADD SLOAD ISZERO ISZERO PUSH2 0x1043 JUMP JUMPDEST CALLER PUSH1 0x0 MSTORE PUSH1 0x0 PUSH1 0x20 MSTORE DUP2 PUSH1 0x3 DUP1 PUSH1 0x40 PUSH1 0x0 KECCAK256 ADD PUSH1 0x0 SWAP4 PUSH1 0x1 DUP1 PUSH1 0xA0 SHL SUB DUP1 SWAP2 AND SWAP6 JUMPDEST PUSH2 0xD83 JUMPI JUMPDEST DUP6 PUSH1 0x40 MLOAD SWAP1 DUP2 MSTORE PUSH32 0x8EAC65C9901BE8390F0CF78F2CA8D86E706341713377DCA39B0472FC07CDD05 PUSH1 0x20 CALLER SWAP3 LOG2 STOP JUMPDEST DUP2 SLOAD DUP1 DUP7 LT ISZERO PUSH2 0xE39 JUMPI DUP7 DUP3 PUSH2 0xD99 DUP9 DUP7 PUSH2 0x107F JUMP JUMPDEST SWAP1 SLOAD SWAP1 DUP8 SHL SHR AND EQ PUSH2 0xDB0 JUMPI POP DUP4 DUP1 SWAP6 ADD SWAP5 PUSH2 0xD4F JUMP JUMPDEST SWAP3 SWAP5 SWAP2 SWAP4 POP SWAP2 PUSH1 0x0 NOT SWAP2 DUP3 DUP3 ADD SWAP2 DUP3 GT PUSH2 0xE23 JUMPI PUSH2 0xCCD DUP5 PUSH2 0xDD5 PUSH2 0xDE3 SWAP5 DUP9 PUSH2 0x107F JUMP JUMPDEST SWAP1 SLOAD SWAP1 DUP10 SHL SHR AND SWAP2 DUP7 PUSH2 0x107F JUMP JUMPDEST DUP3 SLOAD DUP1 ISZERO PUSH2 0xE0D JUMPI ADD SWAP3 PUSH2 0xDF7 DUP5 DUP5 PUSH2 0x107F JUMP JUMPDEST DUP2 SWAP4 SWAP2 SLOAD SWAP3 SHL SHL NOT AND SWAP1 SSTORE SSTORE DUP2 DUP1 DUP1 DUP1 DUP1 PUSH2 0xD54 JUMP JUMPDEST PUSH4 0x4E487B71 PUSH1 0xE0 SHL PUSH1 0x0 MSTORE PUSH1 0x31 PUSH1 0x4 MSTORE PUSH1 0x24 PUSH1 0x0 REVERT JUMPDEST PUSH4 0x4E487B71 PUSH1 0xE0 SHL PUSH1 0x0 MSTORE PUSH1 0x11 PUSH1 0x4 MSTORE PUSH1 0x24 PUSH1 0x0 REVERT JUMPDEST POP PUSH2 0xD54 JUMP JUMPDEST CALLVALUE PUSH2 0x17E JUMPI PUSH1 0x0 CALLDATASIZE PUSH1 0x3 NOT ADD SLT PUSH2 0x17E JUMPI PUSH1 0x40 MLOAD PUSH32 0x0 PUSH1 0x1 PUSH1 0x1 PUSH1 0xA0 SHL SUB AND DUP2 MSTORE PUSH1 0x20 SWAP1 RETURN JUMPDEST CALLVALUE PUSH2 0x17E JUMPI PUSH1 0x0 CALLDATASIZE PUSH1 0x3 NOT ADD SLT PUSH2 0x17E JUMPI CALLER PUSH1 0x0 MSTORE PUSH1 0x0 PUSH1 0x20 MSTORE PUSH2 0xEB1 PUSH1 0x1 PUSH1 0x40 PUSH1 0x0 KECCAK256 ADD SLOAD ISZERO ISZERO PUSH2 0xFEA JUMP JUMPDEST CALLER PUSH1 0x0 MSTORE PUSH1 0x0 PUSH1 0x20 MSTORE PUSH2 0xECC PUSH1 0x2 PUSH1 0x40 PUSH1 0x0 KECCAK256 ADD SLOAD TIMESTAMP PUSH2 0x1036 JUMP JUMPDEST CALLER PUSH1 0x0 MSTORE PUSH1 0x0 PUSH1 0x20 MSTORE DUP1 PUSH1 0x1 PUSH1 0x40 PUSH1 0x0 KECCAK256 ADD SSTORE PUSH1 0x40 MLOAD SWAP1 DUP2 MSTORE PUSH32 0xF1A463082EFF5F74A481D3ABD6FC308D976449C50289C0564E946069CB7D8805 PUSH1 0x20 CALLER SWAP3 LOG2 STOP JUMPDEST CALLVALUE PUSH2 0x17E JUMPI PUSH1 0x0 CALLDATASIZE PUSH1 0x3 NOT ADD SLT PUSH2 0x17E JUMPI PUSH32 0x0 PUSH1 0x1 PUSH1 0x1 PUSH1 0xA0 SHL SUB AND DUP2 MSTORE PUSH1 0x20 SWAP1 RETURN JUMPDEST PUSH1 0x4 CALLDATALOAD SWAP1 PUSH1 0x1 PUSH1 0x1 PUSH1 0xA0 SHL SUB DUP3 AND DUP3 SUB PUSH2 0x17E JUMPI JUMP JUMPDEST CALLDATALOAD SWAP1 PUSH1 0x1 PUSH1 0x1 PUSH1 0xA0 SHL SUB DUP3 AND DUP3 SUB PUSH2 0x17E JUMPI JUMP JUMPDEST SWAP2 DUP2 PUSH1 0x1F DUP5 ADD SLT ISZERO PUSH2 0x17E JUMPI DUP3 CALLDATALOAD SWAP2 PUSH8 0xFFFFFFFFFFFFFFFF DUP4 GT PUSH2 0x17E JUMPI PUSH1 0x20 DUP1 DUP6 ADD SWAP5 DUP5 PUSH1 0x5 SHL ADD ADD GT PUSH2 0x17E JUMPI JUMP JUMPDEST SWAP2 SWAP1 DUP3 MLOAD SWAP3 DUP4 DUP3 MSTORE PUSH1 0x0 JUMPDEST DUP5 DUP2 LT PUSH2 0xFD6 JUMPI POP POP DUP3 PUSH1 0x0 PUSH1 0x20 DUP1 SWAP5 SWAP6 DUP5 ADD ADD MSTORE PUSH1 0x1F DUP1 NOT SWAP2 ADD AND ADD ADD SWAP1 JUMP JUMPDEST PUSH1 0x20 DUP2 DUP4 ADD DUP2 ADD MLOAD DUP5 DUP4 ADD DUP3 ADD MSTORE ADD PUSH2 0xFB5 JUMP JUMPDEST ISZERO PUSH2 0xFF1 JUMPI JUMP JUMPDEST PUSH1 0x40 MLOAD PUSH3 0x461BCD PUSH1 0xE5 SHL DUP2 MSTORE PUSH1 0x20 PUSH1 0x4 DUP3 ADD MSTORE PUSH1 0x17 PUSH1 0x24 DUP3 ADD MSTORE PUSH32 0x4163636F756E74206E6F7420696E697469616C697A6564000000000000000000 PUSH1 0x44 DUP3 ADD MSTORE PUSH1 0x64 SWAP1 REVERT JUMPDEST SWAP2 SWAP1 DUP3 ADD DUP1 SWAP3 GT PUSH2 0xE23 JUMPI JUMP JUMPDEST ISZERO PUSH2 0x104A JUMPI JUMP JUMPDEST PUSH1 0x40 MLOAD PUSH3 0x461BCD PUSH1 0xE5 SHL DUP2 MSTORE PUSH1 0x20 PUSH1 0x4 DUP3 ADD MSTORE PUSH1 0xD PUSH1 0x24 DUP3 ADD MSTORE PUSH13 0x105C9AC81B9BDD08189D5A5B1D PUSH1 0x9A SHL PUSH1 0x44 DUP3 ADD MSTORE PUSH1 0x64 SWAP1 REVERT JUMPDEST DUP1 SLOAD DUP3 LT ISZERO PUSH2 0x1097 JUMPI PUSH1 0x0 MSTORE PUSH1 0x20 PUSH1 0x0 KECCAK256 ADD SWAP1 PUSH1 0x0 SWAP1 JUMP JUMPDEST PUSH4 0x4E487B71 PUSH1 0xE0 SHL PUSH1 0x0 MSTORE PUSH1 0x32 PUSH1 0x4 MSTORE PUSH1 0x24 PUSH1 0x0 REVERT JUMPDEST PUSH1 0xF SIGNEXTEND PUSH16 0x7FFFFFFFFFFFFFFFFFFFFFFFFFFFFFFF NOT DUP2 EQ PUSH2 0xE23 JUMPI PUSH1 0x0 SUB SWAP1 JUMP JUMPDEST SWAP1 PUSH1 0x1F DUP1 NOT SWAP2 ADD AND DUP2 ADD SWAP1 DUP2 LT PUSH8 0xFFFFFFFFFFFFFFFF DUP3 GT OR PUSH2 0x546 JUMPI PUSH1 0x40 MSTORE JUMP JUMPDEST SWAP1 PUSH1 0x0 PUSH1 0x20 SWAP2 DUP3 DUP2 MLOAD SWAP2 ADD DUP3 DUP6 GAS CALL ISZERO PUSH2 0x53A JUMPI PUSH1 0x0 MLOAD RETURNDATASIZE PUSH2 0x1143 JUMPI POP PUSH1 0x1 PUSH1 0x1 PUSH1 0xA0 SHL SUB DUP2 AND EXTCODESIZE ISZERO JUMPDEST PUSH2 0x1121 JUMPI POP JUMP JUMPDEST PUSH1 0x40 MLOAD PUSH4 0x5274AFE7 PUSH1 0xE0 SHL DUP2 MSTORE PUSH1 0x1 PUSH1 0x1 PUSH1 0xA0 SHL SUB SWAP1 SWAP2 AND PUSH1 0x4 DUP3 ADD MSTORE PUSH1 0x24 SWAP1 REVERT JUMPDEST PUSH1 0x1 EQ ISZERO PUSH2 0x111A JUMP INVALID LOG2 PUSH5 0x6970667358 0x22 SLT KECCAK256 BLOBBASEFEE PUSH14 0x467DC3D40A9CA408224ECD803228 DUP4 PUSH16 0x370E97B19C9E68D2A68C336B356A6473 PUSH16 0x6C634300081800330000000000000000 "},"methodIdentifiers":{"addPassengers(address[])":"79000013","arks(address)":"88b21872","buildArk(address,uint256,address[])":"b1ad599d","flood(address)":"f2511bb1","hookAddress()":"32a3cf96","pingArk()":"0fe23da9","poolManager()":"dc4c90d3","poolManagerSwapCallback(int256,bytes)":"afa9862a","removePassenger(address)":"454d58d2","updateDeadlineDuration(uint256)":"fabb6a38","usdcAddress()":"02d45457"}}}}}