{"contracts/MockPoolManager.sol":{"MockPoolManager":{"abi":[{"inputs":[{"internalType":"address","name":"","type":"address"},{"internalType":"address","name":"","type":"address"}],"name":"mockRates","outputs":[{"internalType":"uint256","name":"","type":"uint256"}],"stateMutability":"view","type":"function"},{"inputs":[{"internalType":"address","name":"tokenIn","type":"address"},{"internalType":"address","name":"tokenOut","type":"address"},{"internalType":"uint256","name":"rate","type":"uint256"}],"name":"setMockRate","outputs":[],"stateMutability":"nonpayable","type":"function"},{"inputs":[{"components":[{"internalType":"Currency","name":"currency0","type":"address"},{"internalType":"Currency","name":"currency1","type":"address"},{"internalType":"uint24","name":"fee","type":"uint24"},{"internalType":"int24","name":"tickSpacing","type":"int24"},{"internalType":"contract IHooks","name":"hooks","type":"address"}],"internalType":"struct PoolKey","name":"key","type":"tuple"},{"components":[{"internalType":"bool","name":"zeroForOne","type":"bool"},{"internalType":"int256","name":"amountSpecified","type":"int256"},{"internalType":"uint160","name":"sqrtPriceLimitX96","type":"uint160"}],"internalType":"struct SwapParams","name":"params","type":"tuple"},{"internalType":"bytes","name":"hookData","type":"bytes"}],"name":"swap","outputs":[{"internalType":"BalanceDelta","name":"delta","type":"int256"}],"stateMutability":"nonpayable","type":"function"}],"evm":{"bytecode":{"linkReferences":{},"object":"60808060405234610016576103f7908161001c8239f35b600080fdfe604060808152600436101561001357600080fd5b600090813560e01c80632a246889146102965780635bb286f61461024f5763f3cd914c1461004057600080fd5b34610243573660031901610120811261024b5760a0136102435760603660a3190112610243576101043567ffffffffffffffff80821161024757366023830112156102475781600401359081116102475736910160240111610243576001600160a01b0391826100ae61030f565b5050826100b9610325565b50506100c361033b565b1561022957826100d161030f565b16836100db610325565b16915b8460c4359216928382526020958287528583209116908183528652848220548084029084820414841517156102155786670de0b6b3a76400008492049560648851809481936323b872dd60e01b83523360048401523060248401528960448401525af1801561020b5791879184936101ee575b50604487518095819363a9059cbb60e01b83523360048401528960248401525af19081156101e357506101b6575b5061018861033b565b156101a2576101969061039a565b60801b17905b51908152f35b6101ab9061039a565b9060801b179061019c565b6101d590853d87116101dc575b6101cd818361034a565b810190610382565b503861017f565b503d6101c3565b8551903d90823e3d90fd5b61020490833d85116101dc576101cd818361034a565b5038610151565b86513d85823e3d90fd5b634e487b7160e01b83526011600452602483fd5b82610232610325565b168361023c61030f565b16916100de565b5080fd5b8380fd5b8280fd5b50346102435780600319360112610243578060209261026c6102de565b6102746102f9565b6001600160a01b03918216835282865283832091168252845220549051908152f35b5034610243576060366003190112610243576102b06102de565b6102b86102f9565b6001600160a01b0391821684526020848152838520929091168452528120604435905580f35b600435906001600160a01b03821682036102f457565b600080fd5b602435906001600160a01b03821682036102f457565b6004356001600160a01b03811681036102f45790565b6024356001600160a01b03811681036102f45790565b60a43580151581036102f45790565b90601f8019910116810190811067ffffffffffffffff82111761036c57604052565b634e487b7160e01b600052604160045260246000fd5b908160209103126102f4575180151581036102f45790565b600160ff1b81146103ab5760000390565b634e487b7160e01b600052601160045260246000fdfea264697066735822122027b3cbf3c31d5c229718e06188683bf4c4d01b36e97b54319fc517ad1d6382b464736f6c63430008180033","opcodes":"PUSH1 0x80 DUP1 PUSH1 0x40 MSTORE CALLVALUE PUSH2 0x16 JUMPI PUSH2 0x3F7 SWAP1 DUP2 PUSH2 0x1C DUP3 CODECOPY RETURN JUMPDEST PUSH1 0x0 DUP1 REVERT INVALID PUSH1 0x40 PUSH1 0x80 DUP2 MSTORE PUSH1 0x4 CALLDATASIZE LT ISZERO PUSH2 0x13 JUMPI PUSH1 0x0 DUP1 REVERT JUMPDEST PUSH1 0x0 SWAP1 DUP2 CALLDATALOAD PUSH1 0xE0 SHR DUP1 PUSH4 0x2A246889 EQ PUSH2 0x296 JUMPI DUP1 PUSH4 0x5BB286F6 EQ PUSH2 0x24F JUMPI PUSH4 0xF3CD914C EQ PUSH2 0x40 JUMPI PUSH1 0x0 DUP1 REVERT JUMPDEST CALLVALUE PUSH2 0x243 JUMPI CALLDATASIZE PUSH1 0x3 NOT ADD PUSH2 0x120 DUP2 SLT PUSH2 0x24B JUMPI PUSH1 0xA0 SGT PUSH2 0x243 JUMPI PUSH1 0x60 CALLDATASIZE PUSH1 0xA3 NOT ADD SLT PUSH2 0x243 JUMPI PUSH2 0x104 CALLDATALOAD PUSH8 0xFFFFFFFFFFFFFFFF DUP1 DUP3 GT PUSH2 0x247 JUMPI CALLDATASIZE PUSH1 0x23 DUP4 ADD SLT ISZERO PUSH2 0x247 JUMPI DUP2 PUSH1 0x4 ADD CALLDATALOAD SWAP1 DUP2 GT PUSH2 0x247 JUMPI CALLDATASIZE SWAP2 ADD PUSH1 0x24 ADD GT PUSH2 0x243 JUMPI PUSH1 0x1 PUSH1 0x1 PUSH1 0xA0 SHL SUB SWAP2 DUP3 PUSH2 0xAE PUSH2 0x30F JUMP JUMPDEST POP POP DUP3 PUSH2 0xB9 PUSH2 0x325 JUMP JUMPDEST POP POP PUSH2 0xC3 PUSH2 0x33B JUMP JUMPDEST ISZERO PUSH2 0x229 JUMPI DUP3 PUSH2 0xD1 PUSH2 0x30F JUMP JUMPDEST AND DUP4 PUSH2 0xDB PUSH2 0x325 JUMP JUMPDEST AND SWAP2 JUMPDEST DUP5 PUSH1 0xC4 CALLDATALOAD SWAP3 AND SWAP3 DUP4 DUP3 MSTORE PUSH1 0x20 SWAP6 DUP3 DUP8 MSTORE DUP6 DUP4 KECCAK256 SWAP2 AND SWAP1 DUP2 DUP4 MSTORE DUP7 MSTORE DUP5 DUP3 KECCAK256 SLOAD DUP1 DUP5 MUL SWAP1 DUP5 DUP3 DIV EQ DUP5 ISZERO OR ISZERO PUSH2 0x215 JUMPI DUP7 PUSH8 0xDE0B6B3A7640000 DUP5 SWAP3 DIV SWAP6 PUSH1 0x64 DUP9 MLOAD DUP1 SWAP5 DUP2 SWAP4 PUSH4 0x23B872DD PUSH1 0xE0 SHL DUP4 MSTORE CALLER PUSH1 0x4 DUP5 ADD MSTORE ADDRESS PUSH1 0x24 DUP5 ADD MSTORE DUP10 PUSH1 0x44 DUP5 ADD MSTORE GAS CALL DUP1 ISZERO PUSH2 0x20B JUMPI SWAP2 DUP8 SWAP2 DUP5 SWAP4 PUSH2 0x1EE JUMPI JUMPDEST POP PUSH1 0x44 DUP8 MLOAD DUP1 SWAP6 DUP2 SWAP4 PUSH4 0xA9059CBB PUSH1 0xE0 SHL DUP4 MSTORE CALLER PUSH1 0x4 DUP5 ADD MSTORE DUP10 PUSH1 0x24 DUP5 ADD MSTORE GAS CALL SWAP1 DUP2 ISZERO PUSH2 0x1E3 JUMPI POP PUSH2 0x1B6 JUMPI JUMPDEST POP PUSH2 0x188 PUSH2 0x33B JUMP JUMPDEST ISZERO PUSH2 0x1A2 JUMPI PUSH2 0x196 SWAP1 PUSH2 0x39A JUMP JUMPDEST PUSH1 0x80 SHL OR SWAP1 JUMPDEST MLOAD SWAP1 DUP2 MSTORE RETURN JUMPDEST PUSH2 0x1AB SWAP1 PUSH2 0x39A JUMP JUMPDEST SWAP1 PUSH1 0x80 SHL OR SWAP1 PUSH2 0x19C JUMP JUMPDEST PUSH2 0x1D5 SWAP1 DUP6 RETURNDATASIZE DUP8 GT PUSH2 0x1DC JUMPI JUMPDEST PUSH2 0x1CD DUP2 DUP4 PUSH2 0x34A JUMP JUMPDEST DUP2 ADD SWAP1 PUSH2 0x382 JUMP JUMPDEST POP CODESIZE PUSH2 0x17F JUMP JUMPDEST POP RETURNDATASIZE PUSH2 0x1C3 JUMP JUMPDEST DUP6 MLOAD SWAP1 RETURNDATASIZE SWAP1 DUP3 RETURNDATACOPY RETURNDATASIZE SWAP1 REVERT JUMPDEST PUSH2 0x204 SWAP1 DUP4 RETURNDATASIZE DUP6 GT PUSH2 0x1DC JUMPI PUSH2 0x1CD DUP2 DUP4 PUSH2 0x34A JUMP JUMPDEST POP CODESIZE PUSH2 0x151 JUMP JUMPDEST DUP7 MLOAD RETURNDATASIZE DUP6 DUP3 RETURNDATACOPY RETURNDATASIZE SWAP1 REVERT JUMPDEST PUSH4 0x4E487B71 PUSH1 0xE0 SHL DUP4 MSTORE PUSH1 0x11 PUSH1 0x4 MSTORE PUSH1 0x24 DUP4 REVERT JUMPDEST DUP3 PUSH2 0x232 PUSH2 0x325 JUMP JUMPDEST AND DUP4 PUSH2 0x23C PUSH2 0x30F JUMP JUMPDEST AND SWAP2 PUSH2 0xDE JUMP JUMPDEST POP DUP1 REVERT JUMPDEST DUP4 DUP1 REVERT JUMPDEST DUP3 DUP1 REVERT JUMPDEST POP CALLVALUE PUSH2 0x243 JUMPI DUP1 PUSH1 0x3 NOT CALLDATASIZE ADD SLT PUSH2 0x243 JUMPI DUP1 PUSH1 0x20 SWAP3 PUSH2 0x26C PUSH2 0x2DE JUMP JUMPDEST PUSH2 0x274 PUSH2 0x2F9 JUMP JUMPDEST PUSH1 0x1 PUSH1 0x1 PUSH1 0xA0 SHL SUB SWAP2 DUP3 AND DUP4 MSTORE DUP3 DUP7 MSTORE DUP4 DUP4 KECCAK256 SWAP2 AND DUP3 MSTORE DUP5 MSTORE KECCAK256 SLOAD SWAP1 MLOAD SWAP1 DUP2 MSTORE RETURN JUMPDEST POP CALLVALUE PUSH2 0x243 JUMPI PUSH1 0x60 CALLDATASIZE PUSH1 0x3 NOT ADD SLT PUSH2 0x243 JUMPI PUSH2 0x2B0 PUSH2 0x2DE JUMP JUMPDEST PUSH2 0x2B8 PUSH2 0x2F9 JUMP JUMPDEST PUSH1 0x1 PUSH1 0x1 PUSH1 0xA0 SHL SUB SWAP2 DUP3 AND DUP5 MSTORE PUSH1 0x20 DUP5 DUP2 MSTORE DUP4 DUP6 KECCAK256 SWAP3 SWAP1 SWAP2 AND DUP5 MSTORE MSTORE DUP2 KECCAK256 PUSH1 0x44 CALLDATALOAD SWAP1 SSTORE DUP1 RETURN JUMPDEST PUSH1 0x4 CALLDATALOAD SWAP1 PUSH1 0x1 PUSH1 0x1 PUSH1 0xA0 SHL SUB DUP3 AND DUP3 SUB PUSH2 0x2F4 JUMPI JUMP JUMPDEST PUSH1 0x0 DUP1 REVERT JUMPDEST PUSH1 0x24 CALLDATALOAD SWAP1 PUSH1 0x1 PUSH1 0x1 PUSH1 0xA0 SHL SUB DUP3 AND DUP3 SUB PUSH2 0x2F4 JUMPI JUMP JUMPDEST PUSH1 0x4 CALLDATALOAD PUSH1 0x1 PUSH1 0x1 PUSH1 0xA0 SHL SUB DUP2 AND DUP2 SUB PUSH2 0x2F4 JUMPI SWAP1 JUMP JUMPDEST PUSH1 0x24 CALLDATALOAD PUSH1 0x1 PUSH1 0x1 PUSH1 0xA0 SHL SUB DUP2 AND DUP2 SUB PUSH2 0x2F4 JUMPI SWAP1 JUMP JUMPDEST PUSH1 0xA4 CALLDATALOAD DUP1 ISZERO ISZERO DUP2 SUB PUSH2 0x2F4 JUMPI SWAP1 JUMP JUMPDEST SWAP1 PUSH1 0x1F DUP1 NOT SWAP2 ADD AND DUP2 ADD SWAP1 DUP2 LT PUSH8 0xFFFFFFFFFFFFFFFF DUP3 GT OR PUSH2 0x36C JUMPI PUSH1 0x40 MSTORE JUMP JUMPDEST PUSH4 0x4E487B71 PUSH1 0xE0 SHL PUSH1 0x0 MSTORE PUSH1 0x41 PUSH1 0x4 MSTORE PUSH1 0x24 PUSH1 0x0 REVERT JUMPDEST SWAP1 DUP2 PUSH1 0x20 SWAP2 SUB SLT PUSH2 0x2F4 JUMPI MLOAD DUP1 ISZERO ISZERO DUP2 SUB PUSH2 0x2F4 JUMPI SWAP1 JUMP JUMPDEST PUSH1 0x1 PUSH1 0xFF SHL DUP2 EQ PUSH2 0x3AB JUMPI PUSH1 0x0 SUB SWAP1 JUMP JUMPDEST PUSH4 0x4E487B71 PUSH1 0xE0 SHL PUSH1 0x0 MSTORE PUSH1 0x11 PUSH1 0x4 MSTORE PUSH1 0x24 PUSH1 0x0 REVERT INVALID LOG2 PUSH5 0x6970667358 0x22 SLT KECCAK256 0x27 0xB3 0xCB RETURN 0xC3 SAR TLOAD 0x22 SWAP8 XOR 0xE0 PUSH2 0x8868 EXTCODESIZE DELEGATECALL 0xC4 0xD0 SHL CALLDATASIZE 0xE9 PUSH28 0x54319FC517AD1D6382B464736F6C6343000818003300000000000000 "},"methodIdentifiers":{"mockRates(address,address)":"5bb286f6","setMockRate(address,address,uint256)":"2a246889","swap((address,address,uint24,int24,address),(bool,int256,uint160),bytes)":"f3cd914c"}}}}}