{"contracts/MockUniswapV2Router.sol":{"MockUniswapV2Router":{"abi":[{"inputs":[{"internalType":"address","name":"_usdcAddress","type":"address"}],"stateMutability":"nonpayable","type":"constructor"},{"inputs":[{"internalType":"uint256","name":"amountIn","type":"uint256"},{"internalType":"uint256","name":"","type":"uint256"},{"internalType":"address[]","name":"path","type":"address[]"},{"internalType":"address","name":"to","type":"address"},{"internalType":"uint256","name":"","type":"uint256"}],"name":"swapExactTokensForTokens","outputs":[{"internalType":"uint256[]","name":"amounts","type":"uint256[]"}],"stateMutability":"nonpayable","type":"function"},{"inputs":[],"name":"usdcAddress","outputs":[{"internalType":"address","name":"","type":"address"}],"stateMutability":"view","type":"function"}],"evm":{"bytecode":{"linkReferences":{},"object":"60a03461007157601f61040338819003918201601f19168301916001600160401b038311848410176100765780849260209460405283398101031261007157516001600160a01b038116810361007157608052604051610376908161008d823960805181818161011801526102bc0152f35b600080fd5b634e487b7160e01b600052604160045260246000fdfe608060408181526004918236101561001657600080fd5b600090813560e01c90816302d45457146102a857506338ed17391461003a57600080fd5b346102a55760a03660031901126102a55782356044359167ffffffffffffffff918284116102a157366023850112156102a1578386013583811161029d5760249436868360051b83010111610299576001600160a01b0391606435838116929190839003610295576002810361026257156102505786013582811680910361024c5790849392918851906323b872dd60e01b8252338b8301523089830152846044830152816064816020998a945af180156102425790869291610225575b5060448a868b51958694859363a9059cbb60e01b8552840152878c8401527f0000000000000000000000000000000000000000000000000000000000000000165af1801561021b576101ee575b5085519360608501908111858210176101dc5786526002845282840194863687378451156101cb57818652845197600198600110156101ba575050858401528451828152925183830181905283860194879390925b8281106101a75785870386f35b835187529581019592810192840161019a565b634e487b7160e01b84526032905282fd5b634e487b7160e01b83526032885282fd5b634e487b7160e01b8352604188528583fd5b61020d90843d8611610214575b61020581836102eb565b810190610323565b5038610145565b503d6101fb565b87513d85823e3d90fd5b61023b90833d85116102145761020581836102eb565b50386100f8565b89513d87823e3d90fd5b8480fd5b634e487b7160e01b8552603289528685fd5b885162461bcd60e51b81526020818c0152600e818a01526d2830ba341036bab9ba103132901960911b6044820152606490fd5b8580fd5b8380fd5b8280fd5b5080fd5b80fd5b9050346102a157816003193601126102a1577f00000000000000000000000000000000000000000000000000000000000000006001600160a01b03168152602090f35b90601f8019910116810190811067ffffffffffffffff82111761030d57604052565b634e487b7160e01b600052604160045260246000fd5b9081602091031261033b5751801515810361033b5790565b600080fdfea26469706673582212202fe60ec3f2495bdbba57a554524e2f3d1531c162b991939b6b834becae7b99f964736f6c63430008180033","opcodes":"PUSH1 0xA0 CALLVALUE PUSH2 0x71 JUMPI PUSH1 0x1F PUSH2 0x403 CODESIZE DUP2 SWAP1 SUB SWAP2 DUP3 ADD PUSH1 0x1F NOT AND DUP4 ADD SWAP2 PUSH1 0x1 PUSH1 0x1 PUSH1 0x40 SHL SUB DUP4 GT DUP5 DUP5 LT OR PUSH2 0x76 JUMPI DUP1 DUP5 SWAP3 PUSH1 0x20 SWAP5 PUSH1 0x40 MSTORE DUP4 CODECOPY DUP2 ADD SUB SLT PUSH2 0x71 JUMPI MLOAD PUSH1 0x1 PUSH1 0x1 PUSH1 0xA0 SHL SUB DUP2 AND DUP2 SUB PUSH2 0x71 JUMPI PUSH1 0x80 MSTORE PUSH1 0x40 MLOAD PUSH2 0x376 SWAP1 DUP2 PUSH2 0x8D DUP3 CODECOPY PUSH1 0x80 MLOAD DUP2 DUP2 DUP2 PUSH2 0x118 ADD MSTORE PUSH2 0x2BC ADD MSTORE RETURN JUMPDEST PUSH1 0x0 DUP1 REVERT JUMPDEST PUSH4 0x4E487B71 PUSH1 0xE0 SHL PUSH1 0x0 MSTORE PUSH1 0x41 PUSH1 0x4 MSTORE PUSH1 0x24 PUSH1 0x0 REVERT INVALID PUSH1 0x80 PUSH1 0x40 DUP2 DUP2 MSTORE PUSH1 0x4 SWAP2 DUP3 CALLDATASIZE LT ISZERO PUSH2 0x16 JUMPI PUSH1 0x0 DUP1 REVERT JUMPDEST PUSH1 0x0 SWAP1 DUP2 CALLDATALOAD PUSH1 0xE0 SHR SWAP1 DUP2 PUSH4 0x2D45457 EQ PUSH2 0x2A8 JUMPI POP PUSH4 0x38ED1739 EQ PUSH2 0x3A JUMPI PUSH1 0x0 DUP1 REVERT JUMPDEST CALLVALUE PUSH2 0x2A5 JUMPI PUSH1 0xA0 CALLDATASIZE PUSH1 0x3 NOT ADD SLT PUSH2 0x2A5 JUMPI DUP3 CALLDATALOAD PUSH1 0x44 CALLDATALOAD SWAP2 PUSH8 0xFFFFFFFFFFFFFFFF SWAP2 DUP3 DUP5 GT PUSH2 0x2A1 JUMPI CALLDATASIZE PUSH1 0x23 DUP6 ADD SLT ISZERO PUSH2 0x2A1 JUMPI DUP4 DUP7 ADD CALLDATALOAD DUP4 DUP2 GT PUSH2 0x29D JUMPI PUSH1 0x24 SWAP5 CALLDATASIZE DUP7 DUP4 PUSH1 0x5 SHL DUP4 ADD ADD GT PUSH2 0x299 JUMPI PUSH1 0x1 PUSH1 0x1 PUSH1 0xA0 SHL SUB SWAP2 PUSH1 0x64 CALLDATALOAD DUP4 DUP2 AND SWAP3 SWAP2 SWAP1 DUP4 SWAP1 SUB PUSH2 0x295 JUMPI PUSH1 0x2 DUP2 SUB PUSH2 0x262 JUMPI ISZERO PUSH2 0x250 JUMPI DUP7 ADD CALLDATALOAD DUP3 DUP2 AND DUP1 SWAP2 SUB PUSH2 0x24C JUMPI SWAP1 DUP5 SWAP4 SWAP3 SWAP2 DUP9 MLOAD SWAP1 PUSH4 0x23B872DD PUSH1 0xE0 SHL DUP3 MSTORE CALLER DUP12 DUP4 ADD MSTORE ADDRESS DUP10 DUP4 ADD MSTORE DUP5 PUSH1 0x44 DUP4 ADD MSTORE DUP2 PUSH1 0x64 DUP2 PUSH1 0x20 SWAP10 DUP11 SWAP5 GAS CALL DUP1 ISZERO PUSH2 0x242 JUMPI SWAP1 DUP7 SWAP3 SWAP2 PUSH2 0x225 JUMPI JUMPDEST POP PUSH1 0x44 DUP11 DUP7 DUP12 MLOAD SWAP6 DUP7 SWAP5 DUP6 SWAP4 PUSH4 0xA9059CBB PUSH1 0xE0 SHL DUP6 MSTORE DUP5 ADD MSTORE DUP8 DUP13 DUP5 ADD MSTORE PUSH32 0x0 AND GAS CALL DUP1 ISZERO PUSH2 0x21B JUMPI PUSH2 0x1EE JUMPI JUMPDEST POP DUP6 MLOAD SWAP4 PUSH1 0x60 DUP6 ADD SWAP1 DUP2 GT DUP6 DUP3 LT OR PUSH2 0x1DC JUMPI DUP7 MSTORE PUSH1 0x2 DUP5 MSTORE DUP3 DUP5 ADD SWAP5 DUP7 CALLDATASIZE DUP8 CALLDATACOPY DUP5 MLOAD ISZERO PUSH2 0x1CB JUMPI DUP2 DUP7 MSTORE DUP5 MLOAD SWAP8 PUSH1 0x1 SWAP9 PUSH1 0x1 LT ISZERO PUSH2 0x1BA JUMPI POP POP DUP6 DUP5 ADD MSTORE DUP5 MLOAD DUP3 DUP2 MSTORE SWAP3 MLOAD DUP4 DUP4 ADD DUP2 SWAP1 MSTORE DUP4 DUP7 ADD SWAP5 DUP8 SWAP4 SWAP1 SWAP3 JUMPDEST DUP3 DUP2 LT PUSH2 0x1A7 JUMPI DUP6 DUP8 SUB DUP7 RETURN JUMPDEST DUP4 MLOAD DUP8 MSTORE SWAP6 DUP2 ADD SWAP6 SWAP3 DUP2 ADD SWAP3 DUP5 ADD PUSH2 0x19A JUMP JUMPDEST PUSH4 0x4E487B71 PUSH1 0xE0 SHL DUP5 MSTORE PUSH1 0x32 SWAP1 MSTORE DUP3 REVERT JUMPDEST PUSH4 0x4E487B71 PUSH1 0xE0 SHL DUP4 MSTORE PUSH1 0x32 DUP9 MSTORE DUP3 REVERT JUMPDEST PUSH4 0x4E487B71 PUSH1 0xE0 SHL DUP4 MSTORE PUSH1 0x41 DUP9 MSTORE DUP6 DUP4 REVERT JUMPDEST PUSH2 0x20D SWAP1 DUP5 RETURNDATASIZE DUP7 GT PUSH2 0x214 JUMPI JUMPDEST PUSH2 0x205 DUP2 DUP4 PUSH2 0x2EB JUMP JUMPDEST DUP2 ADD SWAP1 PUSH2 0x323 JUMP JUMPDEST POP CODESIZE PUSH2 0x145 JUMP JUMPDEST POP RETURNDATASIZE PUSH2 0x1FB JUMP JUMPDEST DUP8 MLOAD RETURNDATASIZE DUP6 DUP3 RETURNDATACOPY RETURNDATASIZE SWAP1 REVERT JUMPDEST PUSH2 0x23B SWAP1 DUP4 RETURNDATASIZE DUP6 GT PUSH2 0x214 JUMPI PUSH2 0x205 DUP2 DUP4 PUSH2 0x2EB JUMP JUMPDEST POP CODESIZE PUSH2 0xF8 JUMP JUMPDEST DUP10 MLOAD RETURNDATASIZE DUP8 DUP3 RETURNDATACOPY RETURNDATASIZE SWAP1 REVERT JUMPDEST DUP5 DUP1 REVERT JUMPDEST PUSH4 0x4E487B71 PUSH1 0xE0 SHL DUP6 MSTORE PUSH1 0x32 DUP10 MSTORE DUP7 DUP6 REVERT JUMPDEST DUP9 MLOAD PUSH3 0x461BCD PUSH1 0xE5 SHL DUP2 MSTORE PUSH1 0x20 DUP2 DUP13 ADD MSTORE PUSH1 0xE DUP2 DUP11 ADD MSTORE PUSH14 0x2830BA341036BAB9BA1031329019 PUSH1 0x91 SHL PUSH1 0x44 DUP3 ADD MSTORE PUSH1 0x64 SWAP1 REVERT JUMPDEST DUP6 DUP1 REVERT JUMPDEST DUP4 DUP1 REVERT JUMPDEST DUP3 DUP1 REVERT JUMPDEST POP DUP1 REVERT JUMPDEST DUP1 REVERT JUMPDEST SWAP1 POP CALLVALUE PUSH2 0x2A1 JUMPI DUP2 PUSH1 0x3 NOT CALLDATASIZE ADD SLT PUSH2 0x2A1 JUMPI PUSH32 0x0 PUSH1 0x1 PUSH1 0x1 PUSH1 0xA0 SHL SUB AND DUP2 MSTORE PUSH1 0x20 SWAP1 RETURN JUMPDEST SWAP1 PUSH1 0x1F DUP1 NOT SWAP2 ADD AND DUP2 ADD SWAP1 DUP2 LT PUSH8 0xFFFFFFFFFFFFFFFF DUP3 GT OR PUSH2 0x30D JUMPI PUSH1 0x40 MSTORE JUMP JUMPDEST PUSH4 0x4E487B71 PUSH1 0xE0 SHL PUSH1 0x0 MSTORE PUSH1 0x41 PUSH1 0x4 MSTORE PUSH1 0x24 PUSH1 0x0 REVERT JUMPDEST SWAP1 DUP2 PUSH1 0x20 SWAP2 SUB SLT PUSH2 0x33B JUMPI MLOAD DUP1 ISZERO ISZERO DUP2 SUB PUSH2 0x33B JUMPI SWAP1 JUMP JUMPDEST PUSH1 0x0 DUP1 REVERT INVALID LOG2 PUSH5 0x6970667358 0x22 SLT KECCAK256 0x2F 0xE6 0xE 0xC3 CALLCODE BLOBHASH JUMPDEST 0xDB 0xBA JUMPI 0xA5 SLOAD MSTORE 0x4E 0x2F RETURNDATASIZE ISZERO BALANCE 0xC1 PUSH3 0xB99193 SWAP12 PUSH12 0x834BECAE7B99F964736F6C63 NUMBER STOP ADDMOD XOR STOP CALLER "},"methodIdentifiers":{"swapExactTokensForTokens(uint256,uint256,address[],address,uint256)":"38ed1739","usdcAddress()":"02d45457"}}}}}