{"contracts/NoahV4.sol":{"NoahV4":{"abi":[{"inputs":[{"internalType":"contract IPoolManager","name":"_poolManager","type":"address"},{"internalType":"address","name":"_usdc","type":"address"},{"internalType":"address","name":"_hook","type":"address"}],"stateMutability":"nonpayable","type":"constructor"},{"inputs":[{"internalType":"address","name":"token","type":"address"}],"name":"SafeERC20FailedOperation","type":"error"},{"anonymous":false,"inputs":[{"indexed":true,"internalType":"address","name":"user","type":"address"},{"indexed":true,"internalType":"address","name":"beneficiary","type":"address"},{"indexed":false,"internalType":"uint256","name":"deadline","type":"uint256"}],"name":"ArkBuilt","type":"event"},{"anonymous":false,"inputs":[{"indexed":true,"internalType":"address","name":"user","type":"address"},{"indexed":false,"internalType":"uint256","name":"newDeadline","type":"uint256"}],"name":"ArkPinged","type":"event"},{"anonymous":false,"inputs":[{"indexed":true,"internalType":"address","name":"user","type":"address"},{"indexed":false,"internalType":"uint256","name":"newDuration","type":"uint256"},{"indexed":false,"internalType":"uint256","name":"newDeadline","type":"uint256"}],"name":"DeadlineUpdated","type":"event"},{"anonymous":false,"inputs":[{"indexed":true,"internalType":"address","name":"user","type":"address"},{"indexed":true,"internalType":"address","name":"beneficiary","type":"address"},{"indexed":false,"internalType":"uint256","name":"usdcAmount","type":"uint256"}],"name":"FloodTriggered","type":"event"},{"anonymous":false,"inputs":[{"indexed":true,"internalType":"address","name":"user","type":"address"},{"indexed":false,"internalType":"address","name":"passenger","type":"address"}],"name":"PassengerRemoved","type":"event"},{"anonymous":false,"inputs":[{"indexed":true,"internalType":"address","name":"user","type":"address"},{"indexed":false,"internalType":"address[]","name":"newPassengers","type":"address[]"}],"name":"PassengersAdded","type":"event"},{"inputs":[{"internalType":"address[]","name":"_newPassengers","type":"address[]"}],"name":"addPassengers","outputs":[],"stateMutability":"nonpayable","type":"function"},{"inputs":[{"internalType":"address","name":"","type":"address"}],"name":"arks","outputs":[{"internalType":"address","name":"beneficiary","type":"address"},{"internalType":"uint256","name":"deadline","type":"uint256"},{"internalType":"uint256","name":"deadlineDuration","type":"uint256"}],"stateMutability":"view","type":"function"},{"inputs":[{"internalType":"address","name":"_beneficiary","type":"address"},{"internalType":"uint256","name":"_deadlineDuration","type":"uint256"},{"internalType":"address[]","name":"_tokens","type":"address[]"}],"name":"buildArk","outputs":[],"stateMutability":"nonpayable","type":"function"},{"inputs":[{"internalType":"address","name":"_user","type":"address"}],"name":"flood","outputs":[],"stateMutability":"nonpayable","type":"function"},{"inputs":[{"internalType":"address","name":"user","type":"address"}],"name":"getArk","outputs":[{"internalType":"address","name":"beneficiary","type":"address"},{"internalType":"uint256","name":"deadline","type":"uint256"},{"internalType":"uint256","name":"deadlineDuration","type":"uint256"},{"internalType":"address[]","name":"tokens","type":"address[]"}],"stateMutability":"view","type":"function"},{"inputs":[],"name":"hookAddress","outputs":[{"internalType":"address","name":"","type":"address"}],"stateMutability":"view","type":"function"},{"inputs":[],"name":"pingArk","outputs":[],"stateMutability":"nonpayable","type":"function"},{"inputs":[],"name":"poolManager","outputs":[{"internalType":"contract IPoolManager","name":"","type":"address"}],"stateMutability":"view","type":"function"},{"inputs":[{"internalType":"BalanceDelta","name":"delta","type":"int256"},{"internalType":"bytes","name":"data","type":"bytes"}],"name":"poolManagerSwapCallback","outputs":[{"internalType":"bytes","name":"","type":"bytes"}],"stateMutability":"nonpayable","type":"function"},{"inputs":[{"internalType":"address","name":"_passengerToRemove","type":"address"}],"name":"removePassenger","outputs":[],"stateMutability":"nonpayable","type":"function"},{"inputs":[{"internalType":"uint256","name":"_newDuration","type":"uint256"}],"name":"updateDeadlineDuration","outputs":[],"stateMutability":"nonpayable","type":"function"},{"inputs":[],"name":"usdcAddress","outputs":[{"internalType":"address","name":"","type":"address"}],"stateMutability":"view","type":"function"}],"evm":{"bytecode":{"linkReferences":{},"object":"60e0346100ce57601f6113d438819003918201601f19168301916001600160401b038311848410176100d3578084926060946040528339810103126100ce578051906001600160a01b03821682036100ce576100696040610062602084016100e9565b92016100e9565b9160805260a05260c0526040516112d690816100fe82396080518181816102d4015281816104a9015281816106b70152610a79015260a0518181816102080152818161034601528181610b630152611095015260c0518181816103850152610eed0152f35b600080fd5b634e487b7160e01b600052604160045260246000fd5b51906001600160a01b03821682036100ce5756fe608080604052600436101561001357600080fd5b60003560e01c90816302d45457146110825750806305688c1c14610fa55780630fe23da914610f1c57806332a3cf9614610ed7578063454d58d214610d8d5780637900001314610c4d57806388b2187214610bf9578063afa9862a14610a23578063b1ad599d146106e6578063dc4c90d3146106a1578063f2511bb11461018e5763fabb6a38146100a357600080fd5b3461018957602080600319360112610189576004359033600052600081526100d460016040600020015415156111da565b811561013a573360005260008152816002604060002001556100f682426111cd565b903360005260008152816001604060002001556040519283528201527f270517e45d27f999faef5e16a3159117c83577723363227c5901cb52e315d86860403392a2005b6084906040519062461bcd60e51b82526004820152602260248201527f4475726174696f6e206d7573742062652067726561746572207468616e207a65604482015261726f60f01b6064820152fd5b600080fd5b34610189576020366003190112610189576001600160a01b036101af6110c4565b1680600052600060205260406000209060018201546101cf811515611181565b421061065c576000805b600384015481101561061a576101f28160038601611216565b90546001600160a01b0360039290921b1c8116907f0000000000000000000000000000000000000000000000000000000000000000168114610611576040516370a0823160e01b815260048101859052602081602481855afa908115610585576000916105df575b508061026d575b50506001905b016101d9565b6040516323b872dd60e01b6020820152856024820152306044820152816064820152606481528060a081011067ffffffffffffffff60a083011117610591578060a06102bd920160405283611244565b60405163095ea7b360e01b81526001600160a01b037f0000000000000000000000000000000000000000000000000000000000000000166004820152602481018290526020816044816000875af18015610585576105a7575b50604051918260a081011067ffffffffffffffff60a0850111176105915760a08301604052825260018060a01b037f0000000000000000000000000000000000000000000000000000000000000000166020830152610bb86040830152606091603c8382015260018060a01b037f000000000000000000000000000000000000000000000000000000000000000016608082015260405191828481011067ffffffffffffffff8585011117610591578383016040526001835260208301526000604083015260018060a01b03875416926040519360208501526020845283604081011067ffffffffffffffff604086011117610591576040848101808252633cf3645360e21b815283516001600160a01b039081166044880152602080860151821660648901528584015162ffffff1660848901529385015160020b60a4880152608090940151841660c48701528451151560e48701528483015161010487015293015190911661012484015261012061014484015290603f198361049f61016482018261111f565b03016040840160007f00000000000000000000000000000000000000000000000000000000000000006001600160a01b03165af19081156105855760009161054d575b50600f908060801d600092600083820b136000146105285750506001600160801b039150165b80610514575b80610261565b61052190600192936111cd565b919061050e565b819250906000910b1361053c575b50610508565b6001600160801b0391501685610536565b90506020813d60201161057d575b8161056b6020936040840161115f565b810103126101895760400151856104e2565b3d915061055b565b6040513d6000823e3d90fd5b634e487b7160e01b600052604160045260246000fd5b6020813d6020116105d7575b816105c06020938361115f565b810103126101895751801515036101895786610316565b3d91506105b3565b90506020813d602011610609575b816105fa6020938361115f565b8101031261018957518661025a565b3d91506105ed565b50600190610267565b506000600184015591546040519283526001600160a01b0316917fde3f14ce4426137f4576388d16723795d5bf5e2f00597e0e8d63816a7342a1e190602090a3005b60405162461bcd60e51b815260206004820152601760248201527f446561646c696e6520686173206e6f74207061737365640000000000000000006044820152606490fd5b34610189576000366003190112610189576040517f00000000000000000000000000000000000000000000000000000000000000006001600160a01b03168152602090f35b34610189576060366003190112610189576106ff6110c4565b60249060443567ffffffffffffffff8111610189576107229036906004016110ee565b9190923360005260006020526001604060002001546109df576001600160a01b0382161561098c578035156109345761075c8135426111cd565b604051906080820182811067ffffffffffffffff82111761091f5760409081526001600160a01b03851683526020830191825283359083019081529067ffffffffffffffff861161091f578560051b96604051966107bd60208a018961115f565b8752602087019781019036821161018957975b81891061090757505090829160606003940196875233600052600060205260406000209260018060a01b039051166bffffffffffffffffffffffff60a01b84541617835551600183015551600282015501925180519067ffffffffffffffff82116108f257600160401b82116108f25784548286558083106108c9575b5060200193600052602060002060005b8281106108ac57846108708535426111cd565b6040519081526001600160a01b039091169033907fd4c9fb4a0298b2717518a542bd4801ce0cb35fd35087636887f9e87ad8d75a3f90602090a3005b85516001600160a01b03168183015560209095019460010161085d565b8560005282602060002091820191015b8181106108e6575061084d565b600081556001016108d9565b82634e487b7160e01b60005260416004526000fd5b602080916109148b6110da565b8152019801976107d0565b83634e487b7160e01b60005260416004526000fd5b608490602b6040519162461bcd60e51b8352602060048401528201527f446561646c696e65206475726174696f6e206d7573742062652067726561746560448201526a72207468616e207a65726f60a81b6064820152fd5b60849060266040519162461bcd60e51b8352602060048401528201527f42656e65666963696172792063616e6e6f7420626520746865207a65726f206160448201526564647265737360d01b6064820152fd5b606490601b6040519162461bcd60e51b8352602060048401528201527f4163636f756e7420616c726561647920696e697469616c697a656400000000006044820152fd5b3461018957604036600319011261018957602467ffffffffffffffff81356004358282116101895736602383011215610189578160040135838111610189578201913685840111610189576001600160a01b03927f000000000000000000000000000000000000000000000000000000000000000084163303610bb5578160209103126101895784013591808316809303610189578160801d91600092600082600f0b13600014610b9057506001600160801b031691505b81610b1b575b5050604051916020830191508111828210176108f257610b1792506040526000815260405191829160208352602083019061111f565b0390f35b6040805163a9059cbb60e01b6020808301919091526001600160a01b0390951687820190815294850193909352610b8893610b619184910103601f19810184528361115f565b7f000000000000000000000000000000000000000000000000000000000000000016611244565b828080610ae1565b9050600081600f0b13610ba4575b50610adb565b6001600160801b0316915085610b9e565b60405162461bcd60e51b815260206004820152601e818801527f4f6e6c7920506f6f6c4d616e616765722063616e2063616c6c207468697300006044820152606490fd5b346101895760203660031901126101895760606001600160a01b0380610c1d6110c4565b16600052600060205260406000209081541690600260018201549101549060405192835260208301526040820152f35b34610189576020806003193601126101895760043567ffffffffffffffff811161018957610c7f9036906004016110ee565b909133600052600081526001610c9e60016040600020015415156111da565b60005b838110610d16575060405192808385018486525260408401949260005b828110610cee57337fb90857f670e2787419d97e8ad1483239915b735fecc028adf074ef41c09d602c87890388a2005b909192828082969860018060a01b03610d068b6110da565b1681520197019493929101610cbe565b336000908152808452604090209293919260030190600581901b8601356001600160a01b038116810361018957825490600160401b82101561059157610d6582879586610d8395018155611216565b90919060018060a01b038084549260031b9316831b921b1916179055565b0192919092610ca1565b3461018957602036600319011261018957610da66110c4565b336000526000602052600190610dc560016040600020015415156111da565b3360005260006020528160038060406000200160009360018060a01b03809116955b610e1b575b856040519081527f08eac65c9901be8390f0cf78f2ca8d86e706341713377dca39b0472fc07cdd0560203392a2005b815480861015610ed1578682610e318886611216565b905490871b1c1614610e4857508380950194610de7565b92949193509160001991828201918211610ebb57610d6584610e6d610e7b9488611216565b905490891b1c169186611216565b82548015610ea5570192610e8f8484611216565b81939154921b1b19169055558180808080610dec565b634e487b7160e01b600052603160045260246000fd5b634e487b7160e01b600052601160045260246000fd5b50610dec565b34610189576000366003190112610189576040517f00000000000000000000000000000000000000000000000000000000000000006001600160a01b03168152602090f35b3461018957600036600319011261018957336000526000602052610f496001604060002001541515611181565b336000526000602052610f64600260406000200154426111cd565b336000526000602052806001604060002001556040519081527ff1a463082eff5f74a481d3abd6fc308d976449c50289c0564e946069cb7d880560203392a2005b3461018957602080600319360112610189576001600160a01b039081610fc96110c4565b166000526000815260406000209180835416906001916001850154936003600287015496019560405190818389549182815201908199600052846000209060005b81811061106d575050508261102091038361115f565b6040519660808801948852838801526040870152608060608701525180925260a0850195926000905b8382106110565786880387f35b845181168852968201969382019390850190611049565b8254891684529286019291890191890161100a565b34610189576000366003190112610189577f00000000000000000000000000000000000000000000000000000000000000006001600160a01b03168152602090f35b600435906001600160a01b038216820361018957565b35906001600160a01b038216820361018957565b9181601f840112156101895782359167ffffffffffffffff8311610189576020808501948460051b01011161018957565b919082519283825260005b84811061114b575050826000602080949584010152601f8019910116010190565b60208183018101518483018201520161112a565b90601f8019910116810190811067ffffffffffffffff82111761059157604052565b1561118857565b60405162461bcd60e51b815260206004820152601760248201527f4163636f756e74206e6f7420696e697469616c697a65640000000000000000006044820152606490fd5b91908201809211610ebb57565b156111e157565b60405162461bcd60e51b815260206004820152600d60248201526c105c9ac81b9bdd08189d5a5b1d609a1b6044820152606490fd5b805482101561122e5760005260206000200190600090565b634e487b7160e01b600052603260045260246000fd5b906000602091828151910182855af115610585576000513d61129757506001600160a01b0381163b155b6112755750565b604051635274afe760e01b81526001600160a01b039091166004820152602490fd5b6001141561126e56fea2646970667358221220891aaba8129cbca0150651758355fb52273c1321612dc4de0eabf144cc40d50064736f6c63430008180033","opcodes":"PUSH1 0xE0 CALLVALUE PUSH2 0xCE JUMPI PUSH1 0x1F PUSH2 0x13D4 CODESIZE DUP2 SWAP1 SUB SWAP2 DUP3 ADD PUSH1 0x1F NOT AND DUP4 ADD SWAP2 PUSH1 0x1 PUSH1 0x1 PUSH1 0x40 SHL SUB DUP4 GT DUP5 DUP5 LT OR PUSH2 0xD3 JUMPI DUP1 DUP5 SWAP3 PUSH1 0x60 SWAP5 PUSH1 0x40 MSTORE DUP4 CODECOPY DUP2 ADD SUB SLT PUSH2 0xCE JUMPI DUP1 MLOAD SWAP1 PUSH1 0x1 PUSH1 0x1 PUSH1 0xA0 SHL SUB DUP3 AND DUP3 SUB PUSH2 0xCE JUMPI PUSH2 0x69 PUSH1 0x40 PUSH2 0x62 PUSH1 0x20 DUP5 ADD PUSH2 0xE9 JUMP JUMPDEST SWAP3 ADD PUSH2 0xE9 JUMP JUMPDEST SWAP2 PUSH1 0x80 MSTORE PUSH1 0xA0 MSTORE PUSH1 0xC0 MSTORE PUSH1 0x40 MLOAD PUSH2 0x12D6 SWAP1 DUP2 PUSH2 0xFE DUP3 CODECOPY PUSH1 0x80 MLOAD DUP2 DUP2 DUP2 PUSH2 0x2D4 ADD MSTORE DUP2 DUP2 PUSH2 0x4A9 ADD MSTORE DUP2 DUP2 PUSH2 0x6B7 ADD MSTORE PUSH2 0xA79 ADD MSTORE PUSH1 0xA0 MLOAD DUP2 DUP2 DUP2 PUSH2 0x208 ADD MSTORE DUP2 DUP2 PUSH2 0x346 ADD MSTORE DUP2 DUP2 PUSH2 0xB63 ADD MSTORE PUSH2 0x1095 ADD MSTORE PUSH1 0xC0 MLOAD DUP2 DUP2 DUP2 PUSH2 0x385 ADD MSTORE PUSH2 0xEED ADD MSTORE RETURN JUMPDEST PUSH1 0x0 DUP1 REVERT JUMPDEST PUSH4 0x4E487B71 PUSH1 0xE0 SHL PUSH1 0x0 MSTORE PUSH1 0x41 PUSH1 0x4 MSTORE PUSH1 0x24 PUSH1 0x0 REVERT JUMPDEST MLOAD SWAP1 PUSH1 0x1 PUSH1 0x1 PUSH1 0xA0 SHL SUB DUP3 AND DUP3 SUB PUSH2 0xCE JUMPI JUMP INVALID PUSH1 0x80 DUP1 PUSH1 0x40 MSTORE PUSH1 0x4 CALLDATASIZE LT ISZERO PUSH2 0x13 JUMPI PUSH1 0x0 DUP1 REVERT JUMPDEST PUSH1 0x0 CALLDATALOAD PUSH1 0xE0 SHR SWAP1 DUP2 PUSH4 0x2D45457 EQ PUSH2 0x1082 JUMPI POP DUP1 PUSH4 0x5688C1C EQ PUSH2 0xFA5 JUMPI DUP1 PUSH4 0xFE23DA9 EQ PUSH2 0xF1C JUMPI DUP1 PUSH4 0x32A3CF96 EQ PUSH2 0xED7 JUMPI DUP1 PUSH4 0x454D58D2 EQ PUSH2 0xD8D JUMPI DUP1 PUSH4 0x79000013 EQ PUSH2 0xC4D JUMPI DUP1 PUSH4 0x88B21872 EQ PUSH2 0xBF9 JUMPI DUP1 PUSH4 0xAFA9862A EQ PUSH2 0xA23 JUMPI DUP1 PUSH4 0xB1AD599D EQ PUSH2 0x6E6 JUMPI DUP1 PUSH4 0xDC4C90D3 EQ PUSH2 0x6A1 JUMPI DUP1 PUSH4 0xF2511BB1 EQ PUSH2 0x18E JUMPI PUSH4 0xFABB6A38 EQ PUSH2 0xA3 JUMPI PUSH1 0x0 DUP1 REVERT JUMPDEST CALLVALUE PUSH2 0x189 JUMPI PUSH1 0x20 DUP1 PUSH1 0x3 NOT CALLDATASIZE ADD SLT PUSH2 0x189 JUMPI PUSH1 0x4 CALLDATALOAD SWAP1 CALLER PUSH1 0x0 MSTORE PUSH1 0x0 DUP2 MSTORE PUSH2 0xD4 PUSH1 0x1 PUSH1 0x40 PUSH1 0x0 KECCAK256 ADD SLOAD ISZERO ISZERO PUSH2 0x11DA JUMP JUMPDEST DUP2 ISZERO PUSH2 0x13A JUMPI CALLER PUSH1 0x0 MSTORE PUSH1 0x0 DUP2 MSTORE DUP2 PUSH1 0x2 PUSH1 0x40 PUSH1 0x0 KECCAK256 ADD SSTORE PUSH2 0xF6 DUP3 TIMESTAMP PUSH2 0x11CD JUMP JUMPDEST SWAP1 CALLER PUSH1 0x0 MSTORE PUSH1 0x0 DUP2 MSTORE DUP2 PUSH1 0x1 PUSH1 0x40 PUSH1 0x0 KECCAK256 ADD SSTORE PUSH1 0x40 MLOAD SWAP3 DUP4 MSTORE DUP3 ADD MSTORE PUSH32 0x270517E45D27F999FAEF5E16A3159117C83577723363227C5901CB52E315D868 PUSH1 0x40 CALLER SWAP3 LOG2 STOP JUMPDEST PUSH1 0x84 SWAP1 PUSH1 0x40 MLOAD SWAP1 PUSH3 0x461BCD PUSH1 0xE5 SHL DUP3 MSTORE PUSH1 0x4 DUP3 ADD MSTORE PUSH1 0x22 PUSH1 0x24 DUP3 ADD MSTORE PUSH32 0x4475726174696F6E206D7573742062652067726561746572207468616E207A65 PUSH1 0x44 DUP3 ADD MSTORE PUSH2 0x726F PUSH1 0xF0 SHL PUSH1 0x64 DUP3 ADD MSTORE REVERT JUMPDEST PUSH1 0x0 DUP1 REVERT JUMPDEST CALLVALUE PUSH2 0x189 JUMPI PUSH1 0x20 CALLDATASIZE PUSH1 0x3 NOT ADD SLT PUSH2 0x189 JUMPI PUSH1 0x1 PUSH1 0x1 PUSH1 0xA0 SHL SUB PUSH2 0x1AF PUSH2 0x10C4 JUMP JUMPDEST AND DUP1 PUSH1 0x0 MSTORE PUSH1 0x0 PUSH1 0x20 MSTORE PUSH1 0x40 PUSH1 0x0 KECCAK256 SWAP1 PUSH1 0x1 DUP3 ADD SLOAD PUSH2 0x1CF DUP2 ISZERO ISZERO PUSH2 0x1181 JUMP JUMPDEST TIMESTAMP LT PUSH2 0x65C JUMPI PUSH1 0x0 DUP1 JUMPDEST PUSH1 0x3 DUP5 ADD SLOAD DUP2 LT ISZERO PUSH2 0x61A JUMPI PUSH2 0x1F2 DUP2 PUSH1 0x3 DUP7 ADD PUSH2 0x1216 JUMP JUMPDEST SWAP1 SLOAD PUSH1 0x1 PUSH1 0x1 PUSH1 0xA0 SHL SUB PUSH1 0x3 SWAP3 SWAP1 SWAP3 SHL SHR DUP2 AND SWAP1 PUSH32 0x0 AND DUP2 EQ PUSH2 0x611 JUMPI PUSH1 0x40 MLOAD PUSH4 0x70A08231 PUSH1 0xE0 SHL DUP2 MSTORE PUSH1 0x4 DUP2 ADD DUP6 SWAP1 MSTORE PUSH1 0x20 DUP2 PUSH1 0x24 DUP2 DUP6 GAS STATICCALL SWAP1 DUP2 ISZERO PUSH2 0x585 JUMPI PUSH1 0x0 SWAP2 PUSH2 0x5DF JUMPI JUMPDEST POP DUP1 PUSH2 0x26D JUMPI JUMPDEST POP POP PUSH1 0x1 SWAP1 JUMPDEST ADD PUSH2 0x1D9 JUMP JUMPDEST PUSH1 0x40 MLOAD PUSH4 0x23B872DD PUSH1 0xE0 SHL PUSH1 0x20 DUP3 ADD MSTORE DUP6 PUSH1 0x24 DUP3 ADD MSTORE ADDRESS PUSH1 0x44 DUP3 ADD MSTORE DUP2 PUSH1 0x64 DUP3 ADD MSTORE PUSH1 0x64 DUP2 MSTORE DUP1 PUSH1 0xA0 DUP2 ADD LT PUSH8 0xFFFFFFFFFFFFFFFF PUSH1 0xA0 DUP4 ADD GT OR PUSH2 0x591 JUMPI DUP1 PUSH1 0xA0 PUSH2 0x2BD SWAP3 ADD PUSH1 0x40 MSTORE DUP4 PUSH2 0x1244 JUMP JUMPDEST PUSH1 0x40 MLOAD PUSH4 0x95EA7B3 PUSH1 0xE0 SHL DUP2 MSTORE PUSH1 0x1 PUSH1 0x1 PUSH1 0xA0 SHL SUB PUSH32 0x0 AND PUSH1 0x4 DUP3 ADD MSTORE PUSH1 0x24 DUP2 ADD DUP3 SWAP1 MSTORE PUSH1 0x20 DUP2 PUSH1 0x44 DUP2 PUSH1 0x0 DUP8 GAS CALL DUP1 ISZERO PUSH2 0x585 JUMPI PUSH2 0x5A7 JUMPI JUMPDEST POP PUSH1 0x40 MLOAD SWAP2 DUP3 PUSH1 0xA0 DUP2 ADD LT PUSH8 0xFFFFFFFFFFFFFFFF PUSH1 0xA0 DUP6 ADD GT OR PUSH2 0x591 JUMPI PUSH1 0xA0 DUP4 ADD PUSH1 0x40 MSTORE DUP3 MSTORE PUSH1 0x1 DUP1 PUSH1 0xA0 SHL SUB PUSH32 0x0 AND PUSH1 0x20 DUP4 ADD MSTORE PUSH2 0xBB8 PUSH1 0x40 DUP4 ADD MSTORE PUSH1 0x60 SWAP2 PUSH1 0x3C DUP4 DUP3 ADD MSTORE PUSH1 0x1 DUP1 PUSH1 0xA0 SHL SUB PUSH32 0x0 AND PUSH1 0x80 DUP3 ADD MSTORE PUSH1 0x40 MLOAD SWAP2 DUP3 DUP5 DUP2 ADD LT PUSH8 0xFFFFFFFFFFFFFFFF DUP6 DUP6 ADD GT OR PUSH2 0x591 JUMPI DUP4 DUP4 ADD PUSH1 0x40 MSTORE PUSH1 0x1 DUP4 MSTORE PUSH1 0x20 DUP4 ADD MSTORE PUSH1 0x0 PUSH1 0x40 DUP4 ADD MSTORE PUSH1 0x1 DUP1 PUSH1 0xA0 SHL SUB DUP8 SLOAD AND SWAP3 PUSH1 0x40 MLOAD SWAP4 PUSH1 0x20 DUP6 ADD MSTORE PUSH1 0x20 DUP5 MSTORE DUP4 PUSH1 0x40 DUP2 ADD LT PUSH8 0xFFFFFFFFFFFFFFFF PUSH1 0x40 DUP7 ADD GT OR PUSH2 0x591 JUMPI PUSH1 0x40 DUP5 DUP2 ADD DUP1 DUP3 MSTORE PUSH4 0x3CF36453 PUSH1 0xE2 SHL DUP2 MSTORE DUP4 MLOAD PUSH1 0x1 PUSH1 0x1 PUSH1 0xA0 SHL SUB SWAP1 DUP2 AND PUSH1 0x44 DUP9 ADD MSTORE PUSH1 0x20 DUP1 DUP7 ADD MLOAD DUP3 AND PUSH1 0x64 DUP10 ADD MSTORE DUP6 DUP5 ADD MLOAD PUSH3 0xFFFFFF AND PUSH1 0x84 DUP10 ADD MSTORE SWAP4 DUP6 ADD MLOAD PUSH1 0x2 SIGNEXTEND PUSH1 0xA4 DUP9 ADD MSTORE PUSH1 0x80 SWAP1 SWAP5 ADD MLOAD DUP5 AND PUSH1 0xC4 DUP8 ADD MSTORE DUP5 MLOAD ISZERO ISZERO PUSH1 0xE4 DUP8 ADD MSTORE DUP5 DUP4 ADD MLOAD PUSH2 0x104 DUP8 ADD MSTORE SWAP4 ADD MLOAD SWAP1 SWAP2 AND PUSH2 0x124 DUP5 ADD MSTORE PUSH2 0x120 PUSH2 0x144 DUP5 ADD MSTORE SWAP1 PUSH1 0x3F NOT DUP4 PUSH2 0x49F PUSH2 0x164 DUP3 ADD DUP3 PUSH2 0x111F JUMP JUMPDEST SUB ADD PUSH1 0x40 DUP5 ADD PUSH1 0x0 PUSH32 0x0 PUSH1 0x1 PUSH1 0x1 PUSH1 0xA0 SHL SUB AND GAS CALL SWAP1 DUP2 ISZERO PUSH2 0x585 JUMPI PUSH1 0x0 SWAP2 PUSH2 0x54D JUMPI JUMPDEST POP PUSH1 0xF SWAP1 DUP1 PUSH1 0x80 SAR PUSH1 0x0 SWAP3 PUSH1 0x0 DUP4 DUP3 SIGNEXTEND SGT PUSH1 0x0 EQ PUSH2 0x528 JUMPI POP POP PUSH1 0x1 PUSH1 0x1 PUSH1 0x80 SHL SUB SWAP2 POP AND JUMPDEST DUP1 PUSH2 0x514 JUMPI JUMPDEST DUP1 PUSH2 0x261 JUMP JUMPDEST PUSH2 0x521 SWAP1 PUSH1 0x1 SWAP3 SWAP4 PUSH2 0x11CD JUMP JUMPDEST SWAP2 SWAP1 PUSH2 0x50E JUMP JUMPDEST DUP2 SWAP3 POP SWAP1 PUSH1 0x0 SWAP2 SIGNEXTEND SGT PUSH2 0x53C JUMPI JUMPDEST POP PUSH2 0x508 JUMP JUMPDEST PUSH1 0x1 PUSH1 0x1 PUSH1 0x80 SHL SUB SWAP2 POP AND DUP6 PUSH2 0x536 JUMP JUMPDEST SWAP1 POP PUSH1 0x20 DUP2 RETURNDATASIZE PUSH1 0x20 GT PUSH2 0x57D JUMPI JUMPDEST DUP2 PUSH2 0x56B PUSH1 0x20 SWAP4 PUSH1 0x40 DUP5 ADD PUSH2 0x115F JUMP JUMPDEST DUP2 ADD SUB SLT PUSH2 0x189 JUMPI PUSH1 0x40 ADD MLOAD DUP6 PUSH2 0x4E2 JUMP JUMPDEST RETURNDATASIZE SWAP2 POP PUSH2 0x55B JUMP JUMPDEST PUSH1 0x40 MLOAD RETURNDATASIZE PUSH1 0x0 DUP3 RETURNDATACOPY RETURNDATASIZE SWAP1 REVERT JUMPDEST PUSH4 0x4E487B71 PUSH1 0xE0 SHL PUSH1 0x0 MSTORE PUSH1 0x41 PUSH1 0x4 MSTORE PUSH1 0x24 PUSH1 0x0 REVERT JUMPDEST PUSH1 0x20 DUP2 RETURNDATASIZE PUSH1 0x20 GT PUSH2 0x5D7 JUMPI JUMPDEST DUP2 PUSH2 0x5C0 PUSH1 0x20 SWAP4 DUP4 PUSH2 0x115F JUMP JUMPDEST DUP2 ADD SUB SLT PUSH2 0x189 JUMPI MLOAD DUP1 ISZERO ISZERO SUB PUSH2 0x189 JUMPI DUP7 PUSH2 0x316 JUMP JUMPDEST RETURNDATASIZE SWAP2 POP PUSH2 0x5B3 JUMP JUMPDEST SWAP1 POP PUSH1 0x20 DUP2 RETURNDATASIZE PUSH1 0x20 GT PUSH2 0x609 JUMPI JUMPDEST DUP2 PUSH2 0x5FA PUSH1 0x20 SWAP4 DUP4 PUSH2 0x115F JUMP JUMPDEST DUP2 ADD SUB SLT PUSH2 0x189 JUMPI MLOAD DUP7 PUSH2 0x25A JUMP JUMPDEST RETURNDATASIZE SWAP2 POP PUSH2 0x5ED JUMP JUMPDEST POP PUSH1 0x1 SWAP1 PUSH2 0x267 JUMP JUMPDEST POP PUSH1 0x0 PUSH1 0x1 DUP5 ADD SSTORE SWAP2 SLOAD PUSH1 0x40 MLOAD SWAP3 DUP4 MSTORE PUSH1 0x1 PUSH1 0x1 PUSH1 0xA0 SHL SUB AND SWAP2 PUSH32 0xDE3F14CE4426137F4576388D16723795D5BF5E2F00597E0E8D63816A7342A1E1 SWAP1 PUSH1 0x20 SWAP1 LOG3 STOP JUMPDEST PUSH1 0x40 MLOAD PUSH3 0x461BCD PUSH1 0xE5 SHL DUP2 MSTORE PUSH1 0x20 PUSH1 0x4 DUP3 ADD MSTORE PUSH1 0x17 PUSH1 0x24 DUP3 ADD MSTORE PUSH32 0x446561646C696E6520686173206E6F7420706173736564000000000000000000 PUSH1 0x44 DUP3 ADD MSTORE PUSH1 0x64 SWAP1 REVERT JUMPDEST CALLVALUE PUSH2 0x189 JUMPI PUSH1 0x0 CALLDATASIZE PUSH1 0x3 NOT ADD SLT PUSH2 0x189 JUMPI PUSH1 0x40 MLOAD PUSH32 0x0 PUSH1 0x1 PUSH1 0x1 PUSH1 0xA0 SHL SUB AND DUP2 MSTORE PUSH1 0x20 SWAP1 RETURN JUMPDEST CALLVALUE PUSH2 0x189 JUMPI PUSH1 0x60 CALLDATASIZE PUSH1 0x3 NOT ADD SLT PUSH2 0x189 JUMPI PUSH2 0x6FF PUSH2 0x10C4 JUMP JUMPDEST PUSH1 0x24 SWAP1 PUSH1 0x44 CALLDATALOAD PUSH8 0xFFFFFFFFFFFFFFFF DUP2 GT PUSH2 0x189 JUMPI PUSH2 0x722 SWAP1 CALLDATASIZE SWAP1 PUSH1 0x4 ADD PUSH2 0x10EE JUMP JUMPDEST SWAP2 SWAP1 SWAP3 CALLER PUSH1 0x0 MSTORE PUSH1 0x0 PUSH1 0x20 MSTORE PUSH1 0x1 PUSH1 0x40 PUSH1 0x0 KECCAK256 ADD SLOAD PUSH2 0x9DF JUMPI PUSH1 0x1 PUSH1 0x1 PUSH1 0xA0 SHL SUB DUP3 AND ISZERO PUSH2 0x98C JUMPI DUP1 CALLDATALOAD ISZERO PUSH2 0x934 JUMPI PUSH2 0x75C DUP2 CALLDATALOAD TIMESTAMP PUSH2 0x11CD JUMP JUMPDEST PUSH1 0x40 MLOAD SWAP1 PUSH1 0x80 DUP3 ADD DUP3 DUP2 LT PUSH8 0xFFFFFFFFFFFFFFFF DUP3 GT OR PUSH2 0x91F JUMPI PUSH1 0x40 SWAP1 DUP2 MSTORE PUSH1 0x1 PUSH1 0x1 PUSH1 0xA0 SHL SUB DUP6 AND DUP4 MSTORE PUSH1 0x20 DUP4 ADD SWAP2 DUP3 MSTORE DUP4 CALLDATALOAD SWAP1 DUP4 ADD SWAP1 DUP2 MSTORE SWAP1 PUSH8 0xFFFFFFFFFFFFFFFF DUP7 GT PUSH2 0x91F JUMPI DUP6 PUSH1 0x5 SHL SWAP7 PUSH1 0x40 MLOAD SWAP7 PUSH2 0x7BD PUSH1 0x20 DUP11 ADD DUP10 PUSH2 0x115F JUMP JUMPDEST DUP8 MSTORE PUSH1 0x20 DUP8 ADD SWAP8 DUP2 ADD SWAP1 CALLDATASIZE DUP3 GT PUSH2 0x189 JUMPI SWAP8 JUMPDEST DUP2 DUP10 LT PUSH2 0x907 JUMPI POP POP SWAP1 DUP3 SWAP2 PUSH1 0x60 PUSH1 0x3 SWAP5 ADD SWAP7 DUP8 MSTORE CALLER PUSH1 0x0 MSTORE PUSH1 0x0 PUSH1 0x20 MSTORE PUSH1 0x40 PUSH1 0x0 KECCAK256 SWAP3 PUSH1 0x1 DUP1 PUSH1 0xA0 SHL SUB SWAP1 MLOAD AND PUSH12 0xFFFFFFFFFFFFFFFFFFFFFFFF PUSH1 0xA0 SHL DUP5 SLOAD AND OR DUP4 SSTORE MLOAD PUSH1 0x1 DUP4 ADD SSTORE MLOAD PUSH1 0x2 DUP3 ADD SSTORE ADD SWAP3 MLOAD DUP1 MLOAD SWAP1 PUSH8 0xFFFFFFFFFFFFFFFF DUP3 GT PUSH2 0x8F2 JUMPI PUSH1 0x1 PUSH1 0x40 SHL DUP3 GT PUSH2 0x8F2 JUMPI DUP5 SLOAD DUP3 DUP7 SSTORE DUP1 DUP4 LT PUSH2 0x8C9 JUMPI JUMPDEST POP PUSH1 0x20 ADD SWAP4 PUSH1 0x0 MSTORE PUSH1 0x20 PUSH1 0x0 KECCAK256 PUSH1 0x0 JUMPDEST DUP3 DUP2 LT PUSH2 0x8AC JUMPI DUP5 PUSH2 0x870 DUP6 CALLDATALOAD TIMESTAMP PUSH2 0x11CD JUMP JUMPDEST PUSH1 0x40 MLOAD SWAP1 DUP2 MSTORE PUSH1 0x1 PUSH1 0x1 PUSH1 0xA0 SHL SUB SWAP1 SWAP2 AND SWAP1 CALLER SWAP1 PUSH32 0xD4C9FB4A0298B2717518A542BD4801CE0CB35FD35087636887F9E87AD8D75A3F SWAP1 PUSH1 0x20 SWAP1 LOG3 STOP JUMPDEST DUP6 MLOAD PUSH1 0x1 PUSH1 0x1 PUSH1 0xA0 SHL SUB AND DUP2 DUP4 ADD SSTORE PUSH1 0x20 SWAP1 SWAP6 ADD SWAP5 PUSH1 0x1 ADD PUSH2 0x85D JUMP JUMPDEST DUP6 PUSH1 0x0 MSTORE DUP3 PUSH1 0x20 PUSH1 0x0 KECCAK256 SWAP2 DUP3 ADD SWAP2 ADD JUMPDEST DUP2 DUP2 LT PUSH2 0x8E6 JUMPI POP PUSH2 0x84D JUMP JUMPDEST PUSH1 0x0 DUP2 SSTORE PUSH1 0x1 ADD PUSH2 0x8D9 JUMP JUMPDEST DUP3 PUSH4 0x4E487B71 PUSH1 0xE0 SHL PUSH1 0x0 MSTORE PUSH1 0x41 PUSH1 0x4 MSTORE PUSH1 0x0 REVERT JUMPDEST PUSH1 0x20 DUP1 SWAP2 PUSH2 0x914 DUP12 PUSH2 0x10DA JUMP JUMPDEST DUP2 MSTORE ADD SWAP9 ADD SWAP8 PUSH2 0x7D0 JUMP JUMPDEST DUP4 PUSH4 0x4E487B71 PUSH1 0xE0 SHL PUSH1 0x0 MSTORE PUSH1 0x41 PUSH1 0x4 MSTORE PUSH1 0x0 REVERT JUMPDEST PUSH1 0x84 SWAP1 PUSH1 0x2B PUSH1 0x40 MLOAD SWAP2 PUSH3 0x461BCD PUSH1 0xE5 SHL DUP4 MSTORE PUSH1 0x20 PUSH1 0x4 DUP5 ADD MSTORE DUP3 ADD MSTORE PUSH32 0x446561646C696E65206475726174696F6E206D75737420626520677265617465 PUSH1 0x44 DUP3 ADD MSTORE PUSH11 0x72207468616E207A65726F PUSH1 0xA8 SHL PUSH1 0x64 DUP3 ADD MSTORE REVERT JUMPDEST PUSH1 0x84 SWAP1 PUSH1 0x26 PUSH1 0x40 MLOAD SWAP2 PUSH3 0x461BCD PUSH1 0xE5 SHL DUP4 MSTORE PUSH1 0x20 PUSH1 0x4 DUP5 ADD MSTORE DUP3 ADD MSTORE PUSH32 0x42656E65666963696172792063616E6E6F7420626520746865207A65726F2061 PUSH1 0x44 DUP3 ADD MSTORE PUSH6 0x646472657373 PUSH1 0xD0 SHL PUSH1 0x64 DUP3 ADD MSTORE REVERT JUMPDEST PUSH1 0x64 SWAP1 PUSH1 0x1B PUSH1 0x40 MLOAD SWAP2 PUSH3 0x461BCD PUSH1 0xE5 SHL DUP4 MSTORE PUSH1 0x20 PUSH1 0x4 DUP5 ADD MSTORE DUP3 ADD MSTORE PUSH32 0x4163636F756E7420616C726561647920696E697469616C697A65640000000000 PUSH1 0x44 DUP3 ADD MSTORE REVERT JUMPDEST CALLVALUE PUSH2 0x189 JUMPI PUSH1 0x40 CALLDATASIZE PUSH1 0x3 NOT ADD SLT PUSH2 0x189 JUMPI PUSH1 0x24 PUSH8 0xFFFFFFFFFFFFFFFF DUP2 CALLDATALOAD PUSH1 0x4 CALLDATALOAD DUP3 DUP3 GT PUSH2 0x189 JUMPI CALLDATASIZE PUSH1 0x23 DUP4 ADD SLT ISZERO PUSH2 0x189 JUMPI DUP2 PUSH1 0x4 ADD CALLDATALOAD DUP4 DUP2 GT PUSH2 0x189 JUMPI DUP3 ADD SWAP2 CALLDATASIZE DUP6 DUP5 ADD GT PUSH2 0x189 JUMPI PUSH1 0x1 PUSH1 0x1 PUSH1 0xA0 SHL SUB SWAP3 PUSH32 0x0 DUP5 AND CALLER SUB PUSH2 0xBB5 JUMPI DUP2 PUSH1 0x20 SWAP2 SUB SLT PUSH2 0x189 JUMPI DUP5 ADD CALLDATALOAD SWAP2 DUP1 DUP4 AND DUP1 SWAP4 SUB PUSH2 0x189 JUMPI DUP2 PUSH1 0x80 SAR SWAP2 PUSH1 0x0 SWAP3 PUSH1 0x0 DUP3 PUSH1 0xF SIGNEXTEND SGT PUSH1 0x0 EQ PUSH2 0xB90 JUMPI POP PUSH1 0x1 PUSH1 0x1 PUSH1 0x80 SHL SUB AND SWAP2 POP JUMPDEST DUP2 PUSH2 0xB1B JUMPI JUMPDEST POP POP PUSH1 0x40 MLOAD SWAP2 PUSH1 0x20 DUP4 ADD SWAP2 POP DUP2 GT DUP3 DUP3 LT OR PUSH2 0x8F2 JUMPI PUSH2 0xB17 SWAP3 POP PUSH1 0x40 MSTORE PUSH1 0x0 DUP2 MSTORE PUSH1 0x40 MLOAD SWAP2 DUP3 SWAP2 PUSH1 0x20 DUP4 MSTORE PUSH1 0x20 DUP4 ADD SWAP1 PUSH2 0x111F JUMP JUMPDEST SUB SWAP1 RETURN JUMPDEST PUSH1 0x40 DUP1 MLOAD PUSH4 0xA9059CBB PUSH1 0xE0 SHL PUSH1 0x20 DUP1 DUP4 ADD SWAP2 SWAP1 SWAP2 MSTORE PUSH1 0x1 PUSH1 0x1 PUSH1 0xA0 SHL SUB SWAP1 SWAP6 AND DUP8 DUP3 ADD SWAP1 DUP2 MSTORE SWAP5 DUP6 ADD SWAP4 SWAP1 SWAP4 MSTORE PUSH2 0xB88 SWAP4 PUSH2 0xB61 SWAP2 DUP5 SWAP2 ADD SUB PUSH1 0x1F NOT DUP2 ADD DUP5 MSTORE DUP4 PUSH2 0x115F JUMP JUMPDEST PUSH32 0x0 AND PUSH2 0x1244 JUMP JUMPDEST DUP3 DUP1 DUP1 PUSH2 0xAE1 JUMP JUMPDEST SWAP1 POP PUSH1 0x0 DUP2 PUSH1 0xF SIGNEXTEND SGT PUSH2 0xBA4 JUMPI JUMPDEST POP PUSH2 0xADB JUMP JUMPDEST PUSH1 0x1 PUSH1 0x1 PUSH1 0x80 SHL SUB AND SWAP2 POP DUP6 PUSH2 0xB9E JUMP JUMPDEST PUSH1 0x40 MLOAD PUSH3 0x461BCD PUSH1 0xE5 SHL DUP2 MSTORE PUSH1 0x20 PUSH1 0x4 DUP3 ADD MSTORE PUSH1 0x1E DUP2 DUP9 ADD MSTORE PUSH32 0x4F6E6C7920506F6F6C4D616E616765722063616E2063616C6C20746869730000 PUSH1 0x44 DUP3 ADD MSTORE PUSH1 0x64 SWAP1 REVERT JUMPDEST CALLVALUE PUSH2 0x189 JUMPI PUSH1 0x20 CALLDATASIZE PUSH1 0x3 NOT ADD SLT PUSH2 0x189 JUMPI PUSH1 0x60 PUSH1 0x1 PUSH1 0x1 PUSH1 0xA0 SHL SUB DUP1 PUSH2 0xC1D PUSH2 0x10C4 JUMP JUMPDEST AND PUSH1 0x0 MSTORE PUSH1 0x0 PUSH1 0x20 MSTORE PUSH1 0x40 PUSH1 0x0 KECCAK256 SWAP1 DUP2 SLOAD AND SWAP1 PUSH1 0x2 PUSH1 0x1 DUP3 ADD SLOAD SWAP2 ADD SLOAD SWAP1 PUSH1 0x40 MLOAD SWAP3 DUP4 MSTORE PUSH1 0x20 DUP4 ADD MSTORE PUSH1 0x40 DUP3 ADD MSTORE RETURN JUMPDEST CALLVALUE PUSH2 0x189 JUMPI PUSH1 0x20 DUP1 PUSH1 0x3 NOT CALLDATASIZE ADD SLT PUSH2 0x189 JUMPI PUSH1 0x4 CALLDATALOAD PUSH8 0xFFFFFFFFFFFFFFFF DUP2 GT PUSH2 0x189 JUMPI PUSH2 0xC7F SWAP1 CALLDATASIZE SWAP1 PUSH1 0x4 ADD PUSH2 0x10EE JUMP JUMPDEST SWAP1 SWAP2 CALLER PUSH1 0x0 MSTORE PUSH1 0x0 DUP2 MSTORE PUSH1 0x1 PUSH2 0xC9E PUSH1 0x1 PUSH1 0x40 PUSH1 0x0 KECCAK256 ADD SLOAD ISZERO ISZERO PUSH2 0x11DA JUMP JUMPDEST PUSH1 0x0 JUMPDEST DUP4 DUP2 LT PUSH2 0xD16 JUMPI POP PUSH1 0x40 MLOAD SWAP3 DUP1 DUP4 DUP6 ADD DUP5 DUP7 MSTORE MSTORE PUSH1 0x40 DUP5 ADD SWAP5 SWAP3 PUSH1 0x0 JUMPDEST DUP3 DUP2 LT PUSH2 0xCEE JUMPI CALLER PUSH32 0xB90857F670E2787419D97E8AD1483239915B735FECC028ADF074EF41C09D602C DUP8 DUP10 SUB DUP9 LOG2 STOP JUMPDEST SWAP1 SWAP2 SWAP3 DUP3 DUP1 DUP3 SWAP7 SWAP9 PUSH1 0x1 DUP1 PUSH1 0xA0 SHL SUB PUSH2 0xD06 DUP12 PUSH2 0x10DA JUMP JUMPDEST AND DUP2 MSTORE ADD SWAP8 ADD SWAP5 SWAP4 SWAP3 SWAP2 ADD PUSH2 0xCBE JUMP JUMPDEST CALLER PUSH1 0x0 SWAP1 DUP2 MSTORE DUP1 DUP5 MSTORE PUSH1 0x40 SWAP1 KECCAK256 SWAP3 SWAP4 SWAP2 SWAP3 PUSH1 0x3 ADD SWAP1 PUSH1 0x5 DUP2 SWAP1 SHL DUP7 ADD CALLDATALOAD PUSH1 0x1 PUSH1 0x1 PUSH1 0xA0 SHL SUB DUP2 AND DUP2 SUB PUSH2 0x189 JUMPI DUP3 SLOAD SWAP1 PUSH1 0x1 PUSH1 0x40 SHL DUP3 LT ISZERO PUSH2 0x591 JUMPI PUSH2 0xD65 DUP3 DUP8 SWAP6 DUP7 PUSH2 0xD83 SWAP6 ADD DUP2 SSTORE PUSH2 0x1216 JUMP JUMPDEST SWAP1 SWAP2 SWAP1 PUSH1 0x1 DUP1 PUSH1 0xA0 SHL SUB DUP1 DUP5 SLOAD SWAP3 PUSH1 0x3 SHL SWAP4 AND DUP4 SHL SWAP3 SHL NOT AND OR SWAP1 SSTORE JUMP JUMPDEST ADD SWAP3 SWAP2 SWAP1 SWAP3 PUSH2 0xCA1 JUMP JUMPDEST CALLVALUE PUSH2 0x189 JUMPI PUSH1 0x20 CALLDATASIZE PUSH1 0x3 NOT ADD SLT PUSH2 0x189 JUMPI PUSH2 0xDA6 PUSH2 0x10C4 JUMP JUMPDEST CALLER PUSH1 0x0 MSTORE PUSH1 0x0 PUSH1 0x20 MSTORE PUSH1 0x1 SWAP1 PUSH2 0xDC5 PUSH1 0x1 PUSH1 0x40 PUSH1 0x0 KECCAK256 ADD SLOAD ISZERO ISZERO PUSH2 0x11DA JUMP JUMPDEST CALLER PUSH1 0x0 MSTORE PUSH1 0x0 PUSH1 0x20 MSTORE DUP2 PUSH1 0x3 DUP1 PUSH1 0x40 PUSH1 0x0 KECCAK256 ADD PUSH1 0x0 SWAP4 PUSH1 0x1 DUP1 PUSH1 0xA0 SHL SUB DUP1 SWAP2 AND SWAP6 JUMPDEST PUSH2 0xE1B JUMPI JUMPDEST DUP6 PUSH1 0x40 MLOAD SWAP1 DUP2 MSTORE PUSH32 0x8EAC65C9901BE8390F0CF78F2CA8D86E706341713377DCA39B0472FC07CDD05 PUSH1 0x20 CALLER SWAP3 LOG2 STOP JUMPDEST DUP2 SLOAD DUP1 DUP7 LT ISZERO PUSH2 0xED1 JUMPI DUP7 DUP3 PUSH2 0xE31 DUP9 DUP7 PUSH2 0x1216 JUMP JUMPDEST SWAP1 SLOAD SWAP1 DUP8 SHL SHR AND EQ PUSH2 0xE48 JUMPI POP DUP4 DUP1 SWAP6 ADD SWAP5 PUSH2 0xDE7 JUMP JUMPDEST SWAP3 SWAP5 SWAP2 SWAP4 POP SWAP2 PUSH1 0x0 NOT SWAP2 DUP3 DUP3 ADD SWAP2 DUP3 GT PUSH2 0xEBB JUMPI PUSH2 0xD65 DUP5 PUSH2 0xE6D PUSH2 0xE7B SWAP5 DUP9 PUSH2 0x1216 JUMP JUMPDEST SWAP1 SLOAD SWAP1 DUP10 SHL SHR AND SWAP2 DUP7 PUSH2 0x1216 JUMP JUMPDEST DUP3 SLOAD DUP1 ISZERO PUSH2 0xEA5 JUMPI ADD SWAP3 PUSH2 0xE8F DUP5 DUP5 PUSH2 0x1216 JUMP JUMPDEST DUP2 SWAP4 SWAP2 SLOAD SWAP3 SHL SHL NOT AND SWAP1 SSTORE SSTORE DUP2 DUP1 DUP1 DUP1 DUP1 PUSH2 0xDEC JUMP JUMPDEST PUSH4 0x4E487B71 PUSH1 0xE0 SHL PUSH1 0x0 MSTORE PUSH1 0x31 PUSH1 0x4 MSTORE PUSH1 0x24 PUSH1 0x0 REVERT JUMPDEST PUSH4 0x4E487B71 PUSH1 0xE0 SHL PUSH1 0x0 MSTORE PUSH1 0x11 PUSH1 0x4 MSTORE PUSH1 0x24 PUSH1 0x0 REVERT JUMPDEST POP PUSH2 0xDEC JUMP JUMPDEST CALLVALUE PUSH2 0x189 JUMPI PUSH1 0x0 CALLDATASIZE PUSH1 0x3 NOT ADD SLT PUSH2 0x189 JUMPI PUSH1 0x40 MLOAD PUSH32 0x0 PUSH1 0x1 PUSH1 0x1 PUSH1 0xA0 SHL SUB AND DUP2 MSTORE PUSH1 0x20 SWAP1 RETURN JUMPDEST CALLVALUE PUSH2 0x189 JUMPI PUSH1 0x0 CALLDATASIZE PUSH1 0x3 NOT ADD SLT PUSH2 0x189 JUMPI CALLER PUSH1 0x0 MSTORE PUSH1 0x0 PUSH1 0x20 MSTORE PUSH2 0xF49 PUSH1 0x1 PUSH1 0x40 PUSH1 0x0 KECCAK256 ADD SLOAD ISZERO ISZERO PUSH2 0x1181 JUMP JUMPDEST CALLER PUSH1 0x0 MSTORE PUSH1 0x0 PUSH1 0x20 MSTORE PUSH2 0xF64 PUSH1 0x2 PUSH1 0x40 PUSH1 0x0 KECCAK256 ADD SLOAD TIMESTAMP PUSH2 0x11CD JUMP JUMPDEST CALLER PUSH1 0x0 MSTORE PUSH1 0x0 PUSH1 0x20 MSTORE DUP1 PUSH1 0x1 PUSH1 0x40 PUSH1 0x0 KECCAK256 ADD SSTORE PUSH1 0x40 MLOAD SWAP1 DUP2 MSTORE PUSH32 0xF1A463082EFF5F74A481D3ABD6FC308D976449C50289C0564E946069CB7D8805 PUSH1 0x20 CALLER SWAP3 LOG2 STOP JUMPDEST CALLVALUE PUSH2 0x189 JUMPI PUSH1 0x20 DUP1 PUSH1 0x3 NOT CALLDATASIZE ADD SLT PUSH2 0x189 JUMPI PUSH1 0x1 PUSH1 0x1 PUSH1 0xA0 SHL SUB SWAP1 DUP2 PUSH2 0xFC9 PUSH2 0x10C4 JUMP JUMPDEST AND PUSH1 0x0 MSTORE PUSH1 0x0 DUP2 MSTORE PUSH1 0x40 PUSH1 0x0 KECCAK256 SWAP2 DUP1 DUP4 SLOAD AND SWAP1 PUSH1 0x1 SWAP2 PUSH1 0x1 DUP6 ADD SLOAD SWAP4 PUSH1 0x3 PUSH1 0x2 DUP8 ADD SLOAD SWAP7 ADD SWAP6 PUSH1 0x40 MLOAD SWAP1 DUP2 DUP4 DUP10 SLOAD SWAP2 DUP3 DUP2 MSTORE ADD SWAP1 DUP2 SWAP10 PUSH1 0x0 MSTORE DUP5 PUSH1 0x0 KECCAK256 SWAP1 PUSH1 0x0 JUMPDEST DUP2 DUP2 LT PUSH2 0x106D JUMPI POP POP POP DUP3 PUSH2 0x1020 SWAP2 SUB DUP4 PUSH2 0x115F JUMP JUMPDEST PUSH1 0x40 MLOAD SWAP7 PUSH1 0x80 DUP9 ADD SWAP5 DUP9 MSTORE DUP4 DUP9 ADD MSTORE PUSH1 0x40 DUP8 ADD MSTORE PUSH1 0x80 PUSH1 0x60 DUP8 ADD MSTORE MLOAD DUP1 SWAP3 MSTORE PUSH1 0xA0 DUP6 ADD SWAP6 SWAP3 PUSH1 0x0 SWAP1 JUMPDEST DUP4 DUP3 LT PUSH2 0x1056 JUMPI DUP7 DUP9 SUB DUP8 RETURN JUMPDEST DUP5 MLOAD DUP2 AND DUP9 MSTORE SWAP7 DUP3 ADD SWAP7 SWAP4 DUP3 ADD SWAP4 SWAP1 DUP6 ADD SWAP1 PUSH2 0x1049 JUMP JUMPDEST DUP3 SLOAD DUP10 AND DUP5 MSTORE SWAP3 DUP7 ADD SWAP3 SWAP2 DUP10 ADD SWAP2 DUP10 ADD PUSH2 0x100A JUMP JUMPDEST CALLVALUE PUSH2 0x189 JUMPI PUSH1 0x0 CALLDATASIZE PUSH1 0x3 NOT ADD SLT PUSH2 0x189 JUMPI PUSH32 0x0 PUSH1 0x1 PUSH1 0x1 PUSH1 0xA0 SHL SUB AND DUP2 MSTORE PUSH1 0x20 SWAP1 RETURN JUMPDEST PUSH1 0x4 CALLDATALOAD SWAP1 PUSH1 0x1 PUSH1 0x1 PUSH1 0xA0 SHL SUB DUP3 AND DUP3 SUB PUSH2 0x189 JUMPI JUMP JUMPDEST CALLDATALOAD SWAP1 PUSH1 0x1 PUSH1 0x1 PUSH1 0xA0 SHL SUB DUP3 AND DUP3 SUB PUSH2 0x189 JUMPI JUMP JUMPDEST SWAP2 DUP2 PUSH1 0x1F DUP5 ADD SLT ISZERO PUSH2 0x189 JUMPI DUP3 CALLDATALOAD SWAP2 PUSH8 0xFFFFFFFFFFFFFFFF DUP4 GT PUSH2 0x189 JUMPI PUSH1 0x20 DUP1 DUP6 ADD SWAP5 DUP5 PUSH1 0x5 SHL ADD ADD GT PUSH2 0x189 JUMPI JUMP JUMPDEST SWAP2 SWAP1 DUP3 MLOAD SWAP3 DUP4 DUP3 MSTORE PUSH1 0x0 JUMPDEST DUP5 DUP2 LT PUSH2 0x114B JUMPI POP POP DUP3 PUSH1 0x0 PUSH1 0x20 DUP1 SWAP5 SWAP6 DUP5 ADD ADD MSTORE PUSH1 0x1F DUP1 NOT SWAP2 ADD AND ADD ADD SWAP1 JUMP JUMPDEST PUSH1 0x20 DUP2 DUP4 ADD DUP2 ADD MLOAD DUP5 DUP4 ADD DUP3 ADD MSTORE ADD PUSH2 0x112A JUMP JUMPDEST SWAP1 PUSH1 0x1F DUP1 NOT SWAP2 ADD AND DUP2 ADD SWAP1 DUP2 LT PUSH8 0xFFFFFFFFFFFFFFFF DUP3 GT OR PUSH2 0x591 JUMPI PUSH1 0x40 MSTORE JUMP JUMPDEST ISZERO PUSH2 0x1188 JUMPI JUMP JUMPDEST PUSH1 0x40 MLOAD PUSH3 0x461BCD PUSH1 0xE5 SHL DUP2 MSTORE PUSH1 0x20 PUSH1 0x4 DUP3 ADD MSTORE PUSH1 0x17 PUSH1 0x24 DUP3 ADD MSTORE PUSH32 0x4163636F756E74206E6F7420696E697469616C697A6564000000000000000000 PUSH1 0x44 DUP3 ADD MSTORE PUSH1 0x64 SWAP1 REVERT JUMPDEST SWAP2 SWAP1 DUP3 ADD DUP1 SWAP3 GT PUSH2 0xEBB JUMPI JUMP JUMPDEST ISZERO PUSH2 0x11E1 JUMPI JUMP JUMPDEST PUSH1 0x40 MLOAD PUSH3 0x461BCD PUSH1 0xE5 SHL DUP2 MSTORE PUSH1 0x20 PUSH1 0x4 DUP3 ADD MSTORE PUSH1 0xD PUSH1 0x24 DUP3 ADD MSTORE PUSH13 0x105C9AC81B9BDD08189D5A5B1D PUSH1 0x9A SHL PUSH1 0x44 DUP3 ADD MSTORE PUSH1 0x64 SWAP1 REVERT JUMPDEST DUP1 SLOAD DUP3 LT ISZERO PUSH2 0x122E JUMPI PUSH1 0x0 MSTORE PUSH1 0x20 PUSH1 0x0 KECCAK256 ADD SWAP1 PUSH1 0x0 SWAP1 JUMP JUMPDEST PUSH4 0x4E487B71 PUSH1 0xE0 SHL PUSH1 0x0 MSTORE PUSH1 0x32 PUSH1 0x4 MSTORE PUSH1 0x24 PUSH1 0x0 REVERT JUMPDEST SWAP1 PUSH1 0x0 PUSH1 0x20 SWAP2 DUP3 DUP2 MLOAD SWAP2 ADD DUP3 DUP6 GAS CALL ISZERO PUSH2 0x585 JUMPI PUSH1 0x0 MLOAD RETURNDATASIZE PUSH2 0x1297 JUMPI POP PUSH1 0x1 PUSH1 0x1 PUSH1 0xA0 SHL SUB DUP2 AND EXTCODESIZE ISZERO JUMPDEST PUSH2 0x1275 JUMPI POP JUMP JUMPDEST PUSH1 0x40 MLOAD PUSH4 0x5274AFE7 PUSH1 0xE0 SHL DUP2 MSTORE PUSH1 0x1 PUSH1 0x1 PUSH1 0xA0 SHL SUB SWAP1 SWAP2 AND PUSH1 0x4 DUP3 ADD MSTORE PUSH1 0x24 SWAP1 REVERT JUMPDEST PUSH1 0x1 EQ ISZERO PUSH2 0x126E JUMP INVALID LOG2 PUSH5 0x6970667358 0x22 SLT KECCAK256 DUP10 BYTE 0xAB 0xA8 SLT SWAP13 0xBC LOG0 ISZERO MOD MLOAD PUSH22 0x8355FB52273C1321612DC4DE0EABF144CC40D5006473 PUSH16 0x6C634300081800330000000000000000 "},"methodIdentifiers":{"addPassengers(address[])":"79000013","arks(address)":"88b21872","buildArk(address,uint256,address[])":"b1ad599d","flood(address)":"f2511bb1","getArk(address)":"05688c1c","hookAddress()":"32a3cf96","pingArk()":"0fe23da9","poolManager()":"dc4c90d3","poolManagerSwapCallback(int256,bytes)":"afa9862a","removePassenger(address)":"454d58d2","updateDeadlineDuration(uint256)":"fabb6a38","usdcAddress()":"02d45457"}}}}}