{"contracts/NoahV4.sol":{"NoahV4":{"abi":[{"inputs":[{"internalType":"contract IPoolManager","name":"_poolManager","type":"address"},{"internalType":"address","name":"_usdc","type":"address"},{"internalType":"address","name":"_pyrusd","type":"address"},{"internalType":"address","name":"_hook","type":"address"}],"stateMutability":"nonpayable","type":"constructor"},{"inputs":[{"internalType":"address","name":"token","type":"address"}],"name":"SafeERC20FailedOperation","type":"error"},{"anonymous":false,"inputs":[{"indexed":true,"internalType":"address","name":"user","type":"address"},{"indexed":true,"internalType":"address","name":"beneficiary","type":"address"},{"indexed":false,"internalType":"uint256","name":"deadline","type":"uint256"}],"name":"ArkBuilt","type":"event"},{"anonymous":false,"inputs":[{"indexed":true,"internalType":"address","name":"user","type":"address"},{"indexed":false,"internalType":"uint256","name":"newDeadline","type":"uint256"}],"name":"ArkPinged","type":"event"},{"anonymous":false,"inputs":[{"indexed":true,"internalType":"address","name":"user","type":"address"},{"indexed":false,"internalType":"bool","name":"useDutchAuction","type":"bool"}],"name":"AuctionPreferenceUpdated","type":"event"},{"anonymous":false,"inputs":[{"indexed":true,"internalType":"address","name":"user","type":"address"},{"indexed":false,"internalType":"uint256","name":"newDuration","type":"uint256"},{"indexed":false,"internalType":"uint256","name":"newDeadline","type":"uint256"}],"name":"DeadlineUpdated","type":"event"},{"anonymous":false,"inputs":[{"indexed":true,"internalType":"address","name":"user","type":"address"},{"indexed":true,"internalType":"address","name":"token","type":"address"},{"indexed":false,"internalType":"address","name":"bidder","type":"address"},{"indexed":false,"internalType":"uint256","name":"bidAmount","type":"uint256"},{"indexed":false,"internalType":"uint256","name":"currentPrice","type":"uint256"}],"name":"DutchAuctionBid","type":"event"},{"anonymous":false,"inputs":[{"indexed":true,"internalType":"address","name":"user","type":"address"},{"indexed":true,"internalType":"address","name":"token","type":"address"},{"indexed":false,"internalType":"address","name":"winner","type":"address"},{"indexed":false,"internalType":"uint256","name":"amount","type":"uint256"},{"indexed":false,"internalType":"address","name":"beneficiary","type":"address"}],"name":"DutchAuctionSettled","type":"event"},{"anonymous":false,"inputs":[{"indexed":true,"internalType":"address","name":"user","type":"address"},{"indexed":true,"internalType":"address","name":"token","type":"address"},{"indexed":false,"internalType":"uint256","name":"startPrice","type":"uint256"},{"indexed":false,"internalType":"uint256","name":"endPrice","type":"uint256"},{"indexed":false,"internalType":"uint256","name":"duration","type":"uint256"}],"name":"DutchAuctionStarted","type":"event"},{"anonymous":false,"inputs":[{"indexed":true,"internalType":"address","name":"user","type":"address"},{"indexed":true,"internalType":"address","name":"beneficiary","type":"address"},{"indexed":false,"internalType":"uint256","name":"usdcAmount","type":"uint256"}],"name":"FloodTriggered","type":"event"},{"anonymous":false,"inputs":[{"indexed":true,"internalType":"address","name":"user","type":"address"},{"indexed":true,"internalType":"address","name":"beneficiary","type":"address"},{"indexed":false,"internalType":"uint256","name":"amount","type":"uint256"}],"name":"PYUSDClaimed","type":"event"},{"anonymous":false,"inputs":[{"indexed":true,"internalType":"address","name":"user","type":"address"},{"indexed":false,"internalType":"address","name":"passenger","type":"address"}],"name":"PassengerRemoved","type":"event"},{"anonymous":false,"inputs":[{"indexed":true,"internalType":"address","name":"user","type":"address"},{"indexed":false,"internalType":"address[]","name":"newPassengers","type":"address[]"}],"name":"PassengersAdded","type":"event"},{"anonymous":false,"inputs":[{"indexed":true,"internalType":"address","name":"token","type":"address"},{"indexed":true,"internalType":"address","name":"priceFeed","type":"address"}],"name":"PriceFeedUpdated","type":"event"},{"anonymous":false,"inputs":[{"indexed":true,"internalType":"address","name":"user","type":"address"},{"indexed":false,"internalType":"bool","name":"usePYUSD","type":"bool"}],"name":"TargetCurrencyPreferenceUpdated","type":"event"},{"inputs":[{"internalType":"address[]","name":"_newPassengers","type":"address[]"}],"name":"addPassengers","outputs":[],"stateMutability":"nonpayable","type":"function"},{"inputs":[],"name":"admin","outputs":[{"internalType":"address","name":"","type":"address"}],"stateMutability":"view","type":"function"},{"inputs":[{"internalType":"address","name":"","type":"address"}],"name":"arks","outputs":[{"internalType":"address","name":"beneficiary","type":"address"},{"internalType":"uint256","name":"deadline","type":"uint256"},{"internalType":"uint256","name":"deadlineDuration","type":"uint256"},{"internalType":"bool","name":"useDutchAuction","type":"bool"},{"internalType":"bool","name":"usePYUSD","type":"bool"}],"stateMutability":"view","type":"function"},{"inputs":[{"internalType":"address","name":"","type":"address"},{"internalType":"address","name":"","type":"address"}],"name":"auctions","outputs":[{"internalType":"address","name":"token","type":"address"},{"internalType":"uint256","name":"startPrice","type":"uint256"},{"internalType":"uint256","name":"endPrice","type":"uint256"},{"internalType":"uint256","name":"startTime","type":"uint256"},{"internalType":"uint256","name":"duration","type":"uint256"},{"internalType":"bool","name":"active","type":"bool"},{"internalType":"address","name":"highestBidder","type":"address"},{"internalType":"uint256","name":"highestBid","type":"uint256"}],"stateMutability":"view","type":"function"},{"inputs":[{"internalType":"address","name":"_user","type":"address"},{"internalType":"address","name":"_token","type":"address"},{"internalType":"uint256","name":"_bidAmount","type":"uint256"}],"name":"bidOnDutchAuction","outputs":[],"stateMutability":"nonpayable","type":"function"},{"inputs":[{"internalType":"address","name":"_beneficiary","type":"address"},{"internalType":"uint256","name":"_deadlineDuration","type":"uint256"},{"internalType":"address[]","name":"_tokens","type":"address[]"},{"internalType":"bool","name":"_useDutchAuction","type":"bool"},{"internalType":"bool","name":"_usePYUSD","type":"bool"}],"name":"buildArk","outputs":[],"stateMutability":"nonpayable","type":"function"},{"inputs":[{"internalType":"address","name":"_user","type":"address"}],"name":"flood","outputs":[],"stateMutability":"nonpayable","type":"function"},{"inputs":[{"internalType":"address","name":"user","type":"address"}],"name":"getArk","outputs":[{"internalType":"address","name":"beneficiary","type":"address"},{"internalType":"uint256","name":"deadline","type":"uint256"},{"internalType":"uint256","name":"deadlineDuration","type":"uint256"},{"internalType":"address[]","name":"tokens","type":"address[]"},{"internalType":"bool","name":"useDutchAuction","type":"bool"},{"internalType":"bool","name":"usePYUSD","type":"bool"}],"stateMutability":"view","type":"function"},{"inputs":[{"internalType":"address","name":"_user","type":"address"},{"internalType":"address","name":"_token","type":"address"}],"name":"getCurrentAuctionPrice","outputs":[{"internalType":"uint256","name":"currentPrice","type":"uint256"}],"stateMutability":"view","type":"function"},{"inputs":[{"internalType":"address","name":"_token","type":"address"}],"name":"getTokenPrice","outputs":[{"internalType":"uint256","name":"price","type":"uint256"}],"stateMutability":"view","type":"function"},{"inputs":[{"internalType":"address","name":"_token","type":"address"}],"name":"hasPriceFeed","outputs":[{"internalType":"bool","name":"","type":"bool"}],"stateMutability":"view","type":"function"},{"inputs":[],"name":"hookAddress","outputs":[{"internalType":"address","name":"","type":"address"}],"stateMutability":"view","type":"function"},{"inputs":[],"name":"pingArk","outputs":[],"stateMutability":"nonpayable","type":"function"},{"inputs":[],"name":"poolManager","outputs":[{"internalType":"contract IPoolManager","name":"","type":"address"}],"stateMutability":"view","type":"function"},{"inputs":[{"internalType":"BalanceDelta","name":"delta","type":"int256"},{"internalType":"bytes","name":"data","type":"bytes"}],"name":"poolManagerSwapCallback","outputs":[{"internalType":"bytes","name":"","type":"bytes"}],"stateMutability":"nonpayable","type":"function"},{"inputs":[{"internalType":"address","name":"","type":"address"}],"name":"priceFeeds","outputs":[{"internalType":"address","name":"","type":"address"}],"stateMutability":"view","type":"function"},{"inputs":[],"name":"pyrusdAddress","outputs":[{"internalType":"address","name":"","type":"address"}],"stateMutability":"view","type":"function"},{"inputs":[{"internalType":"address","name":"_passengerToRemove","type":"address"}],"name":"removePassenger","outputs":[],"stateMutability":"nonpayable","type":"function"},{"inputs":[{"internalType":"address","name":"_token","type":"address"},{"internalType":"address","name":"_priceFeed","type":"address"}],"name":"setPriceFeed","outputs":[],"stateMutability":"nonpayable","type":"function"},{"inputs":[{"internalType":"address","name":"_user","type":"address"},{"internalType":"address","name":"_token","type":"address"}],"name":"settleDutchAuction","outputs":[],"stateMutability":"nonpayable","type":"function"},{"inputs":[{"internalType":"address","name":"_newAdmin","type":"address"}],"name":"transferAdmin","outputs":[],"stateMutability":"nonpayable","type":"function"},{"inputs":[{"internalType":"bool","name":"_useDutchAuction","type":"bool"}],"name":"updateAuctionPreference","outputs":[],"stateMutability":"nonpayable","type":"function"},{"inputs":[{"internalType":"uint256","name":"_newDuration","type":"uint256"}],"name":"updateDeadlineDuration","outputs":[],"stateMutability":"nonpayable","type":"function"},{"inputs":[{"internalType":"bool","name":"_usePYUSD","type":"bool"}],"name":"updateTargetCurrencyPreference","outputs":[],"stateMutability":"nonpayable","type":"function"},{"inputs":[],"name":"usdcAddress","outputs":[{"internalType":"address","name":"","type":"address"}],"stateMutability":"view","type":"function"}],"evm":{"bytecode":{"linkReferences":{},"object":"610100346200015b57601f620027e038819003918201601f19168301916001600160401b0383118484101762000160578084926080946040528339810103126200015b578051906001600160a01b03821682036200015b57620000656020820162000176565b620000816060620000796040850162000176565b930162000176565b60809390935260a05260c05260e052600180546001600160a01b0319163317905560405161265490816200018c823960805181818161090201528181610a6101528181610af601528181610c7701528181610ec401526112ec015260a0518181816103e2015281816105460152818161086a01528181610967015281816109fd01528181610b3501528181610bab01528181611e980152612001015260c05181818161035901528181610b7101528181610e32015281816114dc0152611cc0015260e0518181816109a101528181610bea0152611a8e0152f35b600080fd5b634e487b7160e01b600052604160045260246000fd5b51906001600160a01b03821682036200015b5756fe608080604052600436101561001357600080fd5b60003560e01c90816302d4545714611fee5750806305688c1c14611ef65780630a50960d14611c275780630b7983a214611bea5780630fe23da914611b615780631824294114611abd57806332a3cf9614611a78578063454d58d214611944578063500994c5146118b9578063642e084e1461182e57806375829def1461179f57806376e112861461167a57806379000013146115375780637a08d7301461150b5780637e923b72146114c657806388b21872146114555780639dcb511a1461141a578063afa9862a14611296578063d02641a01461126b578063daa12a3614610ef3578063dc4c90d314610eae578063f2511bb1146104bf578063f76e369614610246578063f851a4401461021d5763fabb6a381461013257600080fd5b34610218576020806003193601126102185760043590336000526002815261016360016040600020015415156121e4565b81156101c957336000526002815281600260406000200155610185824261218b565b903360005260028152816001604060002001556040519283528201527f270517e45d27f999faef5e16a3159117c83577723363227c5901cb52e315d86860403392a2005b6084906040519062461bcd60e51b82526004820152602260248201527f4475726174696f6e206d7573742062652067726561746572207468616e207a65604482015261726f60f01b6064820152fd5b600080fd5b34610218576000366003190112610218576001546040516001600160a01b039091168152602090f35b346102185760603660031901126102185761025f612030565b610267612046565b9060443560018060a01b038092169182600052602091600383528160406000209516948560005283526040600020600581016102a660ff82541661214a565b60038201546004830154906102bb828261218b565b42101561048a57841561043957906102fb6102d9610301934261224e565b916102f66001870154936102f160028901548661224e565b6122b1565b6122c4565b9061224e565b9384841061040657926006606095936103b683947f703f9d09ecb9c1cb479797ac961a23f831480452f96fb5cdfe420b352742a46499978b6000526002895260ff60046040600020015460081c166000146103df57807f00000000000000000000000000000000000000000000000000000000000000005b169061038787303385612580565b825460081c1690816103ca575b50508054610100600160a81b0319163360081b610100600160a81b0316179055565b0155604051923384528301526040820152a3005b6103d89186860154916124b1565b8c80610394565b807f0000000000000000000000000000000000000000000000000000000000000000610379565b60405162461bcd60e51b815260048101879052600b60248201526a42696420746f6f206c6f7760a81b6044820152606490fd5b60405162461bcd60e51b8152600481018890526024808201527f42696420616d6f756e74206d7573742062652067726561746572207468616e206044820152637a65726f60e01b6064820152608490fd5b60405162461bcd60e51b815260048101889052600d60248201526c105d58dd1a5bdb88195b991959609a1b6044820152606490fd5b34610218576020366003190112610218576104d8612030565b6001600160a01b03811660009081526002602052604090206001810154610500811515612198565b4210610e6957600481015460ff16156108355760005b60038201548110156107ec5761052f8160038401612220565b90546001600160a01b0360039290921b1c811691907f00000000000000000000000000000000000000000000000000000000000000001682146107e3576040516370a0823160e01b81526001600160a01b038516600482015291602083602481845afa9283156107d7576000936107a3575b50826105b4575b50600191505b01610516565b6305f5e1006105cb6105c583612377565b856122b1565b0480159080800460011482171561078d576105ea6103e882048261218b565b91600a9082828102048214171561078d5781606461060e926106179402049061224e565b94308885612580565b604051938461010081011067ffffffffffffffff61010087011117610777578461010060019601604052838152826020820152816040820152426060820152610e1060808201528560a0820152600060c0820152600060e0820152858060a01b0388166000526003602052604060002084600052602052600660e0604060002092888060a01b038151166001600160601b0360a01b85541617845560208101518985015560408101516002850155606081015160038501556080810151600485015561072c600585016106fc60a08401511515829060ff801983541691151516179055565b60c08301518154610100600160a81b03191660a08d901b8d90039190911660081b610100600160a81b0316179055565b01519101556040519182526020820152610e1060408201527f39a3045328465c82468e6e1dc742164b5a9097c34cf56ee021a8431685c52dbe6060858060a01b03881692a3846105a8565b634e487b7160e01b600052604160045260246000fd5b634e487b7160e01b600052601160045260246000fd5b9092506020813d6020116107cf575b816107bf60209383612128565b81010312610218575191856105a1565b3d91506107b2565b6040513d6000823e3d90fd5b600191506105ae565b505b60006001820181905590546040519182526001600160a01b039081169216907fde3f14ce4426137f4576388d16723795d5bf5e2f00597e0e8d63816a7342a1e190602090a3005b60009160005b6003830154811015610e61576108548160038501612220565b90546001600160a01b0360039290921b1c8116907f00000000000000000000000000000000000000000000000000000000000000001681148015610e2f575b610e26576040516370a0823160e01b81526001600160a01b038416600482015290602082602481845afa9182156107d757600092610df2575b50816108df575b50506001905b0161083b565b6108eb82308684612580565b60405163095ea7b360e01b81526001600160a01b037f000000000000000000000000000000000000000000000000000000000000000016600482015260248101839052916020836044816000865af19182156107d757610a2f93602093610dd5575b506040519061095b826120f0565b81526001600160a01b037f0000000000000000000000000000000000000000000000000000000000000000811684830152610bb8604080840191909152603c60608401527f0000000000000000000000000000000000000000000000000000000000000000909116608083015251916109d38361210c565b60018352838301526000604080840191909152875481516001600160a01b039182168187019081527f0000000000000000000000000000000000000000000000000000000000000000909216602083015295610a3d9287920190565b03601f198101865285612128565b610a5b6040519485938493633cf3645360e21b85526004850161250c565b038160007f00000000000000000000000000000000000000000000000000000000000000006001600160a01b03165af19081156107d757600091610da3575b508060801d90600091600082600f0b13600014610d7e57506001600160801b039150165b80610aca575b806108d3565b600484015491949160081c60ff1615610d6c57835460405163095ea7b360e01b81526001600160a01b037f00000000000000000000000000000000000000000000000000000000000000008116600483015260248201849052909116916020828060448101038160007f00000000000000000000000000000000000000000000000000000000000000006001600160a01b03165af19182156107d757602092610d3f575b507f000000000000000000000000000000000000000000000000000000000000000092610c5360405191610ba1836120f0565b6001600160a01b037f00000000000000000000000000000000000000000000000000000000000000008116845286811686850152610bb8604080860191909152603c60608601527f000000000000000000000000000000000000000000000000000000000000000090911660808501525193610c1c8561210c565b6001855285850152600060408086019190915280516001600160a01b03928316818801908152929097166020830152869101610a2f565b610c716040519485938493633cf3645360e21b85526004850161250c565b038160007f00000000000000000000000000000000000000000000000000000000000000006001600160a01b03165af19081156107d757600091610d0c575b5080600192610cdf9260801d91600092600082600f0b13600014610ce757506001600160801b0316915061218b565b935b90610ac4565b9050600081600f0b13610cfb575b5061218b565b6001600160801b0316915087610cf5565b90506020813d602011610d37575b81610d2760209383612128565b8101031261021857516001610cb0565b3d9150610d1a565b610d5e90833d8511610d65575b610d568183612128565b8101906124f4565b5087610b6e565b503d610d4c565b610d789060019261218b565b93610ce1565b9050600081600f0b13610d92575b50610abe565b6001600160801b0391501685610d8c565b90506020813d602011610dcd575b81610dbe60209383612128565b81010312610218575185610a9a565b3d9150610db1565b610deb90843d8611610d6557610d568183612128565b508861094d565b9091506020813d602011610e1e575b81610e0e60209383612128565b81010312610218575190866108cc565b3d9150610e01565b506001906108d9565b507f00000000000000000000000000000000000000000000000000000000000000006001600160a01b03168114610893565b5091506107ee565b60405162461bcd60e51b815260206004820152601760248201527f446561646c696e6520686173206e6f74207061737365640000000000000000006044820152606490fd5b34610218576000366003190112610218576040517f00000000000000000000000000000000000000000000000000000000000000006001600160a01b03168152602090f35b346102185760a036600319011261021857610f0c612030565b60443567ffffffffffffffff811161021857610f2c90369060040161207f565b91906064359081151582036102185760843590811515820361021857336000526002602052600160406000200154611226576001600160a01b038416156111d2576024351561117957610f816024354261218b565b906040519160c0830183811067ffffffffffffffff8211176107775760405260018060a01b03861683526020830152602435604083015267ffffffffffffffff8611610777578560051b60405196610fdc6020830189612128565b8752602087019036818401116102185782915b818401831061116157505050506060810194855260808101921515835260a0810191151582523360005260026020526040806000209160018060a01b038151166001600160601b0360a01b845416178355602081015160018401550151600282015560038101945180519067ffffffffffffffff821161077757600160401b8211610777578654828855808310611138575b506020019560005260206000209560005b82811061111b57866110d387876110bc6004890192511515839060ff801983541691151516179055565b51815461ff00191690151560081b61ff0016179055565b6110df6024354261218b565b6040519081526001600160a01b039091169033907fd4c9fb4a0298b2717518a542bd4801ce0cb35fd35087636887f9e87ad8d75a3f90602090a3005b81516001600160a01b031681890155602090910190600101611092565b8760005282602060002091820191015b8181106111555750611081565b60008155600101611148565b6020809161116e8561205c565b815201920191610fef565b60405162461bcd60e51b815260206004820152602b60248201527f446561646c696e65206475726174696f6e206d7573742062652067726561746560448201526a72207468616e207a65726f60a81b6064820152608490fd5b60405162461bcd60e51b815260206004820152602660248201527f42656e65666963696172792063616e6e6f7420626520746865207a65726f206160448201526564647265737360d01b6064820152608490fd5b60405162461bcd60e51b815260206004820152601b60248201527f4163636f756e7420616c726561647920696e697469616c697a656400000000006044820152606490fd5b3461021857602036600319011261021857602061128e611289612030565b612377565b604051908152f35b346102185760403660031901126102185767ffffffffffffffff602435600435828211610218573660238301121561021857816004013583811161021857820190366024830111610218576001600160a01b03917f0000000000000000000000000000000000000000000000000000000000000000831633036113d55783604091031261021857611335604461132e6024860161205c565b940161205c565b908060801d600090600083600f0b136000146113ae5750506001600160801b0316915b82611398575b505050506040516020810191818310908311176107775761139491604052600081526040519182916020835260208301906120b0565b0390f35b806113a5941691166124b1565b8180808061135e565b90939150600081600f0b136113c4575b50611358565b6001600160801b03169250856113be565b60405162461bcd60e51b815260206004820152601e60248201527f4f6e6c7920506f6f6c4d616e616765722063616e2063616c6c207468697300006044820152606490fd5b346102185760203660031901126102185760206001600160a01b038061143e612030565b166000526000825260406000205416604051908152f35b346102185760203660031901126102185760a06001600160a01b0380611479612030565b16600052600260205260ff604060002091825416916001810154906004600282015491015491604051948552602085015260408401528181161515606084015260081c1615156080820152f35b34610218576000366003190112610218576040517f00000000000000000000000000000000000000000000000000000000000000006001600160a01b03168152602090f35b3461021857604036600319011261021857602061128e611529612030565b611531612046565b906122e4565b34610218576020806003193601126102185760043567ffffffffffffffff81116102185761156990369060040161207f565b909133600052600280825260019061158a60016040600020015415156121e4565b60005b84811061160357505060405192808385018486525260408401949260005b8281106115db57337fb90857f670e2787419d97e8ad1483239915b735fecc028adf074ef41c09d602c87890388a2005b909192828082969860018060a01b036115f38b61205c565b16815201970194939291016115ab565b336000908152828552604090209394929360030190600581901b8701356001600160a01b038116810361021857825490600160401b821015610777576116528288958661167095018155612220565b90919060018060a01b038084549260031b9316831b921b1916179055565b019392919361158d565b3461021857604036600319011261021857611693612030565b61169b612046565b9060018060a01b0380916116b48260015416331461225b565b1691821561175a571690811561170b578060005260006020526040600020826001600160601b0360a01b8254161790557fa8abe0398416476db5b05737cd4da3b3cbde5012d978a6a6c3fd49d321753536600080a3005b60405162461bcd60e51b815260206004820152602160248201527f507269636520666565642063616e6e6f74206265207a65726f206164647265736044820152607360f81b6064820152608490fd5b60405162461bcd60e51b815260206004820152601c60248201527f546f6b656e2063616e6e6f74206265207a65726f2061646472657373000000006044820152606490fd5b34610218576020366003190112610218576117b8612030565b600154906001600160a01b03906117d2338385161461225b565b169081156117ea576001600160a01b03191617600155005b606460405162461bcd60e51b815260206004820152602060248201527f4e65772061646d696e2063616e6e6f74206265207a65726f20616464726573736044820152fd5b3461021857602036600319011261021857611847612070565b33600052600260205261186360016040600020015415156121e4565b3360005260026020526118898160046040600020019060ff801983541691151516179055565b60405190151581527fbd4ccd3b9f23b35b213567ff600237372c8368625bc58d2e36225cc085e03c6d60203392a2005b34610218576020366003190112610218576118d2612070565b3360005260026020526118ee60016040600020015415156121e4565b336000908152600260205260409020600401805461ff00191682151560081b61ff001617905560405190151581527f94c87bc2c95c8b72cf0437c0239fc65c2e8a5569f7ffaf72ac05f074e65c536160203392a2005b346102185760203660031901126102185761195d612030565b33600052600260205260019061197c60016040600020015415156121e4565b3360005260026020528160038060406000200160009360018060a01b03809116955b6119d2575b856040519081527f08eac65c9901be8390f0cf78f2ca8d86e706341713377dca39b0472fc07cdd0560203392a2005b815480861015611a725786826119e88886612220565b905490871b1c16146119ff5750838095019461199e565b9294919350916000199182820191821161078d5761165284611a24611a329488612220565b905490891b1c169186612220565b82548015611a5c570192611a468484612220565b81939154921b1b191690555581808080806119a3565b634e487b7160e01b600052603160045260246000fd5b506119a3565b34610218576000366003190112610218576040517f00000000000000000000000000000000000000000000000000000000000000006001600160a01b03168152602090f35b3461021857604036600319011261021857610100611ad9612030565b611ae1612046565b60018060a01b038092166000526003602052816040600020911660005260205260406000208181541691600182015491600281015460038201546004830154916006600585015494015495604051978852602088015260408701526060860152608085015260ff8116151560a085015260081c1660c083015260e0820152f35b3461021857600036600319011261021857336000526002602052611b8e6001604060002001541515612198565b336000526002602052611ba96002604060002001544261218b565b336000526002602052806001604060002001556040519081527ff1a463082eff5f74a481d3abd6fc308d976449c50289c0564e946069cb7d880560203392a2005b346102185760203660031901126102185760206001600160a01b0380611c0e612030565b1660005260008252604060002054161515604051908152f35b3461021857604036600319011261021857611c40612030565b611c48612046565b60018060a01b0380831690816000526020936003855281604060002094169384600052855260406000206005810195865492611c8660ff851661214a565b611c99600384015460048501549061218b565b4210611ebd57856000526002825260ff60046040600020015460081c16600014611e9557847f0000000000000000000000000000000000000000000000000000000000000000945b60081c1615611de957506040516370a0823160e01b815230600482015281816024818a5afa9081156107d757600091611d94575b509084611d4e60609594937f60fe5c7ed4fe46663ec53f1fbd38f2c85063cea69e1425471df15414dea59aa5978b5460081c168a6124b1565b8660005260028252611d71600682604060002054169401948483875492166124b1565b885460081c169254906040519384528301526040820152a35b805460ff19169055005b93929180915084813d8311611de2575b611dae8183612128565b81010312610218579251919290917f60fe5c7ed4fe46663ec53f1fbd38f2c85063cea69e1425471df15414dea59aa5611d15565b503d611da4565b6040516370a0823160e01b8152306004820152945090925090508183602481885afa9283156107d757600093611e62575b5090611e4a7f60fe5c7ed4fe46663ec53f1fbd38f2c85063cea69e1425471df15414dea59aa593606093876124b1565b600060405191818352820152836040820152a3611d8a565b9250908083813d8311611e8e575b611e7a8183612128565b810103126102185791519190611e4a611e1a565b503d611e70565b847f000000000000000000000000000000000000000000000000000000000000000094611ce1565b60405162461bcd60e51b8152600481018390526011602482015270105d58dd1a5bdb881b9bdd08195b991959607a1b6044820152606490fd5b3461021857602080600319360112610218576001600160a01b0380611f19612030565b166000526002825260406000208181541691600180830154936002840154956004600386019501549660405190818388549182815201908198600052846000209060005b818110611fd95750505082611f73910383612128565b6040519760c0890194895283890152604088015260c060608801525180925260e0860194936000905b838210611fc25787808860ff8c8181161515608085015260081c16151560a08301520390f35b855181168752958201959482019490840190611f9c565b82548a16845292860192918801918801611f5d565b34610218576000366003190112610218577f00000000000000000000000000000000000000000000000000000000000000006001600160a01b03168152602090f35b600435906001600160a01b038216820361021857565b602435906001600160a01b038216820361021857565b35906001600160a01b038216820361021857565b60043590811515820361021857565b9181601f840112156102185782359167ffffffffffffffff8311610218576020808501948460051b01011161021857565b919082519283825260005b8481106120dc575050826000602080949584010152601f8019910116010190565b6020818301810151848301820152016120bb565b60a0810190811067ffffffffffffffff82111761077757604052565b6060810190811067ffffffffffffffff82111761077757604052565b90601f8019910116810190811067ffffffffffffffff82111761077757604052565b1561215157565b60405162461bcd60e51b815260206004820152601260248201527141756374696f6e206e6f742061637469766560701b6044820152606490fd5b9190820180921161078d57565b1561219f57565b60405162461bcd60e51b815260206004820152601760248201527f4163636f756e74206e6f7420696e697469616c697a65640000000000000000006044820152606490fd5b156121eb57565b60405162461bcd60e51b815260206004820152600d60248201526c105c9ac81b9bdd08189d5a5b1d609a1b6044820152606490fd5b80548210156122385760005260206000200190600090565b634e487b7160e01b600052603260045260246000fd5b9190820391821161078d57565b1561226257565b60405162461bcd60e51b815260206004820152602160248201527f4f6e6c792061646d696e2063616e2063616c6c20746869732066756e6374696f6044820152603760f91b6064820152608490fd5b8181029291811591840414171561078d57565b81156122ce570490565b634e487b7160e01b600052601260045260246000fd5b60018060a01b03809116600052600360205260406000209116600052602052604060002061231860ff60058301541661214a565b61232660038201544261224e565b906004810154918281101561235657612353926102f66102fb926102f1600260018701549601548661224e565b90565b5060029150015490565b519069ffffffffffffffffffff8216820361021857565b60018060a01b03806000921682528160205260408220541690811561246c5760a060049260405193848092633fabe5a360e21b82525afa91821561245f57819261240c575b508113156123c75790565b60405162461bcd60e51b815260206004820152601960248201527f496e76616c69642070726963652066726f6d206f7261636c65000000000000006044820152606490fd5b90915060a0813d60a011612457575b8161242860a09383612128565b810103126124535761243981612360565b5061244b608060208301519201612360565b5090386123bc565b5080fd5b3d915061241b565b50604051903d90823e3d90fd5b60405162461bcd60e51b815260206004820152601c60248201527f50726963652066656564206e6f742073657420666f7220746f6b656e000000006044820152606490fd5b60405163a9059cbb60e01b60208201526001600160a01b039290921660248301526044808301939093529181526124f2916124ed606483612128565b6125c2565b565b90816020910312610218575180151581036102185790565b6080604061235395946101209460018060a01b0393818580935116875282602082015116602088015262ffffff858201511685880152606081015160020b606088015201511660808501528051151560a0850152602081015160c085015201511660e08201528161010082015201906120b0565b6040516323b872dd60e01b60208201526001600160a01b0392831660248201529290911660448301526064808301939093529181526124f2916124ed826120f0565b906000602091828151910182855af1156107d7576000513d61261557506001600160a01b0381163b155b6125f35750565b604051635274afe760e01b81526001600160a01b039091166004820152602490fd5b600114156125ec56fea26469706673582212208c43f1dee7543e9e794205dc1d5ae122be0f2e800c45c9e213c1efa074c6fd8f64736f6c63430008180033","opcodes":"PUSH2 0x100 CALLVALUE PUSH3 0x15B JUMPI PUSH1 0x1F PUSH3 0x27E0 CODESIZE DUP2 SWAP1 SUB SWAP2 DUP3 ADD PUSH1 0x1F NOT AND DUP4 ADD SWAP2 PUSH1 0x1 PUSH1 0x1 PUSH1 0x40 SHL SUB DUP4 GT DUP5 DUP5 LT OR PUSH3 0x160 JUMPI DUP1 DUP5 SWAP3 PUSH1 0x80 SWAP5 PUSH1 0x40 MSTORE DUP4 CODECOPY DUP2 ADD SUB SLT PUSH3 0x15B JUMPI DUP1 MLOAD SWAP1 PUSH1 0x1 PUSH1 0x1 PUSH1 0xA0 SHL SUB DUP3 AND DUP3 SUB PUSH3 0x15B JUMPI PUSH3 0x65 PUSH1 0x20 DUP3 ADD PUSH3 0x176 JUMP JUMPDEST PUSH3 0x81 PUSH1 0x60 PUSH3 0x79 PUSH1 0x40 DUP6 ADD PUSH3 0x176 JUMP JUMPDEST SWAP4 ADD PUSH3 0x176 JUMP JUMPDEST PUSH1 0x80 SWAP4 SWAP1 SWAP4 MSTORE PUSH1 0xA0 MSTORE PUSH1 0xC0 MSTORE PUSH1 0xE0 MSTORE PUSH1 0x1 DUP1 SLOAD PUSH1 0x1 PUSH1 0x1 PUSH1 0xA0 SHL SUB NOT AND CALLER OR SWAP1 SSTORE PUSH1 0x40 MLOAD PUSH2 0x2654 SWAP1 DUP2 PUSH3 0x18C DUP3 CODECOPY PUSH1 0x80 MLOAD DUP2 DUP2 DUP2 PUSH2 0x902 ADD MSTORE DUP2 DUP2 PUSH2 0xA61 ADD MSTORE DUP2 DUP2 PUSH2 0xAF6 ADD MSTORE DUP2 DUP2 PUSH2 0xC77 ADD MSTORE DUP2 DUP2 PUSH2 0xEC4 ADD MSTORE PUSH2 0x12EC ADD MSTORE PUSH1 0xA0 MLOAD DUP2 DUP2 DUP2 PUSH2 0x3E2 ADD MSTORE DUP2 DUP2 PUSH2 0x546 ADD MSTORE DUP2 DUP2 PUSH2 0x86A ADD MSTORE DUP2 DUP2 PUSH2 0x967 ADD MSTORE DUP2 DUP2 PUSH2 0x9FD ADD MSTORE DUP2 DUP2 PUSH2 0xB35 ADD MSTORE DUP2 DUP2 PUSH2 0xBAB ADD MSTORE DUP2 DUP2 PUSH2 0x1E98 ADD MSTORE PUSH2 0x2001 ADD MSTORE PUSH1 0xC0 MLOAD DUP2 DUP2 DUP2 PUSH2 0x359 ADD MSTORE DUP2 DUP2 PUSH2 0xB71 ADD MSTORE DUP2 DUP2 PUSH2 0xE32 ADD MSTORE DUP2 DUP2 PUSH2 0x14DC ADD MSTORE PUSH2 0x1CC0 ADD MSTORE PUSH1 0xE0 MLOAD DUP2 DUP2 DUP2 PUSH2 0x9A1 ADD MSTORE DUP2 DUP2 PUSH2 0xBEA ADD MSTORE PUSH2 0x1A8E ADD MSTORE RETURN JUMPDEST PUSH1 0x0 DUP1 REVERT JUMPDEST PUSH4 0x4E487B71 PUSH1 0xE0 SHL PUSH1 0x0 MSTORE PUSH1 0x41 PUSH1 0x4 MSTORE PUSH1 0x24 PUSH1 0x0 REVERT JUMPDEST MLOAD SWAP1 PUSH1 0x1 PUSH1 0x1 PUSH1 0xA0 SHL SUB DUP3 AND DUP3 SUB PUSH3 0x15B JUMPI JUMP INVALID PUSH1 0x80 DUP1 PUSH1 0x40 MSTORE PUSH1 0x4 CALLDATASIZE LT ISZERO PUSH2 0x13 JUMPI PUSH1 0x0 DUP1 REVERT JUMPDEST PUSH1 0x0 CALLDATALOAD PUSH1 0xE0 SHR SWAP1 DUP2 PUSH4 0x2D45457 EQ PUSH2 0x1FEE JUMPI POP DUP1 PUSH4 0x5688C1C EQ PUSH2 0x1EF6 JUMPI DUP1 PUSH4 0xA50960D EQ PUSH2 0x1C27 JUMPI DUP1 PUSH4 0xB7983A2 EQ PUSH2 0x1BEA JUMPI DUP1 PUSH4 0xFE23DA9 EQ PUSH2 0x1B61 JUMPI DUP1 PUSH4 0x18242941 EQ PUSH2 0x1ABD JUMPI DUP1 PUSH4 0x32A3CF96 EQ PUSH2 0x1A78 JUMPI DUP1 PUSH4 0x454D58D2 EQ PUSH2 0x1944 JUMPI DUP1 PUSH4 0x500994C5 EQ PUSH2 0x18B9 JUMPI DUP1 PUSH4 0x642E084E EQ PUSH2 0x182E JUMPI DUP1 PUSH4 0x75829DEF EQ PUSH2 0x179F JUMPI DUP1 PUSH4 0x76E11286 EQ PUSH2 0x167A JUMPI DUP1 PUSH4 0x79000013 EQ PUSH2 0x1537 JUMPI DUP1 PUSH4 0x7A08D730 EQ PUSH2 0x150B JUMPI DUP1 PUSH4 0x7E923B72 EQ PUSH2 0x14C6 JUMPI DUP1 PUSH4 0x88B21872 EQ PUSH2 0x1455 JUMPI DUP1 PUSH4 0x9DCB511A EQ PUSH2 0x141A JUMPI DUP1 PUSH4 0xAFA9862A EQ PUSH2 0x1296 JUMPI DUP1 PUSH4 0xD02641A0 EQ PUSH2 0x126B JUMPI DUP1 PUSH4 0xDAA12A36 EQ PUSH2 0xEF3 JUMPI DUP1 PUSH4 0xDC4C90D3 EQ PUSH2 0xEAE JUMPI DUP1 PUSH4 0xF2511BB1 EQ PUSH2 0x4BF JUMPI DUP1 PUSH4 0xF76E3696 EQ PUSH2 0x246 JUMPI DUP1 PUSH4 0xF851A440 EQ PUSH2 0x21D JUMPI PUSH4 0xFABB6A38 EQ PUSH2 0x132 JUMPI PUSH1 0x0 DUP1 REVERT JUMPDEST CALLVALUE PUSH2 0x218 JUMPI PUSH1 0x20 DUP1 PUSH1 0x3 NOT CALLDATASIZE ADD SLT PUSH2 0x218 JUMPI PUSH1 0x4 CALLDATALOAD SWAP1 CALLER PUSH1 0x0 MSTORE PUSH1 0x2 DUP2 MSTORE PUSH2 0x163 PUSH1 0x1 PUSH1 0x40 PUSH1 0x0 KECCAK256 ADD SLOAD ISZERO ISZERO PUSH2 0x21E4 JUMP JUMPDEST DUP2 ISZERO PUSH2 0x1C9 JUMPI CALLER PUSH1 0x0 MSTORE PUSH1 0x2 DUP2 MSTORE DUP2 PUSH1 0x2 PUSH1 0x40 PUSH1 0x0 KECCAK256 ADD SSTORE PUSH2 0x185 DUP3 TIMESTAMP PUSH2 0x218B JUMP JUMPDEST SWAP1 CALLER PUSH1 0x0 MSTORE PUSH1 0x2 DUP2 MSTORE DUP2 PUSH1 0x1 PUSH1 0x40 PUSH1 0x0 KECCAK256 ADD SSTORE PUSH1 0x40 MLOAD SWAP3 DUP4 MSTORE DUP3 ADD MSTORE PUSH32 0x270517E45D27F999FAEF5E16A3159117C83577723363227C5901CB52E315D868 PUSH1 0x40 CALLER SWAP3 LOG2 STOP JUMPDEST PUSH1 0x84 SWAP1 PUSH1 0x40 MLOAD SWAP1 PUSH3 0x461BCD PUSH1 0xE5 SHL DUP3 MSTORE PUSH1 0x4 DUP3 ADD MSTORE PUSH1 0x22 PUSH1 0x24 DUP3 ADD MSTORE PUSH32 0x4475726174696F6E206D7573742062652067726561746572207468616E207A65 PUSH1 0x44 DUP3 ADD MSTORE PUSH2 0x726F PUSH1 0xF0 SHL PUSH1 0x64 DUP3 ADD MSTORE REVERT JUMPDEST PUSH1 0x0 DUP1 REVERT JUMPDEST CALLVALUE PUSH2 0x218 JUMPI PUSH1 0x0 CALLDATASIZE PUSH1 0x3 NOT ADD SLT PUSH2 0x218 JUMPI PUSH1 0x1 SLOAD PUSH1 0x40 MLOAD PUSH1 0x1 PUSH1 0x1 PUSH1 0xA0 SHL SUB SWAP1 SWAP2 AND DUP2 MSTORE PUSH1 0x20 SWAP1 RETURN JUMPDEST CALLVALUE PUSH2 0x218 JUMPI PUSH1 0x60 CALLDATASIZE PUSH1 0x3 NOT ADD SLT PUSH2 0x218 JUMPI PUSH2 0x25F PUSH2 0x2030 JUMP JUMPDEST PUSH2 0x267 PUSH2 0x2046 JUMP JUMPDEST SWAP1 PUSH1 0x44 CALLDATALOAD PUSH1 0x1 DUP1 PUSH1 0xA0 SHL SUB DUP1 SWAP3 AND SWAP2 DUP3 PUSH1 0x0 MSTORE PUSH1 0x20 SWAP2 PUSH1 0x3 DUP4 MSTORE DUP2 PUSH1 0x40 PUSH1 0x0 KECCAK256 SWAP6 AND SWAP5 DUP6 PUSH1 0x0 MSTORE DUP4 MSTORE PUSH1 0x40 PUSH1 0x0 KECCAK256 PUSH1 0x5 DUP2 ADD PUSH2 0x2A6 PUSH1 0xFF DUP3 SLOAD AND PUSH2 0x214A JUMP JUMPDEST PUSH1 0x3 DUP3 ADD SLOAD PUSH1 0x4 DUP4 ADD SLOAD SWAP1 PUSH2 0x2BB DUP3 DUP3 PUSH2 0x218B JUMP JUMPDEST TIMESTAMP LT ISZERO PUSH2 0x48A JUMPI DUP5 ISZERO PUSH2 0x439 JUMPI SWAP1 PUSH2 0x2FB PUSH2 0x2D9 PUSH2 0x301 SWAP4 TIMESTAMP PUSH2 0x224E JUMP JUMPDEST SWAP2 PUSH2 0x2F6 PUSH1 0x1 DUP8 ADD SLOAD SWAP4 PUSH2 0x2F1 PUSH1 0x2 DUP10 ADD SLOAD DUP7 PUSH2 0x224E JUMP JUMPDEST PUSH2 0x22B1 JUMP JUMPDEST PUSH2 0x22C4 JUMP JUMPDEST SWAP1 PUSH2 0x224E JUMP JUMPDEST SWAP4 DUP5 DUP5 LT PUSH2 0x406 JUMPI SWAP3 PUSH1 0x6 PUSH1 0x60 SWAP6 SWAP4 PUSH2 0x3B6 DUP4 SWAP5 PUSH32 0x703F9D09ECB9C1CB479797AC961A23F831480452F96FB5CDFE420B352742A464 SWAP10 SWAP8 DUP12 PUSH1 0x0 MSTORE PUSH1 0x2 DUP10 MSTORE PUSH1 0xFF PUSH1 0x4 PUSH1 0x40 PUSH1 0x0 KECCAK256 ADD SLOAD PUSH1 0x8 SHR AND PUSH1 0x0 EQ PUSH2 0x3DF JUMPI DUP1 PUSH32 0x0 JUMPDEST AND SWAP1 PUSH2 0x387 DUP8 ADDRESS CALLER DUP6 PUSH2 0x2580 JUMP JUMPDEST DUP3 SLOAD PUSH1 0x8 SHR AND SWAP1 DUP2 PUSH2 0x3CA JUMPI JUMPDEST POP POP DUP1 SLOAD PUSH2 0x100 PUSH1 0x1 PUSH1 0xA8 SHL SUB NOT AND CALLER PUSH1 0x8 SHL PUSH2 0x100 PUSH1 0x1 PUSH1 0xA8 SHL SUB AND OR SWAP1 SSTORE JUMP JUMPDEST ADD SSTORE PUSH1 0x40 MLOAD SWAP3 CALLER DUP5 MSTORE DUP4 ADD MSTORE PUSH1 0x40 DUP3 ADD MSTORE LOG3 STOP JUMPDEST PUSH2 0x3D8 SWAP2 DUP7 DUP7 ADD SLOAD SWAP2 PUSH2 0x24B1 JUMP JUMPDEST DUP13 DUP1 PUSH2 0x394 JUMP JUMPDEST DUP1 PUSH32 0x0 PUSH2 0x379 JUMP JUMPDEST PUSH1 0x40 MLOAD PUSH3 0x461BCD PUSH1 0xE5 SHL DUP2 MSTORE PUSH1 0x4 DUP2 ADD DUP8 SWAP1 MSTORE PUSH1 0xB PUSH1 0x24 DUP3 ADD MSTORE PUSH11 0x42696420746F6F206C6F77 PUSH1 0xA8 SHL PUSH1 0x44 DUP3 ADD MSTORE PUSH1 0x64 SWAP1 REVERT JUMPDEST PUSH1 0x40 MLOAD PUSH3 0x461BCD PUSH1 0xE5 SHL DUP2 MSTORE PUSH1 0x4 DUP2 ADD DUP9 SWAP1 MSTORE PUSH1 0x24 DUP1 DUP3 ADD MSTORE PUSH32 0x42696420616D6F756E74206D7573742062652067726561746572207468616E20 PUSH1 0x44 DUP3 ADD MSTORE PUSH4 0x7A65726F PUSH1 0xE0 SHL PUSH1 0x64 DUP3 ADD MSTORE PUSH1 0x84 SWAP1 REVERT JUMPDEST PUSH1 0x40 MLOAD PUSH3 0x461BCD PUSH1 0xE5 SHL DUP2 MSTORE PUSH1 0x4 DUP2 ADD DUP9 SWAP1 MSTORE PUSH1 0xD PUSH1 0x24 DUP3 ADD MSTORE PUSH13 0x105D58DD1A5BDB88195B991959 PUSH1 0x9A SHL PUSH1 0x44 DUP3 ADD MSTORE PUSH1 0x64 SWAP1 REVERT JUMPDEST CALLVALUE PUSH2 0x218 JUMPI PUSH1 0x20 CALLDATASIZE PUSH1 0x3 NOT ADD SLT PUSH2 0x218 JUMPI PUSH2 0x4D8 PUSH2 0x2030 JUMP JUMPDEST PUSH1 0x1 PUSH1 0x1 PUSH1 0xA0 SHL SUB DUP2 AND PUSH1 0x0 SWAP1 DUP2 MSTORE PUSH1 0x2 PUSH1 0x20 MSTORE PUSH1 0x40 SWAP1 KECCAK256 PUSH1 0x1 DUP2 ADD SLOAD PUSH2 0x500 DUP2 ISZERO ISZERO PUSH2 0x2198 JUMP JUMPDEST TIMESTAMP LT PUSH2 0xE69 JUMPI PUSH1 0x4 DUP2 ADD SLOAD PUSH1 0xFF AND ISZERO PUSH2 0x835 JUMPI PUSH1 0x0 JUMPDEST PUSH1 0x3 DUP3 ADD SLOAD DUP2 LT ISZERO PUSH2 0x7EC JUMPI PUSH2 0x52F DUP2 PUSH1 0x3 DUP5 ADD PUSH2 0x2220 JUMP JUMPDEST SWAP1 SLOAD PUSH1 0x1 PUSH1 0x1 PUSH1 0xA0 SHL SUB PUSH1 0x3 SWAP3 SWAP1 SWAP3 SHL SHR DUP2 AND SWAP2 SWAP1 PUSH32 0x0 AND DUP3 EQ PUSH2 0x7E3 JUMPI PUSH1 0x40 MLOAD PUSH4 0x70A08231 PUSH1 0xE0 SHL DUP2 MSTORE PUSH1 0x1 PUSH1 0x1 PUSH1 0xA0 SHL SUB DUP6 AND PUSH1 0x4 DUP3 ADD MSTORE SWAP2 PUSH1 0x20 DUP4 PUSH1 0x24 DUP2 DUP5 GAS STATICCALL SWAP3 DUP4 ISZERO PUSH2 0x7D7 JUMPI PUSH1 0x0 SWAP4 PUSH2 0x7A3 JUMPI JUMPDEST POP DUP3 PUSH2 0x5B4 JUMPI JUMPDEST POP PUSH1 0x1 SWAP2 POP JUMPDEST ADD PUSH2 0x516 JUMP JUMPDEST PUSH4 0x5F5E100 PUSH2 0x5CB PUSH2 0x5C5 DUP4 PUSH2 0x2377 JUMP JUMPDEST DUP6 PUSH2 0x22B1 JUMP JUMPDEST DIV DUP1 ISZERO SWAP1 DUP1 DUP1 DIV PUSH1 0x1 EQ DUP3 OR ISZERO PUSH2 0x78D JUMPI PUSH2 0x5EA PUSH2 0x3E8 DUP3 DIV DUP3 PUSH2 0x218B JUMP JUMPDEST SWAP2 PUSH1 0xA SWAP1 DUP3 DUP3 DUP2 MUL DIV DUP3 EQ OR ISZERO PUSH2 0x78D JUMPI DUP2 PUSH1 0x64 PUSH2 0x60E SWAP3 PUSH2 0x617 SWAP5 MUL DIV SWAP1 PUSH2 0x224E JUMP JUMPDEST SWAP5 ADDRESS DUP9 DUP6 PUSH2 0x2580 JUMP JUMPDEST PUSH1 0x40 MLOAD SWAP4 DUP5 PUSH2 0x100 DUP2 ADD LT PUSH8 0xFFFFFFFFFFFFFFFF PUSH2 0x100 DUP8 ADD GT OR PUSH2 0x777 JUMPI DUP5 PUSH2 0x100 PUSH1 0x1 SWAP7 ADD PUSH1 0x40 MSTORE DUP4 DUP2 MSTORE DUP3 PUSH1 0x20 DUP3 ADD MSTORE DUP2 PUSH1 0x40 DUP3 ADD MSTORE TIMESTAMP PUSH1 0x60 DUP3 ADD MSTORE PUSH2 0xE10 PUSH1 0x80 DUP3 ADD MSTORE DUP6 PUSH1 0xA0 DUP3 ADD MSTORE PUSH1 0x0 PUSH1 0xC0 DUP3 ADD MSTORE PUSH1 0x0 PUSH1 0xE0 DUP3 ADD MSTORE DUP6 DUP1 PUSH1 0xA0 SHL SUB DUP9 AND PUSH1 0x0 MSTORE PUSH1 0x3 PUSH1 0x20 MSTORE PUSH1 0x40 PUSH1 0x0 KECCAK256 DUP5 PUSH1 0x0 MSTORE PUSH1 0x20 MSTORE PUSH1 0x6 PUSH1 0xE0 PUSH1 0x40 PUSH1 0x0 KECCAK256 SWAP3 DUP9 DUP1 PUSH1 0xA0 SHL SUB DUP2 MLOAD AND PUSH1 0x1 PUSH1 0x1 PUSH1 0x60 SHL SUB PUSH1 0xA0 SHL DUP6 SLOAD AND OR DUP5 SSTORE PUSH1 0x20 DUP2 ADD MLOAD DUP10 DUP6 ADD SSTORE PUSH1 0x40 DUP2 ADD MLOAD PUSH1 0x2 DUP6 ADD SSTORE PUSH1 0x60 DUP2 ADD MLOAD PUSH1 0x3 DUP6 ADD SSTORE PUSH1 0x80 DUP2 ADD MLOAD PUSH1 0x4 DUP6 ADD SSTORE PUSH2 0x72C PUSH1 0x5 DUP6 ADD PUSH2 0x6FC PUSH1 0xA0 DUP5 ADD MLOAD ISZERO ISZERO DUP3 SWAP1 PUSH1 0xFF DUP1 NOT DUP4 SLOAD AND SWAP2 ISZERO ISZERO AND OR SWAP1 SSTORE JUMP JUMPDEST PUSH1 0xC0 DUP4 ADD MLOAD DUP2 SLOAD PUSH2 0x100 PUSH1 0x1 PUSH1 0xA8 SHL SUB NOT AND PUSH1 0xA0 DUP14 SWAP1 SHL DUP14 SWAP1 SUB SWAP2 SWAP1 SWAP2 AND PUSH1 0x8 SHL PUSH2 0x100 PUSH1 0x1 PUSH1 0xA8 SHL SUB AND OR SWAP1 SSTORE JUMP JUMPDEST ADD MLOAD SWAP2 ADD SSTORE PUSH1 0x40 MLOAD SWAP2 DUP3 MSTORE PUSH1 0x20 DUP3 ADD MSTORE PUSH2 0xE10 PUSH1 0x40 DUP3 ADD MSTORE PUSH32 0x39A3045328465C82468E6E1DC742164B5A9097C34CF56EE021A8431685C52DBE PUSH1 0x60 DUP6 DUP1 PUSH1 0xA0 SHL SUB DUP9 AND SWAP3 LOG3 DUP5 PUSH2 0x5A8 JUMP JUMPDEST PUSH4 0x4E487B71 PUSH1 0xE0 SHL PUSH1 0x0 MSTORE PUSH1 0x41 PUSH1 0x4 MSTORE PUSH1 0x24 PUSH1 0x0 REVERT JUMPDEST PUSH4 0x4E487B71 PUSH1 0xE0 SHL PUSH1 0x0 MSTORE PUSH1 0x11 PUSH1 0x4 MSTORE PUSH1 0x24 PUSH1 0x0 REVERT JUMPDEST SWAP1 SWAP3 POP PUSH1 0x20 DUP2 RETURNDATASIZE PUSH1 0x20 GT PUSH2 0x7CF JUMPI JUMPDEST DUP2 PUSH2 0x7BF PUSH1 0x20 SWAP4 DUP4 PUSH2 0x2128 JUMP JUMPDEST DUP2 ADD SUB SLT PUSH2 0x218 JUMPI MLOAD SWAP2 DUP6 PUSH2 0x5A1 JUMP JUMPDEST RETURNDATASIZE SWAP2 POP PUSH2 0x7B2 JUMP JUMPDEST PUSH1 0x40 MLOAD RETURNDATASIZE PUSH1 0x0 DUP3 RETURNDATACOPY RETURNDATASIZE SWAP1 REVERT JUMPDEST PUSH1 0x1 SWAP2 POP PUSH2 0x5AE JUMP JUMPDEST POP JUMPDEST PUSH1 0x0 PUSH1 0x1 DUP3 ADD DUP2 SWAP1 SSTORE SWAP1 SLOAD PUSH1 0x40 MLOAD SWAP2 DUP3 MSTORE PUSH1 0x1 PUSH1 0x1 PUSH1 0xA0 SHL SUB SWAP1 DUP2 AND SWAP3 AND SWAP1 PUSH32 0xDE3F14CE4426137F4576388D16723795D5BF5E2F00597E0E8D63816A7342A1E1 SWAP1 PUSH1 0x20 SWAP1 LOG3 STOP JUMPDEST PUSH1 0x0 SWAP2 PUSH1 0x0 JUMPDEST PUSH1 0x3 DUP4 ADD SLOAD DUP2 LT ISZERO PUSH2 0xE61 JUMPI PUSH2 0x854 DUP2 PUSH1 0x3 DUP6 ADD PUSH2 0x2220 JUMP JUMPDEST SWAP1 SLOAD PUSH1 0x1 PUSH1 0x1 PUSH1 0xA0 SHL SUB PUSH1 0x3 SWAP3 SWAP1 SWAP3 SHL SHR DUP2 AND SWAP1 PUSH32 0x0 AND DUP2 EQ DUP1 ISZERO PUSH2 0xE2F JUMPI JUMPDEST PUSH2 0xE26 JUMPI PUSH1 0x40 MLOAD PUSH4 0x70A08231 PUSH1 0xE0 SHL DUP2 MSTORE PUSH1 0x1 PUSH1 0x1 PUSH1 0xA0 SHL SUB DUP5 AND PUSH1 0x4 DUP3 ADD MSTORE SWAP1 PUSH1 0x20 DUP3 PUSH1 0x24 DUP2 DUP5 GAS STATICCALL SWAP2 DUP3 ISZERO PUSH2 0x7D7 JUMPI PUSH1 0x0 SWAP3 PUSH2 0xDF2 JUMPI JUMPDEST POP DUP2 PUSH2 0x8DF JUMPI JUMPDEST POP POP PUSH1 0x1 SWAP1 JUMPDEST ADD PUSH2 0x83B JUMP JUMPDEST PUSH2 0x8EB DUP3 ADDRESS DUP7 DUP5 PUSH2 0x2580 JUMP JUMPDEST PUSH1 0x40 MLOAD PUSH4 0x95EA7B3 PUSH1 0xE0 SHL DUP2 MSTORE PUSH1 0x1 PUSH1 0x1 PUSH1 0xA0 SHL SUB PUSH32 0x0 AND PUSH1 0x4 DUP3 ADD MSTORE PUSH1 0x24 DUP2 ADD DUP4 SWAP1 MSTORE SWAP2 PUSH1 0x20 DUP4 PUSH1 0x44 DUP2 PUSH1 0x0 DUP7 GAS CALL SWAP2 DUP3 ISZERO PUSH2 0x7D7 JUMPI PUSH2 0xA2F SWAP4 PUSH1 0x20 SWAP4 PUSH2 0xDD5 JUMPI JUMPDEST POP PUSH1 0x40 MLOAD SWAP1 PUSH2 0x95B DUP3 PUSH2 0x20F0 JUMP JUMPDEST DUP2 MSTORE PUSH1 0x1 PUSH1 0x1 PUSH1 0xA0 SHL SUB PUSH32 0x0 DUP2 AND DUP5 DUP4 ADD MSTORE PUSH2 0xBB8 PUSH1 0x40 DUP1 DUP5 ADD SWAP2 SWAP1 SWAP2 MSTORE PUSH1 0x3C PUSH1 0x60 DUP5 ADD MSTORE PUSH32 0x0 SWAP1 SWAP2 AND PUSH1 0x80 DUP4 ADD MSTORE MLOAD SWAP2 PUSH2 0x9D3 DUP4 PUSH2 0x210C JUMP JUMPDEST PUSH1 0x1 DUP4 MSTORE DUP4 DUP4 ADD MSTORE PUSH1 0x0 PUSH1 0x40 DUP1 DUP5 ADD SWAP2 SWAP1 SWAP2 MSTORE DUP8 SLOAD DUP2 MLOAD PUSH1 0x1 PUSH1 0x1 PUSH1 0xA0 SHL SUB SWAP2 DUP3 AND DUP2 DUP8 ADD SWAP1 DUP2 MSTORE PUSH32 0x0 SWAP1 SWAP3 AND PUSH1 0x20 DUP4 ADD MSTORE SWAP6 PUSH2 0xA3D SWAP3 DUP8 SWAP3 ADD SWAP1 JUMP JUMPDEST SUB PUSH1 0x1F NOT DUP2 ADD DUP7 MSTORE DUP6 PUSH2 0x2128 JUMP JUMPDEST PUSH2 0xA5B PUSH1 0x40 MLOAD SWAP5 DUP6 SWAP4 DUP5 SWAP4 PUSH4 0x3CF36453 PUSH1 0xE2 SHL DUP6 MSTORE PUSH1 0x4 DUP6 ADD PUSH2 0x250C JUMP JUMPDEST SUB DUP2 PUSH1 0x0 PUSH32 0x0 PUSH1 0x1 PUSH1 0x1 PUSH1 0xA0 SHL SUB AND GAS CALL SWAP1 DUP2 ISZERO PUSH2 0x7D7 JUMPI PUSH1 0x0 SWAP2 PUSH2 0xDA3 JUMPI JUMPDEST POP DUP1 PUSH1 0x80 SAR SWAP1 PUSH1 0x0 SWAP2 PUSH1 0x0 DUP3 PUSH1 0xF SIGNEXTEND SGT PUSH1 0x0 EQ PUSH2 0xD7E JUMPI POP PUSH1 0x1 PUSH1 0x1 PUSH1 0x80 SHL SUB SWAP2 POP AND JUMPDEST DUP1 PUSH2 0xACA JUMPI JUMPDEST DUP1 PUSH2 0x8D3 JUMP JUMPDEST PUSH1 0x4 DUP5 ADD SLOAD SWAP2 SWAP5 SWAP2 PUSH1 0x8 SHR PUSH1 0xFF AND ISZERO PUSH2 0xD6C JUMPI DUP4 SLOAD PUSH1 0x40 MLOAD PUSH4 0x95EA7B3 PUSH1 0xE0 SHL DUP2 MSTORE PUSH1 0x1 PUSH1 0x1 PUSH1 0xA0 SHL SUB PUSH32 0x0 DUP2 AND PUSH1 0x4 DUP4 ADD MSTORE PUSH1 0x24 DUP3 ADD DUP5 SWAP1 MSTORE SWAP1 SWAP2 AND SWAP2 PUSH1 0x20 DUP3 DUP1 PUSH1 0x44 DUP2 ADD SUB DUP2 PUSH1 0x0 PUSH32 0x0 PUSH1 0x1 PUSH1 0x1 PUSH1 0xA0 SHL SUB AND GAS CALL SWAP2 DUP3 ISZERO PUSH2 0x7D7 JUMPI PUSH1 0x20 SWAP3 PUSH2 0xD3F JUMPI JUMPDEST POP PUSH32 0x0 SWAP3 PUSH2 0xC53 PUSH1 0x40 MLOAD SWAP2 PUSH2 0xBA1 DUP4 PUSH2 0x20F0 JUMP JUMPDEST PUSH1 0x1 PUSH1 0x1 PUSH1 0xA0 SHL SUB PUSH32 0x0 DUP2 AND DUP5 MSTORE DUP7 DUP2 AND DUP7 DUP6 ADD MSTORE PUSH2 0xBB8 PUSH1 0x40 DUP1 DUP7 ADD SWAP2 SWAP1 SWAP2 MSTORE PUSH1 0x3C PUSH1 0x60 DUP7 ADD MSTORE PUSH32 0x0 SWAP1 SWAP2 AND PUSH1 0x80 DUP6 ADD MSTORE MLOAD SWAP4 PUSH2 0xC1C DUP6 PUSH2 0x210C JUMP JUMPDEST PUSH1 0x1 DUP6 MSTORE DUP6 DUP6 ADD MSTORE PUSH1 0x0 PUSH1 0x40 DUP1 DUP7 ADD SWAP2 SWAP1 SWAP2 MSTORE DUP1 MLOAD PUSH1 0x1 PUSH1 0x1 PUSH1 0xA0 SHL SUB SWAP3 DUP4 AND DUP2 DUP9 ADD SWAP1 DUP2 MSTORE SWAP3 SWAP1 SWAP8 AND PUSH1 0x20 DUP4 ADD MSTORE DUP7 SWAP2 ADD PUSH2 0xA2F JUMP JUMPDEST PUSH2 0xC71 PUSH1 0x40 MLOAD SWAP5 DUP6 SWAP4 DUP5 SWAP4 PUSH4 0x3CF36453 PUSH1 0xE2 SHL DUP6 MSTORE PUSH1 0x4 DUP6 ADD PUSH2 0x250C JUMP JUMPDEST SUB DUP2 PUSH1 0x0 PUSH32 0x0 PUSH1 0x1 PUSH1 0x1 PUSH1 0xA0 SHL SUB AND GAS CALL SWAP1 DUP2 ISZERO PUSH2 0x7D7 JUMPI PUSH1 0x0 SWAP2 PUSH2 0xD0C JUMPI JUMPDEST POP DUP1 PUSH1 0x1 SWAP3 PUSH2 0xCDF SWAP3 PUSH1 0x80 SAR SWAP2 PUSH1 0x0 SWAP3 PUSH1 0x0 DUP3 PUSH1 0xF SIGNEXTEND SGT PUSH1 0x0 EQ PUSH2 0xCE7 JUMPI POP PUSH1 0x1 PUSH1 0x1 PUSH1 0x80 SHL SUB AND SWAP2 POP PUSH2 0x218B JUMP JUMPDEST SWAP4 JUMPDEST SWAP1 PUSH2 0xAC4 JUMP JUMPDEST SWAP1 POP PUSH1 0x0 DUP2 PUSH1 0xF SIGNEXTEND SGT PUSH2 0xCFB JUMPI JUMPDEST POP PUSH2 0x218B JUMP JUMPDEST PUSH1 0x1 PUSH1 0x1 PUSH1 0x80 SHL SUB AND SWAP2 POP DUP8 PUSH2 0xCF5 JUMP JUMPDEST SWAP1 POP PUSH1 0x20 DUP2 RETURNDATASIZE PUSH1 0x20 GT PUSH2 0xD37 JUMPI JUMPDEST DUP2 PUSH2 0xD27 PUSH1 0x20 SWAP4 DUP4 PUSH2 0x2128 JUMP JUMPDEST DUP2 ADD SUB SLT PUSH2 0x218 JUMPI MLOAD PUSH1 0x1 PUSH2 0xCB0 JUMP JUMPDEST RETURNDATASIZE SWAP2 POP PUSH2 0xD1A JUMP JUMPDEST PUSH2 0xD5E SWAP1 DUP4 RETURNDATASIZE DUP6 GT PUSH2 0xD65 JUMPI JUMPDEST PUSH2 0xD56 DUP2 DUP4 PUSH2 0x2128 JUMP JUMPDEST DUP2 ADD SWAP1 PUSH2 0x24F4 JUMP JUMPDEST POP DUP8 PUSH2 0xB6E JUMP JUMPDEST POP RETURNDATASIZE PUSH2 0xD4C JUMP JUMPDEST PUSH2 0xD78 SWAP1 PUSH1 0x1 SWAP3 PUSH2 0x218B JUMP JUMPDEST SWAP4 PUSH2 0xCE1 JUMP JUMPDEST SWAP1 POP PUSH1 0x0 DUP2 PUSH1 0xF SIGNEXTEND SGT PUSH2 0xD92 JUMPI JUMPDEST POP PUSH2 0xABE JUMP JUMPDEST PUSH1 0x1 PUSH1 0x1 PUSH1 0x80 SHL SUB SWAP2 POP AND DUP6 PUSH2 0xD8C JUMP JUMPDEST SWAP1 POP PUSH1 0x20 DUP2 RETURNDATASIZE PUSH1 0x20 GT PUSH2 0xDCD JUMPI JUMPDEST DUP2 PUSH2 0xDBE PUSH1 0x20 SWAP4 DUP4 PUSH2 0x2128 JUMP JUMPDEST DUP2 ADD SUB SLT PUSH2 0x218 JUMPI MLOAD DUP6 PUSH2 0xA9A JUMP JUMPDEST RETURNDATASIZE SWAP2 POP PUSH2 0xDB1 JUMP JUMPDEST PUSH2 0xDEB SWAP1 DUP5 RETURNDATASIZE DUP7 GT PUSH2 0xD65 JUMPI PUSH2 0xD56 DUP2 DUP4 PUSH2 0x2128 JUMP JUMPDEST POP DUP9 PUSH2 0x94D JUMP JUMPDEST SWAP1 SWAP2 POP PUSH1 0x20 DUP2 RETURNDATASIZE PUSH1 0x20 GT PUSH2 0xE1E JUMPI JUMPDEST DUP2 PUSH2 0xE0E PUSH1 0x20 SWAP4 DUP4 PUSH2 0x2128 JUMP JUMPDEST DUP2 ADD SUB SLT PUSH2 0x218 JUMPI MLOAD SWAP1 DUP7 PUSH2 0x8CC JUMP JUMPDEST RETURNDATASIZE SWAP2 POP PUSH2 0xE01 JUMP JUMPDEST POP PUSH1 0x1 SWAP1 PUSH2 0x8D9 JUMP JUMPDEST POP PUSH32 0x0 PUSH1 0x1 PUSH1 0x1 PUSH1 0xA0 SHL SUB AND DUP2 EQ PUSH2 0x893 JUMP JUMPDEST POP SWAP2 POP PUSH2 0x7EE JUMP JUMPDEST PUSH1 0x40 MLOAD PUSH3 0x461BCD PUSH1 0xE5 SHL DUP2 MSTORE PUSH1 0x20 PUSH1 0x4 DUP3 ADD MSTORE PUSH1 0x17 PUSH1 0x24 DUP3 ADD MSTORE PUSH32 0x446561646C696E6520686173206E6F7420706173736564000000000000000000 PUSH1 0x44 DUP3 ADD MSTORE PUSH1 0x64 SWAP1 REVERT JUMPDEST CALLVALUE PUSH2 0x218 JUMPI PUSH1 0x0 CALLDATASIZE PUSH1 0x3 NOT ADD SLT PUSH2 0x218 JUMPI PUSH1 0x40 MLOAD PUSH32 0x0 PUSH1 0x1 PUSH1 0x1 PUSH1 0xA0 SHL SUB AND DUP2 MSTORE PUSH1 0x20 SWAP1 RETURN JUMPDEST CALLVALUE PUSH2 0x218 JUMPI PUSH1 0xA0 CALLDATASIZE PUSH1 0x3 NOT ADD SLT PUSH2 0x218 JUMPI PUSH2 0xF0C PUSH2 0x2030 JUMP JUMPDEST PUSH1 0x44 CALLDATALOAD PUSH8 0xFFFFFFFFFFFFFFFF DUP2 GT PUSH2 0x218 JUMPI PUSH2 0xF2C SWAP1 CALLDATASIZE SWAP1 PUSH1 0x4 ADD PUSH2 0x207F JUMP JUMPDEST SWAP2 SWAP1 PUSH1 0x64 CALLDATALOAD SWAP1 DUP2 ISZERO ISZERO DUP3 SUB PUSH2 0x218 JUMPI PUSH1 0x84 CALLDATALOAD SWAP1 DUP2 ISZERO ISZERO DUP3 SUB PUSH2 0x218 JUMPI CALLER PUSH1 0x0 MSTORE PUSH1 0x2 PUSH1 0x20 MSTORE PUSH1 0x1 PUSH1 0x40 PUSH1 0x0 KECCAK256 ADD SLOAD PUSH2 0x1226 JUMPI PUSH1 0x1 PUSH1 0x1 PUSH1 0xA0 SHL SUB DUP5 AND ISZERO PUSH2 0x11D2 JUMPI PUSH1 0x24 CALLDATALOAD ISZERO PUSH2 0x1179 JUMPI PUSH2 0xF81 PUSH1 0x24 CALLDATALOAD TIMESTAMP PUSH2 0x218B JUMP JUMPDEST SWAP1 PUSH1 0x40 MLOAD SWAP2 PUSH1 0xC0 DUP4 ADD DUP4 DUP2 LT PUSH8 0xFFFFFFFFFFFFFFFF DUP3 GT OR PUSH2 0x777 JUMPI PUSH1 0x40 MSTORE PUSH1 0x1 DUP1 PUSH1 0xA0 SHL SUB DUP7 AND DUP4 MSTORE PUSH1 0x20 DUP4 ADD MSTORE PUSH1 0x24 CALLDATALOAD PUSH1 0x40 DUP4 ADD MSTORE PUSH8 0xFFFFFFFFFFFFFFFF DUP7 GT PUSH2 0x777 JUMPI DUP6 PUSH1 0x5 SHL PUSH1 0x40 MLOAD SWAP7 PUSH2 0xFDC PUSH1 0x20 DUP4 ADD DUP10 PUSH2 0x2128 JUMP JUMPDEST DUP8 MSTORE PUSH1 0x20 DUP8 ADD SWAP1 CALLDATASIZE DUP2 DUP5 ADD GT PUSH2 0x218 JUMPI DUP3 SWAP2 JUMPDEST DUP2 DUP5 ADD DUP4 LT PUSH2 0x1161 JUMPI POP POP POP POP PUSH1 0x60 DUP2 ADD SWAP5 DUP6 MSTORE PUSH1 0x80 DUP2 ADD SWAP3 ISZERO ISZERO DUP4 MSTORE PUSH1 0xA0 DUP2 ADD SWAP2 ISZERO ISZERO DUP3 MSTORE CALLER PUSH1 0x0 MSTORE PUSH1 0x2 PUSH1 0x20 MSTORE PUSH1 0x40 DUP1 PUSH1 0x0 KECCAK256 SWAP2 PUSH1 0x1 DUP1 PUSH1 0xA0 SHL SUB DUP2 MLOAD AND PUSH1 0x1 PUSH1 0x1 PUSH1 0x60 SHL SUB PUSH1 0xA0 SHL DUP5 SLOAD AND OR DUP4 SSTORE PUSH1 0x20 DUP2 ADD MLOAD PUSH1 0x1 DUP5 ADD SSTORE ADD MLOAD PUSH1 0x2 DUP3 ADD SSTORE PUSH1 0x3 DUP2 ADD SWAP5 MLOAD DUP1 MLOAD SWAP1 PUSH8 0xFFFFFFFFFFFFFFFF DUP3 GT PUSH2 0x777 JUMPI PUSH1 0x1 PUSH1 0x40 SHL DUP3 GT PUSH2 0x777 JUMPI DUP7 SLOAD DUP3 DUP9 SSTORE DUP1 DUP4 LT PUSH2 0x1138 JUMPI JUMPDEST POP PUSH1 0x20 ADD SWAP6 PUSH1 0x0 MSTORE PUSH1 0x20 PUSH1 0x0 KECCAK256 SWAP6 PUSH1 0x0 JUMPDEST DUP3 DUP2 LT PUSH2 0x111B JUMPI DUP7 PUSH2 0x10D3 DUP8 DUP8 PUSH2 0x10BC PUSH1 0x4 DUP10 ADD SWAP3 MLOAD ISZERO ISZERO DUP4 SWAP1 PUSH1 0xFF DUP1 NOT DUP4 SLOAD AND SWAP2 ISZERO ISZERO AND OR SWAP1 SSTORE JUMP JUMPDEST MLOAD DUP2 SLOAD PUSH2 0xFF00 NOT AND SWAP1 ISZERO ISZERO PUSH1 0x8 SHL PUSH2 0xFF00 AND OR SWAP1 SSTORE JUMP JUMPDEST PUSH2 0x10DF PUSH1 0x24 CALLDATALOAD TIMESTAMP PUSH2 0x218B JUMP JUMPDEST PUSH1 0x40 MLOAD SWAP1 DUP2 MSTORE PUSH1 0x1 PUSH1 0x1 PUSH1 0xA0 SHL SUB SWAP1 SWAP2 AND SWAP1 CALLER SWAP1 PUSH32 0xD4C9FB4A0298B2717518A542BD4801CE0CB35FD35087636887F9E87AD8D75A3F SWAP1 PUSH1 0x20 SWAP1 LOG3 STOP JUMPDEST DUP2 MLOAD PUSH1 0x1 PUSH1 0x1 PUSH1 0xA0 SHL SUB AND DUP2 DUP10 ADD SSTORE PUSH1 0x20 SWAP1 SWAP2 ADD SWAP1 PUSH1 0x1 ADD PUSH2 0x1092 JUMP JUMPDEST DUP8 PUSH1 0x0 MSTORE DUP3 PUSH1 0x20 PUSH1 0x0 KECCAK256 SWAP2 DUP3 ADD SWAP2 ADD JUMPDEST DUP2 DUP2 LT PUSH2 0x1155 JUMPI POP PUSH2 0x1081 JUMP JUMPDEST PUSH1 0x0 DUP2 SSTORE PUSH1 0x1 ADD PUSH2 0x1148 JUMP JUMPDEST PUSH1 0x20 DUP1 SWAP2 PUSH2 0x116E DUP6 PUSH2 0x205C JUMP JUMPDEST DUP2 MSTORE ADD SWAP3 ADD SWAP2 PUSH2 0xFEF JUMP JUMPDEST PUSH1 0x40 MLOAD PUSH3 0x461BCD PUSH1 0xE5 SHL DUP2 MSTORE PUSH1 0x20 PUSH1 0x4 DUP3 ADD MSTORE PUSH1 0x2B PUSH1 0x24 DUP3 ADD MSTORE PUSH32 0x446561646C696E65206475726174696F6E206D75737420626520677265617465 PUSH1 0x44 DUP3 ADD MSTORE PUSH11 0x72207468616E207A65726F PUSH1 0xA8 SHL PUSH1 0x64 DUP3 ADD MSTORE PUSH1 0x84 SWAP1 REVERT JUMPDEST PUSH1 0x40 MLOAD PUSH3 0x461BCD PUSH1 0xE5 SHL DUP2 MSTORE PUSH1 0x20 PUSH1 0x4 DUP3 ADD MSTORE PUSH1 0x26 PUSH1 0x24 DUP3 ADD MSTORE PUSH32 0x42656E65666963696172792063616E6E6F7420626520746865207A65726F2061 PUSH1 0x44 DUP3 ADD MSTORE PUSH6 0x646472657373 PUSH1 0xD0 SHL PUSH1 0x64 DUP3 ADD MSTORE PUSH1 0x84 SWAP1 REVERT JUMPDEST PUSH1 0x40 MLOAD PUSH3 0x461BCD PUSH1 0xE5 SHL DUP2 MSTORE PUSH1 0x20 PUSH1 0x4 DUP3 ADD MSTORE PUSH1 0x1B PUSH1 0x24 DUP3 ADD MSTORE PUSH32 0x4163636F756E7420616C726561647920696E697469616C697A65640000000000 PUSH1 0x44 DUP3 ADD MSTORE PUSH1 0x64 SWAP1 REVERT JUMPDEST CALLVALUE PUSH2 0x218 JUMPI PUSH1 0x20 CALLDATASIZE PUSH1 0x3 NOT ADD SLT PUSH2 0x218 JUMPI PUSH1 0x20 PUSH2 0x128E PUSH2 0x1289 PUSH2 0x2030 JUMP JUMPDEST PUSH2 0x2377 JUMP JUMPDEST PUSH1 0x40 MLOAD SWAP1 DUP2 MSTORE RETURN JUMPDEST CALLVALUE PUSH2 0x218 JUMPI PUSH1 0x40 CALLDATASIZE PUSH1 0x3 NOT ADD SLT PUSH2 0x218 JUMPI PUSH8 0xFFFFFFFFFFFFFFFF PUSH1 0x24 CALLDATALOAD PUSH1 0x4 CALLDATALOAD DUP3 DUP3 GT PUSH2 0x218 JUMPI CALLDATASIZE PUSH1 0x23 DUP4 ADD SLT ISZERO PUSH2 0x218 JUMPI DUP2 PUSH1 0x4 ADD CALLDATALOAD DUP4 DUP2 GT PUSH2 0x218 JUMPI DUP3 ADD SWAP1 CALLDATASIZE PUSH1 0x24 DUP4 ADD GT PUSH2 0x218 JUMPI PUSH1 0x1 PUSH1 0x1 PUSH1 0xA0 SHL SUB SWAP2 PUSH32 0x0 DUP4 AND CALLER SUB PUSH2 0x13D5 JUMPI DUP4 PUSH1 0x40 SWAP2 SUB SLT PUSH2 0x218 JUMPI PUSH2 0x1335 PUSH1 0x44 PUSH2 0x132E PUSH1 0x24 DUP7 ADD PUSH2 0x205C JUMP JUMPDEST SWAP5 ADD PUSH2 0x205C JUMP JUMPDEST SWAP1 DUP1 PUSH1 0x80 SAR PUSH1 0x0 SWAP1 PUSH1 0x0 DUP4 PUSH1 0xF SIGNEXTEND SGT PUSH1 0x0 EQ PUSH2 0x13AE JUMPI POP POP PUSH1 0x1 PUSH1 0x1 PUSH1 0x80 SHL SUB AND SWAP2 JUMPDEST DUP3 PUSH2 0x1398 JUMPI JUMPDEST POP POP POP POP PUSH1 0x40 MLOAD PUSH1 0x20 DUP2 ADD SWAP2 DUP2 DUP4 LT SWAP1 DUP4 GT OR PUSH2 0x777 JUMPI PUSH2 0x1394 SWAP2 PUSH1 0x40 MSTORE PUSH1 0x0 DUP2 MSTORE PUSH1 0x40 MLOAD SWAP2 DUP3 SWAP2 PUSH1 0x20 DUP4 MSTORE PUSH1 0x20 DUP4 ADD SWAP1 PUSH2 0x20B0 JUMP JUMPDEST SUB SWAP1 RETURN JUMPDEST DUP1 PUSH2 0x13A5 SWAP5 AND SWAP2 AND PUSH2 0x24B1 JUMP JUMPDEST DUP2 DUP1 DUP1 DUP1 PUSH2 0x135E JUMP JUMPDEST SWAP1 SWAP4 SWAP2 POP PUSH1 0x0 DUP2 PUSH1 0xF SIGNEXTEND SGT PUSH2 0x13C4 JUMPI JUMPDEST POP PUSH2 0x1358 JUMP JUMPDEST PUSH1 0x1 PUSH1 0x1 PUSH1 0x80 SHL SUB AND SWAP3 POP DUP6 PUSH2 0x13BE JUMP JUMPDEST PUSH1 0x40 MLOAD PUSH3 0x461BCD PUSH1 0xE5 SHL DUP2 MSTORE PUSH1 0x20 PUSH1 0x4 DUP3 ADD MSTORE PUSH1 0x1E PUSH1 0x24 DUP3 ADD MSTORE PUSH32 0x4F6E6C7920506F6F6C4D616E616765722063616E2063616C6C20746869730000 PUSH1 0x44 DUP3 ADD MSTORE PUSH1 0x64 SWAP1 REVERT JUMPDEST CALLVALUE PUSH2 0x218 JUMPI PUSH1 0x20 CALLDATASIZE PUSH1 0x3 NOT ADD SLT PUSH2 0x218 JUMPI PUSH1 0x20 PUSH1 0x1 PUSH1 0x1 PUSH1 0xA0 SHL SUB DUP1 PUSH2 0x143E PUSH2 0x2030 JUMP JUMPDEST AND PUSH1 0x0 MSTORE PUSH1 0x0 DUP3 MSTORE PUSH1 0x40 PUSH1 0x0 KECCAK256 SLOAD AND PUSH1 0x40 MLOAD SWAP1 DUP2 MSTORE RETURN JUMPDEST CALLVALUE PUSH2 0x218 JUMPI PUSH1 0x20 CALLDATASIZE PUSH1 0x3 NOT ADD SLT PUSH2 0x218 JUMPI PUSH1 0xA0 PUSH1 0x1 PUSH1 0x1 PUSH1 0xA0 SHL SUB DUP1 PUSH2 0x1479 PUSH2 0x2030 JUMP JUMPDEST AND PUSH1 0x0 MSTORE PUSH1 0x2 PUSH1 0x20 MSTORE PUSH1 0xFF PUSH1 0x40 PUSH1 0x0 KECCAK256 SWAP2 DUP3 SLOAD AND SWAP2 PUSH1 0x1 DUP2 ADD SLOAD SWAP1 PUSH1 0x4 PUSH1 0x2 DUP3 ADD SLOAD SWAP2 ADD SLOAD SWAP2 PUSH1 0x40 MLOAD SWAP5 DUP6 MSTORE PUSH1 0x20 DUP6 ADD MSTORE PUSH1 0x40 DUP5 ADD MSTORE DUP2 DUP2 AND ISZERO ISZERO PUSH1 0x60 DUP5 ADD MSTORE PUSH1 0x8 SHR AND ISZERO ISZERO PUSH1 0x80 DUP3 ADD MSTORE RETURN JUMPDEST CALLVALUE PUSH2 0x218 JUMPI PUSH1 0x0 CALLDATASIZE PUSH1 0x3 NOT ADD SLT PUSH2 0x218 JUMPI PUSH1 0x40 MLOAD PUSH32 0x0 PUSH1 0x1 PUSH1 0x1 PUSH1 0xA0 SHL SUB AND DUP2 MSTORE PUSH1 0x20 SWAP1 RETURN JUMPDEST CALLVALUE PUSH2 0x218 JUMPI PUSH1 0x40 CALLDATASIZE PUSH1 0x3 NOT ADD SLT PUSH2 0x218 JUMPI PUSH1 0x20 PUSH2 0x128E PUSH2 0x1529 PUSH2 0x2030 JUMP JUMPDEST PUSH2 0x1531 PUSH2 0x2046 JUMP JUMPDEST SWAP1 PUSH2 0x22E4 JUMP JUMPDEST CALLVALUE PUSH2 0x218 JUMPI PUSH1 0x20 DUP1 PUSH1 0x3 NOT CALLDATASIZE ADD SLT PUSH2 0x218 JUMPI PUSH1 0x4 CALLDATALOAD PUSH8 0xFFFFFFFFFFFFFFFF DUP2 GT PUSH2 0x218 JUMPI PUSH2 0x1569 SWAP1 CALLDATASIZE SWAP1 PUSH1 0x4 ADD PUSH2 0x207F JUMP JUMPDEST SWAP1 SWAP2 CALLER PUSH1 0x0 MSTORE PUSH1 0x2 DUP1 DUP3 MSTORE PUSH1 0x1 SWAP1 PUSH2 0x158A PUSH1 0x1 PUSH1 0x40 PUSH1 0x0 KECCAK256 ADD SLOAD ISZERO ISZERO PUSH2 0x21E4 JUMP JUMPDEST PUSH1 0x0 JUMPDEST DUP5 DUP2 LT PUSH2 0x1603 JUMPI POP POP PUSH1 0x40 MLOAD SWAP3 DUP1 DUP4 DUP6 ADD DUP5 DUP7 MSTORE MSTORE PUSH1 0x40 DUP5 ADD SWAP5 SWAP3 PUSH1 0x0 JUMPDEST DUP3 DUP2 LT PUSH2 0x15DB JUMPI CALLER PUSH32 0xB90857F670E2787419D97E8AD1483239915B735FECC028ADF074EF41C09D602C DUP8 DUP10 SUB DUP9 LOG2 STOP JUMPDEST SWAP1 SWAP2 SWAP3 DUP3 DUP1 DUP3 SWAP7 SWAP9 PUSH1 0x1 DUP1 PUSH1 0xA0 SHL SUB PUSH2 0x15F3 DUP12 PUSH2 0x205C JUMP JUMPDEST AND DUP2 MSTORE ADD SWAP8 ADD SWAP5 SWAP4 SWAP3 SWAP2 ADD PUSH2 0x15AB JUMP JUMPDEST CALLER PUSH1 0x0 SWAP1 DUP2 MSTORE DUP3 DUP6 MSTORE PUSH1 0x40 SWAP1 KECCAK256 SWAP4 SWAP5 SWAP3 SWAP4 PUSH1 0x3 ADD SWAP1 PUSH1 0x5 DUP2 SWAP1 SHL DUP8 ADD CALLDATALOAD PUSH1 0x1 PUSH1 0x1 PUSH1 0xA0 SHL SUB DUP2 AND DUP2 SUB PUSH2 0x218 JUMPI DUP3 SLOAD SWAP1 PUSH1 0x1 PUSH1 0x40 SHL DUP3 LT ISZERO PUSH2 0x777 JUMPI PUSH2 0x1652 DUP3 DUP9 SWAP6 DUP7 PUSH2 0x1670 SWAP6 ADD DUP2 SSTORE PUSH2 0x2220 JUMP JUMPDEST SWAP1 SWAP2 SWAP1 PUSH1 0x1 DUP1 PUSH1 0xA0 SHL SUB DUP1 DUP5 SLOAD SWAP3 PUSH1 0x3 SHL SWAP4 AND DUP4 SHL SWAP3 SHL NOT AND OR SWAP1 SSTORE JUMP JUMPDEST ADD SWAP4 SWAP3 SWAP2 SWAP4 PUSH2 0x158D JUMP JUMPDEST CALLVALUE PUSH2 0x218 JUMPI PUSH1 0x40 CALLDATASIZE PUSH1 0x3 NOT ADD SLT PUSH2 0x218 JUMPI PUSH2 0x1693 PUSH2 0x2030 JUMP JUMPDEST PUSH2 0x169B PUSH2 0x2046 JUMP JUMPDEST SWAP1 PUSH1 0x1 DUP1 PUSH1 0xA0 SHL SUB DUP1 SWAP2 PUSH2 0x16B4 DUP3 PUSH1 0x1 SLOAD AND CALLER EQ PUSH2 0x225B JUMP JUMPDEST AND SWAP2 DUP3 ISZERO PUSH2 0x175A JUMPI AND SWAP1 DUP2 ISZERO PUSH2 0x170B JUMPI DUP1 PUSH1 0x0 MSTORE PUSH1 0x0 PUSH1 0x20 MSTORE PUSH1 0x40 PUSH1 0x0 KECCAK256 DUP3 PUSH1 0x1 PUSH1 0x1 PUSH1 0x60 SHL SUB PUSH1 0xA0 SHL DUP3 SLOAD AND OR SWAP1 SSTORE PUSH32 0xA8ABE0398416476DB5B05737CD4DA3B3CBDE5012D978A6A6C3FD49D321753536 PUSH1 0x0 DUP1 LOG3 STOP JUMPDEST PUSH1 0x40 MLOAD PUSH3 0x461BCD PUSH1 0xE5 SHL DUP2 MSTORE PUSH1 0x20 PUSH1 0x4 DUP3 ADD MSTORE PUSH1 0x21 PUSH1 0x24 DUP3 ADD MSTORE PUSH32 0x507269636520666565642063616E6E6F74206265207A65726F20616464726573 PUSH1 0x44 DUP3 ADD MSTORE PUSH1 0x73 PUSH1 0xF8 SHL PUSH1 0x64 DUP3 ADD MSTORE PUSH1 0x84 SWAP1 REVERT JUMPDEST PUSH1 0x40 MLOAD PUSH3 0x461BCD PUSH1 0xE5 SHL DUP2 MSTORE PUSH1 0x20 PUSH1 0x4 DUP3 ADD MSTORE PUSH1 0x1C PUSH1 0x24 DUP3 ADD MSTORE PUSH32 0x546F6B656E2063616E6E6F74206265207A65726F206164647265737300000000 PUSH1 0x44 DUP3 ADD MSTORE PUSH1 0x64 SWAP1 REVERT JUMPDEST CALLVALUE PUSH2 0x218 JUMPI PUSH1 0x20 CALLDATASIZE PUSH1 0x3 NOT ADD SLT PUSH2 0x218 JUMPI PUSH2 0x17B8 PUSH2 0x2030 JUMP JUMPDEST PUSH1 0x1 SLOAD SWAP1 PUSH1 0x1 PUSH1 0x1 PUSH1 0xA0 SHL SUB SWAP1 PUSH2 0x17D2 CALLER DUP4 DUP6 AND EQ PUSH2 0x225B JUMP JUMPDEST AND SWAP1 DUP2 ISZERO PUSH2 0x17EA JUMPI PUSH1 0x1 PUSH1 0x1 PUSH1 0xA0 SHL SUB NOT AND OR PUSH1 0x1 SSTORE STOP JUMPDEST PUSH1 0x64 PUSH1 0x40 MLOAD PUSH3 0x461BCD PUSH1 0xE5 SHL DUP2 MSTORE PUSH1 0x20 PUSH1 0x4 DUP3 ADD MSTORE PUSH1 0x20 PUSH1 0x24 DUP3 ADD MSTORE PUSH32 0x4E65772061646D696E2063616E6E6F74206265207A65726F2061646472657373 PUSH1 0x44 DUP3 ADD MSTORE REVERT JUMPDEST CALLVALUE PUSH2 0x218 JUMPI PUSH1 0x20 CALLDATASIZE PUSH1 0x3 NOT ADD SLT PUSH2 0x218 JUMPI PUSH2 0x1847 PUSH2 0x2070 JUMP JUMPDEST CALLER PUSH1 0x0 MSTORE PUSH1 0x2 PUSH1 0x20 MSTORE PUSH2 0x1863 PUSH1 0x1 PUSH1 0x40 PUSH1 0x0 KECCAK256 ADD SLOAD ISZERO ISZERO PUSH2 0x21E4 JUMP JUMPDEST CALLER PUSH1 0x0 MSTORE PUSH1 0x2 PUSH1 0x20 MSTORE PUSH2 0x1889 DUP2 PUSH1 0x4 PUSH1 0x40 PUSH1 0x0 KECCAK256 ADD SWAP1 PUSH1 0xFF DUP1 NOT DUP4 SLOAD AND SWAP2 ISZERO ISZERO AND OR SWAP1 SSTORE JUMP JUMPDEST PUSH1 0x40 MLOAD SWAP1 ISZERO ISZERO DUP2 MSTORE PUSH32 0xBD4CCD3B9F23B35B213567FF600237372C8368625BC58D2E36225CC085E03C6D PUSH1 0x20 CALLER SWAP3 LOG2 STOP JUMPDEST CALLVALUE PUSH2 0x218 JUMPI PUSH1 0x20 CALLDATASIZE PUSH1 0x3 NOT ADD SLT PUSH2 0x218 JUMPI PUSH2 0x18D2 PUSH2 0x2070 JUMP JUMPDEST CALLER PUSH1 0x0 MSTORE PUSH1 0x2 PUSH1 0x20 MSTORE PUSH2 0x18EE PUSH1 0x1 PUSH1 0x40 PUSH1 0x0 KECCAK256 ADD SLOAD ISZERO ISZERO PUSH2 0x21E4 JUMP JUMPDEST CALLER PUSH1 0x0 SWAP1 DUP2 MSTORE PUSH1 0x2 PUSH1 0x20 MSTORE PUSH1 0x40 SWAP1 KECCAK256 PUSH1 0x4 ADD DUP1 SLOAD PUSH2 0xFF00 NOT AND DUP3 ISZERO ISZERO PUSH1 0x8 SHL PUSH2 0xFF00 AND OR SWAP1 SSTORE PUSH1 0x40 MLOAD SWAP1 ISZERO ISZERO DUP2 MSTORE PUSH32 0x94C87BC2C95C8B72CF0437C0239FC65C2E8A5569F7FFAF72AC05F074E65C5361 PUSH1 0x20 CALLER SWAP3 LOG2 STOP JUMPDEST CALLVALUE PUSH2 0x218 JUMPI PUSH1 0x20 CALLDATASIZE PUSH1 0x3 NOT ADD SLT PUSH2 0x218 JUMPI PUSH2 0x195D PUSH2 0x2030 JUMP JUMPDEST CALLER PUSH1 0x0 MSTORE PUSH1 0x2 PUSH1 0x20 MSTORE PUSH1 0x1 SWAP1 PUSH2 0x197C PUSH1 0x1 PUSH1 0x40 PUSH1 0x0 KECCAK256 ADD SLOAD ISZERO ISZERO PUSH2 0x21E4 JUMP JUMPDEST CALLER PUSH1 0x0 MSTORE PUSH1 0x2 PUSH1 0x20 MSTORE DUP2 PUSH1 0x3 DUP1 PUSH1 0x40 PUSH1 0x0 KECCAK256 ADD PUSH1 0x0 SWAP4 PUSH1 0x1 DUP1 PUSH1 0xA0 SHL SUB DUP1 SWAP2 AND SWAP6 JUMPDEST PUSH2 0x19D2 JUMPI JUMPDEST DUP6 PUSH1 0x40 MLOAD SWAP1 DUP2 MSTORE PUSH32 0x8EAC65C9901BE8390F0CF78F2CA8D86E706341713377DCA39B0472FC07CDD05 PUSH1 0x20 CALLER SWAP3 LOG2 STOP JUMPDEST DUP2 SLOAD DUP1 DUP7 LT ISZERO PUSH2 0x1A72 JUMPI DUP7 DUP3 PUSH2 0x19E8 DUP9 DUP7 PUSH2 0x2220 JUMP JUMPDEST SWAP1 SLOAD SWAP1 DUP8 SHL SHR AND EQ PUSH2 0x19FF JUMPI POP DUP4 DUP1 SWAP6 ADD SWAP5 PUSH2 0x199E JUMP JUMPDEST SWAP3 SWAP5 SWAP2 SWAP4 POP SWAP2 PUSH1 0x0 NOT SWAP2 DUP3 DUP3 ADD SWAP2 DUP3 GT PUSH2 0x78D JUMPI PUSH2 0x1652 DUP5 PUSH2 0x1A24 PUSH2 0x1A32 SWAP5 DUP9 PUSH2 0x2220 JUMP JUMPDEST SWAP1 SLOAD SWAP1 DUP10 SHL SHR AND SWAP2 DUP7 PUSH2 0x2220 JUMP JUMPDEST DUP3 SLOAD DUP1 ISZERO PUSH2 0x1A5C JUMPI ADD SWAP3 PUSH2 0x1A46 DUP5 DUP5 PUSH2 0x2220 JUMP JUMPDEST DUP2 SWAP4 SWAP2 SLOAD SWAP3 SHL SHL NOT AND SWAP1 SSTORE SSTORE DUP2 DUP1 DUP1 DUP1 DUP1 PUSH2 0x19A3 JUMP JUMPDEST PUSH4 0x4E487B71 PUSH1 0xE0 SHL PUSH1 0x0 MSTORE PUSH1 0x31 PUSH1 0x4 MSTORE PUSH1 0x24 PUSH1 0x0 REVERT JUMPDEST POP PUSH2 0x19A3 JUMP JUMPDEST CALLVALUE PUSH2 0x218 JUMPI PUSH1 0x0 CALLDATASIZE PUSH1 0x3 NOT ADD SLT PUSH2 0x218 JUMPI PUSH1 0x40 MLOAD PUSH32 0x0 PUSH1 0x1 PUSH1 0x1 PUSH1 0xA0 SHL SUB AND DUP2 MSTORE PUSH1 0x20 SWAP1 RETURN JUMPDEST CALLVALUE PUSH2 0x218 JUMPI PUSH1 0x40 CALLDATASIZE PUSH1 0x3 NOT ADD SLT PUSH2 0x218 JUMPI PUSH2 0x100 PUSH2 0x1AD9 PUSH2 0x2030 JUMP JUMPDEST PUSH2 0x1AE1 PUSH2 0x2046 JUMP JUMPDEST PUSH1 0x1 DUP1 PUSH1 0xA0 SHL SUB DUP1 SWAP3 AND PUSH1 0x0 MSTORE PUSH1 0x3 PUSH1 0x20 MSTORE DUP2 PUSH1 0x40 PUSH1 0x0 KECCAK256 SWAP2 AND PUSH1 0x0 MSTORE PUSH1 0x20 MSTORE PUSH1 0x40 PUSH1 0x0 KECCAK256 DUP2 DUP2 SLOAD AND SWAP2 PUSH1 0x1 DUP3 ADD SLOAD SWAP2 PUSH1 0x2 DUP2 ADD SLOAD PUSH1 0x3 DUP3 ADD SLOAD PUSH1 0x4 DUP4 ADD SLOAD SWAP2 PUSH1 0x6 PUSH1 0x5 DUP6 ADD SLOAD SWAP5 ADD SLOAD SWAP6 PUSH1 0x40 MLOAD SWAP8 DUP9 MSTORE PUSH1 0x20 DUP9 ADD MSTORE PUSH1 0x40 DUP8 ADD MSTORE PUSH1 0x60 DUP7 ADD MSTORE PUSH1 0x80 DUP6 ADD MSTORE PUSH1 0xFF DUP2 AND ISZERO ISZERO PUSH1 0xA0 DUP6 ADD MSTORE PUSH1 0x8 SHR AND PUSH1 0xC0 DUP4 ADD MSTORE PUSH1 0xE0 DUP3 ADD MSTORE RETURN JUMPDEST CALLVALUE PUSH2 0x218 JUMPI PUSH1 0x0 CALLDATASIZE PUSH1 0x3 NOT ADD SLT PUSH2 0x218 JUMPI CALLER PUSH1 0x0 MSTORE PUSH1 0x2 PUSH1 0x20 MSTORE PUSH2 0x1B8E PUSH1 0x1 PUSH1 0x40 PUSH1 0x0 KECCAK256 ADD SLOAD ISZERO ISZERO PUSH2 0x2198 JUMP JUMPDEST CALLER PUSH1 0x0 MSTORE PUSH1 0x2 PUSH1 0x20 MSTORE PUSH2 0x1BA9 PUSH1 0x2 PUSH1 0x40 PUSH1 0x0 KECCAK256 ADD SLOAD TIMESTAMP PUSH2 0x218B JUMP JUMPDEST CALLER PUSH1 0x0 MSTORE PUSH1 0x2 PUSH1 0x20 MSTORE DUP1 PUSH1 0x1 PUSH1 0x40 PUSH1 0x0 KECCAK256 ADD SSTORE PUSH1 0x40 MLOAD SWAP1 DUP2 MSTORE PUSH32 0xF1A463082EFF5F74A481D3ABD6FC308D976449C50289C0564E946069CB7D8805 PUSH1 0x20 CALLER SWAP3 LOG2 STOP JUMPDEST CALLVALUE PUSH2 0x218 JUMPI PUSH1 0x20 CALLDATASIZE PUSH1 0x3 NOT ADD SLT PUSH2 0x218 JUMPI PUSH1 0x20 PUSH1 0x1 PUSH1 0x1 PUSH1 0xA0 SHL SUB DUP1 PUSH2 0x1C0E PUSH2 0x2030 JUMP JUMPDEST AND PUSH1 0x0 MSTORE PUSH1 0x0 DUP3 MSTORE PUSH1 0x40 PUSH1 0x0 KECCAK256 SLOAD AND ISZERO ISZERO PUSH1 0x40 MLOAD SWAP1 DUP2 MSTORE RETURN JUMPDEST CALLVALUE PUSH2 0x218 JUMPI PUSH1 0x40 CALLDATASIZE PUSH1 0x3 NOT ADD SLT PUSH2 0x218 JUMPI PUSH2 0x1C40 PUSH2 0x2030 JUMP JUMPDEST PUSH2 0x1C48 PUSH2 0x2046 JUMP JUMPDEST PUSH1 0x1 DUP1 PUSH1 0xA0 SHL SUB DUP1 DUP4 AND SWAP1 DUP2 PUSH1 0x0 MSTORE PUSH1 0x20 SWAP4 PUSH1 0x3 DUP6 MSTORE DUP2 PUSH1 0x40 PUSH1 0x0 KECCAK256 SWAP5 AND SWAP4 DUP5 PUSH1 0x0 MSTORE DUP6 MSTORE PUSH1 0x40 PUSH1 0x0 KECCAK256 PUSH1 0x5 DUP2 ADD SWAP6 DUP7 SLOAD SWAP3 PUSH2 0x1C86 PUSH1 0xFF DUP6 AND PUSH2 0x214A JUMP JUMPDEST PUSH2 0x1C99 PUSH1 0x3 DUP5 ADD SLOAD PUSH1 0x4 DUP6 ADD SLOAD SWAP1 PUSH2 0x218B JUMP JUMPDEST TIMESTAMP LT PUSH2 0x1EBD JUMPI DUP6 PUSH1 0x0 MSTORE PUSH1 0x2 DUP3 MSTORE PUSH1 0xFF PUSH1 0x4 PUSH1 0x40 PUSH1 0x0 KECCAK256 ADD SLOAD PUSH1 0x8 SHR AND PUSH1 0x0 EQ PUSH2 0x1E95 JUMPI DUP5 PUSH32 0x0 SWAP5 JUMPDEST PUSH1 0x8 SHR AND ISZERO PUSH2 0x1DE9 JUMPI POP PUSH1 0x40 MLOAD PUSH4 0x70A08231 PUSH1 0xE0 SHL DUP2 MSTORE ADDRESS PUSH1 0x4 DUP3 ADD MSTORE DUP2 DUP2 PUSH1 0x24 DUP2 DUP11 GAS STATICCALL SWAP1 DUP2 ISZERO PUSH2 0x7D7 JUMPI PUSH1 0x0 SWAP2 PUSH2 0x1D94 JUMPI JUMPDEST POP SWAP1 DUP5 PUSH2 0x1D4E PUSH1 0x60 SWAP6 SWAP5 SWAP4 PUSH32 0x60FE5C7ED4FE46663EC53F1FBD38F2C85063CEA69E1425471DF15414DEA59AA5 SWAP8 DUP12 SLOAD PUSH1 0x8 SHR AND DUP11 PUSH2 0x24B1 JUMP JUMPDEST DUP7 PUSH1 0x0 MSTORE PUSH1 0x2 DUP3 MSTORE PUSH2 0x1D71 PUSH1 0x6 DUP3 PUSH1 0x40 PUSH1 0x0 KECCAK256 SLOAD AND SWAP5 ADD SWAP5 DUP5 DUP4 DUP8 SLOAD SWAP3 AND PUSH2 0x24B1 JUMP JUMPDEST DUP9 SLOAD PUSH1 0x8 SHR AND SWAP3 SLOAD SWAP1 PUSH1 0x40 MLOAD SWAP4 DUP5 MSTORE DUP4 ADD MSTORE PUSH1 0x40 DUP3 ADD MSTORE LOG3 JUMPDEST DUP1 SLOAD PUSH1 0xFF NOT AND SWAP1 SSTORE STOP JUMPDEST SWAP4 SWAP3 SWAP2 DUP1 SWAP2 POP DUP5 DUP2 RETURNDATASIZE DUP4 GT PUSH2 0x1DE2 JUMPI JUMPDEST PUSH2 0x1DAE DUP2 DUP4 PUSH2 0x2128 JUMP JUMPDEST DUP2 ADD SUB SLT PUSH2 0x218 JUMPI SWAP3 MLOAD SWAP2 SWAP3 SWAP1 SWAP2 PUSH32 0x60FE5C7ED4FE46663EC53F1FBD38F2C85063CEA69E1425471DF15414DEA59AA5 PUSH2 0x1D15 JUMP JUMPDEST POP RETURNDATASIZE PUSH2 0x1DA4 JUMP JUMPDEST PUSH1 0x40 MLOAD PUSH4 0x70A08231 PUSH1 0xE0 SHL DUP2 MSTORE ADDRESS PUSH1 0x4 DUP3 ADD MSTORE SWAP5 POP SWAP1 SWAP3 POP SWAP1 POP DUP2 DUP4 PUSH1 0x24 DUP2 DUP9 GAS STATICCALL SWAP3 DUP4 ISZERO PUSH2 0x7D7 JUMPI PUSH1 0x0 SWAP4 PUSH2 0x1E62 JUMPI JUMPDEST POP SWAP1 PUSH2 0x1E4A PUSH32 0x60FE5C7ED4FE46663EC53F1FBD38F2C85063CEA69E1425471DF15414DEA59AA5 SWAP4 PUSH1 0x60 SWAP4 DUP8 PUSH2 0x24B1 JUMP JUMPDEST PUSH1 0x0 PUSH1 0x40 MLOAD SWAP2 DUP2 DUP4 MSTORE DUP3 ADD MSTORE DUP4 PUSH1 0x40 DUP3 ADD MSTORE LOG3 PUSH2 0x1D8A JUMP JUMPDEST SWAP3 POP SWAP1 DUP1 DUP4 DUP2 RETURNDATASIZE DUP4 GT PUSH2 0x1E8E JUMPI JUMPDEST PUSH2 0x1E7A DUP2 DUP4 PUSH2 0x2128 JUMP JUMPDEST DUP2 ADD SUB SLT PUSH2 0x218 JUMPI SWAP2 MLOAD SWAP2 SWAP1 PUSH2 0x1E4A PUSH2 0x1E1A JUMP JUMPDEST POP RETURNDATASIZE PUSH2 0x1E70 JUMP JUMPDEST DUP5 PUSH32 0x0 SWAP5 PUSH2 0x1CE1 JUMP JUMPDEST PUSH1 0x40 MLOAD PUSH3 0x461BCD PUSH1 0xE5 SHL DUP2 MSTORE PUSH1 0x4 DUP2 ADD DUP4 SWAP1 MSTORE PUSH1 0x11 PUSH1 0x24 DUP3 ADD MSTORE PUSH17 0x105D58DD1A5BDB881B9BDD08195B991959 PUSH1 0x7A SHL PUSH1 0x44 DUP3 ADD MSTORE PUSH1 0x64 SWAP1 REVERT JUMPDEST CALLVALUE PUSH2 0x218 JUMPI PUSH1 0x20 DUP1 PUSH1 0x3 NOT CALLDATASIZE ADD SLT PUSH2 0x218 JUMPI PUSH1 0x1 PUSH1 0x1 PUSH1 0xA0 SHL SUB DUP1 PUSH2 0x1F19 PUSH2 0x2030 JUMP JUMPDEST AND PUSH1 0x0 MSTORE PUSH1 0x2 DUP3 MSTORE PUSH1 0x40 PUSH1 0x0 KECCAK256 DUP2 DUP2 SLOAD AND SWAP2 PUSH1 0x1 DUP1 DUP4 ADD SLOAD SWAP4 PUSH1 0x2 DUP5 ADD SLOAD SWAP6 PUSH1 0x4 PUSH1 0x3 DUP7 ADD SWAP6 ADD SLOAD SWAP7 PUSH1 0x40 MLOAD SWAP1 DUP2 DUP4 DUP9 SLOAD SWAP2 DUP3 DUP2 MSTORE ADD SWAP1 DUP2 SWAP9 PUSH1 0x0 MSTORE DUP5 PUSH1 0x0 KECCAK256 SWAP1 PUSH1 0x0 JUMPDEST DUP2 DUP2 LT PUSH2 0x1FD9 JUMPI POP POP POP DUP3 PUSH2 0x1F73 SWAP2 SUB DUP4 PUSH2 0x2128 JUMP JUMPDEST PUSH1 0x40 MLOAD SWAP8 PUSH1 0xC0 DUP10 ADD SWAP5 DUP10 MSTORE DUP4 DUP10 ADD MSTORE PUSH1 0x40 DUP9 ADD MSTORE PUSH1 0xC0 PUSH1 0x60 DUP9 ADD MSTORE MLOAD DUP1 SWAP3 MSTORE PUSH1 0xE0 DUP7 ADD SWAP5 SWAP4 PUSH1 0x0 SWAP1 JUMPDEST DUP4 DUP3 LT PUSH2 0x1FC2 JUMPI DUP8 DUP1 DUP9 PUSH1 0xFF DUP13 DUP2 DUP2 AND ISZERO ISZERO PUSH1 0x80 DUP6 ADD MSTORE PUSH1 0x8 SHR AND ISZERO ISZERO PUSH1 0xA0 DUP4 ADD MSTORE SUB SWAP1 RETURN JUMPDEST DUP6 MLOAD DUP2 AND DUP8 MSTORE SWAP6 DUP3 ADD SWAP6 SWAP5 DUP3 ADD SWAP5 SWAP1 DUP5 ADD SWAP1 PUSH2 0x1F9C JUMP JUMPDEST DUP3 SLOAD DUP11 AND DUP5 MSTORE SWAP3 DUP7 ADD SWAP3 SWAP2 DUP9 ADD SWAP2 DUP9 ADD PUSH2 0x1F5D JUMP JUMPDEST CALLVALUE PUSH2 0x218 JUMPI PUSH1 0x0 CALLDATASIZE PUSH1 0x3 NOT ADD SLT PUSH2 0x218 JUMPI PUSH32 0x0 PUSH1 0x1 PUSH1 0x1 PUSH1 0xA0 SHL SUB AND DUP2 MSTORE PUSH1 0x20 SWAP1 RETURN JUMPDEST PUSH1 0x4 CALLDATALOAD SWAP1 PUSH1 0x1 PUSH1 0x1 PUSH1 0xA0 SHL SUB DUP3 AND DUP3 SUB PUSH2 0x218 JUMPI JUMP JUMPDEST PUSH1 0x24 CALLDATALOAD SWAP1 PUSH1 0x1 PUSH1 0x1 PUSH1 0xA0 SHL SUB DUP3 AND DUP3 SUB PUSH2 0x218 JUMPI JUMP JUMPDEST CALLDATALOAD SWAP1 PUSH1 0x1 PUSH1 0x1 PUSH1 0xA0 SHL SUB DUP3 AND DUP3 SUB PUSH2 0x218 JUMPI JUMP JUMPDEST PUSH1 0x4 CALLDATALOAD SWAP1 DUP2 ISZERO ISZERO DUP3 SUB PUSH2 0x218 JUMPI JUMP JUMPDEST SWAP2 DUP2 PUSH1 0x1F DUP5 ADD SLT ISZERO PUSH2 0x218 JUMPI DUP3 CALLDATALOAD SWAP2 PUSH8 0xFFFFFFFFFFFFFFFF DUP4 GT PUSH2 0x218 JUMPI PUSH1 0x20 DUP1 DUP6 ADD SWAP5 DUP5 PUSH1 0x5 SHL ADD ADD GT PUSH2 0x218 JUMPI JUMP JUMPDEST SWAP2 SWAP1 DUP3 MLOAD SWAP3 DUP4 DUP3 MSTORE PUSH1 0x0 JUMPDEST DUP5 DUP2 LT PUSH2 0x20DC JUMPI POP POP DUP3 PUSH1 0x0 PUSH1 0x20 DUP1 SWAP5 SWAP6 DUP5 ADD ADD MSTORE PUSH1 0x1F DUP1 NOT SWAP2 ADD AND ADD ADD SWAP1 JUMP JUMPDEST PUSH1 0x20 DUP2 DUP4 ADD DUP2 ADD MLOAD DUP5 DUP4 ADD DUP3 ADD MSTORE ADD PUSH2 0x20BB JUMP JUMPDEST PUSH1 0xA0 DUP2 ADD SWAP1 DUP2 LT PUSH8 0xFFFFFFFFFFFFFFFF DUP3 GT OR PUSH2 0x777 JUMPI PUSH1 0x40 MSTORE JUMP JUMPDEST PUSH1 0x60 DUP2 ADD SWAP1 DUP2 LT PUSH8 0xFFFFFFFFFFFFFFFF DUP3 GT OR PUSH2 0x777 JUMPI PUSH1 0x40 MSTORE JUMP JUMPDEST SWAP1 PUSH1 0x1F DUP1 NOT SWAP2 ADD AND DUP2 ADD SWAP1 DUP2 LT PUSH8 0xFFFFFFFFFFFFFFFF DUP3 GT OR PUSH2 0x777 JUMPI PUSH1 0x40 MSTORE JUMP JUMPDEST ISZERO PUSH2 0x2151 JUMPI JUMP JUMPDEST PUSH1 0x40 MLOAD PUSH3 0x461BCD PUSH1 0xE5 SHL DUP2 MSTORE PUSH1 0x20 PUSH1 0x4 DUP3 ADD MSTORE PUSH1 0x12 PUSH1 0x24 DUP3 ADD MSTORE PUSH18 0x41756374696F6E206E6F7420616374697665 PUSH1 0x70 SHL PUSH1 0x44 DUP3 ADD MSTORE PUSH1 0x64 SWAP1 REVERT JUMPDEST SWAP2 SWAP1 DUP3 ADD DUP1 SWAP3 GT PUSH2 0x78D JUMPI JUMP JUMPDEST ISZERO PUSH2 0x219F JUMPI JUMP JUMPDEST PUSH1 0x40 MLOAD PUSH3 0x461BCD PUSH1 0xE5 SHL DUP2 MSTORE PUSH1 0x20 PUSH1 0x4 DUP3 ADD MSTORE PUSH1 0x17 PUSH1 0x24 DUP3 ADD MSTORE PUSH32 0x4163636F756E74206E6F7420696E697469616C697A6564000000000000000000 PUSH1 0x44 DUP3 ADD MSTORE PUSH1 0x64 SWAP1 REVERT JUMPDEST ISZERO PUSH2 0x21EB JUMPI JUMP JUMPDEST PUSH1 0x40 MLOAD PUSH3 0x461BCD PUSH1 0xE5 SHL DUP2 MSTORE PUSH1 0x20 PUSH1 0x4 DUP3 ADD MSTORE PUSH1 0xD PUSH1 0x24 DUP3 ADD MSTORE PUSH13 0x105C9AC81B9BDD08189D5A5B1D PUSH1 0x9A SHL PUSH1 0x44 DUP3 ADD MSTORE PUSH1 0x64 SWAP1 REVERT JUMPDEST DUP1 SLOAD DUP3 LT ISZERO PUSH2 0x2238 JUMPI PUSH1 0x0 MSTORE PUSH1 0x20 PUSH1 0x0 KECCAK256 ADD SWAP1 PUSH1 0x0 SWAP1 JUMP JUMPDEST PUSH4 0x4E487B71 PUSH1 0xE0 SHL PUSH1 0x0 MSTORE PUSH1 0x32 PUSH1 0x4 MSTORE PUSH1 0x24 PUSH1 0x0 REVERT JUMPDEST SWAP2 SWAP1 DUP3 SUB SWAP2 DUP3 GT PUSH2 0x78D JUMPI JUMP JUMPDEST ISZERO PUSH2 0x2262 JUMPI JUMP JUMPDEST PUSH1 0x40 MLOAD PUSH3 0x461BCD PUSH1 0xE5 SHL DUP2 MSTORE PUSH1 0x20 PUSH1 0x4 DUP3 ADD MSTORE PUSH1 0x21 PUSH1 0x24 DUP3 ADD MSTORE PUSH32 0x4F6E6C792061646D696E2063616E2063616C6C20746869732066756E6374696F PUSH1 0x44 DUP3 ADD MSTORE PUSH1 0x37 PUSH1 0xF9 SHL PUSH1 0x64 DUP3 ADD MSTORE PUSH1 0x84 SWAP1 REVERT JUMPDEST DUP2 DUP2 MUL SWAP3 SWAP2 DUP2 ISZERO SWAP2 DUP5 DIV EQ OR ISZERO PUSH2 0x78D JUMPI JUMP JUMPDEST DUP2 ISZERO PUSH2 0x22CE JUMPI DIV SWAP1 JUMP JUMPDEST PUSH4 0x4E487B71 PUSH1 0xE0 SHL PUSH1 0x0 MSTORE PUSH1 0x12 PUSH1 0x4 MSTORE PUSH1 0x24 PUSH1 0x0 REVERT JUMPDEST PUSH1 0x1 DUP1 PUSH1 0xA0 SHL SUB DUP1 SWAP2 AND PUSH1 0x0 MSTORE PUSH1 0x3 PUSH1 0x20 MSTORE PUSH1 0x40 PUSH1 0x0 KECCAK256 SWAP2 AND PUSH1 0x0 MSTORE PUSH1 0x20 MSTORE PUSH1 0x40 PUSH1 0x0 KECCAK256 PUSH2 0x2318 PUSH1 0xFF PUSH1 0x5 DUP4 ADD SLOAD AND PUSH2 0x214A JUMP JUMPDEST PUSH2 0x2326 PUSH1 0x3 DUP3 ADD SLOAD TIMESTAMP PUSH2 0x224E JUMP JUMPDEST SWAP1 PUSH1 0x4 DUP2 ADD SLOAD SWAP2 DUP3 DUP2 LT ISZERO PUSH2 0x2356 JUMPI PUSH2 0x2353 SWAP3 PUSH2 0x2F6 PUSH2 0x2FB SWAP3 PUSH2 0x2F1 PUSH1 0x2 PUSH1 0x1 DUP8 ADD SLOAD SWAP7 ADD SLOAD DUP7 PUSH2 0x224E JUMP JUMPDEST SWAP1 JUMP JUMPDEST POP PUSH1 0x2 SWAP2 POP ADD SLOAD SWAP1 JUMP JUMPDEST MLOAD SWAP1 PUSH10 0xFFFFFFFFFFFFFFFFFFFF DUP3 AND DUP3 SUB PUSH2 0x218 JUMPI JUMP JUMPDEST PUSH1 0x1 DUP1 PUSH1 0xA0 SHL SUB DUP1 PUSH1 0x0 SWAP3 AND DUP3 MSTORE DUP2 PUSH1 0x20 MSTORE PUSH1 0x40 DUP3 KECCAK256 SLOAD AND SWAP1 DUP2 ISZERO PUSH2 0x246C JUMPI PUSH1 0xA0 PUSH1 0x4 SWAP3 PUSH1 0x40 MLOAD SWAP4 DUP5 DUP1 SWAP3 PUSH4 0x3FABE5A3 PUSH1 0xE2 SHL DUP3 MSTORE GAS STATICCALL SWAP2 DUP3 ISZERO PUSH2 0x245F JUMPI DUP2 SWAP3 PUSH2 0x240C JUMPI JUMPDEST POP DUP2 SGT ISZERO PUSH2 0x23C7 JUMPI SWAP1 JUMP JUMPDEST PUSH1 0x40 MLOAD PUSH3 0x461BCD PUSH1 0xE5 SHL DUP2 MSTORE PUSH1 0x20 PUSH1 0x4 DUP3 ADD MSTORE PUSH1 0x19 PUSH1 0x24 DUP3 ADD MSTORE PUSH32 0x496E76616C69642070726963652066726F6D206F7261636C6500000000000000 PUSH1 0x44 DUP3 ADD MSTORE PUSH1 0x64 SWAP1 REVERT JUMPDEST SWAP1 SWAP2 POP PUSH1 0xA0 DUP2 RETURNDATASIZE PUSH1 0xA0 GT PUSH2 0x2457 JUMPI JUMPDEST DUP2 PUSH2 0x2428 PUSH1 0xA0 SWAP4 DUP4 PUSH2 0x2128 JUMP JUMPDEST DUP2 ADD SUB SLT PUSH2 0x2453 JUMPI PUSH2 0x2439 DUP2 PUSH2 0x2360 JUMP JUMPDEST POP PUSH2 0x244B PUSH1 0x80 PUSH1 0x20 DUP4 ADD MLOAD SWAP3 ADD PUSH2 0x2360 JUMP JUMPDEST POP SWAP1 CODESIZE PUSH2 0x23BC JUMP JUMPDEST POP DUP1 REVERT JUMPDEST RETURNDATASIZE SWAP2 POP PUSH2 0x241B JUMP JUMPDEST POP PUSH1 0x40 MLOAD SWAP1 RETURNDATASIZE SWAP1 DUP3 RETURNDATACOPY RETURNDATASIZE SWAP1 REVERT JUMPDEST PUSH1 0x40 MLOAD PUSH3 0x461BCD PUSH1 0xE5 SHL DUP2 MSTORE PUSH1 0x20 PUSH1 0x4 DUP3 ADD MSTORE PUSH1 0x1C PUSH1 0x24 DUP3 ADD MSTORE PUSH32 0x50726963652066656564206E6F742073657420666F7220746F6B656E00000000 PUSH1 0x44 DUP3 ADD MSTORE PUSH1 0x64 SWAP1 REVERT JUMPDEST PUSH1 0x40 MLOAD PUSH4 0xA9059CBB PUSH1 0xE0 SHL PUSH1 0x20 DUP3 ADD MSTORE PUSH1 0x1 PUSH1 0x1 PUSH1 0xA0 SHL SUB SWAP3 SWAP1 SWAP3 AND PUSH1 0x24 DUP4 ADD MSTORE PUSH1 0x44 DUP1 DUP4 ADD SWAP4 SWAP1 SWAP4 MSTORE SWAP2 DUP2 MSTORE PUSH2 0x24F2 SWAP2 PUSH2 0x24ED PUSH1 0x64 DUP4 PUSH2 0x2128 JUMP JUMPDEST PUSH2 0x25C2 JUMP JUMPDEST JUMP JUMPDEST SWAP1 DUP2 PUSH1 0x20 SWAP2 SUB SLT PUSH2 0x218 JUMPI MLOAD DUP1 ISZERO ISZERO DUP2 SUB PUSH2 0x218 JUMPI SWAP1 JUMP JUMPDEST PUSH1 0x80 PUSH1 0x40 PUSH2 0x2353 SWAP6 SWAP5 PUSH2 0x120 SWAP5 PUSH1 0x1 DUP1 PUSH1 0xA0 SHL SUB SWAP4 DUP2 DUP6 DUP1 SWAP4 MLOAD AND DUP8 MSTORE DUP3 PUSH1 0x20 DUP3 ADD MLOAD AND PUSH1 0x20 DUP9 ADD MSTORE PUSH3 0xFFFFFF DUP6 DUP3 ADD MLOAD AND DUP6 DUP9 ADD MSTORE PUSH1 0x60 DUP2 ADD MLOAD PUSH1 0x2 SIGNEXTEND PUSH1 0x60 DUP9 ADD MSTORE ADD MLOAD AND PUSH1 0x80 DUP6 ADD MSTORE DUP1 MLOAD ISZERO ISZERO PUSH1 0xA0 DUP6 ADD MSTORE PUSH1 0x20 DUP2 ADD MLOAD PUSH1 0xC0 DUP6 ADD MSTORE ADD MLOAD AND PUSH1 0xE0 DUP3 ADD MSTORE DUP2 PUSH2 0x100 DUP3 ADD MSTORE ADD SWAP1 PUSH2 0x20B0 JUMP JUMPDEST PUSH1 0x40 MLOAD PUSH4 0x23B872DD PUSH1 0xE0 SHL PUSH1 0x20 DUP3 ADD MSTORE PUSH1 0x1 PUSH1 0x1 PUSH1 0xA0 SHL SUB SWAP3 DUP4 AND PUSH1 0x24 DUP3 ADD MSTORE SWAP3 SWAP1 SWAP2 AND PUSH1 0x44 DUP4 ADD MSTORE PUSH1 0x64 DUP1 DUP4 ADD SWAP4 SWAP1 SWAP4 MSTORE SWAP2 DUP2 MSTORE PUSH2 0x24F2 SWAP2 PUSH2 0x24ED DUP3 PUSH2 0x20F0 JUMP JUMPDEST SWAP1 PUSH1 0x0 PUSH1 0x20 SWAP2 DUP3 DUP2 MLOAD SWAP2 ADD DUP3 DUP6 GAS CALL ISZERO PUSH2 0x7D7 JUMPI PUSH1 0x0 MLOAD RETURNDATASIZE PUSH2 0x2615 JUMPI POP PUSH1 0x1 PUSH1 0x1 PUSH1 0xA0 SHL SUB DUP2 AND EXTCODESIZE ISZERO JUMPDEST PUSH2 0x25F3 JUMPI POP JUMP JUMPDEST PUSH1 0x40 MLOAD PUSH4 0x5274AFE7 PUSH1 0xE0 SHL DUP2 MSTORE PUSH1 0x1 PUSH1 0x1 PUSH1 0xA0 SHL SUB SWAP1 SWAP2 AND PUSH1 0x4 DUP3 ADD MSTORE PUSH1 0x24 SWAP1 REVERT JUMPDEST PUSH1 0x1 EQ ISZERO PUSH2 0x25EC JUMP INVALID LOG2 PUSH5 0x6970667358 0x22 SLT KECCAK256 DUP13 NUMBER CALL 0xDE 0xE7 SLOAD RETURNDATACOPY SWAP15 PUSH26 0x4205DC1D5AE122BE0F2E800C45C9E213C1EFA074C6FD8F64736F PUSH13 0x63430008180033000000000000 "},"methodIdentifiers":{"addPassengers(address[])":"79000013","admin()":"f851a440","arks(address)":"88b21872","auctions(address,address)":"18242941","bidOnDutchAuction(address,address,uint256)":"f76e3696","buildArk(address,uint256,address[],bool,bool)":"daa12a36","flood(address)":"f2511bb1","getArk(address)":"05688c1c","getCurrentAuctionPrice(address,address)":"7a08d730","getTokenPrice(address)":"d02641a0","hasPriceFeed(address)":"0b7983a2","hookAddress()":"32a3cf96","pingArk()":"0fe23da9","poolManager()":"dc4c90d3","poolManagerSwapCallback(int256,bytes)":"afa9862a","priceFeeds(address)":"9dcb511a","pyrusdAddress()":"7e923b72","removePassenger(address)":"454d58d2","setPriceFeed(address,address)":"76e11286","settleDutchAuction(address,address)":"0a50960d","transferAdmin(address)":"75829def","updateAuctionPreference(bool)":"642e084e","updateDeadlineDuration(uint256)":"fabb6a38","updateTargetCurrencyPreference(bool)":"500994c5","usdcAddress()":"02d45457"}}}}}