{"contracts/MockPoolManager.sol":{"MockPoolManager":{"abi":[{"inputs":[{"internalType":"address","name":"","type":"address"},{"internalType":"address","name":"","type":"address"}],"name":"mockRates","outputs":[{"internalType":"uint256","name":"","type":"uint256"}],"stateMutability":"view","type":"function"},{"inputs":[{"internalType":"address","name":"tokenIn","type":"address"},{"internalType":"address","name":"tokenOut","type":"address"},{"internalType":"uint256","name":"rate","type":"uint256"}],"name":"setMockRate","outputs":[],"stateMutability":"nonpayable","type":"function"},{"inputs":[{"components":[{"internalType":"Currency","name":"currency0","type":"address"},{"internalType":"Currency","name":"currency1","type":"address"},{"internalType":"uint24","name":"fee","type":"uint24"},{"internalType":"int24","name":"tickSpacing","type":"int24"},{"internalType":"contract IHooks","name":"hooks","type":"address"}],"internalType":"struct PoolKey","name":"key","type":"tuple"},{"components":[{"internalType":"bool","name":"zeroForOne","type":"bool"},{"internalType":"int256","name":"amountSpecified","type":"int256"},{"internalType":"uint160","name":"sqrtPriceLimitX96","type":"uint160"}],"internalType":"struct SwapParams","name":"params","type":"tuple"},{"internalType":"bytes","name":"hookData","type":"bytes"}],"name":"swap","outputs":[{"internalType":"BalanceDelta","name":"delta","type":"int256"}],"stateMutability":"nonpayable","type":"function"}],"evm":{"bytecode":{"linkReferences":{},"object":"60808060405234610016576104a1908161001c8239f35b600080fdfe60406080815260048036101561001457600080fd5b600091823560e01c80632a246889146103575780635bb286f61461030f5763f3cd914c1461004157600080fd5b3461030757366003190161012081126102635760a0136103075760603660a319011261030757610104359267ffffffffffffffff80851161030b573660238601121561030b57848401358181116103075760249436868389010111610263576001600160a01b0396876100b26103d1565b5050876100bd6103e7565b50506100c76103fd565b156102ed57876100d56103d1565b16886100df6103e7565b16905b8960c43591169182885260209a888c52898920911688528a52878720548082029082820414821517156102db578a670de0b6b3a76400008992049360648c8c5194859384926323b872dd60e01b8452338c85015230908401528760448401525af180156102d15761029e575b506101576103fd565b1561028a5761016590610444565b60801b17965b8787333b61017d575b8a925051908152f35b6064889287601f9886855198899687956357d4c31560e11b87528c8701528286015282604486015201848401378483828401015288199889910116810103018183335af18015610280576101d3575b8787610174565b3d8087843e6101e2818461040c565b82019189818403126102785780519086821161027c57019282601f8501121561027857835195861161026757505061022388875194601f870116018461040c565b838352878483010111610263579086929183855b84811061024f575050500101523880808080806101cc565b818184010151828286010152018490610237565b8380fd5b634e487b7160e01b87526041905285fd5b8680fd5b8780fd5b87513d88823e3d90fd5b61029390610444565b9060801b179661016b565b8a81813d83116102ca575b6102b3818361040c565b8101031261027c575180151503610278573861014e565b503d6102a9565b89513d8a823e3d90fd5b634e487b7160e01b8852601185528988fd5b876102f66103e7565b16886103006103d1565b16906100e2565b8280fd5b5080fd5b83823461030b578060031936011261030b578060209261032d6103a0565b6103356103bb565b6001600160a01b03918216835282865283832091168252845220549051908152f35b83823461030b57606036600319011261030b576103726103a0565b61037a6103bb565b6001600160a01b0391821684526020848152838520929091168452528120604435905580f35b600435906001600160a01b03821682036103b657565b600080fd5b602435906001600160a01b03821682036103b657565b6004356001600160a01b03811681036103b65790565b6024356001600160a01b03811681036103b65790565b60a43580151581036103b65790565b90601f8019910116810190811067ffffffffffffffff82111761042e57604052565b634e487b7160e01b600052604160045260246000fd5b600160ff1b81146104555760000390565b634e487b7160e01b600052601160045260246000fdfea26469706673582212202b229f42d26604ae4a88c036a9cba5f6b74a1f602b0714ca5016d38f57dedeed64736f6c63430008180033","opcodes":"PUSH1 0x80 DUP1 PUSH1 0x40 MSTORE CALLVALUE PUSH2 0x16 JUMPI PUSH2 0x4A1 SWAP1 DUP2 PUSH2 0x1C DUP3 CODECOPY RETURN JUMPDEST PUSH1 0x0 DUP1 REVERT INVALID PUSH1 0x40 PUSH1 0x80 DUP2 MSTORE PUSH1 0x4 DUP1 CALLDATASIZE LT ISZERO PUSH2 0x14 JUMPI PUSH1 0x0 DUP1 REVERT JUMPDEST PUSH1 0x0 SWAP2 DUP3 CALLDATALOAD PUSH1 0xE0 SHR DUP1 PUSH4 0x2A246889 EQ PUSH2 0x357 JUMPI DUP1 PUSH4 0x5BB286F6 EQ PUSH2 0x30F JUMPI PUSH4 0xF3CD914C EQ PUSH2 0x41 JUMPI PUSH1 0x0 DUP1 REVERT JUMPDEST CALLVALUE PUSH2 0x307 JUMPI CALLDATASIZE PUSH1 0x3 NOT ADD PUSH2 0x120 DUP2 SLT PUSH2 0x263 JUMPI PUSH1 0xA0 SGT PUSH2 0x307 JUMPI PUSH1 0x60 CALLDATASIZE PUSH1 0xA3 NOT ADD SLT PUSH2 0x307 JUMPI PUSH2 0x104 CALLDATALOAD SWAP3 PUSH8 0xFFFFFFFFFFFFFFFF DUP1 DUP6 GT PUSH2 0x30B JUMPI CALLDATASIZE PUSH1 0x23 DUP7 ADD SLT ISZERO PUSH2 0x30B JUMPI DUP5 DUP5 ADD CALLDATALOAD DUP2 DUP2 GT PUSH2 0x307 JUMPI PUSH1 0x24 SWAP5 CALLDATASIZE DUP7 DUP4 DUP10 ADD ADD GT PUSH2 0x263 JUMPI PUSH1 0x1 PUSH1 0x1 PUSH1 0xA0 SHL SUB SWAP7 DUP8 PUSH2 0xB2 PUSH2 0x3D1 JUMP JUMPDEST POP POP DUP8 PUSH2 0xBD PUSH2 0x3E7 JUMP JUMPDEST POP POP PUSH2 0xC7 PUSH2 0x3FD JUMP JUMPDEST ISZERO PUSH2 0x2ED JUMPI DUP8 PUSH2 0xD5 PUSH2 0x3D1 JUMP JUMPDEST AND DUP9 PUSH2 0xDF PUSH2 0x3E7 JUMP JUMPDEST AND SWAP1 JUMPDEST DUP10 PUSH1 0xC4 CALLDATALOAD SWAP2 AND SWAP2 DUP3 DUP9 MSTORE PUSH1 0x20 SWAP11 DUP9 DUP13 MSTORE DUP10 DUP10 KECCAK256 SWAP2 AND DUP9 MSTORE DUP11 MSTORE DUP8 DUP8 KECCAK256 SLOAD DUP1 DUP3 MUL SWAP1 DUP3 DUP3 DIV EQ DUP3 ISZERO OR ISZERO PUSH2 0x2DB JUMPI DUP11 PUSH8 0xDE0B6B3A7640000 DUP10 SWAP3 DIV SWAP4 PUSH1 0x64 DUP13 DUP13 MLOAD SWAP5 DUP6 SWAP4 DUP5 SWAP3 PUSH4 0x23B872DD PUSH1 0xE0 SHL DUP5 MSTORE CALLER DUP13 DUP6 ADD MSTORE ADDRESS SWAP1 DUP5 ADD MSTORE DUP8 PUSH1 0x44 DUP5 ADD MSTORE GAS CALL DUP1 ISZERO PUSH2 0x2D1 JUMPI PUSH2 0x29E JUMPI JUMPDEST POP PUSH2 0x157 PUSH2 0x3FD JUMP JUMPDEST ISZERO PUSH2 0x28A JUMPI PUSH2 0x165 SWAP1 PUSH2 0x444 JUMP JUMPDEST PUSH1 0x80 SHL OR SWAP7 JUMPDEST DUP8 DUP8 CALLER EXTCODESIZE PUSH2 0x17D JUMPI JUMPDEST DUP11 SWAP3 POP MLOAD SWAP1 DUP2 MSTORE RETURN JUMPDEST PUSH1 0x64 DUP9 SWAP3 DUP8 PUSH1 0x1F SWAP9 DUP7 DUP6 MLOAD SWAP9 DUP10 SWAP7 DUP8 SWAP6 PUSH4 0x57D4C315 PUSH1 0xE1 SHL DUP8 MSTORE DUP13 DUP8 ADD MSTORE DUP3 DUP7 ADD MSTORE DUP3 PUSH1 0x44 DUP7 ADD MSTORE ADD DUP5 DUP5 ADD CALLDATACOPY DUP5 DUP4 DUP3 DUP5 ADD ADD MSTORE DUP9 NOT SWAP9 DUP10 SWAP2 ADD AND DUP2 ADD SUB ADD DUP2 DUP4 CALLER GAS CALL DUP1 ISZERO PUSH2 0x280 JUMPI PUSH2 0x1D3 JUMPI JUMPDEST DUP8 DUP8 PUSH2 0x174 JUMP JUMPDEST RETURNDATASIZE DUP1 DUP8 DUP5 RETURNDATACOPY PUSH2 0x1E2 DUP2 DUP5 PUSH2 0x40C JUMP JUMPDEST DUP3 ADD SWAP2 DUP10 DUP2 DUP5 SUB SLT PUSH2 0x278 JUMPI DUP1 MLOAD SWAP1 DUP7 DUP3 GT PUSH2 0x27C JUMPI ADD SWAP3 DUP3 PUSH1 0x1F DUP6 ADD SLT ISZERO PUSH2 0x278 JUMPI DUP4 MLOAD SWAP6 DUP7 GT PUSH2 0x267 JUMPI POP POP PUSH2 0x223 DUP9 DUP8 MLOAD SWAP5 PUSH1 0x1F DUP8 ADD AND ADD DUP5 PUSH2 0x40C JUMP JUMPDEST DUP4 DUP4 MSTORE DUP8 DUP5 DUP4 ADD ADD GT PUSH2 0x263 JUMPI SWAP1 DUP7 SWAP3 SWAP2 DUP4 DUP6 JUMPDEST DUP5 DUP2 LT PUSH2 0x24F JUMPI POP POP POP ADD ADD MSTORE CODESIZE DUP1 DUP1 DUP1 DUP1 DUP1 PUSH2 0x1CC JUMP JUMPDEST DUP2 DUP2 DUP5 ADD ADD MLOAD DUP3 DUP3 DUP7 ADD ADD MSTORE ADD DUP5 SWAP1 PUSH2 0x237 JUMP JUMPDEST DUP4 DUP1 REVERT JUMPDEST PUSH4 0x4E487B71 PUSH1 0xE0 SHL DUP8 MSTORE PUSH1 0x41 SWAP1 MSTORE DUP6 REVERT JUMPDEST DUP7 DUP1 REVERT JUMPDEST DUP8 DUP1 REVERT JUMPDEST DUP8 MLOAD RETURNDATASIZE DUP9 DUP3 RETURNDATACOPY RETURNDATASIZE SWAP1 REVERT JUMPDEST PUSH2 0x293 SWAP1 PUSH2 0x444 JUMP JUMPDEST SWAP1 PUSH1 0x80 SHL OR SWAP7 PUSH2 0x16B JUMP JUMPDEST DUP11 DUP2 DUP2 RETURNDATASIZE DUP4 GT PUSH2 0x2CA JUMPI JUMPDEST PUSH2 0x2B3 DUP2 DUP4 PUSH2 0x40C JUMP JUMPDEST DUP2 ADD SUB SLT PUSH2 0x27C JUMPI MLOAD DUP1 ISZERO ISZERO SUB PUSH2 0x278 JUMPI CODESIZE PUSH2 0x14E JUMP JUMPDEST POP RETURNDATASIZE PUSH2 0x2A9 JUMP JUMPDEST DUP10 MLOAD RETURNDATASIZE DUP11 DUP3 RETURNDATACOPY RETURNDATASIZE SWAP1 REVERT JUMPDEST PUSH4 0x4E487B71 PUSH1 0xE0 SHL DUP9 MSTORE PUSH1 0x11 DUP6 MSTORE DUP10 DUP9 REVERT JUMPDEST DUP8 PUSH2 0x2F6 PUSH2 0x3E7 JUMP JUMPDEST AND DUP9 PUSH2 0x300 PUSH2 0x3D1 JUMP JUMPDEST AND SWAP1 PUSH2 0xE2 JUMP JUMPDEST DUP3 DUP1 REVERT JUMPDEST POP DUP1 REVERT JUMPDEST DUP4 DUP3 CALLVALUE PUSH2 0x30B JUMPI DUP1 PUSH1 0x3 NOT CALLDATASIZE ADD SLT PUSH2 0x30B JUMPI DUP1 PUSH1 0x20 SWAP3 PUSH2 0x32D PUSH2 0x3A0 JUMP JUMPDEST PUSH2 0x335 PUSH2 0x3BB JUMP JUMPDEST PUSH1 0x1 PUSH1 0x1 PUSH1 0xA0 SHL SUB SWAP2 DUP3 AND DUP4 MSTORE DUP3 DUP7 MSTORE DUP4 DUP4 KECCAK256 SWAP2 AND DUP3 MSTORE DUP5 MSTORE KECCAK256 SLOAD SWAP1 MLOAD SWAP1 DUP2 MSTORE RETURN JUMPDEST DUP4 DUP3 CALLVALUE PUSH2 0x30B JUMPI PUSH1 0x60 CALLDATASIZE PUSH1 0x3 NOT ADD SLT PUSH2 0x30B JUMPI PUSH2 0x372 PUSH2 0x3A0 JUMP JUMPDEST PUSH2 0x37A PUSH2 0x3BB JUMP JUMPDEST PUSH1 0x1 PUSH1 0x1 PUSH1 0xA0 SHL SUB SWAP2 DUP3 AND DUP5 MSTORE PUSH1 0x20 DUP5 DUP2 MSTORE DUP4 DUP6 KECCAK256 SWAP3 SWAP1 SWAP2 AND DUP5 MSTORE MSTORE DUP2 KECCAK256 PUSH1 0x44 CALLDATALOAD SWAP1 SSTORE DUP1 RETURN JUMPDEST PUSH1 0x4 CALLDATALOAD SWAP1 PUSH1 0x1 PUSH1 0x1 PUSH1 0xA0 SHL SUB DUP3 AND DUP3 SUB PUSH2 0x3B6 JUMPI JUMP JUMPDEST PUSH1 0x0 DUP1 REVERT JUMPDEST PUSH1 0x24 CALLDATALOAD SWAP1 PUSH1 0x1 PUSH1 0x1 PUSH1 0xA0 SHL SUB DUP3 AND DUP3 SUB PUSH2 0x3B6 JUMPI JUMP JUMPDEST PUSH1 0x4 CALLDATALOAD PUSH1 0x1 PUSH1 0x1 PUSH1 0xA0 SHL SUB DUP2 AND DUP2 SUB PUSH2 0x3B6 JUMPI SWAP1 JUMP JUMPDEST PUSH1 0x24 CALLDATALOAD PUSH1 0x1 PUSH1 0x1 PUSH1 0xA0 SHL SUB DUP2 AND DUP2 SUB PUSH2 0x3B6 JUMPI SWAP1 JUMP JUMPDEST PUSH1 0xA4 CALLDATALOAD DUP1 ISZERO ISZERO DUP2 SUB PUSH2 0x3B6 JUMPI SWAP1 JUMP JUMPDEST SWAP1 PUSH1 0x1F DUP1 NOT SWAP2 ADD AND DUP2 ADD SWAP1 DUP2 LT PUSH8 0xFFFFFFFFFFFFFFFF DUP3 GT OR PUSH2 0x42E JUMPI PUSH1 0x40 MSTORE JUMP JUMPDEST PUSH4 0x4E487B71 PUSH1 0xE0 SHL PUSH1 0x0 MSTORE PUSH1 0x41 PUSH1 0x4 MSTORE PUSH1 0x24 PUSH1 0x0 REVERT JUMPDEST PUSH1 0x1 PUSH1 0xFF SHL DUP2 EQ PUSH2 0x455 JUMPI PUSH1 0x0 SUB SWAP1 JUMP JUMPDEST PUSH4 0x4E487B71 PUSH1 0xE0 SHL PUSH1 0x0 MSTORE PUSH1 0x11 PUSH1 0x4 MSTORE PUSH1 0x24 PUSH1 0x0 REVERT INVALID LOG2 PUSH5 0x6970667358 0x22 SLT KECCAK256 0x2B 0x22 SWAP16 TIMESTAMP 0xD2 PUSH7 0x4AE4A88C036A9 0xCB 0xA5 0xF6 0xB7 BLOBBASEFEE 0x1F PUSH1 0x2B SMOD EQ 0xCA POP AND 0xD3 DUP16 JUMPI 0xDE 0xDE 0xED PUSH5 0x736F6C6343 STOP ADDMOD XOR STOP CALLER "},"methodIdentifiers":{"mockRates(address,address)":"5bb286f6","setMockRate(address,address,uint256)":"2a246889","swap((address,address,uint24,int24,address),(bool,int256,uint160),bytes)":"f3cd914c"}}}}}