{"contracts/TestStruct.sol":{"TestStruct":{"abi":[{"inputs":[{"internalType":"address","name":"user","type":"address"}],"name":"getTest","outputs":[{"internalType":"address","name":"","type":"address"},{"internalType":"uint256","name":"","type":"uint256"},{"internalType":"uint256","name":"","type":"uint256"}],"stateMutability":"view","type":"function"},{"inputs":[{"internalType":"address","name":"user","type":"address"},{"internalType":"address[]","name":"_tokens","type":"address[]"}],"name":"setTest","outputs":[],"stateMutability":"nonpayable","type":"function"},{"inputs":[{"internalType":"address","name":"","type":"address"}],"name":"tests","outputs":[{"internalType":"address","name":"addr","type":"address"},{"internalType":"uint256","name":"num","type":"uint256"}],"stateMutability":"view","type":"function"}],"evm":{"bytecode":{"linkReferences":{},"object":"6080806040523461001657610384908161001c8239f35b600080fdfe6080604090808252600436101561001557600080fd5b600090813560e01c90816305de8c061461013e575080636cba97091461008a57638828136c1461004457600080fd5b34610087576020366003190112610087576001600160a01b039060019083908361006c6102df565b16815280602052209182541691015482519182526020820152f35b80fd5b50346100875760208060031936011261013a576001600160a01b0392836100af6102df565b168352828252808320928151946100c5866102fa565b80855416865260019160026001870154968689019788520190845193848784549182815201938352878320925b81811061012557505050509561010c83606098038461032c565b8284820152511693519051928251948552840152820152f35b835486168552938801939282019282016100f2565b5080fd5b905082346102db57806003193601126102db576101596102df565b67ffffffffffffffff91906024358381116102d757366023820112156102d7578060040135948486116102d3578560051b936024858401013681116102cf57929190936101a5826102fa565b60018060a01b0394858092168084526020958685019a607b8c526101cd8885519b018b61032c565b89526024878a0196015b8181106102a5575050600294508184019788528a5289855289209151166bffffffffffffffffffffffff60a01b8254161781556001965160018201550192518051948511610291576801000000000000000085116102915781908454868655808710610267575b500192865280862091865b858110610254578780f35b8451821684820155938201938601610249565b8589528787848b2092830192015b82811061028357505061023e565b8a8155859450899101610275565b634e487b7160e01b87526041600452602487fd5b8092945095909294953588811681036102cb5781528601949387939092909187016101d7565b8c80fd5b8880fd5b8680fd5b8580fd5b8280fd5b600435906001600160a01b03821682036102f557565b600080fd5b6060810190811067ffffffffffffffff82111761031657604052565b634e487b7160e01b600052604160045260246000fd5b90601f8019910116810190811067ffffffffffffffff8211176103165760405256fea2646970667358221220deea1845a1c00256a255f133674d83e12db028d0e6547bd903f5715df7c63a1c64736f6c63430008180033","opcodes":"PUSH1 0x80 DUP1 PUSH1 0x40 MSTORE CALLVALUE PUSH2 0x16 JUMPI PUSH2 0x384 SWAP1 DUP2 PUSH2 0x1C DUP3 CODECOPY RETURN JUMPDEST PUSH1 0x0 DUP1 REVERT INVALID PUSH1 0x80 PUSH1 0x40 SWAP1 DUP1 DUP3 MSTORE PUSH1 0x4 CALLDATASIZE LT ISZERO PUSH2 0x15 JUMPI PUSH1 0x0 DUP1 REVERT JUMPDEST PUSH1 0x0 SWAP1 DUP2 CALLDATALOAD PUSH1 0xE0 SHR SWAP1 DUP2 PUSH4 0x5DE8C06 EQ PUSH2 0x13E JUMPI POP DUP1 PUSH4 0x6CBA9709 EQ PUSH2 0x8A JUMPI PUSH4 0x8828136C EQ PUSH2 0x44 JUMPI PUSH1 0x0 DUP1 REVERT JUMPDEST CALLVALUE PUSH2 0x87 JUMPI PUSH1 0x20 CALLDATASIZE PUSH1 0x3 NOT ADD SLT PUSH2 0x87 JUMPI PUSH1 0x1 PUSH1 0x1 PUSH1 0xA0 SHL SUB SWAP1 PUSH1 0x1 SWAP1 DUP4 SWAP1 DUP4 PUSH2 0x6C PUSH2 0x2DF JUMP JUMPDEST AND DUP2 MSTORE DUP1 PUSH1 0x20 MSTORE KECCAK256 SWAP2 DUP3 SLOAD AND SWAP2 ADD SLOAD DUP3 MLOAD SWAP2 DUP3 MSTORE PUSH1 0x20 DUP3 ADD MSTORE RETURN JUMPDEST DUP1 REVERT JUMPDEST POP CALLVALUE PUSH2 0x87 JUMPI PUSH1 0x20 DUP1 PUSH1 0x3 NOT CALLDATASIZE ADD SLT PUSH2 0x13A JUMPI PUSH1 0x1 PUSH1 0x1 PUSH1 0xA0 SHL SUB SWAP3 DUP4 PUSH2 0xAF PUSH2 0x2DF JUMP JUMPDEST AND DUP4 MSTORE DUP3 DUP3 MSTORE DUP1 DUP4 KECCAK256 SWAP3 DUP2 MLOAD SWAP5 PUSH2 0xC5 DUP7 PUSH2 0x2FA JUMP JUMPDEST DUP1 DUP6 SLOAD AND DUP7 MSTORE PUSH1 0x1 SWAP2 PUSH1 0x2 PUSH1 0x1 DUP8 ADD SLOAD SWAP7 DUP7 DUP10 ADD SWAP8 DUP9 MSTORE ADD SWAP1 DUP5 MLOAD SWAP4 DUP5 DUP8 DUP5 SLOAD SWAP2 DUP3 DUP2 MSTORE ADD SWAP4 DUP4 MSTORE DUP8 DUP4 KECCAK256 SWAP3 JUMPDEST DUP2 DUP2 LT PUSH2 0x125 JUMPI POP POP POP POP SWAP6 PUSH2 0x10C DUP4 PUSH1 0x60 SWAP9 SUB DUP5 PUSH2 0x32C JUMP JUMPDEST DUP3 DUP5 DUP3 ADD MSTORE MLOAD AND SWAP4 MLOAD SWAP1 MLOAD SWAP3 DUP3 MLOAD SWAP5 DUP6 MSTORE DUP5 ADD MSTORE DUP3 ADD MSTORE RETURN JUMPDEST DUP4 SLOAD DUP7 AND DUP6 MSTORE SWAP4 DUP9 ADD SWAP4 SWAP3 DUP3 ADD SWAP3 DUP3 ADD PUSH2 0xF2 JUMP JUMPDEST POP DUP1 REVERT JUMPDEST SWAP1 POP DUP3 CALLVALUE PUSH2 0x2DB JUMPI DUP1 PUSH1 0x3 NOT CALLDATASIZE ADD SLT PUSH2 0x2DB JUMPI PUSH2 0x159 PUSH2 0x2DF JUMP JUMPDEST PUSH8 0xFFFFFFFFFFFFFFFF SWAP2 SWAP1 PUSH1 0x24 CALLDATALOAD DUP4 DUP2 GT PUSH2 0x2D7 JUMPI CALLDATASIZE PUSH1 0x23 DUP3 ADD SLT ISZERO PUSH2 0x2D7 JUMPI DUP1 PUSH1 0x4 ADD CALLDATALOAD SWAP5 DUP5 DUP7 GT PUSH2 0x2D3 JUMPI DUP6 PUSH1 0x5 SHL SWAP4 PUSH1 0x24 DUP6 DUP5 ADD ADD CALLDATASIZE DUP2 GT PUSH2 0x2CF JUMPI SWAP3 SWAP2 SWAP1 SWAP4 PUSH2 0x1A5 DUP3 PUSH2 0x2FA JUMP JUMPDEST PUSH1 0x1 DUP1 PUSH1 0xA0 SHL SUB SWAP5 DUP6 DUP1 SWAP3 AND DUP1 DUP5 MSTORE PUSH1 0x20 SWAP6 DUP7 DUP6 ADD SWAP11 PUSH1 0x7B DUP13 MSTORE PUSH2 0x1CD DUP9 DUP6 MLOAD SWAP12 ADD DUP12 PUSH2 0x32C JUMP JUMPDEST DUP10 MSTORE PUSH1 0x24 DUP8 DUP11 ADD SWAP7 ADD JUMPDEST DUP2 DUP2 LT PUSH2 0x2A5 JUMPI POP POP PUSH1 0x2 SWAP5 POP DUP2 DUP5 ADD SWAP8 DUP9 MSTORE DUP11 MSTORE DUP10 DUP6 MSTORE DUP10 KECCAK256 SWAP2 MLOAD AND PUSH12 0xFFFFFFFFFFFFFFFFFFFFFFFF PUSH1 0xA0 SHL DUP3 SLOAD AND OR DUP2 SSTORE PUSH1 0x1 SWAP7 MLOAD PUSH1 0x1 DUP3 ADD SSTORE ADD SWAP3 MLOAD DUP1 MLOAD SWAP5 DUP6 GT PUSH2 0x291 JUMPI PUSH9 0x10000000000000000 DUP6 GT PUSH2 0x291 JUMPI DUP2 SWAP1 DUP5 SLOAD DUP7 DUP7 SSTORE DUP1 DUP8 LT PUSH2 0x267 JUMPI JUMPDEST POP ADD SWAP3 DUP7 MSTORE DUP1 DUP7 KECCAK256 SWAP2 DUP7 JUMPDEST DUP6 DUP2 LT PUSH2 0x254 JUMPI DUP8 DUP1 RETURN JUMPDEST DUP5 MLOAD DUP3 AND DUP5 DUP3 ADD SSTORE SWAP4 DUP3 ADD SWAP4 DUP7 ADD PUSH2 0x249 JUMP JUMPDEST DUP6 DUP10 MSTORE DUP8 DUP8 DUP5 DUP12 KECCAK256 SWAP3 DUP4 ADD SWAP3 ADD JUMPDEST DUP3 DUP2 LT PUSH2 0x283 JUMPI POP POP PUSH2 0x23E JUMP JUMPDEST DUP11 DUP2 SSTORE DUP6 SWAP5 POP DUP10 SWAP2 ADD PUSH2 0x275 JUMP JUMPDEST PUSH4 0x4E487B71 PUSH1 0xE0 SHL DUP8 MSTORE PUSH1 0x41 PUSH1 0x4 MSTORE PUSH1 0x24 DUP8 REVERT JUMPDEST DUP1 SWAP3 SWAP5 POP SWAP6 SWAP1 SWAP3 SWAP5 SWAP6 CALLDATALOAD DUP9 DUP2 AND DUP2 SUB PUSH2 0x2CB JUMPI DUP2 MSTORE DUP7 ADD SWAP5 SWAP4 DUP8 SWAP4 SWAP1 SWAP3 SWAP1 SWAP2 DUP8 ADD PUSH2 0x1D7 JUMP JUMPDEST DUP13 DUP1 REVERT JUMPDEST DUP9 DUP1 REVERT JUMPDEST DUP7 DUP1 REVERT JUMPDEST DUP6 DUP1 REVERT JUMPDEST DUP3 DUP1 REVERT JUMPDEST PUSH1 0x4 CALLDATALOAD SWAP1 PUSH1 0x1 PUSH1 0x1 PUSH1 0xA0 SHL SUB DUP3 AND DUP3 SUB PUSH2 0x2F5 JUMPI JUMP JUMPDEST PUSH1 0x0 DUP1 REVERT JUMPDEST PUSH1 0x60 DUP2 ADD SWAP1 DUP2 LT PUSH8 0xFFFFFFFFFFFFFFFF DUP3 GT OR PUSH2 0x316 JUMPI PUSH1 0x40 MSTORE JUMP JUMPDEST PUSH4 0x4E487B71 PUSH1 0xE0 SHL PUSH1 0x0 MSTORE PUSH1 0x41 PUSH1 0x4 MSTORE PUSH1 0x24 PUSH1 0x0 REVERT JUMPDEST SWAP1 PUSH1 0x1F DUP1 NOT SWAP2 ADD AND DUP2 ADD SWAP1 DUP2 LT PUSH8 0xFFFFFFFFFFFFFFFF DUP3 GT OR PUSH2 0x316 JUMPI PUSH1 0x40 MSTORE JUMP INVALID LOG2 PUSH5 0x6970667358 0x22 SLT KECCAK256 0xDE 0xEA XOR GASLIMIT LOG1 0xC0 MUL JUMP LOG2 SSTORE CALL CALLER PUSH8 0x4D83E12DB028D0E6 SLOAD PUSH28 0xD903F5715DF7C63A1C64736F6C634300081800330000000000000000 "},"methodIdentifiers":{"getTest(address)":"6cba9709","setTest(address,address[])":"05de8c06","tests(address)":"8828136c"}}}}}