{"contracts/Noahv4NFT.sol":{"Noahv4NFT":{"abi":[{"anonymous":false,"inputs":[{"indexed":true,"internalType":"address","name":"user","type":"address"},{"indexed":true,"internalType":"address","name":"beneficiary","type":"address"},{"indexed":false,"internalType":"uint256","name":"deadline","type":"uint256"}],"name":"ArkBuilt","type":"event"},{"anonymous":false,"inputs":[{"indexed":true,"internalType":"address","name":"user","type":"address"},{"indexed":false,"internalType":"uint256","name":"newDeadline","type":"uint256"}],"name":"ArkPinged","type":"event"},{"anonymous":false,"inputs":[{"indexed":true,"internalType":"address","name":"user","type":"address"},{"indexed":true,"internalType":"address","name":"newBeneficiary","type":"address"}],"name":"BeneficiaryUpdated","type":"event"},{"anonymous":false,"inputs":[{"indexed":true,"internalType":"address","name":"user","type":"address"},{"indexed":false,"internalType":"uint256","name":"newDuration","type":"uint256"},{"indexed":false,"internalType":"uint256","name":"newDeadline","type":"uint256"}],"name":"DeadlineUpdated","type":"event"},{"anonymous":false,"inputs":[{"indexed":true,"internalType":"address","name":"user","type":"address"},{"indexed":true,"internalType":"address","name":"beneficiary","type":"address"},{"indexed":false,"internalType":"uint256","name":"numNFTs","type":"uint256"}],"name":"FloodTriggered","type":"event"},{"anonymous":false,"inputs":[{"indexed":true,"internalType":"address","name":"user","type":"address"},{"indexed":true,"internalType":"address","name":"collection","type":"address"},{"indexed":false,"internalType":"uint256","name":"tokenId","type":"uint256"}],"name":"NFTRemoved","type":"event"},{"anonymous":false,"inputs":[{"indexed":true,"internalType":"address","name":"user","type":"address"},{"indexed":false,"internalType":"address[]","name":"collections","type":"address[]"},{"indexed":false,"internalType":"uint256[]","name":"tokenIds","type":"uint256[]"}],"name":"NFTsAdded","type":"event"},{"inputs":[{"internalType":"address[]","name":"collections","type":"address[]"},{"internalType":"uint256[]","name":"tokenIds","type":"uint256[]"}],"name":"addNFTs","outputs":[],"stateMutability":"nonpayable","type":"function"},{"inputs":[{"internalType":"address","name":"beneficiary","type":"address"},{"internalType":"uint256","name":"deadlineDuration","type":"uint256"},{"internalType":"address[]","name":"collections","type":"address[]"},{"internalType":"uint256[]","name":"tokenIds","type":"uint256[]"}],"name":"buildArk","outputs":[],"stateMutability":"nonpayable","type":"function"},{"inputs":[{"internalType":"address","name":"user","type":"address"}],"name":"flood","outputs":[],"stateMutability":"nonpayable","type":"function"},{"inputs":[{"internalType":"address","name":"user","type":"address"}],"name":"getArk","outputs":[{"internalType":"address","name":"beneficiary","type":"address"},{"internalType":"uint256","name":"deadline","type":"uint256"},{"internalType":"uint256","name":"deadlineDuration","type":"uint256"},{"internalType":"address[]","name":"collections","type":"address[]"},{"internalType":"uint256[]","name":"tokenIds","type":"uint256[]"}],"stateMutability":"view","type":"function"},{"inputs":[{"internalType":"address","name":"user","type":"address"}],"name":"hasArk","outputs":[{"internalType":"bool","name":"","type":"bool"}],"stateMutability":"view","type":"function"},{"inputs":[],"name":"pingArk","outputs":[],"stateMutability":"nonpayable","type":"function"},{"inputs":[{"internalType":"address","name":"collection","type":"address"},{"internalType":"uint256","name":"tokenId","type":"uint256"}],"name":"removeNFT","outputs":[],"stateMutability":"nonpayable","type":"function"},{"inputs":[{"internalType":"address","name":"newBeneficiary","type":"address"}],"name":"updateBeneficiary","outputs":[],"stateMutability":"nonpayable","type":"function"},{"inputs":[{"internalType":"uint256","name":"newDuration","type":"uint256"}],"name":"updateDeadlineDuration","outputs":[],"stateMutability":"nonpayable","type":"function"}],"evm":{"bytecode":{"linkReferences":{},"object":"6080806040523461001657610e37908161001c8239f35b600080fdfe60406080815260048036101561001457600080fd5b600091823560e01c806305688c1c1461078e5780630aaffd2a146107035780630d2542cc146106c65780630fe23da91461064857806331f0f7b61461053257806349fd566b14610506578063657634fa146102ce578063f2511bb11461014e5763fabb6a381461008357600080fd5b3461014a57602080600319360112610146578235923385528482526100af600184872001541515610a07565b831561010e5750907f270517e45d27f999faef5e16a3159117c83577723363227c5901cb52e315d8689133855284815283600283872001556100f18442610adb565b90338652858152816001848820015582519485528401523392a280f35b915162461bcd60e51b815291820152601460248201527304475726174696f6e206d757374206265203e20360641b6044820152606490fd5b8380fd5b8280fd5b503461014a57602036600319011261014a576001600160a01b039182610172610909565b169182855284602052808520936001808601918254610192811515610a8f565b421061028b5790816003899493895416980190815496855b8881106101e457868b8b7fde3f14ce4426137f4576388d16723795d5bf5e2f00597e0e8d63816a7342a1e160208d8d868d5551908152a380f35b909192939495506101f581856109c1565b5085848254169101548c823b15610288578c9160648d838d5196879485936323b872dd60e01b85528b8501526024978885015260448401525af1801561027e57908793929161024e575b505001908a95949392916101aa565b9091925067ffffffffffffffff821161026d575087528490388061023f565b634e487b7160e01b8d52604184528cfd5b89513d8f823e3d90fd5b80fd5b835162461bcd60e51b8152602081870152601760248201527f446561646c696e6520686173206e6f74207061737365640000000000000000006044820152606490fd5b50903461014a57608036600319011261014a576102e9610909565b602435916044359367ffffffffffffffff948581116105025761030f9036908401610924565b9290956064359081116104fe576103299036908301610924565b9590943389526020918983526001906001868c2001546104ba576001600160a01b039283169461035a861515610a43565b8115610477575091898b936103708b8a14610afe565b338552848652898b8a60036103a08c8a20958c6001600160601b0360a01b88541617875580600288015542610adb565b9860018601998a559401945b81851061042e5750505050505050507fd4c9fb4a0298b2717518a542bd4801ce0cb35fd35087636887f9e87ad8d75a3f90549184519283523392a3816103f0578580f35b7f4d7c68c8b60fa21b6b098a092c62e3e179f142cceade91a58e365c0dfbb6ed8b936104229151938493339785610bc9565b0390a238808080808580f35b8461046d9361044c610447838c99989661045296610b3c565b610b4c565b93610b3c565b35868c519261046084610955565b1682528982015284610b60565b01898b8a8e6103ac565b865162461bcd60e51b8152908101859052601d60248201527f446561646c696e65206475726174696f6e206d757374206265203e20300000006044820152606490fd5b5050925162461bcd60e51b815291820152601b60248201527f4163636f756e7420616c726561647920696e697469616c697a65640000000000604482015260649150fd5b8780fd5b8680fd5b83823461052e573660031901126102885761052b610522610909565b60243590610c3e565b80f35b5080fd5b5082903461052e578060031936011261052e5767ffffffffffffffff908335828111610146576105659036908601610924565b9490926024359081116106445761057e91369101610924565b94909133855260208560205260019061059e600184892001541515610a07565b6105a9888514610afe565b3387526020879052828720600301875b8581106105fc5788887f4d7c68c8b60fa21b6b098a092c62e3e179f142cceade91a58e365c0dfbb6ed8b89896105f68f8b51938493339785610bc9565b0390a280f35b8061063e8b61061c836106156104478a978f8e90610b3c565b928c610b3c565b3588519161062983610955565b6001600160a01b031682528682015284610b60565b016105b9565b8480fd5b83823461052e578160031936011261052e5733825281602052610672600182842001541515610a8f565b338252816020526106896002828420015442610adb565b90338352826020528160018285200155519081527ff1a463082eff5f74a481d3abd6fc308d976449c50289c0564e946069cb7d880560203392a280f35b83823461052e57602036600319011261052e5760209160019082906001600160a01b036106f1610909565b16815280855220015415159051908152f35b83823461052e57602036600319011261052e5761071e610909565b33835282602052610736600183852001541515610a07565b6001600160a01b03169061074b821515610a43565b338352826020528220816001600160601b0360a01b825416179055337fe72eaf6addaa195f3c83095031dd08f3a96808dcf047babed1fe4e4f69d6c6228380a380f35b5082346102885760209081600319360112610288576001600160a01b039290836107b6610909565b1681528083528181209260038401908154916107d1836109a9565b966107de86519889610987565b8388526107ea846109a9565b9783810194601f19809a01368737610801816109a9565b9361080e89519586610987565b81855261081a826109a9565b8587019b01368c37875b8281106108ba575050508188541690600197600260018b01549a01549080519a60a08c01948c52878c01528a015260a060608a01525180915260c08801949186905b8282106108a3575050505085830360808701525180835291810195925b8281106108905785870386f35b8351875295810195928101928401610883565b835181168752958501959285019290880190610866565b80856108d26001939c9e9c859c9a9b9c9897986109c1565b5054166108df82886109f3565b52816108eb82856109c1565b5001546108f882896109f3565b52019a989a97969597939293610824565b600435906001600160a01b038216820361091f57565b600080fd5b9181601f8401121561091f5782359167ffffffffffffffff831161091f576020808501948460051b01011161091f57565b6040810190811067ffffffffffffffff82111761097157604052565b634e487b7160e01b600052604160045260246000fd5b90601f8019910116810190811067ffffffffffffffff82111761097157604052565b67ffffffffffffffff81116109715760051b60200190565b80548210156109dd5760005260206000209060011b0190600090565b634e487b7160e01b600052603260045260246000fd5b80518210156109dd5760209160051b010190565b15610a0e57565b60405162461bcd60e51b815260206004820152600d60248201526c105c9ac81b9bdd08189d5a5b1d609a1b6044820152606490fd5b15610a4a57565b60405162461bcd60e51b815260206004820152601a60248201527f42656e65666963696172792063616e6e6f74206265207a65726f0000000000006044820152606490fd5b15610a9657565b60405162461bcd60e51b815260206004820152601760248201527f4163636f756e74206e6f7420696e697469616c697a65640000000000000000006044820152606490fd5b91908201809211610ae857565b634e487b7160e01b600052601160045260246000fd5b15610b0557565b60405162461bcd60e51b815260206004820152600f60248201526e098cadccee8d040dad2e6dac2e8c6d608b1b6044820152606490fd5b91908110156109dd5760051b0190565b356001600160a01b038116810361091f5790565b80546801000000000000000081101561097157610b82916001820181556109c1565b919091610bb357805182546001600160a01b0319166001600160a01b03919091161782556020015160019190910155565b634e487b7160e01b600052600060045260246000fd5b9091806040830160408452526060820192906000905b808210610c14575050508082036020909101528281526001600160fb1b03831161091f5760209260051b809284830137010190565b90919384359060018060a01b03821680920361091f57600191815260208091019501920190610bdf565b9091600091338352602093836020526001946040610c63876040882001541515610a07565b338652856020526003604087200195865496815b888110610cb35760405162461bcd60e51b815260206004820152600d60248201526c139195081b9bdd08199bdd5b99609a1b6044820152606490fd5b80610cbf8b92846109c1565b50546001600160a01b03898116918116821480610deb575b610ce357505001610c77565b91925098999293949596975060001992838101908111610dd757610d0a610d1291866109c1565b5092856109c1565b929092610dc35790818c928403610d9f575b5050505081548015610d8b570191610d3c83836109c1565b999099610d775789827f8423462d195254bc65aaec133460ea172b95d906a934f0442c54daf35726b10f98999a9b55015555519283523392a3565b634e487b7160e01b82526004829052602482fd5b634e487b7160e01b84526031600452602484fd5b82918154166001600160601b0360a01b855416178455015491015538898180610d24565b634e487b7160e01b86526004869052602486fd5b634e487b7160e01b86526011600452602486fd5b508884610df885886109c1565b50015414610cd756fea2646970667358221220194b83198040e886533c38a606f4fae7720b2ee65532488e270897a8818dfa4464736f6c63430008180033","opcodes":"PUSH1 0x80 DUP1 PUSH1 0x40 MSTORE CALLVALUE PUSH2 0x16 JUMPI PUSH2 0xE37 SWAP1 DUP2 PUSH2 0x1C DUP3 CODECOPY RETURN JUMPDEST PUSH1 0x0 DUP1 REVERT INVALID PUSH1 0x40 PUSH1 0x80 DUP2 MSTORE PUSH1 0x4 DUP1 CALLDATASIZE LT ISZERO PUSH2 0x14 JUMPI PUSH1 0x0 DUP1 REVERT JUMPDEST PUSH1 0x0 SWAP2 DUP3 CALLDATALOAD PUSH1 0xE0 SHR DUP1 PUSH4 0x5688C1C EQ PUSH2 0x78E JUMPI DUP1 PUSH4 0xAAFFD2A EQ PUSH2 0x703 JUMPI DUP1 PUSH4 0xD2542CC EQ PUSH2 0x6C6 JUMPI DUP1 PUSH4 0xFE23DA9 EQ PUSH2 0x648 JUMPI DUP1 PUSH4 0x31F0F7B6 EQ PUSH2 0x532 JUMPI DUP1 PUSH4 0x49FD566B EQ PUSH2 0x506 JUMPI DUP1 PUSH4 0x657634FA EQ PUSH2 0x2CE JUMPI DUP1 PUSH4 0xF2511BB1 EQ PUSH2 0x14E JUMPI PUSH4 0xFABB6A38 EQ PUSH2 0x83 JUMPI PUSH1 0x0 DUP1 REVERT JUMPDEST CALLVALUE PUSH2 0x14A JUMPI PUSH1 0x20 DUP1 PUSH1 0x3 NOT CALLDATASIZE ADD SLT PUSH2 0x146 JUMPI DUP3 CALLDATALOAD SWAP3 CALLER DUP6 MSTORE DUP5 DUP3 MSTORE PUSH2 0xAF PUSH1 0x1 DUP5 DUP8 KECCAK256 ADD SLOAD ISZERO ISZERO PUSH2 0xA07 JUMP JUMPDEST DUP4 ISZERO PUSH2 0x10E JUMPI POP SWAP1 PUSH32 0x270517E45D27F999FAEF5E16A3159117C83577723363227C5901CB52E315D868 SWAP2 CALLER DUP6 MSTORE DUP5 DUP2 MSTORE DUP4 PUSH1 0x2 DUP4 DUP8 KECCAK256 ADD SSTORE PUSH2 0xF1 DUP5 TIMESTAMP PUSH2 0xADB JUMP JUMPDEST SWAP1 CALLER DUP7 MSTORE DUP6 DUP2 MSTORE DUP2 PUSH1 0x1 DUP5 DUP9 KECCAK256 ADD SSTORE DUP3 MLOAD SWAP5 DUP6 MSTORE DUP5 ADD MSTORE CALLER SWAP3 LOG2 DUP1 RETURN JUMPDEST SWAP2 MLOAD PUSH3 0x461BCD PUSH1 0xE5 SHL DUP2 MSTORE SWAP2 DUP3 ADD MSTORE PUSH1 0x14 PUSH1 0x24 DUP3 ADD MSTORE PUSH20 0x4475726174696F6E206D757374206265203E203 PUSH1 0x64 SHL PUSH1 0x44 DUP3 ADD MSTORE PUSH1 0x64 SWAP1 REVERT JUMPDEST DUP4 DUP1 REVERT JUMPDEST DUP3 DUP1 REVERT JUMPDEST POP CALLVALUE PUSH2 0x14A JUMPI PUSH1 0x20 CALLDATASIZE PUSH1 0x3 NOT ADD SLT PUSH2 0x14A JUMPI PUSH1 0x1 PUSH1 0x1 PUSH1 0xA0 SHL SUB SWAP2 DUP3 PUSH2 0x172 PUSH2 0x909 JUMP JUMPDEST AND SWAP2 DUP3 DUP6 MSTORE DUP5 PUSH1 0x20 MSTORE DUP1 DUP6 KECCAK256 SWAP4 PUSH1 0x1 DUP1 DUP7 ADD SWAP2 DUP3 SLOAD PUSH2 0x192 DUP2 ISZERO ISZERO PUSH2 0xA8F JUMP JUMPDEST TIMESTAMP LT PUSH2 0x28B JUMPI SWAP1 DUP2 PUSH1 0x3 DUP10 SWAP5 SWAP4 DUP10 SLOAD AND SWAP9 ADD SWAP1 DUP2 SLOAD SWAP7 DUP6 JUMPDEST DUP9 DUP2 LT PUSH2 0x1E4 JUMPI DUP7 DUP12 DUP12 PUSH32 0xDE3F14CE4426137F4576388D16723795D5BF5E2F00597E0E8D63816A7342A1E1 PUSH1 0x20 DUP14 DUP14 DUP7 DUP14 SSTORE MLOAD SWAP1 DUP2 MSTORE LOG3 DUP1 RETURN JUMPDEST SWAP1 SWAP2 SWAP3 SWAP4 SWAP5 SWAP6 POP PUSH2 0x1F5 DUP2 DUP6 PUSH2 0x9C1 JUMP JUMPDEST POP DUP6 DUP5 DUP3 SLOAD AND SWAP2 ADD SLOAD DUP13 DUP3 EXTCODESIZE ISZERO PUSH2 0x288 JUMPI DUP13 SWAP2 PUSH1 0x64 DUP14 DUP4 DUP14 MLOAD SWAP7 DUP8 SWAP5 DUP6 SWAP4 PUSH4 0x23B872DD PUSH1 0xE0 SHL DUP6 MSTORE DUP12 DUP6 ADD MSTORE PUSH1 0x24 SWAP8 DUP9 DUP6 ADD MSTORE PUSH1 0x44 DUP5 ADD MSTORE GAS CALL DUP1 ISZERO PUSH2 0x27E JUMPI SWAP1 DUP8 SWAP4 SWAP3 SWAP2 PUSH2 0x24E JUMPI JUMPDEST POP POP ADD SWAP1 DUP11 SWAP6 SWAP5 SWAP4 SWAP3 SWAP2 PUSH2 0x1AA JUMP JUMPDEST SWAP1 SWAP2 SWAP3 POP PUSH8 0xFFFFFFFFFFFFFFFF DUP3 GT PUSH2 0x26D JUMPI POP DUP8 MSTORE DUP5 SWAP1 CODESIZE DUP1 PUSH2 0x23F JUMP JUMPDEST PUSH4 0x4E487B71 PUSH1 0xE0 SHL DUP14 MSTORE PUSH1 0x41 DUP5 MSTORE DUP13 REVERT JUMPDEST DUP10 MLOAD RETURNDATASIZE DUP16 DUP3 RETURNDATACOPY RETURNDATASIZE SWAP1 REVERT JUMPDEST DUP1 REVERT JUMPDEST DUP4 MLOAD PUSH3 0x461BCD PUSH1 0xE5 SHL DUP2 MSTORE PUSH1 0x20 DUP2 DUP8 ADD MSTORE PUSH1 0x17 PUSH1 0x24 DUP3 ADD MSTORE PUSH32 0x446561646C696E6520686173206E6F7420706173736564000000000000000000 PUSH1 0x44 DUP3 ADD MSTORE PUSH1 0x64 SWAP1 REVERT JUMPDEST POP SWAP1 CALLVALUE PUSH2 0x14A JUMPI PUSH1 0x80 CALLDATASIZE PUSH1 0x3 NOT ADD SLT PUSH2 0x14A JUMPI PUSH2 0x2E9 PUSH2 0x909 JUMP JUMPDEST PUSH1 0x24 CALLDATALOAD SWAP2 PUSH1 0x44 CALLDATALOAD SWAP4 PUSH8 0xFFFFFFFFFFFFFFFF SWAP5 DUP6 DUP2 GT PUSH2 0x502 JUMPI PUSH2 0x30F SWAP1 CALLDATASIZE SWAP1 DUP5 ADD PUSH2 0x924 JUMP JUMPDEST SWAP3 SWAP1 SWAP6 PUSH1 0x64 CALLDATALOAD SWAP1 DUP2 GT PUSH2 0x4FE JUMPI PUSH2 0x329 SWAP1 CALLDATASIZE SWAP1 DUP4 ADD PUSH2 0x924 JUMP JUMPDEST SWAP6 SWAP1 SWAP5 CALLER DUP10 MSTORE PUSH1 0x20 SWAP2 DUP10 DUP4 MSTORE PUSH1 0x1 SWAP1 PUSH1 0x1 DUP7 DUP13 KECCAK256 ADD SLOAD PUSH2 0x4BA JUMPI PUSH1 0x1 PUSH1 0x1 PUSH1 0xA0 SHL SUB SWAP3 DUP4 AND SWAP5 PUSH2 0x35A DUP7 ISZERO ISZERO PUSH2 0xA43 JUMP JUMPDEST DUP2 ISZERO PUSH2 0x477 JUMPI POP SWAP2 DUP10 DUP12 SWAP4 PUSH2 0x370 DUP12 DUP11 EQ PUSH2 0xAFE JUMP JUMPDEST CALLER DUP6 MSTORE DUP5 DUP7 MSTORE DUP10 DUP12 DUP11 PUSH1 0x3 PUSH2 0x3A0 DUP13 DUP11 KECCAK256 SWAP6 DUP13 PUSH1 0x1 PUSH1 0x1 PUSH1 0x60 SHL SUB PUSH1 0xA0 SHL DUP9 SLOAD AND OR DUP8 SSTORE DUP1 PUSH1 0x2 DUP9 ADD SSTORE TIMESTAMP PUSH2 0xADB JUMP JUMPDEST SWAP9 PUSH1 0x1 DUP7 ADD SWAP10 DUP11 SSTORE SWAP5 ADD SWAP5 JUMPDEST DUP2 DUP6 LT PUSH2 0x42E JUMPI POP POP POP POP POP POP POP POP PUSH32 0xD4C9FB4A0298B2717518A542BD4801CE0CB35FD35087636887F9E87AD8D75A3F SWAP1 SLOAD SWAP2 DUP5 MLOAD SWAP3 DUP4 MSTORE CALLER SWAP3 LOG3 DUP2 PUSH2 0x3F0 JUMPI DUP6 DUP1 RETURN JUMPDEST PUSH32 0x4D7C68C8B60FA21B6B098A092C62E3E179F142CCEADE91A58E365C0DFBB6ED8B SWAP4 PUSH2 0x422 SWAP2 MLOAD SWAP4 DUP5 SWAP4 CALLER SWAP8 DUP6 PUSH2 0xBC9 JUMP JUMPDEST SUB SWAP1 LOG2 CODESIZE DUP1 DUP1 DUP1 DUP1 DUP6 DUP1 RETURN JUMPDEST DUP5 PUSH2 0x46D SWAP4 PUSH2 0x44C PUSH2 0x447 DUP4 DUP13 SWAP10 SWAP9 SWAP7 PUSH2 0x452 SWAP7 PUSH2 0xB3C JUMP JUMPDEST PUSH2 0xB4C JUMP JUMPDEST SWAP4 PUSH2 0xB3C JUMP JUMPDEST CALLDATALOAD DUP7 DUP13 MLOAD SWAP3 PUSH2 0x460 DUP5 PUSH2 0x955 JUMP JUMPDEST AND DUP3 MSTORE DUP10 DUP3 ADD MSTORE DUP5 PUSH2 0xB60 JUMP JUMPDEST ADD DUP10 DUP12 DUP11 DUP15 PUSH2 0x3AC JUMP JUMPDEST DUP7 MLOAD PUSH3 0x461BCD PUSH1 0xE5 SHL DUP2 MSTORE SWAP1 DUP2 ADD DUP6 SWAP1 MSTORE PUSH1 0x1D PUSH1 0x24 DUP3 ADD MSTORE PUSH32 0x446561646C696E65206475726174696F6E206D757374206265203E2030000000 PUSH1 0x44 DUP3 ADD MSTORE PUSH1 0x64 SWAP1 REVERT JUMPDEST POP POP SWAP3 MLOAD PUSH3 0x461BCD PUSH1 0xE5 SHL DUP2 MSTORE SWAP2 DUP3 ADD MSTORE PUSH1 0x1B PUSH1 0x24 DUP3 ADD MSTORE PUSH32 0x4163636F756E7420616C726561647920696E697469616C697A65640000000000 PUSH1 0x44 DUP3 ADD MSTORE PUSH1 0x64 SWAP2 POP REVERT JUMPDEST DUP8 DUP1 REVERT JUMPDEST DUP7 DUP1 REVERT JUMPDEST DUP4 DUP3 CALLVALUE PUSH2 0x52E JUMPI CALLDATASIZE PUSH1 0x3 NOT ADD SLT PUSH2 0x288 JUMPI PUSH2 0x52B PUSH2 0x522 PUSH2 0x909 JUMP JUMPDEST PUSH1 0x24 CALLDATALOAD SWAP1 PUSH2 0xC3E JUMP JUMPDEST DUP1 RETURN JUMPDEST POP DUP1 REVERT JUMPDEST POP DUP3 SWAP1 CALLVALUE PUSH2 0x52E JUMPI DUP1 PUSH1 0x3 NOT CALLDATASIZE ADD SLT PUSH2 0x52E JUMPI PUSH8 0xFFFFFFFFFFFFFFFF SWAP1 DUP4 CALLDATALOAD DUP3 DUP2 GT PUSH2 0x146 JUMPI PUSH2 0x565 SWAP1 CALLDATASIZE SWAP1 DUP7 ADD PUSH2 0x924 JUMP JUMPDEST SWAP5 SWAP1 SWAP3 PUSH1 0x24 CALLDATALOAD SWAP1 DUP2 GT PUSH2 0x644 JUMPI PUSH2 0x57E SWAP2 CALLDATASIZE SWAP2 ADD PUSH2 0x924 JUMP JUMPDEST SWAP5 SWAP1 SWAP2 CALLER DUP6 MSTORE PUSH1 0x20 DUP6 PUSH1 0x20 MSTORE PUSH1 0x1 SWAP1 PUSH2 0x59E PUSH1 0x1 DUP5 DUP10 KECCAK256 ADD SLOAD ISZERO ISZERO PUSH2 0xA07 JUMP JUMPDEST PUSH2 0x5A9 DUP9 DUP6 EQ PUSH2 0xAFE JUMP JUMPDEST CALLER DUP8 MSTORE PUSH1 0x20 DUP8 SWAP1 MSTORE DUP3 DUP8 KECCAK256 PUSH1 0x3 ADD DUP8 JUMPDEST DUP6 DUP2 LT PUSH2 0x5FC JUMPI DUP9 DUP9 PUSH32 0x4D7C68C8B60FA21B6B098A092C62E3E179F142CCEADE91A58E365C0DFBB6ED8B DUP10 DUP10 PUSH2 0x5F6 DUP16 DUP12 MLOAD SWAP4 DUP5 SWAP4 CALLER SWAP8 DUP6 PUSH2 0xBC9 JUMP JUMPDEST SUB SWAP1 LOG2 DUP1 RETURN JUMPDEST DUP1 PUSH2 0x63E DUP12 PUSH2 0x61C DUP4 PUSH2 0x615 PUSH2 0x447 DUP11 SWAP8 DUP16 DUP15 SWAP1 PUSH2 0xB3C JUMP JUMPDEST SWAP3 DUP13 PUSH2 0xB3C JUMP JUMPDEST CALLDATALOAD DUP9 MLOAD SWAP2 PUSH2 0x629 DUP4 PUSH2 0x955 JUMP JUMPDEST PUSH1 0x1 PUSH1 0x1 PUSH1 0xA0 SHL SUB AND DUP3 MSTORE DUP7 DUP3 ADD MSTORE DUP5 PUSH2 0xB60 JUMP JUMPDEST ADD PUSH2 0x5B9 JUMP JUMPDEST DUP5 DUP1 REVERT JUMPDEST DUP4 DUP3 CALLVALUE PUSH2 0x52E JUMPI DUP2 PUSH1 0x3 NOT CALLDATASIZE ADD SLT PUSH2 0x52E JUMPI CALLER DUP3 MSTORE DUP2 PUSH1 0x20 MSTORE PUSH2 0x672 PUSH1 0x1 DUP3 DUP5 KECCAK256 ADD SLOAD ISZERO ISZERO PUSH2 0xA8F JUMP JUMPDEST CALLER DUP3 MSTORE DUP2 PUSH1 0x20 MSTORE PUSH2 0x689 PUSH1 0x2 DUP3 DUP5 KECCAK256 ADD SLOAD TIMESTAMP PUSH2 0xADB JUMP JUMPDEST SWAP1 CALLER DUP4 MSTORE DUP3 PUSH1 0x20 MSTORE DUP2 PUSH1 0x1 DUP3 DUP6 KECCAK256 ADD SSTORE MLOAD SWAP1 DUP2 MSTORE PUSH32 0xF1A463082EFF5F74A481D3ABD6FC308D976449C50289C0564E946069CB7D8805 PUSH1 0x20 CALLER SWAP3 LOG2 DUP1 RETURN JUMPDEST DUP4 DUP3 CALLVALUE PUSH2 0x52E JUMPI PUSH1 0x20 CALLDATASIZE PUSH1 0x3 NOT ADD SLT PUSH2 0x52E JUMPI PUSH1 0x20 SWAP2 PUSH1 0x1 SWAP1 DUP3 SWAP1 PUSH1 0x1 PUSH1 0x1 PUSH1 0xA0 SHL SUB PUSH2 0x6F1 PUSH2 0x909 JUMP JUMPDEST AND DUP2 MSTORE DUP1 DUP6 MSTORE KECCAK256 ADD SLOAD ISZERO ISZERO SWAP1 MLOAD SWAP1 DUP2 MSTORE RETURN JUMPDEST DUP4 DUP3 CALLVALUE PUSH2 0x52E JUMPI PUSH1 0x20 CALLDATASIZE PUSH1 0x3 NOT ADD SLT PUSH2 0x52E JUMPI PUSH2 0x71E PUSH2 0x909 JUMP JUMPDEST CALLER DUP4 MSTORE DUP3 PUSH1 0x20 MSTORE PUSH2 0x736 PUSH1 0x1 DUP4 DUP6 KECCAK256 ADD SLOAD ISZERO ISZERO PUSH2 0xA07 JUMP JUMPDEST PUSH1 0x1 PUSH1 0x1 PUSH1 0xA0 SHL SUB AND SWAP1 PUSH2 0x74B DUP3 ISZERO ISZERO PUSH2 0xA43 JUMP JUMPDEST CALLER DUP4 MSTORE DUP3 PUSH1 0x20 MSTORE DUP3 KECCAK256 DUP2 PUSH1 0x1 PUSH1 0x1 PUSH1 0x60 SHL SUB PUSH1 0xA0 SHL DUP3 SLOAD AND OR SWAP1 SSTORE CALLER PUSH32 0xE72EAF6ADDAA195F3C83095031DD08F3A96808DCF047BABED1FE4E4F69D6C622 DUP4 DUP1 LOG3 DUP1 RETURN JUMPDEST POP DUP3 CALLVALUE PUSH2 0x288 JUMPI PUSH1 0x20 SWAP1 DUP2 PUSH1 0x3 NOT CALLDATASIZE ADD SLT PUSH2 0x288 JUMPI PUSH1 0x1 PUSH1 0x1 PUSH1 0xA0 SHL SUB SWAP3 SWAP1 DUP4 PUSH2 0x7B6 PUSH2 0x909 JUMP JUMPDEST AND DUP2 MSTORE DUP1 DUP4 MSTORE DUP2 DUP2 KECCAK256 SWAP3 PUSH1 0x3 DUP5 ADD SWAP1 DUP2 SLOAD SWAP2 PUSH2 0x7D1 DUP4 PUSH2 0x9A9 JUMP JUMPDEST SWAP7 PUSH2 0x7DE DUP7 MLOAD SWAP9 DUP10 PUSH2 0x987 JUMP JUMPDEST DUP4 DUP9 MSTORE PUSH2 0x7EA DUP5 PUSH2 0x9A9 JUMP JUMPDEST SWAP8 DUP4 DUP2 ADD SWAP5 PUSH1 0x1F NOT DUP1 SWAP11 ADD CALLDATASIZE DUP8 CALLDATACOPY PUSH2 0x801 DUP2 PUSH2 0x9A9 JUMP JUMPDEST SWAP4 PUSH2 0x80E DUP10 MLOAD SWAP6 DUP7 PUSH2 0x987 JUMP JUMPDEST DUP2 DUP6 MSTORE PUSH2 0x81A DUP3 PUSH2 0x9A9 JUMP JUMPDEST DUP6 DUP8 ADD SWAP12 ADD CALLDATASIZE DUP13 CALLDATACOPY DUP8 JUMPDEST DUP3 DUP2 LT PUSH2 0x8BA JUMPI POP POP POP DUP2 DUP9 SLOAD AND SWAP1 PUSH1 0x1 SWAP8 PUSH1 0x2 PUSH1 0x1 DUP12 ADD SLOAD SWAP11 ADD SLOAD SWAP1 DUP1 MLOAD SWAP11 PUSH1 0xA0 DUP13 ADD SWAP5 DUP13 MSTORE DUP8 DUP13 ADD MSTORE DUP11 ADD MSTORE PUSH1 0xA0 PUSH1 0x60 DUP11 ADD MSTORE MLOAD DUP1 SWAP2 MSTORE PUSH1 0xC0 DUP9 ADD SWAP5 SWAP2 DUP7 SWAP1 JUMPDEST DUP3 DUP3 LT PUSH2 0x8A3 JUMPI POP POP POP POP DUP6 DUP4 SUB PUSH1 0x80 DUP8 ADD MSTORE MLOAD DUP1 DUP4 MSTORE SWAP2 DUP2 ADD SWAP6 SWAP3 JUMPDEST DUP3 DUP2 LT PUSH2 0x890 JUMPI DUP6 DUP8 SUB DUP7 RETURN JUMPDEST DUP4 MLOAD DUP8 MSTORE SWAP6 DUP2 ADD SWAP6 SWAP3 DUP2 ADD SWAP3 DUP5 ADD PUSH2 0x883 JUMP JUMPDEST DUP4 MLOAD DUP2 AND DUP8 MSTORE SWAP6 DUP6 ADD SWAP6 SWAP3 DUP6 ADD SWAP3 SWAP1 DUP9 ADD SWAP1 PUSH2 0x866 JUMP JUMPDEST DUP1 DUP6 PUSH2 0x8D2 PUSH1 0x1 SWAP4 SWAP13 SWAP15 SWAP13 DUP6 SWAP13 SWAP11 SWAP12 SWAP13 SWAP9 SWAP8 SWAP9 PUSH2 0x9C1 JUMP JUMPDEST POP SLOAD AND PUSH2 0x8DF DUP3 DUP9 PUSH2 0x9F3 JUMP JUMPDEST MSTORE DUP2 PUSH2 0x8EB DUP3 DUP6 PUSH2 0x9C1 JUMP JUMPDEST POP ADD SLOAD PUSH2 0x8F8 DUP3 DUP10 PUSH2 0x9F3 JUMP JUMPDEST MSTORE ADD SWAP11 SWAP9 SWAP11 SWAP8 SWAP7 SWAP6 SWAP8 SWAP4 SWAP3 SWAP4 PUSH2 0x824 JUMP JUMPDEST PUSH1 0x4 CALLDATALOAD SWAP1 PUSH1 0x1 PUSH1 0x1 PUSH1 0xA0 SHL SUB DUP3 AND DUP3 SUB PUSH2 0x91F JUMPI JUMP JUMPDEST PUSH1 0x0 DUP1 REVERT JUMPDEST SWAP2 DUP2 PUSH1 0x1F DUP5 ADD SLT ISZERO PUSH2 0x91F JUMPI DUP3 CALLDATALOAD SWAP2 PUSH8 0xFFFFFFFFFFFFFFFF DUP4 GT PUSH2 0x91F JUMPI PUSH1 0x20 DUP1 DUP6 ADD SWAP5 DUP5 PUSH1 0x5 SHL ADD ADD GT PUSH2 0x91F JUMPI JUMP JUMPDEST PUSH1 0x40 DUP2 ADD SWAP1 DUP2 LT PUSH8 0xFFFFFFFFFFFFFFFF DUP3 GT OR PUSH2 0x971 JUMPI PUSH1 0x40 MSTORE JUMP JUMPDEST PUSH4 0x4E487B71 PUSH1 0xE0 SHL PUSH1 0x0 MSTORE PUSH1 0x41 PUSH1 0x4 MSTORE PUSH1 0x24 PUSH1 0x0 REVERT JUMPDEST SWAP1 PUSH1 0x1F DUP1 NOT SWAP2 ADD AND DUP2 ADD SWAP1 DUP2 LT PUSH8 0xFFFFFFFFFFFFFFFF DUP3 GT OR PUSH2 0x971 JUMPI PUSH1 0x40 MSTORE JUMP JUMPDEST PUSH8 0xFFFFFFFFFFFFFFFF DUP2 GT PUSH2 0x971 JUMPI PUSH1 0x5 SHL PUSH1 0x20 ADD SWAP1 JUMP JUMPDEST DUP1 SLOAD DUP3 LT ISZERO PUSH2 0x9DD JUMPI PUSH1 0x0 MSTORE PUSH1 0x20 PUSH1 0x0 KECCAK256 SWAP1 PUSH1 0x1 SHL ADD SWAP1 PUSH1 0x0 SWAP1 JUMP JUMPDEST PUSH4 0x4E487B71 PUSH1 0xE0 SHL PUSH1 0x0 MSTORE PUSH1 0x32 PUSH1 0x4 MSTORE PUSH1 0x24 PUSH1 0x0 REVERT JUMPDEST DUP1 MLOAD DUP3 LT ISZERO PUSH2 0x9DD JUMPI PUSH1 0x20 SWAP2 PUSH1 0x5 SHL ADD ADD SWAP1 JUMP JUMPDEST ISZERO PUSH2 0xA0E JUMPI JUMP JUMPDEST PUSH1 0x40 MLOAD PUSH3 0x461BCD PUSH1 0xE5 SHL DUP2 MSTORE PUSH1 0x20 PUSH1 0x4 DUP3 ADD MSTORE PUSH1 0xD PUSH1 0x24 DUP3 ADD MSTORE PUSH13 0x105C9AC81B9BDD08189D5A5B1D PUSH1 0x9A SHL PUSH1 0x44 DUP3 ADD MSTORE PUSH1 0x64 SWAP1 REVERT JUMPDEST ISZERO PUSH2 0xA4A JUMPI JUMP JUMPDEST PUSH1 0x40 MLOAD PUSH3 0x461BCD PUSH1 0xE5 SHL DUP2 MSTORE PUSH1 0x20 PUSH1 0x4 DUP3 ADD MSTORE PUSH1 0x1A PUSH1 0x24 DUP3 ADD MSTORE PUSH32 0x42656E65666963696172792063616E6E6F74206265207A65726F000000000000 PUSH1 0x44 DUP3 ADD MSTORE PUSH1 0x64 SWAP1 REVERT JUMPDEST ISZERO PUSH2 0xA96 JUMPI JUMP JUMPDEST PUSH1 0x40 MLOAD PUSH3 0x461BCD PUSH1 0xE5 SHL DUP2 MSTORE PUSH1 0x20 PUSH1 0x4 DUP3 ADD MSTORE PUSH1 0x17 PUSH1 0x24 DUP3 ADD MSTORE PUSH32 0x4163636F756E74206E6F7420696E697469616C697A6564000000000000000000 PUSH1 0x44 DUP3 ADD MSTORE PUSH1 0x64 SWAP1 REVERT JUMPDEST SWAP2 SWAP1 DUP3 ADD DUP1 SWAP3 GT PUSH2 0xAE8 JUMPI JUMP JUMPDEST PUSH4 0x4E487B71 PUSH1 0xE0 SHL PUSH1 0x0 MSTORE PUSH1 0x11 PUSH1 0x4 MSTORE PUSH1 0x24 PUSH1 0x0 REVERT JUMPDEST ISZERO PUSH2 0xB05 JUMPI JUMP JUMPDEST PUSH1 0x40 MLOAD PUSH3 0x461BCD PUSH1 0xE5 SHL DUP2 MSTORE PUSH1 0x20 PUSH1 0x4 DUP3 ADD MSTORE PUSH1 0xF PUSH1 0x24 DUP3 ADD MSTORE PUSH15 0x98CADCCEE8D040DAD2E6DAC2E8C6D PUSH1 0x8B SHL PUSH1 0x44 DUP3 ADD MSTORE PUSH1 0x64 SWAP1 REVERT JUMPDEST SWAP2 SWAP1 DUP2 LT ISZERO PUSH2 0x9DD JUMPI PUSH1 0x5 SHL ADD SWAP1 JUMP JUMPDEST CALLDATALOAD PUSH1 0x1 PUSH1 0x1 PUSH1 0xA0 SHL SUB DUP2 AND DUP2 SUB PUSH2 0x91F JUMPI SWAP1 JUMP JUMPDEST DUP1 SLOAD PUSH9 0x10000000000000000 DUP2 LT ISZERO PUSH2 0x971 JUMPI PUSH2 0xB82 SWAP2 PUSH1 0x1 DUP3 ADD DUP2 SSTORE PUSH2 0x9C1 JUMP JUMPDEST SWAP2 SWAP1 SWAP2 PUSH2 0xBB3 JUMPI DUP1 MLOAD DUP3 SLOAD PUSH1 0x1 PUSH1 0x1 PUSH1 0xA0 SHL SUB NOT AND PUSH1 0x1 PUSH1 0x1 PUSH1 0xA0 SHL SUB SWAP2 SWAP1 SWAP2 AND OR DUP3 SSTORE PUSH1 0x20 ADD MLOAD PUSH1 0x1 SWAP2 SWAP1 SWAP2 ADD SSTORE JUMP JUMPDEST PUSH4 0x4E487B71 PUSH1 0xE0 SHL PUSH1 0x0 MSTORE PUSH1 0x0 PUSH1 0x4 MSTORE PUSH1 0x24 PUSH1 0x0 REVERT JUMPDEST SWAP1 SWAP2 DUP1 PUSH1 0x40 DUP4 ADD PUSH1 0x40 DUP5 MSTORE MSTORE PUSH1 0x60 DUP3 ADD SWAP3 SWAP1 PUSH1 0x0 SWAP1 JUMPDEST DUP1 DUP3 LT PUSH2 0xC14 JUMPI POP POP POP DUP1 DUP3 SUB PUSH1 0x20 SWAP1 SWAP2 ADD MSTORE DUP3 DUP2 MSTORE PUSH1 0x1 PUSH1 0x1 PUSH1 0xFB SHL SUB DUP4 GT PUSH2 0x91F JUMPI PUSH1 0x20 SWAP3 PUSH1 0x5 SHL DUP1 SWAP3 DUP5 DUP4 ADD CALLDATACOPY ADD ADD SWAP1 JUMP JUMPDEST SWAP1 SWAP2 SWAP4 DUP5 CALLDATALOAD SWAP1 PUSH1 0x1 DUP1 PUSH1 0xA0 SHL SUB DUP3 AND DUP1 SWAP3 SUB PUSH2 0x91F JUMPI PUSH1 0x1 SWAP2 DUP2 MSTORE PUSH1 0x20 DUP1 SWAP2 ADD SWAP6 ADD SWAP3 ADD SWAP1 PUSH2 0xBDF JUMP JUMPDEST SWAP1 SWAP2 PUSH1 0x0 SWAP2 CALLER DUP4 MSTORE PUSH1 0x20 SWAP4 DUP4 PUSH1 0x20 MSTORE PUSH1 0x1 SWAP5 PUSH1 0x40 PUSH2 0xC63 DUP8 PUSH1 0x40 DUP9 KECCAK256 ADD SLOAD ISZERO ISZERO PUSH2 0xA07 JUMP JUMPDEST CALLER DUP7 MSTORE DUP6 PUSH1 0x20 MSTORE PUSH1 0x3 PUSH1 0x40 DUP8 KECCAK256 ADD SWAP6 DUP7 SLOAD SWAP7 DUP2 JUMPDEST DUP9 DUP2 LT PUSH2 0xCB3 JUMPI PUSH1 0x40 MLOAD PUSH3 0x461BCD PUSH1 0xE5 SHL DUP2 MSTORE PUSH1 0x20 PUSH1 0x4 DUP3 ADD MSTORE PUSH1 0xD PUSH1 0x24 DUP3 ADD MSTORE PUSH13 0x139195081B9BDD08199BDD5B99 PUSH1 0x9A SHL PUSH1 0x44 DUP3 ADD MSTORE PUSH1 0x64 SWAP1 REVERT JUMPDEST DUP1 PUSH2 0xCBF DUP12 SWAP3 DUP5 PUSH2 0x9C1 JUMP JUMPDEST POP SLOAD PUSH1 0x1 PUSH1 0x1 PUSH1 0xA0 SHL SUB DUP10 DUP2 AND SWAP2 DUP2 AND DUP3 EQ DUP1 PUSH2 0xDEB JUMPI JUMPDEST PUSH2 0xCE3 JUMPI POP POP ADD PUSH2 0xC77 JUMP JUMPDEST SWAP2 SWAP3 POP SWAP9 SWAP10 SWAP3 SWAP4 SWAP5 SWAP6 SWAP7 SWAP8 POP PUSH1 0x0 NOT SWAP3 DUP4 DUP2 ADD SWAP1 DUP2 GT PUSH2 0xDD7 JUMPI PUSH2 0xD0A PUSH2 0xD12 SWAP2 DUP7 PUSH2 0x9C1 JUMP JUMPDEST POP SWAP3 DUP6 PUSH2 0x9C1 JUMP JUMPDEST SWAP3 SWAP1 SWAP3 PUSH2 0xDC3 JUMPI SWAP1 DUP2 DUP13 SWAP3 DUP5 SUB PUSH2 0xD9F JUMPI JUMPDEST POP POP POP POP DUP2 SLOAD DUP1 ISZERO PUSH2 0xD8B JUMPI ADD SWAP2 PUSH2 0xD3C DUP4 DUP4 PUSH2 0x9C1 JUMP JUMPDEST SWAP10 SWAP1 SWAP10 PUSH2 0xD77 JUMPI DUP10 DUP3 PUSH32 0x8423462D195254BC65AAEC133460EA172B95D906A934F0442C54DAF35726B10F SWAP9 SWAP10 SWAP11 SWAP12 SSTORE ADD SSTORE SSTORE MLOAD SWAP3 DUP4 MSTORE CALLER SWAP3 LOG3 JUMP JUMPDEST PUSH4 0x4E487B71 PUSH1 0xE0 SHL DUP3 MSTORE PUSH1 0x4 DUP3 SWAP1 MSTORE PUSH1 0x24 DUP3 REVERT JUMPDEST PUSH4 0x4E487B71 PUSH1 0xE0 SHL DUP5 MSTORE PUSH1 0x31 PUSH1 0x4 MSTORE PUSH1 0x24 DUP5 REVERT JUMPDEST DUP3 SWAP2 DUP2 SLOAD AND PUSH1 0x1 PUSH1 0x1 PUSH1 0x60 SHL SUB PUSH1 0xA0 SHL DUP6 SLOAD AND OR DUP5 SSTORE ADD SLOAD SWAP2 ADD SSTORE CODESIZE DUP10 DUP2 DUP1 PUSH2 0xD24 JUMP JUMPDEST PUSH4 0x4E487B71 PUSH1 0xE0 SHL DUP7 MSTORE PUSH1 0x4 DUP7 SWAP1 MSTORE PUSH1 0x24 DUP7 REVERT JUMPDEST PUSH4 0x4E487B71 PUSH1 0xE0 SHL DUP7 MSTORE PUSH1 0x11 PUSH1 0x4 MSTORE PUSH1 0x24 DUP7 REVERT JUMPDEST POP DUP9 DUP5 PUSH2 0xDF8 DUP6 DUP9 PUSH2 0x9C1 JUMP JUMPDEST POP ADD SLOAD EQ PUSH2 0xCD7 JUMP INVALID LOG2 PUSH5 0x6970667358 0x22 SLT KECCAK256 NOT 0x4B DUP4 NOT DUP1 BLOCKHASH 0xE8 DUP7 MSTORE8 EXTCODECOPY CODESIZE 0xA6 MOD DELEGATECALL STATICCALL 0xE7 PUSH19 0xB2EE65532488E270897A8818DFA4464736F6C PUSH4 0x43000818 STOP CALLER "},"methodIdentifiers":{"addNFTs(address[],uint256[])":"31f0f7b6","buildArk(address,uint256,address[],uint256[])":"657634fa","flood(address)":"f2511bb1","getArk(address)":"05688c1c","hasArk(address)":"0d2542cc","pingArk()":"0fe23da9","removeNFT(address,uint256)":"49fd566b","updateBeneficiary(address)":"0aaffd2a","updateDeadlineDuration(uint256)":"fabb6a38"}}}}}