{"contracts/NoahV4.sol":{"NoahV4":{"abi":[{"inputs":[{"internalType":"contract IPoolManager","name":"_poolManager","type":"address"},{"internalType":"address","name":"_usdc","type":"address"},{"internalType":"address","name":"_pyrusd","type":"address"},{"internalType":"address","name":"_hook","type":"address"}],"stateMutability":"nonpayable","type":"constructor"},{"inputs":[{"internalType":"address","name":"token","type":"address"}],"name":"SafeERC20FailedOperation","type":"error"},{"anonymous":false,"inputs":[{"indexed":true,"internalType":"address","name":"user","type":"address"},{"indexed":true,"internalType":"address","name":"beneficiary","type":"address"},{"indexed":false,"internalType":"uint256","name":"deadline","type":"uint256"}],"name":"ArkBuilt","type":"event"},{"anonymous":false,"inputs":[{"indexed":true,"internalType":"address","name":"user","type":"address"},{"indexed":false,"internalType":"uint256","name":"newDeadline","type":"uint256"}],"name":"ArkPinged","type":"event"},{"anonymous":false,"inputs":[{"indexed":true,"internalType":"address","name":"user","type":"address"},{"indexed":false,"internalType":"bool","name":"useDutchAuction","type":"bool"}],"name":"AuctionPreferenceUpdated","type":"event"},{"anonymous":false,"inputs":[{"indexed":true,"internalType":"address","name":"user","type":"address"},{"indexed":true,"internalType":"address","name":"newBeneficiary","type":"address"}],"name":"BeneficiaryUpdated","type":"event"},{"anonymous":false,"inputs":[{"indexed":true,"internalType":"address","name":"user","type":"address"},{"indexed":false,"internalType":"uint256","name":"newDuration","type":"uint256"},{"indexed":false,"internalType":"uint256","name":"newDeadline","type":"uint256"}],"name":"DeadlineUpdated","type":"event"},{"anonymous":false,"inputs":[{"indexed":true,"internalType":"address","name":"user","type":"address"},{"indexed":true,"internalType":"address","name":"token","type":"address"},{"indexed":false,"internalType":"address","name":"bidder","type":"address"},{"indexed":false,"internalType":"uint256","name":"bidAmount","type":"uint256"},{"indexed":false,"internalType":"uint256","name":"currentPrice","type":"uint256"}],"name":"DutchAuctionBid","type":"event"},{"anonymous":false,"inputs":[{"indexed":true,"internalType":"address","name":"user","type":"address"},{"indexed":true,"internalType":"address","name":"token","type":"address"},{"indexed":false,"internalType":"address","name":"winner","type":"address"},{"indexed":false,"internalType":"uint256","name":"amount","type":"uint256"},{"indexed":false,"internalType":"address","name":"beneficiary","type":"address"}],"name":"DutchAuctionSettled","type":"event"},{"anonymous":false,"inputs":[{"indexed":true,"internalType":"address","name":"user","type":"address"},{"indexed":true,"internalType":"address","name":"token","type":"address"},{"indexed":false,"internalType":"uint256","name":"startPrice","type":"uint256"},{"indexed":false,"internalType":"uint256","name":"endPrice","type":"uint256"},{"indexed":false,"internalType":"uint256","name":"duration","type":"uint256"}],"name":"DutchAuctionStarted","type":"event"},{"anonymous":false,"inputs":[{"indexed":true,"internalType":"address","name":"user","type":"address"},{"indexed":false,"internalType":"string","name":"customerId","type":"string"},{"indexed":false,"internalType":"string","name":"paymentAccountId","type":"string"}],"name":"FernInfoSaved","type":"event"},{"anonymous":false,"inputs":[{"indexed":true,"internalType":"address","name":"token","type":"address"},{"indexed":true,"internalType":"address","name":"to","type":"address"},{"indexed":false,"internalType":"uint256","name":"amount","type":"uint256"}],"name":"FernOfframped","type":"event"},{"anonymous":false,"inputs":[{"indexed":true,"internalType":"address","name":"provider","type":"address"}],"name":"FlareDataProviderUpdated","type":"event"},{"anonymous":false,"inputs":[{"indexed":true,"internalType":"address","name":"token","type":"address"},{"indexed":false,"internalType":"bytes21","name":"feedId","type":"bytes21"}],"name":"FlareFeedIdUpdated","type":"event"},{"anonymous":false,"inputs":[{"indexed":true,"internalType":"address","name":"user","type":"address"},{"indexed":true,"internalType":"address","name":"beneficiary","type":"address"},{"indexed":false,"internalType":"uint256","name":"usdcAmount","type":"uint256"}],"name":"FloodTriggered","type":"event"},{"anonymous":false,"inputs":[{"indexed":true,"internalType":"address","name":"user","type":"address"},{"indexed":true,"internalType":"address","name":"beneficiary","type":"address"},{"indexed":false,"internalType":"uint256","name":"amount","type":"uint256"}],"name":"PYUSDClaimed","type":"event"},{"anonymous":false,"inputs":[{"indexed":true,"internalType":"address","name":"user","type":"address"},{"indexed":false,"internalType":"address","name":"passenger","type":"address"}],"name":"PassengerRemoved","type":"event"},{"anonymous":false,"inputs":[{"indexed":true,"internalType":"address","name":"user","type":"address"},{"indexed":false,"internalType":"address[]","name":"newPassengers","type":"address[]"}],"name":"PassengersAdded","type":"event"},{"anonymous":false,"inputs":[{"indexed":true,"internalType":"address","name":"token","type":"address"},{"indexed":true,"internalType":"address","name":"priceFeed","type":"address"}],"name":"PriceFeedUpdated","type":"event"},{"anonymous":false,"inputs":[{"indexed":true,"internalType":"address","name":"user","type":"address"},{"indexed":false,"internalType":"bool","name":"usePYUSD","type":"bool"}],"name":"TargetCurrencyPreferenceUpdated","type":"event"},{"inputs":[{"internalType":"address[]","name":"_newPassengers","type":"address[]"}],"name":"addPassengers","outputs":[],"stateMutability":"nonpayable","type":"function"},{"inputs":[],"name":"admin","outputs":[{"internalType":"address","name":"","type":"address"}],"stateMutability":"view","type":"function"},{"inputs":[{"internalType":"address","name":"","type":"address"}],"name":"arks","outputs":[{"internalType":"address","name":"beneficiary","type":"address"},{"internalType":"uint256","name":"deadline","type":"uint256"},{"internalType":"uint256","name":"deadlineDuration","type":"uint256"},{"internalType":"bool","name":"useDutchAuction","type":"bool"},{"internalType":"bool","name":"usePYUSD","type":"bool"}],"stateMutability":"view","type":"function"},{"inputs":[{"internalType":"address","name":"","type":"address"},{"internalType":"address","name":"","type":"address"}],"name":"auctions","outputs":[{"internalType":"address","name":"token","type":"address"},{"internalType":"uint256","name":"startPrice","type":"uint256"},{"internalType":"uint256","name":"endPrice","type":"uint256"},{"internalType":"uint256","name":"startTime","type":"uint256"},{"internalType":"uint256","name":"duration","type":"uint256"},{"internalType":"bool","name":"active","type":"bool"},{"internalType":"address","name":"highestBidder","type":"address"},{"internalType":"uint256","name":"highestBid","type":"uint256"}],"stateMutability":"view","type":"function"},{"inputs":[{"internalType":"address","name":"_user","type":"address"},{"internalType":"address","name":"_token","type":"address"},{"internalType":"uint256","name":"_bidAmount","type":"uint256"}],"name":"bidOnDutchAuction","outputs":[],"stateMutability":"nonpayable","type":"function"},{"inputs":[{"internalType":"address","name":"_beneficiary","type":"address"},{"internalType":"uint256","name":"_deadlineDuration","type":"uint256"},{"internalType":"address[]","name":"_tokens","type":"address[]"},{"internalType":"bool","name":"_useDutchAuction","type":"bool"},{"internalType":"bool","name":"_usePYUSD","type":"bool"}],"name":"buildArk","outputs":[],"stateMutability":"nonpayable","type":"function"},{"inputs":[{"internalType":"address","name":"_beneficiary","type":"address"},{"internalType":"uint256","name":"_deadlineDuration","type":"uint256"},{"internalType":"address[]","name":"_tokens","type":"address[]"},{"internalType":"bool","name":"_useDutchAuction","type":"bool"},{"internalType":"bool","name":"_usePYUSD","type":"bool"},{"internalType":"string","name":"_customerId","type":"string"},{"internalType":"string","name":"_paymentAccountId","type":"string"}],"name":"buildArkWithFern","outputs":[],"stateMutability":"nonpayable","type":"function"},{"inputs":[{"internalType":"address","name":"","type":"address"}],"name":"fernInfos","outputs":[{"internalType":"string","name":"customerId","type":"string"},{"internalType":"string","name":"paymentAccountId","type":"string"}],"stateMutability":"view","type":"function"},{"inputs":[{"internalType":"address","name":"_token","type":"address"},{"internalType":"address","name":"_to","type":"address"},{"internalType":"uint256","name":"_amount","type":"uint256"}],"name":"fernOfframp","outputs":[],"stateMutability":"nonpayable","type":"function"},{"inputs":[],"name":"flareDataProvider","outputs":[{"internalType":"address","name":"","type":"address"}],"stateMutability":"view","type":"function"},{"inputs":[{"internalType":"address","name":"","type":"address"}],"name":"flareFeedIds","outputs":[{"internalType":"bytes21","name":"","type":"bytes21"}],"stateMutability":"view","type":"function"},{"inputs":[{"internalType":"address","name":"_user","type":"address"}],"name":"flood","outputs":[],"stateMutability":"nonpayable","type":"function"},{"inputs":[{"internalType":"address","name":"user","type":"address"}],"name":"getArk","outputs":[{"internalType":"address","name":"beneficiary","type":"address"},{"internalType":"uint256","name":"deadline","type":"uint256"},{"internalType":"uint256","name":"deadlineDuration","type":"uint256"},{"internalType":"address[]","name":"tokens","type":"address[]"},{"internalType":"bool","name":"useDutchAuction","type":"bool"},{"internalType":"bool","name":"usePYUSD","type":"bool"}],"stateMutability":"view","type":"function"},{"inputs":[{"internalType":"address","name":"_token","type":"address"}],"name":"getAverageUsdPrice","outputs":[{"internalType":"uint256","name":"","type":"uint256"}],"stateMutability":"view","type":"function"},{"inputs":[{"internalType":"address","name":"_user","type":"address"},{"internalType":"address","name":"_token","type":"address"}],"name":"getCurrentAuctionPrice","outputs":[{"internalType":"uint256","name":"currentPrice","type":"uint256"}],"stateMutability":"view","type":"function"},{"inputs":[{"internalType":"address","name":"_token","type":"address"}],"name":"getTokenPrice","outputs":[{"internalType":"uint256","name":"price","type":"uint256"}],"stateMutability":"view","type":"function"},{"inputs":[{"internalType":"address","name":"_token","type":"address"}],"name":"hasPriceFeed","outputs":[{"internalType":"bool","name":"","type":"bool"}],"stateMutability":"view","type":"function"},{"inputs":[],"name":"hookAddress","outputs":[{"internalType":"address","name":"","type":"address"}],"stateMutability":"view","type":"function"},{"inputs":[],"name":"pingArk","outputs":[],"stateMutability":"nonpayable","type":"function"},{"inputs":[],"name":"poolManager","outputs":[{"internalType":"contract IPoolManager","name":"","type":"address"}],"stateMutability":"view","type":"function"},{"inputs":[{"internalType":"BalanceDelta","name":"delta","type":"int256"},{"internalType":"bytes","name":"data","type":"bytes"}],"name":"poolManagerSwapCallback","outputs":[{"internalType":"bytes","name":"","type":"bytes"}],"stateMutability":"nonpayable","type":"function"},{"inputs":[{"internalType":"address","name":"","type":"address"}],"name":"priceFeeds","outputs":[{"internalType":"address","name":"","type":"address"}],"stateMutability":"view","type":"function"},{"inputs":[],"name":"pyrusdAddress","outputs":[{"internalType":"address","name":"","type":"address"}],"stateMutability":"view","type":"function"},{"inputs":[{"internalType":"address","name":"_passengerToRemove","type":"address"}],"name":"removePassenger","outputs":[],"stateMutability":"nonpayable","type":"function"},{"inputs":[{"internalType":"string","name":"_customerId","type":"string"},{"internalType":"string","name":"_paymentAccountId","type":"string"}],"name":"setFernInfo","outputs":[],"stateMutability":"nonpayable","type":"function"},{"inputs":[{"internalType":"address","name":"_provider","type":"address"}],"name":"setFlareDataProvider","outputs":[],"stateMutability":"nonpayable","type":"function"},{"inputs":[{"internalType":"address","name":"_token","type":"address"},{"internalType":"bytes21","name":"_feedId","type":"bytes21"}],"name":"setFlareFeedId","outputs":[],"stateMutability":"nonpayable","type":"function"},{"inputs":[{"internalType":"address","name":"_token","type":"address"},{"internalType":"address","name":"_priceFeed","type":"address"}],"name":"setPriceFeed","outputs":[],"stateMutability":"nonpayable","type":"function"},{"inputs":[{"internalType":"address","name":"_user","type":"address"},{"internalType":"address","name":"_token","type":"address"}],"name":"settleDutchAuction","outputs":[],"stateMutability":"nonpayable","type":"function"},{"inputs":[{"internalType":"address","name":"_newAdmin","type":"address"}],"name":"transferAdmin","outputs":[],"stateMutability":"nonpayable","type":"function"},{"inputs":[{"internalType":"bool","name":"_useDutchAuction","type":"bool"}],"name":"updateAuctionPreference","outputs":[],"stateMutability":"nonpayable","type":"function"},{"inputs":[{"internalType":"address","name":"_newBeneficiary","type":"address"}],"name":"updateBeneficiary","outputs":[],"stateMutability":"nonpayable","type":"function"},{"inputs":[{"internalType":"uint256","name":"_newDuration","type":"uint256"}],"name":"updateDeadlineDuration","outputs":[],"stateMutability":"nonpayable","type":"function"},{"inputs":[{"internalType":"bool","name":"_usePYUSD","type":"bool"}],"name":"updateTargetCurrencyPreference","outputs":[],"stateMutability":"nonpayable","type":"function"},{"inputs":[],"name":"usdcAddress","outputs":[{"internalType":"address","name":"","type":"address"}],"stateMutability":"view","type":"function"}],"evm":{"bytecode":{"linkReferences":{},"object":"610100346200015b57601f620039bd38819003918201601f19168301916001600160401b0383118484101762000160578084926080946040528339810103126200015b578051906001600160a01b03821682036200015b57620000656020820162000176565b620000816060620000796040850162000176565b930162000176565b60809390935260a05260c05260e052600380546001600160a01b0319163317905560405161383190816200018c823960805181818161096b01528181610ac501528181610b5701528181610cd501528181610f3401526115a1015260a0518181816104370152818161059b015281816108d4015281816109cf01528181610a6201528181610b9601528181610c0d015281816129c00152612bd7015260c0518181816103ad01528181610bd301528181610ea101528181611ba901526127ce015260e051818181610a0901528181610c4c015261215b0152f35b600080fd5b634e487b7160e01b600052604160045260246000fd5b51906001600160a01b03821682036200015b5756fe6080604052600436101561001257600080fd5b6000803560e01c8062f3c83214612c0657806302d4545714612bc157806305688c1c14612aca57806309e9b89f14612a1e5780630a50960d1461273d5780630aaffd2a146126715780630b7983a2146126345780630fe23da9146125b0578063162a58f21461227557806318242941146121d45780632c51ede41461218a57806332a3cf9614612145578063454d58d214612015578063500994c514611f8d5780636403b1df14611f21578063642e084e14611e9857806375829def14611e0757806376e1128614611d255780637900001314611c055780637a08d73014611bd85780637e923b7214611b9357806386da96ca14611b6a57806388b2187214611af757806388e63a0f146117395780639dcb511a146116fe5780639e7efb20146116d2578063afa9862a1461155e578063b92ce37914611431578063d02641a0146112f4578063daa12a3614610f63578063dc4c90d314610f1e578063f2511bb114610514578063f76e3696146102ae578063f851a440146102855763fabb6a381461019d57600080fd5b346102825760208060031936011261027e5760043590338352600481526101cc60016040852001541515613055565b811561022f57338352600481528160026040852001556101ec8242613032565b90338452600481528160016040862001556040519283528201527f270517e45d27f999faef5e16a3159117c83577723363227c5901cb52e315d86860403392a280f35b6084906040519062461bcd60e51b82526004820152602260248201527f4475726174696f6e206d7573742062652067726561746572207468616e207a65604482015261726f60f01b6064820152fd5b5080fd5b80fd5b50346102825780600319360112610282576003546040516001600160a01b039091168152602090f35b5034610282576102bd36612f1a565b60018060a09493941b03809216918285526020916005835281604087209516948560005283526040600020600581016102f960ff825416612ff1565b600382015460048301549061030e8282613032565b4210156104df57841561048e579061034e61032c61035493426131f2565b916103496001870154936103446002890154866131f2565b613243565b613256565b906131f2565b9384841061045b579260066060959361040a83947f703f9d09ecb9c1cb479797ac961a23f831480452f96fb5cdfe420b352742a464999760ff8e8d815260048b526004604082200154905060081c1660001461043457807f00000000000000000000000000000000000000000000000000000000000000005b16906103db87303385613731565b825460081c16908161041f575b50508054610100600160a81b0319163360081b610100600160a81b0316179055565b0155604051923384528301526040820152a380f35b61042d9186860154916135fd565b38806103e8565b807f00000000000000000000000000000000000000000000000000000000000000006103cd565b60405162461bcd60e51b815260048101879052600b60248201526a42696420746f6f206c6f7760a81b6044820152606490fd5b60405162461bcd60e51b8152600481018890526024808201527f42696420616d6f756e74206d7573742062652067726561746572207468616e206044820152637a65726f60e01b6064820152608490fd5b60405162461bcd60e51b815260048101889052600d60248201526c105d58dd1a5bdb88195b991959609a1b6044820152606490fd5b50346102825760203660031901126102825761052e612cbf565b6001600160a01b03811682526004602052604082206001810154909190610556811515613091565b4210610ed957600482015460ff16156108a057825b60038301548110156108565761058481600385016131c4565b90546001600160a01b0360039290921b1c811691907f000000000000000000000000000000000000000000000000000000000000000016821461084d576040516370a0823160e01b81526001600160a01b038416600482015291602083602481845afa928315610842578693610809575b5082610608575b50600191505b0161056b565b6305f5e10061061f61061983613346565b85613243565b048015908080046001148217156107f55761063e6103e8820482613032565b91600a908282810204821417156107e1578160646106629261066b940204906131f2565b94308785613731565b60405193846101008101106001600160401b03610100870111176107cb578461010060019601604052838152826020820152816040820152426060820152610e1060808201528560a08201528860c08201528860e0820152858060a01b0387168952600660e06005928360205260408c20876000526020526107806040600020948a8060a01b038351166bffffffffffffffffffffffff60a01b87541617865560208301518b870155604083015160028701556060830151600387015560808301516004870155850161075060a08401511515829060ff801983541691151516179055565b60c08301518154610100600160a81b03191660a08d901b8d90039190911660081b610100600160a81b0316179055565b01519101556040519182526020820152610e1060408201527f39a3045328465c82468e6e1dc742164b5a9097c34cf56ee021a8431685c52dbe6060858060a01b03871692a3386105fc565b634e487b7160e01b600052604160045260246000fd5b634e487b7160e01b89526011600452602489fd5b634e487b7160e01b88526011600452602488fd5b9092506020813d60201161083a575b8161082560209383612de4565b81010312610835575191386105f5565b600080fd5b3d9150610818565b6040513d88823e3d90fd5b60019150610602565b50905b60018101839055546040518381526001600160a01b0391821692909116907fde3f14ce4426137f4576388d16723795d5bf5e2f00597e0e8d63816a7342a1e190602090a380f35b908290815b6003820154811015610ed0576108be81600384016131c4565b90546001600160a01b0360039290921b1c8116907f00000000000000000000000000000000000000000000000000000000000000001681148015610e9e575b610e95576040516370a0823160e01b81526001600160a01b038616600482015290602082602481845afa918215610e8a578592610e56575b5081610948575b50506001905b016108a5565b61095482308884613731565b60405163095ea7b360e01b81526001600160a01b037f00000000000000000000000000000000000000000000000000000000000000001660048201526024810183905260208160448189865af180156108425791610a949391602093610e39575b50604051906109c382612dae565b81526001600160a01b037f0000000000000000000000000000000000000000000000000000000000000000811684830152610bb8604080840191909152603c60608401527f000000000000000000000000000000000000000000000000000000000000000090911660808301525191610a3b83612dc9565b60018352838301526040808301889052865481516001600160a01b039182168187019081527f0000000000000000000000000000000000000000000000000000000000000000909216602083015295610aa29287920190565b03601f198101865285612de4565b610ac06040519485938493633cf3645360e21b8552600485016136bd565b0381877f00000000000000000000000000000000000000000000000000000000000000006001600160a01b03165af1908115610d99578491610e07575b508060801d9084918582600f0b13600014610de357506001600160801b039150165b80610b2b575b8061093c565b600483015491959160081c60ff1615610dd157825460405163095ea7b360e01b81526001600160a01b037f00000000000000000000000000000000000000000000000000000000000000008116600483015260248201849052909116919060208180604481010381897f00000000000000000000000000000000000000000000000000000000000000006001600160a01b03165af18015610842579060209291610da4575b507f000000000000000000000000000000000000000000000000000000000000000092610cb260405191610c0383612dae565b6001600160a01b037f00000000000000000000000000000000000000000000000000000000000000008116845286811686850152610bb8604080860191909152603c60608601527f000000000000000000000000000000000000000000000000000000000000000090911660808501525193610c7e85612dc9565b600185528585015260408085018a905280516001600160a01b03928316818801908152929097166020830152869101610a94565b610cd06040519485938493633cf3645360e21b8552600485016136bd565b0381877f00000000000000000000000000000000000000000000000000000000000000006001600160a01b03165af1908115610d99578491610d66575b5080600192610d3a9260801d9186928782600f0b13600014610d4257506001600160801b03169150613032565b945b90610b25565b90508681600f0b13610d55575b50613032565b6001600160801b0316915038610d4f565b90506020813d602011610d91575b81610d8160209383612de4565b8101031261083557516001610d0d565b3d9150610d74565b6040513d86823e3d90fd5b610dc390833d8511610dca575b610dbb8183612de4565b8101906136a5565b5038610bd0565b503d610db1565b610ddd90600192613032565b94610d3c565b90508481600f0b13610df6575b50610b1f565b6001600160801b0391501638610df0565b90506020813d602011610e31575b81610e2260209383612de4565b81010312610835575138610afd565b3d9150610e15565b610e4f90843d8611610dca57610dbb8183612de4565b50386109b5565b9091506020813d602011610e82575b81610e7260209383612de4565b8101031261083557519038610935565b3d9150610e65565b6040513d87823e3d90fd5b50600190610942565b507f00000000000000000000000000000000000000000000000000000000000000006001600160a01b031681146108fd565b50909250610859565b60405162461bcd60e51b815260206004820152601760248201527f446561646c696e6520686173206e6f74207061737365640000000000000000006044820152606490fd5b50346102825780600319360112610282576040517f00000000000000000000000000000000000000000000000000000000000000006001600160a01b03168152602090f35b50346102825760a036600319011261028257610f7d612cbf565b906044356001600160401b03811161027e57610f9d903690600401612eea565b9290610fa7612d3b565b610faf612d4a565b94338552600460205260016040862001546112af576001600160a01b0384161561125b576024351561120257610fe760243542613032565b926040519360c085018581106001600160401b038211176107cb5760405260018060a01b0386168552602085015260243560408501526001600160401b0382116111ee578160051b604051926110406020830185612de4565b8352602083019036818401116111ea5782915b81840183106111d2575050505060608301521515608082015260a0810193151584523383526004602052604083209360018060a01b038251166bffffffffffffffffffffffff60a01b8654161785556020820151600186015560408201516002860155600385019460608301518051906001600160401b0382116111be57600160401b82116111be576020908854838a558084106111a4575b50019686526020862096865b82811061118757505050906111276080600461113e9594019301511515839060ff801983541691151516179055565b51815461ff00191690151560081b61ff0016179055565b61114a60243542613032565b6040519081526001600160a01b039091169033907fd4c9fb4a0298b2717518a542bd4801ce0cb35fd35087636887f9e87ad8d75a3f90602090a380f35b81516001600160a01b0316818a01556020909101906001016110f8565b8989528289206111b8918101908501613162565b386110ec565b634e487b7160e01b87526041600452602487fd5b602080916111df85612ceb565b815201920191611053565b8780fd5b634e487b7160e01b86526041600452602486fd5b60405162461bcd60e51b815260206004820152602b60248201527f446561646c696e65206475726174696f6e206d7573742062652067726561746560448201526a72207468616e207a65726f60a81b6064820152608490fd5b60405162461bcd60e51b815260206004820152602660248201527f42656e65666963696172792063616e6e6f7420626520746865207a65726f206160448201526564647265737360d01b6064820152608490fd5b60405162461bcd60e51b815260206004820152601b60248201527f4163636f756e7420616c726561647920696e697469616c697a656400000000006044820152606490fd5b5034610282576020366003190112610282576001600160a01b0380611317612cbf565b168252816020526040822054169081156113ec5760a060049260405193848092633fabe5a360e21b82525afa9182156113df5781926113a9575b5081131561136457602090604051908152f35b60405162461bcd60e51b815260206004820152601960248201527f496e76616c69642070726963652066726f6d206f7261636c65000000000000006044820152606490fd5b6113cc91925060a03d60a0116113d8575b6113c48183612de4565b810190613306565b50505090509038611351565b503d6113ba565b50604051903d90823e3d90fd5b60405162461bcd60e51b815260206004820152601c60248201527f50726963652066656564206e6f742073657420666f7220746f6b656e000000006044820152606490fd5b50346102825761144036612f1a565b6003546001600160a01b03906114599082163314612f4f565b80831693841561152357169182156114ee5781156114aa57816114a07f821bc8a3eb3d0a249cff1e37c430f9dc4eba89fcad96244d18503c023d9be9f893602093866135fd565b604051908152a380f35b606460405162461bcd60e51b815260206004820152602060248201527f416d6f756e74206d7573742062652067726561746572207468616e207a65726f6044820152fd5b60405162461bcd60e51b815260206004820152600d60248201526c24b73b30b634b2103a37b5b2b760991b6044820152606490fd5b60405162461bcd60e51b815260206004820152601360248201527224b73b30b634b2103232b9ba34b730ba34b7b760691b6044820152606490fd5b5034610282576040366003190112610282576001600160401b03906004356024358381116116ce57611594903690600401612cff565b90916001600160a01b03917f000000000000000000000000000000000000000000000000000000000000000083163303611689578360409181010312611685576115e960206115e285612ceb565b9401612ceb565b908060801d85908683600f0b1360001461165f5750506001600160801b0316915b82611649575b50505050604051906020820192828410908411176107cb57611645926040528152604051918291602083526020830190612eaa565b0390f35b80611656941691166135fd565b38808080611610565b909391508581600f0b13611674575b5061160a565b6001600160801b031692503861166e565b8380fd5b60405162461bcd60e51b815260206004820152601e60248201527f4f6e6c7920506f6f6c4d616e616765722063616e2063616c6c207468697300006044820152606490fd5b8280fd5b50346102825760203660031901126102825760206116f66116f1612cbf565b613346565b604051908152f35b5034610282576020366003190112610282576020906001600160a01b039060409082611728612cbf565b168152808452205416604051908152f35b50346102825760e036600319011261028257611753612cbf565b6001600160401b03908260443583811161027e57611775903690600401612eea565b929093611780612d3b565b93611789612d4a565b60a435838111611af3576117a1903690600401612cff565b95909760c4358581116116ce576117bc903690600401612cff565b969098303b1561168557611804946040519586948594636d50951b60e11b865260018060a01b031698896004870152602435602487015260a0604487015260a48601916131ff565b911515606484015215156084830152038183305af18015611ae857611ac0575b50301461182f578580f35b82151580611ab7575b611841906130dd565b6040519061184e82612d93565b61185936858861311c565b825261186636848761311c565b91602080820193845233895260068152604089209151918251848111611a0957806118918354612d59565b948c601f9686888211611a8b575b50505084908d878411600114611a285792611a1d575b50508160011b916000199060031b1c19161781555b60018091019451918251948511611a09576118e58654612d59565b8481116119d3575b5080938511600114611956575050918061193f94926000805160206137dc833981519152989796948b9261194b575b50508160011b916000199060031b1c19161790555b60405193849333978561319a565b0390a238808080808580f35b01519050388061191c565b858b52808b20939291601f198616918c915b8383106119bc575050509260019285926000805160206137dc8339815191529a99989661193f9896106119a3575b505050811b019055611931565b015160001960f88460031b161c19169055388080611996565b848601518755958601959481019491810191611968565b6119fa90878d52828d208680890160051c820192858a10611a00575b0160051c0190613162565b386118ed565b925081926119ef565b634e487b7160e01b8b52604160045260248bfd5b0151905038806118b5565b8581528681209350601f198516905b87828210611a75575050908460019594939210611a5c575b505050811b0181556118ca565b015160001960f88460031b161c19169055388080611a4f565b6001859682939686015181550195019301611a37565b8287611aaf9452208880860160051c820192898710611a00570160051c0190613162565b8c388661189f565b50811515611838565b828198929811611ad4576040529538611824565b634e487b7160e01b82526041600452602482fd5b6040513d8a823e3d90fd5b8580fd5b50346102825760203660031901126102825760a0906001600160a01b039060ff9060409083611b24612cbf565b16815260046020522091825416916001810154906004600282015491015491604051948552602085015260408401528181161515606084015260081c1615156080820152f35b50346102825780600319360112610282576002546040516001600160a01b039091168152602090f35b50346102825780600319360112610282576040517f00000000000000000000000000000000000000000000000000000000000000006001600160a01b03168152602090f35b50346102825760403660031901126102825760206116f6611bf7612cbf565b611bff612cd5565b90613276565b50346102825760208060031936011261027e576004356001600160401b0381116116ce57611c37903690600401612eea565b913384526004602052600190611c5560016040872001541515613055565b845b848110611ca257505050611c9c7fb90857f670e2787419d97e8ad1483239915b735fecc028adf074ef41c09d602c9160405191829160208352339560208401916131ff565b0390a280f35b3386526004825260408620600582901b850135906003016001600160a01b03821682036111ea57805490600160401b821015611d115791611ced8287959486611d0b950181556131c4565b90919060018060a01b038084549260031b9316831b921b1916179055565b01611c57565b634e487b7160e01b89526041600452602489fd5b503461028257604036600319011261028257611d3f612cbf565b611d47612cd5565b9060018060a01b038091611d6082600354163314612f4f565b1691611d6d831515612fa5565b16908115611db85780835260208390526040832080546001600160a01b031916831790557fa8abe0398416476db5b05737cd4da3b3cbde5012d978a6a6c3fd49d3217535368380a380f35b60405162461bcd60e51b815260206004820152602160248201527f507269636520666565642063616e6e6f74206265207a65726f206164647265736044820152607360f81b6064820152608490fd5b503461028257602036600319011261028257611e21612cbf565b600354906001600160a01b0390611e3b3383851614612f4f565b16908115611e54576001600160a01b0319161760035580f35b606460405162461bcd60e51b815260206004820152602060248201527f4e65772061646d696e2063616e6e6f74206265207a65726f20616464726573736044820152fd5b503461028257602036600319011261028257611eb2612d2c565b3382526004602052611ecc60016040842001541515613055565b3382526004602052611ef081600460408520019060ff801983541691151516179055565b60405190151581527fbd4ccd3b9f23b35b213567ff600237372c8368625bc58d2e36225cc085e03c6d60203392a280f35b503461028257602036600319011261028257611f7f906040906001600160a01b03611f4a612cbf565b168152600660205220611645611f6b6001611f6484612e05565b9301612e05565b604051938493604085526040850190612eaa565b908382036020850152612eaa565b503461028257602036600319011261028257611fa7612d2c565b3382526004602052611fc160016040842001541515613055565b338252600460208190526040832001805461ff00191682151560081b61ff001617905560405190151581527f94c87bc2c95c8b72cf0437c0239fc65c2e8a5569f7ffaf72ac05f074e65c536160203392a280f35b50346102825760203660031901126102825761202f612cbf565b338252600460205260019061204c60016040852001541515613055565b3383526004602052816003806040862001859360018060a01b03809116955b6120a1575b86866040519081527f08eac65c9901be8390f0cf78f2ca8d86e706341713377dca39b0472fc07cdd0560203392a280f35b81548086101561213f5786826120b788866131c4565b905490871b1c16146120ce5750838095019461206b565b9193509193600019918281019081116107f55790611ced846120f361210194886131c4565b905490891b1c1691866131c4565b8254801561212b57019261211584846131c4565b81939154921b1b19169055553880808080612070565b634e487b7160e01b87526031600452602487fd5b50612070565b50346102825780600319360112610282576040517f00000000000000000000000000000000000000000000000000000000000000006001600160a01b03168152602090f35b5034610282576020366003190112610282576020906040906001600160a01b036121b2612cbf565b16815260018352205460581b604051906affffffffffffffffffffff19168152f35b5034610282576040366003190112610282576101009060406121f4612cbf565b916121fd612cd5565b60018060a01b03809416825260056020528383832091168252602052208181541691600182015491600281015460038201546004830154916006600585015494015495604051978852602088015260408701526060860152608085015260ff8116151560a085015260081c1660c083015260e0820152f35b5034610282576040366003190112610282576001600160401b036004358181116116ce576122a7903690600401612cff565b6024929192358281116125ac576122c2903690600401612cff565b919091338652602093600485526001906122e38260408a2001541515613055565b3388526004865260408820546001600160a01b03163003612558578315158061254f575b612310906130dd565b6040519161231d83612d93565b61232836868a61311c565b835261233536858861311c565b92878101938452338a526006885260408a20905190815184811161253b579083918c6123618354612d59565b94601f958d87821161250e575b50508c918684116001146124aa5791908361249f575b5050600019600383901b1c191690831b1781555b019351978851938411611a09576123af8554612d59565b828111612473575b508091841160011461240f575091808092611c9c9695946000805160206137dc8339815191529a8d94612404575b50501b916000199060031b1c191617905560405193849333978561319a565b0151925038806123e5565b919394959697601f198416868c52838c20938c905b82821061245c575050916000805160206137dc83398151915299989795939185611c9c989694106119a357505050811b019055611931565b808886978294978701518155019601940190612424565b61249990868d52828d208480880160051c820192858910611a00570160051c0190613162565b386123b7565b015190503880612384565b8481528d8120929190601f198516908f5b8282106124f757505090848795949392106124de575b505050811b018155612398565b015160001960f88460031b161c191690553880806124d1565b8385015186558a989095019493840193018f6124bb565b61253491868552888286209181880160051c8301938810611a00570160051c0190613162565b388d61236e565b634e487b7160e01b8c52604160045260248cfd5b50821515612307565b60405162461bcd60e51b815260048101879052602660248201527f4665726e206f6e6c79207768656e20636f6e74726163742069732062656e656660448201526569636961727960d01b6064820152608490fd5b8480fd5b503461028257806003193601126102825733815260046020526125db60016040832001541515613091565b33815260046020526125f4600260408320015442613032565b33825260046020528060016040842001556040519081527ff1a463082eff5f74a481d3abd6fc308d976449c50289c0564e946069cb7d880560203392a280f35b5034610282576020366003190112610282576020906001600160a01b03906040908261265e612cbf565b1681528084522054161515604051908152f35b50346102825760203660031901126102825761268b612cbf565b33825260046020526126a560016040842001541515613055565b6001600160a01b031680156126f8573380835260046020526040832080546001600160a01b031916831790557fe72eaf6addaa195f3c83095031dd08f3a96808dcf047babed1fe4e4f69d6c6228380a380f35b60405162461bcd60e51b815260206004820152601a60248201527f42656e65666963696172792063616e6e6f74206265207a65726f0000000000006044820152606490fd5b503461028257604036600319011261028257612757612cbf565b61275f612cd5565b60018060a01b0380831690818552602093600585528160408720941693848752855260408620600581019586549261279960ff8516612ff1565b6127ac6003840154600485015490613032565b42106129e557858952600480835260408a20015460081c60ff16156129bd57847f0000000000000000000000000000000000000000000000000000000000000000945b60081c161561290457506040516370a0823160e01b815230600482015281816024818a5afa9081156128f95789916128a0575b50908461285b60609594937f60fe5c7ed4fe46663ec53f1fbd38f2c85063cea69e1425471df15414dea59aa5978b5460081c168a6135fd565b868a526004825261287c60068260408d2054169401948483875492166135fd565b885460081c169254906040519384528301526040820152a35b805460ff1916905580f35b93929180915084813d83116128f2575b6128ba8183612de4565b810103126128ee579251919290917f60fe5c7ed4fe46663ec53f1fbd38f2c85063cea69e1425471df15414dea59aa5612822565b8880fd5b503d6128b0565b6040513d8b823e3d90fd5b6040516370a0823160e01b8152306004820152945090925090508183602481885afa9283156129b257879361297b575b50906129647f60fe5c7ed4fe46663ec53f1fbd38f2c85063cea69e1425471df15414dea59aa593606093876135fd565b8660405191818352820152836040820152a3612895565b9250908083813d83116129ab575b6129938183612de4565b810103126129a75791519190612964612934565b8680fd5b503d612989565b6040513d89823e3d90fd5b847f0000000000000000000000000000000000000000000000000000000000000000946127ef565b60405162461bcd60e51b8152600481018390526011602482015270105d58dd1a5bdb881b9bdd08195b991959607a1b6044820152606490fd5b503461028257604036600319011261028257612a38612cbf565b602435906affffffffffffffffffffff19821690818303611685577fca2b3580c9ee988529004f370d25905af22fc1e28e742681840ff149984285009160209160018060a01b0390612a8f82600354163314612f4f565b1693612a9c851515612fa5565b84865260018352604086209060581c6affffffffffffffffffffff60a81b825416179055604051908152a280f35b50346102825760209081600319360112610282576001600160a01b03919082612af1612cbf565b168152600482526040812090838254166001906001840154946002850154966004600387019601549760405190818489549182815201908199895285892090895b818110612bac5750505082612b48910383612de4565b6040519860c08a01958a52848a0152604089015260c060608901525180935260e087019594905b838210612b955787808860ff8c8181161515608085015260081c16151560a08301520390f35b855181168752958201959482019490840190612b6f565b82548716845292870192918901918901612b32565b50346102825780600319360112610282576040517f00000000000000000000000000000000000000000000000000000000000000006001600160a01b03168152602090f35b503461028257602036600319011261028257612c20612cbf565b6003546001600160a01b039190612c3a9083163314612f4f565b168015612c7a57600280546001600160a01b031916821790557f3c01cdff3948f21ef3c7c09ef9f489cdea8bb7a4c2d356c635795f8ae7df89658280a280f35b60405162461bcd60e51b815260206004820152601f60248201527f50726f76696465722063616e6e6f74206265207a65726f2061646472657373006044820152606490fd5b600435906001600160a01b038216820361083557565b602435906001600160a01b038216820361083557565b35906001600160a01b038216820361083557565b9181601f84011215610835578235916001600160401b038311610835576020838186019501011161083557565b60043590811515820361083557565b60643590811515820361083557565b60843590811515820361083557565b90600182811c92168015612d89575b6020831014612d7357565b634e487b7160e01b600052602260045260246000fd5b91607f1691612d68565b604081019081106001600160401b038211176107cb57604052565b60a081019081106001600160401b038211176107cb57604052565b606081019081106001600160401b038211176107cb57604052565b90601f801991011681019081106001600160401b038211176107cb57604052565b90604051918260008254612e1881612d59565b90818452602094600191600181169081600014612e885750600114612e49575b505050612e4792500383612de4565b565b600090815285812095935091905b818310612e70575050612e479350820101388080612e38565b85548884018501529485019487945091830191612e57565b92505050612e4794925060ff191682840152151560051b820101388080612e38565b919082519283825260005b848110612ed6575050826000602080949584010152601f8019910116010190565b602081830181015184830182015201612eb5565b9181601f84011215610835578235916001600160401b038311610835576020808501948460051b01011161083557565b6060906003190112610835576001600160a01b0390600435828116810361083557916024359081168103610835579060443590565b15612f5657565b60405162461bcd60e51b815260206004820152602160248201527f4f6e6c792061646d696e2063616e2063616c6c20746869732066756e6374696f6044820152603760f91b6064820152608490fd5b15612fac57565b60405162461bcd60e51b815260206004820152601c60248201527f546f6b656e2063616e6e6f74206265207a65726f2061646472657373000000006044820152606490fd5b15612ff857565b60405162461bcd60e51b815260206004820152601260248201527141756374696f6e206e6f742061637469766560701b6044820152606490fd5b9190820180921161303f57565b634e487b7160e01b600052601160045260246000fd5b1561305c57565b60405162461bcd60e51b815260206004820152600d60248201526c105c9ac81b9bdd08189d5a5b1d609a1b6044820152606490fd5b1561309857565b60405162461bcd60e51b815260206004820152601760248201527f4163636f756e74206e6f7420696e697469616c697a65640000000000000000006044820152606490fd5b156130e457565b60405162461bcd60e51b815260206004820152601060248201526f496e76616c6964204665726e2049447360801b6044820152606490fd5b9291926001600160401b0382116107cb5760405191613145601f8201601f191660200184612de4565b829481845281830111610835578281602093846000960137010152565b81811061316d575050565b60008155600101613162565b908060209392818452848401376000828201840152601f01601f1916010190565b92906131b3906131c19593604086526040860191613179565b926020818503910152613179565b90565b80548210156131dc5760005260206000200190600090565b634e487b7160e01b600052603260045260246000fd5b9190820391821161303f57565b91908082526020809201929160005b82811061321c575050505090565b909192938280600192838060a01b0361323489612ceb565b1681520195019392910161320e565b8181029291811591840414171561303f57565b8115613260570490565b634e487b7160e01b600052601260045260246000fd5b60018060a01b0380911660005260056020526040600020911660005260205260406000206132aa60ff600583015416612ff1565b6132b86003820154426131f2565b90600481015491828110156132e5576131c19261034961034e9261034460026001870154960154866131f2565b5060029150015490565b519069ffffffffffffffffffff8216820361083557565b908160a09103126108355761331a816132ef565b916020820151916040810151916131c16080606084015193016132ef565b519060ff8216820361083557565b9060008060018060a01b0380941680835260209083825260409580878620541680613511575b506002541690816133cf575b5050821561338c57506131c1929350613256565b60649085519062461bcd60e51b82526004820152601860248201527f4e6f20707269636520666565647320617661696c61626c6500000000000000006044820152fd5b60005260018252856affffffffffffffffffffff19816000205460581b16806133f9575b50613378565b81516364d12fa760e11b81526004810182905260008382602481885afa80928280946134cd575b50506134c357505060248251809481936349f4fc0360e11b835260048301525afa60009181613494575b5061348c5750600860005b80613462575b86906133f3565b613478929493916134729161364f565b90613032565b906001810180911161303f5791388061345b565b600890613455565b9091508681813d83116134bc575b6134ac8183612de4565b810103126108355751903861344a565b503d6134a2565b9250925050613455565b9250809350859194953d831161350a575b6134e88183612de4565b8101031261028257509081613502868b9594519201613338565b913880613420565b503d6134de565b8751633fabe5a360e21b81529060a082600481845afa9182156135f35787926135cd575b50868213613544575b5061336c565b600491939550849089979397519283809263313ce56760e01b82525afa9182156135c2578092613585575b505061357a9161364f565b91600193388061353e565b9091508382813d83116135bb575b61359d8183612de4565b810103126102825750906135b361357a92613338565b90913861356f565b503d613593565b8851903d90823e3d90fd5b6135e791925060a03d60a0116113d8576113c48183612de4565b50505090509038613535565b89513d89823e3d90fd5b60405163a9059cbb60e01b60208201526001600160a01b03929092166024830152604480830193909352918152612e4791613639606483612de4565b613773565b60ff16604d811161303f57600a0a90565b9060ff16600881146136a157600881111561368357600719019060ff821161303f5761367d6131c19261363e565b90613256565b6008039060ff821161303f5761369b6131c19261363e565b90613243565b5090565b90816020910312610835575180151581036108355790565b608060406131c195946101209460018060a01b0393818580935116875282602082015116602088015262ffffff858201511685880152606081015160020b606088015201511660808501528051151560a0850152602081015160c085015201511660e0820152816101008201520190612eaa565b6040516323b872dd60e01b60208201526001600160a01b039283166024820152929091166044830152606480830193909352918152612e479161363982612dae565b906000602091828151910182855af1156137cf576000513d6137c657506001600160a01b0381163b155b6137a45750565b604051635274afe760e01b81526001600160a01b039091166004820152602490fd5b6001141561379d565b6040513d6000823e3d90fdfe43507d2f07d7cbcbea5004e155fafc42cb9ec32f0ec4f7cc904bf79aef318e1ba264697066735822122016acd92c670da9ce2a41c040cb390ee9f40ddc2f82068efe8f1288b374f6f88264736f6c63430008180033","opcodes":"PUSH2 0x100 CALLVALUE PUSH3 0x15B JUMPI PUSH1 0x1F PUSH3 0x39BD CODESIZE DUP2 SWAP1 SUB SWAP2 DUP3 ADD PUSH1 0x1F NOT AND DUP4 ADD SWAP2 PUSH1 0x1 PUSH1 0x1 PUSH1 0x40 SHL SUB DUP4 GT DUP5 DUP5 LT OR PUSH3 0x160 JUMPI DUP1 DUP5 SWAP3 PUSH1 0x80 SWAP5 PUSH1 0x40 MSTORE DUP4 CODECOPY DUP2 ADD SUB SLT PUSH3 0x15B JUMPI DUP1 MLOAD SWAP1 PUSH1 0x1 PUSH1 0x1 PUSH1 0xA0 SHL SUB DUP3 AND DUP3 SUB PUSH3 0x15B JUMPI PUSH3 0x65 PUSH1 0x20 DUP3 ADD PUSH3 0x176 JUMP JUMPDEST PUSH3 0x81 PUSH1 0x60 PUSH3 0x79 PUSH1 0x40 DUP6 ADD PUSH3 0x176 JUMP JUMPDEST SWAP4 ADD PUSH3 0x176 JUMP JUMPDEST PUSH1 0x80 SWAP4 SWAP1 SWAP4 MSTORE PUSH1 0xA0 MSTORE PUSH1 0xC0 MSTORE PUSH1 0xE0 MSTORE PUSH1 0x3 DUP1 SLOAD PUSH1 0x1 PUSH1 0x1 PUSH1 0xA0 SHL SUB NOT AND CALLER OR SWAP1 SSTORE PUSH1 0x40 MLOAD PUSH2 0x3831 SWAP1 DUP2 PUSH3 0x18C DUP3 CODECOPY PUSH1 0x80 MLOAD DUP2 DUP2 DUP2 PUSH2 0x96B ADD MSTORE DUP2 DUP2 PUSH2 0xAC5 ADD MSTORE DUP2 DUP2 PUSH2 0xB57 ADD MSTORE DUP2 DUP2 PUSH2 0xCD5 ADD MSTORE DUP2 DUP2 PUSH2 0xF34 ADD MSTORE PUSH2 0x15A1 ADD MSTORE PUSH1 0xA0 MLOAD DUP2 DUP2 DUP2 PUSH2 0x437 ADD MSTORE DUP2 DUP2 PUSH2 0x59B ADD MSTORE DUP2 DUP2 PUSH2 0x8D4 ADD MSTORE DUP2 DUP2 PUSH2 0x9CF ADD MSTORE DUP2 DUP2 PUSH2 0xA62 ADD MSTORE DUP2 DUP2 PUSH2 0xB96 ADD MSTORE DUP2 DUP2 PUSH2 0xC0D ADD MSTORE DUP2 DUP2 PUSH2 0x29C0 ADD MSTORE PUSH2 0x2BD7 ADD MSTORE PUSH1 0xC0 MLOAD DUP2 DUP2 DUP2 PUSH2 0x3AD ADD MSTORE DUP2 DUP2 PUSH2 0xBD3 ADD MSTORE DUP2 DUP2 PUSH2 0xEA1 ADD MSTORE DUP2 DUP2 PUSH2 0x1BA9 ADD MSTORE PUSH2 0x27CE ADD MSTORE PUSH1 0xE0 MLOAD DUP2 DUP2 DUP2 PUSH2 0xA09 ADD MSTORE DUP2 DUP2 PUSH2 0xC4C ADD MSTORE PUSH2 0x215B ADD MSTORE RETURN JUMPDEST PUSH1 0x0 DUP1 REVERT JUMPDEST PUSH4 0x4E487B71 PUSH1 0xE0 SHL PUSH1 0x0 MSTORE PUSH1 0x41 PUSH1 0x4 MSTORE PUSH1 0x24 PUSH1 0x0 REVERT JUMPDEST MLOAD SWAP1 PUSH1 0x1 PUSH1 0x1 PUSH1 0xA0 SHL SUB DUP3 AND DUP3 SUB PUSH3 0x15B JUMPI JUMP INVALID PUSH1 0x80 PUSH1 0x40 MSTORE PUSH1 0x4 CALLDATASIZE LT ISZERO PUSH2 0x12 JUMPI PUSH1 0x0 DUP1 REVERT JUMPDEST PUSH1 0x0 DUP1 CALLDATALOAD PUSH1 0xE0 SHR DUP1 PUSH3 0xF3C832 EQ PUSH2 0x2C06 JUMPI DUP1 PUSH4 0x2D45457 EQ PUSH2 0x2BC1 JUMPI DUP1 PUSH4 0x5688C1C EQ PUSH2 0x2ACA JUMPI DUP1 PUSH4 0x9E9B89F EQ PUSH2 0x2A1E JUMPI DUP1 PUSH4 0xA50960D EQ PUSH2 0x273D JUMPI DUP1 PUSH4 0xAAFFD2A EQ PUSH2 0x2671 JUMPI DUP1 PUSH4 0xB7983A2 EQ PUSH2 0x2634 JUMPI DUP1 PUSH4 0xFE23DA9 EQ PUSH2 0x25B0 JUMPI DUP1 PUSH4 0x162A58F2 EQ PUSH2 0x2275 JUMPI DUP1 PUSH4 0x18242941 EQ PUSH2 0x21D4 JUMPI DUP1 PUSH4 0x2C51EDE4 EQ PUSH2 0x218A JUMPI DUP1 PUSH4 0x32A3CF96 EQ PUSH2 0x2145 JUMPI DUP1 PUSH4 0x454D58D2 EQ PUSH2 0x2015 JUMPI DUP1 PUSH4 0x500994C5 EQ PUSH2 0x1F8D JUMPI DUP1 PUSH4 0x6403B1DF EQ PUSH2 0x1F21 JUMPI DUP1 PUSH4 0x642E084E EQ PUSH2 0x1E98 JUMPI DUP1 PUSH4 0x75829DEF EQ PUSH2 0x1E07 JUMPI DUP1 PUSH4 0x76E11286 EQ PUSH2 0x1D25 JUMPI DUP1 PUSH4 0x79000013 EQ PUSH2 0x1C05 JUMPI DUP1 PUSH4 0x7A08D730 EQ PUSH2 0x1BD8 JUMPI DUP1 PUSH4 0x7E923B72 EQ PUSH2 0x1B93 JUMPI DUP1 PUSH4 0x86DA96CA EQ PUSH2 0x1B6A JUMPI DUP1 PUSH4 0x88B21872 EQ PUSH2 0x1AF7 JUMPI DUP1 PUSH4 0x88E63A0F EQ PUSH2 0x1739 JUMPI DUP1 PUSH4 0x9DCB511A EQ PUSH2 0x16FE JUMPI DUP1 PUSH4 0x9E7EFB20 EQ PUSH2 0x16D2 JUMPI DUP1 PUSH4 0xAFA9862A EQ PUSH2 0x155E JUMPI DUP1 PUSH4 0xB92CE379 EQ PUSH2 0x1431 JUMPI DUP1 PUSH4 0xD02641A0 EQ PUSH2 0x12F4 JUMPI DUP1 PUSH4 0xDAA12A36 EQ PUSH2 0xF63 JUMPI DUP1 PUSH4 0xDC4C90D3 EQ PUSH2 0xF1E JUMPI DUP1 PUSH4 0xF2511BB1 EQ PUSH2 0x514 JUMPI DUP1 PUSH4 0xF76E3696 EQ PUSH2 0x2AE JUMPI DUP1 PUSH4 0xF851A440 EQ PUSH2 0x285 JUMPI PUSH4 0xFABB6A38 EQ PUSH2 0x19D JUMPI PUSH1 0x0 DUP1 REVERT JUMPDEST CALLVALUE PUSH2 0x282 JUMPI PUSH1 0x20 DUP1 PUSH1 0x3 NOT CALLDATASIZE ADD SLT PUSH2 0x27E JUMPI PUSH1 0x4 CALLDATALOAD SWAP1 CALLER DUP4 MSTORE PUSH1 0x4 DUP2 MSTORE PUSH2 0x1CC PUSH1 0x1 PUSH1 0x40 DUP6 KECCAK256 ADD SLOAD ISZERO ISZERO PUSH2 0x3055 JUMP JUMPDEST DUP2 ISZERO PUSH2 0x22F JUMPI CALLER DUP4 MSTORE PUSH1 0x4 DUP2 MSTORE DUP2 PUSH1 0x2 PUSH1 0x40 DUP6 KECCAK256 ADD SSTORE PUSH2 0x1EC DUP3 TIMESTAMP PUSH2 0x3032 JUMP JUMPDEST SWAP1 CALLER DUP5 MSTORE PUSH1 0x4 DUP2 MSTORE DUP2 PUSH1 0x1 PUSH1 0x40 DUP7 KECCAK256 ADD SSTORE PUSH1 0x40 MLOAD SWAP3 DUP4 MSTORE DUP3 ADD MSTORE PUSH32 0x270517E45D27F999FAEF5E16A3159117C83577723363227C5901CB52E315D868 PUSH1 0x40 CALLER SWAP3 LOG2 DUP1 RETURN JUMPDEST PUSH1 0x84 SWAP1 PUSH1 0x40 MLOAD SWAP1 PUSH3 0x461BCD PUSH1 0xE5 SHL DUP3 MSTORE PUSH1 0x4 DUP3 ADD MSTORE PUSH1 0x22 PUSH1 0x24 DUP3 ADD MSTORE PUSH32 0x4475726174696F6E206D7573742062652067726561746572207468616E207A65 PUSH1 0x44 DUP3 ADD MSTORE PUSH2 0x726F PUSH1 0xF0 SHL PUSH1 0x64 DUP3 ADD MSTORE REVERT JUMPDEST POP DUP1 REVERT JUMPDEST DUP1 REVERT JUMPDEST POP CALLVALUE PUSH2 0x282 JUMPI DUP1 PUSH1 0x3 NOT CALLDATASIZE ADD SLT PUSH2 0x282 JUMPI PUSH1 0x3 SLOAD PUSH1 0x40 MLOAD PUSH1 0x1 PUSH1 0x1 PUSH1 0xA0 SHL SUB SWAP1 SWAP2 AND DUP2 MSTORE PUSH1 0x20 SWAP1 RETURN JUMPDEST POP CALLVALUE PUSH2 0x282 JUMPI PUSH2 0x2BD CALLDATASIZE PUSH2 0x2F1A JUMP JUMPDEST PUSH1 0x1 DUP1 PUSH1 0xA0 SWAP5 SWAP4 SWAP5 SHL SUB DUP1 SWAP3 AND SWAP2 DUP3 DUP6 MSTORE PUSH1 0x20 SWAP2 PUSH1 0x5 DUP4 MSTORE DUP2 PUSH1 0x40 DUP8 KECCAK256 SWAP6 AND SWAP5 DUP6 PUSH1 0x0 MSTORE DUP4 MSTORE PUSH1 0x40 PUSH1 0x0 KECCAK256 PUSH1 0x5 DUP2 ADD PUSH2 0x2F9 PUSH1 0xFF DUP3 SLOAD AND PUSH2 0x2FF1 JUMP JUMPDEST PUSH1 0x3 DUP3 ADD SLOAD PUSH1 0x4 DUP4 ADD SLOAD SWAP1 PUSH2 0x30E DUP3 DUP3 PUSH2 0x3032 JUMP JUMPDEST TIMESTAMP LT ISZERO PUSH2 0x4DF JUMPI DUP5 ISZERO PUSH2 0x48E JUMPI SWAP1 PUSH2 0x34E PUSH2 0x32C PUSH2 0x354 SWAP4 TIMESTAMP PUSH2 0x31F2 JUMP JUMPDEST SWAP2 PUSH2 0x349 PUSH1 0x1 DUP8 ADD SLOAD SWAP4 PUSH2 0x344 PUSH1 0x2 DUP10 ADD SLOAD DUP7 PUSH2 0x31F2 JUMP JUMPDEST PUSH2 0x3243 JUMP JUMPDEST PUSH2 0x3256 JUMP JUMPDEST SWAP1 PUSH2 0x31F2 JUMP JUMPDEST SWAP4 DUP5 DUP5 LT PUSH2 0x45B JUMPI SWAP3 PUSH1 0x6 PUSH1 0x60 SWAP6 SWAP4 PUSH2 0x40A DUP4 SWAP5 PUSH32 0x703F9D09ECB9C1CB479797AC961A23F831480452F96FB5CDFE420B352742A464 SWAP10 SWAP8 PUSH1 0xFF DUP15 DUP14 DUP2 MSTORE PUSH1 0x4 DUP12 MSTORE PUSH1 0x4 PUSH1 0x40 DUP3 KECCAK256 ADD SLOAD SWAP1 POP PUSH1 0x8 SHR AND PUSH1 0x0 EQ PUSH2 0x434 JUMPI DUP1 PUSH32 0x0 JUMPDEST AND SWAP1 PUSH2 0x3DB DUP8 ADDRESS CALLER DUP6 PUSH2 0x3731 JUMP JUMPDEST DUP3 SLOAD PUSH1 0x8 SHR AND SWAP1 DUP2 PUSH2 0x41F JUMPI JUMPDEST POP POP DUP1 SLOAD PUSH2 0x100 PUSH1 0x1 PUSH1 0xA8 SHL SUB NOT AND CALLER PUSH1 0x8 SHL PUSH2 0x100 PUSH1 0x1 PUSH1 0xA8 SHL SUB AND OR SWAP1 SSTORE JUMP JUMPDEST ADD SSTORE PUSH1 0x40 MLOAD SWAP3 CALLER DUP5 MSTORE DUP4 ADD MSTORE PUSH1 0x40 DUP3 ADD MSTORE LOG3 DUP1 RETURN JUMPDEST PUSH2 0x42D SWAP2 DUP7 DUP7 ADD SLOAD SWAP2 PUSH2 0x35FD JUMP JUMPDEST CODESIZE DUP1 PUSH2 0x3E8 JUMP JUMPDEST DUP1 PUSH32 0x0 PUSH2 0x3CD JUMP JUMPDEST PUSH1 0x40 MLOAD PUSH3 0x461BCD PUSH1 0xE5 SHL DUP2 MSTORE PUSH1 0x4 DUP2 ADD DUP8 SWAP1 MSTORE PUSH1 0xB PUSH1 0x24 DUP3 ADD MSTORE PUSH11 0x42696420746F6F206C6F77 PUSH1 0xA8 SHL PUSH1 0x44 DUP3 ADD MSTORE PUSH1 0x64 SWAP1 REVERT JUMPDEST PUSH1 0x40 MLOAD PUSH3 0x461BCD PUSH1 0xE5 SHL DUP2 MSTORE PUSH1 0x4 DUP2 ADD DUP9 SWAP1 MSTORE PUSH1 0x24 DUP1 DUP3 ADD MSTORE PUSH32 0x42696420616D6F756E74206D7573742062652067726561746572207468616E20 PUSH1 0x44 DUP3 ADD MSTORE PUSH4 0x7A65726F PUSH1 0xE0 SHL PUSH1 0x64 DUP3 ADD MSTORE PUSH1 0x84 SWAP1 REVERT JUMPDEST PUSH1 0x40 MLOAD PUSH3 0x461BCD PUSH1 0xE5 SHL DUP2 MSTORE PUSH1 0x4 DUP2 ADD DUP9 SWAP1 MSTORE PUSH1 0xD PUSH1 0x24 DUP3 ADD MSTORE PUSH13 0x105D58DD1A5BDB88195B991959 PUSH1 0x9A SHL PUSH1 0x44 DUP3 ADD MSTORE PUSH1 0x64 SWAP1 REVERT JUMPDEST POP CALLVALUE PUSH2 0x282 JUMPI PUSH1 0x20 CALLDATASIZE PUSH1 0x3 NOT ADD SLT PUSH2 0x282 JUMPI PUSH2 0x52E PUSH2 0x2CBF JUMP JUMPDEST PUSH1 0x1 PUSH1 0x1 PUSH1 0xA0 SHL SUB DUP2 AND DUP3 MSTORE PUSH1 0x4 PUSH1 0x20 MSTORE PUSH1 0x40 DUP3 KECCAK256 PUSH1 0x1 DUP2 ADD SLOAD SWAP1 SWAP2 SWAP1 PUSH2 0x556 DUP2 ISZERO ISZERO PUSH2 0x3091 JUMP JUMPDEST TIMESTAMP LT PUSH2 0xED9 JUMPI PUSH1 0x4 DUP3 ADD SLOAD PUSH1 0xFF AND ISZERO PUSH2 0x8A0 JUMPI DUP3 JUMPDEST PUSH1 0x3 DUP4 ADD SLOAD DUP2 LT ISZERO PUSH2 0x856 JUMPI PUSH2 0x584 DUP2 PUSH1 0x3 DUP6 ADD PUSH2 0x31C4 JUMP JUMPDEST SWAP1 SLOAD PUSH1 0x1 PUSH1 0x1 PUSH1 0xA0 SHL SUB PUSH1 0x3 SWAP3 SWAP1 SWAP3 SHL SHR DUP2 AND SWAP2 SWAP1 PUSH32 0x0 AND DUP3 EQ PUSH2 0x84D JUMPI PUSH1 0x40 MLOAD PUSH4 0x70A08231 PUSH1 0xE0 SHL DUP2 MSTORE PUSH1 0x1 PUSH1 0x1 PUSH1 0xA0 SHL SUB DUP5 AND PUSH1 0x4 DUP3 ADD MSTORE SWAP2 PUSH1 0x20 DUP4 PUSH1 0x24 DUP2 DUP5 GAS STATICCALL SWAP3 DUP4 ISZERO PUSH2 0x842 JUMPI DUP7 SWAP4 PUSH2 0x809 JUMPI JUMPDEST POP DUP3 PUSH2 0x608 JUMPI JUMPDEST POP PUSH1 0x1 SWAP2 POP JUMPDEST ADD PUSH2 0x56B JUMP JUMPDEST PUSH4 0x5F5E100 PUSH2 0x61F PUSH2 0x619 DUP4 PUSH2 0x3346 JUMP JUMPDEST DUP6 PUSH2 0x3243 JUMP JUMPDEST DIV DUP1 ISZERO SWAP1 DUP1 DUP1 DIV PUSH1 0x1 EQ DUP3 OR ISZERO PUSH2 0x7F5 JUMPI PUSH2 0x63E PUSH2 0x3E8 DUP3 DIV DUP3 PUSH2 0x3032 JUMP JUMPDEST SWAP2 PUSH1 0xA SWAP1 DUP3 DUP3 DUP2 MUL DIV DUP3 EQ OR ISZERO PUSH2 0x7E1 JUMPI DUP2 PUSH1 0x64 PUSH2 0x662 SWAP3 PUSH2 0x66B SWAP5 MUL DIV SWAP1 PUSH2 0x31F2 JUMP JUMPDEST SWAP5 ADDRESS DUP8 DUP6 PUSH2 0x3731 JUMP JUMPDEST PUSH1 0x40 MLOAD SWAP4 DUP5 PUSH2 0x100 DUP2 ADD LT PUSH1 0x1 PUSH1 0x1 PUSH1 0x40 SHL SUB PUSH2 0x100 DUP8 ADD GT OR PUSH2 0x7CB JUMPI DUP5 PUSH2 0x100 PUSH1 0x1 SWAP7 ADD PUSH1 0x40 MSTORE DUP4 DUP2 MSTORE DUP3 PUSH1 0x20 DUP3 ADD MSTORE DUP2 PUSH1 0x40 DUP3 ADD MSTORE TIMESTAMP PUSH1 0x60 DUP3 ADD MSTORE PUSH2 0xE10 PUSH1 0x80 DUP3 ADD MSTORE DUP6 PUSH1 0xA0 DUP3 ADD MSTORE DUP9 PUSH1 0xC0 DUP3 ADD MSTORE DUP9 PUSH1 0xE0 DUP3 ADD MSTORE DUP6 DUP1 PUSH1 0xA0 SHL SUB DUP8 AND DUP10 MSTORE PUSH1 0x6 PUSH1 0xE0 PUSH1 0x5 SWAP3 DUP4 PUSH1 0x20 MSTORE PUSH1 0x40 DUP13 KECCAK256 DUP8 PUSH1 0x0 MSTORE PUSH1 0x20 MSTORE PUSH2 0x780 PUSH1 0x40 PUSH1 0x0 KECCAK256 SWAP5 DUP11 DUP1 PUSH1 0xA0 SHL SUB DUP4 MLOAD AND PUSH12 0xFFFFFFFFFFFFFFFFFFFFFFFF PUSH1 0xA0 SHL DUP8 SLOAD AND OR DUP7 SSTORE PUSH1 0x20 DUP4 ADD MLOAD DUP12 DUP8 ADD SSTORE PUSH1 0x40 DUP4 ADD MLOAD PUSH1 0x2 DUP8 ADD SSTORE PUSH1 0x60 DUP4 ADD MLOAD PUSH1 0x3 DUP8 ADD SSTORE PUSH1 0x80 DUP4 ADD MLOAD PUSH1 0x4 DUP8 ADD SSTORE DUP6 ADD PUSH2 0x750 PUSH1 0xA0 DUP5 ADD MLOAD ISZERO ISZERO DUP3 SWAP1 PUSH1 0xFF DUP1 NOT DUP4 SLOAD AND SWAP2 ISZERO ISZERO AND OR SWAP1 SSTORE JUMP JUMPDEST PUSH1 0xC0 DUP4 ADD MLOAD DUP2 SLOAD PUSH2 0x100 PUSH1 0x1 PUSH1 0xA8 SHL SUB NOT AND PUSH1 0xA0 DUP14 SWAP1 SHL DUP14 SWAP1 SUB SWAP2 SWAP1 SWAP2 AND PUSH1 0x8 SHL PUSH2 0x100 PUSH1 0x1 PUSH1 0xA8 SHL SUB AND OR SWAP1 SSTORE JUMP JUMPDEST ADD MLOAD SWAP2 ADD SSTORE PUSH1 0x40 MLOAD SWAP2 DUP3 MSTORE PUSH1 0x20 DUP3 ADD MSTORE PUSH2 0xE10 PUSH1 0x40 DUP3 ADD MSTORE PUSH32 0x39A3045328465C82468E6E1DC742164B5A9097C34CF56EE021A8431685C52DBE PUSH1 0x60 DUP6 DUP1 PUSH1 0xA0 SHL SUB DUP8 AND SWAP3 LOG3 CODESIZE PUSH2 0x5FC JUMP JUMPDEST PUSH4 0x4E487B71 PUSH1 0xE0 SHL PUSH1 0x0 MSTORE PUSH1 0x41 PUSH1 0x4 MSTORE PUSH1 0x24 PUSH1 0x0 REVERT JUMPDEST PUSH4 0x4E487B71 PUSH1 0xE0 SHL DUP10 MSTORE PUSH1 0x11 PUSH1 0x4 MSTORE PUSH1 0x24 DUP10 REVERT JUMPDEST PUSH4 0x4E487B71 PUSH1 0xE0 SHL DUP9 MSTORE PUSH1 0x11 PUSH1 0x4 MSTORE PUSH1 0x24 DUP9 REVERT JUMPDEST SWAP1 SWAP3 POP PUSH1 0x20 DUP2 RETURNDATASIZE PUSH1 0x20 GT PUSH2 0x83A JUMPI JUMPDEST DUP2 PUSH2 0x825 PUSH1 0x20 SWAP4 DUP4 PUSH2 0x2DE4 JUMP JUMPDEST DUP2 ADD SUB SLT PUSH2 0x835 JUMPI MLOAD SWAP2 CODESIZE PUSH2 0x5F5 JUMP JUMPDEST PUSH1 0x0 DUP1 REVERT JUMPDEST RETURNDATASIZE SWAP2 POP PUSH2 0x818 JUMP JUMPDEST PUSH1 0x40 MLOAD RETURNDATASIZE DUP9 DUP3 RETURNDATACOPY RETURNDATASIZE SWAP1 REVERT JUMPDEST PUSH1 0x1 SWAP2 POP PUSH2 0x602 JUMP JUMPDEST POP SWAP1 JUMPDEST PUSH1 0x1 DUP2 ADD DUP4 SWAP1 SSTORE SLOAD PUSH1 0x40 MLOAD DUP4 DUP2 MSTORE PUSH1 0x1 PUSH1 0x1 PUSH1 0xA0 SHL SUB SWAP2 DUP3 AND SWAP3 SWAP1 SWAP2 AND SWAP1 PUSH32 0xDE3F14CE4426137F4576388D16723795D5BF5E2F00597E0E8D63816A7342A1E1 SWAP1 PUSH1 0x20 SWAP1 LOG3 DUP1 RETURN JUMPDEST SWAP1 DUP3 SWAP1 DUP2 JUMPDEST PUSH1 0x3 DUP3 ADD SLOAD DUP2 LT ISZERO PUSH2 0xED0 JUMPI PUSH2 0x8BE DUP2 PUSH1 0x3 DUP5 ADD PUSH2 0x31C4 JUMP JUMPDEST SWAP1 SLOAD PUSH1 0x1 PUSH1 0x1 PUSH1 0xA0 SHL SUB PUSH1 0x3 SWAP3 SWAP1 SWAP3 SHL SHR DUP2 AND SWAP1 PUSH32 0x0 AND DUP2 EQ DUP1 ISZERO PUSH2 0xE9E JUMPI JUMPDEST PUSH2 0xE95 JUMPI PUSH1 0x40 MLOAD PUSH4 0x70A08231 PUSH1 0xE0 SHL DUP2 MSTORE PUSH1 0x1 PUSH1 0x1 PUSH1 0xA0 SHL SUB DUP7 AND PUSH1 0x4 DUP3 ADD MSTORE SWAP1 PUSH1 0x20 DUP3 PUSH1 0x24 DUP2 DUP5 GAS STATICCALL SWAP2 DUP3 ISZERO PUSH2 0xE8A JUMPI DUP6 SWAP3 PUSH2 0xE56 JUMPI JUMPDEST POP DUP2 PUSH2 0x948 JUMPI JUMPDEST POP POP PUSH1 0x1 SWAP1 JUMPDEST ADD PUSH2 0x8A5 JUMP JUMPDEST PUSH2 0x954 DUP3 ADDRESS DUP9 DUP5 PUSH2 0x3731 JUMP JUMPDEST PUSH1 0x40 MLOAD PUSH4 0x95EA7B3 PUSH1 0xE0 SHL DUP2 MSTORE PUSH1 0x1 PUSH1 0x1 PUSH1 0xA0 SHL SUB PUSH32 0x0 AND PUSH1 0x4 DUP3 ADD MSTORE PUSH1 0x24 DUP2 ADD DUP4 SWAP1 MSTORE PUSH1 0x20 DUP2 PUSH1 0x44 DUP2 DUP10 DUP7 GAS CALL DUP1 ISZERO PUSH2 0x842 JUMPI SWAP2 PUSH2 0xA94 SWAP4 SWAP2 PUSH1 0x20 SWAP4 PUSH2 0xE39 JUMPI JUMPDEST POP PUSH1 0x40 MLOAD SWAP1 PUSH2 0x9C3 DUP3 PUSH2 0x2DAE JUMP JUMPDEST DUP2 MSTORE PUSH1 0x1 PUSH1 0x1 PUSH1 0xA0 SHL SUB PUSH32 0x0 DUP2 AND DUP5 DUP4 ADD MSTORE PUSH2 0xBB8 PUSH1 0x40 DUP1 DUP5 ADD SWAP2 SWAP1 SWAP2 MSTORE PUSH1 0x3C PUSH1 0x60 DUP5 ADD MSTORE PUSH32 0x0 SWAP1 SWAP2 AND PUSH1 0x80 DUP4 ADD MSTORE MLOAD SWAP2 PUSH2 0xA3B DUP4 PUSH2 0x2DC9 JUMP JUMPDEST PUSH1 0x1 DUP4 MSTORE DUP4 DUP4 ADD MSTORE PUSH1 0x40 DUP1 DUP4 ADD DUP9 SWAP1 MSTORE DUP7 SLOAD DUP2 MLOAD PUSH1 0x1 PUSH1 0x1 PUSH1 0xA0 SHL SUB SWAP2 DUP3 AND DUP2 DUP8 ADD SWAP1 DUP2 MSTORE PUSH32 0x0 SWAP1 SWAP3 AND PUSH1 0x20 DUP4 ADD MSTORE SWAP6 PUSH2 0xAA2 SWAP3 DUP8 SWAP3 ADD SWAP1 JUMP JUMPDEST SUB PUSH1 0x1F NOT DUP2 ADD DUP7 MSTORE DUP6 PUSH2 0x2DE4 JUMP JUMPDEST PUSH2 0xAC0 PUSH1 0x40 MLOAD SWAP5 DUP6 SWAP4 DUP5 SWAP4 PUSH4 0x3CF36453 PUSH1 0xE2 SHL DUP6 MSTORE PUSH1 0x4 DUP6 ADD PUSH2 0x36BD JUMP JUMPDEST SUB DUP2 DUP8 PUSH32 0x0 PUSH1 0x1 PUSH1 0x1 PUSH1 0xA0 SHL SUB AND GAS CALL SWAP1 DUP2 ISZERO PUSH2 0xD99 JUMPI DUP5 SWAP2 PUSH2 0xE07 JUMPI JUMPDEST POP DUP1 PUSH1 0x80 SAR SWAP1 DUP5 SWAP2 DUP6 DUP3 PUSH1 0xF SIGNEXTEND SGT PUSH1 0x0 EQ PUSH2 0xDE3 JUMPI POP PUSH1 0x1 PUSH1 0x1 PUSH1 0x80 SHL SUB SWAP2 POP AND JUMPDEST DUP1 PUSH2 0xB2B JUMPI JUMPDEST DUP1 PUSH2 0x93C JUMP JUMPDEST PUSH1 0x4 DUP4 ADD SLOAD SWAP2 SWAP6 SWAP2 PUSH1 0x8 SHR PUSH1 0xFF AND ISZERO PUSH2 0xDD1 JUMPI DUP3 SLOAD PUSH1 0x40 MLOAD PUSH4 0x95EA7B3 PUSH1 0xE0 SHL DUP2 MSTORE PUSH1 0x1 PUSH1 0x1 PUSH1 0xA0 SHL SUB PUSH32 0x0 DUP2 AND PUSH1 0x4 DUP4 ADD MSTORE PUSH1 0x24 DUP3 ADD DUP5 SWAP1 MSTORE SWAP1 SWAP2 AND SWAP2 SWAP1 PUSH1 0x20 DUP2 DUP1 PUSH1 0x44 DUP2 ADD SUB DUP2 DUP10 PUSH32 0x0 PUSH1 0x1 PUSH1 0x1 PUSH1 0xA0 SHL SUB AND GAS CALL DUP1 ISZERO PUSH2 0x842 JUMPI SWAP1 PUSH1 0x20 SWAP3 SWAP2 PUSH2 0xDA4 JUMPI JUMPDEST POP PUSH32 0x0 SWAP3 PUSH2 0xCB2 PUSH1 0x40 MLOAD SWAP2 PUSH2 0xC03 DUP4 PUSH2 0x2DAE JUMP JUMPDEST PUSH1 0x1 PUSH1 0x1 PUSH1 0xA0 SHL SUB PUSH32 0x0 DUP2 AND DUP5 MSTORE DUP7 DUP2 AND DUP7 DUP6 ADD MSTORE PUSH2 0xBB8 PUSH1 0x40 DUP1 DUP7 ADD SWAP2 SWAP1 SWAP2 MSTORE PUSH1 0x3C PUSH1 0x60 DUP7 ADD MSTORE PUSH32 0x0 SWAP1 SWAP2 AND PUSH1 0x80 DUP6 ADD MSTORE MLOAD SWAP4 PUSH2 0xC7E DUP6 PUSH2 0x2DC9 JUMP JUMPDEST PUSH1 0x1 DUP6 MSTORE DUP6 DUP6 ADD MSTORE PUSH1 0x40 DUP1 DUP6 ADD DUP11 SWAP1 MSTORE DUP1 MLOAD PUSH1 0x1 PUSH1 0x1 PUSH1 0xA0 SHL SUB SWAP3 DUP4 AND DUP2 DUP9 ADD SWAP1 DUP2 MSTORE SWAP3 SWAP1 SWAP8 AND PUSH1 0x20 DUP4 ADD MSTORE DUP7 SWAP2 ADD PUSH2 0xA94 JUMP JUMPDEST PUSH2 0xCD0 PUSH1 0x40 MLOAD SWAP5 DUP6 SWAP4 DUP5 SWAP4 PUSH4 0x3CF36453 PUSH1 0xE2 SHL DUP6 MSTORE PUSH1 0x4 DUP6 ADD PUSH2 0x36BD JUMP JUMPDEST SUB DUP2 DUP8 PUSH32 0x0 PUSH1 0x1 PUSH1 0x1 PUSH1 0xA0 SHL SUB AND GAS CALL SWAP1 DUP2 ISZERO PUSH2 0xD99 JUMPI DUP5 SWAP2 PUSH2 0xD66 JUMPI JUMPDEST POP DUP1 PUSH1 0x1 SWAP3 PUSH2 0xD3A SWAP3 PUSH1 0x80 SAR SWAP2 DUP7 SWAP3 DUP8 DUP3 PUSH1 0xF SIGNEXTEND SGT PUSH1 0x0 EQ PUSH2 0xD42 JUMPI POP PUSH1 0x1 PUSH1 0x1 PUSH1 0x80 SHL SUB AND SWAP2 POP PUSH2 0x3032 JUMP JUMPDEST SWAP5 JUMPDEST SWAP1 PUSH2 0xB25 JUMP JUMPDEST SWAP1 POP DUP7 DUP2 PUSH1 0xF SIGNEXTEND SGT PUSH2 0xD55 JUMPI JUMPDEST POP PUSH2 0x3032 JUMP JUMPDEST PUSH1 0x1 PUSH1 0x1 PUSH1 0x80 SHL SUB AND SWAP2 POP CODESIZE PUSH2 0xD4F JUMP JUMPDEST SWAP1 POP PUSH1 0x20 DUP2 RETURNDATASIZE PUSH1 0x20 GT PUSH2 0xD91 JUMPI JUMPDEST DUP2 PUSH2 0xD81 PUSH1 0x20 SWAP4 DUP4 PUSH2 0x2DE4 JUMP JUMPDEST DUP2 ADD SUB SLT PUSH2 0x835 JUMPI MLOAD PUSH1 0x1 PUSH2 0xD0D JUMP JUMPDEST RETURNDATASIZE SWAP2 POP PUSH2 0xD74 JUMP JUMPDEST PUSH1 0x40 MLOAD RETURNDATASIZE DUP7 DUP3 RETURNDATACOPY RETURNDATASIZE SWAP1 REVERT JUMPDEST PUSH2 0xDC3 SWAP1 DUP4 RETURNDATASIZE DUP6 GT PUSH2 0xDCA JUMPI JUMPDEST PUSH2 0xDBB DUP2 DUP4 PUSH2 0x2DE4 JUMP JUMPDEST DUP2 ADD SWAP1 PUSH2 0x36A5 JUMP JUMPDEST POP CODESIZE PUSH2 0xBD0 JUMP JUMPDEST POP RETURNDATASIZE PUSH2 0xDB1 JUMP JUMPDEST PUSH2 0xDDD SWAP1 PUSH1 0x1 SWAP3 PUSH2 0x3032 JUMP JUMPDEST SWAP5 PUSH2 0xD3C JUMP JUMPDEST SWAP1 POP DUP5 DUP2 PUSH1 0xF SIGNEXTEND SGT PUSH2 0xDF6 JUMPI JUMPDEST POP PUSH2 0xB1F JUMP JUMPDEST PUSH1 0x1 PUSH1 0x1 PUSH1 0x80 SHL SUB SWAP2 POP AND CODESIZE PUSH2 0xDF0 JUMP JUMPDEST SWAP1 POP PUSH1 0x20 DUP2 RETURNDATASIZE PUSH1 0x20 GT PUSH2 0xE31 JUMPI JUMPDEST DUP2 PUSH2 0xE22 PUSH1 0x20 SWAP4 DUP4 PUSH2 0x2DE4 JUMP JUMPDEST DUP2 ADD SUB SLT PUSH2 0x835 JUMPI MLOAD CODESIZE PUSH2 0xAFD JUMP JUMPDEST RETURNDATASIZE SWAP2 POP PUSH2 0xE15 JUMP JUMPDEST PUSH2 0xE4F SWAP1 DUP5 RETURNDATASIZE DUP7 GT PUSH2 0xDCA JUMPI PUSH2 0xDBB DUP2 DUP4 PUSH2 0x2DE4 JUMP JUMPDEST POP CODESIZE PUSH2 0x9B5 JUMP JUMPDEST SWAP1 SWAP2 POP PUSH1 0x20 DUP2 RETURNDATASIZE PUSH1 0x20 GT PUSH2 0xE82 JUMPI JUMPDEST DUP2 PUSH2 0xE72 PUSH1 0x20 SWAP4 DUP4 PUSH2 0x2DE4 JUMP JUMPDEST DUP2 ADD SUB SLT PUSH2 0x835 JUMPI MLOAD SWAP1 CODESIZE PUSH2 0x935 JUMP JUMPDEST RETURNDATASIZE SWAP2 POP PUSH2 0xE65 JUMP JUMPDEST PUSH1 0x40 MLOAD RETURNDATASIZE DUP8 DUP3 RETURNDATACOPY RETURNDATASIZE SWAP1 REVERT JUMPDEST POP PUSH1 0x1 SWAP1 PUSH2 0x942 JUMP JUMPDEST POP PUSH32 0x0 PUSH1 0x1 PUSH1 0x1 PUSH1 0xA0 SHL SUB AND DUP2 EQ PUSH2 0x8FD JUMP JUMPDEST POP SWAP1 SWAP3 POP PUSH2 0x859 JUMP JUMPDEST PUSH1 0x40 MLOAD PUSH3 0x461BCD PUSH1 0xE5 SHL DUP2 MSTORE PUSH1 0x20 PUSH1 0x4 DUP3 ADD MSTORE PUSH1 0x17 PUSH1 0x24 DUP3 ADD MSTORE PUSH32 0x446561646C696E6520686173206E6F7420706173736564000000000000000000 PUSH1 0x44 DUP3 ADD MSTORE PUSH1 0x64 SWAP1 REVERT JUMPDEST POP CALLVALUE PUSH2 0x282 JUMPI DUP1 PUSH1 0x3 NOT CALLDATASIZE ADD SLT PUSH2 0x282 JUMPI PUSH1 0x40 MLOAD PUSH32 0x0 PUSH1 0x1 PUSH1 0x1 PUSH1 0xA0 SHL SUB AND DUP2 MSTORE PUSH1 0x20 SWAP1 RETURN JUMPDEST POP CALLVALUE PUSH2 0x282 JUMPI PUSH1 0xA0 CALLDATASIZE PUSH1 0x3 NOT ADD SLT PUSH2 0x282 JUMPI PUSH2 0xF7D PUSH2 0x2CBF JUMP JUMPDEST SWAP1 PUSH1 0x44 CALLDATALOAD PUSH1 0x1 PUSH1 0x1 PUSH1 0x40 SHL SUB DUP2 GT PUSH2 0x27E JUMPI PUSH2 0xF9D SWAP1 CALLDATASIZE SWAP1 PUSH1 0x4 ADD PUSH2 0x2EEA JUMP JUMPDEST SWAP3 SWAP1 PUSH2 0xFA7 PUSH2 0x2D3B JUMP JUMPDEST PUSH2 0xFAF PUSH2 0x2D4A JUMP JUMPDEST SWAP5 CALLER DUP6 MSTORE PUSH1 0x4 PUSH1 0x20 MSTORE PUSH1 0x1 PUSH1 0x40 DUP7 KECCAK256 ADD SLOAD PUSH2 0x12AF JUMPI PUSH1 0x1 PUSH1 0x1 PUSH1 0xA0 SHL SUB DUP5 AND ISZERO PUSH2 0x125B JUMPI PUSH1 0x24 CALLDATALOAD ISZERO PUSH2 0x1202 JUMPI PUSH2 0xFE7 PUSH1 0x24 CALLDATALOAD TIMESTAMP PUSH2 0x3032 JUMP JUMPDEST SWAP3 PUSH1 0x40 MLOAD SWAP4 PUSH1 0xC0 DUP6 ADD DUP6 DUP2 LT PUSH1 0x1 PUSH1 0x1 PUSH1 0x40 SHL SUB DUP3 GT OR PUSH2 0x7CB JUMPI PUSH1 0x40 MSTORE PUSH1 0x1 DUP1 PUSH1 0xA0 SHL SUB DUP7 AND DUP6 MSTORE PUSH1 0x20 DUP6 ADD MSTORE PUSH1 0x24 CALLDATALOAD PUSH1 0x40 DUP6 ADD MSTORE PUSH1 0x1 PUSH1 0x1 PUSH1 0x40 SHL SUB DUP3 GT PUSH2 0x11EE JUMPI DUP2 PUSH1 0x5 SHL PUSH1 0x40 MLOAD SWAP3 PUSH2 0x1040 PUSH1 0x20 DUP4 ADD DUP6 PUSH2 0x2DE4 JUMP JUMPDEST DUP4 MSTORE PUSH1 0x20 DUP4 ADD SWAP1 CALLDATASIZE DUP2 DUP5 ADD GT PUSH2 0x11EA JUMPI DUP3 SWAP2 JUMPDEST DUP2 DUP5 ADD DUP4 LT PUSH2 0x11D2 JUMPI POP POP POP POP PUSH1 0x60 DUP4 ADD MSTORE ISZERO ISZERO PUSH1 0x80 DUP3 ADD MSTORE PUSH1 0xA0 DUP2 ADD SWAP4 ISZERO ISZERO DUP5 MSTORE CALLER DUP4 MSTORE PUSH1 0x4 PUSH1 0x20 MSTORE PUSH1 0x40 DUP4 KECCAK256 SWAP4 PUSH1 0x1 DUP1 PUSH1 0xA0 SHL SUB DUP3 MLOAD AND PUSH12 0xFFFFFFFFFFFFFFFFFFFFFFFF PUSH1 0xA0 SHL DUP7 SLOAD AND OR DUP6 SSTORE PUSH1 0x20 DUP3 ADD MLOAD PUSH1 0x1 DUP7 ADD SSTORE PUSH1 0x40 DUP3 ADD MLOAD PUSH1 0x2 DUP7 ADD SSTORE PUSH1 0x3 DUP6 ADD SWAP5 PUSH1 0x60 DUP4 ADD MLOAD DUP1 MLOAD SWAP1 PUSH1 0x1 PUSH1 0x1 PUSH1 0x40 SHL SUB DUP3 GT PUSH2 0x11BE JUMPI PUSH1 0x1 PUSH1 0x40 SHL DUP3 GT PUSH2 0x11BE JUMPI PUSH1 0x20 SWAP1 DUP9 SLOAD DUP4 DUP11 SSTORE DUP1 DUP5 LT PUSH2 0x11A4 JUMPI JUMPDEST POP ADD SWAP7 DUP7 MSTORE PUSH1 0x20 DUP7 KECCAK256 SWAP7 DUP7 JUMPDEST DUP3 DUP2 LT PUSH2 0x1187 JUMPI POP POP POP SWAP1 PUSH2 0x1127 PUSH1 0x80 PUSH1 0x4 PUSH2 0x113E SWAP6 SWAP5 ADD SWAP4 ADD MLOAD ISZERO ISZERO DUP4 SWAP1 PUSH1 0xFF DUP1 NOT DUP4 SLOAD AND SWAP2 ISZERO ISZERO AND OR SWAP1 SSTORE JUMP JUMPDEST MLOAD DUP2 SLOAD PUSH2 0xFF00 NOT AND SWAP1 ISZERO ISZERO PUSH1 0x8 SHL PUSH2 0xFF00 AND OR SWAP1 SSTORE JUMP JUMPDEST PUSH2 0x114A PUSH1 0x24 CALLDATALOAD TIMESTAMP PUSH2 0x3032 JUMP JUMPDEST PUSH1 0x40 MLOAD SWAP1 DUP2 MSTORE PUSH1 0x1 PUSH1 0x1 PUSH1 0xA0 SHL SUB SWAP1 SWAP2 AND SWAP1 CALLER SWAP1 PUSH32 0xD4C9FB4A0298B2717518A542BD4801CE0CB35FD35087636887F9E87AD8D75A3F SWAP1 PUSH1 0x20 SWAP1 LOG3 DUP1 RETURN JUMPDEST DUP2 MLOAD PUSH1 0x1 PUSH1 0x1 PUSH1 0xA0 SHL SUB AND DUP2 DUP11 ADD SSTORE PUSH1 0x20 SWAP1 SWAP2 ADD SWAP1 PUSH1 0x1 ADD PUSH2 0x10F8 JUMP JUMPDEST DUP10 DUP10 MSTORE DUP3 DUP10 KECCAK256 PUSH2 0x11B8 SWAP2 DUP2 ADD SWAP1 DUP6 ADD PUSH2 0x3162 JUMP JUMPDEST CODESIZE PUSH2 0x10EC JUMP JUMPDEST PUSH4 0x4E487B71 PUSH1 0xE0 SHL DUP8 MSTORE PUSH1 0x41 PUSH1 0x4 MSTORE PUSH1 0x24 DUP8 REVERT JUMPDEST PUSH1 0x20 DUP1 SWAP2 PUSH2 0x11DF DUP6 PUSH2 0x2CEB JUMP JUMPDEST DUP2 MSTORE ADD SWAP3 ADD SWAP2 PUSH2 0x1053 JUMP JUMPDEST DUP8 DUP1 REVERT JUMPDEST PUSH4 0x4E487B71 PUSH1 0xE0 SHL DUP7 MSTORE PUSH1 0x41 PUSH1 0x4 MSTORE PUSH1 0x24 DUP7 REVERT JUMPDEST PUSH1 0x40 MLOAD PUSH3 0x461BCD PUSH1 0xE5 SHL DUP2 MSTORE PUSH1 0x20 PUSH1 0x4 DUP3 ADD MSTORE PUSH1 0x2B PUSH1 0x24 DUP3 ADD MSTORE PUSH32 0x446561646C696E65206475726174696F6E206D75737420626520677265617465 PUSH1 0x44 DUP3 ADD MSTORE PUSH11 0x72207468616E207A65726F PUSH1 0xA8 SHL PUSH1 0x64 DUP3 ADD MSTORE PUSH1 0x84 SWAP1 REVERT JUMPDEST PUSH1 0x40 MLOAD PUSH3 0x461BCD PUSH1 0xE5 SHL DUP2 MSTORE PUSH1 0x20 PUSH1 0x4 DUP3 ADD MSTORE PUSH1 0x26 PUSH1 0x24 DUP3 ADD MSTORE PUSH32 0x42656E65666963696172792063616E6E6F7420626520746865207A65726F2061 PUSH1 0x44 DUP3 ADD MSTORE PUSH6 0x646472657373 PUSH1 0xD0 SHL PUSH1 0x64 DUP3 ADD MSTORE PUSH1 0x84 SWAP1 REVERT JUMPDEST PUSH1 0x40 MLOAD PUSH3 0x461BCD PUSH1 0xE5 SHL DUP2 MSTORE PUSH1 0x20 PUSH1 0x4 DUP3 ADD MSTORE PUSH1 0x1B PUSH1 0x24 DUP3 ADD MSTORE PUSH32 0x4163636F756E7420616C726561647920696E697469616C697A65640000000000 PUSH1 0x44 DUP3 ADD MSTORE PUSH1 0x64 SWAP1 REVERT JUMPDEST POP CALLVALUE PUSH2 0x282 JUMPI PUSH1 0x20 CALLDATASIZE PUSH1 0x3 NOT ADD SLT PUSH2 0x282 JUMPI PUSH1 0x1 PUSH1 0x1 PUSH1 0xA0 SHL SUB DUP1 PUSH2 0x1317 PUSH2 0x2CBF JUMP JUMPDEST AND DUP3 MSTORE DUP2 PUSH1 0x20 MSTORE PUSH1 0x40 DUP3 KECCAK256 SLOAD AND SWAP1 DUP2 ISZERO PUSH2 0x13EC JUMPI PUSH1 0xA0 PUSH1 0x4 SWAP3 PUSH1 0x40 MLOAD SWAP4 DUP5 DUP1 SWAP3 PUSH4 0x3FABE5A3 PUSH1 0xE2 SHL DUP3 MSTORE GAS STATICCALL SWAP2 DUP3 ISZERO PUSH2 0x13DF JUMPI DUP2 SWAP3 PUSH2 0x13A9 JUMPI JUMPDEST POP DUP2 SGT ISZERO PUSH2 0x1364 JUMPI PUSH1 0x20 SWAP1 PUSH1 0x40 MLOAD SWAP1 DUP2 MSTORE RETURN JUMPDEST PUSH1 0x40 MLOAD PUSH3 0x461BCD PUSH1 0xE5 SHL DUP2 MSTORE PUSH1 0x20 PUSH1 0x4 DUP3 ADD MSTORE PUSH1 0x19 PUSH1 0x24 DUP3 ADD MSTORE PUSH32 0x496E76616C69642070726963652066726F6D206F7261636C6500000000000000 PUSH1 0x44 DUP3 ADD MSTORE PUSH1 0x64 SWAP1 REVERT JUMPDEST PUSH2 0x13CC SWAP2 SWAP3 POP PUSH1 0xA0 RETURNDATASIZE PUSH1 0xA0 GT PUSH2 0x13D8 JUMPI JUMPDEST PUSH2 0x13C4 DUP2 DUP4 PUSH2 0x2DE4 JUMP JUMPDEST DUP2 ADD SWAP1 PUSH2 0x3306 JUMP JUMPDEST POP POP POP SWAP1 POP SWAP1 CODESIZE PUSH2 0x1351 JUMP JUMPDEST POP RETURNDATASIZE PUSH2 0x13BA JUMP JUMPDEST POP PUSH1 0x40 MLOAD SWAP1 RETURNDATASIZE SWAP1 DUP3 RETURNDATACOPY RETURNDATASIZE SWAP1 REVERT JUMPDEST PUSH1 0x40 MLOAD PUSH3 0x461BCD PUSH1 0xE5 SHL DUP2 MSTORE PUSH1 0x20 PUSH1 0x4 DUP3 ADD MSTORE PUSH1 0x1C PUSH1 0x24 DUP3 ADD MSTORE PUSH32 0x50726963652066656564206E6F742073657420666F7220746F6B656E00000000 PUSH1 0x44 DUP3 ADD MSTORE PUSH1 0x64 SWAP1 REVERT JUMPDEST POP CALLVALUE PUSH2 0x282 JUMPI PUSH2 0x1440 CALLDATASIZE PUSH2 0x2F1A JUMP JUMPDEST PUSH1 0x3 SLOAD PUSH1 0x1 PUSH1 0x1 PUSH1 0xA0 SHL SUB SWAP1 PUSH2 0x1459 SWAP1 DUP3 AND CALLER EQ PUSH2 0x2F4F JUMP JUMPDEST DUP1 DUP4 AND SWAP4 DUP5 ISZERO PUSH2 0x1523 JUMPI AND SWAP2 DUP3 ISZERO PUSH2 0x14EE JUMPI DUP2 ISZERO PUSH2 0x14AA JUMPI DUP2 PUSH2 0x14A0 PUSH32 0x821BC8A3EB3D0A249CFF1E37C430F9DC4EBA89FCAD96244D18503C023D9BE9F8 SWAP4 PUSH1 0x20 SWAP4 DUP7 PUSH2 0x35FD JUMP JUMPDEST PUSH1 0x40 MLOAD SWAP1 DUP2 MSTORE LOG3 DUP1 RETURN JUMPDEST PUSH1 0x64 PUSH1 0x40 MLOAD PUSH3 0x461BCD PUSH1 0xE5 SHL DUP2 MSTORE PUSH1 0x20 PUSH1 0x4 DUP3 ADD MSTORE PUSH1 0x20 PUSH1 0x24 DUP3 ADD MSTORE PUSH32 0x416D6F756E74206D7573742062652067726561746572207468616E207A65726F PUSH1 0x44 DUP3 ADD MSTORE REVERT JUMPDEST PUSH1 0x40 MLOAD PUSH3 0x461BCD PUSH1 0xE5 SHL DUP2 MSTORE PUSH1 0x20 PUSH1 0x4 DUP3 ADD MSTORE PUSH1 0xD PUSH1 0x24 DUP3 ADD MSTORE PUSH13 0x24B73B30B634B2103A37B5B2B7 PUSH1 0x99 SHL PUSH1 0x44 DUP3 ADD MSTORE PUSH1 0x64 SWAP1 REVERT JUMPDEST PUSH1 0x40 MLOAD PUSH3 0x461BCD PUSH1 0xE5 SHL DUP2 MSTORE PUSH1 0x20 PUSH1 0x4 DUP3 ADD MSTORE PUSH1 0x13 PUSH1 0x24 DUP3 ADD MSTORE PUSH19 0x24B73B30B634B2103232B9BA34B730BA34B7B7 PUSH1 0x69 SHL PUSH1 0x44 DUP3 ADD MSTORE PUSH1 0x64 SWAP1 REVERT JUMPDEST POP CALLVALUE PUSH2 0x282 JUMPI PUSH1 0x40 CALLDATASIZE PUSH1 0x3 NOT ADD SLT PUSH2 0x282 JUMPI PUSH1 0x1 PUSH1 0x1 PUSH1 0x40 SHL SUB SWAP1 PUSH1 0x4 CALLDATALOAD PUSH1 0x24 CALLDATALOAD DUP4 DUP2 GT PUSH2 0x16CE JUMPI PUSH2 0x1594 SWAP1 CALLDATASIZE SWAP1 PUSH1 0x4 ADD PUSH2 0x2CFF JUMP JUMPDEST SWAP1 SWAP2 PUSH1 0x1 PUSH1 0x1 PUSH1 0xA0 SHL SUB SWAP2 PUSH32 0x0 DUP4 AND CALLER SUB PUSH2 0x1689 JUMPI DUP4 PUSH1 0x40 SWAP2 DUP2 ADD SUB SLT PUSH2 0x1685 JUMPI PUSH2 0x15E9 PUSH1 0x20 PUSH2 0x15E2 DUP6 PUSH2 0x2CEB JUMP JUMPDEST SWAP5 ADD PUSH2 0x2CEB JUMP JUMPDEST SWAP1 DUP1 PUSH1 0x80 SAR DUP6 SWAP1 DUP7 DUP4 PUSH1 0xF SIGNEXTEND SGT PUSH1 0x0 EQ PUSH2 0x165F JUMPI POP POP PUSH1 0x1 PUSH1 0x1 PUSH1 0x80 SHL SUB AND SWAP2 JUMPDEST DUP3 PUSH2 0x1649 JUMPI JUMPDEST POP POP POP POP PUSH1 0x40 MLOAD SWAP1 PUSH1 0x20 DUP3 ADD SWAP3 DUP3 DUP5 LT SWAP1 DUP5 GT OR PUSH2 0x7CB JUMPI PUSH2 0x1645 SWAP3 PUSH1 0x40 MSTORE DUP2 MSTORE PUSH1 0x40 MLOAD SWAP2 DUP3 SWAP2 PUSH1 0x20 DUP4 MSTORE PUSH1 0x20 DUP4 ADD SWAP1 PUSH2 0x2EAA JUMP JUMPDEST SUB SWAP1 RETURN JUMPDEST DUP1 PUSH2 0x1656 SWAP5 AND SWAP2 AND PUSH2 0x35FD JUMP JUMPDEST CODESIZE DUP1 DUP1 DUP1 PUSH2 0x1610 JUMP JUMPDEST SWAP1 SWAP4 SWAP2 POP DUP6 DUP2 PUSH1 0xF SIGNEXTEND SGT PUSH2 0x1674 JUMPI JUMPDEST POP PUSH2 0x160A JUMP JUMPDEST PUSH1 0x1 PUSH1 0x1 PUSH1 0x80 SHL SUB AND SWAP3 POP CODESIZE PUSH2 0x166E JUMP JUMPDEST DUP4 DUP1 REVERT JUMPDEST PUSH1 0x40 MLOAD PUSH3 0x461BCD PUSH1 0xE5 SHL DUP2 MSTORE PUSH1 0x20 PUSH1 0x4 DUP3 ADD MSTORE PUSH1 0x1E PUSH1 0x24 DUP3 ADD MSTORE PUSH32 0x4F6E6C7920506F6F6C4D616E616765722063616E2063616C6C20746869730000 PUSH1 0x44 DUP3 ADD MSTORE PUSH1 0x64 SWAP1 REVERT JUMPDEST DUP3 DUP1 REVERT JUMPDEST POP CALLVALUE PUSH2 0x282 JUMPI PUSH1 0x20 CALLDATASIZE PUSH1 0x3 NOT ADD SLT PUSH2 0x282 JUMPI PUSH1 0x20 PUSH2 0x16F6 PUSH2 0x16F1 PUSH2 0x2CBF JUMP JUMPDEST PUSH2 0x3346 JUMP JUMPDEST PUSH1 0x40 MLOAD SWAP1 DUP2 MSTORE RETURN JUMPDEST POP CALLVALUE PUSH2 0x282 JUMPI PUSH1 0x20 CALLDATASIZE PUSH1 0x3 NOT ADD SLT PUSH2 0x282 JUMPI PUSH1 0x20 SWAP1 PUSH1 0x1 PUSH1 0x1 PUSH1 0xA0 SHL SUB SWAP1 PUSH1 0x40 SWAP1 DUP3 PUSH2 0x1728 PUSH2 0x2CBF JUMP JUMPDEST AND DUP2 MSTORE DUP1 DUP5 MSTORE KECCAK256 SLOAD AND PUSH1 0x40 MLOAD SWAP1 DUP2 MSTORE RETURN JUMPDEST POP CALLVALUE PUSH2 0x282 JUMPI PUSH1 0xE0 CALLDATASIZE PUSH1 0x3 NOT ADD SLT PUSH2 0x282 JUMPI PUSH2 0x1753 PUSH2 0x2CBF JUMP JUMPDEST PUSH1 0x1 PUSH1 0x1 PUSH1 0x40 SHL SUB SWAP1 DUP3 PUSH1 0x44 CALLDATALOAD DUP4 DUP2 GT PUSH2 0x27E JUMPI PUSH2 0x1775 SWAP1 CALLDATASIZE SWAP1 PUSH1 0x4 ADD PUSH2 0x2EEA JUMP JUMPDEST SWAP3 SWAP1 SWAP4 PUSH2 0x1780 PUSH2 0x2D3B JUMP JUMPDEST SWAP4 PUSH2 0x1789 PUSH2 0x2D4A JUMP JUMPDEST PUSH1 0xA4 CALLDATALOAD DUP4 DUP2 GT PUSH2 0x1AF3 JUMPI PUSH2 0x17A1 SWAP1 CALLDATASIZE SWAP1 PUSH1 0x4 ADD PUSH2 0x2CFF JUMP JUMPDEST SWAP6 SWAP1 SWAP8 PUSH1 0xC4 CALLDATALOAD DUP6 DUP2 GT PUSH2 0x16CE JUMPI PUSH2 0x17BC SWAP1 CALLDATASIZE SWAP1 PUSH1 0x4 ADD PUSH2 0x2CFF JUMP JUMPDEST SWAP7 SWAP1 SWAP9 ADDRESS EXTCODESIZE ISZERO PUSH2 0x1685 JUMPI PUSH2 0x1804 SWAP5 PUSH1 0x40 MLOAD SWAP6 DUP7 SWAP5 DUP6 SWAP5 PUSH4 0x6D50951B PUSH1 0xE1 SHL DUP7 MSTORE PUSH1 0x1 DUP1 PUSH1 0xA0 SHL SUB AND SWAP9 DUP10 PUSH1 0x4 DUP8 ADD MSTORE PUSH1 0x24 CALLDATALOAD PUSH1 0x24 DUP8 ADD MSTORE PUSH1 0xA0 PUSH1 0x44 DUP8 ADD MSTORE PUSH1 0xA4 DUP7 ADD SWAP2 PUSH2 0x31FF JUMP JUMPDEST SWAP2 ISZERO ISZERO PUSH1 0x64 DUP5 ADD MSTORE ISZERO ISZERO PUSH1 0x84 DUP4 ADD MSTORE SUB DUP2 DUP4 ADDRESS GAS CALL DUP1 ISZERO PUSH2 0x1AE8 JUMPI PUSH2 0x1AC0 JUMPI JUMPDEST POP ADDRESS EQ PUSH2 0x182F JUMPI DUP6 DUP1 RETURN JUMPDEST DUP3 ISZERO ISZERO DUP1 PUSH2 0x1AB7 JUMPI JUMPDEST PUSH2 0x1841 SWAP1 PUSH2 0x30DD JUMP JUMPDEST PUSH1 0x40 MLOAD SWAP1 PUSH2 0x184E DUP3 PUSH2 0x2D93 JUMP JUMPDEST PUSH2 0x1859 CALLDATASIZE DUP6 DUP9 PUSH2 0x311C JUMP JUMPDEST DUP3 MSTORE PUSH2 0x1866 CALLDATASIZE DUP5 DUP8 PUSH2 0x311C JUMP JUMPDEST SWAP2 PUSH1 0x20 DUP1 DUP3 ADD SWAP4 DUP5 MSTORE CALLER DUP10 MSTORE PUSH1 0x6 DUP2 MSTORE PUSH1 0x40 DUP10 KECCAK256 SWAP2 MLOAD SWAP2 DUP3 MLOAD DUP5 DUP2 GT PUSH2 0x1A09 JUMPI DUP1 PUSH2 0x1891 DUP4 SLOAD PUSH2 0x2D59 JUMP JUMPDEST SWAP5 DUP13 PUSH1 0x1F SWAP7 DUP7 DUP9 DUP3 GT PUSH2 0x1A8B JUMPI JUMPDEST POP POP POP DUP5 SWAP1 DUP14 DUP8 DUP5 GT PUSH1 0x1 EQ PUSH2 0x1A28 JUMPI SWAP3 PUSH2 0x1A1D JUMPI JUMPDEST POP POP DUP2 PUSH1 0x1 SHL SWAP2 PUSH1 0x0 NOT SWAP1 PUSH1 0x3 SHL SHR NOT AND OR DUP2 SSTORE JUMPDEST PUSH1 0x1 DUP1 SWAP2 ADD SWAP5 MLOAD SWAP2 DUP3 MLOAD SWAP5 DUP6 GT PUSH2 0x1A09 JUMPI PUSH2 0x18E5 DUP7 SLOAD PUSH2 0x2D59 JUMP JUMPDEST DUP5 DUP2 GT PUSH2 0x19D3 JUMPI JUMPDEST POP DUP1 SWAP4 DUP6 GT PUSH1 0x1 EQ PUSH2 0x1956 JUMPI POP POP SWAP2 DUP1 PUSH2 0x193F SWAP5 SWAP3 PUSH1 0x0 DUP1 MLOAD PUSH1 0x20 PUSH2 0x37DC DUP4 CODECOPY DUP2 MLOAD SWAP2 MSTORE SWAP9 SWAP8 SWAP7 SWAP5 DUP12 SWAP3 PUSH2 0x194B JUMPI JUMPDEST POP POP DUP2 PUSH1 0x1 SHL SWAP2 PUSH1 0x0 NOT SWAP1 PUSH1 0x3 SHL SHR NOT AND OR SWAP1 SSTORE JUMPDEST PUSH1 0x40 MLOAD SWAP4 DUP5 SWAP4 CALLER SWAP8 DUP6 PUSH2 0x319A JUMP JUMPDEST SUB SWAP1 LOG2 CODESIZE DUP1 DUP1 DUP1 DUP1 DUP6 DUP1 RETURN JUMPDEST ADD MLOAD SWAP1 POP CODESIZE DUP1 PUSH2 0x191C JUMP JUMPDEST DUP6 DUP12 MSTORE DUP1 DUP12 KECCAK256 SWAP4 SWAP3 SWAP2 PUSH1 0x1F NOT DUP7 AND SWAP2 DUP13 SWAP2 JUMPDEST DUP4 DUP4 LT PUSH2 0x19BC JUMPI POP POP POP SWAP3 PUSH1 0x1 SWAP3 DUP6 SWAP3 PUSH1 0x0 DUP1 MLOAD PUSH1 0x20 PUSH2 0x37DC DUP4 CODECOPY DUP2 MLOAD SWAP2 MSTORE SWAP11 SWAP10 SWAP9 SWAP7 PUSH2 0x193F SWAP9 SWAP7 LT PUSH2 0x19A3 JUMPI JUMPDEST POP POP POP DUP2 SHL ADD SWAP1 SSTORE PUSH2 0x1931 JUMP JUMPDEST ADD MLOAD PUSH1 0x0 NOT PUSH1 0xF8 DUP5 PUSH1 0x3 SHL AND SHR NOT AND SWAP1 SSTORE CODESIZE DUP1 DUP1 PUSH2 0x1996 JUMP JUMPDEST DUP5 DUP7 ADD MLOAD DUP8 SSTORE SWAP6 DUP7 ADD SWAP6 SWAP5 DUP2 ADD SWAP5 SWAP2 DUP2 ADD SWAP2 PUSH2 0x1968 JUMP JUMPDEST PUSH2 0x19FA SWAP1 DUP8 DUP14 MSTORE DUP3 DUP14 KECCAK256 DUP7 DUP1 DUP10 ADD PUSH1 0x5 SHR DUP3 ADD SWAP3 DUP6 DUP11 LT PUSH2 0x1A00 JUMPI JUMPDEST ADD PUSH1 0x5 SHR ADD SWAP1 PUSH2 0x3162 JUMP JUMPDEST CODESIZE PUSH2 0x18ED JUMP JUMPDEST SWAP3 POP DUP2 SWAP3 PUSH2 0x19EF JUMP JUMPDEST PUSH4 0x4E487B71 PUSH1 0xE0 SHL DUP12 MSTORE PUSH1 0x41 PUSH1 0x4 MSTORE PUSH1 0x24 DUP12 REVERT JUMPDEST ADD MLOAD SWAP1 POP CODESIZE DUP1 PUSH2 0x18B5 JUMP JUMPDEST DUP6 DUP2 MSTORE DUP7 DUP2 KECCAK256 SWAP4 POP PUSH1 0x1F NOT DUP6 AND SWAP1 JUMPDEST DUP8 DUP3 DUP3 LT PUSH2 0x1A75 JUMPI POP POP SWAP1 DUP5 PUSH1 0x1 SWAP6 SWAP5 SWAP4 SWAP3 LT PUSH2 0x1A5C JUMPI JUMPDEST POP POP POP DUP2 SHL ADD DUP2 SSTORE PUSH2 0x18CA JUMP JUMPDEST ADD MLOAD PUSH1 0x0 NOT PUSH1 0xF8 DUP5 PUSH1 0x3 SHL AND SHR NOT AND SWAP1 SSTORE CODESIZE DUP1 DUP1 PUSH2 0x1A4F JUMP JUMPDEST PUSH1 0x1 DUP6 SWAP7 DUP3 SWAP4 SWAP7 DUP7 ADD MLOAD DUP2 SSTORE ADD SWAP6 ADD SWAP4 ADD PUSH2 0x1A37 JUMP JUMPDEST DUP3 DUP8 PUSH2 0x1AAF SWAP5 MSTORE KECCAK256 DUP9 DUP1 DUP7 ADD PUSH1 0x5 SHR DUP3 ADD SWAP3 DUP10 DUP8 LT PUSH2 0x1A00 JUMPI ADD PUSH1 0x5 SHR ADD SWAP1 PUSH2 0x3162 JUMP JUMPDEST DUP13 CODESIZE DUP7 PUSH2 0x189F JUMP JUMPDEST POP DUP2 ISZERO ISZERO PUSH2 0x1838 JUMP JUMPDEST DUP3 DUP2 SWAP9 SWAP3 SWAP9 GT PUSH2 0x1AD4 JUMPI PUSH1 0x40 MSTORE SWAP6 CODESIZE PUSH2 0x1824 JUMP JUMPDEST PUSH4 0x4E487B71 PUSH1 0xE0 SHL DUP3 MSTORE PUSH1 0x41 PUSH1 0x4 MSTORE PUSH1 0x24 DUP3 REVERT JUMPDEST PUSH1 0x40 MLOAD RETURNDATASIZE DUP11 DUP3 RETURNDATACOPY RETURNDATASIZE SWAP1 REVERT JUMPDEST DUP6 DUP1 REVERT JUMPDEST POP CALLVALUE PUSH2 0x282 JUMPI PUSH1 0x20 CALLDATASIZE PUSH1 0x3 NOT ADD SLT PUSH2 0x282 JUMPI PUSH1 0xA0 SWAP1 PUSH1 0x1 PUSH1 0x1 PUSH1 0xA0 SHL SUB SWAP1 PUSH1 0xFF SWAP1 PUSH1 0x40 SWAP1 DUP4 PUSH2 0x1B24 PUSH2 0x2CBF JUMP JUMPDEST AND DUP2 MSTORE PUSH1 0x4 PUSH1 0x20 MSTORE KECCAK256 SWAP2 DUP3 SLOAD AND SWAP2 PUSH1 0x1 DUP2 ADD SLOAD SWAP1 PUSH1 0x4 PUSH1 0x2 DUP3 ADD SLOAD SWAP2 ADD SLOAD SWAP2 PUSH1 0x40 MLOAD SWAP5 DUP6 MSTORE PUSH1 0x20 DUP6 ADD MSTORE PUSH1 0x40 DUP5 ADD MSTORE DUP2 DUP2 AND ISZERO ISZERO PUSH1 0x60 DUP5 ADD MSTORE PUSH1 0x8 SHR AND ISZERO ISZERO PUSH1 0x80 DUP3 ADD MSTORE RETURN JUMPDEST POP CALLVALUE PUSH2 0x282 JUMPI DUP1 PUSH1 0x3 NOT CALLDATASIZE ADD SLT PUSH2 0x282 JUMPI PUSH1 0x2 SLOAD PUSH1 0x40 MLOAD PUSH1 0x1 PUSH1 0x1 PUSH1 0xA0 SHL SUB SWAP1 SWAP2 AND DUP2 MSTORE PUSH1 0x20 SWAP1 RETURN JUMPDEST POP CALLVALUE PUSH2 0x282 JUMPI DUP1 PUSH1 0x3 NOT CALLDATASIZE ADD SLT PUSH2 0x282 JUMPI PUSH1 0x40 MLOAD PUSH32 0x0 PUSH1 0x1 PUSH1 0x1 PUSH1 0xA0 SHL SUB AND DUP2 MSTORE PUSH1 0x20 SWAP1 RETURN JUMPDEST POP CALLVALUE PUSH2 0x282 JUMPI PUSH1 0x40 CALLDATASIZE PUSH1 0x3 NOT ADD SLT PUSH2 0x282 JUMPI PUSH1 0x20 PUSH2 0x16F6 PUSH2 0x1BF7 PUSH2 0x2CBF JUMP JUMPDEST PUSH2 0x1BFF PUSH2 0x2CD5 JUMP JUMPDEST SWAP1 PUSH2 0x3276 JUMP JUMPDEST POP CALLVALUE PUSH2 0x282 JUMPI PUSH1 0x20 DUP1 PUSH1 0x3 NOT CALLDATASIZE ADD SLT PUSH2 0x27E JUMPI PUSH1 0x4 CALLDATALOAD PUSH1 0x1 PUSH1 0x1 PUSH1 0x40 SHL SUB DUP2 GT PUSH2 0x16CE JUMPI PUSH2 0x1C37 SWAP1 CALLDATASIZE SWAP1 PUSH1 0x4 ADD PUSH2 0x2EEA JUMP JUMPDEST SWAP2 CALLER DUP5 MSTORE PUSH1 0x4 PUSH1 0x20 MSTORE PUSH1 0x1 SWAP1 PUSH2 0x1C55 PUSH1 0x1 PUSH1 0x40 DUP8 KECCAK256 ADD SLOAD ISZERO ISZERO PUSH2 0x3055 JUMP JUMPDEST DUP5 JUMPDEST DUP5 DUP2 LT PUSH2 0x1CA2 JUMPI POP POP POP PUSH2 0x1C9C PUSH32 0xB90857F670E2787419D97E8AD1483239915B735FECC028ADF074EF41C09D602C SWAP2 PUSH1 0x40 MLOAD SWAP2 DUP3 SWAP2 PUSH1 0x20 DUP4 MSTORE CALLER SWAP6 PUSH1 0x20 DUP5 ADD SWAP2 PUSH2 0x31FF JUMP JUMPDEST SUB SWAP1 LOG2 DUP1 RETURN JUMPDEST CALLER DUP7 MSTORE PUSH1 0x4 DUP3 MSTORE PUSH1 0x40 DUP7 KECCAK256 PUSH1 0x5 DUP3 SWAP1 SHL DUP6 ADD CALLDATALOAD SWAP1 PUSH1 0x3 ADD PUSH1 0x1 PUSH1 0x1 PUSH1 0xA0 SHL SUB DUP3 AND DUP3 SUB PUSH2 0x11EA JUMPI DUP1 SLOAD SWAP1 PUSH1 0x1 PUSH1 0x40 SHL DUP3 LT ISZERO PUSH2 0x1D11 JUMPI SWAP2 PUSH2 0x1CED DUP3 DUP8 SWAP6 SWAP5 DUP7 PUSH2 0x1D0B SWAP6 ADD DUP2 SSTORE PUSH2 0x31C4 JUMP JUMPDEST SWAP1 SWAP2 SWAP1 PUSH1 0x1 DUP1 PUSH1 0xA0 SHL SUB DUP1 DUP5 SLOAD SWAP3 PUSH1 0x3 SHL SWAP4 AND DUP4 SHL SWAP3 SHL NOT AND OR SWAP1 SSTORE JUMP JUMPDEST ADD PUSH2 0x1C57 JUMP JUMPDEST PUSH4 0x4E487B71 PUSH1 0xE0 SHL DUP10 MSTORE PUSH1 0x41 PUSH1 0x4 MSTORE PUSH1 0x24 DUP10 REVERT JUMPDEST POP CALLVALUE PUSH2 0x282 JUMPI PUSH1 0x40 CALLDATASIZE PUSH1 0x3 NOT ADD SLT PUSH2 0x282 JUMPI PUSH2 0x1D3F PUSH2 0x2CBF JUMP JUMPDEST PUSH2 0x1D47 PUSH2 0x2CD5 JUMP JUMPDEST SWAP1 PUSH1 0x1 DUP1 PUSH1 0xA0 SHL SUB DUP1 SWAP2 PUSH2 0x1D60 DUP3 PUSH1 0x3 SLOAD AND CALLER EQ PUSH2 0x2F4F JUMP JUMPDEST AND SWAP2 PUSH2 0x1D6D DUP4 ISZERO ISZERO PUSH2 0x2FA5 JUMP JUMPDEST AND SWAP1 DUP2 ISZERO PUSH2 0x1DB8 JUMPI DUP1 DUP4 MSTORE PUSH1 0x20 DUP4 SWAP1 MSTORE PUSH1 0x40 DUP4 KECCAK256 DUP1 SLOAD PUSH1 0x1 PUSH1 0x1 PUSH1 0xA0 SHL SUB NOT AND DUP4 OR SWAP1 SSTORE PUSH32 0xA8ABE0398416476DB5B05737CD4DA3B3CBDE5012D978A6A6C3FD49D321753536 DUP4 DUP1 LOG3 DUP1 RETURN JUMPDEST PUSH1 0x40 MLOAD PUSH3 0x461BCD PUSH1 0xE5 SHL DUP2 MSTORE PUSH1 0x20 PUSH1 0x4 DUP3 ADD MSTORE PUSH1 0x21 PUSH1 0x24 DUP3 ADD MSTORE PUSH32 0x507269636520666565642063616E6E6F74206265207A65726F20616464726573 PUSH1 0x44 DUP3 ADD MSTORE PUSH1 0x73 PUSH1 0xF8 SHL PUSH1 0x64 DUP3 ADD MSTORE PUSH1 0x84 SWAP1 REVERT JUMPDEST POP CALLVALUE PUSH2 0x282 JUMPI PUSH1 0x20 CALLDATASIZE PUSH1 0x3 NOT ADD SLT PUSH2 0x282 JUMPI PUSH2 0x1E21 PUSH2 0x2CBF JUMP JUMPDEST PUSH1 0x3 SLOAD SWAP1 PUSH1 0x1 PUSH1 0x1 PUSH1 0xA0 SHL SUB SWAP1 PUSH2 0x1E3B CALLER DUP4 DUP6 AND EQ PUSH2 0x2F4F JUMP JUMPDEST AND SWAP1 DUP2 ISZERO PUSH2 0x1E54 JUMPI PUSH1 0x1 PUSH1 0x1 PUSH1 0xA0 SHL SUB NOT AND OR PUSH1 0x3 SSTORE DUP1 RETURN JUMPDEST PUSH1 0x64 PUSH1 0x40 MLOAD PUSH3 0x461BCD PUSH1 0xE5 SHL DUP2 MSTORE PUSH1 0x20 PUSH1 0x4 DUP3 ADD MSTORE PUSH1 0x20 PUSH1 0x24 DUP3 ADD MSTORE PUSH32 0x4E65772061646D696E2063616E6E6F74206265207A65726F2061646472657373 PUSH1 0x44 DUP3 ADD MSTORE REVERT JUMPDEST POP CALLVALUE PUSH2 0x282 JUMPI PUSH1 0x20 CALLDATASIZE PUSH1 0x3 NOT ADD SLT PUSH2 0x282 JUMPI PUSH2 0x1EB2 PUSH2 0x2D2C JUMP JUMPDEST CALLER DUP3 MSTORE PUSH1 0x4 PUSH1 0x20 MSTORE PUSH2 0x1ECC PUSH1 0x1 PUSH1 0x40 DUP5 KECCAK256 ADD SLOAD ISZERO ISZERO PUSH2 0x3055 JUMP JUMPDEST CALLER DUP3 MSTORE PUSH1 0x4 PUSH1 0x20 MSTORE PUSH2 0x1EF0 DUP2 PUSH1 0x4 PUSH1 0x40 DUP6 KECCAK256 ADD SWAP1 PUSH1 0xFF DUP1 NOT DUP4 SLOAD AND SWAP2 ISZERO ISZERO AND OR SWAP1 SSTORE JUMP JUMPDEST PUSH1 0x40 MLOAD SWAP1 ISZERO ISZERO DUP2 MSTORE PUSH32 0xBD4CCD3B9F23B35B213567FF600237372C8368625BC58D2E36225CC085E03C6D PUSH1 0x20 CALLER SWAP3 LOG2 DUP1 RETURN JUMPDEST POP CALLVALUE PUSH2 0x282 JUMPI PUSH1 0x20 CALLDATASIZE PUSH1 0x3 NOT ADD SLT PUSH2 0x282 JUMPI PUSH2 0x1F7F SWAP1 PUSH1 0x40 SWAP1 PUSH1 0x1 PUSH1 0x1 PUSH1 0xA0 SHL SUB PUSH2 0x1F4A PUSH2 0x2CBF JUMP JUMPDEST AND DUP2 MSTORE PUSH1 0x6 PUSH1 0x20 MSTORE KECCAK256 PUSH2 0x1645 PUSH2 0x1F6B PUSH1 0x1 PUSH2 0x1F64 DUP5 PUSH2 0x2E05 JUMP JUMPDEST SWAP4 ADD PUSH2 0x2E05 JUMP JUMPDEST PUSH1 0x40 MLOAD SWAP4 DUP5 SWAP4 PUSH1 0x40 DUP6 MSTORE PUSH1 0x40 DUP6 ADD SWAP1 PUSH2 0x2EAA JUMP JUMPDEST SWAP1 DUP4 DUP3 SUB PUSH1 0x20 DUP6 ADD MSTORE PUSH2 0x2EAA JUMP JUMPDEST POP CALLVALUE PUSH2 0x282 JUMPI PUSH1 0x20 CALLDATASIZE PUSH1 0x3 NOT ADD SLT PUSH2 0x282 JUMPI PUSH2 0x1FA7 PUSH2 0x2D2C JUMP JUMPDEST CALLER DUP3 MSTORE PUSH1 0x4 PUSH1 0x20 MSTORE PUSH2 0x1FC1 PUSH1 0x1 PUSH1 0x40 DUP5 KECCAK256 ADD SLOAD ISZERO ISZERO PUSH2 0x3055 JUMP JUMPDEST CALLER DUP3 MSTORE PUSH1 0x4 PUSH1 0x20 DUP2 SWAP1 MSTORE PUSH1 0x40 DUP4 KECCAK256 ADD DUP1 SLOAD PUSH2 0xFF00 NOT AND DUP3 ISZERO ISZERO PUSH1 0x8 SHL PUSH2 0xFF00 AND OR SWAP1 SSTORE PUSH1 0x40 MLOAD SWAP1 ISZERO ISZERO DUP2 MSTORE PUSH32 0x94C87BC2C95C8B72CF0437C0239FC65C2E8A5569F7FFAF72AC05F074E65C5361 PUSH1 0x20 CALLER SWAP3 LOG2 DUP1 RETURN JUMPDEST POP CALLVALUE PUSH2 0x282 JUMPI PUSH1 0x20 CALLDATASIZE PUSH1 0x3 NOT ADD SLT PUSH2 0x282 JUMPI PUSH2 0x202F PUSH2 0x2CBF JUMP JUMPDEST CALLER DUP3 MSTORE PUSH1 0x4 PUSH1 0x20 MSTORE PUSH1 0x1 SWAP1 PUSH2 0x204C PUSH1 0x1 PUSH1 0x40 DUP6 KECCAK256 ADD SLOAD ISZERO ISZERO PUSH2 0x3055 JUMP JUMPDEST CALLER DUP4 MSTORE PUSH1 0x4 PUSH1 0x20 MSTORE DUP2 PUSH1 0x3 DUP1 PUSH1 0x40 DUP7 KECCAK256 ADD DUP6 SWAP4 PUSH1 0x1 DUP1 PUSH1 0xA0 SHL SUB DUP1 SWAP2 AND SWAP6 JUMPDEST PUSH2 0x20A1 JUMPI JUMPDEST DUP7 DUP7 PUSH1 0x40 MLOAD SWAP1 DUP2 MSTORE PUSH32 0x8EAC65C9901BE8390F0CF78F2CA8D86E706341713377DCA39B0472FC07CDD05 PUSH1 0x20 CALLER SWAP3 LOG2 DUP1 RETURN JUMPDEST DUP2 SLOAD DUP1 DUP7 LT ISZERO PUSH2 0x213F JUMPI DUP7 DUP3 PUSH2 0x20B7 DUP9 DUP7 PUSH2 0x31C4 JUMP JUMPDEST SWAP1 SLOAD SWAP1 DUP8 SHL SHR AND EQ PUSH2 0x20CE JUMPI POP DUP4 DUP1 SWAP6 ADD SWAP5 PUSH2 0x206B JUMP JUMPDEST SWAP2 SWAP4 POP SWAP2 SWAP4 PUSH1 0x0 NOT SWAP2 DUP3 DUP2 ADD SWAP1 DUP2 GT PUSH2 0x7F5 JUMPI SWAP1 PUSH2 0x1CED DUP5 PUSH2 0x20F3 PUSH2 0x2101 SWAP5 DUP9 PUSH2 0x31C4 JUMP JUMPDEST SWAP1 SLOAD SWAP1 DUP10 SHL SHR AND SWAP2 DUP7 PUSH2 0x31C4 JUMP JUMPDEST DUP3 SLOAD DUP1 ISZERO PUSH2 0x212B JUMPI ADD SWAP3 PUSH2 0x2115 DUP5 DUP5 PUSH2 0x31C4 JUMP JUMPDEST DUP2 SWAP4 SWAP2 SLOAD SWAP3 SHL SHL NOT AND SWAP1 SSTORE SSTORE CODESIZE DUP1 DUP1 DUP1 DUP1 PUSH2 0x2070 JUMP JUMPDEST PUSH4 0x4E487B71 PUSH1 0xE0 SHL DUP8 MSTORE PUSH1 0x31 PUSH1 0x4 MSTORE PUSH1 0x24 DUP8 REVERT JUMPDEST POP PUSH2 0x2070 JUMP JUMPDEST POP CALLVALUE PUSH2 0x282 JUMPI DUP1 PUSH1 0x3 NOT CALLDATASIZE ADD SLT PUSH2 0x282 JUMPI PUSH1 0x40 MLOAD PUSH32 0x0 PUSH1 0x1 PUSH1 0x1 PUSH1 0xA0 SHL SUB AND DUP2 MSTORE PUSH1 0x20 SWAP1 RETURN JUMPDEST POP CALLVALUE PUSH2 0x282 JUMPI PUSH1 0x20 CALLDATASIZE PUSH1 0x3 NOT ADD SLT PUSH2 0x282 JUMPI PUSH1 0x20 SWAP1 PUSH1 0x40 SWAP1 PUSH1 0x1 PUSH1 0x1 PUSH1 0xA0 SHL SUB PUSH2 0x21B2 PUSH2 0x2CBF JUMP JUMPDEST AND DUP2 MSTORE PUSH1 0x1 DUP4 MSTORE KECCAK256 SLOAD PUSH1 0x58 SHL PUSH1 0x40 MLOAD SWAP1 PUSH11 0xFFFFFFFFFFFFFFFFFFFFFF NOT AND DUP2 MSTORE RETURN JUMPDEST POP CALLVALUE PUSH2 0x282 JUMPI PUSH1 0x40 CALLDATASIZE PUSH1 0x3 NOT ADD SLT PUSH2 0x282 JUMPI PUSH2 0x100 SWAP1 PUSH1 0x40 PUSH2 0x21F4 PUSH2 0x2CBF JUMP JUMPDEST SWAP2 PUSH2 0x21FD PUSH2 0x2CD5 JUMP JUMPDEST PUSH1 0x1 DUP1 PUSH1 0xA0 SHL SUB DUP1 SWAP5 AND DUP3 MSTORE PUSH1 0x5 PUSH1 0x20 MSTORE DUP4 DUP4 DUP4 KECCAK256 SWAP2 AND DUP3 MSTORE PUSH1 0x20 MSTORE KECCAK256 DUP2 DUP2 SLOAD AND SWAP2 PUSH1 0x1 DUP3 ADD SLOAD SWAP2 PUSH1 0x2 DUP2 ADD SLOAD PUSH1 0x3 DUP3 ADD SLOAD PUSH1 0x4 DUP4 ADD SLOAD SWAP2 PUSH1 0x6 PUSH1 0x5 DUP6 ADD SLOAD SWAP5 ADD SLOAD SWAP6 PUSH1 0x40 MLOAD SWAP8 DUP9 MSTORE PUSH1 0x20 DUP9 ADD MSTORE PUSH1 0x40 DUP8 ADD MSTORE PUSH1 0x60 DUP7 ADD MSTORE PUSH1 0x80 DUP6 ADD MSTORE PUSH1 0xFF DUP2 AND ISZERO ISZERO PUSH1 0xA0 DUP6 ADD MSTORE PUSH1 0x8 SHR AND PUSH1 0xC0 DUP4 ADD MSTORE PUSH1 0xE0 DUP3 ADD MSTORE RETURN JUMPDEST POP CALLVALUE PUSH2 0x282 JUMPI PUSH1 0x40 CALLDATASIZE PUSH1 0x3 NOT ADD SLT PUSH2 0x282 JUMPI PUSH1 0x1 PUSH1 0x1 PUSH1 0x40 SHL SUB PUSH1 0x4 CALLDATALOAD DUP2 DUP2 GT PUSH2 0x16CE JUMPI PUSH2 0x22A7 SWAP1 CALLDATASIZE SWAP1 PUSH1 0x4 ADD PUSH2 0x2CFF JUMP JUMPDEST PUSH1 0x24 SWAP3 SWAP2 SWAP3 CALLDATALOAD DUP3 DUP2 GT PUSH2 0x25AC JUMPI PUSH2 0x22C2 SWAP1 CALLDATASIZE SWAP1 PUSH1 0x4 ADD PUSH2 0x2CFF JUMP JUMPDEST SWAP2 SWAP1 SWAP2 CALLER DUP7 MSTORE PUSH1 0x20 SWAP4 PUSH1 0x4 DUP6 MSTORE PUSH1 0x1 SWAP1 PUSH2 0x22E3 DUP3 PUSH1 0x40 DUP11 KECCAK256 ADD SLOAD ISZERO ISZERO PUSH2 0x3055 JUMP JUMPDEST CALLER DUP9 MSTORE PUSH1 0x4 DUP7 MSTORE PUSH1 0x40 DUP9 KECCAK256 SLOAD PUSH1 0x1 PUSH1 0x1 PUSH1 0xA0 SHL SUB AND ADDRESS SUB PUSH2 0x2558 JUMPI DUP4 ISZERO ISZERO DUP1 PUSH2 0x254F JUMPI JUMPDEST PUSH2 0x2310 SWAP1 PUSH2 0x30DD JUMP JUMPDEST PUSH1 0x40 MLOAD SWAP2 PUSH2 0x231D DUP4 PUSH2 0x2D93 JUMP JUMPDEST PUSH2 0x2328 CALLDATASIZE DUP7 DUP11 PUSH2 0x311C JUMP JUMPDEST DUP4 MSTORE PUSH2 0x2335 CALLDATASIZE DUP6 DUP9 PUSH2 0x311C JUMP JUMPDEST SWAP3 DUP8 DUP2 ADD SWAP4 DUP5 MSTORE CALLER DUP11 MSTORE PUSH1 0x6 DUP9 MSTORE PUSH1 0x40 DUP11 KECCAK256 SWAP1 MLOAD SWAP1 DUP2 MLOAD DUP5 DUP2 GT PUSH2 0x253B JUMPI SWAP1 DUP4 SWAP2 DUP13 PUSH2 0x2361 DUP4 SLOAD PUSH2 0x2D59 JUMP JUMPDEST SWAP5 PUSH1 0x1F SWAP6 DUP14 DUP8 DUP3 GT PUSH2 0x250E JUMPI JUMPDEST POP POP DUP13 SWAP2 DUP7 DUP5 GT PUSH1 0x1 EQ PUSH2 0x24AA JUMPI SWAP2 SWAP1 DUP4 PUSH2 0x249F JUMPI JUMPDEST POP POP PUSH1 0x0 NOT PUSH1 0x3 DUP4 SWAP1 SHL SHR NOT AND SWAP1 DUP4 SHL OR DUP2 SSTORE JUMPDEST ADD SWAP4 MLOAD SWAP8 DUP9 MLOAD SWAP4 DUP5 GT PUSH2 0x1A09 JUMPI PUSH2 0x23AF DUP6 SLOAD PUSH2 0x2D59 JUMP JUMPDEST DUP3 DUP2 GT PUSH2 0x2473 JUMPI JUMPDEST POP DUP1 SWAP2 DUP5 GT PUSH1 0x1 EQ PUSH2 0x240F JUMPI POP SWAP2 DUP1 DUP1 SWAP3 PUSH2 0x1C9C SWAP7 SWAP6 SWAP5 PUSH1 0x0 DUP1 MLOAD PUSH1 0x20 PUSH2 0x37DC DUP4 CODECOPY DUP2 MLOAD SWAP2 MSTORE SWAP11 DUP14 SWAP5 PUSH2 0x2404 JUMPI JUMPDEST POP POP SHL SWAP2 PUSH1 0x0 NOT SWAP1 PUSH1 0x3 SHL SHR NOT AND OR SWAP1 SSTORE PUSH1 0x40 MLOAD SWAP4 DUP5 SWAP4 CALLER SWAP8 DUP6 PUSH2 0x319A JUMP JUMPDEST ADD MLOAD SWAP3 POP CODESIZE DUP1 PUSH2 0x23E5 JUMP JUMPDEST SWAP2 SWAP4 SWAP5 SWAP6 SWAP7 SWAP8 PUSH1 0x1F NOT DUP5 AND DUP7 DUP13 MSTORE DUP4 DUP13 KECCAK256 SWAP4 DUP13 SWAP1 JUMPDEST DUP3 DUP3 LT PUSH2 0x245C JUMPI POP POP SWAP2 PUSH1 0x0 DUP1 MLOAD PUSH1 0x20 PUSH2 0x37DC DUP4 CODECOPY DUP2 MLOAD SWAP2 MSTORE SWAP10 SWAP9 SWAP8 SWAP6 SWAP4 SWAP2 DUP6 PUSH2 0x1C9C SWAP9 SWAP7 SWAP5 LT PUSH2 0x19A3 JUMPI POP POP POP DUP2 SHL ADD SWAP1 SSTORE PUSH2 0x1931 JUMP JUMPDEST DUP1 DUP9 DUP7 SWAP8 DUP3 SWAP5 SWAP8 DUP8 ADD MLOAD DUP2 SSTORE ADD SWAP7 ADD SWAP5 ADD SWAP1 PUSH2 0x2424 JUMP JUMPDEST PUSH2 0x2499 SWAP1 DUP7 DUP14 MSTORE DUP3 DUP14 KECCAK256 DUP5 DUP1 DUP9 ADD PUSH1 0x5 SHR DUP3 ADD SWAP3 DUP6 DUP10 LT PUSH2 0x1A00 JUMPI ADD PUSH1 0x5 SHR ADD SWAP1 PUSH2 0x3162 JUMP JUMPDEST CODESIZE PUSH2 0x23B7 JUMP JUMPDEST ADD MLOAD SWAP1 POP CODESIZE DUP1 PUSH2 0x2384 JUMP JUMPDEST DUP5 DUP2 MSTORE DUP14 DUP2 KECCAK256 SWAP3 SWAP2 SWAP1 PUSH1 0x1F NOT DUP6 AND SWAP1 DUP16 JUMPDEST DUP3 DUP3 LT PUSH2 0x24F7 JUMPI POP POP SWAP1 DUP5 DUP8 SWAP6 SWAP5 SWAP4 SWAP3 LT PUSH2 0x24DE JUMPI JUMPDEST POP POP POP DUP2 SHL ADD DUP2 SSTORE PUSH2 0x2398 JUMP JUMPDEST ADD MLOAD PUSH1 0x0 NOT PUSH1 0xF8 DUP5 PUSH1 0x3 SHL AND SHR NOT AND SWAP1 SSTORE CODESIZE DUP1 DUP1 PUSH2 0x24D1 JUMP JUMPDEST DUP4 DUP6 ADD MLOAD DUP7 SSTORE DUP11 SWAP9 SWAP1 SWAP6 ADD SWAP5 SWAP4 DUP5 ADD SWAP4 ADD DUP16 PUSH2 0x24BB JUMP JUMPDEST PUSH2 0x2534 SWAP2 DUP7 DUP6 MSTORE DUP9 DUP3 DUP7 KECCAK256 SWAP2 DUP2 DUP9 ADD PUSH1 0x5 SHR DUP4 ADD SWAP4 DUP9 LT PUSH2 0x1A00 JUMPI ADD PUSH1 0x5 SHR ADD SWAP1 PUSH2 0x3162 JUMP JUMPDEST CODESIZE DUP14 PUSH2 0x236E JUMP JUMPDEST PUSH4 0x4E487B71 PUSH1 0xE0 SHL DUP13 MSTORE PUSH1 0x41 PUSH1 0x4 MSTORE PUSH1 0x24 DUP13 REVERT JUMPDEST POP DUP3 ISZERO ISZERO PUSH2 0x2307 JUMP JUMPDEST PUSH1 0x40 MLOAD PUSH3 0x461BCD PUSH1 0xE5 SHL DUP2 MSTORE PUSH1 0x4 DUP2 ADD DUP8 SWAP1 MSTORE PUSH1 0x26 PUSH1 0x24 DUP3 ADD MSTORE PUSH32 0x4665726E206F6E6C79207768656E20636F6E74726163742069732062656E6566 PUSH1 0x44 DUP3 ADD MSTORE PUSH6 0x696369617279 PUSH1 0xD0 SHL PUSH1 0x64 DUP3 ADD MSTORE PUSH1 0x84 SWAP1 REVERT JUMPDEST DUP5 DUP1 REVERT JUMPDEST POP CALLVALUE PUSH2 0x282 JUMPI DUP1 PUSH1 0x3 NOT CALLDATASIZE ADD SLT PUSH2 0x282 JUMPI CALLER DUP2 MSTORE PUSH1 0x4 PUSH1 0x20 MSTORE PUSH2 0x25DB PUSH1 0x1 PUSH1 0x40 DUP4 KECCAK256 ADD SLOAD ISZERO ISZERO PUSH2 0x3091 JUMP JUMPDEST CALLER DUP2 MSTORE PUSH1 0x4 PUSH1 0x20 MSTORE PUSH2 0x25F4 PUSH1 0x2 PUSH1 0x40 DUP4 KECCAK256 ADD SLOAD TIMESTAMP PUSH2 0x3032 JUMP JUMPDEST CALLER DUP3 MSTORE PUSH1 0x4 PUSH1 0x20 MSTORE DUP1 PUSH1 0x1 PUSH1 0x40 DUP5 KECCAK256 ADD SSTORE PUSH1 0x40 MLOAD SWAP1 DUP2 MSTORE PUSH32 0xF1A463082EFF5F74A481D3ABD6FC308D976449C50289C0564E946069CB7D8805 PUSH1 0x20 CALLER SWAP3 LOG2 DUP1 RETURN JUMPDEST POP CALLVALUE PUSH2 0x282 JUMPI PUSH1 0x20 CALLDATASIZE PUSH1 0x3 NOT ADD SLT PUSH2 0x282 JUMPI PUSH1 0x20 SWAP1 PUSH1 0x1 PUSH1 0x1 PUSH1 0xA0 SHL SUB SWAP1 PUSH1 0x40 SWAP1 DUP3 PUSH2 0x265E PUSH2 0x2CBF JUMP JUMPDEST AND DUP2 MSTORE DUP1 DUP5 MSTORE KECCAK256 SLOAD AND ISZERO ISZERO PUSH1 0x40 MLOAD SWAP1 DUP2 MSTORE RETURN JUMPDEST POP CALLVALUE PUSH2 0x282 JUMPI PUSH1 0x20 CALLDATASIZE PUSH1 0x3 NOT ADD SLT PUSH2 0x282 JUMPI PUSH2 0x268B PUSH2 0x2CBF JUMP JUMPDEST CALLER DUP3 MSTORE PUSH1 0x4 PUSH1 0x20 MSTORE PUSH2 0x26A5 PUSH1 0x1 PUSH1 0x40 DUP5 KECCAK256 ADD SLOAD ISZERO ISZERO PUSH2 0x3055 JUMP JUMPDEST PUSH1 0x1 PUSH1 0x1 PUSH1 0xA0 SHL SUB AND DUP1 ISZERO PUSH2 0x26F8 JUMPI CALLER DUP1 DUP4 MSTORE PUSH1 0x4 PUSH1 0x20 MSTORE PUSH1 0x40 DUP4 KECCAK256 DUP1 SLOAD PUSH1 0x1 PUSH1 0x1 PUSH1 0xA0 SHL SUB NOT AND DUP4 OR SWAP1 SSTORE PUSH32 0xE72EAF6ADDAA195F3C83095031DD08F3A96808DCF047BABED1FE4E4F69D6C622 DUP4 DUP1 LOG3 DUP1 RETURN JUMPDEST PUSH1 0x40 MLOAD PUSH3 0x461BCD PUSH1 0xE5 SHL DUP2 MSTORE PUSH1 0x20 PUSH1 0x4 DUP3 ADD MSTORE PUSH1 0x1A PUSH1 0x24 DUP3 ADD MSTORE PUSH32 0x42656E65666963696172792063616E6E6F74206265207A65726F000000000000 PUSH1 0x44 DUP3 ADD MSTORE PUSH1 0x64 SWAP1 REVERT JUMPDEST POP CALLVALUE PUSH2 0x282 JUMPI PUSH1 0x40 CALLDATASIZE PUSH1 0x3 NOT ADD SLT PUSH2 0x282 JUMPI PUSH2 0x2757 PUSH2 0x2CBF JUMP JUMPDEST PUSH2 0x275F PUSH2 0x2CD5 JUMP JUMPDEST PUSH1 0x1 DUP1 PUSH1 0xA0 SHL SUB DUP1 DUP4 AND SWAP1 DUP2 DUP6 MSTORE PUSH1 0x20 SWAP4 PUSH1 0x5 DUP6 MSTORE DUP2 PUSH1 0x40 DUP8 KECCAK256 SWAP5 AND SWAP4 DUP5 DUP8 MSTORE DUP6 MSTORE PUSH1 0x40 DUP7 KECCAK256 PUSH1 0x5 DUP2 ADD SWAP6 DUP7 SLOAD SWAP3 PUSH2 0x2799 PUSH1 0xFF DUP6 AND PUSH2 0x2FF1 JUMP JUMPDEST PUSH2 0x27AC PUSH1 0x3 DUP5 ADD SLOAD PUSH1 0x4 DUP6 ADD SLOAD SWAP1 PUSH2 0x3032 JUMP JUMPDEST TIMESTAMP LT PUSH2 0x29E5 JUMPI DUP6 DUP10 MSTORE PUSH1 0x4 DUP1 DUP4 MSTORE PUSH1 0x40 DUP11 KECCAK256 ADD SLOAD PUSH1 0x8 SHR PUSH1 0xFF AND ISZERO PUSH2 0x29BD JUMPI DUP5 PUSH32 0x0 SWAP5 JUMPDEST PUSH1 0x8 SHR AND ISZERO PUSH2 0x2904 JUMPI POP PUSH1 0x40 MLOAD PUSH4 0x70A08231 PUSH1 0xE0 SHL DUP2 MSTORE ADDRESS PUSH1 0x4 DUP3 ADD MSTORE DUP2 DUP2 PUSH1 0x24 DUP2 DUP11 GAS STATICCALL SWAP1 DUP2 ISZERO PUSH2 0x28F9 JUMPI DUP10 SWAP2 PUSH2 0x28A0 JUMPI JUMPDEST POP SWAP1 DUP5 PUSH2 0x285B PUSH1 0x60 SWAP6 SWAP5 SWAP4 PUSH32 0x60FE5C7ED4FE46663EC53F1FBD38F2C85063CEA69E1425471DF15414DEA59AA5 SWAP8 DUP12 SLOAD PUSH1 0x8 SHR AND DUP11 PUSH2 0x35FD JUMP JUMPDEST DUP7 DUP11 MSTORE PUSH1 0x4 DUP3 MSTORE PUSH2 0x287C PUSH1 0x6 DUP3 PUSH1 0x40 DUP14 KECCAK256 SLOAD AND SWAP5 ADD SWAP5 DUP5 DUP4 DUP8 SLOAD SWAP3 AND PUSH2 0x35FD JUMP JUMPDEST DUP9 SLOAD PUSH1 0x8 SHR AND SWAP3 SLOAD SWAP1 PUSH1 0x40 MLOAD SWAP4 DUP5 MSTORE DUP4 ADD MSTORE PUSH1 0x40 DUP3 ADD MSTORE LOG3 JUMPDEST DUP1 SLOAD PUSH1 0xFF NOT AND SWAP1 SSTORE DUP1 RETURN JUMPDEST SWAP4 SWAP3 SWAP2 DUP1 SWAP2 POP DUP5 DUP2 RETURNDATASIZE DUP4 GT PUSH2 0x28F2 JUMPI JUMPDEST PUSH2 0x28BA DUP2 DUP4 PUSH2 0x2DE4 JUMP JUMPDEST DUP2 ADD SUB SLT PUSH2 0x28EE JUMPI SWAP3 MLOAD SWAP2 SWAP3 SWAP1 SWAP2 PUSH32 0x60FE5C7ED4FE46663EC53F1FBD38F2C85063CEA69E1425471DF15414DEA59AA5 PUSH2 0x2822 JUMP JUMPDEST DUP9 DUP1 REVERT JUMPDEST POP RETURNDATASIZE PUSH2 0x28B0 JUMP JUMPDEST PUSH1 0x40 MLOAD RETURNDATASIZE DUP12 DUP3 RETURNDATACOPY RETURNDATASIZE SWAP1 REVERT JUMPDEST PUSH1 0x40 MLOAD PUSH4 0x70A08231 PUSH1 0xE0 SHL DUP2 MSTORE ADDRESS PUSH1 0x4 DUP3 ADD MSTORE SWAP5 POP SWAP1 SWAP3 POP SWAP1 POP DUP2 DUP4 PUSH1 0x24 DUP2 DUP9 GAS STATICCALL SWAP3 DUP4 ISZERO PUSH2 0x29B2 JUMPI DUP8 SWAP4 PUSH2 0x297B JUMPI JUMPDEST POP SWAP1 PUSH2 0x2964 PUSH32 0x60FE5C7ED4FE46663EC53F1FBD38F2C85063CEA69E1425471DF15414DEA59AA5 SWAP4 PUSH1 0x60 SWAP4 DUP8 PUSH2 0x35FD JUMP JUMPDEST DUP7 PUSH1 0x40 MLOAD SWAP2 DUP2 DUP4 MSTORE DUP3 ADD MSTORE DUP4 PUSH1 0x40 DUP3 ADD MSTORE LOG3 PUSH2 0x2895 JUMP JUMPDEST SWAP3 POP SWAP1 DUP1 DUP4 DUP2 RETURNDATASIZE DUP4 GT PUSH2 0x29AB JUMPI JUMPDEST PUSH2 0x2993 DUP2 DUP4 PUSH2 0x2DE4 JUMP JUMPDEST DUP2 ADD SUB SLT PUSH2 0x29A7 JUMPI SWAP2 MLOAD SWAP2 SWAP1 PUSH2 0x2964 PUSH2 0x2934 JUMP JUMPDEST DUP7 DUP1 REVERT JUMPDEST POP RETURNDATASIZE PUSH2 0x2989 JUMP JUMPDEST PUSH1 0x40 MLOAD RETURNDATASIZE DUP10 DUP3 RETURNDATACOPY RETURNDATASIZE SWAP1 REVERT JUMPDEST DUP5 PUSH32 0x0 SWAP5 PUSH2 0x27EF JUMP JUMPDEST PUSH1 0x40 MLOAD PUSH3 0x461BCD PUSH1 0xE5 SHL DUP2 MSTORE PUSH1 0x4 DUP2 ADD DUP4 SWAP1 MSTORE PUSH1 0x11 PUSH1 0x24 DUP3 ADD MSTORE PUSH17 0x105D58DD1A5BDB881B9BDD08195B991959 PUSH1 0x7A SHL PUSH1 0x44 DUP3 ADD MSTORE PUSH1 0x64 SWAP1 REVERT JUMPDEST POP CALLVALUE PUSH2 0x282 JUMPI PUSH1 0x40 CALLDATASIZE PUSH1 0x3 NOT ADD SLT PUSH2 0x282 JUMPI PUSH2 0x2A38 PUSH2 0x2CBF JUMP JUMPDEST PUSH1 0x24 CALLDATALOAD SWAP1 PUSH11 0xFFFFFFFFFFFFFFFFFFFFFF NOT DUP3 AND SWAP1 DUP2 DUP4 SUB PUSH2 0x1685 JUMPI PUSH32 0xCA2B3580C9EE988529004F370D25905AF22FC1E28E742681840FF14998428500 SWAP2 PUSH1 0x20 SWAP2 PUSH1 0x1 DUP1 PUSH1 0xA0 SHL SUB SWAP1 PUSH2 0x2A8F DUP3 PUSH1 0x3 SLOAD AND CALLER EQ PUSH2 0x2F4F JUMP JUMPDEST AND SWAP4 PUSH2 0x2A9C DUP6 ISZERO ISZERO PUSH2 0x2FA5 JUMP JUMPDEST DUP5 DUP7 MSTORE PUSH1 0x1 DUP4 MSTORE PUSH1 0x40 DUP7 KECCAK256 SWAP1 PUSH1 0x58 SHR PUSH11 0xFFFFFFFFFFFFFFFFFFFFFF PUSH1 0xA8 SHL DUP3 SLOAD AND OR SWAP1 SSTORE PUSH1 0x40 MLOAD SWAP1 DUP2 MSTORE LOG2 DUP1 RETURN JUMPDEST POP CALLVALUE PUSH2 0x282 JUMPI PUSH1 0x20 SWAP1 DUP2 PUSH1 0x3 NOT CALLDATASIZE ADD SLT PUSH2 0x282 JUMPI PUSH1 0x1 PUSH1 0x1 PUSH1 0xA0 SHL SUB SWAP2 SWAP1 DUP3 PUSH2 0x2AF1 PUSH2 0x2CBF JUMP JUMPDEST AND DUP2 MSTORE PUSH1 0x4 DUP3 MSTORE PUSH1 0x40 DUP2 KECCAK256 SWAP1 DUP4 DUP3 SLOAD AND PUSH1 0x1 SWAP1 PUSH1 0x1 DUP5 ADD SLOAD SWAP5 PUSH1 0x2 DUP6 ADD SLOAD SWAP7 PUSH1 0x4 PUSH1 0x3 DUP8 ADD SWAP7 ADD SLOAD SWAP8 PUSH1 0x40 MLOAD SWAP1 DUP2 DUP5 DUP10 SLOAD SWAP2 DUP3 DUP2 MSTORE ADD SWAP1 DUP2 SWAP10 DUP10 MSTORE DUP6 DUP10 KECCAK256 SWAP1 DUP10 JUMPDEST DUP2 DUP2 LT PUSH2 0x2BAC JUMPI POP POP POP DUP3 PUSH2 0x2B48 SWAP2 SUB DUP4 PUSH2 0x2DE4 JUMP JUMPDEST PUSH1 0x40 MLOAD SWAP9 PUSH1 0xC0 DUP11 ADD SWAP6 DUP11 MSTORE DUP5 DUP11 ADD MSTORE PUSH1 0x40 DUP10 ADD MSTORE PUSH1 0xC0 PUSH1 0x60 DUP10 ADD MSTORE MLOAD DUP1 SWAP4 MSTORE PUSH1 0xE0 DUP8 ADD SWAP6 SWAP5 SWAP1 JUMPDEST DUP4 DUP3 LT PUSH2 0x2B95 JUMPI DUP8 DUP1 DUP9 PUSH1 0xFF DUP13 DUP2 DUP2 AND ISZERO ISZERO PUSH1 0x80 DUP6 ADD MSTORE PUSH1 0x8 SHR AND ISZERO ISZERO PUSH1 0xA0 DUP4 ADD MSTORE SUB SWAP1 RETURN JUMPDEST DUP6 MLOAD DUP2 AND DUP8 MSTORE SWAP6 DUP3 ADD SWAP6 SWAP5 DUP3 ADD SWAP5 SWAP1 DUP5 ADD SWAP1 PUSH2 0x2B6F JUMP JUMPDEST DUP3 SLOAD DUP8 AND DUP5 MSTORE SWAP3 DUP8 ADD SWAP3 SWAP2 DUP10 ADD SWAP2 DUP10 ADD PUSH2 0x2B32 JUMP JUMPDEST POP CALLVALUE PUSH2 0x282 JUMPI DUP1 PUSH1 0x3 NOT CALLDATASIZE ADD SLT PUSH2 0x282 JUMPI PUSH1 0x40 MLOAD PUSH32 0x0 PUSH1 0x1 PUSH1 0x1 PUSH1 0xA0 SHL SUB AND DUP2 MSTORE PUSH1 0x20 SWAP1 RETURN JUMPDEST POP CALLVALUE PUSH2 0x282 JUMPI PUSH1 0x20 CALLDATASIZE PUSH1 0x3 NOT ADD SLT PUSH2 0x282 JUMPI PUSH2 0x2C20 PUSH2 0x2CBF JUMP JUMPDEST PUSH1 0x3 SLOAD PUSH1 0x1 PUSH1 0x1 PUSH1 0xA0 SHL SUB SWAP2 SWAP1 PUSH2 0x2C3A SWAP1 DUP4 AND CALLER EQ PUSH2 0x2F4F JUMP JUMPDEST AND DUP1 ISZERO PUSH2 0x2C7A JUMPI PUSH1 0x2 DUP1 SLOAD PUSH1 0x1 PUSH1 0x1 PUSH1 0xA0 SHL SUB NOT AND DUP3 OR SWAP1 SSTORE PUSH32 0x3C01CDFF3948F21EF3C7C09EF9F489CDEA8BB7A4C2D356C635795F8AE7DF8965 DUP3 DUP1 LOG2 DUP1 RETURN JUMPDEST PUSH1 0x40 MLOAD PUSH3 0x461BCD PUSH1 0xE5 SHL DUP2 MSTORE PUSH1 0x20 PUSH1 0x4 DUP3 ADD MSTORE PUSH1 0x1F PUSH1 0x24 DUP3 ADD MSTORE PUSH32 0x50726F76696465722063616E6E6F74206265207A65726F206164647265737300 PUSH1 0x44 DUP3 ADD MSTORE PUSH1 0x64 SWAP1 REVERT JUMPDEST PUSH1 0x4 CALLDATALOAD SWAP1 PUSH1 0x1 PUSH1 0x1 PUSH1 0xA0 SHL SUB DUP3 AND DUP3 SUB PUSH2 0x835 JUMPI JUMP JUMPDEST PUSH1 0x24 CALLDATALOAD SWAP1 PUSH1 0x1 PUSH1 0x1 PUSH1 0xA0 SHL SUB DUP3 AND DUP3 SUB PUSH2 0x835 JUMPI JUMP JUMPDEST CALLDATALOAD SWAP1 PUSH1 0x1 PUSH1 0x1 PUSH1 0xA0 SHL SUB DUP3 AND DUP3 SUB PUSH2 0x835 JUMPI JUMP JUMPDEST SWAP2 DUP2 PUSH1 0x1F DUP5 ADD SLT ISZERO PUSH2 0x835 JUMPI DUP3 CALLDATALOAD SWAP2 PUSH1 0x1 PUSH1 0x1 PUSH1 0x40 SHL SUB DUP4 GT PUSH2 0x835 JUMPI PUSH1 0x20 DUP4 DUP2 DUP7 ADD SWAP6 ADD ADD GT PUSH2 0x835 JUMPI JUMP JUMPDEST PUSH1 0x4 CALLDATALOAD SWAP1 DUP2 ISZERO ISZERO DUP3 SUB PUSH2 0x835 JUMPI JUMP JUMPDEST PUSH1 0x64 CALLDATALOAD SWAP1 DUP2 ISZERO ISZERO DUP3 SUB PUSH2 0x835 JUMPI JUMP JUMPDEST PUSH1 0x84 CALLDATALOAD SWAP1 DUP2 ISZERO ISZERO DUP3 SUB PUSH2 0x835 JUMPI JUMP JUMPDEST SWAP1 PUSH1 0x1 DUP3 DUP2 SHR SWAP3 AND DUP1 ISZERO PUSH2 0x2D89 JUMPI JUMPDEST PUSH1 0x20 DUP4 LT EQ PUSH2 0x2D73 JUMPI JUMP JUMPDEST PUSH4 0x4E487B71 PUSH1 0xE0 SHL PUSH1 0x0 MSTORE PUSH1 0x22 PUSH1 0x4 MSTORE PUSH1 0x24 PUSH1 0x0 REVERT JUMPDEST SWAP2 PUSH1 0x7F AND SWAP2 PUSH2 0x2D68 JUMP JUMPDEST PUSH1 0x40 DUP2 ADD SWAP1 DUP2 LT PUSH1 0x1 PUSH1 0x1 PUSH1 0x40 SHL SUB DUP3 GT OR PUSH2 0x7CB JUMPI PUSH1 0x40 MSTORE JUMP JUMPDEST PUSH1 0xA0 DUP2 ADD SWAP1 DUP2 LT PUSH1 0x1 PUSH1 0x1 PUSH1 0x40 SHL SUB DUP3 GT OR PUSH2 0x7CB JUMPI PUSH1 0x40 MSTORE JUMP JUMPDEST PUSH1 0x60 DUP2 ADD SWAP1 DUP2 LT PUSH1 0x1 PUSH1 0x1 PUSH1 0x40 SHL SUB DUP3 GT OR PUSH2 0x7CB JUMPI PUSH1 0x40 MSTORE JUMP JUMPDEST SWAP1 PUSH1 0x1F DUP1 NOT SWAP2 ADD AND DUP2 ADD SWAP1 DUP2 LT PUSH1 0x1 PUSH1 0x1 PUSH1 0x40 SHL SUB DUP3 GT OR PUSH2 0x7CB JUMPI PUSH1 0x40 MSTORE JUMP JUMPDEST SWAP1 PUSH1 0x40 MLOAD SWAP2 DUP3 PUSH1 0x0 DUP3 SLOAD PUSH2 0x2E18 DUP2 PUSH2 0x2D59 JUMP JUMPDEST SWAP1 DUP2 DUP5 MSTORE PUSH1 0x20 SWAP5 PUSH1 0x1 SWAP2 PUSH1 0x1 DUP2 AND SWAP1 DUP2 PUSH1 0x0 EQ PUSH2 0x2E88 JUMPI POP PUSH1 0x1 EQ PUSH2 0x2E49 JUMPI JUMPDEST POP POP POP PUSH2 0x2E47 SWAP3 POP SUB DUP4 PUSH2 0x2DE4 JUMP JUMPDEST JUMP JUMPDEST PUSH1 0x0 SWAP1 DUP2 MSTORE DUP6 DUP2 KECCAK256 SWAP6 SWAP4 POP SWAP2 SWAP1 JUMPDEST DUP2 DUP4 LT PUSH2 0x2E70 JUMPI POP POP PUSH2 0x2E47 SWAP4 POP DUP3 ADD ADD CODESIZE DUP1 DUP1 PUSH2 0x2E38 JUMP JUMPDEST DUP6 SLOAD DUP9 DUP5 ADD DUP6 ADD MSTORE SWAP5 DUP6 ADD SWAP5 DUP8 SWAP5 POP SWAP2 DUP4 ADD SWAP2 PUSH2 0x2E57 JUMP JUMPDEST SWAP3 POP POP POP PUSH2 0x2E47 SWAP5 SWAP3 POP PUSH1 0xFF NOT AND DUP3 DUP5 ADD MSTORE ISZERO ISZERO PUSH1 0x5 SHL DUP3 ADD ADD CODESIZE DUP1 DUP1 PUSH2 0x2E38 JUMP JUMPDEST SWAP2 SWAP1 DUP3 MLOAD SWAP3 DUP4 DUP3 MSTORE PUSH1 0x0 JUMPDEST DUP5 DUP2 LT PUSH2 0x2ED6 JUMPI POP POP DUP3 PUSH1 0x0 PUSH1 0x20 DUP1 SWAP5 SWAP6 DUP5 ADD ADD MSTORE PUSH1 0x1F DUP1 NOT SWAP2 ADD AND ADD ADD SWAP1 JUMP JUMPDEST PUSH1 0x20 DUP2 DUP4 ADD DUP2 ADD MLOAD DUP5 DUP4 ADD DUP3 ADD MSTORE ADD PUSH2 0x2EB5 JUMP JUMPDEST SWAP2 DUP2 PUSH1 0x1F DUP5 ADD SLT ISZERO PUSH2 0x835 JUMPI DUP3 CALLDATALOAD SWAP2 PUSH1 0x1 PUSH1 0x1 PUSH1 0x40 SHL SUB DUP4 GT PUSH2 0x835 JUMPI PUSH1 0x20 DUP1 DUP6 ADD SWAP5 DUP5 PUSH1 0x5 SHL ADD ADD GT PUSH2 0x835 JUMPI JUMP JUMPDEST PUSH1 0x60 SWAP1 PUSH1 0x3 NOT ADD SLT PUSH2 0x835 JUMPI PUSH1 0x1 PUSH1 0x1 PUSH1 0xA0 SHL SUB SWAP1 PUSH1 0x4 CALLDATALOAD DUP3 DUP2 AND DUP2 SUB PUSH2 0x835 JUMPI SWAP2 PUSH1 0x24 CALLDATALOAD SWAP1 DUP2 AND DUP2 SUB PUSH2 0x835 JUMPI SWAP1 PUSH1 0x44 CALLDATALOAD SWAP1 JUMP JUMPDEST ISZERO PUSH2 0x2F56 JUMPI JUMP JUMPDEST PUSH1 0x40 MLOAD PUSH3 0x461BCD PUSH1 0xE5 SHL DUP2 MSTORE PUSH1 0x20 PUSH1 0x4 DUP3 ADD MSTORE PUSH1 0x21 PUSH1 0x24 DUP3 ADD MSTORE PUSH32 0x4F6E6C792061646D696E2063616E2063616C6C20746869732066756E6374696F PUSH1 0x44 DUP3 ADD MSTORE PUSH1 0x37 PUSH1 0xF9 SHL PUSH1 0x64 DUP3 ADD MSTORE PUSH1 0x84 SWAP1 REVERT JUMPDEST ISZERO PUSH2 0x2FAC JUMPI JUMP JUMPDEST PUSH1 0x40 MLOAD PUSH3 0x461BCD PUSH1 0xE5 SHL DUP2 MSTORE PUSH1 0x20 PUSH1 0x4 DUP3 ADD MSTORE PUSH1 0x1C PUSH1 0x24 DUP3 ADD MSTORE PUSH32 0x546F6B656E2063616E6E6F74206265207A65726F206164647265737300000000 PUSH1 0x44 DUP3 ADD MSTORE PUSH1 0x64 SWAP1 REVERT JUMPDEST ISZERO PUSH2 0x2FF8 JUMPI JUMP JUMPDEST PUSH1 0x40 MLOAD PUSH3 0x461BCD PUSH1 0xE5 SHL DUP2 MSTORE PUSH1 0x20 PUSH1 0x4 DUP3 ADD MSTORE PUSH1 0x12 PUSH1 0x24 DUP3 ADD MSTORE PUSH18 0x41756374696F6E206E6F7420616374697665 PUSH1 0x70 SHL PUSH1 0x44 DUP3 ADD MSTORE PUSH1 0x64 SWAP1 REVERT JUMPDEST SWAP2 SWAP1 DUP3 ADD DUP1 SWAP3 GT PUSH2 0x303F JUMPI JUMP JUMPDEST PUSH4 0x4E487B71 PUSH1 0xE0 SHL PUSH1 0x0 MSTORE PUSH1 0x11 PUSH1 0x4 MSTORE PUSH1 0x24 PUSH1 0x0 REVERT JUMPDEST ISZERO PUSH2 0x305C JUMPI JUMP JUMPDEST PUSH1 0x40 MLOAD PUSH3 0x461BCD PUSH1 0xE5 SHL DUP2 MSTORE PUSH1 0x20 PUSH1 0x4 DUP3 ADD MSTORE PUSH1 0xD PUSH1 0x24 DUP3 ADD MSTORE PUSH13 0x105C9AC81B9BDD08189D5A5B1D PUSH1 0x9A SHL PUSH1 0x44 DUP3 ADD MSTORE PUSH1 0x64 SWAP1 REVERT JUMPDEST ISZERO PUSH2 0x3098 JUMPI JUMP JUMPDEST PUSH1 0x40 MLOAD PUSH3 0x461BCD PUSH1 0xE5 SHL DUP2 MSTORE PUSH1 0x20 PUSH1 0x4 DUP3 ADD MSTORE PUSH1 0x17 PUSH1 0x24 DUP3 ADD MSTORE PUSH32 0x4163636F756E74206E6F7420696E697469616C697A6564000000000000000000 PUSH1 0x44 DUP3 ADD MSTORE PUSH1 0x64 SWAP1 REVERT JUMPDEST ISZERO PUSH2 0x30E4 JUMPI JUMP JUMPDEST PUSH1 0x40 MLOAD PUSH3 0x461BCD PUSH1 0xE5 SHL DUP2 MSTORE PUSH1 0x20 PUSH1 0x4 DUP3 ADD MSTORE PUSH1 0x10 PUSH1 0x24 DUP3 ADD MSTORE PUSH16 0x496E76616C6964204665726E20494473 PUSH1 0x80 SHL PUSH1 0x44 DUP3 ADD MSTORE PUSH1 0x64 SWAP1 REVERT JUMPDEST SWAP3 SWAP2 SWAP3 PUSH1 0x1 PUSH1 0x1 PUSH1 0x40 SHL SUB DUP3 GT PUSH2 0x7CB JUMPI PUSH1 0x40 MLOAD SWAP2 PUSH2 0x3145 PUSH1 0x1F DUP3 ADD PUSH1 0x1F NOT AND PUSH1 0x20 ADD DUP5 PUSH2 0x2DE4 JUMP JUMPDEST DUP3 SWAP5 DUP2 DUP5 MSTORE DUP2 DUP4 ADD GT PUSH2 0x835 JUMPI DUP3 DUP2 PUSH1 0x20 SWAP4 DUP5 PUSH1 0x0 SWAP7 ADD CALLDATACOPY ADD ADD MSTORE JUMP JUMPDEST DUP2 DUP2 LT PUSH2 0x316D JUMPI POP POP JUMP JUMPDEST PUSH1 0x0 DUP2 SSTORE PUSH1 0x1 ADD PUSH2 0x3162 JUMP JUMPDEST SWAP1 DUP1 PUSH1 0x20 SWAP4 SWAP3 DUP2 DUP5 MSTORE DUP5 DUP5 ADD CALLDATACOPY PUSH1 0x0 DUP3 DUP3 ADD DUP5 ADD MSTORE PUSH1 0x1F ADD PUSH1 0x1F NOT AND ADD ADD SWAP1 JUMP JUMPDEST SWAP3 SWAP1 PUSH2 0x31B3 SWAP1 PUSH2 0x31C1 SWAP6 SWAP4 PUSH1 0x40 DUP7 MSTORE PUSH1 0x40 DUP7 ADD SWAP2 PUSH2 0x3179 JUMP JUMPDEST SWAP3 PUSH1 0x20 DUP2 DUP6 SUB SWAP2 ADD MSTORE PUSH2 0x3179 JUMP JUMPDEST SWAP1 JUMP JUMPDEST DUP1 SLOAD DUP3 LT ISZERO PUSH2 0x31DC JUMPI PUSH1 0x0 MSTORE PUSH1 0x20 PUSH1 0x0 KECCAK256 ADD SWAP1 PUSH1 0x0 SWAP1 JUMP JUMPDEST PUSH4 0x4E487B71 PUSH1 0xE0 SHL PUSH1 0x0 MSTORE PUSH1 0x32 PUSH1 0x4 MSTORE PUSH1 0x24 PUSH1 0x0 REVERT JUMPDEST SWAP2 SWAP1 DUP3 SUB SWAP2 DUP3 GT PUSH2 0x303F JUMPI JUMP JUMPDEST SWAP2 SWAP1 DUP1 DUP3 MSTORE PUSH1 0x20 DUP1 SWAP3 ADD SWAP3 SWAP2 PUSH1 0x0 JUMPDEST DUP3 DUP2 LT PUSH2 0x321C JUMPI POP POP POP POP SWAP1 JUMP JUMPDEST SWAP1 SWAP2 SWAP3 SWAP4 DUP3 DUP1 PUSH1 0x1 SWAP3 DUP4 DUP1 PUSH1 0xA0 SHL SUB PUSH2 0x3234 DUP10 PUSH2 0x2CEB JUMP JUMPDEST AND DUP2 MSTORE ADD SWAP6 ADD SWAP4 SWAP3 SWAP2 ADD PUSH2 0x320E JUMP JUMPDEST DUP2 DUP2 MUL SWAP3 SWAP2 DUP2 ISZERO SWAP2 DUP5 DIV EQ OR ISZERO PUSH2 0x303F JUMPI JUMP JUMPDEST DUP2 ISZERO PUSH2 0x3260 JUMPI DIV SWAP1 JUMP JUMPDEST PUSH4 0x4E487B71 PUSH1 0xE0 SHL PUSH1 0x0 MSTORE PUSH1 0x12 PUSH1 0x4 MSTORE PUSH1 0x24 PUSH1 0x0 REVERT JUMPDEST PUSH1 0x1 DUP1 PUSH1 0xA0 SHL SUB DUP1 SWAP2 AND PUSH1 0x0 MSTORE PUSH1 0x5 PUSH1 0x20 MSTORE PUSH1 0x40 PUSH1 0x0 KECCAK256 SWAP2 AND PUSH1 0x0 MSTORE PUSH1 0x20 MSTORE PUSH1 0x40 PUSH1 0x0 KECCAK256 PUSH2 0x32AA PUSH1 0xFF PUSH1 0x5 DUP4 ADD SLOAD AND PUSH2 0x2FF1 JUMP JUMPDEST PUSH2 0x32B8 PUSH1 0x3 DUP3 ADD SLOAD TIMESTAMP PUSH2 0x31F2 JUMP JUMPDEST SWAP1 PUSH1 0x4 DUP2 ADD SLOAD SWAP2 DUP3 DUP2 LT ISZERO PUSH2 0x32E5 JUMPI PUSH2 0x31C1 SWAP3 PUSH2 0x349 PUSH2 0x34E SWAP3 PUSH2 0x344 PUSH1 0x2 PUSH1 0x1 DUP8 ADD SLOAD SWAP7 ADD SLOAD DUP7 PUSH2 0x31F2 JUMP JUMPDEST POP PUSH1 0x2 SWAP2 POP ADD SLOAD SWAP1 JUMP JUMPDEST MLOAD SWAP1 PUSH10 0xFFFFFFFFFFFFFFFFFFFF DUP3 AND DUP3 SUB PUSH2 0x835 JUMPI JUMP JUMPDEST SWAP1 DUP2 PUSH1 0xA0 SWAP2 SUB SLT PUSH2 0x835 JUMPI PUSH2 0x331A DUP2 PUSH2 0x32EF JUMP JUMPDEST SWAP2 PUSH1 0x20 DUP3 ADD MLOAD SWAP2 PUSH1 0x40 DUP2 ADD MLOAD SWAP2 PUSH2 0x31C1 PUSH1 0x80 PUSH1 0x60 DUP5 ADD MLOAD SWAP4 ADD PUSH2 0x32EF JUMP JUMPDEST MLOAD SWAP1 PUSH1 0xFF DUP3 AND DUP3 SUB PUSH2 0x835 JUMPI JUMP JUMPDEST SWAP1 PUSH1 0x0 DUP1 PUSH1 0x1 DUP1 PUSH1 0xA0 SHL SUB DUP1 SWAP5 AND DUP1 DUP4 MSTORE PUSH1 0x20 SWAP1 DUP4 DUP3 MSTORE PUSH1 0x40 SWAP6 DUP1 DUP8 DUP7 KECCAK256 SLOAD AND DUP1 PUSH2 0x3511 JUMPI JUMPDEST POP PUSH1 0x2 SLOAD AND SWAP1 DUP2 PUSH2 0x33CF JUMPI JUMPDEST POP POP DUP3 ISZERO PUSH2 0x338C JUMPI POP PUSH2 0x31C1 SWAP3 SWAP4 POP PUSH2 0x3256 JUMP JUMPDEST PUSH1 0x64 SWAP1 DUP6 MLOAD SWAP1 PUSH3 0x461BCD PUSH1 0xE5 SHL DUP3 MSTORE PUSH1 0x4 DUP3 ADD MSTORE PUSH1 0x18 PUSH1 0x24 DUP3 ADD MSTORE PUSH32 0x4E6F20707269636520666565647320617661696C61626C650000000000000000 PUSH1 0x44 DUP3 ADD MSTORE REVERT JUMPDEST PUSH1 0x0 MSTORE PUSH1 0x1 DUP3 MSTORE DUP6 PUSH11 0xFFFFFFFFFFFFFFFFFFFFFF NOT DUP2 PUSH1 0x0 KECCAK256 SLOAD PUSH1 0x58 SHL AND DUP1 PUSH2 0x33F9 JUMPI JUMPDEST POP PUSH2 0x3378 JUMP JUMPDEST DUP2 MLOAD PUSH4 0x64D12FA7 PUSH1 0xE1 SHL DUP2 MSTORE PUSH1 0x4 DUP2 ADD DUP3 SWAP1 MSTORE PUSH1 0x0 DUP4 DUP3 PUSH1 0x24 DUP2 DUP9 GAS STATICCALL DUP1 SWAP3 DUP3 DUP1 SWAP5 PUSH2 0x34CD JUMPI JUMPDEST POP POP PUSH2 0x34C3 JUMPI POP POP PUSH1 0x24 DUP3 MLOAD DUP1 SWAP5 DUP2 SWAP4 PUSH4 0x49F4FC03 PUSH1 0xE1 SHL DUP4 MSTORE PUSH1 0x4 DUP4 ADD MSTORE GAS STATICCALL PUSH1 0x0 SWAP2 DUP2 PUSH2 0x3494 JUMPI JUMPDEST POP PUSH2 0x348C JUMPI POP PUSH1 0x8 PUSH1 0x0 JUMPDEST DUP1 PUSH2 0x3462 JUMPI JUMPDEST DUP7 SWAP1 PUSH2 0x33F3 JUMP JUMPDEST PUSH2 0x3478 SWAP3 SWAP5 SWAP4 SWAP2 PUSH2 0x3472 SWAP2 PUSH2 0x364F JUMP JUMPDEST SWAP1 PUSH2 0x3032 JUMP JUMPDEST SWAP1 PUSH1 0x1 DUP2 ADD DUP1 SWAP2 GT PUSH2 0x303F JUMPI SWAP2 CODESIZE DUP1 PUSH2 0x345B JUMP JUMPDEST PUSH1 0x8 SWAP1 PUSH2 0x3455 JUMP JUMPDEST SWAP1 SWAP2 POP DUP7 DUP2 DUP2 RETURNDATASIZE DUP4 GT PUSH2 0x34BC JUMPI JUMPDEST PUSH2 0x34AC DUP2 DUP4 PUSH2 0x2DE4 JUMP JUMPDEST DUP2 ADD SUB SLT PUSH2 0x835 JUMPI MLOAD SWAP1 CODESIZE PUSH2 0x344A JUMP JUMPDEST POP RETURNDATASIZE PUSH2 0x34A2 JUMP JUMPDEST SWAP3 POP SWAP3 POP POP PUSH2 0x3455 JUMP JUMPDEST SWAP3 POP DUP1 SWAP4 POP DUP6 SWAP2 SWAP5 SWAP6 RETURNDATASIZE DUP4 GT PUSH2 0x350A JUMPI JUMPDEST PUSH2 0x34E8 DUP2 DUP4 PUSH2 0x2DE4 JUMP JUMPDEST DUP2 ADD SUB SLT PUSH2 0x282 JUMPI POP SWAP1 DUP2 PUSH2 0x3502 DUP7 DUP12 SWAP6 SWAP5 MLOAD SWAP3 ADD PUSH2 0x3338 JUMP JUMPDEST SWAP2 CODESIZE DUP1 PUSH2 0x3420 JUMP JUMPDEST POP RETURNDATASIZE PUSH2 0x34DE JUMP JUMPDEST DUP8 MLOAD PUSH4 0x3FABE5A3 PUSH1 0xE2 SHL DUP2 MSTORE SWAP1 PUSH1 0xA0 DUP3 PUSH1 0x4 DUP2 DUP5 GAS STATICCALL SWAP2 DUP3 ISZERO PUSH2 0x35F3 JUMPI DUP8 SWAP3 PUSH2 0x35CD JUMPI JUMPDEST POP DUP7 DUP3 SGT PUSH2 0x3544 JUMPI JUMPDEST POP PUSH2 0x336C JUMP JUMPDEST PUSH1 0x4 SWAP2 SWAP4 SWAP6 POP DUP5 SWAP1 DUP10 SWAP8 SWAP4 SWAP8 MLOAD SWAP3 DUP4 DUP1 SWAP3 PUSH4 0x313CE567 PUSH1 0xE0 SHL DUP3 MSTORE GAS STATICCALL SWAP2 DUP3 ISZERO PUSH2 0x35C2 JUMPI DUP1 SWAP3 PUSH2 0x3585 JUMPI JUMPDEST POP POP PUSH2 0x357A SWAP2 PUSH2 0x364F JUMP JUMPDEST SWAP2 PUSH1 0x1 SWAP4 CODESIZE DUP1 PUSH2 0x353E JUMP JUMPDEST SWAP1 SWAP2 POP DUP4 DUP3 DUP2 RETURNDATASIZE DUP4 GT PUSH2 0x35BB JUMPI JUMPDEST PUSH2 0x359D DUP2 DUP4 PUSH2 0x2DE4 JUMP JUMPDEST DUP2 ADD SUB SLT PUSH2 0x282 JUMPI POP SWAP1 PUSH2 0x35B3 PUSH2 0x357A SWAP3 PUSH2 0x3338 JUMP JUMPDEST SWAP1 SWAP2 CODESIZE PUSH2 0x356F JUMP JUMPDEST POP RETURNDATASIZE PUSH2 0x3593 JUMP JUMPDEST DUP9 MLOAD SWAP1 RETURNDATASIZE SWAP1 DUP3 RETURNDATACOPY RETURNDATASIZE SWAP1 REVERT JUMPDEST PUSH2 0x35E7 SWAP2 SWAP3 POP PUSH1 0xA0 RETURNDATASIZE PUSH1 0xA0 GT PUSH2 0x13D8 JUMPI PUSH2 0x13C4 DUP2 DUP4 PUSH2 0x2DE4 JUMP JUMPDEST POP POP POP SWAP1 POP SWAP1 CODESIZE PUSH2 0x3535 JUMP JUMPDEST DUP10 MLOAD RETURNDATASIZE DUP10 DUP3 RETURNDATACOPY RETURNDATASIZE SWAP1 REVERT JUMPDEST PUSH1 0x40 MLOAD PUSH4 0xA9059CBB PUSH1 0xE0 SHL PUSH1 0x20 DUP3 ADD MSTORE PUSH1 0x1 PUSH1 0x1 PUSH1 0xA0 SHL SUB SWAP3 SWAP1 SWAP3 AND PUSH1 0x24 DUP4 ADD MSTORE PUSH1 0x44 DUP1 DUP4 ADD SWAP4 SWAP1 SWAP4 MSTORE SWAP2 DUP2 MSTORE PUSH2 0x2E47 SWAP2 PUSH2 0x3639 PUSH1 0x64 DUP4 PUSH2 0x2DE4 JUMP JUMPDEST PUSH2 0x3773 JUMP JUMPDEST PUSH1 0xFF AND PUSH1 0x4D DUP2 GT PUSH2 0x303F JUMPI PUSH1 0xA EXP SWAP1 JUMP JUMPDEST SWAP1 PUSH1 0xFF AND PUSH1 0x8 DUP2 EQ PUSH2 0x36A1 JUMPI PUSH1 0x8 DUP2 GT ISZERO PUSH2 0x3683 JUMPI PUSH1 0x7 NOT ADD SWAP1 PUSH1 0xFF DUP3 GT PUSH2 0x303F JUMPI PUSH2 0x367D PUSH2 0x31C1 SWAP3 PUSH2 0x363E JUMP JUMPDEST SWAP1 PUSH2 0x3256 JUMP JUMPDEST PUSH1 0x8 SUB SWAP1 PUSH1 0xFF DUP3 GT PUSH2 0x303F JUMPI PUSH2 0x369B PUSH2 0x31C1 SWAP3 PUSH2 0x363E JUMP JUMPDEST SWAP1 PUSH2 0x3243 JUMP JUMPDEST POP SWAP1 JUMP JUMPDEST SWAP1 DUP2 PUSH1 0x20 SWAP2 SUB SLT PUSH2 0x835 JUMPI MLOAD DUP1 ISZERO ISZERO DUP2 SUB PUSH2 0x835 JUMPI SWAP1 JUMP JUMPDEST PUSH1 0x80 PUSH1 0x40 PUSH2 0x31C1 SWAP6 SWAP5 PUSH2 0x120 SWAP5 PUSH1 0x1 DUP1 PUSH1 0xA0 SHL SUB SWAP4 DUP2 DUP6 DUP1 SWAP4 MLOAD AND DUP8 MSTORE DUP3 PUSH1 0x20 DUP3 ADD MLOAD AND PUSH1 0x20 DUP9 ADD MSTORE PUSH3 0xFFFFFF DUP6 DUP3 ADD MLOAD AND DUP6 DUP9 ADD MSTORE PUSH1 0x60 DUP2 ADD MLOAD PUSH1 0x2 SIGNEXTEND PUSH1 0x60 DUP9 ADD MSTORE ADD MLOAD AND PUSH1 0x80 DUP6 ADD MSTORE DUP1 MLOAD ISZERO ISZERO PUSH1 0xA0 DUP6 ADD MSTORE PUSH1 0x20 DUP2 ADD MLOAD PUSH1 0xC0 DUP6 ADD MSTORE ADD MLOAD AND PUSH1 0xE0 DUP3 ADD MSTORE DUP2 PUSH2 0x100 DUP3 ADD MSTORE ADD SWAP1 PUSH2 0x2EAA JUMP JUMPDEST PUSH1 0x40 MLOAD PUSH4 0x23B872DD PUSH1 0xE0 SHL PUSH1 0x20 DUP3 ADD MSTORE PUSH1 0x1 PUSH1 0x1 PUSH1 0xA0 SHL SUB SWAP3 DUP4 AND PUSH1 0x24 DUP3 ADD MSTORE SWAP3 SWAP1 SWAP2 AND PUSH1 0x44 DUP4 ADD MSTORE PUSH1 0x64 DUP1 DUP4 ADD SWAP4 SWAP1 SWAP4 MSTORE SWAP2 DUP2 MSTORE PUSH2 0x2E47 SWAP2 PUSH2 0x3639 DUP3 PUSH2 0x2DAE JUMP JUMPDEST SWAP1 PUSH1 0x0 PUSH1 0x20 SWAP2 DUP3 DUP2 MLOAD SWAP2 ADD DUP3 DUP6 GAS CALL ISZERO PUSH2 0x37CF JUMPI PUSH1 0x0 MLOAD RETURNDATASIZE PUSH2 0x37C6 JUMPI POP PUSH1 0x1 PUSH1 0x1 PUSH1 0xA0 SHL SUB DUP2 AND EXTCODESIZE ISZERO JUMPDEST PUSH2 0x37A4 JUMPI POP JUMP JUMPDEST PUSH1 0x40 MLOAD PUSH4 0x5274AFE7 PUSH1 0xE0 SHL DUP2 MSTORE PUSH1 0x1 PUSH1 0x1 PUSH1 0xA0 SHL SUB SWAP1 SWAP2 AND PUSH1 0x4 DUP3 ADD MSTORE PUSH1 0x24 SWAP1 REVERT JUMPDEST PUSH1 0x1 EQ ISZERO PUSH2 0x379D JUMP JUMPDEST PUSH1 0x40 MLOAD RETURNDATASIZE PUSH1 0x0 DUP3 RETURNDATACOPY RETURNDATASIZE SWAP1 REVERT INVALID NUMBER POP PUSH30 0x2F07D7CBCBEA5004E155FAFC42CB9EC32F0EC4F7CC904BF79AEF318E1BA2 PUSH5 0x6970667358 0x22 SLT KECCAK256 AND 0xAC 0xD9 0x2C PUSH8 0xDA9CE2A41C040CB CODECOPY 0xE 0xE9 DELEGATECALL 0xD 0xDC 0x2F DUP3 MOD DUP15 INVALID DUP16 SLT DUP9 0xB3 PUSH21 0xF6F88264736F6C6343000818003300000000000000 "},"methodIdentifiers":{"addPassengers(address[])":"79000013","admin()":"f851a440","arks(address)":"88b21872","auctions(address,address)":"18242941","bidOnDutchAuction(address,address,uint256)":"f76e3696","buildArk(address,uint256,address[],bool,bool)":"daa12a36","buildArkWithFern(address,uint256,address[],bool,bool,string,string)":"88e63a0f","fernInfos(address)":"6403b1df","fernOfframp(address,address,uint256)":"b92ce379","flareDataProvider()":"86da96ca","flareFeedIds(address)":"2c51ede4","flood(address)":"f2511bb1","getArk(address)":"05688c1c","getAverageUsdPrice(address)":"9e7efb20","getCurrentAuctionPrice(address,address)":"7a08d730","getTokenPrice(address)":"d02641a0","hasPriceFeed(address)":"0b7983a2","hookAddress()":"32a3cf96","pingArk()":"0fe23da9","poolManager()":"dc4c90d3","poolManagerSwapCallback(int256,bytes)":"afa9862a","priceFeeds(address)":"9dcb511a","pyrusdAddress()":"7e923b72","removePassenger(address)":"454d58d2","setFernInfo(string,string)":"162a58f2","setFlareDataProvider(address)":"00f3c832","setFlareFeedId(address,bytes21)":"09e9b89f","setPriceFeed(address,address)":"76e11286","settleDutchAuction(address,address)":"0a50960d","transferAdmin(address)":"75829def","updateAuctionPreference(bool)":"642e084e","updateBeneficiary(address)":"0aaffd2a","updateDeadlineDuration(uint256)":"fabb6a38","updateTargetCurrencyPreference(bool)":"500994c5","usdcAddress()":"02d45457"}}}}}