{"contracts/NoahV4.sol":{"NoahV4":{"abi":[{"inputs":[{"internalType":"contract IPoolManager","name":"_poolManager","type":"address"},{"internalType":"address","name":"_usdc","type":"address"},{"internalType":"address","name":"_pyrusd","type":"address"},{"internalType":"address","name":"_hook","type":"address"}],"stateMutability":"nonpayable","type":"constructor"},{"inputs":[{"internalType":"address","name":"token","type":"address"}],"name":"SafeERC20FailedOperation","type":"error"},{"anonymous":false,"inputs":[{"indexed":true,"internalType":"address","name":"user","type":"address"},{"indexed":true,"internalType":"address","name":"beneficiary","type":"address"},{"indexed":false,"internalType":"uint256","name":"deadline","type":"uint256"}],"name":"ArkBuilt","type":"event"},{"anonymous":false,"inputs":[{"indexed":true,"internalType":"address","name":"user","type":"address"},{"indexed":false,"internalType":"uint256","name":"newDeadline","type":"uint256"}],"name":"ArkPinged","type":"event"},{"anonymous":false,"inputs":[{"indexed":true,"internalType":"address","name":"user","type":"address"},{"indexed":false,"internalType":"bool","name":"useDutchAuction","type":"bool"}],"name":"AuctionPreferenceUpdated","type":"event"},{"anonymous":false,"inputs":[{"indexed":true,"internalType":"address","name":"user","type":"address"},{"indexed":false,"internalType":"uint256","name":"newDuration","type":"uint256"},{"indexed":false,"internalType":"uint256","name":"newDeadline","type":"uint256"}],"name":"DeadlineUpdated","type":"event"},{"anonymous":false,"inputs":[{"indexed":true,"internalType":"address","name":"user","type":"address"},{"indexed":true,"internalType":"address","name":"token","type":"address"},{"indexed":false,"internalType":"address","name":"bidder","type":"address"},{"indexed":false,"internalType":"uint256","name":"bidAmount","type":"uint256"},{"indexed":false,"internalType":"uint256","name":"currentPrice","type":"uint256"}],"name":"DutchAuctionBid","type":"event"},{"anonymous":false,"inputs":[{"indexed":true,"internalType":"address","name":"user","type":"address"},{"indexed":true,"internalType":"address","name":"token","type":"address"},{"indexed":false,"internalType":"address","name":"winner","type":"address"},{"indexed":false,"internalType":"uint256","name":"amount","type":"uint256"},{"indexed":false,"internalType":"address","name":"beneficiary","type":"address"}],"name":"DutchAuctionSettled","type":"event"},{"anonymous":false,"inputs":[{"indexed":true,"internalType":"address","name":"user","type":"address"},{"indexed":true,"internalType":"address","name":"token","type":"address"},{"indexed":false,"internalType":"uint256","name":"startPrice","type":"uint256"},{"indexed":false,"internalType":"uint256","name":"endPrice","type":"uint256"},{"indexed":false,"internalType":"uint256","name":"duration","type":"uint256"}],"name":"DutchAuctionStarted","type":"event"},{"anonymous":false,"inputs":[{"indexed":true,"internalType":"address","name":"user","type":"address"},{"indexed":true,"internalType":"address","name":"beneficiary","type":"address"},{"indexed":false,"internalType":"uint256","name":"usdcAmount","type":"uint256"}],"name":"FloodTriggered","type":"event"},{"anonymous":false,"inputs":[{"indexed":true,"internalType":"address","name":"user","type":"address"},{"indexed":true,"internalType":"address","name":"beneficiary","type":"address"},{"indexed":false,"internalType":"uint256","name":"amount","type":"uint256"}],"name":"PYUSDClaimed","type":"event"},{"anonymous":false,"inputs":[{"indexed":true,"internalType":"address","name":"user","type":"address"},{"indexed":false,"internalType":"address","name":"passenger","type":"address"}],"name":"PassengerRemoved","type":"event"},{"anonymous":false,"inputs":[{"indexed":true,"internalType":"address","name":"user","type":"address"},{"indexed":false,"internalType":"address[]","name":"newPassengers","type":"address[]"}],"name":"PassengersAdded","type":"event"},{"anonymous":false,"inputs":[{"indexed":true,"internalType":"address","name":"token","type":"address"},{"indexed":true,"internalType":"address","name":"priceFeed","type":"address"}],"name":"PriceFeedUpdated","type":"event"},{"anonymous":false,"inputs":[{"indexed":true,"internalType":"address","name":"user","type":"address"},{"indexed":false,"internalType":"bool","name":"usePYUSD","type":"bool"}],"name":"TargetCurrencyPreferenceUpdated","type":"event"},{"inputs":[{"internalType":"address[]","name":"_newPassengers","type":"address[]"}],"name":"addPassengers","outputs":[],"stateMutability":"nonpayable","type":"function"},{"inputs":[],"name":"admin","outputs":[{"internalType":"address","name":"","type":"address"}],"stateMutability":"view","type":"function"},{"inputs":[{"internalType":"address","name":"","type":"address"}],"name":"arks","outputs":[{"internalType":"address","name":"beneficiary","type":"address"},{"internalType":"uint256","name":"deadline","type":"uint256"},{"internalType":"uint256","name":"deadlineDuration","type":"uint256"},{"internalType":"bool","name":"useDutchAuction","type":"bool"},{"internalType":"bool","name":"usePYUSD","type":"bool"}],"stateMutability":"view","type":"function"},{"inputs":[{"internalType":"address","name":"","type":"address"},{"internalType":"address","name":"","type":"address"}],"name":"auctions","outputs":[{"internalType":"address","name":"token","type":"address"},{"internalType":"uint256","name":"startPrice","type":"uint256"},{"internalType":"uint256","name":"endPrice","type":"uint256"},{"internalType":"uint256","name":"startTime","type":"uint256"},{"internalType":"uint256","name":"duration","type":"uint256"},{"internalType":"bool","name":"active","type":"bool"},{"internalType":"address","name":"highestBidder","type":"address"},{"internalType":"uint256","name":"highestBid","type":"uint256"}],"stateMutability":"view","type":"function"},{"inputs":[{"internalType":"address","name":"_user","type":"address"},{"internalType":"address","name":"_token","type":"address"},{"internalType":"uint256","name":"_bidAmount","type":"uint256"}],"name":"bidOnDutchAuction","outputs":[],"stateMutability":"nonpayable","type":"function"},{"inputs":[{"internalType":"address","name":"_beneficiary","type":"address"},{"internalType":"uint256","name":"_deadlineDuration","type":"uint256"},{"internalType":"address[]","name":"_tokens","type":"address[]"},{"internalType":"bool","name":"_useDutchAuction","type":"bool"},{"internalType":"bool","name":"_usePYUSD","type":"bool"}],"name":"buildArk","outputs":[],"stateMutability":"nonpayable","type":"function"},{"inputs":[{"internalType":"address","name":"_user","type":"address"}],"name":"claimPYUSD","outputs":[],"stateMutability":"nonpayable","type":"function"},{"inputs":[{"internalType":"address","name":"_user","type":"address"}],"name":"flood","outputs":[],"stateMutability":"nonpayable","type":"function"},{"inputs":[{"internalType":"address","name":"user","type":"address"}],"name":"getArk","outputs":[{"internalType":"address","name":"beneficiary","type":"address"},{"internalType":"uint256","name":"deadline","type":"uint256"},{"internalType":"uint256","name":"deadlineDuration","type":"uint256"},{"internalType":"address[]","name":"tokens","type":"address[]"},{"internalType":"bool","name":"useDutchAuction","type":"bool"},{"internalType":"bool","name":"usePYUSD","type":"bool"}],"stateMutability":"view","type":"function"},{"inputs":[{"internalType":"address","name":"_user","type":"address"},{"internalType":"address","name":"_token","type":"address"}],"name":"getCurrentAuctionPrice","outputs":[{"internalType":"uint256","name":"currentPrice","type":"uint256"}],"stateMutability":"view","type":"function"},{"inputs":[{"internalType":"address","name":"_token","type":"address"}],"name":"getTokenPrice","outputs":[{"internalType":"uint256","name":"price","type":"uint256"}],"stateMutability":"view","type":"function"},{"inputs":[{"internalType":"address","name":"_token","type":"address"}],"name":"hasPriceFeed","outputs":[{"internalType":"bool","name":"","type":"bool"}],"stateMutability":"view","type":"function"},{"inputs":[],"name":"hookAddress","outputs":[{"internalType":"address","name":"","type":"address"}],"stateMutability":"view","type":"function"},{"inputs":[],"name":"pingArk","outputs":[],"stateMutability":"nonpayable","type":"function"},{"inputs":[],"name":"poolManager","outputs":[{"internalType":"contract IPoolManager","name":"","type":"address"}],"stateMutability":"view","type":"function"},{"inputs":[{"internalType":"BalanceDelta","name":"delta","type":"int256"},{"internalType":"bytes","name":"data","type":"bytes"}],"name":"poolManagerSwapCallback","outputs":[{"internalType":"bytes","name":"","type":"bytes"}],"stateMutability":"nonpayable","type":"function"},{"inputs":[{"internalType":"address","name":"","type":"address"}],"name":"priceFeeds","outputs":[{"internalType":"address","name":"","type":"address"}],"stateMutability":"view","type":"function"},{"inputs":[],"name":"pyrusdAddress","outputs":[{"internalType":"address","name":"","type":"address"}],"stateMutability":"view","type":"function"},{"inputs":[{"internalType":"address","name":"_passengerToRemove","type":"address"}],"name":"removePassenger","outputs":[],"stateMutability":"nonpayable","type":"function"},{"inputs":[{"internalType":"address","name":"_token","type":"address"},{"internalType":"address","name":"_priceFeed","type":"address"}],"name":"setPriceFeed","outputs":[],"stateMutability":"nonpayable","type":"function"},{"inputs":[{"internalType":"address","name":"_user","type":"address"},{"internalType":"address","name":"_token","type":"address"}],"name":"settleDutchAuction","outputs":[],"stateMutability":"nonpayable","type":"function"},{"inputs":[{"internalType":"address","name":"_newAdmin","type":"address"}],"name":"transferAdmin","outputs":[],"stateMutability":"nonpayable","type":"function"},{"inputs":[{"internalType":"bool","name":"_useDutchAuction","type":"bool"}],"name":"updateAuctionPreference","outputs":[],"stateMutability":"nonpayable","type":"function"},{"inputs":[{"internalType":"uint256","name":"_newDuration","type":"uint256"}],"name":"updateDeadlineDuration","outputs":[],"stateMutability":"nonpayable","type":"function"},{"inputs":[{"internalType":"bool","name":"_usePYUSD","type":"bool"}],"name":"updateTargetCurrencyPreference","outputs":[],"stateMutability":"nonpayable","type":"function"},{"inputs":[],"name":"usdcAddress","outputs":[{"internalType":"address","name":"","type":"address"}],"stateMutability":"view","type":"function"}],"evm":{"bytecode":{"linkReferences":{},"object":"610100346200016257601f620029e438819003918201601f19168301916001600160401b03831184841017620001675780849260809460405283398101031262000162578051906001600160a01b0382168203620001625762000065602082016200017d565b62000081606062000079604085016200017d565b93016200017d565b60809390935260a05260c05260e052600180546001600160a01b03191633179055604051612851908162000193823960805181818161090c01528181610a2b01528181610ab601528181610c200152818161109501526114bd015260a0518181816103ed01528181610551015281816108750152818161096d01528181610af801528181610b47015281816115640152818161207901526121e2015260c05181818161036401528181610b6c01528181610ddb01528181610edc015281816116bd0152611ea1015260e0518181816109a701528181610ba60152611c6f0152f35b600080fd5b634e487b7160e01b600052604160045260246000fd5b51906001600160a01b0382168203620001625756fe608080604052600436101561001357600080fd5b60003560e01c90816302d45457146121cf5750806305688c1c146120d75780630a50960d14611e085780630b7983a214611dcb5780630fe23da914611d425780631824294114611c9e57806332a3cf9614611c59578063454d58d214611b25578063500994c514611a9a578063642e084e14611a0f57806375829def1461198057806376e112861461185b57806379000013146117185780637a08d730146116ec5780637e923b72146116a757806388b21872146116365780639dcb511a146115fb578063afa9862a14611467578063d02641a01461143c578063daa12a36146110c4578063dc4c90d31461107f578063df18454814610e57578063f2511bb1146104ca578063f76e369614610251578063f851a440146102285763fabb6a381461013d57600080fd5b34610223576020806003193601126102235760043590336000526002815261016e60016040600020015415156123e1565b81156101d4573360005260028152816002604060002001556101908242612388565b903360005260028152816001604060002001556040519283528201527f270517e45d27f999faef5e16a3159117c83577723363227c5901cb52e315d86860403392a2005b6084906040519062461bcd60e51b82526004820152602260248201527f4475726174696f6e206d7573742062652067726561746572207468616e207a65604482015261726f60f01b6064820152fd5b600080fd5b34610223576000366003190112610223576001546040516001600160a01b039091168152602090f35b346102235760603660031901126102235761026a612211565b610272612227565b9060443560018060a01b038092169182600052602091600383528160406000209516948560005283526040600020600581016102b160ff825416612347565b60038201546004830154906102c68282612388565b42101561049557841561044457906103066102e461030c934261244b565b916103016001870154936102fc60028901548661244b565b6124ae565b6124c1565b9061244b565b9384841061041157926006606095936103c183947f703f9d09ecb9c1cb479797ac961a23f831480452f96fb5cdfe420b352742a46499978b6000526002895260ff60046040600020015460081c166000146103ea57807f00000000000000000000000000000000000000000000000000000000000000005b16906103928730338561277d565b825460081c1690816103d5575b50508054610100600160a81b0319163360081b610100600160a81b0316179055565b0155604051923384528301526040820152a3005b6103e39186860154916126ae565b8c8061039f565b807f0000000000000000000000000000000000000000000000000000000000000000610384565b60405162461bcd60e51b815260048101879052600b60248201526a42696420746f6f206c6f7760a81b6044820152606490fd5b60405162461bcd60e51b8152600481018890526024808201527f42696420616d6f756e74206d7573742062652067726561746572207468616e206044820152637a65726f60e01b6064820152608490fd5b60405162461bcd60e51b815260048101889052600d60248201526c105d58dd1a5bdb88195b991959609a1b6044820152606490fd5b34610223576020366003190112610223576104e3612211565b6001600160a01b0381166000908152600260205260409020600181015461050b811515612395565b4210610e1257600481015460ff16156108405760005b60038201548110156107f75761053a816003840161241d565b90546001600160a01b0360039290921b1c811691907f00000000000000000000000000000000000000000000000000000000000000001682146107ee576040516370a0823160e01b81526001600160a01b038516600482015291602083602481845afa9283156107e2576000936107ae575b50826105bf575b50600191505b01610521565b6305f5e1006105d66105d083612574565b856124ae565b04801590808004600114821715610798576105f56103e8820482612388565b91600a9082828102048214171561079857816064610619926106229402049061244b565b9430888561277d565b604051938461010081011067ffffffffffffffff61010087011117610782578461010060019601604052838152826020820152816040820152426060820152610e1060808201528560a0820152600060c0820152600060e0820152858060a01b0388166000526003602052604060002084600052602052600660e0604060002092888060a01b038151166001600160601b0360a01b8554161784556020810151898501556040810151600285015560608101516003850155608081015160048501556107376005850161070760a08401511515829060ff801983541691151516179055565b60c08301518154610100600160a81b03191660a08d901b8d90039190911660081b610100600160a81b0316179055565b01519101556040519182526020820152610e1060408201527f39a3045328465c82468e6e1dc742164b5a9097c34cf56ee021a8431685c52dbe6060858060a01b03881692a3846105b3565b634e487b7160e01b600052604160045260246000fd5b634e487b7160e01b600052601160045260246000fd5b9092506020813d6020116107da575b816107ca60209383612325565b81010312610223575191856105ac565b3d91506107bd565b6040513d6000823e3d90fd5b600191506105b9565b505b60006001820181905590546040519182526001600160a01b039081169216907fde3f14ce4426137f4576388d16723795d5bf5e2f00597e0e8d63816a7342a1e190602090a3005b60009160005b6003830154811015610e0a5761085f816003850161241d565b90546001600160a01b0360039290921b1c8116907f00000000000000000000000000000000000000000000000000000000000000001681148015610dd8575b610dcf576040516370a0823160e01b81526001600160a01b0384166004820152602081602481855afa9081156107e257600091610d9d575b50806108e9575b50506001905b01610846565b6108f58130868561277d565b60405163095ea7b360e01b81526001600160a01b037f000000000000000000000000000000000000000000000000000000000000000016600482015260248101829052906020826044816000875af19182156107e257602092610d80575b5060405192610961846122d1565b83526001600160a01b037f0000000000000000000000000000000000000000000000000000000000000000811683850152610bb8604080860191909152603c60608601527f0000000000000000000000000000000000000000000000000000000000000000909116608085015251906109d9826122ed565b60018252828201526000604082015260018060a01b03865416926040519383850152828452610a0784612309565b610a256040519485938493633cf3645360e21b855260048501612709565b038160007f00000000000000000000000000000000000000000000000000000000000000006001600160a01b03165af19081156107e257600091610d4e575b508060801d90600091600082600f0b13600014610d2957506001600160801b039150165b80610a94575b806108dd565b600484015491949160081c60ff1615610d175760405163095ea7b360e01b81527f00000000000000000000000000000000000000000000000000000000000000006001600160a01b03166004820152602481018290526020818060448101038160007f00000000000000000000000000000000000000000000000000000000000000006001600160a01b03165af180156107e257610ce8575b50602060405191610b3d836122d1565b6001600160a01b037f0000000000000000000000000000000000000000000000000000000000000000811684527f0000000000000000000000000000000000000000000000000000000000000000811683850152610bb8604080860191909152603c60608601527f000000000000000000000000000000000000000000000000000000000000000090911660808501525190610bd8826122ed565b600182528282015260006040820152604051923083850152828452610bfc84612309565b610c1a6040519485938493633cf3645360e21b855260048501612709565b038160007f00000000000000000000000000000000000000000000000000000000000000006001600160a01b03165af19081156107e257600091610cb5575b5080600192610c889260801d91600092600082600f0b13600014610c9057506001600160801b03169150612388565b935b90610a8e565b9050600081600f0b13610ca4575b50612388565b6001600160801b0316915087610c9e565b90506020813d602011610ce0575b81610cd060209383612325565b8101031261022357516001610c59565b3d9150610cc3565b610d099060203d602011610d10575b610d018183612325565b8101906126f1565b5085610b2d565b503d610cf7565b610d2390600192612388565b93610c8a565b9050600081600f0b13610d3d575b50610a88565b6001600160801b0391501685610d37565b90506020813d602011610d78575b81610d6960209383612325565b81010312610223575185610a64565b3d9150610d5c565b610d9690833d8511610d1057610d018183612325565b5087610953565b90506020813d602011610dc7575b81610db860209383612325565b810103126102235751866108d6565b3d9150610dab565b506001906108e3565b507f00000000000000000000000000000000000000000000000000000000000000006001600160a01b0316811461089e565b5091506107f9565b60405162461bcd60e51b815260206004820152601760248201527f446561646c696e6520686173206e6f74207061737365640000000000000000006044820152606490fd5b3461022357602080600319360112610223576001600160a01b039081610e7b612211565b1690816000526002815260016040600020015461104257816000526002815260ff60046040600020015460081c1615610ffe578160005260028152826040600020541692833303610fb9576040516370a0823160e01b8152306004820152907f0000000000000000000000000000000000000000000000000000000000000000168282602481845afa9182156107e257600092610f8a575b508115610f515790610f4881867f98bd2ae525cc9474d32fdaffa77ce3f0f853398fa21f00ca26db969c74abd92795946126ae565b604051908152a3005b60405162461bcd60e51b81526004810184905260116024820152704e6f20505955534420746f20636c61696d60781b6044820152606490fd5b9091508281813d8311610fb2575b610fa28183612325565b8101031261022357519085610f13565b503d610f98565b60405162461bcd60e51b815260048101839052601a60248201527f4f6e6c792062656e65666963696172792063616e20636c61696d0000000000006044820152606490fd5b6064906040519062461bcd60e51b82526004820152601c60248201527f41726b206e6f7420636f6e6669677572656420666f72205059555344000000006044820152fd5b6064906040519062461bcd60e51b825260048201526016602482015275105c9ac81b9bdd081e595d081b1a5c5d5a59185d195960521b6044820152fd5b34610223576000366003190112610223576040517f00000000000000000000000000000000000000000000000000000000000000006001600160a01b03168152602090f35b346102235760a0366003190112610223576110dd612211565b60443567ffffffffffffffff8111610223576110fd903690600401612260565b919060643590811515820361022357608435908115158203610223573360005260026020526001604060002001546113f7576001600160a01b038416156113a3576024351561134a5761115260243542612388565b906040519160c0830183811067ffffffffffffffff8211176107825760405260018060a01b03861683526020830152602435604083015267ffffffffffffffff8611610782578560051b604051966111ad6020830189612325565b8752602087019036818401116102235782915b818401831061133257505050506060810194855260808101921515835260a0810191151582523360005260026020526040806000209160018060a01b038151166001600160601b0360a01b845416178355602081015160018401550151600282015560038101945180519067ffffffffffffffff821161078257600160401b8211610782578654828855808310611309575b506020019560005260206000209560005b8281106112ec57866112a4878761128d6004890192511515839060ff801983541691151516179055565b51815461ff00191690151560081b61ff0016179055565b6112b060243542612388565b6040519081526001600160a01b039091169033907fd4c9fb4a0298b2717518a542bd4801ce0cb35fd35087636887f9e87ad8d75a3f90602090a3005b81516001600160a01b031681890155602090910190600101611263565b8760005282602060002091820191015b8181106113265750611252565b60008155600101611319565b6020809161133f8561223d565b8152019201916111c0565b60405162461bcd60e51b815260206004820152602b60248201527f446561646c696e65206475726174696f6e206d7573742062652067726561746560448201526a72207468616e207a65726f60a81b6064820152608490fd5b60405162461bcd60e51b815260206004820152602660248201527f42656e65666963696172792063616e6e6f7420626520746865207a65726f206160448201526564647265737360d01b6064820152608490fd5b60405162461bcd60e51b815260206004820152601b60248201527f4163636f756e7420616c726561647920696e697469616c697a656400000000006044820152606490fd5b3461022357602036600319011261022357602061145f61145a612211565b612574565b604051908152f35b346102235760403660031901126102235767ffffffffffffffff602435600435828211610223573660238301121561022357816004013583811161022357820191366024840111610223576001600160a01b03927f0000000000000000000000000000000000000000000000000000000000000000841633036115b6578160209103126102235760240135828116809103610223578160801d91600092600082600f0b1360001461159157506001600160801b031691505b8161155e575b5050506040516020810191818310908311176107825761155a9160405260008152604051918291602083526020830190612291565b0390f35b611589927f0000000000000000000000000000000000000000000000000000000000000000166126ae565b818080611525565b9050600081600f0b136115a5575b5061151f565b6001600160801b031691508461159f565b60405162461bcd60e51b815260206004820152601e60248201527f4f6e6c7920506f6f6c4d616e616765722063616e2063616c6c207468697300006044820152606490fd5b346102235760203660031901126102235760206001600160a01b038061161f612211565b166000526000825260406000205416604051908152f35b346102235760203660031901126102235760a06001600160a01b038061165a612211565b16600052600260205260ff604060002091825416916001810154906004600282015491015491604051948552602085015260408401528181161515606084015260081c1615156080820152f35b34610223576000366003190112610223576040517f00000000000000000000000000000000000000000000000000000000000000006001600160a01b03168152602090f35b3461022357604036600319011261022357602061145f61170a612211565b611712612227565b906124e1565b34610223576020806003193601126102235760043567ffffffffffffffff81116102235761174a903690600401612260565b909133600052600280825260019061176b60016040600020015415156123e1565b60005b8481106117e457505060405192808385018486525260408401949260005b8281106117bc57337fb90857f670e2787419d97e8ad1483239915b735fecc028adf074ef41c09d602c87890388a2005b909192828082969860018060a01b036117d48b61223d565b168152019701949392910161178c565b336000908152828552604090209394929360030190600581901b8701356001600160a01b038116810361022357825490600160401b82101561078257611833828895866118519501815561241d565b90919060018060a01b038084549260031b9316831b921b1916179055565b019392919361176e565b3461022357604036600319011261022357611874612211565b61187c612227565b9060018060a01b03809161189582600154163314612458565b1691821561193b57169081156118ec578060005260006020526040600020826001600160601b0360a01b8254161790557fa8abe0398416476db5b05737cd4da3b3cbde5012d978a6a6c3fd49d321753536600080a3005b60405162461bcd60e51b815260206004820152602160248201527f507269636520666565642063616e6e6f74206265207a65726f206164647265736044820152607360f81b6064820152608490fd5b60405162461bcd60e51b815260206004820152601c60248201527f546f6b656e2063616e6e6f74206265207a65726f2061646472657373000000006044820152606490fd5b3461022357602036600319011261022357611999612211565b600154906001600160a01b03906119b33383851614612458565b169081156119cb576001600160a01b03191617600155005b606460405162461bcd60e51b815260206004820152602060248201527f4e65772061646d696e2063616e6e6f74206265207a65726f20616464726573736044820152fd5b3461022357602036600319011261022357611a28612251565b336000526002602052611a4460016040600020015415156123e1565b336000526002602052611a6a8160046040600020019060ff801983541691151516179055565b60405190151581527fbd4ccd3b9f23b35b213567ff600237372c8368625bc58d2e36225cc085e03c6d60203392a2005b3461022357602036600319011261022357611ab3612251565b336000526002602052611acf60016040600020015415156123e1565b336000908152600260205260409020600401805461ff00191682151560081b61ff001617905560405190151581527f94c87bc2c95c8b72cf0437c0239fc65c2e8a5569f7ffaf72ac05f074e65c536160203392a2005b3461022357602036600319011261022357611b3e612211565b336000526002602052600190611b5d60016040600020015415156123e1565b3360005260026020528160038060406000200160009360018060a01b03809116955b611bb3575b856040519081527f08eac65c9901be8390f0cf78f2ca8d86e706341713377dca39b0472fc07cdd0560203392a2005b815480861015611c53578682611bc9888661241d565b905490871b1c1614611be057508380950194611b7f565b929491935091600019918282019182116107985761183384611c05611c13948861241d565b905490891b1c16918661241d565b82548015611c3d570192611c27848461241d565b81939154921b1b19169055558180808080611b84565b634e487b7160e01b600052603160045260246000fd5b50611b84565b34610223576000366003190112610223576040517f00000000000000000000000000000000000000000000000000000000000000006001600160a01b03168152602090f35b3461022357604036600319011261022357610100611cba612211565b611cc2612227565b60018060a01b038092166000526003602052816040600020911660005260205260406000208181541691600182015491600281015460038201546004830154916006600585015494015495604051978852602088015260408701526060860152608085015260ff8116151560a085015260081c1660c083015260e0820152f35b3461022357600036600319011261022357336000526002602052611d6f6001604060002001541515612395565b336000526002602052611d8a60026040600020015442612388565b336000526002602052806001604060002001556040519081527ff1a463082eff5f74a481d3abd6fc308d976449c50289c0564e946069cb7d880560203392a2005b346102235760203660031901126102235760206001600160a01b0380611def612211565b1660005260008252604060002054161515604051908152f35b3461022357604036600319011261022357611e21612211565b611e29612227565b60018060a01b0380831690816000526020936003855281604060002094169384600052855260406000206005810195865492611e6760ff8516612347565b611e7a6003840154600485015490612388565b421061209e57856000526002825260ff60046040600020015460081c1660001461207657847f0000000000000000000000000000000000000000000000000000000000000000945b60081c1615611fca57506040516370a0823160e01b815230600482015281816024818a5afa9081156107e257600091611f75575b509084611f2f60609594937f60fe5c7ed4fe46663ec53f1fbd38f2c85063cea69e1425471df15414dea59aa5978b5460081c168a6126ae565b8660005260028252611f52600682604060002054169401948483875492166126ae565b885460081c169254906040519384528301526040820152a35b805460ff19169055005b93929180915084813d8311611fc3575b611f8f8183612325565b81010312610223579251919290917f60fe5c7ed4fe46663ec53f1fbd38f2c85063cea69e1425471df15414dea59aa5611ef6565b503d611f85565b6040516370a0823160e01b8152306004820152945090925090508183602481885afa9283156107e257600093612043575b509061202b7f60fe5c7ed4fe46663ec53f1fbd38f2c85063cea69e1425471df15414dea59aa593606093876126ae565b600060405191818352820152836040820152a3611f6b565b9250908083813d831161206f575b61205b8183612325565b81010312610223579151919061202b611ffb565b503d612051565b847f000000000000000000000000000000000000000000000000000000000000000094611ec2565b60405162461bcd60e51b8152600481018390526011602482015270105d58dd1a5bdb881b9bdd08195b991959607a1b6044820152606490fd5b3461022357602080600319360112610223576001600160a01b03806120fa612211565b166000526002825260406000208181541691600180830154936002840154956004600386019501549660405190818388549182815201908198600052846000209060005b8181106121ba5750505082612154910383612325565b6040519760c0890194895283890152604088015260c060608801525180925260e0860194936000905b8382106121a35787808860ff8c8181161515608085015260081c16151560a08301520390f35b85518116875295820195948201949084019061217d565b82548a1684529286019291880191880161213e565b34610223576000366003190112610223577f00000000000000000000000000000000000000000000000000000000000000006001600160a01b03168152602090f35b600435906001600160a01b038216820361022357565b602435906001600160a01b038216820361022357565b35906001600160a01b038216820361022357565b60043590811515820361022357565b9181601f840112156102235782359167ffffffffffffffff8311610223576020808501948460051b01011161022357565b919082519283825260005b8481106122bd575050826000602080949584010152601f8019910116010190565b60208183018101518483018201520161229c565b60a0810190811067ffffffffffffffff82111761078257604052565b6060810190811067ffffffffffffffff82111761078257604052565b6040810190811067ffffffffffffffff82111761078257604052565b90601f8019910116810190811067ffffffffffffffff82111761078257604052565b1561234e57565b60405162461bcd60e51b815260206004820152601260248201527141756374696f6e206e6f742061637469766560701b6044820152606490fd5b9190820180921161079857565b1561239c57565b60405162461bcd60e51b815260206004820152601760248201527f4163636f756e74206e6f7420696e697469616c697a65640000000000000000006044820152606490fd5b156123e857565b60405162461bcd60e51b815260206004820152600d60248201526c105c9ac81b9bdd08189d5a5b1d609a1b6044820152606490fd5b80548210156124355760005260206000200190600090565b634e487b7160e01b600052603260045260246000fd5b9190820391821161079857565b1561245f57565b60405162461bcd60e51b815260206004820152602160248201527f4f6e6c792061646d696e2063616e2063616c6c20746869732066756e6374696f6044820152603760f91b6064820152608490fd5b8181029291811591840414171561079857565b81156124cb570490565b634e487b7160e01b600052601260045260246000fd5b60018060a01b03809116600052600360205260406000209116600052602052604060002061251560ff600583015416612347565b61252360038201544261244b565b90600481015491828110156125535761255092610301610306926102fc600260018701549601548661244b565b90565b5060029150015490565b519069ffffffffffffffffffff8216820361022357565b60018060a01b0380600092168252816020526040822054169081156126695760a060049260405193848092633fabe5a360e21b82525afa91821561265c578192612609575b508113156125c45790565b60405162461bcd60e51b815260206004820152601960248201527f496e76616c69642070726963652066726f6d206f7261636c65000000000000006044820152606490fd5b90915060a0813d60a011612654575b8161262560a09383612325565b81010312612650576126368161255d565b5061264860806020830151920161255d565b5090386125b9565b5080fd5b3d9150612618565b50604051903d90823e3d90fd5b60405162461bcd60e51b815260206004820152601c60248201527f50726963652066656564206e6f742073657420666f7220746f6b656e000000006044820152606490fd5b60405163a9059cbb60e01b60208201526001600160a01b039290921660248301526044808301939093529181526126ef916126ea606483612325565b6127bf565b565b90816020910312610223575180151581036102235790565b6080604061255095946101209460018060a01b0393818580935116875282602082015116602088015262ffffff858201511685880152606081015160020b606088015201511660808501528051151560a0850152602081015160c085015201511660e0820152816101008201520190612291565b6040516323b872dd60e01b60208201526001600160a01b0392831660248201529290911660448301526064808301939093529181526126ef916126ea826122d1565b906000602091828151910182855af1156107e2576000513d61281257506001600160a01b0381163b155b6127f05750565b604051635274afe760e01b81526001600160a01b039091166004820152602490fd5b600114156127e956fea2646970667358221220b6b04ae3b0147e95c57d815b5a84f6f579553a3c99eaf88d61f1f1f64afe123e64736f6c63430008180033","opcodes":"PUSH2 0x100 CALLVALUE PUSH3 0x162 JUMPI PUSH1 0x1F PUSH3 0x29E4 CODESIZE DUP2 SWAP1 SUB SWAP2 DUP3 ADD PUSH1 0x1F NOT AND DUP4 ADD SWAP2 PUSH1 0x1 PUSH1 0x1 PUSH1 0x40 SHL SUB DUP4 GT DUP5 DUP5 LT OR PUSH3 0x167 JUMPI DUP1 DUP5 SWAP3 PUSH1 0x80 SWAP5 PUSH1 0x40 MSTORE DUP4 CODECOPY DUP2 ADD SUB SLT PUSH3 0x162 JUMPI DUP1 MLOAD SWAP1 PUSH1 0x1 PUSH1 0x1 PUSH1 0xA0 SHL SUB DUP3 AND DUP3 SUB PUSH3 0x162 JUMPI PUSH3 0x65 PUSH1 0x20 DUP3 ADD PUSH3 0x17D JUMP JUMPDEST PUSH3 0x81 PUSH1 0x60 PUSH3 0x79 PUSH1 0x40 DUP6 ADD PUSH3 0x17D JUMP JUMPDEST SWAP4 ADD PUSH3 0x17D JUMP JUMPDEST PUSH1 0x80 SWAP4 SWAP1 SWAP4 MSTORE PUSH1 0xA0 MSTORE PUSH1 0xC0 MSTORE PUSH1 0xE0 MSTORE PUSH1 0x1 DUP1 SLOAD PUSH1 0x1 PUSH1 0x1 PUSH1 0xA0 SHL SUB NOT AND CALLER OR SWAP1 SSTORE PUSH1 0x40 MLOAD PUSH2 0x2851 SWAP1 DUP2 PUSH3 0x193 DUP3 CODECOPY PUSH1 0x80 MLOAD DUP2 DUP2 DUP2 PUSH2 0x90C ADD MSTORE DUP2 DUP2 PUSH2 0xA2B ADD MSTORE DUP2 DUP2 PUSH2 0xAB6 ADD MSTORE DUP2 DUP2 PUSH2 0xC20 ADD MSTORE DUP2 DUP2 PUSH2 0x1095 ADD MSTORE PUSH2 0x14BD ADD MSTORE PUSH1 0xA0 MLOAD DUP2 DUP2 DUP2 PUSH2 0x3ED ADD MSTORE DUP2 DUP2 PUSH2 0x551 ADD MSTORE DUP2 DUP2 PUSH2 0x875 ADD MSTORE DUP2 DUP2 PUSH2 0x96D ADD MSTORE DUP2 DUP2 PUSH2 0xAF8 ADD MSTORE DUP2 DUP2 PUSH2 0xB47 ADD MSTORE DUP2 DUP2 PUSH2 0x1564 ADD MSTORE DUP2 DUP2 PUSH2 0x2079 ADD MSTORE PUSH2 0x21E2 ADD MSTORE PUSH1 0xC0 MLOAD DUP2 DUP2 DUP2 PUSH2 0x364 ADD MSTORE DUP2 DUP2 PUSH2 0xB6C ADD MSTORE DUP2 DUP2 PUSH2 0xDDB ADD MSTORE DUP2 DUP2 PUSH2 0xEDC ADD MSTORE DUP2 DUP2 PUSH2 0x16BD ADD MSTORE PUSH2 0x1EA1 ADD MSTORE PUSH1 0xE0 MLOAD DUP2 DUP2 DUP2 PUSH2 0x9A7 ADD MSTORE DUP2 DUP2 PUSH2 0xBA6 ADD MSTORE PUSH2 0x1C6F ADD MSTORE RETURN JUMPDEST PUSH1 0x0 DUP1 REVERT JUMPDEST PUSH4 0x4E487B71 PUSH1 0xE0 SHL PUSH1 0x0 MSTORE PUSH1 0x41 PUSH1 0x4 MSTORE PUSH1 0x24 PUSH1 0x0 REVERT JUMPDEST MLOAD SWAP1 PUSH1 0x1 PUSH1 0x1 PUSH1 0xA0 SHL SUB DUP3 AND DUP3 SUB PUSH3 0x162 JUMPI JUMP INVALID PUSH1 0x80 DUP1 PUSH1 0x40 MSTORE PUSH1 0x4 CALLDATASIZE LT ISZERO PUSH2 0x13 JUMPI PUSH1 0x0 DUP1 REVERT JUMPDEST PUSH1 0x0 CALLDATALOAD PUSH1 0xE0 SHR SWAP1 DUP2 PUSH4 0x2D45457 EQ PUSH2 0x21CF JUMPI POP DUP1 PUSH4 0x5688C1C EQ PUSH2 0x20D7 JUMPI DUP1 PUSH4 0xA50960D EQ PUSH2 0x1E08 JUMPI DUP1 PUSH4 0xB7983A2 EQ PUSH2 0x1DCB JUMPI DUP1 PUSH4 0xFE23DA9 EQ PUSH2 0x1D42 JUMPI DUP1 PUSH4 0x18242941 EQ PUSH2 0x1C9E JUMPI DUP1 PUSH4 0x32A3CF96 EQ PUSH2 0x1C59 JUMPI DUP1 PUSH4 0x454D58D2 EQ PUSH2 0x1B25 JUMPI DUP1 PUSH4 0x500994C5 EQ PUSH2 0x1A9A JUMPI DUP1 PUSH4 0x642E084E EQ PUSH2 0x1A0F JUMPI DUP1 PUSH4 0x75829DEF EQ PUSH2 0x1980 JUMPI DUP1 PUSH4 0x76E11286 EQ PUSH2 0x185B JUMPI DUP1 PUSH4 0x79000013 EQ PUSH2 0x1718 JUMPI DUP1 PUSH4 0x7A08D730 EQ PUSH2 0x16EC JUMPI DUP1 PUSH4 0x7E923B72 EQ PUSH2 0x16A7 JUMPI DUP1 PUSH4 0x88B21872 EQ PUSH2 0x1636 JUMPI DUP1 PUSH4 0x9DCB511A EQ PUSH2 0x15FB JUMPI DUP1 PUSH4 0xAFA9862A EQ PUSH2 0x1467 JUMPI DUP1 PUSH4 0xD02641A0 EQ PUSH2 0x143C JUMPI DUP1 PUSH4 0xDAA12A36 EQ PUSH2 0x10C4 JUMPI DUP1 PUSH4 0xDC4C90D3 EQ PUSH2 0x107F JUMPI DUP1 PUSH4 0xDF184548 EQ PUSH2 0xE57 JUMPI DUP1 PUSH4 0xF2511BB1 EQ PUSH2 0x4CA JUMPI DUP1 PUSH4 0xF76E3696 EQ PUSH2 0x251 JUMPI DUP1 PUSH4 0xF851A440 EQ PUSH2 0x228 JUMPI PUSH4 0xFABB6A38 EQ PUSH2 0x13D JUMPI PUSH1 0x0 DUP1 REVERT JUMPDEST CALLVALUE PUSH2 0x223 JUMPI PUSH1 0x20 DUP1 PUSH1 0x3 NOT CALLDATASIZE ADD SLT PUSH2 0x223 JUMPI PUSH1 0x4 CALLDATALOAD SWAP1 CALLER PUSH1 0x0 MSTORE PUSH1 0x2 DUP2 MSTORE PUSH2 0x16E PUSH1 0x1 PUSH1 0x40 PUSH1 0x0 KECCAK256 ADD SLOAD ISZERO ISZERO PUSH2 0x23E1 JUMP JUMPDEST DUP2 ISZERO PUSH2 0x1D4 JUMPI CALLER PUSH1 0x0 MSTORE PUSH1 0x2 DUP2 MSTORE DUP2 PUSH1 0x2 PUSH1 0x40 PUSH1 0x0 KECCAK256 ADD SSTORE PUSH2 0x190 DUP3 TIMESTAMP PUSH2 0x2388 JUMP JUMPDEST SWAP1 CALLER PUSH1 0x0 MSTORE PUSH1 0x2 DUP2 MSTORE DUP2 PUSH1 0x1 PUSH1 0x40 PUSH1 0x0 KECCAK256 ADD SSTORE PUSH1 0x40 MLOAD SWAP3 DUP4 MSTORE DUP3 ADD MSTORE PUSH32 0x270517E45D27F999FAEF5E16A3159117C83577723363227C5901CB52E315D868 PUSH1 0x40 CALLER SWAP3 LOG2 STOP JUMPDEST PUSH1 0x84 SWAP1 PUSH1 0x40 MLOAD SWAP1 PUSH3 0x461BCD PUSH1 0xE5 SHL DUP3 MSTORE PUSH1 0x4 DUP3 ADD MSTORE PUSH1 0x22 PUSH1 0x24 DUP3 ADD MSTORE PUSH32 0x4475726174696F6E206D7573742062652067726561746572207468616E207A65 PUSH1 0x44 DUP3 ADD MSTORE PUSH2 0x726F PUSH1 0xF0 SHL PUSH1 0x64 DUP3 ADD MSTORE REVERT JUMPDEST PUSH1 0x0 DUP1 REVERT JUMPDEST CALLVALUE PUSH2 0x223 JUMPI PUSH1 0x0 CALLDATASIZE PUSH1 0x3 NOT ADD SLT PUSH2 0x223 JUMPI PUSH1 0x1 SLOAD PUSH1 0x40 MLOAD PUSH1 0x1 PUSH1 0x1 PUSH1 0xA0 SHL SUB SWAP1 SWAP2 AND DUP2 MSTORE PUSH1 0x20 SWAP1 RETURN JUMPDEST CALLVALUE PUSH2 0x223 JUMPI PUSH1 0x60 CALLDATASIZE PUSH1 0x3 NOT ADD SLT PUSH2 0x223 JUMPI PUSH2 0x26A PUSH2 0x2211 JUMP JUMPDEST PUSH2 0x272 PUSH2 0x2227 JUMP JUMPDEST SWAP1 PUSH1 0x44 CALLDATALOAD PUSH1 0x1 DUP1 PUSH1 0xA0 SHL SUB DUP1 SWAP3 AND SWAP2 DUP3 PUSH1 0x0 MSTORE PUSH1 0x20 SWAP2 PUSH1 0x3 DUP4 MSTORE DUP2 PUSH1 0x40 PUSH1 0x0 KECCAK256 SWAP6 AND SWAP5 DUP6 PUSH1 0x0 MSTORE DUP4 MSTORE PUSH1 0x40 PUSH1 0x0 KECCAK256 PUSH1 0x5 DUP2 ADD PUSH2 0x2B1 PUSH1 0xFF DUP3 SLOAD AND PUSH2 0x2347 JUMP JUMPDEST PUSH1 0x3 DUP3 ADD SLOAD PUSH1 0x4 DUP4 ADD SLOAD SWAP1 PUSH2 0x2C6 DUP3 DUP3 PUSH2 0x2388 JUMP JUMPDEST TIMESTAMP LT ISZERO PUSH2 0x495 JUMPI DUP5 ISZERO PUSH2 0x444 JUMPI SWAP1 PUSH2 0x306 PUSH2 0x2E4 PUSH2 0x30C SWAP4 TIMESTAMP PUSH2 0x244B JUMP JUMPDEST SWAP2 PUSH2 0x301 PUSH1 0x1 DUP8 ADD SLOAD SWAP4 PUSH2 0x2FC PUSH1 0x2 DUP10 ADD SLOAD DUP7 PUSH2 0x244B JUMP JUMPDEST PUSH2 0x24AE JUMP JUMPDEST PUSH2 0x24C1 JUMP JUMPDEST SWAP1 PUSH2 0x244B JUMP JUMPDEST SWAP4 DUP5 DUP5 LT PUSH2 0x411 JUMPI SWAP3 PUSH1 0x6 PUSH1 0x60 SWAP6 SWAP4 PUSH2 0x3C1 DUP4 SWAP5 PUSH32 0x703F9D09ECB9C1CB479797AC961A23F831480452F96FB5CDFE420B352742A464 SWAP10 SWAP8 DUP12 PUSH1 0x0 MSTORE PUSH1 0x2 DUP10 MSTORE PUSH1 0xFF PUSH1 0x4 PUSH1 0x40 PUSH1 0x0 KECCAK256 ADD SLOAD PUSH1 0x8 SHR AND PUSH1 0x0 EQ PUSH2 0x3EA JUMPI DUP1 PUSH32 0x0 JUMPDEST AND SWAP1 PUSH2 0x392 DUP8 ADDRESS CALLER DUP6 PUSH2 0x277D JUMP JUMPDEST DUP3 SLOAD PUSH1 0x8 SHR AND SWAP1 DUP2 PUSH2 0x3D5 JUMPI JUMPDEST POP POP DUP1 SLOAD PUSH2 0x100 PUSH1 0x1 PUSH1 0xA8 SHL SUB NOT AND CALLER PUSH1 0x8 SHL PUSH2 0x100 PUSH1 0x1 PUSH1 0xA8 SHL SUB AND OR SWAP1 SSTORE JUMP JUMPDEST ADD SSTORE PUSH1 0x40 MLOAD SWAP3 CALLER DUP5 MSTORE DUP4 ADD MSTORE PUSH1 0x40 DUP3 ADD MSTORE LOG3 STOP JUMPDEST PUSH2 0x3E3 SWAP2 DUP7 DUP7 ADD SLOAD SWAP2 PUSH2 0x26AE JUMP JUMPDEST DUP13 DUP1 PUSH2 0x39F JUMP JUMPDEST DUP1 PUSH32 0x0 PUSH2 0x384 JUMP JUMPDEST PUSH1 0x40 MLOAD PUSH3 0x461BCD PUSH1 0xE5 SHL DUP2 MSTORE PUSH1 0x4 DUP2 ADD DUP8 SWAP1 MSTORE PUSH1 0xB PUSH1 0x24 DUP3 ADD MSTORE PUSH11 0x42696420746F6F206C6F77 PUSH1 0xA8 SHL PUSH1 0x44 DUP3 ADD MSTORE PUSH1 0x64 SWAP1 REVERT JUMPDEST PUSH1 0x40 MLOAD PUSH3 0x461BCD PUSH1 0xE5 SHL DUP2 MSTORE PUSH1 0x4 DUP2 ADD DUP9 SWAP1 MSTORE PUSH1 0x24 DUP1 DUP3 ADD MSTORE PUSH32 0x42696420616D6F756E74206D7573742062652067726561746572207468616E20 PUSH1 0x44 DUP3 ADD MSTORE PUSH4 0x7A65726F PUSH1 0xE0 SHL PUSH1 0x64 DUP3 ADD MSTORE PUSH1 0x84 SWAP1 REVERT JUMPDEST PUSH1 0x40 MLOAD PUSH3 0x461BCD PUSH1 0xE5 SHL DUP2 MSTORE PUSH1 0x4 DUP2 ADD DUP9 SWAP1 MSTORE PUSH1 0xD PUSH1 0x24 DUP3 ADD MSTORE PUSH13 0x105D58DD1A5BDB88195B991959 PUSH1 0x9A SHL PUSH1 0x44 DUP3 ADD MSTORE PUSH1 0x64 SWAP1 REVERT JUMPDEST CALLVALUE PUSH2 0x223 JUMPI PUSH1 0x20 CALLDATASIZE PUSH1 0x3 NOT ADD SLT PUSH2 0x223 JUMPI PUSH2 0x4E3 PUSH2 0x2211 JUMP JUMPDEST PUSH1 0x1 PUSH1 0x1 PUSH1 0xA0 SHL SUB DUP2 AND PUSH1 0x0 SWAP1 DUP2 MSTORE PUSH1 0x2 PUSH1 0x20 MSTORE PUSH1 0x40 SWAP1 KECCAK256 PUSH1 0x1 DUP2 ADD SLOAD PUSH2 0x50B DUP2 ISZERO ISZERO PUSH2 0x2395 JUMP JUMPDEST TIMESTAMP LT PUSH2 0xE12 JUMPI PUSH1 0x4 DUP2 ADD SLOAD PUSH1 0xFF AND ISZERO PUSH2 0x840 JUMPI PUSH1 0x0 JUMPDEST PUSH1 0x3 DUP3 ADD SLOAD DUP2 LT ISZERO PUSH2 0x7F7 JUMPI PUSH2 0x53A DUP2 PUSH1 0x3 DUP5 ADD PUSH2 0x241D JUMP JUMPDEST SWAP1 SLOAD PUSH1 0x1 PUSH1 0x1 PUSH1 0xA0 SHL SUB PUSH1 0x3 SWAP3 SWAP1 SWAP3 SHL SHR DUP2 AND SWAP2 SWAP1 PUSH32 0x0 AND DUP3 EQ PUSH2 0x7EE JUMPI PUSH1 0x40 MLOAD PUSH4 0x70A08231 PUSH1 0xE0 SHL DUP2 MSTORE PUSH1 0x1 PUSH1 0x1 PUSH1 0xA0 SHL SUB DUP6 AND PUSH1 0x4 DUP3 ADD MSTORE SWAP2 PUSH1 0x20 DUP4 PUSH1 0x24 DUP2 DUP5 GAS STATICCALL SWAP3 DUP4 ISZERO PUSH2 0x7E2 JUMPI PUSH1 0x0 SWAP4 PUSH2 0x7AE JUMPI JUMPDEST POP DUP3 PUSH2 0x5BF JUMPI JUMPDEST POP PUSH1 0x1 SWAP2 POP JUMPDEST ADD PUSH2 0x521 JUMP JUMPDEST PUSH4 0x5F5E100 PUSH2 0x5D6 PUSH2 0x5D0 DUP4 PUSH2 0x2574 JUMP JUMPDEST DUP6 PUSH2 0x24AE JUMP JUMPDEST DIV DUP1 ISZERO SWAP1 DUP1 DUP1 DIV PUSH1 0x1 EQ DUP3 OR ISZERO PUSH2 0x798 JUMPI PUSH2 0x5F5 PUSH2 0x3E8 DUP3 DIV DUP3 PUSH2 0x2388 JUMP JUMPDEST SWAP2 PUSH1 0xA SWAP1 DUP3 DUP3 DUP2 MUL DIV DUP3 EQ OR ISZERO PUSH2 0x798 JUMPI DUP2 PUSH1 0x64 PUSH2 0x619 SWAP3 PUSH2 0x622 SWAP5 MUL DIV SWAP1 PUSH2 0x244B JUMP JUMPDEST SWAP5 ADDRESS DUP9 DUP6 PUSH2 0x277D JUMP JUMPDEST PUSH1 0x40 MLOAD SWAP4 DUP5 PUSH2 0x100 DUP2 ADD LT PUSH8 0xFFFFFFFFFFFFFFFF PUSH2 0x100 DUP8 ADD GT OR PUSH2 0x782 JUMPI DUP5 PUSH2 0x100 PUSH1 0x1 SWAP7 ADD PUSH1 0x40 MSTORE DUP4 DUP2 MSTORE DUP3 PUSH1 0x20 DUP3 ADD MSTORE DUP2 PUSH1 0x40 DUP3 ADD MSTORE TIMESTAMP PUSH1 0x60 DUP3 ADD MSTORE PUSH2 0xE10 PUSH1 0x80 DUP3 ADD MSTORE DUP6 PUSH1 0xA0 DUP3 ADD MSTORE PUSH1 0x0 PUSH1 0xC0 DUP3 ADD MSTORE PUSH1 0x0 PUSH1 0xE0 DUP3 ADD MSTORE DUP6 DUP1 PUSH1 0xA0 SHL SUB DUP9 AND PUSH1 0x0 MSTORE PUSH1 0x3 PUSH1 0x20 MSTORE PUSH1 0x40 PUSH1 0x0 KECCAK256 DUP5 PUSH1 0x0 MSTORE PUSH1 0x20 MSTORE PUSH1 0x6 PUSH1 0xE0 PUSH1 0x40 PUSH1 0x0 KECCAK256 SWAP3 DUP9 DUP1 PUSH1 0xA0 SHL SUB DUP2 MLOAD AND PUSH1 0x1 PUSH1 0x1 PUSH1 0x60 SHL SUB PUSH1 0xA0 SHL DUP6 SLOAD AND OR DUP5 SSTORE PUSH1 0x20 DUP2 ADD MLOAD DUP10 DUP6 ADD SSTORE PUSH1 0x40 DUP2 ADD MLOAD PUSH1 0x2 DUP6 ADD SSTORE PUSH1 0x60 DUP2 ADD MLOAD PUSH1 0x3 DUP6 ADD SSTORE PUSH1 0x80 DUP2 ADD MLOAD PUSH1 0x4 DUP6 ADD SSTORE PUSH2 0x737 PUSH1 0x5 DUP6 ADD PUSH2 0x707 PUSH1 0xA0 DUP5 ADD MLOAD ISZERO ISZERO DUP3 SWAP1 PUSH1 0xFF DUP1 NOT DUP4 SLOAD AND SWAP2 ISZERO ISZERO AND OR SWAP1 SSTORE JUMP JUMPDEST PUSH1 0xC0 DUP4 ADD MLOAD DUP2 SLOAD PUSH2 0x100 PUSH1 0x1 PUSH1 0xA8 SHL SUB NOT AND PUSH1 0xA0 DUP14 SWAP1 SHL DUP14 SWAP1 SUB SWAP2 SWAP1 SWAP2 AND PUSH1 0x8 SHL PUSH2 0x100 PUSH1 0x1 PUSH1 0xA8 SHL SUB AND OR SWAP1 SSTORE JUMP JUMPDEST ADD MLOAD SWAP2 ADD SSTORE PUSH1 0x40 MLOAD SWAP2 DUP3 MSTORE PUSH1 0x20 DUP3 ADD MSTORE PUSH2 0xE10 PUSH1 0x40 DUP3 ADD MSTORE PUSH32 0x39A3045328465C82468E6E1DC742164B5A9097C34CF56EE021A8431685C52DBE PUSH1 0x60 DUP6 DUP1 PUSH1 0xA0 SHL SUB DUP9 AND SWAP3 LOG3 DUP5 PUSH2 0x5B3 JUMP JUMPDEST PUSH4 0x4E487B71 PUSH1 0xE0 SHL PUSH1 0x0 MSTORE PUSH1 0x41 PUSH1 0x4 MSTORE PUSH1 0x24 PUSH1 0x0 REVERT JUMPDEST PUSH4 0x4E487B71 PUSH1 0xE0 SHL PUSH1 0x0 MSTORE PUSH1 0x11 PUSH1 0x4 MSTORE PUSH1 0x24 PUSH1 0x0 REVERT JUMPDEST SWAP1 SWAP3 POP PUSH1 0x20 DUP2 RETURNDATASIZE PUSH1 0x20 GT PUSH2 0x7DA JUMPI JUMPDEST DUP2 PUSH2 0x7CA PUSH1 0x20 SWAP4 DUP4 PUSH2 0x2325 JUMP JUMPDEST DUP2 ADD SUB SLT PUSH2 0x223 JUMPI MLOAD SWAP2 DUP6 PUSH2 0x5AC JUMP JUMPDEST RETURNDATASIZE SWAP2 POP PUSH2 0x7BD JUMP JUMPDEST PUSH1 0x40 MLOAD RETURNDATASIZE PUSH1 0x0 DUP3 RETURNDATACOPY RETURNDATASIZE SWAP1 REVERT JUMPDEST PUSH1 0x1 SWAP2 POP PUSH2 0x5B9 JUMP JUMPDEST POP JUMPDEST PUSH1 0x0 PUSH1 0x1 DUP3 ADD DUP2 SWAP1 SSTORE SWAP1 SLOAD PUSH1 0x40 MLOAD SWAP2 DUP3 MSTORE PUSH1 0x1 PUSH1 0x1 PUSH1 0xA0 SHL SUB SWAP1 DUP2 AND SWAP3 AND SWAP1 PUSH32 0xDE3F14CE4426137F4576388D16723795D5BF5E2F00597E0E8D63816A7342A1E1 SWAP1 PUSH1 0x20 SWAP1 LOG3 STOP JUMPDEST PUSH1 0x0 SWAP2 PUSH1 0x0 JUMPDEST PUSH1 0x3 DUP4 ADD SLOAD DUP2 LT ISZERO PUSH2 0xE0A JUMPI PUSH2 0x85F DUP2 PUSH1 0x3 DUP6 ADD PUSH2 0x241D JUMP JUMPDEST SWAP1 SLOAD PUSH1 0x1 PUSH1 0x1 PUSH1 0xA0 SHL SUB PUSH1 0x3 SWAP3 SWAP1 SWAP3 SHL SHR DUP2 AND SWAP1 PUSH32 0x0 AND DUP2 EQ DUP1 ISZERO PUSH2 0xDD8 JUMPI JUMPDEST PUSH2 0xDCF JUMPI PUSH1 0x40 MLOAD PUSH4 0x70A08231 PUSH1 0xE0 SHL DUP2 MSTORE PUSH1 0x1 PUSH1 0x1 PUSH1 0xA0 SHL SUB DUP5 AND PUSH1 0x4 DUP3 ADD MSTORE PUSH1 0x20 DUP2 PUSH1 0x24 DUP2 DUP6 GAS STATICCALL SWAP1 DUP2 ISZERO PUSH2 0x7E2 JUMPI PUSH1 0x0 SWAP2 PUSH2 0xD9D JUMPI JUMPDEST POP DUP1 PUSH2 0x8E9 JUMPI JUMPDEST POP POP PUSH1 0x1 SWAP1 JUMPDEST ADD PUSH2 0x846 JUMP JUMPDEST PUSH2 0x8F5 DUP2 ADDRESS DUP7 DUP6 PUSH2 0x277D JUMP JUMPDEST PUSH1 0x40 MLOAD PUSH4 0x95EA7B3 PUSH1 0xE0 SHL DUP2 MSTORE PUSH1 0x1 PUSH1 0x1 PUSH1 0xA0 SHL SUB PUSH32 0x0 AND PUSH1 0x4 DUP3 ADD MSTORE PUSH1 0x24 DUP2 ADD DUP3 SWAP1 MSTORE SWAP1 PUSH1 0x20 DUP3 PUSH1 0x44 DUP2 PUSH1 0x0 DUP8 GAS CALL SWAP2 DUP3 ISZERO PUSH2 0x7E2 JUMPI PUSH1 0x20 SWAP3 PUSH2 0xD80 JUMPI JUMPDEST POP PUSH1 0x40 MLOAD SWAP3 PUSH2 0x961 DUP5 PUSH2 0x22D1 JUMP JUMPDEST DUP4 MSTORE PUSH1 0x1 PUSH1 0x1 PUSH1 0xA0 SHL SUB PUSH32 0x0 DUP2 AND DUP4 DUP6 ADD MSTORE PUSH2 0xBB8 PUSH1 0x40 DUP1 DUP7 ADD SWAP2 SWAP1 SWAP2 MSTORE PUSH1 0x3C PUSH1 0x60 DUP7 ADD MSTORE PUSH32 0x0 SWAP1 SWAP2 AND PUSH1 0x80 DUP6 ADD MSTORE MLOAD SWAP1 PUSH2 0x9D9 DUP3 PUSH2 0x22ED JUMP JUMPDEST PUSH1 0x1 DUP3 MSTORE DUP3 DUP3 ADD MSTORE PUSH1 0x0 PUSH1 0x40 DUP3 ADD MSTORE PUSH1 0x1 DUP1 PUSH1 0xA0 SHL SUB DUP7 SLOAD AND SWAP3 PUSH1 0x40 MLOAD SWAP4 DUP4 DUP6 ADD MSTORE DUP3 DUP5 MSTORE PUSH2 0xA07 DUP5 PUSH2 0x2309 JUMP JUMPDEST PUSH2 0xA25 PUSH1 0x40 MLOAD SWAP5 DUP6 SWAP4 DUP5 SWAP4 PUSH4 0x3CF36453 PUSH1 0xE2 SHL DUP6 MSTORE PUSH1 0x4 DUP6 ADD PUSH2 0x2709 JUMP JUMPDEST SUB DUP2 PUSH1 0x0 PUSH32 0x0 PUSH1 0x1 PUSH1 0x1 PUSH1 0xA0 SHL SUB AND GAS CALL SWAP1 DUP2 ISZERO PUSH2 0x7E2 JUMPI PUSH1 0x0 SWAP2 PUSH2 0xD4E JUMPI JUMPDEST POP DUP1 PUSH1 0x80 SAR SWAP1 PUSH1 0x0 SWAP2 PUSH1 0x0 DUP3 PUSH1 0xF SIGNEXTEND SGT PUSH1 0x0 EQ PUSH2 0xD29 JUMPI POP PUSH1 0x1 PUSH1 0x1 PUSH1 0x80 SHL SUB SWAP2 POP AND JUMPDEST DUP1 PUSH2 0xA94 JUMPI JUMPDEST DUP1 PUSH2 0x8DD JUMP JUMPDEST PUSH1 0x4 DUP5 ADD SLOAD SWAP2 SWAP5 SWAP2 PUSH1 0x8 SHR PUSH1 0xFF AND ISZERO PUSH2 0xD17 JUMPI PUSH1 0x40 MLOAD PUSH4 0x95EA7B3 PUSH1 0xE0 SHL DUP2 MSTORE PUSH32 0x0 PUSH1 0x1 PUSH1 0x1 PUSH1 0xA0 SHL SUB AND PUSH1 0x4 DUP3 ADD MSTORE PUSH1 0x24 DUP2 ADD DUP3 SWAP1 MSTORE PUSH1 0x20 DUP2 DUP1 PUSH1 0x44 DUP2 ADD SUB DUP2 PUSH1 0x0 PUSH32 0x0 PUSH1 0x1 PUSH1 0x1 PUSH1 0xA0 SHL SUB AND GAS CALL DUP1 ISZERO PUSH2 0x7E2 JUMPI PUSH2 0xCE8 JUMPI JUMPDEST POP PUSH1 0x20 PUSH1 0x40 MLOAD SWAP2 PUSH2 0xB3D DUP4 PUSH2 0x22D1 JUMP JUMPDEST PUSH1 0x1 PUSH1 0x1 PUSH1 0xA0 SHL SUB PUSH32 0x0 DUP2 AND DUP5 MSTORE PUSH32 0x0 DUP2 AND DUP4 DUP6 ADD MSTORE PUSH2 0xBB8 PUSH1 0x40 DUP1 DUP7 ADD SWAP2 SWAP1 SWAP2 MSTORE PUSH1 0x3C PUSH1 0x60 DUP7 ADD MSTORE PUSH32 0x0 SWAP1 SWAP2 AND PUSH1 0x80 DUP6 ADD MSTORE MLOAD SWAP1 PUSH2 0xBD8 DUP3 PUSH2 0x22ED JUMP JUMPDEST PUSH1 0x1 DUP3 MSTORE DUP3 DUP3 ADD MSTORE PUSH1 0x0 PUSH1 0x40 DUP3 ADD MSTORE PUSH1 0x40 MLOAD SWAP3 ADDRESS DUP4 DUP6 ADD MSTORE DUP3 DUP5 MSTORE PUSH2 0xBFC DUP5 PUSH2 0x2309 JUMP JUMPDEST PUSH2 0xC1A PUSH1 0x40 MLOAD SWAP5 DUP6 SWAP4 DUP5 SWAP4 PUSH4 0x3CF36453 PUSH1 0xE2 SHL DUP6 MSTORE PUSH1 0x4 DUP6 ADD PUSH2 0x2709 JUMP JUMPDEST SUB DUP2 PUSH1 0x0 PUSH32 0x0 PUSH1 0x1 PUSH1 0x1 PUSH1 0xA0 SHL SUB AND GAS CALL SWAP1 DUP2 ISZERO PUSH2 0x7E2 JUMPI PUSH1 0x0 SWAP2 PUSH2 0xCB5 JUMPI JUMPDEST POP DUP1 PUSH1 0x1 SWAP3 PUSH2 0xC88 SWAP3 PUSH1 0x80 SAR SWAP2 PUSH1 0x0 SWAP3 PUSH1 0x0 DUP3 PUSH1 0xF SIGNEXTEND SGT PUSH1 0x0 EQ PUSH2 0xC90 JUMPI POP PUSH1 0x1 PUSH1 0x1 PUSH1 0x80 SHL SUB AND SWAP2 POP PUSH2 0x2388 JUMP JUMPDEST SWAP4 JUMPDEST SWAP1 PUSH2 0xA8E JUMP JUMPDEST SWAP1 POP PUSH1 0x0 DUP2 PUSH1 0xF SIGNEXTEND SGT PUSH2 0xCA4 JUMPI JUMPDEST POP PUSH2 0x2388 JUMP JUMPDEST PUSH1 0x1 PUSH1 0x1 PUSH1 0x80 SHL SUB AND SWAP2 POP DUP8 PUSH2 0xC9E JUMP JUMPDEST SWAP1 POP PUSH1 0x20 DUP2 RETURNDATASIZE PUSH1 0x20 GT PUSH2 0xCE0 JUMPI JUMPDEST DUP2 PUSH2 0xCD0 PUSH1 0x20 SWAP4 DUP4 PUSH2 0x2325 JUMP JUMPDEST DUP2 ADD SUB SLT PUSH2 0x223 JUMPI MLOAD PUSH1 0x1 PUSH2 0xC59 JUMP JUMPDEST RETURNDATASIZE SWAP2 POP PUSH2 0xCC3 JUMP JUMPDEST PUSH2 0xD09 SWAP1 PUSH1 0x20 RETURNDATASIZE PUSH1 0x20 GT PUSH2 0xD10 JUMPI JUMPDEST PUSH2 0xD01 DUP2 DUP4 PUSH2 0x2325 JUMP JUMPDEST DUP2 ADD SWAP1 PUSH2 0x26F1 JUMP JUMPDEST POP DUP6 PUSH2 0xB2D JUMP JUMPDEST POP RETURNDATASIZE PUSH2 0xCF7 JUMP JUMPDEST PUSH2 0xD23 SWAP1 PUSH1 0x1 SWAP3 PUSH2 0x2388 JUMP JUMPDEST SWAP4 PUSH2 0xC8A JUMP JUMPDEST SWAP1 POP PUSH1 0x0 DUP2 PUSH1 0xF SIGNEXTEND SGT PUSH2 0xD3D JUMPI JUMPDEST POP PUSH2 0xA88 JUMP JUMPDEST PUSH1 0x1 PUSH1 0x1 PUSH1 0x80 SHL SUB SWAP2 POP AND DUP6 PUSH2 0xD37 JUMP JUMPDEST SWAP1 POP PUSH1 0x20 DUP2 RETURNDATASIZE PUSH1 0x20 GT PUSH2 0xD78 JUMPI JUMPDEST DUP2 PUSH2 0xD69 PUSH1 0x20 SWAP4 DUP4 PUSH2 0x2325 JUMP JUMPDEST DUP2 ADD SUB SLT PUSH2 0x223 JUMPI MLOAD DUP6 PUSH2 0xA64 JUMP JUMPDEST RETURNDATASIZE SWAP2 POP PUSH2 0xD5C JUMP JUMPDEST PUSH2 0xD96 SWAP1 DUP4 RETURNDATASIZE DUP6 GT PUSH2 0xD10 JUMPI PUSH2 0xD01 DUP2 DUP4 PUSH2 0x2325 JUMP JUMPDEST POP DUP8 PUSH2 0x953 JUMP JUMPDEST SWAP1 POP PUSH1 0x20 DUP2 RETURNDATASIZE PUSH1 0x20 GT PUSH2 0xDC7 JUMPI JUMPDEST DUP2 PUSH2 0xDB8 PUSH1 0x20 SWAP4 DUP4 PUSH2 0x2325 JUMP JUMPDEST DUP2 ADD SUB SLT PUSH2 0x223 JUMPI MLOAD DUP7 PUSH2 0x8D6 JUMP JUMPDEST RETURNDATASIZE SWAP2 POP PUSH2 0xDAB JUMP JUMPDEST POP PUSH1 0x1 SWAP1 PUSH2 0x8E3 JUMP JUMPDEST POP PUSH32 0x0 PUSH1 0x1 PUSH1 0x1 PUSH1 0xA0 SHL SUB AND DUP2 EQ PUSH2 0x89E JUMP JUMPDEST POP SWAP2 POP PUSH2 0x7F9 JUMP JUMPDEST PUSH1 0x40 MLOAD PUSH3 0x461BCD PUSH1 0xE5 SHL DUP2 MSTORE PUSH1 0x20 PUSH1 0x4 DUP3 ADD MSTORE PUSH1 0x17 PUSH1 0x24 DUP3 ADD MSTORE PUSH32 0x446561646C696E6520686173206E6F7420706173736564000000000000000000 PUSH1 0x44 DUP3 ADD MSTORE PUSH1 0x64 SWAP1 REVERT JUMPDEST CALLVALUE PUSH2 0x223 JUMPI PUSH1 0x20 DUP1 PUSH1 0x3 NOT CALLDATASIZE ADD SLT PUSH2 0x223 JUMPI PUSH1 0x1 PUSH1 0x1 PUSH1 0xA0 SHL SUB SWAP1 DUP2 PUSH2 0xE7B PUSH2 0x2211 JUMP JUMPDEST AND SWAP1 DUP2 PUSH1 0x0 MSTORE PUSH1 0x2 DUP2 MSTORE PUSH1 0x1 PUSH1 0x40 PUSH1 0x0 KECCAK256 ADD SLOAD PUSH2 0x1042 JUMPI DUP2 PUSH1 0x0 MSTORE PUSH1 0x2 DUP2 MSTORE PUSH1 0xFF PUSH1 0x4 PUSH1 0x40 PUSH1 0x0 KECCAK256 ADD SLOAD PUSH1 0x8 SHR AND ISZERO PUSH2 0xFFE JUMPI DUP2 PUSH1 0x0 MSTORE PUSH1 0x2 DUP2 MSTORE DUP3 PUSH1 0x40 PUSH1 0x0 KECCAK256 SLOAD AND SWAP3 DUP4 CALLER SUB PUSH2 0xFB9 JUMPI PUSH1 0x40 MLOAD PUSH4 0x70A08231 PUSH1 0xE0 SHL DUP2 MSTORE ADDRESS PUSH1 0x4 DUP3 ADD MSTORE SWAP1 PUSH32 0x0 AND DUP3 DUP3 PUSH1 0x24 DUP2 DUP5 GAS STATICCALL SWAP2 DUP3 ISZERO PUSH2 0x7E2 JUMPI PUSH1 0x0 SWAP3 PUSH2 0xF8A JUMPI JUMPDEST POP DUP2 ISZERO PUSH2 0xF51 JUMPI SWAP1 PUSH2 0xF48 DUP2 DUP7 PUSH32 0x98BD2AE525CC9474D32FDAFFA77CE3F0F853398FA21F00CA26DB969C74ABD927 SWAP6 SWAP5 PUSH2 0x26AE JUMP JUMPDEST PUSH1 0x40 MLOAD SWAP1 DUP2 MSTORE LOG3 STOP JUMPDEST PUSH1 0x40 MLOAD PUSH3 0x461BCD PUSH1 0xE5 SHL DUP2 MSTORE PUSH1 0x4 DUP2 ADD DUP5 SWAP1 MSTORE PUSH1 0x11 PUSH1 0x24 DUP3 ADD MSTORE PUSH17 0x4E6F20505955534420746F20636C61696D PUSH1 0x78 SHL PUSH1 0x44 DUP3 ADD MSTORE PUSH1 0x64 SWAP1 REVERT JUMPDEST SWAP1 SWAP2 POP DUP3 DUP2 DUP2 RETURNDATASIZE DUP4 GT PUSH2 0xFB2 JUMPI JUMPDEST PUSH2 0xFA2 DUP2 DUP4 PUSH2 0x2325 JUMP JUMPDEST DUP2 ADD SUB SLT PUSH2 0x223 JUMPI MLOAD SWAP1 DUP6 PUSH2 0xF13 JUMP JUMPDEST POP RETURNDATASIZE PUSH2 0xF98 JUMP JUMPDEST PUSH1 0x40 MLOAD PUSH3 0x461BCD PUSH1 0xE5 SHL DUP2 MSTORE PUSH1 0x4 DUP2 ADD DUP4 SWAP1 MSTORE PUSH1 0x1A PUSH1 0x24 DUP3 ADD MSTORE PUSH32 0x4F6E6C792062656E65666963696172792063616E20636C61696D000000000000 PUSH1 0x44 DUP3 ADD MSTORE PUSH1 0x64 SWAP1 REVERT JUMPDEST PUSH1 0x64 SWAP1 PUSH1 0x40 MLOAD SWAP1 PUSH3 0x461BCD PUSH1 0xE5 SHL DUP3 MSTORE PUSH1 0x4 DUP3 ADD MSTORE PUSH1 0x1C PUSH1 0x24 DUP3 ADD MSTORE PUSH32 0x41726B206E6F7420636F6E6669677572656420666F7220505955534400000000 PUSH1 0x44 DUP3 ADD MSTORE REVERT JUMPDEST PUSH1 0x64 SWAP1 PUSH1 0x40 MLOAD SWAP1 PUSH3 0x461BCD PUSH1 0xE5 SHL DUP3 MSTORE PUSH1 0x4 DUP3 ADD MSTORE PUSH1 0x16 PUSH1 0x24 DUP3 ADD MSTORE PUSH22 0x105C9AC81B9BDD081E595D081B1A5C5D5A59185D1959 PUSH1 0x52 SHL PUSH1 0x44 DUP3 ADD MSTORE REVERT JUMPDEST CALLVALUE PUSH2 0x223 JUMPI PUSH1 0x0 CALLDATASIZE PUSH1 0x3 NOT ADD SLT PUSH2 0x223 JUMPI PUSH1 0x40 MLOAD PUSH32 0x0 PUSH1 0x1 PUSH1 0x1 PUSH1 0xA0 SHL SUB AND DUP2 MSTORE PUSH1 0x20 SWAP1 RETURN JUMPDEST CALLVALUE PUSH2 0x223 JUMPI PUSH1 0xA0 CALLDATASIZE PUSH1 0x3 NOT ADD SLT PUSH2 0x223 JUMPI PUSH2 0x10DD PUSH2 0x2211 JUMP JUMPDEST PUSH1 0x44 CALLDATALOAD PUSH8 0xFFFFFFFFFFFFFFFF DUP2 GT PUSH2 0x223 JUMPI PUSH2 0x10FD SWAP1 CALLDATASIZE SWAP1 PUSH1 0x4 ADD PUSH2 0x2260 JUMP JUMPDEST SWAP2 SWAP1 PUSH1 0x64 CALLDATALOAD SWAP1 DUP2 ISZERO ISZERO DUP3 SUB PUSH2 0x223 JUMPI PUSH1 0x84 CALLDATALOAD SWAP1 DUP2 ISZERO ISZERO DUP3 SUB PUSH2 0x223 JUMPI CALLER PUSH1 0x0 MSTORE PUSH1 0x2 PUSH1 0x20 MSTORE PUSH1 0x1 PUSH1 0x40 PUSH1 0x0 KECCAK256 ADD SLOAD PUSH2 0x13F7 JUMPI PUSH1 0x1 PUSH1 0x1 PUSH1 0xA0 SHL SUB DUP5 AND ISZERO PUSH2 0x13A3 JUMPI PUSH1 0x24 CALLDATALOAD ISZERO PUSH2 0x134A JUMPI PUSH2 0x1152 PUSH1 0x24 CALLDATALOAD TIMESTAMP PUSH2 0x2388 JUMP JUMPDEST SWAP1 PUSH1 0x40 MLOAD SWAP2 PUSH1 0xC0 DUP4 ADD DUP4 DUP2 LT PUSH8 0xFFFFFFFFFFFFFFFF DUP3 GT OR PUSH2 0x782 JUMPI PUSH1 0x40 MSTORE PUSH1 0x1 DUP1 PUSH1 0xA0 SHL SUB DUP7 AND DUP4 MSTORE PUSH1 0x20 DUP4 ADD MSTORE PUSH1 0x24 CALLDATALOAD PUSH1 0x40 DUP4 ADD MSTORE PUSH8 0xFFFFFFFFFFFFFFFF DUP7 GT PUSH2 0x782 JUMPI DUP6 PUSH1 0x5 SHL PUSH1 0x40 MLOAD SWAP7 PUSH2 0x11AD PUSH1 0x20 DUP4 ADD DUP10 PUSH2 0x2325 JUMP JUMPDEST DUP8 MSTORE PUSH1 0x20 DUP8 ADD SWAP1 CALLDATASIZE DUP2 DUP5 ADD GT PUSH2 0x223 JUMPI DUP3 SWAP2 JUMPDEST DUP2 DUP5 ADD DUP4 LT PUSH2 0x1332 JUMPI POP POP POP POP PUSH1 0x60 DUP2 ADD SWAP5 DUP6 MSTORE PUSH1 0x80 DUP2 ADD SWAP3 ISZERO ISZERO DUP4 MSTORE PUSH1 0xA0 DUP2 ADD SWAP2 ISZERO ISZERO DUP3 MSTORE CALLER PUSH1 0x0 MSTORE PUSH1 0x2 PUSH1 0x20 MSTORE PUSH1 0x40 DUP1 PUSH1 0x0 KECCAK256 SWAP2 PUSH1 0x1 DUP1 PUSH1 0xA0 SHL SUB DUP2 MLOAD AND PUSH1 0x1 PUSH1 0x1 PUSH1 0x60 SHL SUB PUSH1 0xA0 SHL DUP5 SLOAD AND OR DUP4 SSTORE PUSH1 0x20 DUP2 ADD MLOAD PUSH1 0x1 DUP5 ADD SSTORE ADD MLOAD PUSH1 0x2 DUP3 ADD SSTORE PUSH1 0x3 DUP2 ADD SWAP5 MLOAD DUP1 MLOAD SWAP1 PUSH8 0xFFFFFFFFFFFFFFFF DUP3 GT PUSH2 0x782 JUMPI PUSH1 0x1 PUSH1 0x40 SHL DUP3 GT PUSH2 0x782 JUMPI DUP7 SLOAD DUP3 DUP9 SSTORE DUP1 DUP4 LT PUSH2 0x1309 JUMPI JUMPDEST POP PUSH1 0x20 ADD SWAP6 PUSH1 0x0 MSTORE PUSH1 0x20 PUSH1 0x0 KECCAK256 SWAP6 PUSH1 0x0 JUMPDEST DUP3 DUP2 LT PUSH2 0x12EC JUMPI DUP7 PUSH2 0x12A4 DUP8 DUP8 PUSH2 0x128D PUSH1 0x4 DUP10 ADD SWAP3 MLOAD ISZERO ISZERO DUP4 SWAP1 PUSH1 0xFF DUP1 NOT DUP4 SLOAD AND SWAP2 ISZERO ISZERO AND OR SWAP1 SSTORE JUMP JUMPDEST MLOAD DUP2 SLOAD PUSH2 0xFF00 NOT AND SWAP1 ISZERO ISZERO PUSH1 0x8 SHL PUSH2 0xFF00 AND OR SWAP1 SSTORE JUMP JUMPDEST PUSH2 0x12B0 PUSH1 0x24 CALLDATALOAD TIMESTAMP PUSH2 0x2388 JUMP JUMPDEST PUSH1 0x40 MLOAD SWAP1 DUP2 MSTORE PUSH1 0x1 PUSH1 0x1 PUSH1 0xA0 SHL SUB SWAP1 SWAP2 AND SWAP1 CALLER SWAP1 PUSH32 0xD4C9FB4A0298B2717518A542BD4801CE0CB35FD35087636887F9E87AD8D75A3F SWAP1 PUSH1 0x20 SWAP1 LOG3 STOP JUMPDEST DUP2 MLOAD PUSH1 0x1 PUSH1 0x1 PUSH1 0xA0 SHL SUB AND DUP2 DUP10 ADD SSTORE PUSH1 0x20 SWAP1 SWAP2 ADD SWAP1 PUSH1 0x1 ADD PUSH2 0x1263 JUMP JUMPDEST DUP8 PUSH1 0x0 MSTORE DUP3 PUSH1 0x20 PUSH1 0x0 KECCAK256 SWAP2 DUP3 ADD SWAP2 ADD JUMPDEST DUP2 DUP2 LT PUSH2 0x1326 JUMPI POP PUSH2 0x1252 JUMP JUMPDEST PUSH1 0x0 DUP2 SSTORE PUSH1 0x1 ADD PUSH2 0x1319 JUMP JUMPDEST PUSH1 0x20 DUP1 SWAP2 PUSH2 0x133F DUP6 PUSH2 0x223D JUMP JUMPDEST DUP2 MSTORE ADD SWAP3 ADD SWAP2 PUSH2 0x11C0 JUMP JUMPDEST PUSH1 0x40 MLOAD PUSH3 0x461BCD PUSH1 0xE5 SHL DUP2 MSTORE PUSH1 0x20 PUSH1 0x4 DUP3 ADD MSTORE PUSH1 0x2B PUSH1 0x24 DUP3 ADD MSTORE PUSH32 0x446561646C696E65206475726174696F6E206D75737420626520677265617465 PUSH1 0x44 DUP3 ADD MSTORE PUSH11 0x72207468616E207A65726F PUSH1 0xA8 SHL PUSH1 0x64 DUP3 ADD MSTORE PUSH1 0x84 SWAP1 REVERT JUMPDEST PUSH1 0x40 MLOAD PUSH3 0x461BCD PUSH1 0xE5 SHL DUP2 MSTORE PUSH1 0x20 PUSH1 0x4 DUP3 ADD MSTORE PUSH1 0x26 PUSH1 0x24 DUP3 ADD MSTORE PUSH32 0x42656E65666963696172792063616E6E6F7420626520746865207A65726F2061 PUSH1 0x44 DUP3 ADD MSTORE PUSH6 0x646472657373 PUSH1 0xD0 SHL PUSH1 0x64 DUP3 ADD MSTORE PUSH1 0x84 SWAP1 REVERT JUMPDEST PUSH1 0x40 MLOAD PUSH3 0x461BCD PUSH1 0xE5 SHL DUP2 MSTORE PUSH1 0x20 PUSH1 0x4 DUP3 ADD MSTORE PUSH1 0x1B PUSH1 0x24 DUP3 ADD MSTORE PUSH32 0x4163636F756E7420616C726561647920696E697469616C697A65640000000000 PUSH1 0x44 DUP3 ADD MSTORE PUSH1 0x64 SWAP1 REVERT JUMPDEST CALLVALUE PUSH2 0x223 JUMPI PUSH1 0x20 CALLDATASIZE PUSH1 0x3 NOT ADD SLT PUSH2 0x223 JUMPI PUSH1 0x20 PUSH2 0x145F PUSH2 0x145A PUSH2 0x2211 JUMP JUMPDEST PUSH2 0x2574 JUMP JUMPDEST PUSH1 0x40 MLOAD SWAP1 DUP2 MSTORE RETURN JUMPDEST CALLVALUE PUSH2 0x223 JUMPI PUSH1 0x40 CALLDATASIZE PUSH1 0x3 NOT ADD SLT PUSH2 0x223 JUMPI PUSH8 0xFFFFFFFFFFFFFFFF PUSH1 0x24 CALLDATALOAD PUSH1 0x4 CALLDATALOAD DUP3 DUP3 GT PUSH2 0x223 JUMPI CALLDATASIZE PUSH1 0x23 DUP4 ADD SLT ISZERO PUSH2 0x223 JUMPI DUP2 PUSH1 0x4 ADD CALLDATALOAD DUP4 DUP2 GT PUSH2 0x223 JUMPI DUP3 ADD SWAP2 CALLDATASIZE PUSH1 0x24 DUP5 ADD GT PUSH2 0x223 JUMPI PUSH1 0x1 PUSH1 0x1 PUSH1 0xA0 SHL SUB SWAP3 PUSH32 0x0 DUP5 AND CALLER SUB PUSH2 0x15B6 JUMPI DUP2 PUSH1 0x20 SWAP2 SUB SLT PUSH2 0x223 JUMPI PUSH1 0x24 ADD CALLDATALOAD DUP3 DUP2 AND DUP1 SWAP2 SUB PUSH2 0x223 JUMPI DUP2 PUSH1 0x80 SAR SWAP2 PUSH1 0x0 SWAP3 PUSH1 0x0 DUP3 PUSH1 0xF SIGNEXTEND SGT PUSH1 0x0 EQ PUSH2 0x1591 JUMPI POP PUSH1 0x1 PUSH1 0x1 PUSH1 0x80 SHL SUB AND SWAP2 POP JUMPDEST DUP2 PUSH2 0x155E JUMPI JUMPDEST POP POP POP PUSH1 0x40 MLOAD PUSH1 0x20 DUP2 ADD SWAP2 DUP2 DUP4 LT SWAP1 DUP4 GT OR PUSH2 0x782 JUMPI PUSH2 0x155A SWAP2 PUSH1 0x40 MSTORE PUSH1 0x0 DUP2 MSTORE PUSH1 0x40 MLOAD SWAP2 DUP3 SWAP2 PUSH1 0x20 DUP4 MSTORE PUSH1 0x20 DUP4 ADD SWAP1 PUSH2 0x2291 JUMP JUMPDEST SUB SWAP1 RETURN JUMPDEST PUSH2 0x1589 SWAP3 PUSH32 0x0 AND PUSH2 0x26AE JUMP JUMPDEST DUP2 DUP1 DUP1 PUSH2 0x1525 JUMP JUMPDEST SWAP1 POP PUSH1 0x0 DUP2 PUSH1 0xF SIGNEXTEND SGT PUSH2 0x15A5 JUMPI JUMPDEST POP PUSH2 0x151F JUMP JUMPDEST PUSH1 0x1 PUSH1 0x1 PUSH1 0x80 SHL SUB AND SWAP2 POP DUP5 PUSH2 0x159F JUMP JUMPDEST PUSH1 0x40 MLOAD PUSH3 0x461BCD PUSH1 0xE5 SHL DUP2 MSTORE PUSH1 0x20 PUSH1 0x4 DUP3 ADD MSTORE PUSH1 0x1E PUSH1 0x24 DUP3 ADD MSTORE PUSH32 0x4F6E6C7920506F6F6C4D616E616765722063616E2063616C6C20746869730000 PUSH1 0x44 DUP3 ADD MSTORE PUSH1 0x64 SWAP1 REVERT JUMPDEST CALLVALUE PUSH2 0x223 JUMPI PUSH1 0x20 CALLDATASIZE PUSH1 0x3 NOT ADD SLT PUSH2 0x223 JUMPI PUSH1 0x20 PUSH1 0x1 PUSH1 0x1 PUSH1 0xA0 SHL SUB DUP1 PUSH2 0x161F PUSH2 0x2211 JUMP JUMPDEST AND PUSH1 0x0 MSTORE PUSH1 0x0 DUP3 MSTORE PUSH1 0x40 PUSH1 0x0 KECCAK256 SLOAD AND PUSH1 0x40 MLOAD SWAP1 DUP2 MSTORE RETURN JUMPDEST CALLVALUE PUSH2 0x223 JUMPI PUSH1 0x20 CALLDATASIZE PUSH1 0x3 NOT ADD SLT PUSH2 0x223 JUMPI PUSH1 0xA0 PUSH1 0x1 PUSH1 0x1 PUSH1 0xA0 SHL SUB DUP1 PUSH2 0x165A PUSH2 0x2211 JUMP JUMPDEST AND PUSH1 0x0 MSTORE PUSH1 0x2 PUSH1 0x20 MSTORE PUSH1 0xFF PUSH1 0x40 PUSH1 0x0 KECCAK256 SWAP2 DUP3 SLOAD AND SWAP2 PUSH1 0x1 DUP2 ADD SLOAD SWAP1 PUSH1 0x4 PUSH1 0x2 DUP3 ADD SLOAD SWAP2 ADD SLOAD SWAP2 PUSH1 0x40 MLOAD SWAP5 DUP6 MSTORE PUSH1 0x20 DUP6 ADD MSTORE PUSH1 0x40 DUP5 ADD MSTORE DUP2 DUP2 AND ISZERO ISZERO PUSH1 0x60 DUP5 ADD MSTORE PUSH1 0x8 SHR AND ISZERO ISZERO PUSH1 0x80 DUP3 ADD MSTORE RETURN JUMPDEST CALLVALUE PUSH2 0x223 JUMPI PUSH1 0x0 CALLDATASIZE PUSH1 0x3 NOT ADD SLT PUSH2 0x223 JUMPI PUSH1 0x40 MLOAD PUSH32 0x0 PUSH1 0x1 PUSH1 0x1 PUSH1 0xA0 SHL SUB AND DUP2 MSTORE PUSH1 0x20 SWAP1 RETURN JUMPDEST CALLVALUE PUSH2 0x223 JUMPI PUSH1 0x40 CALLDATASIZE PUSH1 0x3 NOT ADD SLT PUSH2 0x223 JUMPI PUSH1 0x20 PUSH2 0x145F PUSH2 0x170A PUSH2 0x2211 JUMP JUMPDEST PUSH2 0x1712 PUSH2 0x2227 JUMP JUMPDEST SWAP1 PUSH2 0x24E1 JUMP JUMPDEST CALLVALUE PUSH2 0x223 JUMPI PUSH1 0x20 DUP1 PUSH1 0x3 NOT CALLDATASIZE ADD SLT PUSH2 0x223 JUMPI PUSH1 0x4 CALLDATALOAD PUSH8 0xFFFFFFFFFFFFFFFF DUP2 GT PUSH2 0x223 JUMPI PUSH2 0x174A SWAP1 CALLDATASIZE SWAP1 PUSH1 0x4 ADD PUSH2 0x2260 JUMP JUMPDEST SWAP1 SWAP2 CALLER PUSH1 0x0 MSTORE PUSH1 0x2 DUP1 DUP3 MSTORE PUSH1 0x1 SWAP1 PUSH2 0x176B PUSH1 0x1 PUSH1 0x40 PUSH1 0x0 KECCAK256 ADD SLOAD ISZERO ISZERO PUSH2 0x23E1 JUMP JUMPDEST PUSH1 0x0 JUMPDEST DUP5 DUP2 LT PUSH2 0x17E4 JUMPI POP POP PUSH1 0x40 MLOAD SWAP3 DUP1 DUP4 DUP6 ADD DUP5 DUP7 MSTORE MSTORE PUSH1 0x40 DUP5 ADD SWAP5 SWAP3 PUSH1 0x0 JUMPDEST DUP3 DUP2 LT PUSH2 0x17BC JUMPI CALLER PUSH32 0xB90857F670E2787419D97E8AD1483239915B735FECC028ADF074EF41C09D602C DUP8 DUP10 SUB DUP9 LOG2 STOP JUMPDEST SWAP1 SWAP2 SWAP3 DUP3 DUP1 DUP3 SWAP7 SWAP9 PUSH1 0x1 DUP1 PUSH1 0xA0 SHL SUB PUSH2 0x17D4 DUP12 PUSH2 0x223D JUMP JUMPDEST AND DUP2 MSTORE ADD SWAP8 ADD SWAP5 SWAP4 SWAP3 SWAP2 ADD PUSH2 0x178C JUMP JUMPDEST CALLER PUSH1 0x0 SWAP1 DUP2 MSTORE DUP3 DUP6 MSTORE PUSH1 0x40 SWAP1 KECCAK256 SWAP4 SWAP5 SWAP3 SWAP4 PUSH1 0x3 ADD SWAP1 PUSH1 0x5 DUP2 SWAP1 SHL DUP8 ADD CALLDATALOAD PUSH1 0x1 PUSH1 0x1 PUSH1 0xA0 SHL SUB DUP2 AND DUP2 SUB PUSH2 0x223 JUMPI DUP3 SLOAD SWAP1 PUSH1 0x1 PUSH1 0x40 SHL DUP3 LT ISZERO PUSH2 0x782 JUMPI PUSH2 0x1833 DUP3 DUP9 SWAP6 DUP7 PUSH2 0x1851 SWAP6 ADD DUP2 SSTORE PUSH2 0x241D JUMP JUMPDEST SWAP1 SWAP2 SWAP1 PUSH1 0x1 DUP1 PUSH1 0xA0 SHL SUB DUP1 DUP5 SLOAD SWAP3 PUSH1 0x3 SHL SWAP4 AND DUP4 SHL SWAP3 SHL NOT AND OR SWAP1 SSTORE JUMP JUMPDEST ADD SWAP4 SWAP3 SWAP2 SWAP4 PUSH2 0x176E JUMP JUMPDEST CALLVALUE PUSH2 0x223 JUMPI PUSH1 0x40 CALLDATASIZE PUSH1 0x3 NOT ADD SLT PUSH2 0x223 JUMPI PUSH2 0x1874 PUSH2 0x2211 JUMP JUMPDEST PUSH2 0x187C PUSH2 0x2227 JUMP JUMPDEST SWAP1 PUSH1 0x1 DUP1 PUSH1 0xA0 SHL SUB DUP1 SWAP2 PUSH2 0x1895 DUP3 PUSH1 0x1 SLOAD AND CALLER EQ PUSH2 0x2458 JUMP JUMPDEST AND SWAP2 DUP3 ISZERO PUSH2 0x193B JUMPI AND SWAP1 DUP2 ISZERO PUSH2 0x18EC JUMPI DUP1 PUSH1 0x0 MSTORE PUSH1 0x0 PUSH1 0x20 MSTORE PUSH1 0x40 PUSH1 0x0 KECCAK256 DUP3 PUSH1 0x1 PUSH1 0x1 PUSH1 0x60 SHL SUB PUSH1 0xA0 SHL DUP3 SLOAD AND OR SWAP1 SSTORE PUSH32 0xA8ABE0398416476DB5B05737CD4DA3B3CBDE5012D978A6A6C3FD49D321753536 PUSH1 0x0 DUP1 LOG3 STOP JUMPDEST PUSH1 0x40 MLOAD PUSH3 0x461BCD PUSH1 0xE5 SHL DUP2 MSTORE PUSH1 0x20 PUSH1 0x4 DUP3 ADD MSTORE PUSH1 0x21 PUSH1 0x24 DUP3 ADD MSTORE PUSH32 0x507269636520666565642063616E6E6F74206265207A65726F20616464726573 PUSH1 0x44 DUP3 ADD MSTORE PUSH1 0x73 PUSH1 0xF8 SHL PUSH1 0x64 DUP3 ADD MSTORE PUSH1 0x84 SWAP1 REVERT JUMPDEST PUSH1 0x40 MLOAD PUSH3 0x461BCD PUSH1 0xE5 SHL DUP2 MSTORE PUSH1 0x20 PUSH1 0x4 DUP3 ADD MSTORE PUSH1 0x1C PUSH1 0x24 DUP3 ADD MSTORE PUSH32 0x546F6B656E2063616E6E6F74206265207A65726F206164647265737300000000 PUSH1 0x44 DUP3 ADD MSTORE PUSH1 0x64 SWAP1 REVERT JUMPDEST CALLVALUE PUSH2 0x223 JUMPI PUSH1 0x20 CALLDATASIZE PUSH1 0x3 NOT ADD SLT PUSH2 0x223 JUMPI PUSH2 0x1999 PUSH2 0x2211 JUMP JUMPDEST PUSH1 0x1 SLOAD SWAP1 PUSH1 0x1 PUSH1 0x1 PUSH1 0xA0 SHL SUB SWAP1 PUSH2 0x19B3 CALLER DUP4 DUP6 AND EQ PUSH2 0x2458 JUMP JUMPDEST AND SWAP1 DUP2 ISZERO PUSH2 0x19CB JUMPI PUSH1 0x1 PUSH1 0x1 PUSH1 0xA0 SHL SUB NOT AND OR PUSH1 0x1 SSTORE STOP JUMPDEST PUSH1 0x64 PUSH1 0x40 MLOAD PUSH3 0x461BCD PUSH1 0xE5 SHL DUP2 MSTORE PUSH1 0x20 PUSH1 0x4 DUP3 ADD MSTORE PUSH1 0x20 PUSH1 0x24 DUP3 ADD MSTORE PUSH32 0x4E65772061646D696E2063616E6E6F74206265207A65726F2061646472657373 PUSH1 0x44 DUP3 ADD MSTORE REVERT JUMPDEST CALLVALUE PUSH2 0x223 JUMPI PUSH1 0x20 CALLDATASIZE PUSH1 0x3 NOT ADD SLT PUSH2 0x223 JUMPI PUSH2 0x1A28 PUSH2 0x2251 JUMP JUMPDEST CALLER PUSH1 0x0 MSTORE PUSH1 0x2 PUSH1 0x20 MSTORE PUSH2 0x1A44 PUSH1 0x1 PUSH1 0x40 PUSH1 0x0 KECCAK256 ADD SLOAD ISZERO ISZERO PUSH2 0x23E1 JUMP JUMPDEST CALLER PUSH1 0x0 MSTORE PUSH1 0x2 PUSH1 0x20 MSTORE PUSH2 0x1A6A DUP2 PUSH1 0x4 PUSH1 0x40 PUSH1 0x0 KECCAK256 ADD SWAP1 PUSH1 0xFF DUP1 NOT DUP4 SLOAD AND SWAP2 ISZERO ISZERO AND OR SWAP1 SSTORE JUMP JUMPDEST PUSH1 0x40 MLOAD SWAP1 ISZERO ISZERO DUP2 MSTORE PUSH32 0xBD4CCD3B9F23B35B213567FF600237372C8368625BC58D2E36225CC085E03C6D PUSH1 0x20 CALLER SWAP3 LOG2 STOP JUMPDEST CALLVALUE PUSH2 0x223 JUMPI PUSH1 0x20 CALLDATASIZE PUSH1 0x3 NOT ADD SLT PUSH2 0x223 JUMPI PUSH2 0x1AB3 PUSH2 0x2251 JUMP JUMPDEST CALLER PUSH1 0x0 MSTORE PUSH1 0x2 PUSH1 0x20 MSTORE PUSH2 0x1ACF PUSH1 0x1 PUSH1 0x40 PUSH1 0x0 KECCAK256 ADD SLOAD ISZERO ISZERO PUSH2 0x23E1 JUMP JUMPDEST CALLER PUSH1 0x0 SWAP1 DUP2 MSTORE PUSH1 0x2 PUSH1 0x20 MSTORE PUSH1 0x40 SWAP1 KECCAK256 PUSH1 0x4 ADD DUP1 SLOAD PUSH2 0xFF00 NOT AND DUP3 ISZERO ISZERO PUSH1 0x8 SHL PUSH2 0xFF00 AND OR SWAP1 SSTORE PUSH1 0x40 MLOAD SWAP1 ISZERO ISZERO DUP2 MSTORE PUSH32 0x94C87BC2C95C8B72CF0437C0239FC65C2E8A5569F7FFAF72AC05F074E65C5361 PUSH1 0x20 CALLER SWAP3 LOG2 STOP JUMPDEST CALLVALUE PUSH2 0x223 JUMPI PUSH1 0x20 CALLDATASIZE PUSH1 0x3 NOT ADD SLT PUSH2 0x223 JUMPI PUSH2 0x1B3E PUSH2 0x2211 JUMP JUMPDEST CALLER PUSH1 0x0 MSTORE PUSH1 0x2 PUSH1 0x20 MSTORE PUSH1 0x1 SWAP1 PUSH2 0x1B5D PUSH1 0x1 PUSH1 0x40 PUSH1 0x0 KECCAK256 ADD SLOAD ISZERO ISZERO PUSH2 0x23E1 JUMP JUMPDEST CALLER PUSH1 0x0 MSTORE PUSH1 0x2 PUSH1 0x20 MSTORE DUP2 PUSH1 0x3 DUP1 PUSH1 0x40 PUSH1 0x0 KECCAK256 ADD PUSH1 0x0 SWAP4 PUSH1 0x1 DUP1 PUSH1 0xA0 SHL SUB DUP1 SWAP2 AND SWAP6 JUMPDEST PUSH2 0x1BB3 JUMPI JUMPDEST DUP6 PUSH1 0x40 MLOAD SWAP1 DUP2 MSTORE PUSH32 0x8EAC65C9901BE8390F0CF78F2CA8D86E706341713377DCA39B0472FC07CDD05 PUSH1 0x20 CALLER SWAP3 LOG2 STOP JUMPDEST DUP2 SLOAD DUP1 DUP7 LT ISZERO PUSH2 0x1C53 JUMPI DUP7 DUP3 PUSH2 0x1BC9 DUP9 DUP7 PUSH2 0x241D JUMP JUMPDEST SWAP1 SLOAD SWAP1 DUP8 SHL SHR AND EQ PUSH2 0x1BE0 JUMPI POP DUP4 DUP1 SWAP6 ADD SWAP5 PUSH2 0x1B7F JUMP JUMPDEST SWAP3 SWAP5 SWAP2 SWAP4 POP SWAP2 PUSH1 0x0 NOT SWAP2 DUP3 DUP3 ADD SWAP2 DUP3 GT PUSH2 0x798 JUMPI PUSH2 0x1833 DUP5 PUSH2 0x1C05 PUSH2 0x1C13 SWAP5 DUP9 PUSH2 0x241D JUMP JUMPDEST SWAP1 SLOAD SWAP1 DUP10 SHL SHR AND SWAP2 DUP7 PUSH2 0x241D JUMP JUMPDEST DUP3 SLOAD DUP1 ISZERO PUSH2 0x1C3D JUMPI ADD SWAP3 PUSH2 0x1C27 DUP5 DUP5 PUSH2 0x241D JUMP JUMPDEST DUP2 SWAP4 SWAP2 SLOAD SWAP3 SHL SHL NOT AND SWAP1 SSTORE SSTORE DUP2 DUP1 DUP1 DUP1 DUP1 PUSH2 0x1B84 JUMP JUMPDEST PUSH4 0x4E487B71 PUSH1 0xE0 SHL PUSH1 0x0 MSTORE PUSH1 0x31 PUSH1 0x4 MSTORE PUSH1 0x24 PUSH1 0x0 REVERT JUMPDEST POP PUSH2 0x1B84 JUMP JUMPDEST CALLVALUE PUSH2 0x223 JUMPI PUSH1 0x0 CALLDATASIZE PUSH1 0x3 NOT ADD SLT PUSH2 0x223 JUMPI PUSH1 0x40 MLOAD PUSH32 0x0 PUSH1 0x1 PUSH1 0x1 PUSH1 0xA0 SHL SUB AND DUP2 MSTORE PUSH1 0x20 SWAP1 RETURN JUMPDEST CALLVALUE PUSH2 0x223 JUMPI PUSH1 0x40 CALLDATASIZE PUSH1 0x3 NOT ADD SLT PUSH2 0x223 JUMPI PUSH2 0x100 PUSH2 0x1CBA PUSH2 0x2211 JUMP JUMPDEST PUSH2 0x1CC2 PUSH2 0x2227 JUMP JUMPDEST PUSH1 0x1 DUP1 PUSH1 0xA0 SHL SUB DUP1 SWAP3 AND PUSH1 0x0 MSTORE PUSH1 0x3 PUSH1 0x20 MSTORE DUP2 PUSH1 0x40 PUSH1 0x0 KECCAK256 SWAP2 AND PUSH1 0x0 MSTORE PUSH1 0x20 MSTORE PUSH1 0x40 PUSH1 0x0 KECCAK256 DUP2 DUP2 SLOAD AND SWAP2 PUSH1 0x1 DUP3 ADD SLOAD SWAP2 PUSH1 0x2 DUP2 ADD SLOAD PUSH1 0x3 DUP3 ADD SLOAD PUSH1 0x4 DUP4 ADD SLOAD SWAP2 PUSH1 0x6 PUSH1 0x5 DUP6 ADD SLOAD SWAP5 ADD SLOAD SWAP6 PUSH1 0x40 MLOAD SWAP8 DUP9 MSTORE PUSH1 0x20 DUP9 ADD MSTORE PUSH1 0x40 DUP8 ADD MSTORE PUSH1 0x60 DUP7 ADD MSTORE PUSH1 0x80 DUP6 ADD MSTORE PUSH1 0xFF DUP2 AND ISZERO ISZERO PUSH1 0xA0 DUP6 ADD MSTORE PUSH1 0x8 SHR AND PUSH1 0xC0 DUP4 ADD MSTORE PUSH1 0xE0 DUP3 ADD MSTORE RETURN JUMPDEST CALLVALUE PUSH2 0x223 JUMPI PUSH1 0x0 CALLDATASIZE PUSH1 0x3 NOT ADD SLT PUSH2 0x223 JUMPI CALLER PUSH1 0x0 MSTORE PUSH1 0x2 PUSH1 0x20 MSTORE PUSH2 0x1D6F PUSH1 0x1 PUSH1 0x40 PUSH1 0x0 KECCAK256 ADD SLOAD ISZERO ISZERO PUSH2 0x2395 JUMP JUMPDEST CALLER PUSH1 0x0 MSTORE PUSH1 0x2 PUSH1 0x20 MSTORE PUSH2 0x1D8A PUSH1 0x2 PUSH1 0x40 PUSH1 0x0 KECCAK256 ADD SLOAD TIMESTAMP PUSH2 0x2388 JUMP JUMPDEST CALLER PUSH1 0x0 MSTORE PUSH1 0x2 PUSH1 0x20 MSTORE DUP1 PUSH1 0x1 PUSH1 0x40 PUSH1 0x0 KECCAK256 ADD SSTORE PUSH1 0x40 MLOAD SWAP1 DUP2 MSTORE PUSH32 0xF1A463082EFF5F74A481D3ABD6FC308D976449C50289C0564E946069CB7D8805 PUSH1 0x20 CALLER SWAP3 LOG2 STOP JUMPDEST CALLVALUE PUSH2 0x223 JUMPI PUSH1 0x20 CALLDATASIZE PUSH1 0x3 NOT ADD SLT PUSH2 0x223 JUMPI PUSH1 0x20 PUSH1 0x1 PUSH1 0x1 PUSH1 0xA0 SHL SUB DUP1 PUSH2 0x1DEF PUSH2 0x2211 JUMP JUMPDEST AND PUSH1 0x0 MSTORE PUSH1 0x0 DUP3 MSTORE PUSH1 0x40 PUSH1 0x0 KECCAK256 SLOAD AND ISZERO ISZERO PUSH1 0x40 MLOAD SWAP1 DUP2 MSTORE RETURN JUMPDEST CALLVALUE PUSH2 0x223 JUMPI PUSH1 0x40 CALLDATASIZE PUSH1 0x3 NOT ADD SLT PUSH2 0x223 JUMPI PUSH2 0x1E21 PUSH2 0x2211 JUMP JUMPDEST PUSH2 0x1E29 PUSH2 0x2227 JUMP JUMPDEST PUSH1 0x1 DUP1 PUSH1 0xA0 SHL SUB DUP1 DUP4 AND SWAP1 DUP2 PUSH1 0x0 MSTORE PUSH1 0x20 SWAP4 PUSH1 0x3 DUP6 MSTORE DUP2 PUSH1 0x40 PUSH1 0x0 KECCAK256 SWAP5 AND SWAP4 DUP5 PUSH1 0x0 MSTORE DUP6 MSTORE PUSH1 0x40 PUSH1 0x0 KECCAK256 PUSH1 0x5 DUP2 ADD SWAP6 DUP7 SLOAD SWAP3 PUSH2 0x1E67 PUSH1 0xFF DUP6 AND PUSH2 0x2347 JUMP JUMPDEST PUSH2 0x1E7A PUSH1 0x3 DUP5 ADD SLOAD PUSH1 0x4 DUP6 ADD SLOAD SWAP1 PUSH2 0x2388 JUMP JUMPDEST TIMESTAMP LT PUSH2 0x209E JUMPI DUP6 PUSH1 0x0 MSTORE PUSH1 0x2 DUP3 MSTORE PUSH1 0xFF PUSH1 0x4 PUSH1 0x40 PUSH1 0x0 KECCAK256 ADD SLOAD PUSH1 0x8 SHR AND PUSH1 0x0 EQ PUSH2 0x2076 JUMPI DUP5 PUSH32 0x0 SWAP5 JUMPDEST PUSH1 0x8 SHR AND ISZERO PUSH2 0x1FCA JUMPI POP PUSH1 0x40 MLOAD PUSH4 0x70A08231 PUSH1 0xE0 SHL DUP2 MSTORE ADDRESS PUSH1 0x4 DUP3 ADD MSTORE DUP2 DUP2 PUSH1 0x24 DUP2 DUP11 GAS STATICCALL SWAP1 DUP2 ISZERO PUSH2 0x7E2 JUMPI PUSH1 0x0 SWAP2 PUSH2 0x1F75 JUMPI JUMPDEST POP SWAP1 DUP5 PUSH2 0x1F2F PUSH1 0x60 SWAP6 SWAP5 SWAP4 PUSH32 0x60FE5C7ED4FE46663EC53F1FBD38F2C85063CEA69E1425471DF15414DEA59AA5 SWAP8 DUP12 SLOAD PUSH1 0x8 SHR AND DUP11 PUSH2 0x26AE JUMP JUMPDEST DUP7 PUSH1 0x0 MSTORE PUSH1 0x2 DUP3 MSTORE PUSH2 0x1F52 PUSH1 0x6 DUP3 PUSH1 0x40 PUSH1 0x0 KECCAK256 SLOAD AND SWAP5 ADD SWAP5 DUP5 DUP4 DUP8 SLOAD SWAP3 AND PUSH2 0x26AE JUMP JUMPDEST DUP9 SLOAD PUSH1 0x8 SHR AND SWAP3 SLOAD SWAP1 PUSH1 0x40 MLOAD SWAP4 DUP5 MSTORE DUP4 ADD MSTORE PUSH1 0x40 DUP3 ADD MSTORE LOG3 JUMPDEST DUP1 SLOAD PUSH1 0xFF NOT AND SWAP1 SSTORE STOP JUMPDEST SWAP4 SWAP3 SWAP2 DUP1 SWAP2 POP DUP5 DUP2 RETURNDATASIZE DUP4 GT PUSH2 0x1FC3 JUMPI JUMPDEST PUSH2 0x1F8F DUP2 DUP4 PUSH2 0x2325 JUMP JUMPDEST DUP2 ADD SUB SLT PUSH2 0x223 JUMPI SWAP3 MLOAD SWAP2 SWAP3 SWAP1 SWAP2 PUSH32 0x60FE5C7ED4FE46663EC53F1FBD38F2C85063CEA69E1425471DF15414DEA59AA5 PUSH2 0x1EF6 JUMP JUMPDEST POP RETURNDATASIZE PUSH2 0x1F85 JUMP JUMPDEST PUSH1 0x40 MLOAD PUSH4 0x70A08231 PUSH1 0xE0 SHL DUP2 MSTORE ADDRESS PUSH1 0x4 DUP3 ADD MSTORE SWAP5 POP SWAP1 SWAP3 POP SWAP1 POP DUP2 DUP4 PUSH1 0x24 DUP2 DUP9 GAS STATICCALL SWAP3 DUP4 ISZERO PUSH2 0x7E2 JUMPI PUSH1 0x0 SWAP4 PUSH2 0x2043 JUMPI JUMPDEST POP SWAP1 PUSH2 0x202B PUSH32 0x60FE5C7ED4FE46663EC53F1FBD38F2C85063CEA69E1425471DF15414DEA59AA5 SWAP4 PUSH1 0x60 SWAP4 DUP8 PUSH2 0x26AE JUMP JUMPDEST PUSH1 0x0 PUSH1 0x40 MLOAD SWAP2 DUP2 DUP4 MSTORE DUP3 ADD MSTORE DUP4 PUSH1 0x40 DUP3 ADD MSTORE LOG3 PUSH2 0x1F6B JUMP JUMPDEST SWAP3 POP SWAP1 DUP1 DUP4 DUP2 RETURNDATASIZE DUP4 GT PUSH2 0x206F JUMPI JUMPDEST PUSH2 0x205B DUP2 DUP4 PUSH2 0x2325 JUMP JUMPDEST DUP2 ADD SUB SLT PUSH2 0x223 JUMPI SWAP2 MLOAD SWAP2 SWAP1 PUSH2 0x202B PUSH2 0x1FFB JUMP JUMPDEST POP RETURNDATASIZE PUSH2 0x2051 JUMP JUMPDEST DUP5 PUSH32 0x0 SWAP5 PUSH2 0x1EC2 JUMP JUMPDEST PUSH1 0x40 MLOAD PUSH3 0x461BCD PUSH1 0xE5 SHL DUP2 MSTORE PUSH1 0x4 DUP2 ADD DUP4 SWAP1 MSTORE PUSH1 0x11 PUSH1 0x24 DUP3 ADD MSTORE PUSH17 0x105D58DD1A5BDB881B9BDD08195B991959 PUSH1 0x7A SHL PUSH1 0x44 DUP3 ADD MSTORE PUSH1 0x64 SWAP1 REVERT JUMPDEST CALLVALUE PUSH2 0x223 JUMPI PUSH1 0x20 DUP1 PUSH1 0x3 NOT CALLDATASIZE ADD SLT PUSH2 0x223 JUMPI PUSH1 0x1 PUSH1 0x1 PUSH1 0xA0 SHL SUB DUP1 PUSH2 0x20FA PUSH2 0x2211 JUMP JUMPDEST AND PUSH1 0x0 MSTORE PUSH1 0x2 DUP3 MSTORE PUSH1 0x40 PUSH1 0x0 KECCAK256 DUP2 DUP2 SLOAD AND SWAP2 PUSH1 0x1 DUP1 DUP4 ADD SLOAD SWAP4 PUSH1 0x2 DUP5 ADD SLOAD SWAP6 PUSH1 0x4 PUSH1 0x3 DUP7 ADD SWAP6 ADD SLOAD SWAP7 PUSH1 0x40 MLOAD SWAP1 DUP2 DUP4 DUP9 SLOAD SWAP2 DUP3 DUP2 MSTORE ADD SWAP1 DUP2 SWAP9 PUSH1 0x0 MSTORE DUP5 PUSH1 0x0 KECCAK256 SWAP1 PUSH1 0x0 JUMPDEST DUP2 DUP2 LT PUSH2 0x21BA JUMPI POP POP POP DUP3 PUSH2 0x2154 SWAP2 SUB DUP4 PUSH2 0x2325 JUMP JUMPDEST PUSH1 0x40 MLOAD SWAP8 PUSH1 0xC0 DUP10 ADD SWAP5 DUP10 MSTORE DUP4 DUP10 ADD MSTORE PUSH1 0x40 DUP9 ADD MSTORE PUSH1 0xC0 PUSH1 0x60 DUP9 ADD MSTORE MLOAD DUP1 SWAP3 MSTORE PUSH1 0xE0 DUP7 ADD SWAP5 SWAP4 PUSH1 0x0 SWAP1 JUMPDEST DUP4 DUP3 LT PUSH2 0x21A3 JUMPI DUP8 DUP1 DUP9 PUSH1 0xFF DUP13 DUP2 DUP2 AND ISZERO ISZERO PUSH1 0x80 DUP6 ADD MSTORE PUSH1 0x8 SHR AND ISZERO ISZERO PUSH1 0xA0 DUP4 ADD MSTORE SUB SWAP1 RETURN JUMPDEST DUP6 MLOAD DUP2 AND DUP8 MSTORE SWAP6 DUP3 ADD SWAP6 SWAP5 DUP3 ADD SWAP5 SWAP1 DUP5 ADD SWAP1 PUSH2 0x217D JUMP JUMPDEST DUP3 SLOAD DUP11 AND DUP5 MSTORE SWAP3 DUP7 ADD SWAP3 SWAP2 DUP9 ADD SWAP2 DUP9 ADD PUSH2 0x213E JUMP JUMPDEST CALLVALUE PUSH2 0x223 JUMPI PUSH1 0x0 CALLDATASIZE PUSH1 0x3 NOT ADD SLT PUSH2 0x223 JUMPI PUSH32 0x0 PUSH1 0x1 PUSH1 0x1 PUSH1 0xA0 SHL SUB AND DUP2 MSTORE PUSH1 0x20 SWAP1 RETURN JUMPDEST PUSH1 0x4 CALLDATALOAD SWAP1 PUSH1 0x1 PUSH1 0x1 PUSH1 0xA0 SHL SUB DUP3 AND DUP3 SUB PUSH2 0x223 JUMPI JUMP JUMPDEST PUSH1 0x24 CALLDATALOAD SWAP1 PUSH1 0x1 PUSH1 0x1 PUSH1 0xA0 SHL SUB DUP3 AND DUP3 SUB PUSH2 0x223 JUMPI JUMP JUMPDEST CALLDATALOAD SWAP1 PUSH1 0x1 PUSH1 0x1 PUSH1 0xA0 SHL SUB DUP3 AND DUP3 SUB PUSH2 0x223 JUMPI JUMP JUMPDEST PUSH1 0x4 CALLDATALOAD SWAP1 DUP2 ISZERO ISZERO DUP3 SUB PUSH2 0x223 JUMPI JUMP JUMPDEST SWAP2 DUP2 PUSH1 0x1F DUP5 ADD SLT ISZERO PUSH2 0x223 JUMPI DUP3 CALLDATALOAD SWAP2 PUSH8 0xFFFFFFFFFFFFFFFF DUP4 GT PUSH2 0x223 JUMPI PUSH1 0x20 DUP1 DUP6 ADD SWAP5 DUP5 PUSH1 0x5 SHL ADD ADD GT PUSH2 0x223 JUMPI JUMP JUMPDEST SWAP2 SWAP1 DUP3 MLOAD SWAP3 DUP4 DUP3 MSTORE PUSH1 0x0 JUMPDEST DUP5 DUP2 LT PUSH2 0x22BD JUMPI POP POP DUP3 PUSH1 0x0 PUSH1 0x20 DUP1 SWAP5 SWAP6 DUP5 ADD ADD MSTORE PUSH1 0x1F DUP1 NOT SWAP2 ADD AND ADD ADD SWAP1 JUMP JUMPDEST PUSH1 0x20 DUP2 DUP4 ADD DUP2 ADD MLOAD DUP5 DUP4 ADD DUP3 ADD MSTORE ADD PUSH2 0x229C JUMP JUMPDEST PUSH1 0xA0 DUP2 ADD SWAP1 DUP2 LT PUSH8 0xFFFFFFFFFFFFFFFF DUP3 GT OR PUSH2 0x782 JUMPI PUSH1 0x40 MSTORE JUMP JUMPDEST PUSH1 0x60 DUP2 ADD SWAP1 DUP2 LT PUSH8 0xFFFFFFFFFFFFFFFF DUP3 GT OR PUSH2 0x782 JUMPI PUSH1 0x40 MSTORE JUMP JUMPDEST PUSH1 0x40 DUP2 ADD SWAP1 DUP2 LT PUSH8 0xFFFFFFFFFFFFFFFF DUP3 GT OR PUSH2 0x782 JUMPI PUSH1 0x40 MSTORE JUMP JUMPDEST SWAP1 PUSH1 0x1F DUP1 NOT SWAP2 ADD AND DUP2 ADD SWAP1 DUP2 LT PUSH8 0xFFFFFFFFFFFFFFFF DUP3 GT OR PUSH2 0x782 JUMPI PUSH1 0x40 MSTORE JUMP JUMPDEST ISZERO PUSH2 0x234E JUMPI JUMP JUMPDEST PUSH1 0x40 MLOAD PUSH3 0x461BCD PUSH1 0xE5 SHL DUP2 MSTORE PUSH1 0x20 PUSH1 0x4 DUP3 ADD MSTORE PUSH1 0x12 PUSH1 0x24 DUP3 ADD MSTORE PUSH18 0x41756374696F6E206E6F7420616374697665 PUSH1 0x70 SHL PUSH1 0x44 DUP3 ADD MSTORE PUSH1 0x64 SWAP1 REVERT JUMPDEST SWAP2 SWAP1 DUP3 ADD DUP1 SWAP3 GT PUSH2 0x798 JUMPI JUMP JUMPDEST ISZERO PUSH2 0x239C JUMPI JUMP JUMPDEST PUSH1 0x40 MLOAD PUSH3 0x461BCD PUSH1 0xE5 SHL DUP2 MSTORE PUSH1 0x20 PUSH1 0x4 DUP3 ADD MSTORE PUSH1 0x17 PUSH1 0x24 DUP3 ADD MSTORE PUSH32 0x4163636F756E74206E6F7420696E697469616C697A6564000000000000000000 PUSH1 0x44 DUP3 ADD MSTORE PUSH1 0x64 SWAP1 REVERT JUMPDEST ISZERO PUSH2 0x23E8 JUMPI JUMP JUMPDEST PUSH1 0x40 MLOAD PUSH3 0x461BCD PUSH1 0xE5 SHL DUP2 MSTORE PUSH1 0x20 PUSH1 0x4 DUP3 ADD MSTORE PUSH1 0xD PUSH1 0x24 DUP3 ADD MSTORE PUSH13 0x105C9AC81B9BDD08189D5A5B1D PUSH1 0x9A SHL PUSH1 0x44 DUP3 ADD MSTORE PUSH1 0x64 SWAP1 REVERT JUMPDEST DUP1 SLOAD DUP3 LT ISZERO PUSH2 0x2435 JUMPI PUSH1 0x0 MSTORE PUSH1 0x20 PUSH1 0x0 KECCAK256 ADD SWAP1 PUSH1 0x0 SWAP1 JUMP JUMPDEST PUSH4 0x4E487B71 PUSH1 0xE0 SHL PUSH1 0x0 MSTORE PUSH1 0x32 PUSH1 0x4 MSTORE PUSH1 0x24 PUSH1 0x0 REVERT JUMPDEST SWAP2 SWAP1 DUP3 SUB SWAP2 DUP3 GT PUSH2 0x798 JUMPI JUMP JUMPDEST ISZERO PUSH2 0x245F JUMPI JUMP JUMPDEST PUSH1 0x40 MLOAD PUSH3 0x461BCD PUSH1 0xE5 SHL DUP2 MSTORE PUSH1 0x20 PUSH1 0x4 DUP3 ADD MSTORE PUSH1 0x21 PUSH1 0x24 DUP3 ADD MSTORE PUSH32 0x4F6E6C792061646D696E2063616E2063616C6C20746869732066756E6374696F PUSH1 0x44 DUP3 ADD MSTORE PUSH1 0x37 PUSH1 0xF9 SHL PUSH1 0x64 DUP3 ADD MSTORE PUSH1 0x84 SWAP1 REVERT JUMPDEST DUP2 DUP2 MUL SWAP3 SWAP2 DUP2 ISZERO SWAP2 DUP5 DIV EQ OR ISZERO PUSH2 0x798 JUMPI JUMP JUMPDEST DUP2 ISZERO PUSH2 0x24CB JUMPI DIV SWAP1 JUMP JUMPDEST PUSH4 0x4E487B71 PUSH1 0xE0 SHL PUSH1 0x0 MSTORE PUSH1 0x12 PUSH1 0x4 MSTORE PUSH1 0x24 PUSH1 0x0 REVERT JUMPDEST PUSH1 0x1 DUP1 PUSH1 0xA0 SHL SUB DUP1 SWAP2 AND PUSH1 0x0 MSTORE PUSH1 0x3 PUSH1 0x20 MSTORE PUSH1 0x40 PUSH1 0x0 KECCAK256 SWAP2 AND PUSH1 0x0 MSTORE PUSH1 0x20 MSTORE PUSH1 0x40 PUSH1 0x0 KECCAK256 PUSH2 0x2515 PUSH1 0xFF PUSH1 0x5 DUP4 ADD SLOAD AND PUSH2 0x2347 JUMP JUMPDEST PUSH2 0x2523 PUSH1 0x3 DUP3 ADD SLOAD TIMESTAMP PUSH2 0x244B JUMP JUMPDEST SWAP1 PUSH1 0x4 DUP2 ADD SLOAD SWAP2 DUP3 DUP2 LT ISZERO PUSH2 0x2553 JUMPI PUSH2 0x2550 SWAP3 PUSH2 0x301 PUSH2 0x306 SWAP3 PUSH2 0x2FC PUSH1 0x2 PUSH1 0x1 DUP8 ADD SLOAD SWAP7 ADD SLOAD DUP7 PUSH2 0x244B JUMP JUMPDEST SWAP1 JUMP JUMPDEST POP PUSH1 0x2 SWAP2 POP ADD SLOAD SWAP1 JUMP JUMPDEST MLOAD SWAP1 PUSH10 0xFFFFFFFFFFFFFFFFFFFF DUP3 AND DUP3 SUB PUSH2 0x223 JUMPI JUMP JUMPDEST PUSH1 0x1 DUP1 PUSH1 0xA0 SHL SUB DUP1 PUSH1 0x0 SWAP3 AND DUP3 MSTORE DUP2 PUSH1 0x20 MSTORE PUSH1 0x40 DUP3 KECCAK256 SLOAD AND SWAP1 DUP2 ISZERO PUSH2 0x2669 JUMPI PUSH1 0xA0 PUSH1 0x4 SWAP3 PUSH1 0x40 MLOAD SWAP4 DUP5 DUP1 SWAP3 PUSH4 0x3FABE5A3 PUSH1 0xE2 SHL DUP3 MSTORE GAS STATICCALL SWAP2 DUP3 ISZERO PUSH2 0x265C JUMPI DUP2 SWAP3 PUSH2 0x2609 JUMPI JUMPDEST POP DUP2 SGT ISZERO PUSH2 0x25C4 JUMPI SWAP1 JUMP JUMPDEST PUSH1 0x40 MLOAD PUSH3 0x461BCD PUSH1 0xE5 SHL DUP2 MSTORE PUSH1 0x20 PUSH1 0x4 DUP3 ADD MSTORE PUSH1 0x19 PUSH1 0x24 DUP3 ADD MSTORE PUSH32 0x496E76616C69642070726963652066726F6D206F7261636C6500000000000000 PUSH1 0x44 DUP3 ADD MSTORE PUSH1 0x64 SWAP1 REVERT JUMPDEST SWAP1 SWAP2 POP PUSH1 0xA0 DUP2 RETURNDATASIZE PUSH1 0xA0 GT PUSH2 0x2654 JUMPI JUMPDEST DUP2 PUSH2 0x2625 PUSH1 0xA0 SWAP4 DUP4 PUSH2 0x2325 JUMP JUMPDEST DUP2 ADD SUB SLT PUSH2 0x2650 JUMPI PUSH2 0x2636 DUP2 PUSH2 0x255D JUMP JUMPDEST POP PUSH2 0x2648 PUSH1 0x80 PUSH1 0x20 DUP4 ADD MLOAD SWAP3 ADD PUSH2 0x255D JUMP JUMPDEST POP SWAP1 CODESIZE PUSH2 0x25B9 JUMP JUMPDEST POP DUP1 REVERT JUMPDEST RETURNDATASIZE SWAP2 POP PUSH2 0x2618 JUMP JUMPDEST POP PUSH1 0x40 MLOAD SWAP1 RETURNDATASIZE SWAP1 DUP3 RETURNDATACOPY RETURNDATASIZE SWAP1 REVERT JUMPDEST PUSH1 0x40 MLOAD PUSH3 0x461BCD PUSH1 0xE5 SHL DUP2 MSTORE PUSH1 0x20 PUSH1 0x4 DUP3 ADD MSTORE PUSH1 0x1C PUSH1 0x24 DUP3 ADD MSTORE PUSH32 0x50726963652066656564206E6F742073657420666F7220746F6B656E00000000 PUSH1 0x44 DUP3 ADD MSTORE PUSH1 0x64 SWAP1 REVERT JUMPDEST PUSH1 0x40 MLOAD PUSH4 0xA9059CBB PUSH1 0xE0 SHL PUSH1 0x20 DUP3 ADD MSTORE PUSH1 0x1 PUSH1 0x1 PUSH1 0xA0 SHL SUB SWAP3 SWAP1 SWAP3 AND PUSH1 0x24 DUP4 ADD MSTORE PUSH1 0x44 DUP1 DUP4 ADD SWAP4 SWAP1 SWAP4 MSTORE SWAP2 DUP2 MSTORE PUSH2 0x26EF SWAP2 PUSH2 0x26EA PUSH1 0x64 DUP4 PUSH2 0x2325 JUMP JUMPDEST PUSH2 0x27BF JUMP JUMPDEST JUMP JUMPDEST SWAP1 DUP2 PUSH1 0x20 SWAP2 SUB SLT PUSH2 0x223 JUMPI MLOAD DUP1 ISZERO ISZERO DUP2 SUB PUSH2 0x223 JUMPI SWAP1 JUMP JUMPDEST PUSH1 0x80 PUSH1 0x40 PUSH2 0x2550 SWAP6 SWAP5 PUSH2 0x120 SWAP5 PUSH1 0x1 DUP1 PUSH1 0xA0 SHL SUB SWAP4 DUP2 DUP6 DUP1 SWAP4 MLOAD AND DUP8 MSTORE DUP3 PUSH1 0x20 DUP3 ADD MLOAD AND PUSH1 0x20 DUP9 ADD MSTORE PUSH3 0xFFFFFF DUP6 DUP3 ADD MLOAD AND DUP6 DUP9 ADD MSTORE PUSH1 0x60 DUP2 ADD MLOAD PUSH1 0x2 SIGNEXTEND PUSH1 0x60 DUP9 ADD MSTORE ADD MLOAD AND PUSH1 0x80 DUP6 ADD MSTORE DUP1 MLOAD ISZERO ISZERO PUSH1 0xA0 DUP6 ADD MSTORE PUSH1 0x20 DUP2 ADD MLOAD PUSH1 0xC0 DUP6 ADD MSTORE ADD MLOAD AND PUSH1 0xE0 DUP3 ADD MSTORE DUP2 PUSH2 0x100 DUP3 ADD MSTORE ADD SWAP1 PUSH2 0x2291 JUMP JUMPDEST PUSH1 0x40 MLOAD PUSH4 0x23B872DD PUSH1 0xE0 SHL PUSH1 0x20 DUP3 ADD MSTORE PUSH1 0x1 PUSH1 0x1 PUSH1 0xA0 SHL SUB SWAP3 DUP4 AND PUSH1 0x24 DUP3 ADD MSTORE SWAP3 SWAP1 SWAP2 AND PUSH1 0x44 DUP4 ADD MSTORE PUSH1 0x64 DUP1 DUP4 ADD SWAP4 SWAP1 SWAP4 MSTORE SWAP2 DUP2 MSTORE PUSH2 0x26EF SWAP2 PUSH2 0x26EA DUP3 PUSH2 0x22D1 JUMP JUMPDEST SWAP1 PUSH1 0x0 PUSH1 0x20 SWAP2 DUP3 DUP2 MLOAD SWAP2 ADD DUP3 DUP6 GAS CALL ISZERO PUSH2 0x7E2 JUMPI PUSH1 0x0 MLOAD RETURNDATASIZE PUSH2 0x2812 JUMPI POP PUSH1 0x1 PUSH1 0x1 PUSH1 0xA0 SHL SUB DUP2 AND EXTCODESIZE ISZERO JUMPDEST PUSH2 0x27F0 JUMPI POP JUMP JUMPDEST PUSH1 0x40 MLOAD PUSH4 0x5274AFE7 PUSH1 0xE0 SHL DUP2 MSTORE PUSH1 0x1 PUSH1 0x1 PUSH1 0xA0 SHL SUB SWAP1 SWAP2 AND PUSH1 0x4 DUP3 ADD MSTORE PUSH1 0x24 SWAP1 REVERT JUMPDEST PUSH1 0x1 EQ ISZERO PUSH2 0x27E9 JUMP INVALID LOG2 PUSH5 0x6970667358 0x22 SLT KECCAK256 0xB6 0xB0 BLOBBASEFEE 0xE3 0xB0 EQ PUSH31 0x95C57D815B5A84F6F579553A3C99EAF88D61F1F1F64AFE123E64736F6C6343 STOP ADDMOD XOR STOP CALLER "},"methodIdentifiers":{"addPassengers(address[])":"79000013","admin()":"f851a440","arks(address)":"88b21872","auctions(address,address)":"18242941","bidOnDutchAuction(address,address,uint256)":"f76e3696","buildArk(address,uint256,address[],bool,bool)":"daa12a36","claimPYUSD(address)":"df184548","flood(address)":"f2511bb1","getArk(address)":"05688c1c","getCurrentAuctionPrice(address,address)":"7a08d730","getTokenPrice(address)":"d02641a0","hasPriceFeed(address)":"0b7983a2","hookAddress()":"32a3cf96","pingArk()":"0fe23da9","poolManager()":"dc4c90d3","poolManagerSwapCallback(int256,bytes)":"afa9862a","priceFeeds(address)":"9dcb511a","pyrusdAddress()":"7e923b72","removePassenger(address)":"454d58d2","setPriceFeed(address,address)":"76e11286","settleDutchAuction(address,address)":"0a50960d","transferAdmin(address)":"75829def","updateAuctionPreference(bool)":"642e084e","updateDeadlineDuration(uint256)":"fabb6a38","updateTargetCurrencyPreference(bool)":"500994c5","usdcAddress()":"02d45457"}}}}}