{
  "_format": "hh-sol-artifact-1",
  "contractName": "TestStruct",
  "sourceName": "contracts/TestStruct.sol",
  "abi": [
    {
      "inputs": [
        {
          "internalType": "address",
          "name": "user",
          "type": "address"
        }
      ],
      "name": "getTest",
      "outputs": [
        {
          "internalType": "address",
          "name": "",
          "type": "address"
        },
        {
          "internalType": "uint256",
          "name": "",
          "type": "uint256"
        },
        {
          "internalType": "uint256",
          "name": "",
          "type": "uint256"
        }
      ],
      "stateMutability": "view",
      "type": "function"
    },
    {
      "inputs": [
        {
          "internalType": "address",
          "name": "user",
          "type": "address"
        },
        {
          "internalType": "address[]",
          "name": "_tokens",
          "type": "address[]"
        }
      ],
      "name": "setTest",
      "outputs": [],
      "stateMutability": "nonpayable",
      "type": "function"
    },
    {
      "inputs": [
        {
          "internalType": "address",
          "name": "",
          "type": "address"
        }
      ],
      "name": "tests",
      "outputs": [
        {
          "internalType": "address",
          "name": "addr",
          "type": "address"
        },
        {
          "internalType": "uint256",
          "name": "num",
          "type": "uint256"
        }
      ],
      "stateMutability": "view",
      "type": "function"
    }
  ],
  "bytecode": "0x6080806040523461001657610384908161001c8239f35b600080fdfe6080604090808252600436101561001557600080fd5b600090813560e01c90816305de8c061461013e575080636cba97091461008a57638828136c1461004457600080fd5b34610087576020366003190112610087576001600160a01b039060019083908361006c6102df565b16815280602052209182541691015482519182526020820152f35b80fd5b50346100875760208060031936011261013a576001600160a01b0392836100af6102df565b168352828252808320928151946100c5866102fa565b80855416865260019160026001870154968689019788520190845193848784549182815201938352878320925b81811061012557505050509561010c83606098038461032c565b8284820152511693519051928251948552840152820152f35b835486168552938801939282019282016100f2565b5080fd5b905082346102db57806003193601126102db576101596102df565b67ffffffffffffffff91906024358381116102d757366023820112156102d7578060040135948486116102d3578560051b936024858401013681116102cf57929190936101a5826102fa565b60018060a01b0394858092168084526020958685019a607b8c526101cd8885519b018b61032c565b89526024878a0196015b8181106102a5575050600294508184019788528a5289855289209151166bffffffffffffffffffffffff60a01b8254161781556001965160018201550192518051948511610291576801000000000000000085116102915781908454868655808710610267575b500192865280862091865b858110610254578780f35b8451821684820155938201938601610249565b8589528787848b2092830192015b82811061028357505061023e565b8a8155859450899101610275565b634e487b7160e01b87526041600452602487fd5b8092945095909294953588811681036102cb5781528601949387939092909187016101d7565b8c80fd5b8880fd5b8680fd5b8580fd5b8280fd5b600435906001600160a01b03821682036102f557565b600080fd5b6060810190811067ffffffffffffffff82111761031657604052565b634e487b7160e01b600052604160045260246000fd5b90601f8019910116810190811067ffffffffffffffff8211176103165760405256fea2646970667358221220deea1845a1c00256a255f133674d83e12db028d0e6547bd903f5715df7c63a1c64736f6c63430008180033",
  "linkReferences": {},
  "deployedLinkReferences": {}
}