{
  "_format": "hh-sol-artifact-1",
  "contractName": "MockUniswapV2Router",
  "sourceName": "contracts/MockUniswapV2Router.sol",
  "abi": [
    {
      "inputs": [
        {
          "internalType": "address",
          "name": "_usdcAddress",
          "type": "address"
        }
      ],
      "stateMutability": "nonpayable",
      "type": "constructor"
    },
    {
      "inputs": [
        {
          "internalType": "uint256",
          "name": "amountIn",
          "type": "uint256"
        },
        {
          "internalType": "uint256",
          "name": "",
          "type": "uint256"
        },
        {
          "internalType": "address[]",
          "name": "path",
          "type": "address[]"
        },
        {
          "internalType": "address",
          "name": "to",
          "type": "address"
        },
        {
          "internalType": "uint256",
          "name": "",
          "type": "uint256"
        }
      ],
      "name": "swapExactTokensForTokens",
      "outputs": [
        {
          "internalType": "uint256[]",
          "name": "amounts",
          "type": "uint256[]"
        }
      ],
      "stateMutability": "nonpayable",
      "type": "function"
    },
    {
      "inputs": [],
      "name": "usdcAddress",
      "outputs": [
        {
          "internalType": "address",
          "name": "",
          "type": "address"
        }
      ],
      "stateMutability": "view",
      "type": "function"
    }
  ],
  "bytecode": "0x60a03461007157601f61040338819003918201601f19168301916001600160401b038311848410176100765780849260209460405283398101031261007157516001600160a01b038116810361007157608052604051610376908161008d823960805181818161011801526102bc0152f35b600080fd5b634e487b7160e01b600052604160045260246000fdfe608060408181526004918236101561001657600080fd5b600090813560e01c90816302d45457146102a857506338ed17391461003a57600080fd5b346102a55760a03660031901126102a55782356044359167ffffffffffffffff918284116102a157366023850112156102a1578386013583811161029d5760249436868360051b83010111610299576001600160a01b0391606435838116929190839003610295576002810361026257156102505786013582811680910361024c5790849392918851906323b872dd60e01b8252338b8301523089830152846044830152816064816020998a945af180156102425790869291610225575b5060448a868b51958694859363a9059cbb60e01b8552840152878c8401527f0000000000000000000000000000000000000000000000000000000000000000165af1801561021b576101ee575b5085519360608501908111858210176101dc5786526002845282840194863687378451156101cb57818652845197600198600110156101ba575050858401528451828152925183830181905283860194879390925b8281106101a75785870386f35b835187529581019592810192840161019a565b634e487b7160e01b84526032905282fd5b634e487b7160e01b83526032885282fd5b634e487b7160e01b8352604188528583fd5b61020d90843d8611610214575b61020581836102eb565b810190610323565b5038610145565b503d6101fb565b87513d85823e3d90fd5b61023b90833d85116102145761020581836102eb565b50386100f8565b89513d87823e3d90fd5b8480fd5b634e487b7160e01b8552603289528685fd5b885162461bcd60e51b81526020818c0152600e818a01526d2830ba341036bab9ba103132901960911b6044820152606490fd5b8580fd5b8380fd5b8280fd5b5080fd5b80fd5b9050346102a157816003193601126102a1577f00000000000000000000000000000000000000000000000000000000000000006001600160a01b03168152602090f35b90601f8019910116810190811067ffffffffffffffff82111761030d57604052565b634e487b7160e01b600052604160045260246000fd5b9081602091031261033b5751801515810361033b5790565b600080fdfea26469706673582212202fe60ec3f2495bdbba57a554524e2f3d1531c162b991939b6b834becae7b99f964736f6c63430008180033",
  "linkReferences": {},
  "deployedLinkReferences": {}
}