{
  "_format": "hh-sol-artifact-1",
  "contractName": "Noahv4NFT",
  "sourceName": "contracts/Noahv4NFT.sol",
  "abi": [
    {
      "anonymous": false,
      "inputs": [
        {
          "indexed": true,
          "internalType": "address",
          "name": "user",
          "type": "address"
        },
        {
          "indexed": true,
          "internalType": "address",
          "name": "beneficiary",
          "type": "address"
        },
        {
          "indexed": false,
          "internalType": "uint256",
          "name": "deadline",
          "type": "uint256"
        }
      ],
      "name": "ArkBuilt",
      "type": "event"
    },
    {
      "anonymous": false,
      "inputs": [
        {
          "indexed": true,
          "internalType": "address",
          "name": "user",
          "type": "address"
        },
        {
          "indexed": false,
          "internalType": "uint256",
          "name": "newDeadline",
          "type": "uint256"
        }
      ],
      "name": "ArkPinged",
      "type": "event"
    },
    {
      "anonymous": false,
      "inputs": [
        {
          "indexed": true,
          "internalType": "address",
          "name": "user",
          "type": "address"
        },
        {
          "indexed": true,
          "internalType": "address",
          "name": "newBeneficiary",
          "type": "address"
        }
      ],
      "name": "BeneficiaryUpdated",
      "type": "event"
    },
    {
      "anonymous": false,
      "inputs": [
        {
          "indexed": true,
          "internalType": "address",
          "name": "user",
          "type": "address"
        },
        {
          "indexed": false,
          "internalType": "uint256",
          "name": "newDuration",
          "type": "uint256"
        },
        {
          "indexed": false,
          "internalType": "uint256",
          "name": "newDeadline",
          "type": "uint256"
        }
      ],
      "name": "DeadlineUpdated",
      "type": "event"
    },
    {
      "anonymous": false,
      "inputs": [
        {
          "indexed": true,
          "internalType": "address",
          "name": "user",
          "type": "address"
        },
        {
          "indexed": true,
          "internalType": "address",
          "name": "beneficiary",
          "type": "address"
        },
        {
          "indexed": false,
          "internalType": "uint256",
          "name": "numNFTs",
          "type": "uint256"
        }
      ],
      "name": "FloodTriggered",
      "type": "event"
    },
    {
      "anonymous": false,
      "inputs": [
        {
          "indexed": true,
          "internalType": "address",
          "name": "user",
          "type": "address"
        },
        {
          "indexed": true,
          "internalType": "address",
          "name": "collection",
          "type": "address"
        },
        {
          "indexed": false,
          "internalType": "uint256",
          "name": "tokenId",
          "type": "uint256"
        }
      ],
      "name": "NFTRemoved",
      "type": "event"
    },
    {
      "anonymous": false,
      "inputs": [
        {
          "indexed": true,
          "internalType": "address",
          "name": "user",
          "type": "address"
        },
        {
          "indexed": false,
          "internalType": "address[]",
          "name": "collections",
          "type": "address[]"
        },
        {
          "indexed": false,
          "internalType": "uint256[]",
          "name": "tokenIds",
          "type": "uint256[]"
        }
      ],
      "name": "NFTsAdded",
      "type": "event"
    },
    {
      "inputs": [
        {
          "internalType": "address[]",
          "name": "collections",
          "type": "address[]"
        },
        {
          "internalType": "uint256[]",
          "name": "tokenIds",
          "type": "uint256[]"
        }
      ],
      "name": "addNFTs",
      "outputs": [],
      "stateMutability": "nonpayable",
      "type": "function"
    },
    {
      "inputs": [
        {
          "internalType": "address",
          "name": "beneficiary",
          "type": "address"
        },
        {
          "internalType": "uint256",
          "name": "deadlineDuration",
          "type": "uint256"
        },
        {
          "internalType": "address[]",
          "name": "collections",
          "type": "address[]"
        },
        {
          "internalType": "uint256[]",
          "name": "tokenIds",
          "type": "uint256[]"
        }
      ],
      "name": "buildArk",
      "outputs": [],
      "stateMutability": "nonpayable",
      "type": "function"
    },
    {
      "inputs": [
        {
          "internalType": "address",
          "name": "user",
          "type": "address"
        }
      ],
      "name": "flood",
      "outputs": [],
      "stateMutability": "nonpayable",
      "type": "function"
    },
    {
      "inputs": [
        {
          "internalType": "address",
          "name": "user",
          "type": "address"
        }
      ],
      "name": "getArk",
      "outputs": [
        {
          "internalType": "address",
          "name": "beneficiary",
          "type": "address"
        },
        {
          "internalType": "uint256",
          "name": "deadline",
          "type": "uint256"
        },
        {
          "internalType": "uint256",
          "name": "deadlineDuration",
          "type": "uint256"
        },
        {
          "internalType": "address[]",
          "name": "collections",
          "type": "address[]"
        },
        {
          "internalType": "uint256[]",
          "name": "tokenIds",
          "type": "uint256[]"
        }
      ],
      "stateMutability": "view",
      "type": "function"
    },
    {
      "inputs": [
        {
          "internalType": "address",
          "name": "user",
          "type": "address"
        }
      ],
      "name": "hasArk",
      "outputs": [
        {
          "internalType": "bool",
          "name": "",
          "type": "bool"
        }
      ],
      "stateMutability": "view",
      "type": "function"
    },
    {
      "inputs": [],
      "name": "pingArk",
      "outputs": [],
      "stateMutability": "nonpayable",
      "type": "function"
    },
    {
      "inputs": [
        {
          "internalType": "address",
          "name": "collection",
          "type": "address"
        },
        {
          "internalType": "uint256",
          "name": "tokenId",
          "type": "uint256"
        }
      ],
      "name": "removeNFT",
      "outputs": [],
      "stateMutability": "nonpayable",
      "type": "function"
    },
    {
      "inputs": [
        {
          "internalType": "address",
          "name": "newBeneficiary",
          "type": "address"
        }
      ],
      "name": "updateBeneficiary",
      "outputs": [],
      "stateMutability": "nonpayable",
      "type": "function"
    },
    {
      "inputs": [
        {
          "internalType": "uint256",
          "name": "newDuration",
          "type": "uint256"
        }
      ],
      "name": "updateDeadlineDuration",
      "outputs": [],
      "stateMutability": "nonpayable",
      "type": "function"
    }
  ],
  "bytecode": "0x6080806040523461001657610e37908161001c8239f35b600080fdfe60406080815260048036101561001457600080fd5b600091823560e01c806305688c1c1461078e5780630aaffd2a146107035780630d2542cc146106c65780630fe23da91461064857806331f0f7b61461053257806349fd566b14610506578063657634fa146102ce578063f2511bb11461014e5763fabb6a381461008357600080fd5b3461014a57602080600319360112610146578235923385528482526100af600184872001541515610a07565b831561010e5750907f270517e45d27f999faef5e16a3159117c83577723363227c5901cb52e315d8689133855284815283600283872001556100f18442610adb565b90338652858152816001848820015582519485528401523392a280f35b915162461bcd60e51b815291820152601460248201527304475726174696f6e206d757374206265203e20360641b6044820152606490fd5b8380fd5b8280fd5b503461014a57602036600319011261014a576001600160a01b039182610172610909565b169182855284602052808520936001808601918254610192811515610a8f565b421061028b5790816003899493895416980190815496855b8881106101e457868b8b7fde3f14ce4426137f4576388d16723795d5bf5e2f00597e0e8d63816a7342a1e160208d8d868d5551908152a380f35b909192939495506101f581856109c1565b5085848254169101548c823b15610288578c9160648d838d5196879485936323b872dd60e01b85528b8501526024978885015260448401525af1801561027e57908793929161024e575b505001908a95949392916101aa565b9091925067ffffffffffffffff821161026d575087528490388061023f565b634e487b7160e01b8d52604184528cfd5b89513d8f823e3d90fd5b80fd5b835162461bcd60e51b8152602081870152601760248201527f446561646c696e6520686173206e6f74207061737365640000000000000000006044820152606490fd5b50903461014a57608036600319011261014a576102e9610909565b602435916044359367ffffffffffffffff948581116105025761030f9036908401610924565b9290956064359081116104fe576103299036908301610924565b9590943389526020918983526001906001868c2001546104ba576001600160a01b039283169461035a861515610a43565b8115610477575091898b936103708b8a14610afe565b338552848652898b8a60036103a08c8a20958c6001600160601b0360a01b88541617875580600288015542610adb565b9860018601998a559401945b81851061042e5750505050505050507fd4c9fb4a0298b2717518a542bd4801ce0cb35fd35087636887f9e87ad8d75a3f90549184519283523392a3816103f0578580f35b7f4d7c68c8b60fa21b6b098a092c62e3e179f142cceade91a58e365c0dfbb6ed8b936104229151938493339785610bc9565b0390a238808080808580f35b8461046d9361044c610447838c99989661045296610b3c565b610b4c565b93610b3c565b35868c519261046084610955565b1682528982015284610b60565b01898b8a8e6103ac565b865162461bcd60e51b8152908101859052601d60248201527f446561646c696e65206475726174696f6e206d757374206265203e20300000006044820152606490fd5b5050925162461bcd60e51b815291820152601b60248201527f4163636f756e7420616c726561647920696e697469616c697a65640000000000604482015260649150fd5b8780fd5b8680fd5b83823461052e573660031901126102885761052b610522610909565b60243590610c3e565b80f35b5080fd5b5082903461052e578060031936011261052e5767ffffffffffffffff908335828111610146576105659036908601610924565b9490926024359081116106445761057e91369101610924565b94909133855260208560205260019061059e600184892001541515610a07565b6105a9888514610afe565b3387526020879052828720600301875b8581106105fc5788887f4d7c68c8b60fa21b6b098a092c62e3e179f142cceade91a58e365c0dfbb6ed8b89896105f68f8b51938493339785610bc9565b0390a280f35b8061063e8b61061c836106156104478a978f8e90610b3c565b928c610b3c565b3588519161062983610955565b6001600160a01b031682528682015284610b60565b016105b9565b8480fd5b83823461052e578160031936011261052e5733825281602052610672600182842001541515610a8f565b338252816020526106896002828420015442610adb565b90338352826020528160018285200155519081527ff1a463082eff5f74a481d3abd6fc308d976449c50289c0564e946069cb7d880560203392a280f35b83823461052e57602036600319011261052e5760209160019082906001600160a01b036106f1610909565b16815280855220015415159051908152f35b83823461052e57602036600319011261052e5761071e610909565b33835282602052610736600183852001541515610a07565b6001600160a01b03169061074b821515610a43565b338352826020528220816001600160601b0360a01b825416179055337fe72eaf6addaa195f3c83095031dd08f3a96808dcf047babed1fe4e4f69d6c6228380a380f35b5082346102885760209081600319360112610288576001600160a01b039290836107b6610909565b1681528083528181209260038401908154916107d1836109a9565b966107de86519889610987565b8388526107ea846109a9565b9783810194601f19809a01368737610801816109a9565b9361080e89519586610987565b81855261081a826109a9565b8587019b01368c37875b8281106108ba575050508188541690600197600260018b01549a01549080519a60a08c01948c52878c01528a015260a060608a01525180915260c08801949186905b8282106108a3575050505085830360808701525180835291810195925b8281106108905785870386f35b8351875295810195928101928401610883565b835181168752958501959285019290880190610866565b80856108d26001939c9e9c859c9a9b9c9897986109c1565b5054166108df82886109f3565b52816108eb82856109c1565b5001546108f882896109f3565b52019a989a97969597939293610824565b600435906001600160a01b038216820361091f57565b600080fd5b9181601f8401121561091f5782359167ffffffffffffffff831161091f576020808501948460051b01011161091f57565b6040810190811067ffffffffffffffff82111761097157604052565b634e487b7160e01b600052604160045260246000fd5b90601f8019910116810190811067ffffffffffffffff82111761097157604052565b67ffffffffffffffff81116109715760051b60200190565b80548210156109dd5760005260206000209060011b0190600090565b634e487b7160e01b600052603260045260246000fd5b80518210156109dd5760209160051b010190565b15610a0e57565b60405162461bcd60e51b815260206004820152600d60248201526c105c9ac81b9bdd08189d5a5b1d609a1b6044820152606490fd5b15610a4a57565b60405162461bcd60e51b815260206004820152601a60248201527f42656e65666963696172792063616e6e6f74206265207a65726f0000000000006044820152606490fd5b15610a9657565b60405162461bcd60e51b815260206004820152601760248201527f4163636f756e74206e6f7420696e697469616c697a65640000000000000000006044820152606490fd5b91908201809211610ae857565b634e487b7160e01b600052601160045260246000fd5b15610b0557565b60405162461bcd60e51b815260206004820152600f60248201526e098cadccee8d040dad2e6dac2e8c6d608b1b6044820152606490fd5b91908110156109dd5760051b0190565b356001600160a01b038116810361091f5790565b80546801000000000000000081101561097157610b82916001820181556109c1565b919091610bb357805182546001600160a01b0319166001600160a01b03919091161782556020015160019190910155565b634e487b7160e01b600052600060045260246000fd5b9091806040830160408452526060820192906000905b808210610c14575050508082036020909101528281526001600160fb1b03831161091f5760209260051b809284830137010190565b90919384359060018060a01b03821680920361091f57600191815260208091019501920190610bdf565b9091600091338352602093836020526001946040610c63876040882001541515610a07565b338652856020526003604087200195865496815b888110610cb35760405162461bcd60e51b815260206004820152600d60248201526c139195081b9bdd08199bdd5b99609a1b6044820152606490fd5b80610cbf8b92846109c1565b50546001600160a01b03898116918116821480610deb575b610ce357505001610c77565b91925098999293949596975060001992838101908111610dd757610d0a610d1291866109c1565b5092856109c1565b929092610dc35790818c928403610d9f575b5050505081548015610d8b570191610d3c83836109c1565b999099610d775789827f8423462d195254bc65aaec133460ea172b95d906a934f0442c54daf35726b10f98999a9b55015555519283523392a3565b634e487b7160e01b82526004829052602482fd5b634e487b7160e01b84526031600452602484fd5b82918154166001600160601b0360a01b855416178455015491015538898180610d24565b634e487b7160e01b86526004869052602486fd5b634e487b7160e01b86526011600452602486fd5b508884610df885886109c1565b50015414610cd756fea2646970667358221220194b83198040e886533c38a606f4fae7720b2ee65532488e270897a8818dfa4464736f6c63430008180033",
  "linkReferences": {},
  "deployedLinkReferences": {}
}