{
  "_format": "hh-sol-artifact-1",
  "contractName": "Noah",
  "sourceName": "contracts/noah.sol",
  "abi": [
    {
      "inputs": [
        {
          "internalType": "address",
          "name": "_router",
          "type": "address"
        },
        {
          "internalType": "address",
          "name": "_usdc",
          "type": "address"
        }
      ],
      "stateMutability": "nonpayable",
      "type": "constructor"
    },
    {
      "anonymous": false,
      "inputs": [
        {
          "indexed": true,
          "internalType": "address",
          "name": "user",
          "type": "address"
        },
        {
          "indexed": true,
          "internalType": "address",
          "name": "beneficiary",
          "type": "address"
        },
        {
          "indexed": false,
          "internalType": "uint256",
          "name": "deadline",
          "type": "uint256"
        }
      ],
      "name": "ArkBuilt",
      "type": "event"
    },
    {
      "anonymous": false,
      "inputs": [
        {
          "indexed": true,
          "internalType": "address",
          "name": "user",
          "type": "address"
        },
        {
          "indexed": false,
          "internalType": "uint256",
          "name": "newDeadline",
          "type": "uint256"
        }
      ],
      "name": "ArkPinged",
      "type": "event"
    },
    {
      "anonymous": false,
      "inputs": [
        {
          "indexed": true,
          "internalType": "address",
          "name": "user",
          "type": "address"
        },
        {
          "indexed": false,
          "internalType": "uint256",
          "name": "newDuration",
          "type": "uint256"
        },
        {
          "indexed": false,
          "internalType": "uint256",
          "name": "newDeadline",
          "type": "uint256"
        }
      ],
      "name": "DeadlineUpdated",
      "type": "event"
    },
    {
      "anonymous": false,
      "inputs": [
        {
          "indexed": true,
          "internalType": "address",
          "name": "user",
          "type": "address"
        },
        {
          "indexed": true,
          "internalType": "address",
          "name": "beneficiary",
          "type": "address"
        },
        {
          "indexed": false,
          "internalType": "uint256",
          "name": "usdcAmount",
          "type": "uint256"
        }
      ],
      "name": "FloodTriggered",
      "type": "event"
    },
    {
      "anonymous": false,
      "inputs": [
        {
          "indexed": true,
          "internalType": "address",
          "name": "user",
          "type": "address"
        },
        {
          "indexed": false,
          "internalType": "address",
          "name": "passenger",
          "type": "address"
        }
      ],
      "name": "PassengerRemoved",
      "type": "event"
    },
    {
      "anonymous": false,
      "inputs": [
        {
          "indexed": true,
          "internalType": "address",
          "name": "user",
          "type": "address"
        },
        {
          "indexed": false,
          "internalType": "address[]",
          "name": "newPassengers",
          "type": "address[]"
        }
      ],
      "name": "PassengersAdded",
      "type": "event"
    },
    {
      "inputs": [
        {
          "internalType": "address[]",
          "name": "_newPassengers",
          "type": "address[]"
        }
      ],
      "name": "addPassengers",
      "outputs": [],
      "stateMutability": "nonpayable",
      "type": "function"
    },
    {
      "inputs": [
        {
          "internalType": "address",
          "name": "",
          "type": "address"
        }
      ],
      "name": "arks",
      "outputs": [
        {
          "internalType": "address",
          "name": "beneficiary",
          "type": "address"
        },
        {
          "internalType": "uint256",
          "name": "deadline",
          "type": "uint256"
        },
        {
          "internalType": "uint256",
          "name": "deadlineDuration",
          "type": "uint256"
        }
      ],
      "stateMutability": "view",
      "type": "function"
    },
    {
      "inputs": [
        {
          "internalType": "address",
          "name": "_beneficiary",
          "type": "address"
        },
        {
          "internalType": "uint256",
          "name": "_deadlineDuration",
          "type": "uint256"
        },
        {
          "internalType": "address[]",
          "name": "_tokens",
          "type": "address[]"
        }
      ],
      "name": "buildArk",
      "outputs": [],
      "stateMutability": "nonpayable",
      "type": "function"
    },
    {
      "inputs": [
        {
          "internalType": "address",
          "name": "_user",
          "type": "address"
        }
      ],
      "name": "flood",
      "outputs": [],
      "stateMutability": "nonpayable",
      "type": "function"
    },
    {
      "inputs": [
        {
          "internalType": "address",
          "name": "user",
          "type": "address"
        }
      ],
      "name": "getArk",
      "outputs": [
        {
          "internalType": "address",
          "name": "beneficiary",
          "type": "address"
        },
        {
          "internalType": "uint256",
          "name": "deadline",
          "type": "uint256"
        },
        {
          "internalType": "uint256",
          "name": "deadlineDuration",
          "type": "uint256"
        },
        {
          "internalType": "address[]",
          "name": "tokens",
          "type": "address[]"
        }
      ],
      "stateMutability": "view",
      "type": "function"
    },
    {
      "inputs": [],
      "name": "pingArk",
      "outputs": [],
      "stateMutability": "nonpayable",
      "type": "function"
    },
    {
      "inputs": [
        {
          "internalType": "address",
          "name": "_passengerToRemove",
          "type": "address"
        }
      ],
      "name": "removePassenger",
      "outputs": [],
      "stateMutability": "nonpayable",
      "type": "function"
    },
    {
      "inputs": [],
      "name": "uniswapRouter",
      "outputs": [
        {
          "internalType": "contract IUniswapV2Router02",
          "name": "",
          "type": "address"
        }
      ],
      "stateMutability": "view",
      "type": "function"
    },
    {
      "inputs": [
        {
          "internalType": "uint256",
          "name": "_newDuration",
          "type": "uint256"
        }
      ],
      "name": "updateDeadlineDuration",
      "outputs": [],
      "stateMutability": "nonpayable",
      "type": "function"
    },
    {
      "inputs": [],
      "name": "usdcAddress",
      "outputs": [
        {
          "internalType": "address",
          "name": "",
          "type": "address"
        }
      ],
      "stateMutability": "view",
      "type": "function"
    }
  ],
  "bytecode": "0x60c0346100b557601f61122338819003918201601f19168301916001600160401b038311848410176100ba5780849260409485528339810103126100b557610052602061004b836100d0565b92016100d0565b6001600160a01b0390911660805260a05260405161113e90816100e582396080518181816103150152818161040f0152610c89015260a051818181610264015281816102c4015281816103ab015281816104610152818161070b0152610f420152f35b600080fd5b634e487b7160e01b600052604160045260246000fd5b51906001600160a01b03821682036100b55756fe608080604052600436101561001357600080fd5b60003560e01c90816302d4545714610f2f5750806305688c1c14610e755780630fe23da914610dec578063454d58d214610cb8578063735de9f714610c735780637900001314610b3357806388b2187214610adf578063b1ad599d146107d1578063f2511bb1146101785763fabb6a381461008d57600080fd5b3461017357602080600319360112610173576004359033600052600081526100be6001604060002001541515611084565b8115610124573360005260008152816002604060002001556100e08242611077565b903360005260008152816001604060002001556040519283528201527f270517e45d27f999faef5e16a3159117c83577723363227c5901cb52e315d86860403392a2005b6084906040519062461bcd60e51b82526004820152602260248201527f4475726174696f6e206d7573742062652067726561746572207468616e207a65604482015261726f60f01b6064820152fd5b600080fd5b34610173576020366003190112610173576001600160a01b03610199610f71565b16806000526000602052604060002060018101546101b881151561102b565b421061078c576000805b600383015481101561068d576101db81600385016110c0565b90546040516370a0823160e01b8152600481018790529160031b1c6001600160a01b0316602082602481845afa91821561050057600092610659575b5081610228575b50506001016101c2565b604093919293516323b872dd60e01b81528660048201523060248201528360448201526020816064816000865af180156105005761063a575b507f00000000000000000000000000000000000000000000000000000000000000006001600160a01b031681036102a8575060019161029f91611077565b915b908561021e565b6040516370a0823160e01b8152306004820152926020846024817f00000000000000000000000000000000000000000000000000000000000000006001600160a01b03165afa93841561050057600094610606575b5060405163095ea7b360e01b81526001600160a01b037f0000000000000000000000000000000000000000000000000000000000000000166004820152602481018290526020816044816000875af18015610500576105d7575b506040519182606081011067ffffffffffffffff6060850111176105c15760608301604052600283526020830160403682378351156105ab57528151600110156105ab576103fe9160009160018060a01b037f000000000000000000000000000000000000000000000000000000000000000016604083015260405193849283926338ed173960e01b8452600484015284602484015260a0604484015260a4830190610f9b565b3060648301524260848301520381837f00000000000000000000000000000000000000000000000000000000000000006001600160a01b03165af180156105005761050c575b506040516370a0823160e01b8152306004820152916020836024817f00000000000000000000000000000000000000000000000000000000000000006001600160a01b03165afa928315610500576000936104cc575b5082039182116104b6576001916104b091611077565b916102a1565b634e487b7160e01b600052601160045260246000fd5b9092506020813d6020116104f8575b816104e860209383611009565b810103126101735751918661049a565b3d91506104db565b6040513d6000823e3d90fd5b3d806000833e61051c8183611009565b81016020828203126101735781519167ffffffffffffffff83116101735781601f8483010112156101735782810151926020610557856110d8565b6105646040519182611009565b858152019260208560051b83850101011161017357602081830101925b60208560051b8385010101841061059b5750505050610444565b8351815260209384019301610581565b634e487b7160e01b600052603260045260246000fd5b634e487b7160e01b600052604160045260246000fd5b6105f89060203d6020116105ff575b6105f08183611009565b8101906110f0565b5087610357565b503d6105e6565b9093506020813d602011610632575b8161062260209383611009565b81010312610173575192876102fd565b3d9150610615565b6106529060203d6020116105ff576105f08183611009565b5086610261565b9091506020813d602011610685575b8161067560209383611009565b8101031261017357519086610217565b3d9150610668565b509190826106d6575b60006001820155546040519283526001600160a01b0316917fde3f14ce4426137f4576388d16723795d5bf5e2f00597e0e8d63816a7342a1e190602090a3005b805460405163a9059cbb60e01b81526001600160a01b03909116600482015260248101849052906020828060448101038160007f00000000000000000000000000000000000000000000000000000000000000006001600160a01b03165af1908115610500577fde3f14ce4426137f4576388d16723795d5bf5e2f00597e0e8d63816a7342a1e19260209261076f575b50915050610696565b61078590833d85116105ff576105f08183611009565b5085610766565b60405162461bcd60e51b815260206004820152601760248201527f446561646c696e6520686173206e6f74207061737365640000000000000000006044820152606490fd5b34610173576060366003190112610173576107ea610f71565b60443567ffffffffffffffff81116101735761080a903690600401610fd8565b336000526000602052600160406000200154610a9a576001600160a01b03831615610a4657602435156109ed5761084360243542611077565b90604051916080830183811067ffffffffffffffff8211176105c15760405260018060a01b038516835260208301526024356040830152610883816110d8565b926108916040519485611009565b8184526020840190368360051b8201116101735780915b8360051b820183106109d5578686600387606081019283523360005260006020526040806000209160018060a01b038151166bffffffffffffffffffffffff60a01b84541617835560208101516001840155015160028201550190519081519167ffffffffffffffff83116105c157600160401b83116105c15781548383558084106109ac575b5060200190600052602060002060005b83811061098f578461095360243542611077565b6040519081526001600160a01b039091169033907fd4c9fb4a0298b2717518a542bd4801ce0cb35fd35087636887f9e87ad8d75a3f90602090a3005b82516001600160a01b03168183015560209092019160010161093f565b8260005283602060002091820191015b8181106109c9575061092f565b600081556001016109bc565b602080916109e285610f87565b8152019201916108a8565b60405162461bcd60e51b815260206004820152602b60248201527f446561646c696e65206475726174696f6e206d7573742062652067726561746560448201526a72207468616e207a65726f60a81b6064820152608490fd5b60405162461bcd60e51b815260206004820152602660248201527f42656e65666963696172792063616e6e6f7420626520746865207a65726f206160448201526564647265737360d01b6064820152608490fd5b60405162461bcd60e51b815260206004820152601b60248201527f4163636f756e7420616c726561647920696e697469616c697a656400000000006044820152606490fd5b346101735760203660031901126101735760606001600160a01b0380610b03610f71565b16600052600060205260406000209081541690600260018201549101549060405192835260208301526040820152f35b34610173576020806003193601126101735760043567ffffffffffffffff811161017357610b65903690600401610fd8565b909133600052600081526001610b846001604060002001541515611084565b60005b838110610bfc575060405192808385018486525260408401949260005b828110610bd457337fb90857f670e2787419d97e8ad1483239915b735fecc028adf074ef41c09d602c87890388a2005b909192828082969860018060a01b03610bec8b610f87565b1681520197019493929101610ba4565b336000908152808452604090209293919260030190600581901b8601356001600160a01b038116810361017357825490600160401b8210156105c157610c4b82879586610c69950181556110c0565b90919060018060a01b038084549260031b9316831b921b1916179055565b0192919092610b87565b34610173576000366003190112610173576040517f00000000000000000000000000000000000000000000000000000000000000006001600160a01b03168152602090f35b3461017357602036600319011261017357610cd1610f71565b336000526000602052600190610cf06001604060002001541515611084565b3360005260006020528160038060406000200160009360018060a01b03809116955b610d46575b856040519081527f08eac65c9901be8390f0cf78f2ca8d86e706341713377dca39b0472fc07cdd0560203392a2005b815480861015610de6578682610d5c88866110c0565b905490871b1c1614610d7357508380950194610d12565b929491935091600019918282019182116104b657610c4b84610d98610da694886110c0565b905490891b1c1691866110c0565b82548015610dd0570192610dba84846110c0565b81939154921b1b19169055558180808080610d17565b634e487b7160e01b600052603160045260246000fd5b50610d17565b3461017357600036600319011261017357336000526000602052610e19600160406000200154151561102b565b336000526000602052610e3460026040600020015442611077565b336000526000602052806001604060002001556040519081527ff1a463082eff5f74a481d3abd6fc308d976449c50289c0564e946069cb7d880560203392a2005b3461017357602080600319360112610173576001600160a01b0380610e98610f71565b1660005260008252604060002090808254169160019160018201549060036002840154930190604051948588845491828152019360005288600020926000905b8a838310610f18578a610f148b8b8b610ef3838d0384611009565b60405195869586528501526040840152608060608401526080830190610f9b565b0390f35b855482168752909501949383019390830190610ed8565b34610173576000366003190112610173577f00000000000000000000000000000000000000000000000000000000000000006001600160a01b03168152602090f35b600435906001600160a01b038216820361017357565b35906001600160a01b038216820361017357565b90815180825260208080930193019160005b828110610fbb575050505090565b83516001600160a01b031685529381019392810192600101610fad565b9181601f840112156101735782359167ffffffffffffffff8311610173576020808501948460051b01011161017357565b90601f8019910116810190811067ffffffffffffffff8211176105c157604052565b1561103257565b60405162461bcd60e51b815260206004820152601760248201527f4163636f756e74206e6f7420696e697469616c697a65640000000000000000006044820152606490fd5b919082018092116104b657565b1561108b57565b60405162461bcd60e51b815260206004820152600d60248201526c105c9ac81b9bdd08189d5a5b1d609a1b6044820152606490fd5b80548210156105ab5760005260206000200190600090565b67ffffffffffffffff81116105c15760051b60200190565b9081602091031261017357518015158103610173579056fea26469706673582212206e40442ec9f5605499d2029f445e727d3e5de686b37936e0c8eb7ac756406e8964736f6c63430008180033",
  "linkReferences": {},
  "deployedLinkReferences": {}
}