{
  "_format": "hh-sol-artifact-1",
  "contractName": "NoahV4",
  "sourceName": "contracts/NoahV4.sol",
  "abi": [
    {
      "inputs": [
        {
          "internalType": "contract IPoolManager",
          "name": "_poolManager",
          "type": "address"
        },
        {
          "internalType": "address",
          "name": "_usdc",
          "type": "address"
        },
        {
          "internalType": "address",
          "name": "_hook",
          "type": "address"
        }
      ],
      "stateMutability": "nonpayable",
      "type": "constructor"
    },
    {
      "inputs": [
        {
          "internalType": "address",
          "name": "token",
          "type": "address"
        }
      ],
      "name": "SafeERC20FailedOperation",
      "type": "error"
    },
    {
      "anonymous": false,
      "inputs": [
        {
          "indexed": true,
          "internalType": "address",
          "name": "user",
          "type": "address"
        },
        {
          "indexed": true,
          "internalType": "address",
          "name": "beneficiary",
          "type": "address"
        },
        {
          "indexed": false,
          "internalType": "uint256",
          "name": "deadline",
          "type": "uint256"
        }
      ],
      "name": "ArkBuilt",
      "type": "event"
    },
    {
      "anonymous": false,
      "inputs": [
        {
          "indexed": true,
          "internalType": "address",
          "name": "user",
          "type": "address"
        },
        {
          "indexed": false,
          "internalType": "uint256",
          "name": "newDeadline",
          "type": "uint256"
        }
      ],
      "name": "ArkPinged",
      "type": "event"
    },
    {
      "anonymous": false,
      "inputs": [
        {
          "indexed": true,
          "internalType": "address",
          "name": "user",
          "type": "address"
        },
        {
          "indexed": false,
          "internalType": "uint256",
          "name": "newDuration",
          "type": "uint256"
        },
        {
          "indexed": false,
          "internalType": "uint256",
          "name": "newDeadline",
          "type": "uint256"
        }
      ],
      "name": "DeadlineUpdated",
      "type": "event"
    },
    {
      "anonymous": false,
      "inputs": [
        {
          "indexed": true,
          "internalType": "address",
          "name": "user",
          "type": "address"
        },
        {
          "indexed": true,
          "internalType": "address",
          "name": "beneficiary",
          "type": "address"
        },
        {
          "indexed": false,
          "internalType": "uint256",
          "name": "usdcAmount",
          "type": "uint256"
        }
      ],
      "name": "FloodTriggered",
      "type": "event"
    },
    {
      "anonymous": false,
      "inputs": [
        {
          "indexed": true,
          "internalType": "address",
          "name": "user",
          "type": "address"
        },
        {
          "indexed": false,
          "internalType": "address",
          "name": "passenger",
          "type": "address"
        }
      ],
      "name": "PassengerRemoved",
      "type": "event"
    },
    {
      "anonymous": false,
      "inputs": [
        {
          "indexed": true,
          "internalType": "address",
          "name": "user",
          "type": "address"
        },
        {
          "indexed": false,
          "internalType": "address[]",
          "name": "newPassengers",
          "type": "address[]"
        }
      ],
      "name": "PassengersAdded",
      "type": "event"
    },
    {
      "inputs": [
        {
          "internalType": "address[]",
          "name": "_newPassengers",
          "type": "address[]"
        }
      ],
      "name": "addPassengers",
      "outputs": [],
      "stateMutability": "nonpayable",
      "type": "function"
    },
    {
      "inputs": [
        {
          "internalType": "address",
          "name": "",
          "type": "address"
        }
      ],
      "name": "arks",
      "outputs": [
        {
          "internalType": "address",
          "name": "beneficiary",
          "type": "address"
        },
        {
          "internalType": "uint256",
          "name": "deadline",
          "type": "uint256"
        },
        {
          "internalType": "uint256",
          "name": "deadlineDuration",
          "type": "uint256"
        }
      ],
      "stateMutability": "view",
      "type": "function"
    },
    {
      "inputs": [
        {
          "internalType": "address",
          "name": "_beneficiary",
          "type": "address"
        },
        {
          "internalType": "uint256",
          "name": "_deadlineDuration",
          "type": "uint256"
        },
        {
          "internalType": "address[]",
          "name": "_tokens",
          "type": "address[]"
        }
      ],
      "name": "buildArk",
      "outputs": [],
      "stateMutability": "nonpayable",
      "type": "function"
    },
    {
      "inputs": [
        {
          "internalType": "address",
          "name": "_user",
          "type": "address"
        }
      ],
      "name": "flood",
      "outputs": [],
      "stateMutability": "nonpayable",
      "type": "function"
    },
    {
      "inputs": [
        {
          "internalType": "address",
          "name": "user",
          "type": "address"
        }
      ],
      "name": "getArk",
      "outputs": [
        {
          "internalType": "address",
          "name": "beneficiary",
          "type": "address"
        },
        {
          "internalType": "uint256",
          "name": "deadline",
          "type": "uint256"
        },
        {
          "internalType": "uint256",
          "name": "deadlineDuration",
          "type": "uint256"
        },
        {
          "internalType": "address[]",
          "name": "tokens",
          "type": "address[]"
        }
      ],
      "stateMutability": "view",
      "type": "function"
    },
    {
      "inputs": [],
      "name": "hookAddress",
      "outputs": [
        {
          "internalType": "address",
          "name": "",
          "type": "address"
        }
      ],
      "stateMutability": "view",
      "type": "function"
    },
    {
      "inputs": [],
      "name": "pingArk",
      "outputs": [],
      "stateMutability": "nonpayable",
      "type": "function"
    },
    {
      "inputs": [],
      "name": "poolManager",
      "outputs": [
        {
          "internalType": "contract IPoolManager",
          "name": "",
          "type": "address"
        }
      ],
      "stateMutability": "view",
      "type": "function"
    },
    {
      "inputs": [
        {
          "internalType": "BalanceDelta",
          "name": "delta",
          "type": "int256"
        },
        {
          "internalType": "bytes",
          "name": "data",
          "type": "bytes"
        }
      ],
      "name": "poolManagerSwapCallback",
      "outputs": [
        {
          "internalType": "bytes",
          "name": "",
          "type": "bytes"
        }
      ],
      "stateMutability": "nonpayable",
      "type": "function"
    },
    {
      "inputs": [
        {
          "internalType": "address",
          "name": "_passengerToRemove",
          "type": "address"
        }
      ],
      "name": "removePassenger",
      "outputs": [],
      "stateMutability": "nonpayable",
      "type": "function"
    },
    {
      "inputs": [
        {
          "internalType": "uint256",
          "name": "_newDuration",
          "type": "uint256"
        }
      ],
      "name": "updateDeadlineDuration",
      "outputs": [],
      "stateMutability": "nonpayable",
      "type": "function"
    },
    {
      "inputs": [],
      "name": "usdcAddress",
      "outputs": [
        {
          "internalType": "address",
          "name": "",
          "type": "address"
        }
      ],
      "stateMutability": "view",
      "type": "function"
    }
  ],
  "bytecode": "0x60e0346100ce57601f6113d438819003918201601f19168301916001600160401b038311848410176100d3578084926060946040528339810103126100ce578051906001600160a01b03821682036100ce576100696040610062602084016100e9565b92016100e9565b9160805260a05260c0526040516112d690816100fe82396080518181816102d4015281816104a9015281816106b70152610a79015260a0518181816102080152818161034601528181610b630152611095015260c0518181816103850152610eed0152f35b600080fd5b634e487b7160e01b600052604160045260246000fd5b51906001600160a01b03821682036100ce5756fe608080604052600436101561001357600080fd5b60003560e01c90816302d45457146110825750806305688c1c14610fa55780630fe23da914610f1c57806332a3cf9614610ed7578063454d58d214610d8d5780637900001314610c4d57806388b2187214610bf9578063afa9862a14610a23578063b1ad599d146106e6578063dc4c90d3146106a1578063f2511bb11461018e5763fabb6a38146100a357600080fd5b3461018957602080600319360112610189576004359033600052600081526100d460016040600020015415156111da565b811561013a573360005260008152816002604060002001556100f682426111cd565b903360005260008152816001604060002001556040519283528201527f270517e45d27f999faef5e16a3159117c83577723363227c5901cb52e315d86860403392a2005b6084906040519062461bcd60e51b82526004820152602260248201527f4475726174696f6e206d7573742062652067726561746572207468616e207a65604482015261726f60f01b6064820152fd5b600080fd5b34610189576020366003190112610189576001600160a01b036101af6110c4565b1680600052600060205260406000209060018201546101cf811515611181565b421061065c576000805b600384015481101561061a576101f28160038601611216565b90546001600160a01b0360039290921b1c8116907f0000000000000000000000000000000000000000000000000000000000000000168114610611576040516370a0823160e01b815260048101859052602081602481855afa908115610585576000916105df575b508061026d575b50506001905b016101d9565b6040516323b872dd60e01b6020820152856024820152306044820152816064820152606481528060a081011067ffffffffffffffff60a083011117610591578060a06102bd920160405283611244565b60405163095ea7b360e01b81526001600160a01b037f0000000000000000000000000000000000000000000000000000000000000000166004820152602481018290526020816044816000875af18015610585576105a7575b50604051918260a081011067ffffffffffffffff60a0850111176105915760a08301604052825260018060a01b037f0000000000000000000000000000000000000000000000000000000000000000166020830152610bb86040830152606091603c8382015260018060a01b037f000000000000000000000000000000000000000000000000000000000000000016608082015260405191828481011067ffffffffffffffff8585011117610591578383016040526001835260208301526000604083015260018060a01b03875416926040519360208501526020845283604081011067ffffffffffffffff604086011117610591576040848101808252633cf3645360e21b815283516001600160a01b039081166044880152602080860151821660648901528584015162ffffff1660848901529385015160020b60a4880152608090940151841660c48701528451151560e48701528483015161010487015293015190911661012484015261012061014484015290603f198361049f61016482018261111f565b03016040840160007f00000000000000000000000000000000000000000000000000000000000000006001600160a01b03165af19081156105855760009161054d575b50600f908060801d600092600083820b136000146105285750506001600160801b039150165b80610514575b80610261565b61052190600192936111cd565b919061050e565b819250906000910b1361053c575b50610508565b6001600160801b0391501685610536565b90506020813d60201161057d575b8161056b6020936040840161115f565b810103126101895760400151856104e2565b3d915061055b565b6040513d6000823e3d90fd5b634e487b7160e01b600052604160045260246000fd5b6020813d6020116105d7575b816105c06020938361115f565b810103126101895751801515036101895786610316565b3d91506105b3565b90506020813d602011610609575b816105fa6020938361115f565b8101031261018957518661025a565b3d91506105ed565b50600190610267565b506000600184015591546040519283526001600160a01b0316917fde3f14ce4426137f4576388d16723795d5bf5e2f00597e0e8d63816a7342a1e190602090a3005b60405162461bcd60e51b815260206004820152601760248201527f446561646c696e6520686173206e6f74207061737365640000000000000000006044820152606490fd5b34610189576000366003190112610189576040517f00000000000000000000000000000000000000000000000000000000000000006001600160a01b03168152602090f35b34610189576060366003190112610189576106ff6110c4565b60249060443567ffffffffffffffff8111610189576107229036906004016110ee565b9190923360005260006020526001604060002001546109df576001600160a01b0382161561098c578035156109345761075c8135426111cd565b604051906080820182811067ffffffffffffffff82111761091f5760409081526001600160a01b03851683526020830191825283359083019081529067ffffffffffffffff861161091f578560051b96604051966107bd60208a018961115f565b8752602087019781019036821161018957975b81891061090757505090829160606003940196875233600052600060205260406000209260018060a01b039051166bffffffffffffffffffffffff60a01b84541617835551600183015551600282015501925180519067ffffffffffffffff82116108f257600160401b82116108f25784548286558083106108c9575b5060200193600052602060002060005b8281106108ac57846108708535426111cd565b6040519081526001600160a01b039091169033907fd4c9fb4a0298b2717518a542bd4801ce0cb35fd35087636887f9e87ad8d75a3f90602090a3005b85516001600160a01b03168183015560209095019460010161085d565b8560005282602060002091820191015b8181106108e6575061084d565b600081556001016108d9565b82634e487b7160e01b60005260416004526000fd5b602080916109148b6110da565b8152019801976107d0565b83634e487b7160e01b60005260416004526000fd5b608490602b6040519162461bcd60e51b8352602060048401528201527f446561646c696e65206475726174696f6e206d7573742062652067726561746560448201526a72207468616e207a65726f60a81b6064820152fd5b60849060266040519162461bcd60e51b8352602060048401528201527f42656e65666963696172792063616e6e6f7420626520746865207a65726f206160448201526564647265737360d01b6064820152fd5b606490601b6040519162461bcd60e51b8352602060048401528201527f4163636f756e7420616c726561647920696e697469616c697a656400000000006044820152fd5b3461018957604036600319011261018957602467ffffffffffffffff81356004358282116101895736602383011215610189578160040135838111610189578201913685840111610189576001600160a01b03927f000000000000000000000000000000000000000000000000000000000000000084163303610bb5578160209103126101895784013591808316809303610189578160801d91600092600082600f0b13600014610b9057506001600160801b031691505b81610b1b575b5050604051916020830191508111828210176108f257610b1792506040526000815260405191829160208352602083019061111f565b0390f35b6040805163a9059cbb60e01b6020808301919091526001600160a01b0390951687820190815294850193909352610b8893610b619184910103601f19810184528361115f565b7f000000000000000000000000000000000000000000000000000000000000000016611244565b828080610ae1565b9050600081600f0b13610ba4575b50610adb565b6001600160801b0316915085610b9e565b60405162461bcd60e51b815260206004820152601e818801527f4f6e6c7920506f6f6c4d616e616765722063616e2063616c6c207468697300006044820152606490fd5b346101895760203660031901126101895760606001600160a01b0380610c1d6110c4565b16600052600060205260406000209081541690600260018201549101549060405192835260208301526040820152f35b34610189576020806003193601126101895760043567ffffffffffffffff811161018957610c7f9036906004016110ee565b909133600052600081526001610c9e60016040600020015415156111da565b60005b838110610d16575060405192808385018486525260408401949260005b828110610cee57337fb90857f670e2787419d97e8ad1483239915b735fecc028adf074ef41c09d602c87890388a2005b909192828082969860018060a01b03610d068b6110da565b1681520197019493929101610cbe565b336000908152808452604090209293919260030190600581901b8601356001600160a01b038116810361018957825490600160401b82101561059157610d6582879586610d8395018155611216565b90919060018060a01b038084549260031b9316831b921b1916179055565b0192919092610ca1565b3461018957602036600319011261018957610da66110c4565b336000526000602052600190610dc560016040600020015415156111da565b3360005260006020528160038060406000200160009360018060a01b03809116955b610e1b575b856040519081527f08eac65c9901be8390f0cf78f2ca8d86e706341713377dca39b0472fc07cdd0560203392a2005b815480861015610ed1578682610e318886611216565b905490871b1c1614610e4857508380950194610de7565b92949193509160001991828201918211610ebb57610d6584610e6d610e7b9488611216565b905490891b1c169186611216565b82548015610ea5570192610e8f8484611216565b81939154921b1b19169055558180808080610dec565b634e487b7160e01b600052603160045260246000fd5b634e487b7160e01b600052601160045260246000fd5b50610dec565b34610189576000366003190112610189576040517f00000000000000000000000000000000000000000000000000000000000000006001600160a01b03168152602090f35b3461018957600036600319011261018957336000526000602052610f496001604060002001541515611181565b336000526000602052610f64600260406000200154426111cd565b336000526000602052806001604060002001556040519081527ff1a463082eff5f74a481d3abd6fc308d976449c50289c0564e946069cb7d880560203392a2005b3461018957602080600319360112610189576001600160a01b039081610fc96110c4565b166000526000815260406000209180835416906001916001850154936003600287015496019560405190818389549182815201908199600052846000209060005b81811061106d575050508261102091038361115f565b6040519660808801948852838801526040870152608060608701525180925260a0850195926000905b8382106110565786880387f35b845181168852968201969382019390850190611049565b8254891684529286019291890191890161100a565b34610189576000366003190112610189577f00000000000000000000000000000000000000000000000000000000000000006001600160a01b03168152602090f35b600435906001600160a01b038216820361018957565b35906001600160a01b038216820361018957565b9181601f840112156101895782359167ffffffffffffffff8311610189576020808501948460051b01011161018957565b919082519283825260005b84811061114b575050826000602080949584010152601f8019910116010190565b60208183018101518483018201520161112a565b90601f8019910116810190811067ffffffffffffffff82111761059157604052565b1561118857565b60405162461bcd60e51b815260206004820152601760248201527f4163636f756e74206e6f7420696e697469616c697a65640000000000000000006044820152606490fd5b91908201809211610ebb57565b156111e157565b60405162461bcd60e51b815260206004820152600d60248201526c105c9ac81b9bdd08189d5a5b1d609a1b6044820152606490fd5b805482101561122e5760005260206000200190600090565b634e487b7160e01b600052603260045260246000fd5b906000602091828151910182855af115610585576000513d61129757506001600160a01b0381163b155b6112755750565b604051635274afe760e01b81526001600160a01b039091166004820152602490fd5b6001141561126e56fea2646970667358221220891aaba8129cbca0150651758355fb52273c1321612dc4de0eabf144cc40d50064736f6c63430008180033",
  "linkReferences": {},
  "deployedLinkReferences": {}
}