{
  "_format": "hh-sol-artifact-1",
  "contractName": "NoahV4",
  "sourceName": "contracts/NoahV4.sol",
  "abi": [
    {
      "inputs": [
        {
          "internalType": "contract IPoolManager",
          "name": "_poolManager",
          "type": "address"
        },
        {
          "internalType": "address",
          "name": "_usdc",
          "type": "address"
        },
        {
          "internalType": "address",
          "name": "_pyrusd",
          "type": "address"
        },
        {
          "internalType": "address",
          "name": "_hook",
          "type": "address"
        }
      ],
      "stateMutability": "nonpayable",
      "type": "constructor"
    },
    {
      "inputs": [
        {
          "internalType": "address",
          "name": "token",
          "type": "address"
        }
      ],
      "name": "SafeERC20FailedOperation",
      "type": "error"
    },
    {
      "anonymous": false,
      "inputs": [
        {
          "indexed": true,
          "internalType": "address",
          "name": "user",
          "type": "address"
        },
        {
          "indexed": true,
          "internalType": "address",
          "name": "beneficiary",
          "type": "address"
        },
        {
          "indexed": false,
          "internalType": "uint256",
          "name": "deadline",
          "type": "uint256"
        }
      ],
      "name": "ArkBuilt",
      "type": "event"
    },
    {
      "anonymous": false,
      "inputs": [
        {
          "indexed": true,
          "internalType": "address",
          "name": "user",
          "type": "address"
        },
        {
          "indexed": false,
          "internalType": "uint256",
          "name": "newDeadline",
          "type": "uint256"
        }
      ],
      "name": "ArkPinged",
      "type": "event"
    },
    {
      "anonymous": false,
      "inputs": [
        {
          "indexed": true,
          "internalType": "address",
          "name": "user",
          "type": "address"
        },
        {
          "indexed": false,
          "internalType": "bool",
          "name": "useDutchAuction",
          "type": "bool"
        }
      ],
      "name": "AuctionPreferenceUpdated",
      "type": "event"
    },
    {
      "anonymous": false,
      "inputs": [
        {
          "indexed": true,
          "internalType": "address",
          "name": "user",
          "type": "address"
        },
        {
          "indexed": true,
          "internalType": "address",
          "name": "newBeneficiary",
          "type": "address"
        }
      ],
      "name": "BeneficiaryUpdated",
      "type": "event"
    },
    {
      "anonymous": false,
      "inputs": [
        {
          "indexed": true,
          "internalType": "address",
          "name": "user",
          "type": "address"
        },
        {
          "indexed": false,
          "internalType": "uint256",
          "name": "newDuration",
          "type": "uint256"
        },
        {
          "indexed": false,
          "internalType": "uint256",
          "name": "newDeadline",
          "type": "uint256"
        }
      ],
      "name": "DeadlineUpdated",
      "type": "event"
    },
    {
      "anonymous": false,
      "inputs": [
        {
          "indexed": true,
          "internalType": "address",
          "name": "user",
          "type": "address"
        },
        {
          "indexed": true,
          "internalType": "address",
          "name": "token",
          "type": "address"
        },
        {
          "indexed": false,
          "internalType": "address",
          "name": "bidder",
          "type": "address"
        },
        {
          "indexed": false,
          "internalType": "uint256",
          "name": "bidAmount",
          "type": "uint256"
        },
        {
          "indexed": false,
          "internalType": "uint256",
          "name": "currentPrice",
          "type": "uint256"
        }
      ],
      "name": "DutchAuctionBid",
      "type": "event"
    },
    {
      "anonymous": false,
      "inputs": [
        {
          "indexed": true,
          "internalType": "address",
          "name": "user",
          "type": "address"
        },
        {
          "indexed": true,
          "internalType": "address",
          "name": "token",
          "type": "address"
        },
        {
          "indexed": false,
          "internalType": "address",
          "name": "winner",
          "type": "address"
        },
        {
          "indexed": false,
          "internalType": "uint256",
          "name": "amount",
          "type": "uint256"
        },
        {
          "indexed": false,
          "internalType": "address",
          "name": "beneficiary",
          "type": "address"
        }
      ],
      "name": "DutchAuctionSettled",
      "type": "event"
    },
    {
      "anonymous": false,
      "inputs": [
        {
          "indexed": true,
          "internalType": "address",
          "name": "user",
          "type": "address"
        },
        {
          "indexed": true,
          "internalType": "address",
          "name": "token",
          "type": "address"
        },
        {
          "indexed": false,
          "internalType": "uint256",
          "name": "startPrice",
          "type": "uint256"
        },
        {
          "indexed": false,
          "internalType": "uint256",
          "name": "endPrice",
          "type": "uint256"
        },
        {
          "indexed": false,
          "internalType": "uint256",
          "name": "duration",
          "type": "uint256"
        }
      ],
      "name": "DutchAuctionStarted",
      "type": "event"
    },
    {
      "anonymous": false,
      "inputs": [
        {
          "indexed": true,
          "internalType": "address",
          "name": "user",
          "type": "address"
        },
        {
          "indexed": false,
          "internalType": "string",
          "name": "customerId",
          "type": "string"
        },
        {
          "indexed": false,
          "internalType": "string",
          "name": "paymentAccountId",
          "type": "string"
        }
      ],
      "name": "FernInfoSaved",
      "type": "event"
    },
    {
      "anonymous": false,
      "inputs": [
        {
          "indexed": true,
          "internalType": "address",
          "name": "token",
          "type": "address"
        },
        {
          "indexed": true,
          "internalType": "address",
          "name": "to",
          "type": "address"
        },
        {
          "indexed": false,
          "internalType": "uint256",
          "name": "amount",
          "type": "uint256"
        }
      ],
      "name": "FernOfframped",
      "type": "event"
    },
    {
      "anonymous": false,
      "inputs": [
        {
          "indexed": true,
          "internalType": "address",
          "name": "provider",
          "type": "address"
        }
      ],
      "name": "FlareDataProviderUpdated",
      "type": "event"
    },
    {
      "anonymous": false,
      "inputs": [
        {
          "indexed": true,
          "internalType": "address",
          "name": "token",
          "type": "address"
        },
        {
          "indexed": false,
          "internalType": "bytes21",
          "name": "feedId",
          "type": "bytes21"
        }
      ],
      "name": "FlareFeedIdUpdated",
      "type": "event"
    },
    {
      "anonymous": false,
      "inputs": [
        {
          "indexed": true,
          "internalType": "address",
          "name": "user",
          "type": "address"
        },
        {
          "indexed": true,
          "internalType": "address",
          "name": "beneficiary",
          "type": "address"
        },
        {
          "indexed": false,
          "internalType": "uint256",
          "name": "usdcAmount",
          "type": "uint256"
        }
      ],
      "name": "FloodTriggered",
      "type": "event"
    },
    {
      "anonymous": false,
      "inputs": [
        {
          "indexed": true,
          "internalType": "address",
          "name": "user",
          "type": "address"
        },
        {
          "indexed": true,
          "internalType": "address",
          "name": "beneficiary",
          "type": "address"
        },
        {
          "indexed": false,
          "internalType": "uint256",
          "name": "amount",
          "type": "uint256"
        }
      ],
      "name": "PYUSDClaimed",
      "type": "event"
    },
    {
      "anonymous": false,
      "inputs": [
        {
          "indexed": true,
          "internalType": "address",
          "name": "user",
          "type": "address"
        },
        {
          "indexed": false,
          "internalType": "address",
          "name": "passenger",
          "type": "address"
        }
      ],
      "name": "PassengerRemoved",
      "type": "event"
    },
    {
      "anonymous": false,
      "inputs": [
        {
          "indexed": true,
          "internalType": "address",
          "name": "user",
          "type": "address"
        },
        {
          "indexed": false,
          "internalType": "address[]",
          "name": "newPassengers",
          "type": "address[]"
        }
      ],
      "name": "PassengersAdded",
      "type": "event"
    },
    {
      "anonymous": false,
      "inputs": [
        {
          "indexed": true,
          "internalType": "address",
          "name": "token",
          "type": "address"
        },
        {
          "indexed": true,
          "internalType": "address",
          "name": "priceFeed",
          "type": "address"
        }
      ],
      "name": "PriceFeedUpdated",
      "type": "event"
    },
    {
      "anonymous": false,
      "inputs": [
        {
          "indexed": true,
          "internalType": "address",
          "name": "user",
          "type": "address"
        },
        {
          "indexed": false,
          "internalType": "bool",
          "name": "usePYUSD",
          "type": "bool"
        }
      ],
      "name": "TargetCurrencyPreferenceUpdated",
      "type": "event"
    },
    {
      "inputs": [
        {
          "internalType": "address[]",
          "name": "_newPassengers",
          "type": "address[]"
        }
      ],
      "name": "addPassengers",
      "outputs": [],
      "stateMutability": "nonpayable",
      "type": "function"
    },
    {
      "inputs": [],
      "name": "admin",
      "outputs": [
        {
          "internalType": "address",
          "name": "",
          "type": "address"
        }
      ],
      "stateMutability": "view",
      "type": "function"
    },
    {
      "inputs": [
        {
          "internalType": "address",
          "name": "",
          "type": "address"
        }
      ],
      "name": "arks",
      "outputs": [
        {
          "internalType": "address",
          "name": "beneficiary",
          "type": "address"
        },
        {
          "internalType": "uint256",
          "name": "deadline",
          "type": "uint256"
        },
        {
          "internalType": "uint256",
          "name": "deadlineDuration",
          "type": "uint256"
        },
        {
          "internalType": "bool",
          "name": "useDutchAuction",
          "type": "bool"
        },
        {
          "internalType": "bool",
          "name": "usePYUSD",
          "type": "bool"
        }
      ],
      "stateMutability": "view",
      "type": "function"
    },
    {
      "inputs": [
        {
          "internalType": "address",
          "name": "",
          "type": "address"
        },
        {
          "internalType": "address",
          "name": "",
          "type": "address"
        }
      ],
      "name": "auctions",
      "outputs": [
        {
          "internalType": "address",
          "name": "token",
          "type": "address"
        },
        {
          "internalType": "uint256",
          "name": "startPrice",
          "type": "uint256"
        },
        {
          "internalType": "uint256",
          "name": "endPrice",
          "type": "uint256"
        },
        {
          "internalType": "uint256",
          "name": "startTime",
          "type": "uint256"
        },
        {
          "internalType": "uint256",
          "name": "duration",
          "type": "uint256"
        },
        {
          "internalType": "bool",
          "name": "active",
          "type": "bool"
        },
        {
          "internalType": "address",
          "name": "highestBidder",
          "type": "address"
        },
        {
          "internalType": "uint256",
          "name": "highestBid",
          "type": "uint256"
        }
      ],
      "stateMutability": "view",
      "type": "function"
    },
    {
      "inputs": [
        {
          "internalType": "address",
          "name": "_user",
          "type": "address"
        },
        {
          "internalType": "address",
          "name": "_token",
          "type": "address"
        },
        {
          "internalType": "uint256",
          "name": "_bidAmount",
          "type": "uint256"
        }
      ],
      "name": "bidOnDutchAuction",
      "outputs": [],
      "stateMutability": "nonpayable",
      "type": "function"
    },
    {
      "inputs": [
        {
          "internalType": "address",
          "name": "_beneficiary",
          "type": "address"
        },
        {
          "internalType": "uint256",
          "name": "_deadlineDuration",
          "type": "uint256"
        },
        {
          "internalType": "address[]",
          "name": "_tokens",
          "type": "address[]"
        },
        {
          "internalType": "bool",
          "name": "_useDutchAuction",
          "type": "bool"
        },
        {
          "internalType": "bool",
          "name": "_usePYUSD",
          "type": "bool"
        }
      ],
      "name": "buildArk",
      "outputs": [],
      "stateMutability": "nonpayable",
      "type": "function"
    },
    {
      "inputs": [
        {
          "internalType": "address",
          "name": "_beneficiary",
          "type": "address"
        },
        {
          "internalType": "uint256",
          "name": "_deadlineDuration",
          "type": "uint256"
        },
        {
          "internalType": "address[]",
          "name": "_tokens",
          "type": "address[]"
        },
        {
          "internalType": "bool",
          "name": "_useDutchAuction",
          "type": "bool"
        },
        {
          "internalType": "bool",
          "name": "_usePYUSD",
          "type": "bool"
        },
        {
          "internalType": "string",
          "name": "_customerId",
          "type": "string"
        },
        {
          "internalType": "string",
          "name": "_paymentAccountId",
          "type": "string"
        }
      ],
      "name": "buildArkWithFern",
      "outputs": [],
      "stateMutability": "nonpayable",
      "type": "function"
    },
    {
      "inputs": [
        {
          "internalType": "address",
          "name": "",
          "type": "address"
        }
      ],
      "name": "fernInfos",
      "outputs": [
        {
          "internalType": "string",
          "name": "customerId",
          "type": "string"
        },
        {
          "internalType": "string",
          "name": "paymentAccountId",
          "type": "string"
        }
      ],
      "stateMutability": "view",
      "type": "function"
    },
    {
      "inputs": [
        {
          "internalType": "address",
          "name": "_token",
          "type": "address"
        },
        {
          "internalType": "address",
          "name": "_to",
          "type": "address"
        },
        {
          "internalType": "uint256",
          "name": "_amount",
          "type": "uint256"
        }
      ],
      "name": "fernOfframp",
      "outputs": [],
      "stateMutability": "nonpayable",
      "type": "function"
    },
    {
      "inputs": [],
      "name": "flareDataProvider",
      "outputs": [
        {
          "internalType": "address",
          "name": "",
          "type": "address"
        }
      ],
      "stateMutability": "view",
      "type": "function"
    },
    {
      "inputs": [
        {
          "internalType": "address",
          "name": "",
          "type": "address"
        }
      ],
      "name": "flareFeedIds",
      "outputs": [
        {
          "internalType": "bytes21",
          "name": "",
          "type": "bytes21"
        }
      ],
      "stateMutability": "view",
      "type": "function"
    },
    {
      "inputs": [
        {
          "internalType": "address",
          "name": "_user",
          "type": "address"
        }
      ],
      "name": "flood",
      "outputs": [],
      "stateMutability": "nonpayable",
      "type": "function"
    },
    {
      "inputs": [
        {
          "internalType": "address",
          "name": "user",
          "type": "address"
        }
      ],
      "name": "getArk",
      "outputs": [
        {
          "internalType": "address",
          "name": "beneficiary",
          "type": "address"
        },
        {
          "internalType": "uint256",
          "name": "deadline",
          "type": "uint256"
        },
        {
          "internalType": "uint256",
          "name": "deadlineDuration",
          "type": "uint256"
        },
        {
          "internalType": "address[]",
          "name": "tokens",
          "type": "address[]"
        },
        {
          "internalType": "bool",
          "name": "useDutchAuction",
          "type": "bool"
        },
        {
          "internalType": "bool",
          "name": "usePYUSD",
          "type": "bool"
        }
      ],
      "stateMutability": "view",
      "type": "function"
    },
    {
      "inputs": [
        {
          "internalType": "address",
          "name": "_token",
          "type": "address"
        }
      ],
      "name": "getAverageUsdPrice",
      "outputs": [
        {
          "internalType": "uint256",
          "name": "",
          "type": "uint256"
        }
      ],
      "stateMutability": "view",
      "type": "function"
    },
    {
      "inputs": [
        {
          "internalType": "address",
          "name": "_user",
          "type": "address"
        },
        {
          "internalType": "address",
          "name": "_token",
          "type": "address"
        }
      ],
      "name": "getCurrentAuctionPrice",
      "outputs": [
        {
          "internalType": "uint256",
          "name": "currentPrice",
          "type": "uint256"
        }
      ],
      "stateMutability": "view",
      "type": "function"
    },
    {
      "inputs": [
        {
          "internalType": "address",
          "name": "_token",
          "type": "address"
        }
      ],
      "name": "getTokenPrice",
      "outputs": [
        {
          "internalType": "uint256",
          "name": "price",
          "type": "uint256"
        }
      ],
      "stateMutability": "view",
      "type": "function"
    },
    {
      "inputs": [
        {
          "internalType": "address",
          "name": "_token",
          "type": "address"
        }
      ],
      "name": "hasPriceFeed",
      "outputs": [
        {
          "internalType": "bool",
          "name": "",
          "type": "bool"
        }
      ],
      "stateMutability": "view",
      "type": "function"
    },
    {
      "inputs": [],
      "name": "hookAddress",
      "outputs": [
        {
          "internalType": "address",
          "name": "",
          "type": "address"
        }
      ],
      "stateMutability": "view",
      "type": "function"
    },
    {
      "inputs": [],
      "name": "pingArk",
      "outputs": [],
      "stateMutability": "nonpayable",
      "type": "function"
    },
    {
      "inputs": [],
      "name": "poolManager",
      "outputs": [
        {
          "internalType": "contract IPoolManager",
          "name": "",
          "type": "address"
        }
      ],
      "stateMutability": "view",
      "type": "function"
    },
    {
      "inputs": [
        {
          "internalType": "BalanceDelta",
          "name": "delta",
          "type": "int256"
        },
        {
          "internalType": "bytes",
          "name": "data",
          "type": "bytes"
        }
      ],
      "name": "poolManagerSwapCallback",
      "outputs": [
        {
          "internalType": "bytes",
          "name": "",
          "type": "bytes"
        }
      ],
      "stateMutability": "nonpayable",
      "type": "function"
    },
    {
      "inputs": [
        {
          "internalType": "address",
          "name": "",
          "type": "address"
        }
      ],
      "name": "priceFeeds",
      "outputs": [
        {
          "internalType": "address",
          "name": "",
          "type": "address"
        }
      ],
      "stateMutability": "view",
      "type": "function"
    },
    {
      "inputs": [],
      "name": "pyrusdAddress",
      "outputs": [
        {
          "internalType": "address",
          "name": "",
          "type": "address"
        }
      ],
      "stateMutability": "view",
      "type": "function"
    },
    {
      "inputs": [
        {
          "internalType": "address",
          "name": "_passengerToRemove",
          "type": "address"
        }
      ],
      "name": "removePassenger",
      "outputs": [],
      "stateMutability": "nonpayable",
      "type": "function"
    },
    {
      "inputs": [
        {
          "internalType": "string",
          "name": "_customerId",
          "type": "string"
        },
        {
          "internalType": "string",
          "name": "_paymentAccountId",
          "type": "string"
        }
      ],
      "name": "setFernInfo",
      "outputs": [],
      "stateMutability": "nonpayable",
      "type": "function"
    },
    {
      "inputs": [
        {
          "internalType": "address",
          "name": "_provider",
          "type": "address"
        }
      ],
      "name": "setFlareDataProvider",
      "outputs": [],
      "stateMutability": "nonpayable",
      "type": "function"
    },
    {
      "inputs": [
        {
          "internalType": "address",
          "name": "_token",
          "type": "address"
        },
        {
          "internalType": "bytes21",
          "name": "_feedId",
          "type": "bytes21"
        }
      ],
      "name": "setFlareFeedId",
      "outputs": [],
      "stateMutability": "nonpayable",
      "type": "function"
    },
    {
      "inputs": [
        {
          "internalType": "address",
          "name": "_token",
          "type": "address"
        },
        {
          "internalType": "address",
          "name": "_priceFeed",
          "type": "address"
        }
      ],
      "name": "setPriceFeed",
      "outputs": [],
      "stateMutability": "nonpayable",
      "type": "function"
    },
    {
      "inputs": [
        {
          "internalType": "address",
          "name": "_user",
          "type": "address"
        },
        {
          "internalType": "address",
          "name": "_token",
          "type": "address"
        }
      ],
      "name": "settleDutchAuction",
      "outputs": [],
      "stateMutability": "nonpayable",
      "type": "function"
    },
    {
      "inputs": [
        {
          "internalType": "address",
          "name": "_newAdmin",
          "type": "address"
        }
      ],
      "name": "transferAdmin",
      "outputs": [],
      "stateMutability": "nonpayable",
      "type": "function"
    },
    {
      "inputs": [
        {
          "internalType": "bool",
          "name": "_useDutchAuction",
          "type": "bool"
        }
      ],
      "name": "updateAuctionPreference",
      "outputs": [],
      "stateMutability": "nonpayable",
      "type": "function"
    },
    {
      "inputs": [
        {
          "internalType": "address",
          "name": "_newBeneficiary",
          "type": "address"
        }
      ],
      "name": "updateBeneficiary",
      "outputs": [],
      "stateMutability": "nonpayable",
      "type": "function"
    },
    {
      "inputs": [
        {
          "internalType": "uint256",
          "name": "_newDuration",
          "type": "uint256"
        }
      ],
      "name": "updateDeadlineDuration",
      "outputs": [],
      "stateMutability": "nonpayable",
      "type": "function"
    },
    {
      "inputs": [
        {
          "internalType": "bool",
          "name": "_usePYUSD",
          "type": "bool"
        }
      ],
      "name": "updateTargetCurrencyPreference",
      "outputs": [],
      "stateMutability": "nonpayable",
      "type": "function"
    },
    {
      "inputs": [],
      "name": "usdcAddress",
      "outputs": [
        {
          "internalType": "address",
          "name": "",
          "type": "address"
        }
      ],
      "stateMutability": "view",
      "type": "function"
    }
  ],
  "bytecode": "0x610100346200015b57601f620039bd38819003918201601f19168301916001600160401b0383118484101762000160578084926080946040528339810103126200015b578051906001600160a01b03821682036200015b57620000656020820162000176565b620000816060620000796040850162000176565b930162000176565b60809390935260a05260c05260e052600380546001600160a01b0319163317905560405161383190816200018c823960805181818161096b01528181610ac501528181610b5701528181610cd501528181610f3401526115a1015260a0518181816104370152818161059b015281816108d4015281816109cf01528181610a6201528181610b9601528181610c0d015281816129c00152612bd7015260c0518181816103ad01528181610bd301528181610ea101528181611ba901526127ce015260e051818181610a0901528181610c4c015261215b0152f35b600080fd5b634e487b7160e01b600052604160045260246000fd5b51906001600160a01b03821682036200015b5756fe6080604052600436101561001257600080fd5b6000803560e01c8062f3c83214612c0657806302d4545714612bc157806305688c1c14612aca57806309e9b89f14612a1e5780630a50960d1461273d5780630aaffd2a146126715780630b7983a2146126345780630fe23da9146125b0578063162a58f21461227557806318242941146121d45780632c51ede41461218a57806332a3cf9614612145578063454d58d214612015578063500994c514611f8d5780636403b1df14611f21578063642e084e14611e9857806375829def14611e0757806376e1128614611d255780637900001314611c055780637a08d73014611bd85780637e923b7214611b9357806386da96ca14611b6a57806388b2187214611af757806388e63a0f146117395780639dcb511a146116fe5780639e7efb20146116d2578063afa9862a1461155e578063b92ce37914611431578063d02641a0146112f4578063daa12a3614610f63578063dc4c90d314610f1e578063f2511bb114610514578063f76e3696146102ae578063f851a440146102855763fabb6a381461019d57600080fd5b346102825760208060031936011261027e5760043590338352600481526101cc60016040852001541515613055565b811561022f57338352600481528160026040852001556101ec8242613032565b90338452600481528160016040862001556040519283528201527f270517e45d27f999faef5e16a3159117c83577723363227c5901cb52e315d86860403392a280f35b6084906040519062461bcd60e51b82526004820152602260248201527f4475726174696f6e206d7573742062652067726561746572207468616e207a65604482015261726f60f01b6064820152fd5b5080fd5b80fd5b50346102825780600319360112610282576003546040516001600160a01b039091168152602090f35b5034610282576102bd36612f1a565b60018060a09493941b03809216918285526020916005835281604087209516948560005283526040600020600581016102f960ff825416612ff1565b600382015460048301549061030e8282613032565b4210156104df57841561048e579061034e61032c61035493426131f2565b916103496001870154936103446002890154866131f2565b613243565b613256565b906131f2565b9384841061045b579260066060959361040a83947f703f9d09ecb9c1cb479797ac961a23f831480452f96fb5cdfe420b352742a464999760ff8e8d815260048b526004604082200154905060081c1660001461043457807f00000000000000000000000000000000000000000000000000000000000000005b16906103db87303385613731565b825460081c16908161041f575b50508054610100600160a81b0319163360081b610100600160a81b0316179055565b0155604051923384528301526040820152a380f35b61042d9186860154916135fd565b38806103e8565b807f00000000000000000000000000000000000000000000000000000000000000006103cd565b60405162461bcd60e51b815260048101879052600b60248201526a42696420746f6f206c6f7760a81b6044820152606490fd5b60405162461bcd60e51b8152600481018890526024808201527f42696420616d6f756e74206d7573742062652067726561746572207468616e206044820152637a65726f60e01b6064820152608490fd5b60405162461bcd60e51b815260048101889052600d60248201526c105d58dd1a5bdb88195b991959609a1b6044820152606490fd5b50346102825760203660031901126102825761052e612cbf565b6001600160a01b03811682526004602052604082206001810154909190610556811515613091565b4210610ed957600482015460ff16156108a057825b60038301548110156108565761058481600385016131c4565b90546001600160a01b0360039290921b1c811691907f000000000000000000000000000000000000000000000000000000000000000016821461084d576040516370a0823160e01b81526001600160a01b038416600482015291602083602481845afa928315610842578693610809575b5082610608575b50600191505b0161056b565b6305f5e10061061f61061983613346565b85613243565b048015908080046001148217156107f55761063e6103e8820482613032565b91600a908282810204821417156107e1578160646106629261066b940204906131f2565b94308785613731565b60405193846101008101106001600160401b03610100870111176107cb578461010060019601604052838152826020820152816040820152426060820152610e1060808201528560a08201528860c08201528860e0820152858060a01b0387168952600660e06005928360205260408c20876000526020526107806040600020948a8060a01b038351166bffffffffffffffffffffffff60a01b87541617865560208301518b870155604083015160028701556060830151600387015560808301516004870155850161075060a08401511515829060ff801983541691151516179055565b60c08301518154610100600160a81b03191660a08d901b8d90039190911660081b610100600160a81b0316179055565b01519101556040519182526020820152610e1060408201527f39a3045328465c82468e6e1dc742164b5a9097c34cf56ee021a8431685c52dbe6060858060a01b03871692a3386105fc565b634e487b7160e01b600052604160045260246000fd5b634e487b7160e01b89526011600452602489fd5b634e487b7160e01b88526011600452602488fd5b9092506020813d60201161083a575b8161082560209383612de4565b81010312610835575191386105f5565b600080fd5b3d9150610818565b6040513d88823e3d90fd5b60019150610602565b50905b60018101839055546040518381526001600160a01b0391821692909116907fde3f14ce4426137f4576388d16723795d5bf5e2f00597e0e8d63816a7342a1e190602090a380f35b908290815b6003820154811015610ed0576108be81600384016131c4565b90546001600160a01b0360039290921b1c8116907f00000000000000000000000000000000000000000000000000000000000000001681148015610e9e575b610e95576040516370a0823160e01b81526001600160a01b038616600482015290602082602481845afa918215610e8a578592610e56575b5081610948575b50506001905b016108a5565b61095482308884613731565b60405163095ea7b360e01b81526001600160a01b037f00000000000000000000000000000000000000000000000000000000000000001660048201526024810183905260208160448189865af180156108425791610a949391602093610e39575b50604051906109c382612dae565b81526001600160a01b037f0000000000000000000000000000000000000000000000000000000000000000811684830152610bb8604080840191909152603c60608401527f000000000000000000000000000000000000000000000000000000000000000090911660808301525191610a3b83612dc9565b60018352838301526040808301889052865481516001600160a01b039182168187019081527f0000000000000000000000000000000000000000000000000000000000000000909216602083015295610aa29287920190565b03601f198101865285612de4565b610ac06040519485938493633cf3645360e21b8552600485016136bd565b0381877f00000000000000000000000000000000000000000000000000000000000000006001600160a01b03165af1908115610d99578491610e07575b508060801d9084918582600f0b13600014610de357506001600160801b039150165b80610b2b575b8061093c565b600483015491959160081c60ff1615610dd157825460405163095ea7b360e01b81526001600160a01b037f00000000000000000000000000000000000000000000000000000000000000008116600483015260248201849052909116919060208180604481010381897f00000000000000000000000000000000000000000000000000000000000000006001600160a01b03165af18015610842579060209291610da4575b507f000000000000000000000000000000000000000000000000000000000000000092610cb260405191610c0383612dae565b6001600160a01b037f00000000000000000000000000000000000000000000000000000000000000008116845286811686850152610bb8604080860191909152603c60608601527f000000000000000000000000000000000000000000000000000000000000000090911660808501525193610c7e85612dc9565b600185528585015260408085018a905280516001600160a01b03928316818801908152929097166020830152869101610a94565b610cd06040519485938493633cf3645360e21b8552600485016136bd565b0381877f00000000000000000000000000000000000000000000000000000000000000006001600160a01b03165af1908115610d99578491610d66575b5080600192610d3a9260801d9186928782600f0b13600014610d4257506001600160801b03169150613032565b945b90610b25565b90508681600f0b13610d55575b50613032565b6001600160801b0316915038610d4f565b90506020813d602011610d91575b81610d8160209383612de4565b8101031261083557516001610d0d565b3d9150610d74565b6040513d86823e3d90fd5b610dc390833d8511610dca575b610dbb8183612de4565b8101906136a5565b5038610bd0565b503d610db1565b610ddd90600192613032565b94610d3c565b90508481600f0b13610df6575b50610b1f565b6001600160801b0391501638610df0565b90506020813d602011610e31575b81610e2260209383612de4565b81010312610835575138610afd565b3d9150610e15565b610e4f90843d8611610dca57610dbb8183612de4565b50386109b5565b9091506020813d602011610e82575b81610e7260209383612de4565b8101031261083557519038610935565b3d9150610e65565b6040513d87823e3d90fd5b50600190610942565b507f00000000000000000000000000000000000000000000000000000000000000006001600160a01b031681146108fd565b50909250610859565b60405162461bcd60e51b815260206004820152601760248201527f446561646c696e6520686173206e6f74207061737365640000000000000000006044820152606490fd5b50346102825780600319360112610282576040517f00000000000000000000000000000000000000000000000000000000000000006001600160a01b03168152602090f35b50346102825760a036600319011261028257610f7d612cbf565b906044356001600160401b03811161027e57610f9d903690600401612eea565b9290610fa7612d3b565b610faf612d4a565b94338552600460205260016040862001546112af576001600160a01b0384161561125b576024351561120257610fe760243542613032565b926040519360c085018581106001600160401b038211176107cb5760405260018060a01b0386168552602085015260243560408501526001600160401b0382116111ee578160051b604051926110406020830185612de4565b8352602083019036818401116111ea5782915b81840183106111d2575050505060608301521515608082015260a0810193151584523383526004602052604083209360018060a01b038251166bffffffffffffffffffffffff60a01b8654161785556020820151600186015560408201516002860155600385019460608301518051906001600160401b0382116111be57600160401b82116111be576020908854838a558084106111a4575b50019686526020862096865b82811061118757505050906111276080600461113e9594019301511515839060ff801983541691151516179055565b51815461ff00191690151560081b61ff0016179055565b61114a60243542613032565b6040519081526001600160a01b039091169033907fd4c9fb4a0298b2717518a542bd4801ce0cb35fd35087636887f9e87ad8d75a3f90602090a380f35b81516001600160a01b0316818a01556020909101906001016110f8565b8989528289206111b8918101908501613162565b386110ec565b634e487b7160e01b87526041600452602487fd5b602080916111df85612ceb565b815201920191611053565b8780fd5b634e487b7160e01b86526041600452602486fd5b60405162461bcd60e51b815260206004820152602b60248201527f446561646c696e65206475726174696f6e206d7573742062652067726561746560448201526a72207468616e207a65726f60a81b6064820152608490fd5b60405162461bcd60e51b815260206004820152602660248201527f42656e65666963696172792063616e6e6f7420626520746865207a65726f206160448201526564647265737360d01b6064820152608490fd5b60405162461bcd60e51b815260206004820152601b60248201527f4163636f756e7420616c726561647920696e697469616c697a656400000000006044820152606490fd5b5034610282576020366003190112610282576001600160a01b0380611317612cbf565b168252816020526040822054169081156113ec5760a060049260405193848092633fabe5a360e21b82525afa9182156113df5781926113a9575b5081131561136457602090604051908152f35b60405162461bcd60e51b815260206004820152601960248201527f496e76616c69642070726963652066726f6d206f7261636c65000000000000006044820152606490fd5b6113cc91925060a03d60a0116113d8575b6113c48183612de4565b810190613306565b50505090509038611351565b503d6113ba565b50604051903d90823e3d90fd5b60405162461bcd60e51b815260206004820152601c60248201527f50726963652066656564206e6f742073657420666f7220746f6b656e000000006044820152606490fd5b50346102825761144036612f1a565b6003546001600160a01b03906114599082163314612f4f565b80831693841561152357169182156114ee5781156114aa57816114a07f821bc8a3eb3d0a249cff1e37c430f9dc4eba89fcad96244d18503c023d9be9f893602093866135fd565b604051908152a380f35b606460405162461bcd60e51b815260206004820152602060248201527f416d6f756e74206d7573742062652067726561746572207468616e207a65726f6044820152fd5b60405162461bcd60e51b815260206004820152600d60248201526c24b73b30b634b2103a37b5b2b760991b6044820152606490fd5b60405162461bcd60e51b815260206004820152601360248201527224b73b30b634b2103232b9ba34b730ba34b7b760691b6044820152606490fd5b5034610282576040366003190112610282576001600160401b03906004356024358381116116ce57611594903690600401612cff565b90916001600160a01b03917f000000000000000000000000000000000000000000000000000000000000000083163303611689578360409181010312611685576115e960206115e285612ceb565b9401612ceb565b908060801d85908683600f0b1360001461165f5750506001600160801b0316915b82611649575b50505050604051906020820192828410908411176107cb57611645926040528152604051918291602083526020830190612eaa565b0390f35b80611656941691166135fd565b38808080611610565b909391508581600f0b13611674575b5061160a565b6001600160801b031692503861166e565b8380fd5b60405162461bcd60e51b815260206004820152601e60248201527f4f6e6c7920506f6f6c4d616e616765722063616e2063616c6c207468697300006044820152606490fd5b8280fd5b50346102825760203660031901126102825760206116f66116f1612cbf565b613346565b604051908152f35b5034610282576020366003190112610282576020906001600160a01b039060409082611728612cbf565b168152808452205416604051908152f35b50346102825760e036600319011261028257611753612cbf565b6001600160401b03908260443583811161027e57611775903690600401612eea565b929093611780612d3b565b93611789612d4a565b60a435838111611af3576117a1903690600401612cff565b95909760c4358581116116ce576117bc903690600401612cff565b969098303b1561168557611804946040519586948594636d50951b60e11b865260018060a01b031698896004870152602435602487015260a0604487015260a48601916131ff565b911515606484015215156084830152038183305af18015611ae857611ac0575b50301461182f578580f35b82151580611ab7575b611841906130dd565b6040519061184e82612d93565b61185936858861311c565b825261186636848761311c565b91602080820193845233895260068152604089209151918251848111611a0957806118918354612d59565b948c601f9686888211611a8b575b50505084908d878411600114611a285792611a1d575b50508160011b916000199060031b1c19161781555b60018091019451918251948511611a09576118e58654612d59565b8481116119d3575b5080938511600114611956575050918061193f94926000805160206137dc833981519152989796948b9261194b575b50508160011b916000199060031b1c19161790555b60405193849333978561319a565b0390a238808080808580f35b01519050388061191c565b858b52808b20939291601f198616918c915b8383106119bc575050509260019285926000805160206137dc8339815191529a99989661193f9896106119a3575b505050811b019055611931565b015160001960f88460031b161c19169055388080611996565b848601518755958601959481019491810191611968565b6119fa90878d52828d208680890160051c820192858a10611a00575b0160051c0190613162565b386118ed565b925081926119ef565b634e487b7160e01b8b52604160045260248bfd5b0151905038806118b5565b8581528681209350601f198516905b87828210611a75575050908460019594939210611a5c575b505050811b0181556118ca565b015160001960f88460031b161c19169055388080611a4f565b6001859682939686015181550195019301611a37565b8287611aaf9452208880860160051c820192898710611a00570160051c0190613162565b8c388661189f565b50811515611838565b828198929811611ad4576040529538611824565b634e487b7160e01b82526041600452602482fd5b6040513d8a823e3d90fd5b8580fd5b50346102825760203660031901126102825760a0906001600160a01b039060ff9060409083611b24612cbf565b16815260046020522091825416916001810154906004600282015491015491604051948552602085015260408401528181161515606084015260081c1615156080820152f35b50346102825780600319360112610282576002546040516001600160a01b039091168152602090f35b50346102825780600319360112610282576040517f00000000000000000000000000000000000000000000000000000000000000006001600160a01b03168152602090f35b50346102825760403660031901126102825760206116f6611bf7612cbf565b611bff612cd5565b90613276565b50346102825760208060031936011261027e576004356001600160401b0381116116ce57611c37903690600401612eea565b913384526004602052600190611c5560016040872001541515613055565b845b848110611ca257505050611c9c7fb90857f670e2787419d97e8ad1483239915b735fecc028adf074ef41c09d602c9160405191829160208352339560208401916131ff565b0390a280f35b3386526004825260408620600582901b850135906003016001600160a01b03821682036111ea57805490600160401b821015611d115791611ced8287959486611d0b950181556131c4565b90919060018060a01b038084549260031b9316831b921b1916179055565b01611c57565b634e487b7160e01b89526041600452602489fd5b503461028257604036600319011261028257611d3f612cbf565b611d47612cd5565b9060018060a01b038091611d6082600354163314612f4f565b1691611d6d831515612fa5565b16908115611db85780835260208390526040832080546001600160a01b031916831790557fa8abe0398416476db5b05737cd4da3b3cbde5012d978a6a6c3fd49d3217535368380a380f35b60405162461bcd60e51b815260206004820152602160248201527f507269636520666565642063616e6e6f74206265207a65726f206164647265736044820152607360f81b6064820152608490fd5b503461028257602036600319011261028257611e21612cbf565b600354906001600160a01b0390611e3b3383851614612f4f565b16908115611e54576001600160a01b0319161760035580f35b606460405162461bcd60e51b815260206004820152602060248201527f4e65772061646d696e2063616e6e6f74206265207a65726f20616464726573736044820152fd5b503461028257602036600319011261028257611eb2612d2c565b3382526004602052611ecc60016040842001541515613055565b3382526004602052611ef081600460408520019060ff801983541691151516179055565b60405190151581527fbd4ccd3b9f23b35b213567ff600237372c8368625bc58d2e36225cc085e03c6d60203392a280f35b503461028257602036600319011261028257611f7f906040906001600160a01b03611f4a612cbf565b168152600660205220611645611f6b6001611f6484612e05565b9301612e05565b604051938493604085526040850190612eaa565b908382036020850152612eaa565b503461028257602036600319011261028257611fa7612d2c565b3382526004602052611fc160016040842001541515613055565b338252600460208190526040832001805461ff00191682151560081b61ff001617905560405190151581527f94c87bc2c95c8b72cf0437c0239fc65c2e8a5569f7ffaf72ac05f074e65c536160203392a280f35b50346102825760203660031901126102825761202f612cbf565b338252600460205260019061204c60016040852001541515613055565b3383526004602052816003806040862001859360018060a01b03809116955b6120a1575b86866040519081527f08eac65c9901be8390f0cf78f2ca8d86e706341713377dca39b0472fc07cdd0560203392a280f35b81548086101561213f5786826120b788866131c4565b905490871b1c16146120ce5750838095019461206b565b9193509193600019918281019081116107f55790611ced846120f361210194886131c4565b905490891b1c1691866131c4565b8254801561212b57019261211584846131c4565b81939154921b1b19169055553880808080612070565b634e487b7160e01b87526031600452602487fd5b50612070565b50346102825780600319360112610282576040517f00000000000000000000000000000000000000000000000000000000000000006001600160a01b03168152602090f35b5034610282576020366003190112610282576020906040906001600160a01b036121b2612cbf565b16815260018352205460581b604051906affffffffffffffffffffff19168152f35b5034610282576040366003190112610282576101009060406121f4612cbf565b916121fd612cd5565b60018060a01b03809416825260056020528383832091168252602052208181541691600182015491600281015460038201546004830154916006600585015494015495604051978852602088015260408701526060860152608085015260ff8116151560a085015260081c1660c083015260e0820152f35b5034610282576040366003190112610282576001600160401b036004358181116116ce576122a7903690600401612cff565b6024929192358281116125ac576122c2903690600401612cff565b919091338652602093600485526001906122e38260408a2001541515613055565b3388526004865260408820546001600160a01b03163003612558578315158061254f575b612310906130dd565b6040519161231d83612d93565b61232836868a61311c565b835261233536858861311c565b92878101938452338a526006885260408a20905190815184811161253b579083918c6123618354612d59565b94601f958d87821161250e575b50508c918684116001146124aa5791908361249f575b5050600019600383901b1c191690831b1781555b019351978851938411611a09576123af8554612d59565b828111612473575b508091841160011461240f575091808092611c9c9695946000805160206137dc8339815191529a8d94612404575b50501b916000199060031b1c191617905560405193849333978561319a565b0151925038806123e5565b919394959697601f198416868c52838c20938c905b82821061245c575050916000805160206137dc83398151915299989795939185611c9c989694106119a357505050811b019055611931565b808886978294978701518155019601940190612424565b61249990868d52828d208480880160051c820192858910611a00570160051c0190613162565b386123b7565b015190503880612384565b8481528d8120929190601f198516908f5b8282106124f757505090848795949392106124de575b505050811b018155612398565b015160001960f88460031b161c191690553880806124d1565b8385015186558a989095019493840193018f6124bb565b61253491868552888286209181880160051c8301938810611a00570160051c0190613162565b388d61236e565b634e487b7160e01b8c52604160045260248cfd5b50821515612307565b60405162461bcd60e51b815260048101879052602660248201527f4665726e206f6e6c79207768656e20636f6e74726163742069732062656e656660448201526569636961727960d01b6064820152608490fd5b8480fd5b503461028257806003193601126102825733815260046020526125db60016040832001541515613091565b33815260046020526125f4600260408320015442613032565b33825260046020528060016040842001556040519081527ff1a463082eff5f74a481d3abd6fc308d976449c50289c0564e946069cb7d880560203392a280f35b5034610282576020366003190112610282576020906001600160a01b03906040908261265e612cbf565b1681528084522054161515604051908152f35b50346102825760203660031901126102825761268b612cbf565b33825260046020526126a560016040842001541515613055565b6001600160a01b031680156126f8573380835260046020526040832080546001600160a01b031916831790557fe72eaf6addaa195f3c83095031dd08f3a96808dcf047babed1fe4e4f69d6c6228380a380f35b60405162461bcd60e51b815260206004820152601a60248201527f42656e65666963696172792063616e6e6f74206265207a65726f0000000000006044820152606490fd5b503461028257604036600319011261028257612757612cbf565b61275f612cd5565b60018060a01b0380831690818552602093600585528160408720941693848752855260408620600581019586549261279960ff8516612ff1565b6127ac6003840154600485015490613032565b42106129e557858952600480835260408a20015460081c60ff16156129bd57847f0000000000000000000000000000000000000000000000000000000000000000945b60081c161561290457506040516370a0823160e01b815230600482015281816024818a5afa9081156128f95789916128a0575b50908461285b60609594937f60fe5c7ed4fe46663ec53f1fbd38f2c85063cea69e1425471df15414dea59aa5978b5460081c168a6135fd565b868a526004825261287c60068260408d2054169401948483875492166135fd565b885460081c169254906040519384528301526040820152a35b805460ff1916905580f35b93929180915084813d83116128f2575b6128ba8183612de4565b810103126128ee579251919290917f60fe5c7ed4fe46663ec53f1fbd38f2c85063cea69e1425471df15414dea59aa5612822565b8880fd5b503d6128b0565b6040513d8b823e3d90fd5b6040516370a0823160e01b8152306004820152945090925090508183602481885afa9283156129b257879361297b575b50906129647f60fe5c7ed4fe46663ec53f1fbd38f2c85063cea69e1425471df15414dea59aa593606093876135fd565b8660405191818352820152836040820152a3612895565b9250908083813d83116129ab575b6129938183612de4565b810103126129a75791519190612964612934565b8680fd5b503d612989565b6040513d89823e3d90fd5b847f0000000000000000000000000000000000000000000000000000000000000000946127ef565b60405162461bcd60e51b8152600481018390526011602482015270105d58dd1a5bdb881b9bdd08195b991959607a1b6044820152606490fd5b503461028257604036600319011261028257612a38612cbf565b602435906affffffffffffffffffffff19821690818303611685577fca2b3580c9ee988529004f370d25905af22fc1e28e742681840ff149984285009160209160018060a01b0390612a8f82600354163314612f4f565b1693612a9c851515612fa5565b84865260018352604086209060581c6affffffffffffffffffffff60a81b825416179055604051908152a280f35b50346102825760209081600319360112610282576001600160a01b03919082612af1612cbf565b168152600482526040812090838254166001906001840154946002850154966004600387019601549760405190818489549182815201908199895285892090895b818110612bac5750505082612b48910383612de4565b6040519860c08a01958a52848a0152604089015260c060608901525180935260e087019594905b838210612b955787808860ff8c8181161515608085015260081c16151560a08301520390f35b855181168752958201959482019490840190612b6f565b82548716845292870192918901918901612b32565b50346102825780600319360112610282576040517f00000000000000000000000000000000000000000000000000000000000000006001600160a01b03168152602090f35b503461028257602036600319011261028257612c20612cbf565b6003546001600160a01b039190612c3a9083163314612f4f565b168015612c7a57600280546001600160a01b031916821790557f3c01cdff3948f21ef3c7c09ef9f489cdea8bb7a4c2d356c635795f8ae7df89658280a280f35b60405162461bcd60e51b815260206004820152601f60248201527f50726f76696465722063616e6e6f74206265207a65726f2061646472657373006044820152606490fd5b600435906001600160a01b038216820361083557565b602435906001600160a01b038216820361083557565b35906001600160a01b038216820361083557565b9181601f84011215610835578235916001600160401b038311610835576020838186019501011161083557565b60043590811515820361083557565b60643590811515820361083557565b60843590811515820361083557565b90600182811c92168015612d89575b6020831014612d7357565b634e487b7160e01b600052602260045260246000fd5b91607f1691612d68565b604081019081106001600160401b038211176107cb57604052565b60a081019081106001600160401b038211176107cb57604052565b606081019081106001600160401b038211176107cb57604052565b90601f801991011681019081106001600160401b038211176107cb57604052565b90604051918260008254612e1881612d59565b90818452602094600191600181169081600014612e885750600114612e49575b505050612e4792500383612de4565b565b600090815285812095935091905b818310612e70575050612e479350820101388080612e38565b85548884018501529485019487945091830191612e57565b92505050612e4794925060ff191682840152151560051b820101388080612e38565b919082519283825260005b848110612ed6575050826000602080949584010152601f8019910116010190565b602081830181015184830182015201612eb5565b9181601f84011215610835578235916001600160401b038311610835576020808501948460051b01011161083557565b6060906003190112610835576001600160a01b0390600435828116810361083557916024359081168103610835579060443590565b15612f5657565b60405162461bcd60e51b815260206004820152602160248201527f4f6e6c792061646d696e2063616e2063616c6c20746869732066756e6374696f6044820152603760f91b6064820152608490fd5b15612fac57565b60405162461bcd60e51b815260206004820152601c60248201527f546f6b656e2063616e6e6f74206265207a65726f2061646472657373000000006044820152606490fd5b15612ff857565b60405162461bcd60e51b815260206004820152601260248201527141756374696f6e206e6f742061637469766560701b6044820152606490fd5b9190820180921161303f57565b634e487b7160e01b600052601160045260246000fd5b1561305c57565b60405162461bcd60e51b815260206004820152600d60248201526c105c9ac81b9bdd08189d5a5b1d609a1b6044820152606490fd5b1561309857565b60405162461bcd60e51b815260206004820152601760248201527f4163636f756e74206e6f7420696e697469616c697a65640000000000000000006044820152606490fd5b156130e457565b60405162461bcd60e51b815260206004820152601060248201526f496e76616c6964204665726e2049447360801b6044820152606490fd5b9291926001600160401b0382116107cb5760405191613145601f8201601f191660200184612de4565b829481845281830111610835578281602093846000960137010152565b81811061316d575050565b60008155600101613162565b908060209392818452848401376000828201840152601f01601f1916010190565b92906131b3906131c19593604086526040860191613179565b926020818503910152613179565b90565b80548210156131dc5760005260206000200190600090565b634e487b7160e01b600052603260045260246000fd5b9190820391821161303f57565b91908082526020809201929160005b82811061321c575050505090565b909192938280600192838060a01b0361323489612ceb565b1681520195019392910161320e565b8181029291811591840414171561303f57565b8115613260570490565b634e487b7160e01b600052601260045260246000fd5b60018060a01b0380911660005260056020526040600020911660005260205260406000206132aa60ff600583015416612ff1565b6132b86003820154426131f2565b90600481015491828110156132e5576131c19261034961034e9261034460026001870154960154866131f2565b5060029150015490565b519069ffffffffffffffffffff8216820361083557565b908160a09103126108355761331a816132ef565b916020820151916040810151916131c16080606084015193016132ef565b519060ff8216820361083557565b9060008060018060a01b0380941680835260209083825260409580878620541680613511575b506002541690816133cf575b5050821561338c57506131c1929350613256565b60649085519062461bcd60e51b82526004820152601860248201527f4e6f20707269636520666565647320617661696c61626c6500000000000000006044820152fd5b60005260018252856affffffffffffffffffffff19816000205460581b16806133f9575b50613378565b81516364d12fa760e11b81526004810182905260008382602481885afa80928280946134cd575b50506134c357505060248251809481936349f4fc0360e11b835260048301525afa60009181613494575b5061348c5750600860005b80613462575b86906133f3565b613478929493916134729161364f565b90613032565b906001810180911161303f5791388061345b565b600890613455565b9091508681813d83116134bc575b6134ac8183612de4565b810103126108355751903861344a565b503d6134a2565b9250925050613455565b9250809350859194953d831161350a575b6134e88183612de4565b8101031261028257509081613502868b9594519201613338565b913880613420565b503d6134de565b8751633fabe5a360e21b81529060a082600481845afa9182156135f35787926135cd575b50868213613544575b5061336c565b600491939550849089979397519283809263313ce56760e01b82525afa9182156135c2578092613585575b505061357a9161364f565b91600193388061353e565b9091508382813d83116135bb575b61359d8183612de4565b810103126102825750906135b361357a92613338565b90913861356f565b503d613593565b8851903d90823e3d90fd5b6135e791925060a03d60a0116113d8576113c48183612de4565b50505090509038613535565b89513d89823e3d90fd5b60405163a9059cbb60e01b60208201526001600160a01b03929092166024830152604480830193909352918152612e4791613639606483612de4565b613773565b60ff16604d811161303f57600a0a90565b9060ff16600881146136a157600881111561368357600719019060ff821161303f5761367d6131c19261363e565b90613256565b6008039060ff821161303f5761369b6131c19261363e565b90613243565b5090565b90816020910312610835575180151581036108355790565b608060406131c195946101209460018060a01b0393818580935116875282602082015116602088015262ffffff858201511685880152606081015160020b606088015201511660808501528051151560a0850152602081015160c085015201511660e0820152816101008201520190612eaa565b6040516323b872dd60e01b60208201526001600160a01b039283166024820152929091166044830152606480830193909352918152612e479161363982612dae565b906000602091828151910182855af1156137cf576000513d6137c657506001600160a01b0381163b155b6137a45750565b604051635274afe760e01b81526001600160a01b039091166004820152602490fd5b6001141561379d565b6040513d6000823e3d90fdfe43507d2f07d7cbcbea5004e155fafc42cb9ec32f0ec4f7cc904bf79aef318e1ba264697066735822122016acd92c670da9ce2a41c040cb390ee9f40ddc2f82068efe8f1288b374f6f88264736f6c63430008180033",
  "linkReferences": {},
  "deployedLinkReferences": {}
}