{
  "_format": "hh-sol-artifact-1",
  "contractName": "NoahV4",
  "sourceName": "contracts/NoahV4.sol",
  "abi": [
    {
      "inputs": [
        {
          "internalType": "contract IPoolManager",
          "name": "_poolManager",
          "type": "address"
        },
        {
          "internalType": "address",
          "name": "_usdc",
          "type": "address"
        },
        {
          "internalType": "address",
          "name": "_pyrusd",
          "type": "address"
        },
        {
          "internalType": "address",
          "name": "_hook",
          "type": "address"
        }
      ],
      "stateMutability": "nonpayable",
      "type": "constructor"
    },
    {
      "inputs": [
        {
          "internalType": "address",
          "name": "token",
          "type": "address"
        }
      ],
      "name": "SafeERC20FailedOperation",
      "type": "error"
    },
    {
      "anonymous": false,
      "inputs": [
        {
          "indexed": true,
          "internalType": "address",
          "name": "user",
          "type": "address"
        },
        {
          "indexed": true,
          "internalType": "address",
          "name": "beneficiary",
          "type": "address"
        },
        {
          "indexed": false,
          "internalType": "uint256",
          "name": "deadline",
          "type": "uint256"
        }
      ],
      "name": "ArkBuilt",
      "type": "event"
    },
    {
      "anonymous": false,
      "inputs": [
        {
          "indexed": true,
          "internalType": "address",
          "name": "user",
          "type": "address"
        },
        {
          "indexed": false,
          "internalType": "uint256",
          "name": "newDeadline",
          "type": "uint256"
        }
      ],
      "name": "ArkPinged",
      "type": "event"
    },
    {
      "anonymous": false,
      "inputs": [
        {
          "indexed": true,
          "internalType": "address",
          "name": "user",
          "type": "address"
        },
        {
          "indexed": false,
          "internalType": "bool",
          "name": "useDutchAuction",
          "type": "bool"
        }
      ],
      "name": "AuctionPreferenceUpdated",
      "type": "event"
    },
    {
      "anonymous": false,
      "inputs": [
        {
          "indexed": true,
          "internalType": "address",
          "name": "user",
          "type": "address"
        },
        {
          "indexed": false,
          "internalType": "uint256",
          "name": "newDuration",
          "type": "uint256"
        },
        {
          "indexed": false,
          "internalType": "uint256",
          "name": "newDeadline",
          "type": "uint256"
        }
      ],
      "name": "DeadlineUpdated",
      "type": "event"
    },
    {
      "anonymous": false,
      "inputs": [
        {
          "indexed": true,
          "internalType": "address",
          "name": "user",
          "type": "address"
        },
        {
          "indexed": true,
          "internalType": "address",
          "name": "token",
          "type": "address"
        },
        {
          "indexed": false,
          "internalType": "address",
          "name": "bidder",
          "type": "address"
        },
        {
          "indexed": false,
          "internalType": "uint256",
          "name": "bidAmount",
          "type": "uint256"
        },
        {
          "indexed": false,
          "internalType": "uint256",
          "name": "currentPrice",
          "type": "uint256"
        }
      ],
      "name": "DutchAuctionBid",
      "type": "event"
    },
    {
      "anonymous": false,
      "inputs": [
        {
          "indexed": true,
          "internalType": "address",
          "name": "user",
          "type": "address"
        },
        {
          "indexed": true,
          "internalType": "address",
          "name": "token",
          "type": "address"
        },
        {
          "indexed": false,
          "internalType": "address",
          "name": "winner",
          "type": "address"
        },
        {
          "indexed": false,
          "internalType": "uint256",
          "name": "amount",
          "type": "uint256"
        },
        {
          "indexed": false,
          "internalType": "address",
          "name": "beneficiary",
          "type": "address"
        }
      ],
      "name": "DutchAuctionSettled",
      "type": "event"
    },
    {
      "anonymous": false,
      "inputs": [
        {
          "indexed": true,
          "internalType": "address",
          "name": "user",
          "type": "address"
        },
        {
          "indexed": true,
          "internalType": "address",
          "name": "token",
          "type": "address"
        },
        {
          "indexed": false,
          "internalType": "uint256",
          "name": "startPrice",
          "type": "uint256"
        },
        {
          "indexed": false,
          "internalType": "uint256",
          "name": "endPrice",
          "type": "uint256"
        },
        {
          "indexed": false,
          "internalType": "uint256",
          "name": "duration",
          "type": "uint256"
        }
      ],
      "name": "DutchAuctionStarted",
      "type": "event"
    },
    {
      "anonymous": false,
      "inputs": [
        {
          "indexed": true,
          "internalType": "address",
          "name": "user",
          "type": "address"
        },
        {
          "indexed": true,
          "internalType": "address",
          "name": "beneficiary",
          "type": "address"
        },
        {
          "indexed": false,
          "internalType": "uint256",
          "name": "usdcAmount",
          "type": "uint256"
        }
      ],
      "name": "FloodTriggered",
      "type": "event"
    },
    {
      "anonymous": false,
      "inputs": [
        {
          "indexed": true,
          "internalType": "address",
          "name": "user",
          "type": "address"
        },
        {
          "indexed": true,
          "internalType": "address",
          "name": "beneficiary",
          "type": "address"
        },
        {
          "indexed": false,
          "internalType": "uint256",
          "name": "amount",
          "type": "uint256"
        }
      ],
      "name": "PYUSDClaimed",
      "type": "event"
    },
    {
      "anonymous": false,
      "inputs": [
        {
          "indexed": true,
          "internalType": "address",
          "name": "user",
          "type": "address"
        },
        {
          "indexed": false,
          "internalType": "address",
          "name": "passenger",
          "type": "address"
        }
      ],
      "name": "PassengerRemoved",
      "type": "event"
    },
    {
      "anonymous": false,
      "inputs": [
        {
          "indexed": true,
          "internalType": "address",
          "name": "user",
          "type": "address"
        },
        {
          "indexed": false,
          "internalType": "address[]",
          "name": "newPassengers",
          "type": "address[]"
        }
      ],
      "name": "PassengersAdded",
      "type": "event"
    },
    {
      "anonymous": false,
      "inputs": [
        {
          "indexed": true,
          "internalType": "address",
          "name": "token",
          "type": "address"
        },
        {
          "indexed": true,
          "internalType": "address",
          "name": "priceFeed",
          "type": "address"
        }
      ],
      "name": "PriceFeedUpdated",
      "type": "event"
    },
    {
      "anonymous": false,
      "inputs": [
        {
          "indexed": true,
          "internalType": "address",
          "name": "user",
          "type": "address"
        },
        {
          "indexed": false,
          "internalType": "bool",
          "name": "usePYUSD",
          "type": "bool"
        }
      ],
      "name": "TargetCurrencyPreferenceUpdated",
      "type": "event"
    },
    {
      "inputs": [
        {
          "internalType": "address[]",
          "name": "_newPassengers",
          "type": "address[]"
        }
      ],
      "name": "addPassengers",
      "outputs": [],
      "stateMutability": "nonpayable",
      "type": "function"
    },
    {
      "inputs": [],
      "name": "admin",
      "outputs": [
        {
          "internalType": "address",
          "name": "",
          "type": "address"
        }
      ],
      "stateMutability": "view",
      "type": "function"
    },
    {
      "inputs": [
        {
          "internalType": "address",
          "name": "",
          "type": "address"
        }
      ],
      "name": "arks",
      "outputs": [
        {
          "internalType": "address",
          "name": "beneficiary",
          "type": "address"
        },
        {
          "internalType": "uint256",
          "name": "deadline",
          "type": "uint256"
        },
        {
          "internalType": "uint256",
          "name": "deadlineDuration",
          "type": "uint256"
        },
        {
          "internalType": "bool",
          "name": "useDutchAuction",
          "type": "bool"
        },
        {
          "internalType": "bool",
          "name": "usePYUSD",
          "type": "bool"
        }
      ],
      "stateMutability": "view",
      "type": "function"
    },
    {
      "inputs": [
        {
          "internalType": "address",
          "name": "",
          "type": "address"
        },
        {
          "internalType": "address",
          "name": "",
          "type": "address"
        }
      ],
      "name": "auctions",
      "outputs": [
        {
          "internalType": "address",
          "name": "token",
          "type": "address"
        },
        {
          "internalType": "uint256",
          "name": "startPrice",
          "type": "uint256"
        },
        {
          "internalType": "uint256",
          "name": "endPrice",
          "type": "uint256"
        },
        {
          "internalType": "uint256",
          "name": "startTime",
          "type": "uint256"
        },
        {
          "internalType": "uint256",
          "name": "duration",
          "type": "uint256"
        },
        {
          "internalType": "bool",
          "name": "active",
          "type": "bool"
        },
        {
          "internalType": "address",
          "name": "highestBidder",
          "type": "address"
        },
        {
          "internalType": "uint256",
          "name": "highestBid",
          "type": "uint256"
        }
      ],
      "stateMutability": "view",
      "type": "function"
    },
    {
      "inputs": [
        {
          "internalType": "address",
          "name": "_user",
          "type": "address"
        },
        {
          "internalType": "address",
          "name": "_token",
          "type": "address"
        },
        {
          "internalType": "uint256",
          "name": "_bidAmount",
          "type": "uint256"
        }
      ],
      "name": "bidOnDutchAuction",
      "outputs": [],
      "stateMutability": "nonpayable",
      "type": "function"
    },
    {
      "inputs": [
        {
          "internalType": "address",
          "name": "_beneficiary",
          "type": "address"
        },
        {
          "internalType": "uint256",
          "name": "_deadlineDuration",
          "type": "uint256"
        },
        {
          "internalType": "address[]",
          "name": "_tokens",
          "type": "address[]"
        },
        {
          "internalType": "bool",
          "name": "_useDutchAuction",
          "type": "bool"
        },
        {
          "internalType": "bool",
          "name": "_usePYUSD",
          "type": "bool"
        }
      ],
      "name": "buildArk",
      "outputs": [],
      "stateMutability": "nonpayable",
      "type": "function"
    },
    {
      "inputs": [
        {
          "internalType": "address",
          "name": "_user",
          "type": "address"
        }
      ],
      "name": "flood",
      "outputs": [],
      "stateMutability": "nonpayable",
      "type": "function"
    },
    {
      "inputs": [
        {
          "internalType": "address",
          "name": "user",
          "type": "address"
        }
      ],
      "name": "getArk",
      "outputs": [
        {
          "internalType": "address",
          "name": "beneficiary",
          "type": "address"
        },
        {
          "internalType": "uint256",
          "name": "deadline",
          "type": "uint256"
        },
        {
          "internalType": "uint256",
          "name": "deadlineDuration",
          "type": "uint256"
        },
        {
          "internalType": "address[]",
          "name": "tokens",
          "type": "address[]"
        },
        {
          "internalType": "bool",
          "name": "useDutchAuction",
          "type": "bool"
        },
        {
          "internalType": "bool",
          "name": "usePYUSD",
          "type": "bool"
        }
      ],
      "stateMutability": "view",
      "type": "function"
    },
    {
      "inputs": [
        {
          "internalType": "address",
          "name": "_user",
          "type": "address"
        },
        {
          "internalType": "address",
          "name": "_token",
          "type": "address"
        }
      ],
      "name": "getCurrentAuctionPrice",
      "outputs": [
        {
          "internalType": "uint256",
          "name": "currentPrice",
          "type": "uint256"
        }
      ],
      "stateMutability": "view",
      "type": "function"
    },
    {
      "inputs": [
        {
          "internalType": "address",
          "name": "_token",
          "type": "address"
        }
      ],
      "name": "getTokenPrice",
      "outputs": [
        {
          "internalType": "uint256",
          "name": "price",
          "type": "uint256"
        }
      ],
      "stateMutability": "view",
      "type": "function"
    },
    {
      "inputs": [
        {
          "internalType": "address",
          "name": "_token",
          "type": "address"
        }
      ],
      "name": "hasPriceFeed",
      "outputs": [
        {
          "internalType": "bool",
          "name": "",
          "type": "bool"
        }
      ],
      "stateMutability": "view",
      "type": "function"
    },
    {
      "inputs": [],
      "name": "hookAddress",
      "outputs": [
        {
          "internalType": "address",
          "name": "",
          "type": "address"
        }
      ],
      "stateMutability": "view",
      "type": "function"
    },
    {
      "inputs": [],
      "name": "pingArk",
      "outputs": [],
      "stateMutability": "nonpayable",
      "type": "function"
    },
    {
      "inputs": [],
      "name": "poolManager",
      "outputs": [
        {
          "internalType": "contract IPoolManager",
          "name": "",
          "type": "address"
        }
      ],
      "stateMutability": "view",
      "type": "function"
    },
    {
      "inputs": [
        {
          "internalType": "BalanceDelta",
          "name": "delta",
          "type": "int256"
        },
        {
          "internalType": "bytes",
          "name": "data",
          "type": "bytes"
        }
      ],
      "name": "poolManagerSwapCallback",
      "outputs": [
        {
          "internalType": "bytes",
          "name": "",
          "type": "bytes"
        }
      ],
      "stateMutability": "nonpayable",
      "type": "function"
    },
    {
      "inputs": [
        {
          "internalType": "address",
          "name": "",
          "type": "address"
        }
      ],
      "name": "priceFeeds",
      "outputs": [
        {
          "internalType": "address",
          "name": "",
          "type": "address"
        }
      ],
      "stateMutability": "view",
      "type": "function"
    },
    {
      "inputs": [],
      "name": "pyrusdAddress",
      "outputs": [
        {
          "internalType": "address",
          "name": "",
          "type": "address"
        }
      ],
      "stateMutability": "view",
      "type": "function"
    },
    {
      "inputs": [
        {
          "internalType": "address",
          "name": "_passengerToRemove",
          "type": "address"
        }
      ],
      "name": "removePassenger",
      "outputs": [],
      "stateMutability": "nonpayable",
      "type": "function"
    },
    {
      "inputs": [
        {
          "internalType": "address",
          "name": "_token",
          "type": "address"
        },
        {
          "internalType": "address",
          "name": "_priceFeed",
          "type": "address"
        }
      ],
      "name": "setPriceFeed",
      "outputs": [],
      "stateMutability": "nonpayable",
      "type": "function"
    },
    {
      "inputs": [
        {
          "internalType": "address",
          "name": "_user",
          "type": "address"
        },
        {
          "internalType": "address",
          "name": "_token",
          "type": "address"
        }
      ],
      "name": "settleDutchAuction",
      "outputs": [],
      "stateMutability": "nonpayable",
      "type": "function"
    },
    {
      "inputs": [
        {
          "internalType": "address",
          "name": "_newAdmin",
          "type": "address"
        }
      ],
      "name": "transferAdmin",
      "outputs": [],
      "stateMutability": "nonpayable",
      "type": "function"
    },
    {
      "inputs": [
        {
          "internalType": "bool",
          "name": "_useDutchAuction",
          "type": "bool"
        }
      ],
      "name": "updateAuctionPreference",
      "outputs": [],
      "stateMutability": "nonpayable",
      "type": "function"
    },
    {
      "inputs": [
        {
          "internalType": "uint256",
          "name": "_newDuration",
          "type": "uint256"
        }
      ],
      "name": "updateDeadlineDuration",
      "outputs": [],
      "stateMutability": "nonpayable",
      "type": "function"
    },
    {
      "inputs": [
        {
          "internalType": "bool",
          "name": "_usePYUSD",
          "type": "bool"
        }
      ],
      "name": "updateTargetCurrencyPreference",
      "outputs": [],
      "stateMutability": "nonpayable",
      "type": "function"
    },
    {
      "inputs": [],
      "name": "usdcAddress",
      "outputs": [
        {
          "internalType": "address",
          "name": "",
          "type": "address"
        }
      ],
      "stateMutability": "view",
      "type": "function"
    }
  ],
  "bytecode": "0x610100346200015b57601f620027e038819003918201601f19168301916001600160401b0383118484101762000160578084926080946040528339810103126200015b578051906001600160a01b03821682036200015b57620000656020820162000176565b620000816060620000796040850162000176565b930162000176565b60809390935260a05260c05260e052600180546001600160a01b0319163317905560405161265490816200018c823960805181818161090201528181610a6101528181610af601528181610c7701528181610ec401526112ec015260a0518181816103e2015281816105460152818161086a01528181610967015281816109fd01528181610b3501528181610bab01528181611e980152612001015260c05181818161035901528181610b7101528181610e32015281816114dc0152611cc0015260e0518181816109a101528181610bea0152611a8e0152f35b600080fd5b634e487b7160e01b600052604160045260246000fd5b51906001600160a01b03821682036200015b5756fe608080604052600436101561001357600080fd5b60003560e01c90816302d4545714611fee5750806305688c1c14611ef65780630a50960d14611c275780630b7983a214611bea5780630fe23da914611b615780631824294114611abd57806332a3cf9614611a78578063454d58d214611944578063500994c5146118b9578063642e084e1461182e57806375829def1461179f57806376e112861461167a57806379000013146115375780637a08d7301461150b5780637e923b72146114c657806388b21872146114555780639dcb511a1461141a578063afa9862a14611296578063d02641a01461126b578063daa12a3614610ef3578063dc4c90d314610eae578063f2511bb1146104bf578063f76e369614610246578063f851a4401461021d5763fabb6a381461013257600080fd5b34610218576020806003193601126102185760043590336000526002815261016360016040600020015415156121e4565b81156101c957336000526002815281600260406000200155610185824261218b565b903360005260028152816001604060002001556040519283528201527f270517e45d27f999faef5e16a3159117c83577723363227c5901cb52e315d86860403392a2005b6084906040519062461bcd60e51b82526004820152602260248201527f4475726174696f6e206d7573742062652067726561746572207468616e207a65604482015261726f60f01b6064820152fd5b600080fd5b34610218576000366003190112610218576001546040516001600160a01b039091168152602090f35b346102185760603660031901126102185761025f612030565b610267612046565b9060443560018060a01b038092169182600052602091600383528160406000209516948560005283526040600020600581016102a660ff82541661214a565b60038201546004830154906102bb828261218b565b42101561048a57841561043957906102fb6102d9610301934261224e565b916102f66001870154936102f160028901548661224e565b6122b1565b6122c4565b9061224e565b9384841061040657926006606095936103b683947f703f9d09ecb9c1cb479797ac961a23f831480452f96fb5cdfe420b352742a46499978b6000526002895260ff60046040600020015460081c166000146103df57807f00000000000000000000000000000000000000000000000000000000000000005b169061038787303385612580565b825460081c1690816103ca575b50508054610100600160a81b0319163360081b610100600160a81b0316179055565b0155604051923384528301526040820152a3005b6103d89186860154916124b1565b8c80610394565b807f0000000000000000000000000000000000000000000000000000000000000000610379565b60405162461bcd60e51b815260048101879052600b60248201526a42696420746f6f206c6f7760a81b6044820152606490fd5b60405162461bcd60e51b8152600481018890526024808201527f42696420616d6f756e74206d7573742062652067726561746572207468616e206044820152637a65726f60e01b6064820152608490fd5b60405162461bcd60e51b815260048101889052600d60248201526c105d58dd1a5bdb88195b991959609a1b6044820152606490fd5b34610218576020366003190112610218576104d8612030565b6001600160a01b03811660009081526002602052604090206001810154610500811515612198565b4210610e6957600481015460ff16156108355760005b60038201548110156107ec5761052f8160038401612220565b90546001600160a01b0360039290921b1c811691907f00000000000000000000000000000000000000000000000000000000000000001682146107e3576040516370a0823160e01b81526001600160a01b038516600482015291602083602481845afa9283156107d7576000936107a3575b50826105b4575b50600191505b01610516565b6305f5e1006105cb6105c583612377565b856122b1565b0480159080800460011482171561078d576105ea6103e882048261218b565b91600a9082828102048214171561078d5781606461060e926106179402049061224e565b94308885612580565b604051938461010081011067ffffffffffffffff61010087011117610777578461010060019601604052838152826020820152816040820152426060820152610e1060808201528560a0820152600060c0820152600060e0820152858060a01b0388166000526003602052604060002084600052602052600660e0604060002092888060a01b038151166001600160601b0360a01b85541617845560208101518985015560408101516002850155606081015160038501556080810151600485015561072c600585016106fc60a08401511515829060ff801983541691151516179055565b60c08301518154610100600160a81b03191660a08d901b8d90039190911660081b610100600160a81b0316179055565b01519101556040519182526020820152610e1060408201527f39a3045328465c82468e6e1dc742164b5a9097c34cf56ee021a8431685c52dbe6060858060a01b03881692a3846105a8565b634e487b7160e01b600052604160045260246000fd5b634e487b7160e01b600052601160045260246000fd5b9092506020813d6020116107cf575b816107bf60209383612128565b81010312610218575191856105a1565b3d91506107b2565b6040513d6000823e3d90fd5b600191506105ae565b505b60006001820181905590546040519182526001600160a01b039081169216907fde3f14ce4426137f4576388d16723795d5bf5e2f00597e0e8d63816a7342a1e190602090a3005b60009160005b6003830154811015610e61576108548160038501612220565b90546001600160a01b0360039290921b1c8116907f00000000000000000000000000000000000000000000000000000000000000001681148015610e2f575b610e26576040516370a0823160e01b81526001600160a01b038416600482015290602082602481845afa9182156107d757600092610df2575b50816108df575b50506001905b0161083b565b6108eb82308684612580565b60405163095ea7b360e01b81526001600160a01b037f000000000000000000000000000000000000000000000000000000000000000016600482015260248101839052916020836044816000865af19182156107d757610a2f93602093610dd5575b506040519061095b826120f0565b81526001600160a01b037f0000000000000000000000000000000000000000000000000000000000000000811684830152610bb8604080840191909152603c60608401527f0000000000000000000000000000000000000000000000000000000000000000909116608083015251916109d38361210c565b60018352838301526000604080840191909152875481516001600160a01b039182168187019081527f0000000000000000000000000000000000000000000000000000000000000000909216602083015295610a3d9287920190565b03601f198101865285612128565b610a5b6040519485938493633cf3645360e21b85526004850161250c565b038160007f00000000000000000000000000000000000000000000000000000000000000006001600160a01b03165af19081156107d757600091610da3575b508060801d90600091600082600f0b13600014610d7e57506001600160801b039150165b80610aca575b806108d3565b600484015491949160081c60ff1615610d6c57835460405163095ea7b360e01b81526001600160a01b037f00000000000000000000000000000000000000000000000000000000000000008116600483015260248201849052909116916020828060448101038160007f00000000000000000000000000000000000000000000000000000000000000006001600160a01b03165af19182156107d757602092610d3f575b507f000000000000000000000000000000000000000000000000000000000000000092610c5360405191610ba1836120f0565b6001600160a01b037f00000000000000000000000000000000000000000000000000000000000000008116845286811686850152610bb8604080860191909152603c60608601527f000000000000000000000000000000000000000000000000000000000000000090911660808501525193610c1c8561210c565b6001855285850152600060408086019190915280516001600160a01b03928316818801908152929097166020830152869101610a2f565b610c716040519485938493633cf3645360e21b85526004850161250c565b038160007f00000000000000000000000000000000000000000000000000000000000000006001600160a01b03165af19081156107d757600091610d0c575b5080600192610cdf9260801d91600092600082600f0b13600014610ce757506001600160801b0316915061218b565b935b90610ac4565b9050600081600f0b13610cfb575b5061218b565b6001600160801b0316915087610cf5565b90506020813d602011610d37575b81610d2760209383612128565b8101031261021857516001610cb0565b3d9150610d1a565b610d5e90833d8511610d65575b610d568183612128565b8101906124f4565b5087610b6e565b503d610d4c565b610d789060019261218b565b93610ce1565b9050600081600f0b13610d92575b50610abe565b6001600160801b0391501685610d8c565b90506020813d602011610dcd575b81610dbe60209383612128565b81010312610218575185610a9a565b3d9150610db1565b610deb90843d8611610d6557610d568183612128565b508861094d565b9091506020813d602011610e1e575b81610e0e60209383612128565b81010312610218575190866108cc565b3d9150610e01565b506001906108d9565b507f00000000000000000000000000000000000000000000000000000000000000006001600160a01b03168114610893565b5091506107ee565b60405162461bcd60e51b815260206004820152601760248201527f446561646c696e6520686173206e6f74207061737365640000000000000000006044820152606490fd5b34610218576000366003190112610218576040517f00000000000000000000000000000000000000000000000000000000000000006001600160a01b03168152602090f35b346102185760a036600319011261021857610f0c612030565b60443567ffffffffffffffff811161021857610f2c90369060040161207f565b91906064359081151582036102185760843590811515820361021857336000526002602052600160406000200154611226576001600160a01b038416156111d2576024351561117957610f816024354261218b565b906040519160c0830183811067ffffffffffffffff8211176107775760405260018060a01b03861683526020830152602435604083015267ffffffffffffffff8611610777578560051b60405196610fdc6020830189612128565b8752602087019036818401116102185782915b818401831061116157505050506060810194855260808101921515835260a0810191151582523360005260026020526040806000209160018060a01b038151166001600160601b0360a01b845416178355602081015160018401550151600282015560038101945180519067ffffffffffffffff821161077757600160401b8211610777578654828855808310611138575b506020019560005260206000209560005b82811061111b57866110d387876110bc6004890192511515839060ff801983541691151516179055565b51815461ff00191690151560081b61ff0016179055565b6110df6024354261218b565b6040519081526001600160a01b039091169033907fd4c9fb4a0298b2717518a542bd4801ce0cb35fd35087636887f9e87ad8d75a3f90602090a3005b81516001600160a01b031681890155602090910190600101611092565b8760005282602060002091820191015b8181106111555750611081565b60008155600101611148565b6020809161116e8561205c565b815201920191610fef565b60405162461bcd60e51b815260206004820152602b60248201527f446561646c696e65206475726174696f6e206d7573742062652067726561746560448201526a72207468616e207a65726f60a81b6064820152608490fd5b60405162461bcd60e51b815260206004820152602660248201527f42656e65666963696172792063616e6e6f7420626520746865207a65726f206160448201526564647265737360d01b6064820152608490fd5b60405162461bcd60e51b815260206004820152601b60248201527f4163636f756e7420616c726561647920696e697469616c697a656400000000006044820152606490fd5b3461021857602036600319011261021857602061128e611289612030565b612377565b604051908152f35b346102185760403660031901126102185767ffffffffffffffff602435600435828211610218573660238301121561021857816004013583811161021857820190366024830111610218576001600160a01b03917f0000000000000000000000000000000000000000000000000000000000000000831633036113d55783604091031261021857611335604461132e6024860161205c565b940161205c565b908060801d600090600083600f0b136000146113ae5750506001600160801b0316915b82611398575b505050506040516020810191818310908311176107775761139491604052600081526040519182916020835260208301906120b0565b0390f35b806113a5941691166124b1565b8180808061135e565b90939150600081600f0b136113c4575b50611358565b6001600160801b03169250856113be565b60405162461bcd60e51b815260206004820152601e60248201527f4f6e6c7920506f6f6c4d616e616765722063616e2063616c6c207468697300006044820152606490fd5b346102185760203660031901126102185760206001600160a01b038061143e612030565b166000526000825260406000205416604051908152f35b346102185760203660031901126102185760a06001600160a01b0380611479612030565b16600052600260205260ff604060002091825416916001810154906004600282015491015491604051948552602085015260408401528181161515606084015260081c1615156080820152f35b34610218576000366003190112610218576040517f00000000000000000000000000000000000000000000000000000000000000006001600160a01b03168152602090f35b3461021857604036600319011261021857602061128e611529612030565b611531612046565b906122e4565b34610218576020806003193601126102185760043567ffffffffffffffff81116102185761156990369060040161207f565b909133600052600280825260019061158a60016040600020015415156121e4565b60005b84811061160357505060405192808385018486525260408401949260005b8281106115db57337fb90857f670e2787419d97e8ad1483239915b735fecc028adf074ef41c09d602c87890388a2005b909192828082969860018060a01b036115f38b61205c565b16815201970194939291016115ab565b336000908152828552604090209394929360030190600581901b8701356001600160a01b038116810361021857825490600160401b821015610777576116528288958661167095018155612220565b90919060018060a01b038084549260031b9316831b921b1916179055565b019392919361158d565b3461021857604036600319011261021857611693612030565b61169b612046565b9060018060a01b0380916116b48260015416331461225b565b1691821561175a571690811561170b578060005260006020526040600020826001600160601b0360a01b8254161790557fa8abe0398416476db5b05737cd4da3b3cbde5012d978a6a6c3fd49d321753536600080a3005b60405162461bcd60e51b815260206004820152602160248201527f507269636520666565642063616e6e6f74206265207a65726f206164647265736044820152607360f81b6064820152608490fd5b60405162461bcd60e51b815260206004820152601c60248201527f546f6b656e2063616e6e6f74206265207a65726f2061646472657373000000006044820152606490fd5b34610218576020366003190112610218576117b8612030565b600154906001600160a01b03906117d2338385161461225b565b169081156117ea576001600160a01b03191617600155005b606460405162461bcd60e51b815260206004820152602060248201527f4e65772061646d696e2063616e6e6f74206265207a65726f20616464726573736044820152fd5b3461021857602036600319011261021857611847612070565b33600052600260205261186360016040600020015415156121e4565b3360005260026020526118898160046040600020019060ff801983541691151516179055565b60405190151581527fbd4ccd3b9f23b35b213567ff600237372c8368625bc58d2e36225cc085e03c6d60203392a2005b34610218576020366003190112610218576118d2612070565b3360005260026020526118ee60016040600020015415156121e4565b336000908152600260205260409020600401805461ff00191682151560081b61ff001617905560405190151581527f94c87bc2c95c8b72cf0437c0239fc65c2e8a5569f7ffaf72ac05f074e65c536160203392a2005b346102185760203660031901126102185761195d612030565b33600052600260205260019061197c60016040600020015415156121e4565b3360005260026020528160038060406000200160009360018060a01b03809116955b6119d2575b856040519081527f08eac65c9901be8390f0cf78f2ca8d86e706341713377dca39b0472fc07cdd0560203392a2005b815480861015611a725786826119e88886612220565b905490871b1c16146119ff5750838095019461199e565b9294919350916000199182820191821161078d5761165284611a24611a329488612220565b905490891b1c169186612220565b82548015611a5c570192611a468484612220565b81939154921b1b191690555581808080806119a3565b634e487b7160e01b600052603160045260246000fd5b506119a3565b34610218576000366003190112610218576040517f00000000000000000000000000000000000000000000000000000000000000006001600160a01b03168152602090f35b3461021857604036600319011261021857610100611ad9612030565b611ae1612046565b60018060a01b038092166000526003602052816040600020911660005260205260406000208181541691600182015491600281015460038201546004830154916006600585015494015495604051978852602088015260408701526060860152608085015260ff8116151560a085015260081c1660c083015260e0820152f35b3461021857600036600319011261021857336000526002602052611b8e6001604060002001541515612198565b336000526002602052611ba96002604060002001544261218b565b336000526002602052806001604060002001556040519081527ff1a463082eff5f74a481d3abd6fc308d976449c50289c0564e946069cb7d880560203392a2005b346102185760203660031901126102185760206001600160a01b0380611c0e612030565b1660005260008252604060002054161515604051908152f35b3461021857604036600319011261021857611c40612030565b611c48612046565b60018060a01b0380831690816000526020936003855281604060002094169384600052855260406000206005810195865492611c8660ff851661214a565b611c99600384015460048501549061218b565b4210611ebd57856000526002825260ff60046040600020015460081c16600014611e9557847f0000000000000000000000000000000000000000000000000000000000000000945b60081c1615611de957506040516370a0823160e01b815230600482015281816024818a5afa9081156107d757600091611d94575b509084611d4e60609594937f60fe5c7ed4fe46663ec53f1fbd38f2c85063cea69e1425471df15414dea59aa5978b5460081c168a6124b1565b8660005260028252611d71600682604060002054169401948483875492166124b1565b885460081c169254906040519384528301526040820152a35b805460ff19169055005b93929180915084813d8311611de2575b611dae8183612128565b81010312610218579251919290917f60fe5c7ed4fe46663ec53f1fbd38f2c85063cea69e1425471df15414dea59aa5611d15565b503d611da4565b6040516370a0823160e01b8152306004820152945090925090508183602481885afa9283156107d757600093611e62575b5090611e4a7f60fe5c7ed4fe46663ec53f1fbd38f2c85063cea69e1425471df15414dea59aa593606093876124b1565b600060405191818352820152836040820152a3611d8a565b9250908083813d8311611e8e575b611e7a8183612128565b810103126102185791519190611e4a611e1a565b503d611e70565b847f000000000000000000000000000000000000000000000000000000000000000094611ce1565b60405162461bcd60e51b8152600481018390526011602482015270105d58dd1a5bdb881b9bdd08195b991959607a1b6044820152606490fd5b3461021857602080600319360112610218576001600160a01b0380611f19612030565b166000526002825260406000208181541691600180830154936002840154956004600386019501549660405190818388549182815201908198600052846000209060005b818110611fd95750505082611f73910383612128565b6040519760c0890194895283890152604088015260c060608801525180925260e0860194936000905b838210611fc25787808860ff8c8181161515608085015260081c16151560a08301520390f35b855181168752958201959482019490840190611f9c565b82548a16845292860192918801918801611f5d565b34610218576000366003190112610218577f00000000000000000000000000000000000000000000000000000000000000006001600160a01b03168152602090f35b600435906001600160a01b038216820361021857565b602435906001600160a01b038216820361021857565b35906001600160a01b038216820361021857565b60043590811515820361021857565b9181601f840112156102185782359167ffffffffffffffff8311610218576020808501948460051b01011161021857565b919082519283825260005b8481106120dc575050826000602080949584010152601f8019910116010190565b6020818301810151848301820152016120bb565b60a0810190811067ffffffffffffffff82111761077757604052565b6060810190811067ffffffffffffffff82111761077757604052565b90601f8019910116810190811067ffffffffffffffff82111761077757604052565b1561215157565b60405162461bcd60e51b815260206004820152601260248201527141756374696f6e206e6f742061637469766560701b6044820152606490fd5b9190820180921161078d57565b1561219f57565b60405162461bcd60e51b815260206004820152601760248201527f4163636f756e74206e6f7420696e697469616c697a65640000000000000000006044820152606490fd5b156121eb57565b60405162461bcd60e51b815260206004820152600d60248201526c105c9ac81b9bdd08189d5a5b1d609a1b6044820152606490fd5b80548210156122385760005260206000200190600090565b634e487b7160e01b600052603260045260246000fd5b9190820391821161078d57565b1561226257565b60405162461bcd60e51b815260206004820152602160248201527f4f6e6c792061646d696e2063616e2063616c6c20746869732066756e6374696f6044820152603760f91b6064820152608490fd5b8181029291811591840414171561078d57565b81156122ce570490565b634e487b7160e01b600052601260045260246000fd5b60018060a01b03809116600052600360205260406000209116600052602052604060002061231860ff60058301541661214a565b61232660038201544261224e565b906004810154918281101561235657612353926102f66102fb926102f1600260018701549601548661224e565b90565b5060029150015490565b519069ffffffffffffffffffff8216820361021857565b60018060a01b03806000921682528160205260408220541690811561246c5760a060049260405193848092633fabe5a360e21b82525afa91821561245f57819261240c575b508113156123c75790565b60405162461bcd60e51b815260206004820152601960248201527f496e76616c69642070726963652066726f6d206f7261636c65000000000000006044820152606490fd5b90915060a0813d60a011612457575b8161242860a09383612128565b810103126124535761243981612360565b5061244b608060208301519201612360565b5090386123bc565b5080fd5b3d915061241b565b50604051903d90823e3d90fd5b60405162461bcd60e51b815260206004820152601c60248201527f50726963652066656564206e6f742073657420666f7220746f6b656e000000006044820152606490fd5b60405163a9059cbb60e01b60208201526001600160a01b039290921660248301526044808301939093529181526124f2916124ed606483612128565b6125c2565b565b90816020910312610218575180151581036102185790565b6080604061235395946101209460018060a01b0393818580935116875282602082015116602088015262ffffff858201511685880152606081015160020b606088015201511660808501528051151560a0850152602081015160c085015201511660e08201528161010082015201906120b0565b6040516323b872dd60e01b60208201526001600160a01b0392831660248201529290911660448301526064808301939093529181526124f2916124ed826120f0565b906000602091828151910182855af1156107d7576000513d61261557506001600160a01b0381163b155b6125f35750565b604051635274afe760e01b81526001600160a01b039091166004820152602490fd5b600114156125ec56fea26469706673582212208c43f1dee7543e9e794205dc1d5ae122be0f2e800c45c9e213c1efa074c6fd8f64736f6c63430008180033",
  "linkReferences": {},
  "deployedLinkReferences": {}
}